{"contractName":"Factory","abi":[{"inputs":[{"internalType":"address","name":"_feeToSetter","type":"address"},{"internalType":"address","name":"_OnoutFeeTo","type":"address"}],"stateMutability":"nonpayable","type":"constructor"},{"anonymous":false,"inputs":[{"indexed":true,"internalType":"address","name":"token0","type":"address"},{"indexed":true,"internalType":"address","name":"token1","type":"address"},{"indexed":false,"internalType":"address","name":"pair","type":"address"},{"indexed":false,"internalType":"uint256","name":"","type":"uint256"}],"name":"PairCreated","type":"event"},{"inputs":[],"name":"INIT_CODE_PAIR_HASH","outputs":[{"internalType":"bytes32","name":"","type":"bytes32"}],"stateMutability":"view","type":"function"},{"inputs":[],"name":"MAX_PROTOCOL_FEE_PERCENT","outputs":[{"internalType":"uint256","name":"","type":"uint256"}],"stateMutability":"view","type":"function"},{"inputs":[],"name":"MAX_TOTAL_FEE_PERCENT","outputs":[{"internalType":"uint256","name":"","type":"uint256"}],"stateMutability":"view","type":"function"},{"inputs":[],"name":"OnoutFeePercent","outputs":[{"internalType":"uint256","name":"","type":"uint256"}],"stateMutability":"view","type":"function"},{"inputs":[],"name":"OnoutFeeSetter","outputs":[{"internalType":"address","name":"","type":"address"}],"stateMutability":"view","type":"function"},{"inputs":[],"name":"OnoutFeeTo","outputs":[{"internalType":"address","name":"","type":"address"}],"stateMutability":"view","type":"function"},{"inputs":[{"internalType":"uint256","name":"","type":"uint256"}],"name":"POSSIBLE_PROTOCOL_PERCENT","outputs":[{"internalType":"uint256","name":"","type":"uint256"}],"stateMutability":"view","type":"function"},{"inputs":[],"name":"allFeeToProtocol","outputs":[{"internalType":"bool","name":"","type":"bool"}],"stateMutability":"view","type":"function"},{"inputs":[{"internalType":"uint256","name":"","type":"uint256"}],"name":"allPairs","outputs":[{"internalType":"address","name":"","type":"address"}],"stateMutability":"view","type":"function"},{"inputs":[],"name":"feeTo","outputs":[{"internalType":"address","name":"","type":"address"}],"stateMutability":"view","type":"function"},{"inputs":[],"name":"feeToSetter","outputs":[{"internalType":"address","name":"","type":"address"}],"stateMutability":"view","type":"function"},{"inputs":[{"internalType":"address","name":"","type":"address"},{"internalType":"address","name":"","type":"address"}],"name":"getPair","outputs":[{"internalType":"address","name":"","type":"address"}],"stateMutability":"view","type":"function"},{"inputs":[],"name":"protocolFee","outputs":[{"internalType":"uint256","name":"","type":"uint256"}],"stateMutability":"view","type":"function"},{"inputs":[],"name":"totalFee","outputs":[{"internalType":"uint256","name":"","type":"uint256"}],"stateMutability":"view","type":"function"},{"inputs":[],"name":"totalSwaps","outputs":[{"internalType":"uint256","name":"","type":"uint256"}],"stateMutability":"view","type":"function"},{"inputs":[],"name":"allPairsLength","outputs":[{"internalType":"uint256","name":"","type":"uint256"}],"stateMutability":"view","type":"function"},{"inputs":[],"name":"allInfo","outputs":[{"components":[{"internalType":"uint256[30]","name":"POSSIBLE_PROTOCOL_PERCENT","type":"uint256[30]"},{"internalType":"uint256","name":"MAX_TOTAL_FEE_PERCENT","type":"uint256"},{"internalType":"uint256","name":"MAX_PROTOCOL_FEE_PERCENT","type":"uint256"},{"internalType":"uint256","name":"totalSwaps","type":"uint256"},{"internalType":"uint256","name":"protocolFee","type":"uint256"},{"internalType":"uint256","name":"totalFee","type":"uint256"},{"internalType":"uint256","name":"OnoutFeePercent","type":"uint256"},{"internalType":"address","name":"feeTo","type":"address"},{"internalType":"address","name":"feeToSetter","type":"address"},{"internalType":"address","name":"OnoutFeeTo","type":"address"},{"internalType":"address","name":"OnoutFeeSetter","type":"address"},{"internalType":"bool","name":"allFeeToProtocol","type":"bool"},{"internalType":"bytes32","name":"INIT_CODE_PAIR_HASH","type":"bytes32"}],"internalType":"struct IFactory.AllInfo","name":"","type":"tuple"}],"stateMutability":"view","type":"function"},{"inputs":[{"internalType":"address","name":"tokenA","type":"address"},{"internalType":"address","name":"tokenB","type":"address"}],"name":"createPair","outputs":[{"internalType":"address","name":"pair","type":"address"}],"stateMutability":"nonpayable","type":"function"},{"inputs":[{"internalType":"uint256","name":"_OnoutFeePercent","type":"uint256"}],"name":"setOnoutFeePercent","outputs":[],"stateMutability":"nonpayable","type":"function"},{"inputs":[{"internalType":"address","name":"_feeTo","type":"address"}],"name":"setFeeTo","outputs":[],"stateMutability":"nonpayable","type":"function"},{"inputs":[{"internalType":"address","name":"_feeToSetter","type":"address"}],"name":"setFeeToSetter","outputs":[],"stateMutability":"nonpayable","type":"function"},{"inputs":[{"internalType":"address","name":"_OnoutFeeTo","type":"address"}],"name":"setOnoutFeeTo","outputs":[],"stateMutability":"nonpayable","type":"function"},{"inputs":[{"internalType":"address","name":"_OnoutFeeToSetter","type":"address"}],"name":"setOnoutFeeSetter","outputs":[],"stateMutability":"nonpayable","type":"function"},{"inputs":[{"internalType":"bool","name":"_allFeeToProtocol","type":"bool"}],"name":"setAllFeeToProtocol","outputs":[],"stateMutability":"nonpayable","type":"function"},{"inputs":[{"internalType":"uint256","name":"_totalFee","type":"uint256"},{"internalType":"uint256","name":"_protocolFee","type":"uint256"}],"name":"setMainFees","outputs":[],"stateMutability":"nonpayable","type":"function"},{"inputs":[{"internalType":"uint256","name":"_totalFee","type":"uint256"}],"name":"setTotalFee","outputs":[],"stateMutability":"nonpayable","type":"function"},{"inputs":[{"internalType":"uint256","name":"_protocolFee","type":"uint256"}],"name":"setProtocolFee","outputs":[],"stateMutability":"nonpayable","type":"function"},{"inputs":[{"internalType":"address","name":"token0","type":"address"},{"internalType":"address","name":"token1","type":"address"}],"name":"increaseNumberOfSwaps","outputs":[],"stateMutability":"nonpayable","type":"function"}],"bytecode":"0x610440604052612710608090815261138860a052610ce460c0526109c460e0526107d06101005261064061012052610578610140526104b06101605261044c610180526103e86101a0526103846101c0526103206101e08190526102bc61020052610258610220526101f4610240526101906102605261012c6102805260c86102a05260646102c052605a6102e05260506103005260469052603c61034052603261036052602861038052601e6103a081905260146103c052600a6103e052600561040052600161042052620000d89160009162000158565b50348015620000e657600080fd5b506040516200546e3803806200546e8339810160408190526200010991620001d5565b602380546001600160a01b039384166001600160a01b031991821681179092556025805482169092179091556024805492909316911617905560036020556107d0601f5560146021556200020c565b82601e81019282156200018f579160200282015b828111156200018f578251829061ffff169055916020019190600101906200016c565b506200019d929150620001a1565b5090565b5b808211156200019d5760008155600101620001a2565b80516001600160a01b0381168114620001d057600080fd5b919050565b60008060408385031215620001e8578182fd5b620001f383620001b8565b91506200020360208401620001b8565b90509250929050565b615252806200021c6000396000f3fe60806040523480156200001157600080fd5b5060043610620001f05760003560e01c8063a2e74af61162000111578063c213311e11620000a5578063e6a43905116200007b578063e6a4390514620003ac578063ef7adc0014620003c3578063f1f5aa7414620003dc578063f46901ed14620003f357620001f0565b8063c213311e1462000381578063c9c65396146200038b578063d63cdaa314620003a257620001f0565b8063b0e21e8a11620000e7578063b0e21e8a146200033d578063b4a800ce1462000347578063b8ff50381462000351578063bf1d90db146200036a57620001f0565b8063a2e74af61462000312578063a74d5f301462000329578063ac212d2e146200033357620001f0565b8063574f2ba31162000189578063671629ea116200015f578063671629ea14620002b6578063787dce3d14620002cd578063892ffec614620002e4578063992d0ebb14620002fb57620001f0565b8063574f2ba3146200028b5780635837e55014620002955780635855a25a14620002ac57620001f0565b806315067b8411620001cb57806315067b84146200023a5780631df4ccfc14620002515780631e3dd18b146200025b578063471280f8146200027257620001f0565b8063016a7d7614620001f5578063017e7e581462000217578063094b74151462000230575b600080fd5b620001ff6200040a565b6040516200020e91906200144d565b60405180910390f35b6200022162000410565b6040516200020e9190620013d4565b620002216200042c565b620001ff6200024b366004620012d8565b62000448565b620001ff62000460565b620002216200026c366004620012d8565b62000466565b62000289620002833660046200125b565b6200049e565b005b620001ff62000542565b62000289620002a63660046200127f565b62000548565b620001ff62000602565b62000289620002c7366004620012d8565b6200066e565b62000289620002de366004620012d8565b62000705565b62000289620002f53660046200125b565b62000767565b620002896200030c366004620012d8565b62000802565b62000289620003233660046200125b565b62000861565b620001ff620008fc565b6200022162000902565b620001ff6200091e565b620001ff62000924565b6200035b6200092a565b6040516200020e919062001442565b620002896200037b366004620012f1565b6200094b565b6200022162000a01565b620002216200039c3660046200127f565b62000a1d565b620001ff62000d7b565b62000221620003bd3660046200127f565b62000d81565b620003cd62000db4565b6040516200020e9190620015d7565b62000289620003ed366004620012b6565b62000f0c565b62000289620004043660046200125b565b62000faa565b60215481565b60225473ffffffffffffffffffffffffffffffffffffffff1681565b60235473ffffffffffffffffffffffffffffffffffffffff1681565b600081601e81106200045957600080fd5b0154905081565b60205481565b602781815481106200047757600080fd5b60009182526020909120015473ffffffffffffffffffffffffffffffffffffffff16905081565b60255473ffffffffffffffffffffffffffffffffffffffff163314620004fb576040517f08c379a0000000000000000000000000000000000000000000000000000000008152600401620004f29062001569565b60405180910390fd5b602480547fffffffffffffffffffffffff00000000000000000000000000000000000000001673ffffffffffffffffffffffffffffffffffffffff92909216919091179055565b60275490565b73ffffffffffffffffffffffffffffffffffffffff82811660009081526026602090815260408083208585168452909152902054163314620005b8576040517f08c379a0000000000000000000000000000000000000000000000000000000008152600401620004f29062001569565b7fffffffffffffffffffffffffffffffffffffffffffffffffffffffffffffffff601e541015620005fe576001601e6000828254620005f89190620016b3565b90915550505b5050565b60405162000613602082016200118f565b7fffffffffffffffffffffffffffffffffffffffffffffffffffffffffffffffe082820381018352601f90910116604081905262000655919060200162001398565b6040516020818303038152906040528051906020012081565b60255473ffffffffffffffffffffffffffffffffffffffff163314620006c2576040517f08c379a0000000000000000000000000000000000000000000000000000000008152600401620004f29062001569565b606481111562000700576040517f08c379a0000000000000000000000000000000000000000000000000000000008152600401620004f290620014c4565b602155565b60235473ffffffffffffffffffffffffffffffffffffffff16331462000759576040517f08c379a0000000000000000000000000000000000000000000000000000000008152600401620004f29062001569565b620007648162001045565b50565b60255473ffffffffffffffffffffffffffffffffffffffff163314620007bb576040517f08c379a0000000000000000000000000000000000000000000000000000000008152600401620004f29062001569565b602580547fffffffffffffffffffffffff00000000000000000000000000000000000000001673ffffffffffffffffffffffffffffffffffffffff92909216919091179055565b60235473ffffffffffffffffffffffffffffffffffffffff16331462000856576040517f08c379a0000000000000000000000000000000000000000000000000000000008152600401620004f29062001569565b62000764816200113f565b60235473ffffffffffffffffffffffffffffffffffffffff163314620008b5576040517f08c379a0000000000000000000000000000000000000000000000000000000008152600401620004f29062001569565b602380547fffffffffffffffffffffffff00000000000000000000000000000000000000001673ffffffffffffffffffffffffffffffffffffffff92909216919091179055565b61271081565b60255473ffffffffffffffffffffffffffffffffffffffff1681565b601f5481565b601e5481565b60255474010000000000000000000000000000000000000000900460ff1681565b60235473ffffffffffffffffffffffffffffffffffffffff1633146200099f576040517f08c379a0000000000000000000000000000000000000000000000000000000008152600401620004f29062001569565b620009aa826200113f565b620009b58162001045565b81602054148015620009c8575080601f54145b620005fe576040517f08c379a0000000000000000000000000000000000000000000000000000000008152600401620004f290620014fb565b60245473ffffffffffffffffffffffffffffffffffffffff1681565b60008173ffffffffffffffffffffffffffffffffffffffff168373ffffffffffffffffffffffffffffffffffffffff16141562000a88576040517f08c379a0000000000000000000000000000000000000000000000000000000008152600401620004f29062001456565b6000808373ffffffffffffffffffffffffffffffffffffffff168573ffffffffffffffffffffffffffffffffffffffff161062000ac757838562000aca565b84845b909250905073ffffffffffffffffffffffffffffffffffffffff821662000b1f576040517f08c379a0000000000000000000000000000000000000000000000000000000008152600401620004f290620015a0565b73ffffffffffffffffffffffffffffffffffffffff82811660009081526026602090815260408083208585168452909152902054161562000b8e576040517f08c379a0000000000000000000000000000000000000000000000000000000008152600401620004f2906200148d565b60006040518060200162000ba2906200118f565b6020820181038252601f19601f8201166040525090506000838360405160200162000bcf9291906200135e565b604051602081830303815290604052805190602001209050808251602084016000f56040517f485cc95500000000000000000000000000000000000000000000000000000000815290955073ffffffffffffffffffffffffffffffffffffffff86169063485cc9559062000c4a9087908790600401620013f5565b600060405180830381600087803b15801562000c6557600080fd5b505af115801562000c7a573d6000803e3d6000fd5b5050505073ffffffffffffffffffffffffffffffffffffffff84811660008181526026602081815260408084208987168086529083528185208054978d167fffffffffffffffffffffffff00000000000000000000000000000000000000009889168117909155938352818520868652909252808420805487168417905560278054600181018255948190527f98a476f1687bc3d60a2da2adbcba2c46958e61fa2fb4042cd7bc5816a710195b9094018054909616909217909455905490517f0d3648bd0f6ba80134a33ba9275ac585d9d315f0ad8355cddefde31afa28d0e99162000d69918a91906200141c565b60405180910390a35050505092915050565b6103e881565b602660209081526000928352604080842090915290825290205473ffffffffffffffffffffffffffffffffffffffff1681565b62000dbe6200119d565b604080516105608101909152806101a081016000601e8282826020028201915b81548152602001906001019080831162000dde5750505091835250506103e8602080830191909152612710604080840191909152601e546060840152601f546080840152815460a084015260215460c084015260225473ffffffffffffffffffffffffffffffffffffffff90811660e08501526023548116610100850152602454811661012085015260255490811661014085015274010000000000000000000000000000000000000000900460ff16151561016084015251610180909201919062000eac9082016200118f565b7fffffffffffffffffffffffffffffffffffffffffffffffffffffffffffffffe082820381018352601f90910116604081905262000eee919060200162001398565b60405160208183030381529060405280519060200120815250905090565b60235473ffffffffffffffffffffffffffffffffffffffff16331462000f60576040517f08c379a0000000000000000000000000000000000000000000000000000000008152600401620004f29062001569565b6025805491151574010000000000000000000000000000000000000000027fffffffffffffffffffffff00ffffffffffffffffffffffffffffffffffffffff909216919091179055565b60235473ffffffffffffffffffffffffffffffffffffffff16331462000ffe576040517f08c379a0000000000000000000000000000000000000000000000000000000008152600401620004f29062001569565b602280547fffffffffffffffffffffffff00000000000000000000000000000000000000001673ffffffffffffffffffffffffffffffffffffffff92909216919091179055565b61271081111562001084576040517f08c379a0000000000000000000000000000000000000000000000000000000008152600401620004f29062001532565b80156200113a576000805b601e811015620010fd57600081601e8110620010d4577f4e487b7100000000000000000000000000000000000000000000000000000000600052603260045260246000fd5b0154831415620010e85760019150620010fd565b80620010f481620016e8565b9150506200108f565b508062001138576040517f08c379a0000000000000000000000000000000000000000000000000000000008152600401620004f29062001532565b505b601f55565b6200114e60016103e8620016ce565b8111156200118a576040517f08c379a0000000000000000000000000000000000000000000000000000000008152600401620004f29062001532565b602055565b613ac9806200175483390190565b604051806101a00160405280620011b362001212565b815260006020820181905260408201819052606082018190526080820181905260a0820181905260c0820181905260e0820181905261010082018190526101208201819052610140820181905261016082018190526101809091015290565b604051806103c00160405280601e906020820280368337509192915050565b803573ffffffffffffffffffffffffffffffffffffffff811681146200125657600080fd5b919050565b6000602082840312156200126d578081fd5b620012788262001231565b9392505050565b6000806040838503121562001292578081fd5b6200129d8362001231565b9150620012ad6020840162001231565b90509250929050565b600060208284031215620012c8578081fd5b8135801515811462001278578182fd5b600060208284031215620012ea578081fd5b5035919050565b6000806040838503121562001304578182fd5b50508035926020909101359150565b73ffffffffffffffffffffffffffffffffffffffff169052565b8060005b601e8110156200135257815184526020938401939091019060010162001331565b50505050565b15159052565b7fffffffffffffffffffffffffffffffffffffffff000000000000000000000000606093841b811682529190921b16601482015260280190565b60008251815b81811015620013ba57602081860181015185830152016200139e565b81811115620013c95782828501525b509190910192915050565b73ffffffffffffffffffffffffffffffffffffffff91909116815260200190565b73ffffffffffffffffffffffffffffffffffffffff92831681529116602082015260400190565b73ffffffffffffffffffffffffffffffffffffffff929092168252602082015260400190565b901515815260200190565b90815260200190565b6020808252601c908201527f466163746f72793a204944454e544943414c5f41444452455353455300000000604082015260600190565b60208082526014908201527f466163746f72793a20504149525f455849535453000000000000000000000000604082015260600190565b60208082526019908201527f466163746f72793a2057524f4e475f50455243454e5441474500000000000000604082015260600190565b60208082526016908201527f466163746f72793a2043414e4e4f545f4348414e474500000000000000000000604082015260600190565b60208082526016908201527f466163746f72793a20464f5242494444454e5f46454500000000000000000000604082015260600190565b60208082526012908201527f466163746f72793a20464f5242494444454e0000000000000000000000000000604082015260600190565b60208082526015908201527f466163746f72793a205a45524f5f414444524553530000000000000000000000604082015260600190565b600061054082019050620015ed8284516200132d565b60208301516103c083015260408301516103e08301526060830151610400830152608083015161042083015260a083015161044083015260c083015161046083015260e08301516200164461048084018262001313565b506101008301516200165b6104a084018262001313565b50610120830151620016726104c084018262001313565b50610140830151620016896104e084018262001313565b50610160830151620016a061050084018262001358565b5061018083015161052083015292915050565b60008219821115620016c957620016c962001724565b500190565b600082821015620016e357620016e362001724565b500390565b60007fffffffffffffffffffffffffffffffffffffffffffffffffffffffffffffffff8214156200171d576200171d62001724565b5060010190565b7f4e487b7100000000000000000000000000000000000000000000000000000000600052601160045260246000fdfe60806040526001600c553480156200001657600080fd5b50604080518082018252601481527f4c69717569646974792d506f6f6c2d546f6b656e0000000000000000000000006020918201528151808301835260018152603160f81b9082015290514691620000d9917f8b73c3c69bb8fe3d512ecc4cf759cc79239f7b179b0ffacaa9a75d522b39400f917fee49096366cc590b73291b7aa9e5e091aa761dec637befae63796ffa4f337d4a917fc89efdaa54c0f20c7adf612882df0950f5a951637e0307cdcb4c672f298b8bc69186913091016200010d565b60408051601f19818403018152919052805160209091012060035550600580546001600160a01b0319163317905562000139565b9485526020850193909352604084019190915260608301526001600160a01b0316608082015260a00190565b61398080620001496000396000f3fe608060405234801561001057600080fd5b50600436106101b95760003560e01c80636a627842116100f9578063ba9a7a5611610097578063d21220a711610071578063d21220a71461034d578063d505accf14610355578063dd62ed3e14610368578063fff6cae91461037b576101b9565b8063ba9a7a561461032a578063bc25cf7714610332578063c45a015514610345576101b9565b80637ecebe00116100d35780637ecebe00146102db57806389afcb44146102ee57806395d89b411461030f578063a9059cbb14610317576101b9565b80636a627842146102ad57806370a08231146102c05780637464fc3d146102d3576101b9565b806323b872dd116101665780633644e515116101405780633644e51514610282578063485cc9551461028a5780635909c0d51461029d5780635a3d5493146102a5576101b9565b806323b872dd1461025257806330adf81f14610265578063313ce5671461026d576101b9565b8063095ea7b311610197578063095ea7b3146102085780630dfe16811461022857806318160ddd1461023d576101b9565b8063022c0d9f146101be57806306fdde03146101d35780630902f1ac146101f1575b600080fd5b6101d16101cc366004612e60565b610383565b005b6101db610be6565b6040516101e8919061309c565b60405180910390f35b6101f9610c1f565b6040516101e893929190613593565b61021b610216366004612dfd565b610c74565b6040516101e89190613029565b610230610c8b565b6040516101e89190612f43565b610245610ca7565b6040516101e89190613034565b61021b610260366004612d48565b610cad565b610245610d87565b610275610dab565b6040516101e891906135ec565b610245610db0565b6101d1610298366004612d10565b610db6565b610245610e5a565b610245610e60565b6102456102bb366004612cd8565b610e66565b6102456102ce366004612cd8565b6111d5565b6102456111e7565b6102456102e9366004612cd8565b6111ed565b6103016102fc366004612cd8565b6111ff565b6040516101e89291906135c3565b6101db611658565b61021b610325366004612dfd565b611691565b61024561169e565b6101d1610340366004612cd8565b6116a4565b610230611833565b61023061184f565b6101d1610363366004612d88565b61186b565b610245610376366004612d10565b611a6c565b6101d1611a89565b600c546001146103c8576040517f08c379a00000000000000000000000000000000000000000000000000000000081526004016103bf906131ef565b60405180910390fd5b6000600c55841515806103db5750600084115b610411576040517f08c379a00000000000000000000000000000000000000000000000000000000081526004016103bf906134cf565b60008061041c610c1f565b5091509150816dffffffffffffffffffffffffffff168710801561044f5750806dffffffffffffffffffffffffffff1686105b610485576040517f08c379a00000000000000000000000000000000000000000000000000000000081526004016103bf90613504565b600654600754600091829173ffffffffffffffffffffffffffffffffffffffff9182169190811690891682148015906104ea57508073ffffffffffffffffffffffffffffffffffffffff168973ffffffffffffffffffffffffffffffffffffffff1614155b610520576040517f08c379a00000000000000000000000000000000000000000000000000000000081526004016103bf90613396565b8a1561053157610531828a8d611c4d565b891561054257610542818a8c611c4d565b86156105d5576040517f10d1e85c00000000000000000000000000000000000000000000000000000000815273ffffffffffffffffffffffffffffffffffffffff8a16906310d1e85c906105a29033908f908f908e908e90600401612fb1565b600060405180830381600087803b1580156105bc57600080fd5b505af11580156105d0573d6000803e3d6000fd5b505050505b6040517f70a0823100000000000000000000000000000000000000000000000000000000815273ffffffffffffffffffffffffffffffffffffffff8316906370a0823190610627903090600401612f43565b60206040518083038186803b15801561063f57600080fd5b505afa158015610653573d6000803e3d6000fd5b505050506040513d601f19601f820116820180604052508101906106779190612e48565b6040517f70a0823100000000000000000000000000000000000000000000000000000000815290945073ffffffffffffffffffffffffffffffffffffffff8216906370a08231906106cc903090600401612f43565b60206040518083038186803b1580156106e457600080fd5b505afa1580156106f8573d6000803e3d6000fd5b505050506040513d601f19601f8201168201806040525081019061071c9190612e48565b92505050600089856dffffffffffffffffffffffffffff1661073e919061380e565b831161074b57600061076f565b6107658a6dffffffffffffffffffffffffffff871661380e565b61076f908461380e565b9050600061078d8a6dffffffffffffffffffffffffffff871661380e565b831161079a5760006107be565b6107b48a6dffffffffffffffffffffffffffff871661380e565b6107be908461380e565b905060008211806107cf5750600081115b610805576040517f08c379a00000000000000000000000000000000000000000000000000000000081526004016103bf90613461565b600554604080517fd63cdaa3000000000000000000000000000000000000000000000000000000008152905160009273ffffffffffffffffffffffffffffffffffffffff169163d63cdaa3916004808301926020929190829003018186803b15801561087057600080fd5b505afa158015610884573d6000803e3d6000fd5b505050506040513d601f19601f820116820180604052508101906108a89190612e48565b90506000600560009054906101000a900473ffffffffffffffffffffffffffffffffffffffff1673ffffffffffffffffffffffffffffffffffffffff16631df4ccfc6040518163ffffffff1660e01b815260040160206040518083038186803b15801561091457600080fd5b505afa158015610928573d6000803e3d6000fd5b505050506040513d601f19601f8201168201806040525081019061094c9190612e48565b9050600061096d61095d8684611e03565b6109678986611e03565b90611e5d565b9050600061098861097e8685611e03565b6109678987611e03565b90506109bb6109986002866136a7565b6109b56dffffffffffffffffffffffffffff8d8116908d16611e03565b90611e03565b6109c58383611e03565b10156109fd576040517f08c379a00000000000000000000000000000000000000000000000000000000081526004016103bf90613498565b50505050610a0d84848888611ea5565b600554604080517fb4a800ce00000000000000000000000000000000000000000000000000000000815290517fffffffffffffffffffffffffffffffffffffffffffffffffffffffffffffffff9273ffffffffffffffffffffffffffffffffffffffff169163b4a800ce916004808301926020929190829003018186803b158015610a9757600080fd5b505afa158015610aab573d6000803e3d6000fd5b505050506040513d601f19601f82011682018060405250810190610acf9190612e48565b1015610b69576005546006546007546040517f5837e55000000000000000000000000000000000000000000000000000000000815273ffffffffffffffffffffffffffffffffffffffff93841693635837e55093610b369390821692911690600401612f64565b600060405180830381600087803b158015610b5057600080fd5b505af1158015610b64573d6000803e3d6000fd5b505050505b8873ffffffffffffffffffffffffffffffffffffffff163373ffffffffffffffffffffffffffffffffffffffff167fd78ad95fa46c994b6551d0da85fc275fe613ce37657fb8d5e3d130840159d82284848f8f604051610bcc94939291906135d1565b60405180910390a350506001600c55505050505050505050565b6040518060400160405280601481526020017f4c69717569646974792d506f6f6c2d546f6b656e00000000000000000000000081525081565b6008546dffffffffffffffffffffffffffff808216926e0100000000000000000000000000008304909116917c0100000000000000000000000000000000000000000000000000000000900463ffffffff1690565b6000610c81338484612168565b5060015b92915050565b60065473ffffffffffffffffffffffffffffffffffffffff1681565b60005481565b73ffffffffffffffffffffffffffffffffffffffff831660009081526002602090815260408083203384529091528120547fffffffffffffffffffffffffffffffffffffffffffffffffffffffffffffffff14610d715773ffffffffffffffffffffffffffffffffffffffff84166000908152600260209081526040808320338452909152902054610d3f9083611e5d565b73ffffffffffffffffffffffffffffffffffffffff851660009081526002602090815260408083203384529091529020555b610d7c8484846121dd565b5060015b9392505050565b7f6e71edae12b1b97f4d1f60370fef10105fa2faae0126114a169c64845d6126c981565b601281565b60035481565b60055473ffffffffffffffffffffffffffffffffffffffff163314610e07576040517f08c379a00000000000000000000000000000000000000000000000000000000081526004016103bf906132f1565b6006805473ffffffffffffffffffffffffffffffffffffffff9384167fffffffffffffffffffffffff00000000000000000000000000000000000000009182161790915560078054929093169116179055565b60095481565b600a5481565b6000600c54600114610ea4576040517f08c379a00000000000000000000000000000000000000000000000000000000081526004016103bf906131ef565b6000600c81905580610eb4610c1f565b506006546040517f70a0823100000000000000000000000000000000000000000000000000000000815292945090925060009173ffffffffffffffffffffffffffffffffffffffff909116906370a0823190610f14903090600401612f43565b60206040518083038186803b158015610f2c57600080fd5b505afa158015610f40573d6000803e3d6000fd5b505050506040513d601f19601f82011682018060405250810190610f649190612e48565b6007546040517f70a0823100000000000000000000000000000000000000000000000000000000815291925060009173ffffffffffffffffffffffffffffffffffffffff909116906370a0823190610fc0903090600401612f43565b60206040518083038186803b158015610fd857600080fd5b505afa158015610fec573d6000803e3d6000fd5b505050506040513d601f19601f820116820180604052508101906110109190612e48565b9050600061102e836dffffffffffffffffffffffffffff8716611e5d565b9050600061104c836dffffffffffffffffffffffffffff8716611e5d565b9050600061105a87876122a8565b600054909150806110915761107d6103e86109676110788787611e03565b612780565b985061108c60006103e86127f0565b6110e6565b6110e36dffffffffffffffffffffffffffff89166110af8684611e03565b6110b9919061364d565b6dffffffffffffffffffffffffffff89166110d48685611e03565b6110de919061364d565b612897565b98505b60008911611120576040517f08c379a00000000000000000000000000000000000000000000000000000000081526004016103bf906130ed565b61112a8a8a6127f0565b61113686868a8a611ea5565b81156111725760085461116e906dffffffffffffffffffffffffffff808216916e010000000000000000000000000000900416611e03565b600b555b3373ffffffffffffffffffffffffffffffffffffffff167f4c209b5fc8ad50758f13e2e1088ba56a560dff690a1c6fef26394f4c03821c4f85856040516111ba9291906135c3565b60405180910390a250506001600c5550949695505050505050565b60016020526000908152604090205481565b600b5481565b60046020526000908152604090205481565b600080600c5460011461123e576040517f08c379a00000000000000000000000000000000000000000000000000000000081526004016103bf906131ef565b6000600c8190558061124e610c1f565b506006546007546040517f70a0823100000000000000000000000000000000000000000000000000000000815293955091935073ffffffffffffffffffffffffffffffffffffffff9081169291169060009083906370a08231906112b6903090600401612f43565b60206040518083038186803b1580156112ce57600080fd5b505afa1580156112e2573d6000803e3d6000fd5b505050506040513d601f19601f820116820180604052508101906113069190612e48565b905060008273ffffffffffffffffffffffffffffffffffffffff166370a08231306040518263ffffffff1660e01b81526004016113439190612f43565b60206040518083038186803b15801561135b57600080fd5b505afa15801561136f573d6000803e3d6000fd5b505050506040513d601f19601f820116820180604052508101906113939190612e48565b306000908152600160205260408120549192506113b088886122a8565b600054909150806113c18487611e03565b6113cb919061364d565b9a50806113d88486611e03565b6113e2919061364d565b995060008b1180156113f4575060008a115b61142a576040517f08c379a00000000000000000000000000000000000000000000000000000000081526004016103bf90613294565b61143430846128ad565b61143f878d8d611c4d565b61144a868d8c611c4d565b6040517f70a0823100000000000000000000000000000000000000000000000000000000815273ffffffffffffffffffffffffffffffffffffffff8816906370a082319061149c903090600401612f43565b60206040518083038186803b1580156114b457600080fd5b505afa1580156114c8573d6000803e3d6000fd5b505050506040513d601f19601f820116820180604052508101906114ec9190612e48565b6040517f70a0823100000000000000000000000000000000000000000000000000000000815290955073ffffffffffffffffffffffffffffffffffffffff8716906370a0823190611541903090600401612f43565b60206040518083038186803b15801561155957600080fd5b505afa15801561156d573d6000803e3d6000fd5b505050506040513d601f19601f820116820180604052508101906115919190612e48565b935061159f85858b8b611ea5565b81156115db576008546115d7906dffffffffffffffffffffffffffff808216916e010000000000000000000000000000900416611e03565b600b555b8b73ffffffffffffffffffffffffffffffffffffffff163373ffffffffffffffffffffffffffffffffffffffff167fdccd412f0b1252819cb1fd330b93224ca42612892bb3f4f789976e6d819364968d8d60405161163a9291906135c3565b60405180910390a35050505050505050506001600c81905550915091565b6040518060400160405280600881526020017f4c502d544f4b454e00000000000000000000000000000000000000000000000081525081565b6000610c813384846121dd565b6103e881565b600c546001146116e0576040517f08c379a00000000000000000000000000000000000000000000000000000000081526004016103bf906131ef565b6000600c556006546007546008546040517f70a0823100000000000000000000000000000000000000000000000000000000815273ffffffffffffffffffffffffffffffffffffffff93841693909216916117bb91849186916117b6916dffffffffffffffffffffffffffff9091169084906370a0823190611766903090600401612f43565b60206040518083038186803b15801561177e57600080fd5b505afa158015611792573d6000803e3d6000fd5b505050506040513d601f19601f820116820180604052508101906109679190612e48565b611c4d565b61182981846117b66008600e9054906101000a90046dffffffffffffffffffffffffffff166dffffffffffffffffffffffffffff168573ffffffffffffffffffffffffffffffffffffffff166370a08231306040518263ffffffff1660e01b81526004016117669190612f43565b50506001600c5550565b60055473ffffffffffffffffffffffffffffffffffffffff1681565b60075473ffffffffffffffffffffffffffffffffffffffff1681565b428410156118a5576040517f08c379a00000000000000000000000000000000000000000000000000000000081526004016103bf90613328565b60035473ffffffffffffffffffffffffffffffffffffffff8816600090815260046020526040812080549192917f6e71edae12b1b97f4d1f60370fef10105fa2faae0126114a169c64845d6126c9918b918b918b9190876119058361387a565b919050558a60405160200161191f9695949392919061303d565b60405160208183030381529060405280519060200120604051602001611946929190612f0d565b604051602081830303815290604052805190602001209050600060018286868660405160008152602001604052604051611983949392919061307e565b6020604051602081039080840390855afa1580156119a5573d6000803e3d6000fd5b50506040517fffffffffffffffffffffffffffffffffffffffffffffffffffffffffffffffe0015191505073ffffffffffffffffffffffffffffffffffffffff811615801590611a2057508873ffffffffffffffffffffffffffffffffffffffff168173ffffffffffffffffffffffffffffffffffffffff16145b611a56576040517f08c379a00000000000000000000000000000000000000000000000000000000081526004016103bf90613181565b611a61898989612168565b505050505050505050565b600260209081526000928352604080842090915290825290205481565b600c54600114611ac5576040517f08c379a00000000000000000000000000000000000000000000000000000000081526004016103bf906131ef565b6000600c556006546040517f70a08231000000000000000000000000000000000000000000000000000000008152611c469173ffffffffffffffffffffffffffffffffffffffff16906370a0823190611b22903090600401612f43565b60206040518083038186803b158015611b3a57600080fd5b505afa158015611b4e573d6000803e3d6000fd5b505050506040513d601f19601f82011682018060405250810190611b729190612e48565b6007546040517f70a0823100000000000000000000000000000000000000000000000000000000815273ffffffffffffffffffffffffffffffffffffffff909116906370a0823190611bc8903090600401612f43565b60206040518083038186803b158015611be057600080fd5b505afa158015611bf4573d6000803e3d6000fd5b505050506040513d601f19601f82011682018060405250810190611c189190612e48565b6008546dffffffffffffffffffffffffffff808216916e010000000000000000000000000000900416611ea5565b6001600c55565b604080518082018252601981527f7472616e7366657228616464726573732c75696e74323536290000000000000060209091015251600090819073ffffffffffffffffffffffffffffffffffffffff8616907fa9059cbb2ab09eb219583f4a59a5d0623ade346d962bcd4e46b11da047c9049b90611cd19087908790602401612f8b565b604080517fffffffffffffffffffffffffffffffffffffffffffffffffffffffffffffffe08184030181529181526020820180517bffffffffffffffffffffffffffffffffffffffffffffffffffffffff167fffffffff00000000000000000000000000000000000000000000000000000000909416939093179092529051611d5a9190612ef1565b6000604051808303816000865af19150503d8060008114611d97576040519150601f19603f3d011682016040523d82523d6000602084013e611d9c565b606091505b5091509150818015611dc6575080511580611dc6575080806020019051810190611dc69190612e28565b611dfc576040517f08c379a00000000000000000000000000000000000000000000000000000000081526004016103bf9061353b565b5050505050565b6000811580611e2757508282611e1981836137d1565b9250611e25908361364d565b145b610c85576040517f08c379a00000000000000000000000000000000000000000000000000000000081526004016103bf9061325d565b600082611e6a838261380e565b9150811115610c85576040517f08c379a00000000000000000000000000000000000000000000000000000000081526004016103bf9061314a565b6dffffffffffffffffffffffffffff8411801590611ed157506dffffffffffffffffffffffffffff8311155b611f07576040517f08c379a00000000000000000000000000000000000000000000000000000000081526004016103bf90613226565b6000611f18640100000000426138b3565b600854909150600090611f51907c0100000000000000000000000000000000000000000000000000000000900463ffffffff1683613825565b905060008163ffffffff16118015611f7857506dffffffffffffffffffffffffffff841615155b8015611f9357506dffffffffffffffffffffffffffff831615155b15612061578063ffffffff16611fd085611fac8661295e565b7bffffffffffffffffffffffffffffffffffffffffffffffffffffffff1690612989565b7bffffffffffffffffffffffffffffffffffffffffffffffffffffffff16611ff891906137d1565b6009600082825461200991906135fa565b909155505063ffffffff811661202284611fac8761295e565b7bffffffffffffffffffffffffffffffffffffffffffffffffffffffff1661204a91906137d1565b600a600082825461205b91906135fa565b90915550505b600880547fffffffffffffffffffffffffffffffffffff0000000000000000000000000000166dffffffffffffffffffffffffffff888116919091177fffffffff0000000000000000000000000000ffffffffffffffffffffffffffff166e0100000000000000000000000000008883168102919091177bffffffffffffffffffffffffffffffffffffffffffffffffffffffff167c010000000000000000000000000000000000000000000000000000000063ffffffff87160217928390556040517f1c411e9a96e071241c2f21f7726b17ae89e3cab4c78be50e062b03a9fffbbad19361215893818116939091041690613572565b60405180910390a1505050505050565b73ffffffffffffffffffffffffffffffffffffffff80841660008181526002602090815260408083209487168084529490915290819020849055517f8c5be1e5ebec7d5bd14f71427d1e84f3dd0314c0f7b2291e5b200ac8c7c3b925906121d0908590613034565b60405180910390a3505050565b73ffffffffffffffffffffffffffffffffffffffff831660009081526001602052604090205461220d9082611e5d565b73ffffffffffffffffffffffffffffffffffffffff808516600090815260016020526040808220939093559084168152205461224990826129a5565b73ffffffffffffffffffffffffffffffffffffffff80841660008181526001602052604090819020939093559151908516907fddf252ad1be2c89b69c2b068fc378daa952ba7f163c4a11628f55a4df523b3ef906121d0908590613034565b600080600560009054906101000a900473ffffffffffffffffffffffffffffffffffffffff1673ffffffffffffffffffffffffffffffffffffffff1663017e7e586040518163ffffffff1660e01b815260040160206040518083038186803b15801561231357600080fd5b505afa158015612327573d6000803e3d6000fd5b505050506040513d601f19601f8201168201806040525081019061234b9190612cf4565b90506000600560009054906101000a900473ffffffffffffffffffffffffffffffffffffffff1673ffffffffffffffffffffffffffffffffffffffff1663c213311e6040518163ffffffff1660e01b815260040160206040518083038186803b1580156123b757600080fd5b505afa1580156123cb573d6000803e3d6000fd5b505050506040513d601f19601f820116820180604052508101906123ef9190612cf4565b90506000600560009054906101000a900473ffffffffffffffffffffffffffffffffffffffff1673ffffffffffffffffffffffffffffffffffffffff1663016a7d766040518163ffffffff1660e01b815260040160206040518083038186803b15801561245b57600080fd5b505afa15801561246f573d6000803e3d6000fd5b505050506040513d601f19601f820116820180604052508101906124939190612e48565b90506000600560009054906101000a900473ffffffffffffffffffffffffffffffffffffffff1673ffffffffffffffffffffffffffffffffffffffff16631df4ccfc6040518163ffffffff1660e01b815260040160206040518083038186803b1580156124ff57600080fd5b505afa158015612513573d6000803e3d6000fd5b505050506040513d601f19601f820116820180604052508101906125379190612e48565b90506000600560009054906101000a900473ffffffffffffffffffffffffffffffffffffffff1673ffffffffffffffffffffffffffffffffffffffff1663b0e21e8a6040518163ffffffff1660e01b815260040160206040518083038186803b1580156125a357600080fd5b505afa1580156125b7573d6000803e3d6000fd5b505050506040513d601f19601f820116820180604052508101906125db9190612e48565b600b549091508215801590612605575073ffffffffffffffffffffffffffffffffffffffff861615155b80156126115750600082115b965086156127685780156127635760006126416110786dffffffffffffffffffffffffffff8c8116908c16611e03565b9050600061264e83612780565b90508082111561276057600061266483836129ed565b90507f556884274ae9710f4ee09c7684aca5dd4300045d7bef418f17cdfa428ca3f520816040516126959190613034565b60405180910390a1801561275e578615806126c4575073ffffffffffffffffffffffffffffffffffffffff8816155b156126d8576126d389826127f0565b61275e565b60006126e560648361364d565b905060006126f3828a611e03565b905060006127018483611e5d565b90508361270e82846129a5565b1115612746576040517f08c379a00000000000000000000000000000000000000000000000000000000081526004016103bf906133cd565b6127508c826127f0565b61275a8b836127f0565b5050505b505b50505b612774565b8015612774576000600b555b50505050505092915050565b600060038211156127e1575080600061279a60028361364d565b6127a59060016135fa565b90505b818110156127db579050806002816127c0818661364d565b6127ca91906135fa565b6127d4919061364d565b90506127a8565b506127eb565b81156127eb575060015b919050565b6000546127fd90826129a5565b600090815573ffffffffffffffffffffffffffffffffffffffff831681526001602052604090205461282f90826129a5565b73ffffffffffffffffffffffffffffffffffffffff83166000818152600160205260408082209390935591519091907fddf252ad1be2c89b69c2b068fc378daa952ba7f163c4a11628f55a4df523b3ef9061288b908590613034565b60405180910390a35050565b60008183106128a65781610d80565b5090919050565b73ffffffffffffffffffffffffffffffffffffffff82166000908152600160205260409020546128dd9082611e5d565b73ffffffffffffffffffffffffffffffffffffffff8316600090815260016020526040812091909155546129119082611e5d565b600090815560405173ffffffffffffffffffffffffffffffffffffffff8416907fddf252ad1be2c89b69c2b068fc378daa952ba7f163c4a11628f55a4df523b3ef9061288b908590613034565b6000610c856e0100000000000000000000000000006dffffffffffffffffffffffffffff8416613796565b6000610d806dffffffffffffffffffffffffffff831684613612565b6000826129b283826135fa565b9150811015610c85576040517f08c379a00000000000000000000000000000000000000000000000000000000081526004016103bf9061335f565b600080831180156129fe5750600082115b612a34576040517f08c379a00000000000000000000000000000000000000000000000000000000081526004016103bf906131b8565b600554604080517fb8ff5038000000000000000000000000000000000000000000000000000000008152905160009273ffffffffffffffffffffffffffffffffffffffff169163b8ff5038916004808301926020929190829003018186803b158015612a9f57600080fd5b505afa158015612ab3573d6000803e3d6000fd5b505050506040513d601f19601f82011682018060405250810190612ad79190612e28565b90506000600560009054906101000a900473ffffffffffffffffffffffffffffffffffffffff1673ffffffffffffffffffffffffffffffffffffffff1663a74d5f306040518163ffffffff1660e01b815260040160206040518083038186803b158015612b4357600080fd5b505afa158015612b57573d6000803e3d6000fd5b505050506040513d601f19601f82011682018060405250810190612b7b9190612e48565b90506000600560009054906101000a900473ffffffffffffffffffffffffffffffffffffffff1673ffffffffffffffffffffffffffffffffffffffff1663b0e21e8a6040518163ffffffff1660e01b815260040160206040518083038186803b158015612be757600080fd5b505afa158015612bfb573d6000803e3d6000fd5b505050506040513d601f19601f82011682018060405250810190612c1f9190612e48565b9050600081118015612c315750818111155b612c67576040517f08c379a00000000000000000000000000000000000000000000000000000000081526004016103bf9061342a565b60006001612c75838561364d565b612c7f919061380e565b90506000612c99612c908989611e5d565b60005490611e03565b90506000612cbf88612cb988612caf5785612cb2565b60005b8c90611e03565b906129a5565b9050612ccb818361364d565b9998505050505050505050565b600060208284031215612ce9578081fd5b8135610d8081613925565b600060208284031215612d05578081fd5b8151610d8081613925565b60008060408385031215612d22578081fd5b8235612d2d81613925565b91506020830135612d3d81613925565b809150509250929050565b600080600060608486031215612d5c578081fd5b8335612d6781613925565b92506020840135612d7781613925565b929592945050506040919091013590565b600080600080600080600060e0888a031215612da2578283fd5b8735612dad81613925565b96506020880135612dbd81613925565b95506040880135945060608801359350608088013560ff81168114612de0578384fd5b9699959850939692959460a0840135945060c09093013592915050565b60008060408385031215612e0f578182fd5b8235612e1a81613925565b946020939093013593505050565b600060208284031215612e39578081fd5b81518015158114610d80578182fd5b600060208284031215612e59578081fd5b5051919050565b600080600080600060808688031215612e77578081fd5b85359450602086013593506040860135612e9081613925565b9250606086013567ffffffffffffffff80821115612eac578283fd5b818801915088601f830112612ebf578283fd5b813581811115612ecd578384fd5b896020828501011115612ede578384fd5b9699959850939650602001949392505050565b60008251612f0381846020870161384a565b9190910192915050565b7f190100000000000000000000000000000000000000000000000000000000000081526002810192909252602282015260420190565b73ffffffffffffffffffffffffffffffffffffffff91909116815260200190565b73ffffffffffffffffffffffffffffffffffffffff92831681529116602082015260400190565b73ffffffffffffffffffffffffffffffffffffffff929092168252602082015260400190565b600073ffffffffffffffffffffffffffffffffffffffff8716825285602083015284604083015260806060830152826080830152828460a084013781830160a090810191909152601f9092017fffffffffffffffffffffffffffffffffffffffffffffffffffffffffffffffe0160101949350505050565b901515815260200190565b90815260200190565b95865273ffffffffffffffffffffffffffffffffffffffff94851660208701529290931660408501526060840152608083019190915260a082015260c00190565b93845260ff9290921660208401526040830152606082015260800190565b60006020825282518060208401526130bb81604085016020870161384a565b601f017fffffffffffffffffffffffffffffffffffffffffffffffffffffffffffffffe0169190910160400192915050565b60208082526023908201527f506169723a20494e53554646494349454e545f4c49515549444954595f4d494e60408201527f5445440000000000000000000000000000000000000000000000000000000000606082015260800190565b60208082526015908201527f64732d6d6174682d7375622d756e646572666c6f770000000000000000000000604082015260600190565b60208082526018908201527f45524332303a20494e56414c49445f5349474e41545552450000000000000000604082015260600190565b60208082526011908201527f506169723a20524f4f545f4b5f5a45524f000000000000000000000000000000604082015260600190565b6020808252600c908201527f537761703a204c4f434b45440000000000000000000000000000000000000000604082015260600190565b6020808252600e908201527f506169723a204f564552464c4f57000000000000000000000000000000000000604082015260600190565b60208082526014908201527f64732d6d6174682d6d756c2d6f766572666c6f77000000000000000000000000604082015260600190565b60208082526023908201527f506169723a20494e53554646494349454e545f4c49515549444954595f42555260408201527f4e45440000000000000000000000000000000000000000000000000000000000606082015260800190565b6020808252600f908201527f506169723a20464f5242494444454e0000000000000000000000000000000000604082015260600190565b6020808252600e908201527f45524332303a2045585049524544000000000000000000000000000000000000604082015260600190565b60208082526014908201527f64732d6d6174682d6164642d6f766572666c6f77000000000000000000000000604082015260600190565b60208082526010908201527f506169723a20494e56414c49445f544f00000000000000000000000000000000604082015260600190565b60208082526025908201527f506169723a20494e53554646494349454e545f50524f544f434f4c5f4c49515560408201527f4944495459000000000000000000000000000000000000000000000000000000606082015260800190565b6020808252601c908201527f506169723a20464f5242494444454e5f50524f544f434f4c5f46454500000000604082015260600190565b6020808252601f908201527f506169723a20494e53554646494349454e545f494e5055545f414d4f554e5400604082015260600190565b60208082526007908201527f506169723a204b00000000000000000000000000000000000000000000000000604082015260600190565b6020808252818101527f506169723a20494e53554646494349454e545f4f55545055545f414d4f554e54604082015260600190565b6020808252601c908201527f506169723a20494e53554646494349454e545f4c495155494449545900000000604082015260600190565b60208082526015908201527f506169723a205452414e534645525f4641494c45440000000000000000000000604082015260600190565b6dffffffffffffffffffffffffffff92831681529116602082015260400190565b6dffffffffffffffffffffffffffff938416815291909216602082015263ffffffff909116604082015260600190565b918252602082015260400190565b93845260208401929092526040830152606082015260800190565b60ff91909116815260200190565b6000821982111561360d5761360d6138c7565b500190565b60007bffffffffffffffffffffffffffffffffffffffffffffffffffffffff80841680613641576136416138f6565b92169190910492915050565b60008261365c5761365c6138f6565b500490565b80825b6001808611613673575061369e565b818704821115613685576136856138c7565b8086161561369257918102915b9490941c938002613664565b94509492505050565b6000610d807fffffffffffffffffffffffffffffffffffffffffffffffffffffffffffffffff60ff8516846000826136e157506001610d80565b816136ee57506000610d80565b8160018114613704576002811461370e5761373b565b6001915050610d80565b60ff84111561371f5761371f6138c7565b6001841b915084821115613735576137356138c7565b50610d80565b5060208310610133831016604e8410600b841016171561376e575081810a83811115613769576137696138c7565b610d80565b61377b8484846001613661565b80860482111561378d5761378d6138c7565b02949350505050565b60007bffffffffffffffffffffffffffffffffffffffffffffffffffffffff8083168185168183048111821515161561378d5761378d6138c7565b6000817fffffffffffffffffffffffffffffffffffffffffffffffffffffffffffffffff0483118215151615613809576138096138c7565b500290565b600082821015613820576138206138c7565b500390565b600063ffffffff83811690831681811015613842576138426138c7565b039392505050565b60005b8381101561386557818101518382015260200161384d565b83811115613874576000848401525b50505050565b60007fffffffffffffffffffffffffffffffffffffffffffffffffffffffffffffffff8214156138ac576138ac6138c7565b5060010190565b6000826138c2576138c26138f6565b500690565b7f4e487b7100000000000000000000000000000000000000000000000000000000600052601160045260246000fd5b7f4e487b7100000000000000000000000000000000000000000000000000000000600052601260045260246000fd5b73ffffffffffffffffffffffffffffffffffffffff8116811461394757600080fd5b5056fea26469706673582212206c237517ae7a88568ab9fa6a2d8da50a3a80927ea66b273d268afb2494f7bd5f64736f6c63430008000033a2646970667358221220044653948f68e45117f29881ebf38ffd0afcf51dbe693cdfe00878782d1f7c5464736f6c63430008000033","immutableReferences":{},"source":"// SPDX-License-Identifier: MIT\npragma solidity ^0.8.0;\n\nimport './interfaces/IFactory.sol';\nimport './Pair.sol';\n\ncontract Factory is IFactory {\n    using SafeMath for uint;\n\n    uint[30] public POSSIBLE_PROTOCOL_PERCENT = [10000, 5000, 3300, 2500, 2000, 1600, 1400, 1200, 1100, 1000, 900, 800, 700, 600, 500, 400, 300, 200, 100, 90, 80, 70, 60, 50, 40, 30, 20, 10, 5, 1];\n    uint public override constant MAX_TOTAL_FEE_PERCENT = 1_000;\n    uint public override constant MAX_PROTOCOL_FEE_PERCENT = 10_000;\n    uint public override totalSwaps;\n    uint public override protocolFee;\n    uint public override totalFee;\n    uint public override OnoutFeePercent;\n    address public override feeTo;\n    address public override feeToSetter;\n    address public override OnoutFeeTo;\n    address public override OnoutFeeSetter;\n    bool public override allFeeToProtocol;\n    bytes32 public constant INIT_CODE_PAIR_HASH = keccak256(abi.encodePacked(type(Pair).creationCode));\n\n    mapping(address => mapping(address => address)) public override getPair;\n    address[] public override allPairs;\n\n    modifier onlyOwner() {\n        require(msg.sender == feeToSetter, 'Factory: FORBIDDEN');\n        _;\n    }\n\n    constructor(address _feeToSetter, address _OnoutFeeTo) {\n        feeToSetter = _feeToSetter;\n        OnoutFeeSetter = _feeToSetter;\n        OnoutFeeTo = _OnoutFeeTo;\n        totalFee = 3;\n        protocolFee = 2000;\n        OnoutFeePercent = 20;\n    }\n\n    function allPairsLength() external view override returns (uint) {\n        return allPairs.length;\n    }\n\n    function allInfo() external view override returns(AllInfo memory) {\n        return AllInfo({\n            totalSwaps: totalSwaps,\n            protocolFee: protocolFee,\n            totalFee: totalFee,\n            OnoutFeePercent: OnoutFeePercent,\n            feeTo: feeTo,\n            feeToSetter: feeToSetter,\n            OnoutFeeTo: OnoutFeeTo,\n            OnoutFeeSetter: OnoutFeeSetter,\n            allFeeToProtocol: allFeeToProtocol,\n            POSSIBLE_PROTOCOL_PERCENT: POSSIBLE_PROTOCOL_PERCENT,\n            MAX_TOTAL_FEE_PERCENT: MAX_TOTAL_FEE_PERCENT,\n            MAX_PROTOCOL_FEE_PERCENT: MAX_PROTOCOL_FEE_PERCENT,\n            INIT_CODE_PAIR_HASH: INIT_CODE_PAIR_HASH\n        });\n    }\n\n    function createPair(address tokenA, address tokenB) external override returns (address pair) {\n        require(tokenA != tokenB, 'Factory: IDENTICAL_ADDRESSES');\n        (address token0, address token1) = tokenA < tokenB ? (tokenA, tokenB) : (tokenB, tokenA);\n        require(token0 != address(0), 'Factory: ZERO_ADDRESS');\n        require(getPair[token0][token1] == address(0), 'Factory: PAIR_EXISTS'); // single check is sufficient\n        bytes memory bytecode = type(Pair).creationCode;\n        bytes32 salt = keccak256(abi.encodePacked(token0, token1));\n        assembly {\n            pair := create2(0, add(bytecode, 32), mload(bytecode), salt)\n        }\n        IUniswapV2Pair(pair).initialize(token0, token1);\n        getPair[token0][token1] = pair;\n        getPair[token1][token0] = pair; // populate mapping in the reverse direction\n        allPairs.push(pair);\n        emit PairCreated(token0, token1, pair, allPairs.length);\n    }\n\n    function setOnoutFeePercent(uint _OnoutFeePercent) external override {\n        require(msg.sender == OnoutFeeSetter, 'Factory: FORBIDDEN');\n        require(_OnoutFeePercent >= 0 && _OnoutFeePercent <= 100, 'Factory: WRONG_PERCENTAGE');\n        OnoutFeePercent = _OnoutFeePercent;\n    }\n\n    function setFeeTo(address _feeTo) external override onlyOwner {\n        feeTo = _feeTo;\n    }\n\n    function setFeeToSetter(address _feeToSetter) external override onlyOwner {\n        feeToSetter = _feeToSetter;\n    }\n\n    function setOnoutFeeTo(address _OnoutFeeTo) external override {\n        require(msg.sender == OnoutFeeSetter, 'Factory: FORBIDDEN');\n        OnoutFeeTo = _OnoutFeeTo;\n    }\n\n    function setOnoutFeeSetter(address _OnoutFeeToSetter) external override {\n        require(msg.sender == OnoutFeeSetter, 'Factory: FORBIDDEN');\n        OnoutFeeSetter = _OnoutFeeToSetter;\n    }\n\n    function setAllFeeToProtocol(bool _allFeeToProtocol) external override onlyOwner {\n        allFeeToProtocol = _allFeeToProtocol;\n    }\n\n    function setMainFees(uint _totalFee, uint _protocolFee) external override onlyOwner {\n        _setTotalFee(_totalFee);\n        _setProtocolFee(_protocolFee);\n        require(totalFee == _totalFee && protocolFee == _protocolFee, 'Factory: CANNOT_CHANGE');\n    }\n\n    function setTotalFee(uint _totalFee) external override onlyOwner {\n        _setTotalFee(_totalFee);\n    }\n\n    function setProtocolFee(uint _protocolFee) external override onlyOwner {\n        _setProtocolFee(_protocolFee);\n    }\n\n    function increaseNumberOfSwaps(address token0, address token1) external override {\n        require(msg.sender == getPair[token0][token1], 'Factory: FORBIDDEN');\n        if (totalSwaps < type(uint).max) totalSwaps += 1;\n    }\n\n    function _setTotalFee(uint _totalFee) private {\n        require(_totalFee >= 0 && _totalFee <= MAX_TOTAL_FEE_PERCENT - 1, 'Factory: FORBIDDEN_FEE');\n        totalFee = _totalFee;\n    }\n\n    function _setProtocolFee(uint _protocolFee) private {\n        require(_protocolFee >= 0 && _protocolFee <= MAX_PROTOCOL_FEE_PERCENT, 'Factory: FORBIDDEN_FEE');\n        if (_protocolFee != 0) {\n            bool allowed;\n            for(uint x; x < POSSIBLE_PROTOCOL_PERCENT.length; x++) {\n                if (_protocolFee == POSSIBLE_PROTOCOL_PERCENT[x]) {\n                    allowed = true;\n                    break;\n                }\n            }\n            if (!allowed) revert('Factory: FORBIDDEN_FEE');\n        }\n        protocolFee = _protocolFee;\n    }\n}\n","sourcePath":"/home/user/Code/Onout/Unifactory/uniContracts/contracts/Factory.sol","compiler":{"name":"solc","version":"0.8.0+commit.c7dfd78e.Emscripten.clang"},"schemaVersion":"3.4.13","updatedAt":"2023-03-20T15:39:13.541Z","devdoc":{"kind":"dev","methods":{},"version":1},"userdoc":{"kind":"user","methods":{},"version":1}}