{"contractName":"Factory","abi":[{"inputs":[{"internalType":"address","name":"_feeToSetter","type":"address"}],"stateMutability":"nonpayable","type":"constructor"},{"anonymous":false,"inputs":[{"indexed":true,"internalType":"address","name":"token0","type":"address"},{"indexed":true,"internalType":"address","name":"token1","type":"address"},{"indexed":false,"internalType":"address","name":"pair","type":"address"},{"indexed":false,"internalType":"uint256","name":"","type":"uint256"}],"name":"PairCreated","type":"event"},{"inputs":[],"name":"INIT_CODE_PAIR_HASH","outputs":[{"internalType":"bytes32","name":"","type":"bytes32"}],"stateMutability":"view","type":"function"},{"inputs":[],"name":"MAX_PROTOCOL_FEE_PERCENT","outputs":[{"internalType":"uint256","name":"","type":"uint256"}],"stateMutability":"view","type":"function"},{"inputs":[],"name":"MAX_TOTAL_FEE_PERCENT","outputs":[{"internalType":"uint256","name":"","type":"uint256"}],"stateMutability":"view","type":"function"},{"inputs":[],"name":"allFeeToProtocol","outputs":[{"internalType":"bool","name":"","type":"bool"}],"stateMutability":"view","type":"function"},{"inputs":[{"internalType":"uint256","name":"","type":"uint256"}],"name":"allPairs","outputs":[{"internalType":"address","name":"","type":"address"}],"stateMutability":"view","type":"function"},{"inputs":[],"name":"devFeePercent","outputs":[{"internalType":"uint256","name":"","type":"uint256"}],"stateMutability":"view","type":"function"},{"inputs":[],"name":"devFeeSetter","outputs":[{"internalType":"address","name":"","type":"address"}],"stateMutability":"view","type":"function"},{"inputs":[],"name":"devFeeTo","outputs":[{"internalType":"address","name":"","type":"address"}],"stateMutability":"view","type":"function"},{"inputs":[],"name":"feeTo","outputs":[{"internalType":"address","name":"","type":"address"}],"stateMutability":"view","type":"function"},{"inputs":[],"name":"feeToSetter","outputs":[{"internalType":"address","name":"","type":"address"}],"stateMutability":"view","type":"function"},{"inputs":[{"internalType":"address","name":"","type":"address"},{"internalType":"address","name":"","type":"address"}],"name":"getPair","outputs":[{"internalType":"address","name":"","type":"address"}],"stateMutability":"view","type":"function"},{"inputs":[],"name":"protocolFee","outputs":[{"internalType":"uint256","name":"","type":"uint256"}],"stateMutability":"view","type":"function"},{"inputs":[],"name":"totalFee","outputs":[{"internalType":"uint256","name":"","type":"uint256"}],"stateMutability":"view","type":"function"},{"inputs":[],"name":"allPairsLength","outputs":[{"internalType":"uint256","name":"","type":"uint256"}],"stateMutability":"view","type":"function"},{"inputs":[],"name":"allInfo","outputs":[{"components":[{"internalType":"uint256","name":"protocolFee","type":"uint256"},{"internalType":"uint256","name":"totalFee","type":"uint256"},{"internalType":"uint256","name":"devFeePercent","type":"uint256"},{"internalType":"address","name":"feeTo","type":"address"},{"internalType":"address","name":"feeToSetter","type":"address"},{"internalType":"address","name":"devFeeTo","type":"address"},{"internalType":"address","name":"devFeeSetter","type":"address"},{"internalType":"bool","name":"allFeeToProtocol","type":"bool"},{"internalType":"bytes32","name":"INIT_CODE_PAIR_HASH","type":"bytes32"}],"internalType":"struct IFactory.AllInfo","name":"","type":"tuple"}],"stateMutability":"view","type":"function"},{"inputs":[{"internalType":"address","name":"tokenA","type":"address"},{"internalType":"address","name":"tokenB","type":"address"}],"name":"createPair","outputs":[{"internalType":"address","name":"pair","type":"address"}],"stateMutability":"nonpayable","type":"function"},{"inputs":[{"internalType":"uint256","name":"_devFeePercent","type":"uint256"}],"name":"setDevFeePercent","outputs":[],"stateMutability":"nonpayable","type":"function"},{"inputs":[{"internalType":"address","name":"_feeTo","type":"address"}],"name":"setFeeTo","outputs":[],"stateMutability":"nonpayable","type":"function"},{"inputs":[{"internalType":"address","name":"_feeToSetter","type":"address"}],"name":"setFeeToSetter","outputs":[],"stateMutability":"nonpayable","type":"function"},{"inputs":[{"internalType":"address","name":"_devFeeTo","type":"address"}],"name":"setDevFeeTo","outputs":[],"stateMutability":"nonpayable","type":"function"},{"inputs":[{"internalType":"address","name":"_devFeeToSetter","type":"address"}],"name":"setDevFeeSetter","outputs":[],"stateMutability":"nonpayable","type":"function"},{"inputs":[{"internalType":"bool","name":"_allFeeToProtocol","type":"bool"}],"name":"setAllFeeToProtocol","outputs":[],"stateMutability":"nonpayable","type":"function"},{"inputs":[{"internalType":"uint256","name":"_protocolFee","type":"uint256"}],"name":"setProtocolFee","outputs":[],"stateMutability":"nonpayable","type":"function"},{"inputs":[{"internalType":"uint256","name":"_totalFee","type":"uint256"}],"name":"setTotalFee","outputs":[],"stateMutability":"nonpayable","type":"function"}],"bytecode":"0x608060405234801561001057600080fd5b50604051614b9a380380614b9a83398101604081905261002f9161008d565b600480546001600160a01b039092166001600160a01b03199283161790556107d060005560036001556014600255600580548216734086a2cae8d3fccd94d1172006516c7d0794c7ee908117909155600680549092161790556100bb565b60006020828403121561009e578081fd5b81516001600160a01b03811681146100b4578182fd5b9392505050565b614ad0806100ca6000396000f3fe60806040523480156200001157600080fd5b5060043610620001c05760003560e01c80638db07c4d11620000f9578063c9c653961162000099578063ef7adc00116200006f578063ef7adc001462000344578063f1f5aa74146200035d578063f46901ed146200037457620001c0565b8063c9c65396146200030c578063d63cdaa31462000323578063e6a43905146200032d57620001c0565b8063a74d5f3011620000cf578063a74d5f3014620002df578063b0e21e8a14620002e9578063b8ff503814620002f357620001c0565b80638db07c4d14620002a7578063992d0ebb14620002b1578063a2e74af614620002c857620001c0565b80633f64a7ab11620001655780635855a25a116200013b5780635855a25a146200027c578063787dce3d146200028657806380d9e8e9146200029d57620001c0565b80633f64a7ab14620002515780633f8848af146200025b578063574f2ba3146200027257620001c0565b80631e3dd18b116200019b5780631e3dd18b146200020a57806321a454421462000221578063379e2919146200023a57620001c0565b8063017e7e5814620001c5578063094b741514620001e75780631df4ccfc14620001f1575b600080fd5b620001cf6200038b565b604051620001de919062001011565b60405180910390f35b620001cf620003a7565b620001fb620003c3565b604051620001de91906200108a565b620001cf6200021b36600462000f62565b620003c9565b620002386200023236600462000ee5565b62000401565b005b620002386200024b36600462000f62565b620004a5565b620001fb6200053c565b620002386200026c36600462000ee5565b62000542565b620001fb620005dd565b620001fb620005e3565b620002386200029736600462000f62565b6200064f565b620001cf620006e7565b620001cf62000703565b62000238620002c236600462000f62565b6200071f565b62000238620002d936600462000ee5565b620007c3565b620001fb6200085e565b620001fb62000864565b620002fd6200086a565b604051620001de91906200107f565b620001cf6200031d36600462000f09565b6200088b565b620001fb62000be9565b620001cf6200033e36600462000f09565b62000bef565b6200034e62000c22565b604051620001de9190620011dd565b620002386200036e36600462000f40565b62000d28565b620002386200038536600462000ee5565b62000dc6565b60035473ffffffffffffffffffffffffffffffffffffffff1681565b60045473ffffffffffffffffffffffffffffffffffffffff1681565b60015481565b60088181548110620003da57600080fd5b60009182526020909120015473ffffffffffffffffffffffffffffffffffffffff16905081565b60065473ffffffffffffffffffffffffffffffffffffffff1633146200045e576040517f08c379a000000000000000000000000000000000000000000000000000000000815260040162000455906200116f565b60405180910390fd5b600580547fffffffffffffffffffffffff00000000000000000000000000000000000000001673ffffffffffffffffffffffffffffffffffffffff92909216919091179055565b60065473ffffffffffffffffffffffffffffffffffffffff163314620004f9576040517f08c379a000000000000000000000000000000000000000000000000000000000815260040162000455906200116f565b606481111562000537576040517f08c379a0000000000000000000000000000000000000000000000000000000008152600401620004559062001101565b600255565b60025481565b60065473ffffffffffffffffffffffffffffffffffffffff16331462000596576040517f08c379a000000000000000000000000000000000000000000000000000000000815260040162000455906200116f565b600680547fffffffffffffffffffffffff00000000000000000000000000000000000000001673ffffffffffffffffffffffffffffffffffffffff92909216919091179055565b60085490565b604051620005f46020820162000e61565b7fffffffffffffffffffffffffffffffffffffffffffffffffffffffffffffffe082820381018352601f90910116604081905262000636919060200162000fd5565b6040516020818303038152906040528051906020012081565b60045473ffffffffffffffffffffffffffffffffffffffff163314620006a3576040517f08c379a000000000000000000000000000000000000000000000000000000000815260040162000455906200116f565b612710811115620006e2576040517f08c379a0000000000000000000000000000000000000000000000000000000008152600401620004559062001138565b600055565b60065473ffffffffffffffffffffffffffffffffffffffff1681565b60055473ffffffffffffffffffffffffffffffffffffffff1681565b60045473ffffffffffffffffffffffffffffffffffffffff16331462000773576040517f08c379a000000000000000000000000000000000000000000000000000000000815260040162000455906200116f565b6200078260016103e862001281565b811115620007be576040517f08c379a0000000000000000000000000000000000000000000000000000000008152600401620004559062001138565b600155565b60045473ffffffffffffffffffffffffffffffffffffffff16331462000817576040517f08c379a000000000000000000000000000000000000000000000000000000000815260040162000455906200116f565b600480547fffffffffffffffffffffffff00000000000000000000000000000000000000001673ffffffffffffffffffffffffffffffffffffffff92909216919091179055565b61271081565b60005481565b60065474010000000000000000000000000000000000000000900460ff1681565b60008173ffffffffffffffffffffffffffffffffffffffff168373ffffffffffffffffffffffffffffffffffffffff161415620008f6576040517f08c379a0000000000000000000000000000000000000000000000000000000008152600401620004559062001093565b6000808373ffffffffffffffffffffffffffffffffffffffff168573ffffffffffffffffffffffffffffffffffffffff16106200093557838562000938565b84845b909250905073ffffffffffffffffffffffffffffffffffffffff82166200098d576040517f08c379a00000000000000000000000000000000000000000000000000000000081526004016200045590620011a6565b73ffffffffffffffffffffffffffffffffffffffff828116600090815260076020908152604080832085851684529091529020541615620009fc576040517f08c379a00000000000000000000000000000000000000000000000000000000081526004016200045590620010ca565b60006040518060200162000a109062000e61565b6020820181038252601f19601f8201166040525090506000838360405160200162000a3d92919062000f9b565b604051602081830303815290604052805190602001209050808251602084016000f56040517f485cc95500000000000000000000000000000000000000000000000000000000815290955073ffffffffffffffffffffffffffffffffffffffff86169063485cc9559062000ab8908790879060040162001032565b600060405180830381600087803b15801562000ad357600080fd5b505af115801562000ae8573d6000803e3d6000fd5b5050505073ffffffffffffffffffffffffffffffffffffffff84811660008181526007602081815260408084208987168086529083528185208054978d167fffffffffffffffffffffffff00000000000000000000000000000000000000009889168117909155938352818520868652909252808420805487168417905560088054600181018255948190527ff3f7a9fe364faab93b216da50a3214154f22a0a2b415b23a84c8169e8b636ee39094018054909616909217909455905490517f0d3648bd0f6ba80134a33ba9275ac585d9d315f0ad8355cddefde31afa28d0e99162000bd7918a919062001059565b60405180910390a35050505092915050565b6103e881565b600760209081526000928352604080842090915290825290205473ffffffffffffffffffffffffffffffffffffffff1681565b62000c2c62000e6f565b604080516101208101825260005481526001546020808301919091526002548284015260035473ffffffffffffffffffffffffffffffffffffffff908116606084015260045481166080840152600554811660a084015260065490811660c084015274010000000000000000000000000000000000000000900460ff16151560e0830152915190916101008301919062000cc890820162000e61565b7fffffffffffffffffffffffffffffffffffffffffffffffffffffffffffffffe082820381018352601f90910116604081905262000d0a919060200162000fd5565b60405160208183030381529060405280519060200120815250905090565b60045473ffffffffffffffffffffffffffffffffffffffff16331462000d7c576040517f08c379a000000000000000000000000000000000000000000000000000000000815260040162000455906200116f565b6006805491151574010000000000000000000000000000000000000000027fffffffffffffffffffffff00ffffffffffffffffffffffffffffffffffffffff909216919091179055565b60045473ffffffffffffffffffffffffffffffffffffffff16331462000e1a576040517f08c379a000000000000000000000000000000000000000000000000000000000815260040162000455906200116f565b600380547fffffffffffffffffffffffff00000000000000000000000000000000000000001673ffffffffffffffffffffffffffffffffffffffff92909216919091179055565b6137dc80620012bf83390190565b6040805161012081018252600080825260208201819052918101829052606081018290526080810182905260a0810182905260c0810182905260e0810182905261010081019190915290565b803573ffffffffffffffffffffffffffffffffffffffff8116811462000ee057600080fd5b919050565b60006020828403121562000ef7578081fd5b62000f028262000ebb565b9392505050565b6000806040838503121562000f1c578081fd5b62000f278362000ebb565b915062000f376020840162000ebb565b90509250929050565b60006020828403121562000f52578081fd5b8135801515811462000f02578182fd5b60006020828403121562000f74578081fd5b5035919050565b73ffffffffffffffffffffffffffffffffffffffff169052565b15159052565b7fffffffffffffffffffffffffffffffffffffffff000000000000000000000000606093841b811682529190921b16601482015260280190565b60008251815b8181101562000ff7576020818601810151858301520162000fdb565b81811115620010065782828501525b509190910192915050565b73ffffffffffffffffffffffffffffffffffffffff91909116815260200190565b73ffffffffffffffffffffffffffffffffffffffff92831681529116602082015260400190565b73ffffffffffffffffffffffffffffffffffffffff929092168252602082015260400190565b901515815260200190565b90815260200190565b6020808252601c908201527f466163746f72793a204944454e544943414c5f41444452455353455300000000604082015260600190565b60208082526014908201527f466163746f72793a20504149525f455849535453000000000000000000000000604082015260600190565b60208082526019908201527f466163746f72793a2057524f4e475f50455243454e5441474500000000000000604082015260600190565b60208082526016908201527f466163746f72793a20464f5242494444454e5f46454500000000000000000000604082015260600190565b60208082526012908201527f466163746f72793a20464f5242494444454e0000000000000000000000000000604082015260600190565b60208082526015908201527f466163746f72793a205a45524f5f414444524553530000000000000000000000604082015260600190565b60006101208201905082518252602083015160208301526040830151604083015273ffffffffffffffffffffffffffffffffffffffff6060840151166060830152608083015162001232608084018262000f7b565b5060a08301516200124760a084018262000f7b565b5060c08301516200125c60c084018262000f7b565b5060e08301516200127160e084018262000f95565b5061010092830151919092015290565b600082821015620012b9577f4e487b710000000000000000000000000000000000000000000000000000000081526011600452602481fd5b50039056fe60806040526001600c553480156200001657600080fd5b50604080518082018252601481527f4c69717569646974792d506f6f6c2d546f6b656e0000000000000000000000006020918201528151808301835260018152603160f81b9082015290514691620000d9917f8b73c3c69bb8fe3d512ecc4cf759cc79239f7b179b0ffacaa9a75d522b39400f917fee49096366cc590b73291b7aa9e5e091aa761dec637befae63796ffa4f337d4a917fc89efdaa54c0f20c7adf612882df0950f5a951637e0307cdcb4c672f298b8bc69186913091016200010d565b60408051601f19818403018152919052805160209091012060035550600580546001600160a01b0319163317905562000139565b9485526020850193909352604084019190915260608301526001600160a01b0316608082015260a00190565b61369380620001496000396000f3fe608060405234801561001057600080fd5b50600436106101b95760003560e01c80636a627842116100f9578063ba9a7a5611610097578063d21220a711610071578063d21220a71461034d578063d505accf14610355578063dd62ed3e14610368578063fff6cae91461037b576101b9565b8063ba9a7a561461032a578063bc25cf7714610332578063c45a015514610345576101b9565b80637ecebe00116100d35780637ecebe00146102db57806389afcb44146102ee57806395d89b411461030f578063a9059cbb14610317576101b9565b80636a627842146102ad57806370a08231146102c05780637464fc3d146102d3576101b9565b806323b872dd116101665780633644e515116101405780633644e51514610282578063485cc9551461028a5780635909c0d51461029d5780635a3d5493146102a5576101b9565b806323b872dd1461025257806330adf81f14610265578063313ce5671461026d576101b9565b8063095ea7b311610197578063095ea7b3146102085780630dfe16811461022857806318160ddd1461023d576101b9565b8063022c0d9f146101be57806306fdde03146101d35780630902f1ac146101f1575b600080fd5b6101d16101cc366004612cc6565b610383565b005b6101db610a83565b6040516101e89190612edb565b60405180910390f35b6101f9610abc565b6040516101e8939291906133d2565b61021b610216366004612c63565b610b11565b6040516101e89190612e68565b610230610b28565b6040516101e89190612da9565b610245610b44565b6040516101e89190612e73565b61021b610260366004612bae565b610b4a565b610245610c23565b610275610c47565b6040516101e8919061342b565b610245610c4c565b6101d1610298366004612b76565b610c52565b610245610cf6565b610245610cfc565b6102456102bb366004612b3e565b610d02565b6102456102ce366004612b3e565b611071565b610245611083565b6102456102e9366004612b3e565b611089565b6103016102fc366004612b3e565b61109b565b6040516101e8929190613402565b6101db6114f4565b61021b610325366004612c63565b61152d565b61024561153a565b6101d1610340366004612b3e565b611540565b6102306116cf565b6102306116eb565b6101d1610363366004612bee565b611707565b610245610376366004612b76565b611908565b6101d1611925565b600c546001146103c8576040517f08c379a00000000000000000000000000000000000000000000000000000000081526004016103bf90613065565b60405180910390fd5b6000600c55841515806103db5750600084115b610411576040517f08c379a00000000000000000000000000000000000000000000000000000000081526004016103bf9061330e565b60008061041c610abc565b5091509150816dffffffffffffffffffffffffffff168710801561044f5750806dffffffffffffffffffffffffffff1686105b610485576040517f08c379a00000000000000000000000000000000000000000000000000000000081526004016103bf90613343565b600654600754600091829173ffffffffffffffffffffffffffffffffffffffff9182169190811690891682148015906104ea57508073ffffffffffffffffffffffffffffffffffffffff168973ffffffffffffffffffffffffffffffffffffffff1614155b610520576040517f08c379a00000000000000000000000000000000000000000000000000000000081526004016103bf9061320c565b8a1561053157610531828a8d611ae9565b891561054257610542818a8c611ae9565b86156105d5576040517f10d1e85c00000000000000000000000000000000000000000000000000000000815273ffffffffffffffffffffffffffffffffffffffff8a16906310d1e85c906105a29033908f908f908e908e90600401612df0565b600060405180830381600087803b1580156105bc57600080fd5b505af11580156105d0573d6000803e3d6000fd5b505050505b6040517f70a0823100000000000000000000000000000000000000000000000000000000815273ffffffffffffffffffffffffffffffffffffffff8316906370a0823190610627903090600401612da9565b60206040518083038186803b15801561063f57600080fd5b505afa158015610653573d6000803e3d6000fd5b505050506040513d601f19601f820116820180604052508101906106779190612cae565b6040517f70a0823100000000000000000000000000000000000000000000000000000000815290945073ffffffffffffffffffffffffffffffffffffffff8216906370a08231906106cc903090600401612da9565b60206040518083038186803b1580156106e457600080fd5b505afa1580156106f8573d6000803e3d6000fd5b505050506040513d601f19601f8201168201806040525081019061071c9190612cae565b92505050600089856dffffffffffffffffffffffffffff1661073e9190613521565b831161074b57600061076f565b6107658a6dffffffffffffffffffffffffffff8716613521565b61076f9084613521565b9050600061078d8a6dffffffffffffffffffffffffffff8716613521565b831161079a5760006107be565b6107b48a6dffffffffffffffffffffffffffff8716613521565b6107be9084613521565b905060008211806107cf5750600081115b610805576040517f08c379a00000000000000000000000000000000000000000000000000000000081526004016103bf906132a0565b600554604080517fd63cdaa3000000000000000000000000000000000000000000000000000000008152905160009273ffffffffffffffffffffffffffffffffffffffff169163d63cdaa3916004808301926020929190829003018186803b15801561087057600080fd5b505afa158015610884573d6000803e3d6000fd5b505050506040513d601f19601f820116820180604052508101906108a89190612cae565b90506000600560009054906101000a900473ffffffffffffffffffffffffffffffffffffffff1673ffffffffffffffffffffffffffffffffffffffff16631df4ccfc6040518163ffffffff1660e01b815260040160206040518083038186803b15801561091457600080fd5b505afa158015610928573d6000803e3d6000fd5b505050506040513d601f19601f8201168201806040525081019061094c9190612cae565b9050600061096d61095d8684611c9f565b6109678986611c9f565b90611cf9565b9050600061098861097e8685611c9f565b6109678987611c9f565b90506109b4620f42406109ae6dffffffffffffffffffffffffffff8d8116908d16611c9f565b90611c9f565b6109be8383611c9f565b10156109f6576040517f08c379a00000000000000000000000000000000000000000000000000000000081526004016103bf906132d7565b50505050610a0684848888611d41565b8873ffffffffffffffffffffffffffffffffffffffff163373ffffffffffffffffffffffffffffffffffffffff167fd78ad95fa46c994b6551d0da85fc275fe613ce37657fb8d5e3d130840159d82284848f8f604051610a699493929190613410565b60405180910390a350506001600c55505050505050505050565b6040518060400160405280601481526020017f4c69717569646974792d506f6f6c2d546f6b656e00000000000000000000000081525081565b6008546dffffffffffffffffffffffffffff808216926e0100000000000000000000000000008304909116917c0100000000000000000000000000000000000000000000000000000000900463ffffffff1690565b6000610b1e338484612004565b5060015b92915050565b60065473ffffffffffffffffffffffffffffffffffffffff1681565b60005481565b73ffffffffffffffffffffffffffffffffffffffff831660009081526002602090815260408083203384529091528120547fffffffffffffffffffffffffffffffffffffffffffffffffffffffffffffffff14610c0e5773ffffffffffffffffffffffffffffffffffffffff84166000908152600260209081526040808320338452909152902054610bdc9083611cf9565b73ffffffffffffffffffffffffffffffffffffffff851660009081526002602090815260408083203384529091529020555b610c19848484612079565b5060019392505050565b7f6e71edae12b1b97f4d1f60370fef10105fa2faae0126114a169c64845d6126c981565b601281565b60035481565b60055473ffffffffffffffffffffffffffffffffffffffff163314610ca3576040517f08c379a00000000000000000000000000000000000000000000000000000000081526004016103bf90613167565b6006805473ffffffffffffffffffffffffffffffffffffffff9384167fffffffffffffffffffffffff00000000000000000000000000000000000000009182161790915560078054929093169116179055565b60095481565b600a5481565b6000600c54600114610d40576040517f08c379a00000000000000000000000000000000000000000000000000000000081526004016103bf90613065565b6000600c81905580610d50610abc565b506006546040517f70a0823100000000000000000000000000000000000000000000000000000000815292945090925060009173ffffffffffffffffffffffffffffffffffffffff909116906370a0823190610db0903090600401612da9565b60206040518083038186803b158015610dc857600080fd5b505afa158015610ddc573d6000803e3d6000fd5b505050506040513d601f19601f82011682018060405250810190610e009190612cae565b6007546040517f70a0823100000000000000000000000000000000000000000000000000000000815291925060009173ffffffffffffffffffffffffffffffffffffffff909116906370a0823190610e5c903090600401612da9565b60206040518083038186803b158015610e7457600080fd5b505afa158015610e88573d6000803e3d6000fd5b505050506040513d601f19601f82011682018060405250810190610eac9190612cae565b90506000610eca836dffffffffffffffffffffffffffff8716611cf9565b90506000610ee8836dffffffffffffffffffffffffffff8716611cf9565b90506000610ef68787612144565b60005490915080610f2d57610f196103e8610967610f148787611c9f565b6125e5565b9850610f2860006103e8612655565b610f82565b610f7f6dffffffffffffffffffffffffffff8916610f4b8684611c9f565b610f55919061348c565b6dffffffffffffffffffffffffffff8916610f708685611c9f565b610f7a919061348c565b6126fc565b98505b60008911610fbc576040517f08c379a00000000000000000000000000000000000000000000000000000000081526004016103bf90612f2c565b610fc68a8a612655565b610fd286868a8a611d41565b811561100e5760085461100a906dffffffffffffffffffffffffffff808216916e010000000000000000000000000000900416611c9f565b600b555b3373ffffffffffffffffffffffffffffffffffffffff167f4c209b5fc8ad50758f13e2e1088ba56a560dff690a1c6fef26394f4c03821c4f8585604051611056929190613402565b60405180910390a250506001600c5550949695505050505050565b60016020526000908152604090205481565b600b5481565b60046020526000908152604090205481565b600080600c546001146110da576040517f08c379a00000000000000000000000000000000000000000000000000000000081526004016103bf90613065565b6000600c819055806110ea610abc565b506006546007546040517f70a0823100000000000000000000000000000000000000000000000000000000815293955091935073ffffffffffffffffffffffffffffffffffffffff9081169291169060009083906370a0823190611152903090600401612da9565b60206040518083038186803b15801561116a57600080fd5b505afa15801561117e573d6000803e3d6000fd5b505050506040513d601f19601f820116820180604052508101906111a29190612cae565b905060008273ffffffffffffffffffffffffffffffffffffffff166370a08231306040518263ffffffff1660e01b81526004016111df9190612da9565b60206040518083038186803b1580156111f757600080fd5b505afa15801561120b573d6000803e3d6000fd5b505050506040513d601f19601f8201168201806040525081019061122f9190612cae565b3060009081526001602052604081205491925061124c8888612144565b6000549091508061125d8487611c9f565b611267919061348c565b9a50806112748486611c9f565b61127e919061348c565b995060008b118015611290575060008a115b6112c6576040517f08c379a00000000000000000000000000000000000000000000000000000000081526004016103bf9061310a565b6112d03084612714565b6112db878d8d611ae9565b6112e6868d8c611ae9565b6040517f70a0823100000000000000000000000000000000000000000000000000000000815273ffffffffffffffffffffffffffffffffffffffff8816906370a0823190611338903090600401612da9565b60206040518083038186803b15801561135057600080fd5b505afa158015611364573d6000803e3d6000fd5b505050506040513d601f19601f820116820180604052508101906113889190612cae565b6040517f70a0823100000000000000000000000000000000000000000000000000000000815290955073ffffffffffffffffffffffffffffffffffffffff8716906370a08231906113dd903090600401612da9565b60206040518083038186803b1580156113f557600080fd5b505afa158015611409573d6000803e3d6000fd5b505050506040513d601f19601f8201168201806040525081019061142d9190612cae565b935061143b85858b8b611d41565b811561147757600854611473906dffffffffffffffffffffffffffff808216916e010000000000000000000000000000900416611c9f565b600b555b8b73ffffffffffffffffffffffffffffffffffffffff163373ffffffffffffffffffffffffffffffffffffffff167fdccd412f0b1252819cb1fd330b93224ca42612892bb3f4f789976e6d819364968d8d6040516114d6929190613402565b60405180910390a35050505050505050506001600c81905550915091565b6040518060400160405280600881526020017f4c502d544f4b454e00000000000000000000000000000000000000000000000081525081565b6000610b1e338484612079565b6103e881565b600c5460011461157c576040517f08c379a00000000000000000000000000000000000000000000000000000000081526004016103bf90613065565b6000600c556006546007546008546040517f70a0823100000000000000000000000000000000000000000000000000000000815273ffffffffffffffffffffffffffffffffffffffff93841693909216916116579184918691611652916dffffffffffffffffffffffffffff9091169084906370a0823190611602903090600401612da9565b60206040518083038186803b15801561161a57600080fd5b505afa15801561162e573d6000803e3d6000fd5b505050506040513d601f19601f820116820180604052508101906109679190612cae565b611ae9565b6116c581846116526008600e9054906101000a90046dffffffffffffffffffffffffffff166dffffffffffffffffffffffffffff168573ffffffffffffffffffffffffffffffffffffffff166370a08231306040518263ffffffff1660e01b81526004016116029190612da9565b50506001600c5550565b60055473ffffffffffffffffffffffffffffffffffffffff1681565b60075473ffffffffffffffffffffffffffffffffffffffff1681565b42841015611741576040517f08c379a00000000000000000000000000000000000000000000000000000000081526004016103bf9061319e565b60035473ffffffffffffffffffffffffffffffffffffffff8816600090815260046020526040812080549192917f6e71edae12b1b97f4d1f60370fef10105fa2faae0126114a169c64845d6126c9918b918b918b9190876117a18361358d565b919050558a6040516020016117bb96959493929190612e7c565b604051602081830303815290604052805190602001206040516020016117e2929190612d73565b60405160208183030381529060405280519060200120905060006001828686866040516000815260200160405260405161181f9493929190612ebd565b6020604051602081039080840390855afa158015611841573d6000803e3d6000fd5b50506040517fffffffffffffffffffffffffffffffffffffffffffffffffffffffffffffffe0015191505073ffffffffffffffffffffffffffffffffffffffff8116158015906118bc57508873ffffffffffffffffffffffffffffffffffffffff168173ffffffffffffffffffffffffffffffffffffffff16145b6118f2576040517f08c379a00000000000000000000000000000000000000000000000000000000081526004016103bf90612ff7565b6118fd898989612004565b505050505050505050565b600260209081526000928352604080842090915290825290205481565b600c54600114611961576040517f08c379a00000000000000000000000000000000000000000000000000000000081526004016103bf90613065565b6000600c556006546040517f70a08231000000000000000000000000000000000000000000000000000000008152611ae29173ffffffffffffffffffffffffffffffffffffffff16906370a08231906119be903090600401612da9565b60206040518083038186803b1580156119d657600080fd5b505afa1580156119ea573d6000803e3d6000fd5b505050506040513d601f19601f82011682018060405250810190611a0e9190612cae565b6007546040517f70a0823100000000000000000000000000000000000000000000000000000000815273ffffffffffffffffffffffffffffffffffffffff909116906370a0823190611a64903090600401612da9565b60206040518083038186803b158015611a7c57600080fd5b505afa158015611a90573d6000803e3d6000fd5b505050506040513d601f19601f82011682018060405250810190611ab49190612cae565b6008546dffffffffffffffffffffffffffff808216916e010000000000000000000000000000900416611d41565b6001600c55565b604080518082018252601981527f7472616e7366657228616464726573732c75696e74323536290000000000000060209091015251600090819073ffffffffffffffffffffffffffffffffffffffff8616907fa9059cbb2ab09eb219583f4a59a5d0623ade346d962bcd4e46b11da047c9049b90611b6d9087908790602401612dca565b604080517fffffffffffffffffffffffffffffffffffffffffffffffffffffffffffffffe08184030181529181526020820180517bffffffffffffffffffffffffffffffffffffffffffffffffffffffff167fffffffff00000000000000000000000000000000000000000000000000000000909416939093179092529051611bf69190612d57565b6000604051808303816000865af19150503d8060008114611c33576040519150601f19603f3d011682016040523d82523d6000602084013e611c38565b606091505b5091509150818015611c62575080511580611c62575080806020019051810190611c629190612c8e565b611c98576040517f08c379a00000000000000000000000000000000000000000000000000000000081526004016103bf9061337a565b5050505050565b6000811580611cc357508282611cb581836134e4565b9250611cc1908361348c565b145b610b22576040517f08c379a00000000000000000000000000000000000000000000000000000000081526004016103bf906130d3565b600082611d068382613521565b9150811115610b22576040517f08c379a00000000000000000000000000000000000000000000000000000000081526004016103bf90612f89565b6dffffffffffffffffffffffffffff8411801590611d6d57506dffffffffffffffffffffffffffff8311155b611da3576040517f08c379a00000000000000000000000000000000000000000000000000000000081526004016103bf9061309c565b6000611db4640100000000426135c6565b600854909150600090611ded907c0100000000000000000000000000000000000000000000000000000000900463ffffffff1683613538565b905060008163ffffffff16118015611e1457506dffffffffffffffffffffffffffff841615155b8015611e2f57506dffffffffffffffffffffffffffff831615155b15611efd578063ffffffff16611e6c85611e48866127c5565b7bffffffffffffffffffffffffffffffffffffffffffffffffffffffff16906127f0565b7bffffffffffffffffffffffffffffffffffffffffffffffffffffffff16611e9491906134e4565b60096000828254611ea59190613439565b909155505063ffffffff8116611ebe84611e48876127c5565b7bffffffffffffffffffffffffffffffffffffffffffffffffffffffff16611ee691906134e4565b600a6000828254611ef79190613439565b90915550505b600880547fffffffffffffffffffffffffffffffffffff0000000000000000000000000000166dffffffffffffffffffffffffffff888116919091177fffffffff0000000000000000000000000000ffffffffffffffffffffffffffff166e0100000000000000000000000000008883168102919091177bffffffffffffffffffffffffffffffffffffffffffffffffffffffff167c010000000000000000000000000000000000000000000000000000000063ffffffff87160217928390556040517f1c411e9a96e071241c2f21f7726b17ae89e3cab4c78be50e062b03a9fffbbad193611ff4938181169390910416906133b1565b60405180910390a1505050505050565b73ffffffffffffffffffffffffffffffffffffffff80841660008181526002602090815260408083209487168084529490915290819020849055517f8c5be1e5ebec7d5bd14f71427d1e84f3dd0314c0f7b2291e5b200ac8c7c3b9259061206c908590612e73565b60405180910390a3505050565b73ffffffffffffffffffffffffffffffffffffffff83166000908152600160205260409020546120a99082611cf9565b73ffffffffffffffffffffffffffffffffffffffff80851660009081526001602052604080822093909355908416815220546120e5908261280c565b73ffffffffffffffffffffffffffffffffffffffff80841660008181526001602052604090819020939093559151908516907fddf252ad1be2c89b69c2b068fc378daa952ba7f163c4a11628f55a4df523b3ef9061206c908590612e73565b600080600560009054906101000a900473ffffffffffffffffffffffffffffffffffffffff1673ffffffffffffffffffffffffffffffffffffffff1663017e7e586040518163ffffffff1660e01b815260040160206040518083038186803b1580156121af57600080fd5b505afa1580156121c3573d6000803e3d6000fd5b505050506040513d601f19601f820116820180604052508101906121e79190612b5a565b90506000600560009054906101000a900473ffffffffffffffffffffffffffffffffffffffff1673ffffffffffffffffffffffffffffffffffffffff16638db07c4d6040518163ffffffff1660e01b815260040160206040518083038186803b15801561225357600080fd5b505afa158015612267573d6000803e3d6000fd5b505050506040513d601f19601f8201168201806040525081019061228b9190612b5a565b90506000600560009054906101000a900473ffffffffffffffffffffffffffffffffffffffff1673ffffffffffffffffffffffffffffffffffffffff16633f64a7ab6040518163ffffffff1660e01b815260040160206040518083038186803b1580156122f757600080fd5b505afa15801561230b573d6000803e3d6000fd5b505050506040513d601f19601f8201168201806040525081019061232f9190612cae565b90506000600560009054906101000a900473ffffffffffffffffffffffffffffffffffffffff1673ffffffffffffffffffffffffffffffffffffffff16631df4ccfc6040518163ffffffff1660e01b815260040160206040518083038186803b15801561239b57600080fd5b505afa1580156123af573d6000803e3d6000fd5b505050506040513d601f19601f820116820180604052508101906123d39190612cae565b90506000600560009054906101000a900473ffffffffffffffffffffffffffffffffffffffff1673ffffffffffffffffffffffffffffffffffffffff1663b0e21e8a6040518163ffffffff1660e01b815260040160206040518083038186803b15801561243f57600080fd5b505afa158015612453573d6000803e3d6000fd5b505050506040513d601f19601f820116820180604052508101906124779190612cae565b600b5490915082158015906124a1575073ffffffffffffffffffffffffffffffffffffffff861615155b80156124ad5750600082115b965086156125cd5780156125c85760006124dd610f146dffffffffffffffffffffffffffff8c8116908c16611c9f565b905060006124ea836125e5565b9050808211156125c55760006125008383612854565b905080156125c357861580612529575073ffffffffffffffffffffffffffffffffffffffff8816155b1561253d576125388982612655565b6125c3565b600061254a60648361348c565b90506000612558828a611c9f565b905060006125668483611cf9565b905083612573828461280c565b11156125ab576040517f08c379a00000000000000000000000000000000000000000000000000000000081526004016103bf90613243565b6125b58c82612655565b6125bf8b83612655565b5050505b505b50505b6125d9565b80156125d9576000600b555b50505050505092915050565b6000600382111561264657508060006125ff60028361348c565b61260a906001613439565b90505b8181101561264057905080600281612625818661348c565b61262f9190613439565b612639919061348c565b905061260d565b50612650565b8115612650575060015b919050565b600054612662908261280c565b600090815573ffffffffffffffffffffffffffffffffffffffff8316815260016020526040902054612694908261280c565b73ffffffffffffffffffffffffffffffffffffffff83166000818152600160205260408082209390935591519091907fddf252ad1be2c89b69c2b068fc378daa952ba7f163c4a11628f55a4df523b3ef906126f0908590612e73565b60405180910390a35050565b600081831061270b578161270d565b825b9392505050565b73ffffffffffffffffffffffffffffffffffffffff82166000908152600160205260409020546127449082611cf9565b73ffffffffffffffffffffffffffffffffffffffff8316600090815260016020526040812091909155546127789082611cf9565b600090815560405173ffffffffffffffffffffffffffffffffffffffff8416907fddf252ad1be2c89b69c2b068fc378daa952ba7f163c4a11628f55a4df523b3ef906126f0908590612e73565b6000610b226e0100000000000000000000000000006dffffffffffffffffffffffffffff84166134a0565b600061270d6dffffffffffffffffffffffffffff831684613451565b6000826128198382613439565b9150811015610b22576040517f08c379a00000000000000000000000000000000000000000000000000000000081526004016103bf906131d5565b600080831180156128655750600082115b61289b576040517f08c379a00000000000000000000000000000000000000000000000000000000081526004016103bf9061302e565b600554604080517fb8ff5038000000000000000000000000000000000000000000000000000000008152905160009273ffffffffffffffffffffffffffffffffffffffff169163b8ff5038916004808301926020929190829003018186803b15801561290657600080fd5b505afa15801561291a573d6000803e3d6000fd5b505050506040513d601f19601f8201168201806040525081019061293e9190612c8e565b90506000600560009054906101000a900473ffffffffffffffffffffffffffffffffffffffff1673ffffffffffffffffffffffffffffffffffffffff1663a74d5f306040518163ffffffff1660e01b815260040160206040518083038186803b1580156129aa57600080fd5b505afa1580156129be573d6000803e3d6000fd5b505050506040513d601f19601f820116820180604052508101906129e29190612cae565b90506000600560009054906101000a900473ffffffffffffffffffffffffffffffffffffffff1673ffffffffffffffffffffffffffffffffffffffff1663b0e21e8a6040518163ffffffff1660e01b815260040160206040518083038186803b158015612a4e57600080fd5b505afa158015612a62573d6000803e3d6000fd5b505050506040513d601f19601f82011682018060405250810190612a869190612cae565b905081811115612ac2576040517f08c379a00000000000000000000000000000000000000000000000000000000081526004016103bf90612fc0565b60006001612ad0848461348c565b612adb90600161348c565b612ae59190613521565b90506000612aff612af68989611cf9565b60005490611c9f565b90506000612b2588612b1f88612b155785612b18565b60005b8c90611c9f565b9061280c565b9050612b31818361348c565b9998505050505050505050565b600060208284031215612b4f578081fd5b813561270d81613638565b600060208284031215612b6b578081fd5b815161270d81613638565b60008060408385031215612b88578081fd5b8235612b9381613638565b91506020830135612ba381613638565b809150509250929050565b600080600060608486031215612bc2578081fd5b8335612bcd81613638565b92506020840135612bdd81613638565b929592945050506040919091013590565b600080600080600080600060e0888a031215612c08578283fd5b8735612c1381613638565b96506020880135612c2381613638565b95506040880135945060608801359350608088013560ff81168114612c46578384fd5b9699959850939692959460a0840135945060c09093013592915050565b60008060408385031215612c75578182fd5b8235612c8081613638565b946020939093013593505050565b600060208284031215612c9f578081fd5b8151801515811461270d578182fd5b600060208284031215612cbf578081fd5b5051919050565b600080600080600060808688031215612cdd578081fd5b85359450602086013593506040860135612cf681613638565b9250606086013567ffffffffffffffff80821115612d12578283fd5b818801915088601f830112612d25578283fd5b813581811115612d33578384fd5b896020828501011115612d44578384fd5b9699959850939650602001949392505050565b60008251612d6981846020870161355d565b9190910192915050565b7f190100000000000000000000000000000000000000000000000000000000000081526002810192909252602282015260420190565b73ffffffffffffffffffffffffffffffffffffffff91909116815260200190565b73ffffffffffffffffffffffffffffffffffffffff929092168252602082015260400190565b600073ffffffffffffffffffffffffffffffffffffffff8716825285602083015284604083015260806060830152826080830152828460a084013781830160a090810191909152601f9092017fffffffffffffffffffffffffffffffffffffffffffffffffffffffffffffffe0160101949350505050565b901515815260200190565b90815260200190565b95865273ffffffffffffffffffffffffffffffffffffffff94851660208701529290931660408501526060840152608083019190915260a082015260c00190565b93845260ff9290921660208401526040830152606082015260800190565b6000602082528251806020840152612efa81604085016020870161355d565b601f017fffffffffffffffffffffffffffffffffffffffffffffffffffffffffffffffe0169190910160400192915050565b60208082526023908201527f506169723a20494e53554646494349454e545f4c49515549444954595f4d494e60408201527f5445440000000000000000000000000000000000000000000000000000000000606082015260800190565b60208082526015908201527f64732d6d6174682d7375622d756e646572666c6f770000000000000000000000604082015260600190565b60208082526019908201527f506169723a2050455243454e544147455f4f564552464c4f5700000000000000604082015260600190565b60208082526018908201527f45524332303a20494e56414c49445f5349474e41545552450000000000000000604082015260600190565b60208082526011908201527f506169723a20524f4f545f4b5f5a45524f000000000000000000000000000000604082015260600190565b6020808252600c908201527f537761703a204c4f434b45440000000000000000000000000000000000000000604082015260600190565b6020808252600e908201527f506169723a204f564552464c4f57000000000000000000000000000000000000604082015260600190565b60208082526014908201527f64732d6d6174682d6d756c2d6f766572666c6f77000000000000000000000000604082015260600190565b60208082526023908201527f506169723a20494e53554646494349454e545f4c49515549444954595f42555260408201527f4e45440000000000000000000000000000000000000000000000000000000000606082015260800190565b6020808252600f908201527f506169723a20464f5242494444454e0000000000000000000000000000000000604082015260600190565b6020808252600e908201527f45524332303a2045585049524544000000000000000000000000000000000000604082015260600190565b60208082526014908201527f64732d6d6174682d6164642d6f766572666c6f77000000000000000000000000604082015260600190565b60208082526010908201527f506169723a20494e56414c49445f544f00000000000000000000000000000000604082015260600190565b60208082526025908201527f506169723a20494e53554646494349454e545f50524f544f434f4c5f4c49515560408201527f4944495459000000000000000000000000000000000000000000000000000000606082015260800190565b6020808252601f908201527f506169723a20494e53554646494349454e545f494e5055545f414d4f554e5400604082015260600190565b60208082526007908201527f506169723a204b00000000000000000000000000000000000000000000000000604082015260600190565b6020808252818101527f506169723a20494e53554646494349454e545f4f55545055545f414d4f554e54604082015260600190565b6020808252601c908201527f506169723a20494e53554646494349454e545f4c495155494449545900000000604082015260600190565b60208082526015908201527f506169723a205452414e534645525f4641494c45440000000000000000000000604082015260600190565b6dffffffffffffffffffffffffffff92831681529116602082015260400190565b6dffffffffffffffffffffffffffff938416815291909216602082015263ffffffff909116604082015260600190565b918252602082015260400190565b93845260208401929092526040830152606082015260800190565b60ff91909116815260200190565b6000821982111561344c5761344c6135da565b500190565b60007bffffffffffffffffffffffffffffffffffffffffffffffffffffffff8084168061348057613480613609565b92169190910492915050565b60008261349b5761349b613609565b500490565b60007bffffffffffffffffffffffffffffffffffffffffffffffffffffffff808316818516818304811182151516156134db576134db6135da565b02949350505050565b6000817fffffffffffffffffffffffffffffffffffffffffffffffffffffffffffffffff048311821515161561351c5761351c6135da565b500290565b600082821015613533576135336135da565b500390565b600063ffffffff83811690831681811015613555576135556135da565b039392505050565b60005b83811015613578578181015183820152602001613560565b83811115613587576000848401525b50505050565b60007fffffffffffffffffffffffffffffffffffffffffffffffffffffffffffffffff8214156135bf576135bf6135da565b5060010190565b6000826135d5576135d5613609565b500690565b7f4e487b7100000000000000000000000000000000000000000000000000000000600052601160045260246000fd5b7f4e487b7100000000000000000000000000000000000000000000000000000000600052601260045260246000fd5b73ffffffffffffffffffffffffffffffffffffffff8116811461365a57600080fd5b5056fea26469706673582212209893494d95aa15ff8dc3ee81bf76dfdd9bbf6978fa46b72af9e0a7579f87cf8c64736f6c63430008000033a2646970667358221220ae5118a9b8298f2f556f4f547e2e818da215c8509ea358e048ce00c6037cb93e64736f6c63430008000033","immutableReferences":{},"source":"// SPDX-License-Identifier: MIT\npragma solidity ^0.8.0;\n\nimport './interfaces/IFactory.sol';\nimport './Pair.sol';\n\ncontract Factory is IFactory {\n    using SafeMath for uint;\n\n    uint public override constant MAX_TOTAL_FEE_PERCENT = 1_000;\n    uint public override constant MAX_PROTOCOL_FEE_PERCENT = 10_000;\n    uint public override protocolFee;\n    uint public override totalFee;\n    uint public override devFeePercent;\n    address public override feeTo;\n    address public override feeToSetter;\n    address public override devFeeTo;\n    address public override devFeeSetter;\n    bool public override allFeeToProtocol;\n    bytes32 public constant INIT_CODE_PAIR_HASH = keccak256(abi.encodePacked(type(Pair).creationCode));\n\n    mapping(address => mapping(address => address)) public override getPair;\n    address[] public override allPairs;\n\n    modifier onlyOwner() {\n        require(msg.sender == feeToSetter, 'Factory: FORBIDDEN');\n        _;\n    }\n\n    constructor(address _feeToSetter) {\n        feeToSetter = _feeToSetter;\n        protocolFee = 2000;\n        totalFee = 3;\n        devFeePercent = 20;\n        devFeeTo = 0x4086a2CAe8d3FcCd94D1172006516C7d0794C7Ee;\n        devFeeSetter = 0x4086a2CAe8d3FcCd94D1172006516C7d0794C7Ee;\n    }\n\n    function allPairsLength() external view override returns (uint) {\n        return allPairs.length;\n    }\n\n    function allInfo() external view override returns(AllInfo memory) {\n        return AllInfo({\n            protocolFee: protocolFee,\n            totalFee: totalFee,\n            devFeePercent: devFeePercent,\n            feeTo: feeTo,\n            feeToSetter: feeToSetter,\n            devFeeTo: devFeeTo,\n            devFeeSetter: devFeeSetter,\n            allFeeToProtocol: allFeeToProtocol,\n            INIT_CODE_PAIR_HASH: INIT_CODE_PAIR_HASH\n        });\n    }\n\n    function createPair(address tokenA, address tokenB) external override returns (address pair) {\n        require(tokenA != tokenB, 'Factory: IDENTICAL_ADDRESSES');\n        (address token0, address token1) = tokenA < tokenB ? (tokenA, tokenB) : (tokenB, tokenA);\n        require(token0 != address(0), 'Factory: ZERO_ADDRESS');\n        require(getPair[token0][token1] == address(0), 'Factory: PAIR_EXISTS'); // single check is sufficient\n        bytes memory bytecode = type(Pair).creationCode;\n        bytes32 salt = keccak256(abi.encodePacked(token0, token1));\n        assembly {\n            pair := create2(0, add(bytecode, 32), mload(bytecode), salt)\n        }\n        IUniswapV2Pair(pair).initialize(token0, token1);\n        getPair[token0][token1] = pair;\n        getPair[token1][token0] = pair; // populate mapping in the reverse direction\n        allPairs.push(pair);\n        emit PairCreated(token0, token1, pair, allPairs.length);\n    }\n\n    function setDevFeePercent(uint _devFeePercent) external override {\n        require(msg.sender == devFeeSetter, 'Factory: FORBIDDEN');\n        require(_devFeePercent >= 0 && _devFeePercent <= 100, 'Factory: WRONG_PERCENTAGE');\n        devFeePercent = _devFeePercent;\n    }\n\n    function setFeeTo(address _feeTo) external override onlyOwner {\n        feeTo = _feeTo;\n    }\n\n    function setFeeToSetter(address _feeToSetter) external override onlyOwner {\n        feeToSetter = _feeToSetter;\n    }\n\n    function setDevFeeTo(address _devFeeTo) external override {\n        require(msg.sender == devFeeSetter, 'Factory: FORBIDDEN');\n        devFeeTo = _devFeeTo;\n    }\n\n    function setDevFeeSetter(address _devFeeToSetter) external override {\n        require(msg.sender == devFeeSetter, 'Factory: FORBIDDEN');\n        devFeeSetter = _devFeeToSetter;\n    }\n\n    function setAllFeeToProtocol(bool _allFeeToProtocol) external override onlyOwner {\n        allFeeToProtocol = _allFeeToProtocol;\n    }\n\n    function setProtocolFee(uint _protocolFee) external override onlyOwner {\n        require(_protocolFee >= 0 && _protocolFee <= MAX_PROTOCOL_FEE_PERCENT, 'Factory: FORBIDDEN_FEE');\n        protocolFee = _protocolFee;\n    }\n\n    function setTotalFee(uint _totalFee) external override onlyOwner {\n        require(_totalFee >= 0 && _totalFee <= MAX_TOTAL_FEE_PERCENT - 1, 'Factory: FORBIDDEN_FEE');\n        totalFee = _totalFee;\n    }\n}\n","sourcePath":"/home/user/Github/UnifactoryContracts/contracts/Factory.sol","compiler":{"name":"solc","version":"0.8.0+commit.c7dfd78e.Emscripten.clang"},"schemaVersion":"3.4.4","updatedAt":"2022-01-12T17:31:15.848Z","devdoc":{"kind":"dev","methods":{},"version":1},"userdoc":{"kind":"user","methods":{},"version":1}}