{"contractName":"Factory","abi":[{"inputs":[{"internalType":"address","name":"_feeToSetter","type":"address"}],"stateMutability":"nonpayable","type":"constructor"},{"anonymous":false,"inputs":[{"indexed":true,"internalType":"address","name":"token0","type":"address"},{"indexed":true,"internalType":"address","name":"token1","type":"address"},{"indexed":false,"internalType":"address","name":"pair","type":"address"},{"indexed":false,"internalType":"uint256","name":"","type":"uint256"}],"name":"PairCreated","type":"event"},{"inputs":[],"name":"INIT_CODE_PAIR_HASH","outputs":[{"internalType":"bytes32","name":"","type":"bytes32"}],"stateMutability":"view","type":"function"},{"inputs":[],"name":"MAX_PERCENT","outputs":[{"internalType":"uint256","name":"","type":"uint256"}],"stateMutability":"view","type":"function"},{"inputs":[],"name":"allFeeToProtocol","outputs":[{"internalType":"bool","name":"","type":"bool"}],"stateMutability":"view","type":"function"},{"inputs":[{"internalType":"uint256","name":"","type":"uint256"}],"name":"allPairs","outputs":[{"internalType":"address","name":"","type":"address"}],"stateMutability":"view","type":"function"},{"inputs":[],"name":"devFeePercent","outputs":[{"internalType":"uint256","name":"","type":"uint256"}],"stateMutability":"view","type":"function"},{"inputs":[],"name":"devFeeSetter","outputs":[{"internalType":"address","name":"","type":"address"}],"stateMutability":"view","type":"function"},{"inputs":[],"name":"devFeeTo","outputs":[{"internalType":"address","name":"","type":"address"}],"stateMutability":"view","type":"function"},{"inputs":[],"name":"feeTo","outputs":[{"internalType":"address","name":"","type":"address"}],"stateMutability":"view","type":"function"},{"inputs":[],"name":"feeToSetter","outputs":[{"internalType":"address","name":"","type":"address"}],"stateMutability":"view","type":"function"},{"inputs":[{"internalType":"address","name":"","type":"address"},{"internalType":"address","name":"","type":"address"}],"name":"getPair","outputs":[{"internalType":"address","name":"","type":"address"}],"stateMutability":"view","type":"function"},{"inputs":[],"name":"protocolFee","outputs":[{"internalType":"uint256","name":"","type":"uint256"}],"stateMutability":"view","type":"function"},{"inputs":[],"name":"totalFee","outputs":[{"internalType":"uint256","name":"","type":"uint256"}],"stateMutability":"view","type":"function"},{"inputs":[],"name":"allPairsLength","outputs":[{"internalType":"uint256","name":"","type":"uint256"}],"stateMutability":"view","type":"function"},{"inputs":[],"name":"allInfo","outputs":[{"components":[{"internalType":"uint256","name":"protocolFee","type":"uint256"},{"internalType":"uint256","name":"totalFee","type":"uint256"},{"internalType":"uint256","name":"devFeePercent","type":"uint256"},{"internalType":"address","name":"feeTo","type":"address"},{"internalType":"address","name":"feeToSetter","type":"address"},{"internalType":"address","name":"devFeeTo","type":"address"},{"internalType":"address","name":"devFeeSetter","type":"address"},{"internalType":"bool","name":"allFeeToProtocol","type":"bool"},{"internalType":"bytes32","name":"INIT_CODE_PAIR_HASH","type":"bytes32"}],"internalType":"struct IFactory.AllInfo","name":"","type":"tuple"}],"stateMutability":"view","type":"function"},{"inputs":[{"internalType":"address","name":"tokenA","type":"address"},{"internalType":"address","name":"tokenB","type":"address"}],"name":"createPair","outputs":[{"internalType":"address","name":"pair","type":"address"}],"stateMutability":"nonpayable","type":"function"},{"inputs":[{"internalType":"uint256","name":"_devFeePercent","type":"uint256"}],"name":"setDevFeePercent","outputs":[],"stateMutability":"nonpayable","type":"function"},{"inputs":[{"internalType":"address","name":"_feeTo","type":"address"}],"name":"setFeeTo","outputs":[],"stateMutability":"nonpayable","type":"function"},{"inputs":[{"internalType":"address","name":"_feeToSetter","type":"address"}],"name":"setFeeToSetter","outputs":[],"stateMutability":"nonpayable","type":"function"},{"inputs":[{"internalType":"address","name":"_devFeeTo","type":"address"}],"name":"setDevFeeTo","outputs":[],"stateMutability":"nonpayable","type":"function"},{"inputs":[{"internalType":"address","name":"_devFeeToSetter","type":"address"}],"name":"setDevFeeSetter","outputs":[],"stateMutability":"nonpayable","type":"function"},{"inputs":[{"internalType":"bool","name":"_allFeeToProtocol","type":"bool"}],"name":"setAllFeeToProtocol","outputs":[],"stateMutability":"nonpayable","type":"function"},{"inputs":[{"internalType":"uint256","name":"_protocolFee","type":"uint256"}],"name":"setProtocolFee","outputs":[],"stateMutability":"nonpayable","type":"function"},{"inputs":[{"internalType":"uint256","name":"_totalFee","type":"uint256"}],"name":"setTotalFee","outputs":[],"stateMutability":"nonpayable","type":"function"}],"bytecode":"0x608060405234801561001057600080fd5b50604051614a1d380380614a1d83398101604081905261002f9161008c565b600480546001600160a01b039092166001600160a01b0319928316179055600560008190556003600155601460025580548216734086a2cae8d3fccd94d1172006516c7d0794c7ee908117909155600680549092161790556100ba565b60006020828403121561009d578081fd5b81516001600160a01b03811681146100b3578182fd5b9392505050565b614954806100c96000396000f3fe60806040523480156200001157600080fd5b5060043610620001b45760003560e01c8063787dce3d11620000f9578063b8ff50381162000099578063ef7adc00116200006f578063ef7adc00146200032e578063f1f5aa741462000347578063f46901ed146200035e57620001b4565b8063b8ff503814620002e7578063c9c653961462000300578063e6a43905146200031757620001b4565b8063992d0ebb11620000cf578063992d0ebb14620002af578063a2e74af614620002c6578063b0e21e8a14620002dd57620001b4565b8063787dce3d146200028457806380d9e8e9146200029b5780638db07c4d14620002a557620001b4565b806321a4544211620001655780633f8848af116200013b5780633f8848af1462000259578063574f2ba314620002705780635855a25a146200027a57620001b4565b806321a45442146200021f578063379e291914620002385780633f64a7ab146200024f57620001b4565b80631036bbe2116200019b5780631036bbe214620001e55780631df4ccfc14620001fe5780631e3dd18b146200020857620001b4565b8063017e7e5814620001b9578063094b741514620001db575b600080fd5b620001c362000375565b604051620001d2919062001065565b60405180910390f35b620001c362000391565b620001ef620003ad565b604051620001d29190620010de565b620001ef620003b3565b620001c36200021936600462000fb6565b620003b9565b620002366200023036600462000f39565b620003f1565b005b620002366200024936600462000fb6565b62000495565b620001ef6200052c565b620002366200026a36600462000f39565b62000532565b620001ef620005cd565b620001ef620005d3565b620002366200029536600462000fb6565b6200063f565b620001c3620006eb565b620001c362000707565b62000236620002c036600462000fb6565b62000723565b62000236620002d736600462000f39565b620007bb565b620001ef62000856565b620002f16200085c565b604051620001d29190620010d3565b620001c36200031136600462000f5d565b6200087d565b620001c36200032836600462000f5d565b62000bdb565b6200033862000c0e565b604051620001d2919062001268565b620002366200035836600462000f94565b62000d14565b620002366200036f36600462000f39565b62000db2565b60035473ffffffffffffffffffffffffffffffffffffffff1681565b60045473ffffffffffffffffffffffffffffffffffffffff1681565b6103e881565b60015481565b60088181548110620003ca57600080fd5b60009182526020909120015473ffffffffffffffffffffffffffffffffffffffff16905081565b60065473ffffffffffffffffffffffffffffffffffffffff1633146200044e576040517f08c379a00000000000000000000000000000000000000000000000000000000081526004016200044590620011fa565b60405180910390fd5b600580547fffffffffffffffffffffffff00000000000000000000000000000000000000001673ffffffffffffffffffffffffffffffffffffffff92909216919091179055565b60065473ffffffffffffffffffffffffffffffffffffffff163314620004e9576040517f08c379a00000000000000000000000000000000000000000000000000000000081526004016200044590620011fa565b606481111562000527576040517f08c379a000000000000000000000000000000000000000000000000000000000815260040162000445906200118c565b600255565b60025481565b60065473ffffffffffffffffffffffffffffffffffffffff16331462000586576040517f08c379a00000000000000000000000000000000000000000000000000000000081526004016200044590620011fa565b600680547fffffffffffffffffffffffff00000000000000000000000000000000000000001673ffffffffffffffffffffffffffffffffffffffff92909216919091179055565b60085490565b604051620005e46020820162000eb5565b7fffffffffffffffffffffffffffffffffffffffffffffffffffffffffffffffe082820381018352601f90910116604081905262000626919060200162001029565b6040516020818303038152906040528051906020012081565b60045473ffffffffffffffffffffffffffffffffffffffff16331462000693576040517f08c379a00000000000000000000000000000000000000000000000000000000081526004016200044590620011fa565b600154600090620006a690600a62000e4d565b905080821115620006e5576040517f08c379a00000000000000000000000000000000000000000000000000000000081526004016200044590620011c3565b50600055565b60065473ffffffffffffffffffffffffffffffffffffffff1681565b60055473ffffffffffffffffffffffffffffffffffffffff1681565b60045473ffffffffffffffffffffffffffffffffffffffff16331462000777576040517f08c379a00000000000000000000000000000000000000000000000000000000081526004016200044590620011fa565b6103e7811115620007b6576040517f08c379a00000000000000000000000000000000000000000000000000000000081526004016200044590620011c3565b600155565b60045473ffffffffffffffffffffffffffffffffffffffff1633146200080f576040517f08c379a00000000000000000000000000000000000000000000000000000000081526004016200044590620011fa565b600480547fffffffffffffffffffffffff00000000000000000000000000000000000000001673ffffffffffffffffffffffffffffffffffffffff92909216919091179055565b60005481565b60065474010000000000000000000000000000000000000000900460ff1681565b60008173ffffffffffffffffffffffffffffffffffffffff168373ffffffffffffffffffffffffffffffffffffffff161415620008e8576040517f08c379a000000000000000000000000000000000000000000000000000000000815260040162000445906200111e565b6000808373ffffffffffffffffffffffffffffffffffffffff168573ffffffffffffffffffffffffffffffffffffffff1610620009275783856200092a565b84845b909250905073ffffffffffffffffffffffffffffffffffffffff82166200097f576040517f08c379a0000000000000000000000000000000000000000000000000000000008152600401620004459062001231565b73ffffffffffffffffffffffffffffffffffffffff828116600090815260076020908152604080832085851684529091529020541615620009ee576040517f08c379a0000000000000000000000000000000000000000000000000000000008152600401620004459062001155565b60006040518060200162000a029062000eb5565b6020820181038252601f19601f8201166040525090506000838360405160200162000a2f92919062000fef565b604051602081830303815290604052805190602001209050808251602084016000f56040517f485cc95500000000000000000000000000000000000000000000000000000000815290955073ffffffffffffffffffffffffffffffffffffffff86169063485cc9559062000aaa908790879060040162001086565b600060405180830381600087803b15801562000ac557600080fd5b505af115801562000ada573d6000803e3d6000fd5b5050505073ffffffffffffffffffffffffffffffffffffffff84811660008181526007602081815260408084208987168086529083528185208054978d167fffffffffffffffffffffffff00000000000000000000000000000000000000009889168117909155938352818520868652909252808420805487168417905560088054600181018255948190527ff3f7a9fe364faab93b216da50a3214154f22a0a2b415b23a84c8169e8b636ee39094018054909616909217909455905490517f0d3648bd0f6ba80134a33ba9275ac585d9d315f0ad8355cddefde31afa28d0e99162000bc9918a9190620010ad565b60405180910390a35050505092915050565b600760209081526000928352604080842090915290825290205473ffffffffffffffffffffffffffffffffffffffff1681565b62000c1862000ec3565b604080516101208101825260005481526001546020808301919091526002548284015260035473ffffffffffffffffffffffffffffffffffffffff908116606084015260045481166080840152600554811660a084015260065490811660c084015274010000000000000000000000000000000000000000900460ff16151560e0830152915190916101008301919062000cb490820162000eb5565b7fffffffffffffffffffffffffffffffffffffffffffffffffffffffffffffffe082820381018352601f90910116604081905262000cf6919060200162001029565b60405160208183030381529060405280519060200120815250905090565b60045473ffffffffffffffffffffffffffffffffffffffff16331462000d68576040517f08c379a00000000000000000000000000000000000000000000000000000000081526004016200044590620011fa565b6006805491151574010000000000000000000000000000000000000000027fffffffffffffffffffffff00ffffffffffffffffffffffffffffffffffffffff909216919091179055565b60045473ffffffffffffffffffffffffffffffffffffffff16331462000e06576040517f08c379a00000000000000000000000000000000000000000000000000000000081526004016200044590620011fa565b600380547fffffffffffffffffffffffff00000000000000000000000000000000000000001673ffffffffffffffffffffffffffffffffffffffff92909216919091179055565b600081158062000e765750828262000e66818362001346565b925062000e7490836200130c565b145b62000eaf576040517f08c379a00000000000000000000000000000000000000000000000000000000081526004016200044590620010e7565b92915050565b61357580620013aa83390190565b6040805161012081018252600080825260208201819052918101829052606081018290526080810182905260a0810182905260c0810182905260e0810182905261010081019190915290565b803573ffffffffffffffffffffffffffffffffffffffff8116811462000f3457600080fd5b919050565b60006020828403121562000f4b578081fd5b62000f568262000f0f565b9392505050565b6000806040838503121562000f70578081fd5b62000f7b8362000f0f565b915062000f8b6020840162000f0f565b90509250929050565b60006020828403121562000fa6578081fd5b8135801515811462000f56578182fd5b60006020828403121562000fc8578081fd5b5035919050565b73ffffffffffffffffffffffffffffffffffffffff169052565b15159052565b7fffffffffffffffffffffffffffffffffffffffff000000000000000000000000606093841b811682529190921b16601482015260280190565b60008251815b818110156200104b57602081860181015185830152016200102f565b818111156200105a5782828501525b509190910192915050565b73ffffffffffffffffffffffffffffffffffffffff91909116815260200190565b73ffffffffffffffffffffffffffffffffffffffff92831681529116602082015260400190565b73ffffffffffffffffffffffffffffffffffffffff929092168252602082015260400190565b901515815260200190565b90815260200190565b60208082526014908201527f64732d6d6174682d6d756c2d6f766572666c6f77000000000000000000000000604082015260600190565b6020808252601c908201527f466163746f72793a204944454e544943414c5f41444452455353455300000000604082015260600190565b60208082526014908201527f466163746f72793a20504149525f455849535453000000000000000000000000604082015260600190565b60208082526019908201527f466163746f72793a2057524f4e475f50455243454e5441474500000000000000604082015260600190565b60208082526016908201527f466163746f72793a20464f5242494444454e5f46454500000000000000000000604082015260600190565b60208082526012908201527f466163746f72793a20464f5242494444454e0000000000000000000000000000604082015260600190565b60208082526015908201527f466163746f72793a205a45524f5f414444524553530000000000000000000000604082015260600190565b60006101208201905082518252602083015160208301526040830151604083015273ffffffffffffffffffffffffffffffffffffffff60608401511660608301526080830151620012bd608084018262000fcf565b5060a0830151620012d260a084018262000fcf565b5060c0830151620012e760c084018262000fcf565b5060e0830151620012fc60e084018262000fe9565b5061010092830151919092015290565b60008262001341577f4e487b710000000000000000000000000000000000000000000000000000000081526012600452602481fd5b500490565b6000817fffffffffffffffffffffffffffffffffffffffffffffffffffffffffffffffff0483118215151615620013a4577f4e487b710000000000000000000000000000000000000000000000000000000081526011600452602481fd5b50029056fe60806040526001600c553480156200001657600080fd5b50604080518082018252601481527f4c69717569646974792d506f6f6c2d546f6b656e0000000000000000000000006020918201528151808301835260018152603160f81b9082015290514691620000d9917f8b73c3c69bb8fe3d512ecc4cf759cc79239f7b179b0ffacaa9a75d522b39400f917fee49096366cc590b73291b7aa9e5e091aa761dec637befae63796ffa4f337d4a917fc89efdaa54c0f20c7adf612882df0950f5a951637e0307cdcb4c672f298b8bc69186913091016200010d565b60408051601f19818403018152919052805160209091012060035550600580546001600160a01b0319163317905562000139565b9485526020850193909352604084019190915260608301526001600160a01b0316608082015260a00190565b61342c80620001496000396000f3fe608060405234801561001057600080fd5b50600436106101b95760003560e01c80636a627842116100f9578063ba9a7a5611610097578063d21220a711610071578063d21220a71461034d578063d505accf14610355578063dd62ed3e14610368578063fff6cae91461037b576101b9565b8063ba9a7a561461032a578063bc25cf7714610332578063c45a015514610345576101b9565b80637ecebe00116100d35780637ecebe00146102db57806389afcb44146102ee57806395d89b411461030f578063a9059cbb14610317576101b9565b80636a627842146102ad57806370a08231146102c05780637464fc3d146102d3576101b9565b806323b872dd116101665780633644e515116101405780633644e51514610282578063485cc9551461028a5780635909c0d51461029d5780635a3d5493146102a5576101b9565b806323b872dd1461025257806330adf81f14610265578063313ce5671461026d576101b9565b8063095ea7b311610197578063095ea7b3146102085780630dfe16811461022857806318160ddd1461023d576101b9565b8063022c0d9f146101be57806306fdde03146101d35780630902f1ac146101f1575b600080fd5b6101d16101cc366004612acd565b610383565b005b6101db610a83565b6040516101e89190612ce2565b60405180910390f35b6101f9610abc565b6040516101e89392919061316b565b61021b610216366004612a6a565b610b11565b6040516101e89190612c6f565b610230610b28565b6040516101e89190612bb0565b610245610b44565b6040516101e89190612c7a565b61021b6102603660046129b5565b610b4a565b610245610c23565b610275610c47565b6040516101e891906131c4565b610245610c4c565b6101d161029836600461297d565b610c52565b610245610cf6565b610245610cfc565b6102456102bb366004612945565b610d02565b6102456102ce366004612945565b611071565b610245611083565b6102456102e9366004612945565b611089565b6103016102fc366004612945565b61109b565b6040516101e892919061319b565b6101db6114f4565b61021b610325366004612a6a565b61152d565b61024561153a565b6101d1610340366004612945565b611540565b6102306116cf565b6102306116eb565b6101d16103633660046129f5565b611707565b61024561037636600461297d565b611908565b6101d1611925565b600c546001146103c8576040517f08c379a00000000000000000000000000000000000000000000000000000000081526004016103bf90612dfe565b60405180910390fd5b6000600c55841515806103db5750600084115b610411576040517f08c379a00000000000000000000000000000000000000000000000000000000081526004016103bf906130a7565b60008061041c610abc565b5091509150816dffffffffffffffffffffffffffff168710801561044f5750806dffffffffffffffffffffffffffff1686105b610485576040517f08c379a00000000000000000000000000000000000000000000000000000000081526004016103bf906130dc565b600654600754600091829173ffffffffffffffffffffffffffffffffffffffff9182169190811690891682148015906104ea57508073ffffffffffffffffffffffffffffffffffffffff168973ffffffffffffffffffffffffffffffffffffffff1614155b610520576040517f08c379a00000000000000000000000000000000000000000000000000000000081526004016103bf90612fa5565b8a1561053157610531828a8d611ae9565b891561054257610542818a8c611ae9565b86156105d5576040517f10d1e85c00000000000000000000000000000000000000000000000000000000815273ffffffffffffffffffffffffffffffffffffffff8a16906310d1e85c906105a29033908f908f908e908e90600401612bf7565b600060405180830381600087803b1580156105bc57600080fd5b505af11580156105d0573d6000803e3d6000fd5b505050505b6040517f70a0823100000000000000000000000000000000000000000000000000000000815273ffffffffffffffffffffffffffffffffffffffff8316906370a0823190610627903090600401612bb0565b60206040518083038186803b15801561063f57600080fd5b505afa158015610653573d6000803e3d6000fd5b505050506040513d601f19601f820116820180604052508101906106779190612ab5565b6040517f70a0823100000000000000000000000000000000000000000000000000000000815290945073ffffffffffffffffffffffffffffffffffffffff8216906370a08231906106cc903090600401612bb0565b60206040518083038186803b1580156106e457600080fd5b505afa1580156106f8573d6000803e3d6000fd5b505050506040513d601f19601f8201168201806040525081019061071c9190612ab5565b92505050600089856dffffffffffffffffffffffffffff1661073e91906132ba565b831161074b57600061076f565b6107658a6dffffffffffffffffffffffffffff87166132ba565b61076f90846132ba565b9050600061078d8a6dffffffffffffffffffffffffffff87166132ba565b831161079a5760006107be565b6107b48a6dffffffffffffffffffffffffffff87166132ba565b6107be90846132ba565b905060008211806107cf5750600081115b610805576040517f08c379a00000000000000000000000000000000000000000000000000000000081526004016103bf90613039565b600554604080517f1036bbe2000000000000000000000000000000000000000000000000000000008152905160009273ffffffffffffffffffffffffffffffffffffffff1691631036bbe2916004808301926020929190829003018186803b15801561087057600080fd5b505afa158015610884573d6000803e3d6000fd5b505050506040513d601f19601f820116820180604052508101906108a89190612ab5565b90506000600560009054906101000a900473ffffffffffffffffffffffffffffffffffffffff1673ffffffffffffffffffffffffffffffffffffffff16631df4ccfc6040518163ffffffff1660e01b815260040160206040518083038186803b15801561091457600080fd5b505afa158015610928573d6000803e3d6000fd5b505050506040513d601f19601f8201168201806040525081019061094c9190612ab5565b9050600061096d61095d8684611c9f565b6109678986611c9f565b90611cf9565b9050600061098861097e8685611c9f565b6109678987611c9f565b90506109b4620f42406109ae6dffffffffffffffffffffffffffff8d8116908d16611c9f565b90611c9f565b6109be8383611c9f565b10156109f6576040517f08c379a00000000000000000000000000000000000000000000000000000000081526004016103bf90613070565b50505050610a0684848888611d41565b8873ffffffffffffffffffffffffffffffffffffffff163373ffffffffffffffffffffffffffffffffffffffff167fd78ad95fa46c994b6551d0da85fc275fe613ce37657fb8d5e3d130840159d82284848f8f604051610a6994939291906131a9565b60405180910390a350506001600c55505050505050505050565b6040518060400160405280601481526020017f4c69717569646974792d506f6f6c2d546f6b656e00000000000000000000000081525081565b6008546dffffffffffffffffffffffffffff808216926e0100000000000000000000000000008304909116917c0100000000000000000000000000000000000000000000000000000000900463ffffffff1690565b6000610b1e338484612004565b5060015b92915050565b60065473ffffffffffffffffffffffffffffffffffffffff1681565b60005481565b73ffffffffffffffffffffffffffffffffffffffff831660009081526002602090815260408083203384529091528120547fffffffffffffffffffffffffffffffffffffffffffffffffffffffffffffffff14610c0e5773ffffffffffffffffffffffffffffffffffffffff84166000908152600260209081526040808320338452909152902054610bdc9083611cf9565b73ffffffffffffffffffffffffffffffffffffffff851660009081526002602090815260408083203384529091529020555b610c19848484612079565b5060019392505050565b7f6e71edae12b1b97f4d1f60370fef10105fa2faae0126114a169c64845d6126c981565b601281565b60035481565b60055473ffffffffffffffffffffffffffffffffffffffff163314610ca3576040517f08c379a00000000000000000000000000000000000000000000000000000000081526004016103bf90612f00565b6006805473ffffffffffffffffffffffffffffffffffffffff9384167fffffffffffffffffffffffff00000000000000000000000000000000000000009182161790915560078054929093169116179055565b60095481565b600a5481565b6000600c54600114610d40576040517f08c379a00000000000000000000000000000000000000000000000000000000081526004016103bf90612dfe565b6000600c81905580610d50610abc565b506006546040517f70a0823100000000000000000000000000000000000000000000000000000000815292945090925060009173ffffffffffffffffffffffffffffffffffffffff909116906370a0823190610db0903090600401612bb0565b60206040518083038186803b158015610dc857600080fd5b505afa158015610ddc573d6000803e3d6000fd5b505050506040513d601f19601f82011682018060405250810190610e009190612ab5565b6007546040517f70a0823100000000000000000000000000000000000000000000000000000000815291925060009173ffffffffffffffffffffffffffffffffffffffff909116906370a0823190610e5c903090600401612bb0565b60206040518083038186803b158015610e7457600080fd5b505afa158015610e88573d6000803e3d6000fd5b505050506040513d601f19601f82011682018060405250810190610eac9190612ab5565b90506000610eca836dffffffffffffffffffffffffffff8716611cf9565b90506000610ee8836dffffffffffffffffffffffffffff8716611cf9565b90506000610ef68787612144565b60005490915080610f2d57610f196103e8610967610f148787611c9f565b6126d6565b9850610f2860006103e8612746565b610f82565b610f7f6dffffffffffffffffffffffffffff8916610f4b8684611c9f565b610f559190613225565b6dffffffffffffffffffffffffffff8916610f708685611c9f565b610f7a9190613225565b6127ed565b98505b60008911610fbc576040517f08c379a00000000000000000000000000000000000000000000000000000000081526004016103bf90612d33565b610fc68a8a612746565b610fd286868a8a611d41565b811561100e5760085461100a906dffffffffffffffffffffffffffff808216916e010000000000000000000000000000900416611c9f565b600b555b3373ffffffffffffffffffffffffffffffffffffffff167f4c209b5fc8ad50758f13e2e1088ba56a560dff690a1c6fef26394f4c03821c4f858560405161105692919061319b565b60405180910390a250506001600c5550949695505050505050565b60016020526000908152604090205481565b600b5481565b60046020526000908152604090205481565b600080600c546001146110da576040517f08c379a00000000000000000000000000000000000000000000000000000000081526004016103bf90612dfe565b6000600c819055806110ea610abc565b506006546007546040517f70a0823100000000000000000000000000000000000000000000000000000000815293955091935073ffffffffffffffffffffffffffffffffffffffff9081169291169060009083906370a0823190611152903090600401612bb0565b60206040518083038186803b15801561116a57600080fd5b505afa15801561117e573d6000803e3d6000fd5b505050506040513d601f19601f820116820180604052508101906111a29190612ab5565b905060008273ffffffffffffffffffffffffffffffffffffffff166370a08231306040518263ffffffff1660e01b81526004016111df9190612bb0565b60206040518083038186803b1580156111f757600080fd5b505afa15801561120b573d6000803e3d6000fd5b505050506040513d601f19601f8201168201806040525081019061122f9190612ab5565b3060009081526001602052604081205491925061124c8888612144565b6000549091508061125d8487611c9f565b6112679190613225565b9a50806112748486611c9f565b61127e9190613225565b995060008b118015611290575060008a115b6112c6576040517f08c379a00000000000000000000000000000000000000000000000000000000081526004016103bf90612ea3565b6112d03084612805565b6112db878d8d611ae9565b6112e6868d8c611ae9565b6040517f70a0823100000000000000000000000000000000000000000000000000000000815273ffffffffffffffffffffffffffffffffffffffff8816906370a0823190611338903090600401612bb0565b60206040518083038186803b15801561135057600080fd5b505afa158015611364573d6000803e3d6000fd5b505050506040513d601f19601f820116820180604052508101906113889190612ab5565b6040517f70a0823100000000000000000000000000000000000000000000000000000000815290955073ffffffffffffffffffffffffffffffffffffffff8716906370a08231906113dd903090600401612bb0565b60206040518083038186803b1580156113f557600080fd5b505afa158015611409573d6000803e3d6000fd5b505050506040513d601f19601f8201168201806040525081019061142d9190612ab5565b935061143b85858b8b611d41565b811561147757600854611473906dffffffffffffffffffffffffffff808216916e010000000000000000000000000000900416611c9f565b600b555b8b73ffffffffffffffffffffffffffffffffffffffff163373ffffffffffffffffffffffffffffffffffffffff167fdccd412f0b1252819cb1fd330b93224ca42612892bb3f4f789976e6d819364968d8d6040516114d692919061319b565b60405180910390a35050505050505050506001600c81905550915091565b6040518060400160405280600881526020017f4c502d544f4b454e00000000000000000000000000000000000000000000000081525081565b6000610b1e338484612079565b6103e881565b600c5460011461157c576040517f08c379a00000000000000000000000000000000000000000000000000000000081526004016103bf90612dfe565b6000600c556006546007546008546040517f70a0823100000000000000000000000000000000000000000000000000000000815273ffffffffffffffffffffffffffffffffffffffff93841693909216916116579184918691611652916dffffffffffffffffffffffffffff9091169084906370a0823190611602903090600401612bb0565b60206040518083038186803b15801561161a57600080fd5b505afa15801561162e573d6000803e3d6000fd5b505050506040513d601f19601f820116820180604052508101906109679190612ab5565b611ae9565b6116c581846116526008600e9054906101000a90046dffffffffffffffffffffffffffff166dffffffffffffffffffffffffffff168573ffffffffffffffffffffffffffffffffffffffff166370a08231306040518263ffffffff1660e01b81526004016116029190612bb0565b50506001600c5550565b60055473ffffffffffffffffffffffffffffffffffffffff1681565b60075473ffffffffffffffffffffffffffffffffffffffff1681565b42841015611741576040517f08c379a00000000000000000000000000000000000000000000000000000000081526004016103bf90612f37565b60035473ffffffffffffffffffffffffffffffffffffffff8816600090815260046020526040812080549192917f6e71edae12b1b97f4d1f60370fef10105fa2faae0126114a169c64845d6126c9918b918b918b9190876117a183613326565b919050558a6040516020016117bb96959493929190612c83565b604051602081830303815290604052805190602001206040516020016117e2929190612b7a565b60405160208183030381529060405280519060200120905060006001828686866040516000815260200160405260405161181f9493929190612cc4565b6020604051602081039080840390855afa158015611841573d6000803e3d6000fd5b50506040517fffffffffffffffffffffffffffffffffffffffffffffffffffffffffffffffe0015191505073ffffffffffffffffffffffffffffffffffffffff8116158015906118bc57508873ffffffffffffffffffffffffffffffffffffffff168173ffffffffffffffffffffffffffffffffffffffff16145b6118f2576040517f08c379a00000000000000000000000000000000000000000000000000000000081526004016103bf90612dc7565b6118fd898989612004565b505050505050505050565b600260209081526000928352604080842090915290825290205481565b600c54600114611961576040517f08c379a00000000000000000000000000000000000000000000000000000000081526004016103bf90612dfe565b6000600c556006546040517f70a08231000000000000000000000000000000000000000000000000000000008152611ae29173ffffffffffffffffffffffffffffffffffffffff16906370a08231906119be903090600401612bb0565b60206040518083038186803b1580156119d657600080fd5b505afa1580156119ea573d6000803e3d6000fd5b505050506040513d601f19601f82011682018060405250810190611a0e9190612ab5565b6007546040517f70a0823100000000000000000000000000000000000000000000000000000000815273ffffffffffffffffffffffffffffffffffffffff909116906370a0823190611a64903090600401612bb0565b60206040518083038186803b158015611a7c57600080fd5b505afa158015611a90573d6000803e3d6000fd5b505050506040513d601f19601f82011682018060405250810190611ab49190612ab5565b6008546dffffffffffffffffffffffffffff808216916e010000000000000000000000000000900416611d41565b6001600c55565b604080518082018252601981527f7472616e7366657228616464726573732c75696e74323536290000000000000060209091015251600090819073ffffffffffffffffffffffffffffffffffffffff8616907fa9059cbb2ab09eb219583f4a59a5d0623ade346d962bcd4e46b11da047c9049b90611b6d9087908790602401612bd1565b604080517fffffffffffffffffffffffffffffffffffffffffffffffffffffffffffffffe08184030181529181526020820180517bffffffffffffffffffffffffffffffffffffffffffffffffffffffff167fffffffff00000000000000000000000000000000000000000000000000000000909416939093179092529051611bf69190612b5e565b6000604051808303816000865af19150503d8060008114611c33576040519150601f19603f3d011682016040523d82523d6000602084013e611c38565b606091505b5091509150818015611c62575080511580611c62575080806020019051810190611c629190612a95565b611c98576040517f08c379a00000000000000000000000000000000000000000000000000000000081526004016103bf90613113565b5050505050565b6000811580611cc357508282611cb5818361327d565b9250611cc19083613225565b145b610b22576040517f08c379a00000000000000000000000000000000000000000000000000000000081526004016103bf90612e6c565b600082611d0683826132ba565b9150811115610b22576040517f08c379a00000000000000000000000000000000000000000000000000000000081526004016103bf90612d90565b6dffffffffffffffffffffffffffff8411801590611d6d57506dffffffffffffffffffffffffffff8311155b611da3576040517f08c379a00000000000000000000000000000000000000000000000000000000081526004016103bf90612e35565b6000611db46401000000004261335f565b600854909150600090611ded907c0100000000000000000000000000000000000000000000000000000000900463ffffffff16836132d1565b905060008163ffffffff16118015611e1457506dffffffffffffffffffffffffffff841615155b8015611e2f57506dffffffffffffffffffffffffffff831615155b15611efd578063ffffffff16611e6c85611e48866128b6565b7bffffffffffffffffffffffffffffffffffffffffffffffffffffffff16906128e1565b7bffffffffffffffffffffffffffffffffffffffffffffffffffffffff16611e94919061327d565b60096000828254611ea591906131d2565b909155505063ffffffff8116611ebe84611e48876128b6565b7bffffffffffffffffffffffffffffffffffffffffffffffffffffffff16611ee6919061327d565b600a6000828254611ef791906131d2565b90915550505b600880547fffffffffffffffffffffffffffffffffffff0000000000000000000000000000166dffffffffffffffffffffffffffff888116919091177fffffffff0000000000000000000000000000ffffffffffffffffffffffffffff166e0100000000000000000000000000008883168102919091177bffffffffffffffffffffffffffffffffffffffffffffffffffffffff167c010000000000000000000000000000000000000000000000000000000063ffffffff87160217928390556040517f1c411e9a96e071241c2f21f7726b17ae89e3cab4c78be50e062b03a9fffbbad193611ff49381811693909104169061314a565b60405180910390a1505050505050565b73ffffffffffffffffffffffffffffffffffffffff80841660008181526002602090815260408083209487168084529490915290819020849055517f8c5be1e5ebec7d5bd14f71427d1e84f3dd0314c0f7b2291e5b200ac8c7c3b9259061206c908590612c7a565b60405180910390a3505050565b73ffffffffffffffffffffffffffffffffffffffff83166000908152600160205260409020546120a99082611cf9565b73ffffffffffffffffffffffffffffffffffffffff80851660009081526001602052604080822093909355908416815220546120e590826128fd565b73ffffffffffffffffffffffffffffffffffffffff80841660008181526001602052604090819020939093559151908516907fddf252ad1be2c89b69c2b068fc378daa952ba7f163c4a11628f55a4df523b3ef9061206c908590612c7a565b600080600560009054906101000a900473ffffffffffffffffffffffffffffffffffffffff1673ffffffffffffffffffffffffffffffffffffffff1663017e7e586040518163ffffffff1660e01b815260040160206040518083038186803b1580156121af57600080fd5b505afa1580156121c3573d6000803e3d6000fd5b505050506040513d601f19601f820116820180604052508101906121e79190612961565b90506000600560009054906101000a900473ffffffffffffffffffffffffffffffffffffffff1673ffffffffffffffffffffffffffffffffffffffff16638db07c4d6040518163ffffffff1660e01b815260040160206040518083038186803b15801561225357600080fd5b505afa158015612267573d6000803e3d6000fd5b505050506040513d601f19601f8201168201806040525081019061228b9190612961565b90506000600560009054906101000a900473ffffffffffffffffffffffffffffffffffffffff1673ffffffffffffffffffffffffffffffffffffffff16633f64a7ab6040518163ffffffff1660e01b815260040160206040518083038186803b1580156122f757600080fd5b505afa15801561230b573d6000803e3d6000fd5b505050506040513d601f19601f8201168201806040525081019061232f9190612ab5565b90506000600560009054906101000a900473ffffffffffffffffffffffffffffffffffffffff1673ffffffffffffffffffffffffffffffffffffffff16631df4ccfc6040518163ffffffff1660e01b815260040160206040518083038186803b15801561239b57600080fd5b505afa1580156123af573d6000803e3d6000fd5b505050506040513d601f19601f820116820180604052508101906123d39190612ab5565b90506000600560009054906101000a900473ffffffffffffffffffffffffffffffffffffffff1673ffffffffffffffffffffffffffffffffffffffff1663b0e21e8a6040518163ffffffff1660e01b815260040160206040518083038186803b15801561243f57600080fd5b505afa158015612453573d6000803e3d6000fd5b505050506040513d601f19601f820116820180604052508101906124779190612ab5565b90506000600b5490506000600560009054906101000a900473ffffffffffffffffffffffffffffffffffffffff1673ffffffffffffffffffffffffffffffffffffffff1663b8ff50386040518163ffffffff1660e01b815260040160206040518083038186803b1580156124ea57600080fd5b505afa1580156124fe573d6000803e3d6000fd5b505050506040513d601f19601f820116820180604052508101906125229190612a95565b9050600084118015612549575073ffffffffffffffffffffffffffffffffffffffff871615155b80156125555750600083115b975087156126bd5781156126b8576000612585610f146dffffffffffffffffffffffffffff8d8116908d16611c9f565b90506000612592846126d6565b9050808211156126b55760006125b46125ab8484611cf9565b60005490611c9f565b90506000846125d6576125d1836125cb868a611c9f565b906128fd565b6125e0565b6125e084846128fd565b905060006125ee8284613225565b905080156126b157891580612617575073ffffffffffffffffffffffffffffffffffffffff8b16155b1561262b576126268c82612746565b6126b1565b6000612638606483613225565b90506000612646828d611c9f565b905060006126548483611cf9565b90508361266182846128fd565b1115612699576040517f08c379a00000000000000000000000000000000000000000000000000000000081526004016103bf90612fdc565b6126a38f82612746565b6126ad8e83612746565b5050505b5050505b50505b6126c9565b81156126c9576000600b555b5050505050505092915050565b6000600382111561273757508060006126f0600283613225565b6126fb9060016131d2565b90505b81811015612731579050806002816127168186613225565b61272091906131d2565b61272a9190613225565b90506126fe565b50612741565b8115612741575060015b919050565b60005461275390826128fd565b600090815573ffffffffffffffffffffffffffffffffffffffff831681526001602052604090205461278590826128fd565b73ffffffffffffffffffffffffffffffffffffffff83166000818152600160205260408082209390935591519091907fddf252ad1be2c89b69c2b068fc378daa952ba7f163c4a11628f55a4df523b3ef906127e1908590612c7a565b60405180910390a35050565b60008183106127fc57816127fe565b825b9392505050565b73ffffffffffffffffffffffffffffffffffffffff82166000908152600160205260409020546128359082611cf9565b73ffffffffffffffffffffffffffffffffffffffff8316600090815260016020526040812091909155546128699082611cf9565b600090815560405173ffffffffffffffffffffffffffffffffffffffff8416907fddf252ad1be2c89b69c2b068fc378daa952ba7f163c4a11628f55a4df523b3ef906127e1908590612c7a565b6000610b226e0100000000000000000000000000006dffffffffffffffffffffffffffff8416613239565b60006127fe6dffffffffffffffffffffffffffff8316846131ea565b60008261290a83826131d2565b9150811015610b22576040517f08c379a00000000000000000000000000000000000000000000000000000000081526004016103bf90612f6e565b600060208284031215612956578081fd5b81356127fe816133d1565b600060208284031215612972578081fd5b81516127fe816133d1565b6000806040838503121561298f578081fd5b823561299a816133d1565b915060208301356129aa816133d1565b809150509250929050565b6000806000606084860312156129c9578081fd5b83356129d4816133d1565b925060208401356129e4816133d1565b929592945050506040919091013590565b600080600080600080600060e0888a031215612a0f578283fd5b8735612a1a816133d1565b96506020880135612a2a816133d1565b95506040880135945060608801359350608088013560ff81168114612a4d578384fd5b9699959850939692959460a0840135945060c09093013592915050565b60008060408385031215612a7c578182fd5b8235612a87816133d1565b946020939093013593505050565b600060208284031215612aa6578081fd5b815180151581146127fe578182fd5b600060208284031215612ac6578081fd5b5051919050565b600080600080600060808688031215612ae4578081fd5b85359450602086013593506040860135612afd816133d1565b9250606086013567ffffffffffffffff80821115612b19578283fd5b818801915088601f830112612b2c578283fd5b813581811115612b3a578384fd5b896020828501011115612b4b578384fd5b9699959850939650602001949392505050565b60008251612b708184602087016132f6565b9190910192915050565b7f190100000000000000000000000000000000000000000000000000000000000081526002810192909252602282015260420190565b73ffffffffffffffffffffffffffffffffffffffff91909116815260200190565b73ffffffffffffffffffffffffffffffffffffffff929092168252602082015260400190565b600073ffffffffffffffffffffffffffffffffffffffff8716825285602083015284604083015260806060830152826080830152828460a084013781830160a090810191909152601f9092017fffffffffffffffffffffffffffffffffffffffffffffffffffffffffffffffe0160101949350505050565b901515815260200190565b90815260200190565b95865273ffffffffffffffffffffffffffffffffffffffff94851660208701529290931660408501526060840152608083019190915260a082015260c00190565b93845260ff9290921660208401526040830152606082015260800190565b6000602082528251806020840152612d018160408501602087016132f6565b601f017fffffffffffffffffffffffffffffffffffffffffffffffffffffffffffffffe0169190910160400192915050565b60208082526023908201527f506169723a20494e53554646494349454e545f4c49515549444954595f4d494e60408201527f5445440000000000000000000000000000000000000000000000000000000000606082015260800190565b60208082526015908201527f64732d6d6174682d7375622d756e646572666c6f770000000000000000000000604082015260600190565b60208082526018908201527f45524332303a20494e56414c49445f5349474e41545552450000000000000000604082015260600190565b6020808252600c908201527f537761703a204c4f434b45440000000000000000000000000000000000000000604082015260600190565b6020808252600e908201527f506169723a204f564552464c4f57000000000000000000000000000000000000604082015260600190565b60208082526014908201527f64732d6d6174682d6d756c2d6f766572666c6f77000000000000000000000000604082015260600190565b60208082526023908201527f506169723a20494e53554646494349454e545f4c49515549444954595f42555260408201527f4e45440000000000000000000000000000000000000000000000000000000000606082015260800190565b6020808252600f908201527f506169723a20464f5242494444454e0000000000000000000000000000000000604082015260600190565b6020808252600e908201527f45524332303a2045585049524544000000000000000000000000000000000000604082015260600190565b60208082526014908201527f64732d6d6174682d6164642d6f766572666c6f77000000000000000000000000604082015260600190565b60208082526010908201527f506169723a20494e56414c49445f544f00000000000000000000000000000000604082015260600190565b60208082526025908201527f506169723a20494e53554646494349454e545f50524f544f434f4c5f4c49515560408201527f4944495459000000000000000000000000000000000000000000000000000000606082015260800190565b6020808252601f908201527f506169723a20494e53554646494349454e545f494e5055545f414d4f554e5400604082015260600190565b60208082526007908201527f506169723a204b00000000000000000000000000000000000000000000000000604082015260600190565b6020808252818101527f506169723a20494e53554646494349454e545f4f55545055545f414d4f554e54604082015260600190565b6020808252601c908201527f506169723a20494e53554646494349454e545f4c495155494449545900000000604082015260600190565b60208082526015908201527f506169723a205452414e534645525f4641494c45440000000000000000000000604082015260600190565b6dffffffffffffffffffffffffffff92831681529116602082015260400190565b6dffffffffffffffffffffffffffff938416815291909216602082015263ffffffff909116604082015260600190565b918252602082015260400190565b93845260208401929092526040830152606082015260800190565b60ff91909116815260200190565b600082198211156131e5576131e5613373565b500190565b60007bffffffffffffffffffffffffffffffffffffffffffffffffffffffff80841680613219576132196133a2565b92169190910492915050565b600082613234576132346133a2565b500490565b60007bffffffffffffffffffffffffffffffffffffffffffffffffffffffff8083168185168183048111821515161561327457613274613373565b02949350505050565b6000817fffffffffffffffffffffffffffffffffffffffffffffffffffffffffffffffff04831182151516156132b5576132b5613373565b500290565b6000828210156132cc576132cc613373565b500390565b600063ffffffff838116908316818110156132ee576132ee613373565b039392505050565b60005b838110156133115781810151838201526020016132f9565b83811115613320576000848401525b50505050565b60007fffffffffffffffffffffffffffffffffffffffffffffffffffffffffffffffff82141561335857613358613373565b5060010190565b60008261336e5761336e6133a2565b500690565b7f4e487b7100000000000000000000000000000000000000000000000000000000600052601160045260246000fd5b7f4e487b7100000000000000000000000000000000000000000000000000000000600052601260045260246000fd5b73ffffffffffffffffffffffffffffffffffffffff811681146133f357600080fd5b5056fea2646970667358221220617556e3f80e248551b493813957ee984525542046ad9532afe0b2c20501aa6d64736f6c63430008000033a26469706673582212200cc40d447eb6ab3d32014dd8acf31a4cc099bd0b0d7dae10e70bb26eb0bf421664736f6c63430008000033","immutableReferences":{},"source":"// SPDX-License-Identifier: MIT\npragma solidity ^0.8.0;\n\nimport './interfaces/IFactory.sol';\nimport './Pair.sol';\n\ncontract Factory is IFactory {\n    using SafeMath for uint;\n\n    uint public override constant MAX_PERCENT = 1000;\n    uint public override protocolFee;\n    uint public override totalFee;\n    uint public override devFeePercent;\n    address public override feeTo;\n    address public override feeToSetter;\n    address public override devFeeTo;\n    address public override devFeeSetter;\n    bool public override allFeeToProtocol;\n    bytes32 public constant INIT_CODE_PAIR_HASH = keccak256(abi.encodePacked(type(Pair).creationCode));\n\n    mapping(address => mapping(address => address)) public override getPair;\n    address[] public override allPairs;\n\n    modifier onlyOwner() {\n        require(msg.sender == feeToSetter, 'Factory: FORBIDDEN');\n        _;\n    }\n\n    constructor(address _feeToSetter) {\n        feeToSetter = _feeToSetter;\n        protocolFee = 5; \n        totalFee = 3;\n        devFeePercent = 20;\n        devFeeTo = 0x4086a2CAe8d3FcCd94D1172006516C7d0794C7Ee;\n        devFeeSetter = 0x4086a2CAe8d3FcCd94D1172006516C7d0794C7Ee;\n    }\n\n    function allPairsLength() external override view returns (uint) {\n        return allPairs.length;\n    }\n\n    function allInfo() external view override returns(AllInfo memory) {\n        return AllInfo({\n            protocolFee: protocolFee,\n            totalFee: totalFee,\n            devFeePercent: devFeePercent,\n            feeTo: feeTo,\n            feeToSetter: feeToSetter,\n            devFeeTo: devFeeTo,\n            devFeeSetter: devFeeSetter,\n            allFeeToProtocol: allFeeToProtocol,\n            INIT_CODE_PAIR_HASH: INIT_CODE_PAIR_HASH\n        });\n    }\n\n    function createPair(address tokenA, address tokenB) external override returns (address pair) {\n        require(tokenA != tokenB, 'Factory: IDENTICAL_ADDRESSES');\n        (address token0, address token1) = tokenA < tokenB ? (tokenA, tokenB) : (tokenB, tokenA);\n        require(token0 != address(0), 'Factory: ZERO_ADDRESS');\n        require(getPair[token0][token1] == address(0), 'Factory: PAIR_EXISTS'); // single check is sufficient\n        bytes memory bytecode = type(Pair).creationCode;\n        bytes32 salt = keccak256(abi.encodePacked(token0, token1));\n        assembly {\n            pair := create2(0, add(bytecode, 32), mload(bytecode), salt)\n        }\n        IUniswapV2Pair(pair).initialize(token0, token1);\n        getPair[token0][token1] = pair;\n        getPair[token1][token0] = pair; // populate mapping in the reverse direction\n        allPairs.push(pair);\n        emit PairCreated(token0, token1, pair, allPairs.length);\n    }\n\n    function setDevFeePercent(uint _devFeePercent) external override {\n        require(msg.sender == devFeeSetter, 'Factory: FORBIDDEN');\n        require(_devFeePercent >= 0 && _devFeePercent <= 100, 'Factory: WRONG_PERCENTAGE');\n        devFeePercent = _devFeePercent;\n    }\n\n    function setFeeTo(address _feeTo) external override onlyOwner {\n        feeTo = _feeTo;\n    }\n\n    function setFeeToSetter(address _feeToSetter) external override onlyOwner {\n        feeToSetter = _feeToSetter;\n    }\n\n    function setDevFeeTo(address _devFeeTo) external override {\n        require(msg.sender == devFeeSetter, 'Factory: FORBIDDEN');\n        devFeeTo = _devFeeTo;\n    }\n\n    function setDevFeeSetter(address _devFeeToSetter) external override {\n        require(msg.sender == devFeeSetter, 'Factory: FORBIDDEN');\n        devFeeSetter = _devFeeToSetter;\n    }\n\n    function setAllFeeToProtocol(bool _allFeeToProtocol) external override onlyOwner {\n        allFeeToProtocol = _allFeeToProtocol;\n    }\n\n    function setProtocolFee(uint _protocolFee) external override onlyOwner {\n        uint totalFeeWithExtraDigitPlace = totalFee.mul(10);\n        require(_protocolFee >= 0 && _protocolFee <= totalFeeWithExtraDigitPlace, 'Factory: FORBIDDEN_FEE');\n        protocolFee = _protocolFee;\n    }\n\n    function setTotalFee(uint _totalFee) external override onlyOwner {\n        require(_totalFee >= 0 && _totalFee <= 999, 'Factory: FORBIDDEN_FEE');\n        totalFee = _totalFee;\n    }\n}\n","sourcePath":"/home/user/Github/UnifactoryContracts/contracts/Factory.sol","compiler":{"name":"solc","version":"0.8.0+commit.c7dfd78e.Emscripten.clang"},"schemaVersion":"3.4.4","updatedAt":"2022-01-10T16:19:09.828Z","devdoc":{"kind":"dev","methods":{},"version":1},"userdoc":{"kind":"user","methods":{},"version":1}}