{"contractName":"Factory","abi":[{"inputs":[{"internalType":"address","name":"_feeToSetter","type":"address"}],"stateMutability":"nonpayable","type":"constructor"},{"anonymous":false,"inputs":[{"indexed":true,"internalType":"address","name":"token0","type":"address"},{"indexed":true,"internalType":"address","name":"token1","type":"address"},{"indexed":false,"internalType":"address","name":"pair","type":"address"},{"indexed":false,"internalType":"uint256","name":"","type":"uint256"}],"name":"PairCreated","type":"event"},{"inputs":[],"name":"INIT_CODE_PAIR_HASH","outputs":[{"internalType":"bytes32","name":"","type":"bytes32"}],"stateMutability":"view","type":"function"},{"inputs":[],"name":"MAX_PROTOCOL_FEE_PERCENT","outputs":[{"internalType":"uint256","name":"","type":"uint256"}],"stateMutability":"view","type":"function"},{"inputs":[],"name":"MAX_TOTAL_FEE_PERCENT","outputs":[{"internalType":"uint256","name":"","type":"uint256"}],"stateMutability":"view","type":"function"},{"inputs":[{"internalType":"uint256","name":"","type":"uint256"}],"name":"POSSIBLE_PROTOCOL_PERCENT","outputs":[{"internalType":"uint256","name":"","type":"uint256"}],"stateMutability":"view","type":"function"},{"inputs":[],"name":"allFeeToProtocol","outputs":[{"internalType":"bool","name":"","type":"bool"}],"stateMutability":"view","type":"function"},{"inputs":[{"internalType":"uint256","name":"","type":"uint256"}],"name":"allPairs","outputs":[{"internalType":"address","name":"","type":"address"}],"stateMutability":"view","type":"function"},{"inputs":[],"name":"devFeePercent","outputs":[{"internalType":"uint256","name":"","type":"uint256"}],"stateMutability":"view","type":"function"},{"inputs":[],"name":"devFeeSetter","outputs":[{"internalType":"address","name":"","type":"address"}],"stateMutability":"view","type":"function"},{"inputs":[],"name":"devFeeTo","outputs":[{"internalType":"address","name":"","type":"address"}],"stateMutability":"view","type":"function"},{"inputs":[],"name":"feeTo","outputs":[{"internalType":"address","name":"","type":"address"}],"stateMutability":"view","type":"function"},{"inputs":[],"name":"feeToSetter","outputs":[{"internalType":"address","name":"","type":"address"}],"stateMutability":"view","type":"function"},{"inputs":[{"internalType":"address","name":"","type":"address"},{"internalType":"address","name":"","type":"address"}],"name":"getPair","outputs":[{"internalType":"address","name":"","type":"address"}],"stateMutability":"view","type":"function"},{"inputs":[],"name":"protocolFee","outputs":[{"internalType":"uint256","name":"","type":"uint256"}],"stateMutability":"view","type":"function"},{"inputs":[],"name":"totalFee","outputs":[{"internalType":"uint256","name":"","type":"uint256"}],"stateMutability":"view","type":"function"},{"inputs":[],"name":"allPairsLength","outputs":[{"internalType":"uint256","name":"","type":"uint256"}],"stateMutability":"view","type":"function"},{"inputs":[],"name":"allInfo","outputs":[{"components":[{"internalType":"uint256","name":"protocolFee","type":"uint256"},{"internalType":"uint256","name":"totalFee","type":"uint256"},{"internalType":"uint256","name":"devFeePercent","type":"uint256"},{"internalType":"address","name":"feeTo","type":"address"},{"internalType":"address","name":"feeToSetter","type":"address"},{"internalType":"address","name":"devFeeTo","type":"address"},{"internalType":"address","name":"devFeeSetter","type":"address"},{"internalType":"bool","name":"allFeeToProtocol","type":"bool"},{"internalType":"bytes32","name":"INIT_CODE_PAIR_HASH","type":"bytes32"}],"internalType":"struct IFactory.AllInfo","name":"","type":"tuple"}],"stateMutability":"view","type":"function"},{"inputs":[{"internalType":"address","name":"tokenA","type":"address"},{"internalType":"address","name":"tokenB","type":"address"}],"name":"createPair","outputs":[{"internalType":"address","name":"pair","type":"address"}],"stateMutability":"nonpayable","type":"function"},{"inputs":[{"internalType":"uint256","name":"_devFeePercent","type":"uint256"}],"name":"setDevFeePercent","outputs":[],"stateMutability":"nonpayable","type":"function"},{"inputs":[{"internalType":"address","name":"_feeTo","type":"address"}],"name":"setFeeTo","outputs":[],"stateMutability":"nonpayable","type":"function"},{"inputs":[{"internalType":"address","name":"_feeToSetter","type":"address"}],"name":"setFeeToSetter","outputs":[],"stateMutability":"nonpayable","type":"function"},{"inputs":[{"internalType":"address","name":"_devFeeTo","type":"address"}],"name":"setDevFeeTo","outputs":[],"stateMutability":"nonpayable","type":"function"},{"inputs":[{"internalType":"address","name":"_devFeeToSetter","type":"address"}],"name":"setDevFeeSetter","outputs":[],"stateMutability":"nonpayable","type":"function"},{"inputs":[{"internalType":"bool","name":"_allFeeToProtocol","type":"bool"}],"name":"setAllFeeToProtocol","outputs":[],"stateMutability":"nonpayable","type":"function"},{"inputs":[{"internalType":"uint256","name":"_protocolFee","type":"uint256"}],"name":"setProtocolFee","outputs":[],"stateMutability":"nonpayable","type":"function"},{"inputs":[{"internalType":"uint256","name":"_totalFee","type":"uint256"}],"name":"setTotalFee","outputs":[],"stateMutability":"nonpayable","type":"function"}],"bytecode":"0x610440604052612710608090815261138860a052610ce460c0526109c460e0526107d06101005261064061012052610578610140526104b06101605261044c610180526103e86101a0526103846101c0526103206101e08190526102bc61020052610258610220526101f4610240526101906102605261012c6102805260c86102a05260646102c052605a6102e05260506103005260469052603c61034052603261036052602861038052601e6103a081905260146103c052600a6103e052600561040052600161042052620000d89160009162000168565b50348015620000e657600080fd5b5060405162004e8538038062004e858339810160408190526200010991620001c8565b602280546001600160a01b039092166001600160a01b03199283161790556107d0601e556003601f556014602055602380548216734086a2cae8d3fccd94d1172006516c7d0794c7ee90811790915560248054909216179055620001f8565b82601e81019282156200019f579160200282015b828111156200019f578251829061ffff169055916020019190600101906200017c565b50620001ad929150620001b1565b5090565b5b80821115620001ad5760008155600101620001b2565b600060208284031215620001da578081fd5b81516001600160a01b0381168114620001f1578182fd5b9392505050565b614c7d80620002086000396000f3fe60806040523480156200001157600080fd5b5060043610620001cc5760003560e01c806380d9e8e91162000105578063b8ff503811620000a5578063e6a43905116200007b578063e6a439051462000350578063ef7adc001462000367578063f1f5aa741462000380578063f46901ed146200039757620001cc565b8063b8ff50381462000316578063c9c65396146200032f578063d63cdaa3146200034657620001cc565b8063a2e74af611620000db578063a2e74af614620002eb578063a74d5f301462000302578063b0e21e8a146200030c57620001cc565b806380d9e8e914620002c05780638db07c4d14620002ca578063992d0ebb14620002d457620001cc565b8063379e29191162000171578063574f2ba31162000147578063574f2ba314620002955780635855a25a146200029f578063787dce3d14620002a957620001cc565b8063379e2919146200025d5780633f64a7ab14620002745780633f8848af146200027e57620001cc565b80631df4ccfc11620001a75780631df4ccfc14620002235780631e3dd18b146200022d57806321a45442146200024457620001cc565b8063017e7e5814620001d1578063094b741514620001f357806315067b8414620001fd575b600080fd5b620001db620003ae565b604051620001ea919062001107565b60405180910390f35b620001db620003ca565b620002146200020e36600462001058565b620003e6565b604051620001ea919062001180565b62000214620003fe565b620001db6200023e36600462001058565b62000404565b6200025b6200025536600462000fdb565b6200043c565b005b6200025b6200026e36600462001058565b620004e0565b6200021462000577565b6200025b6200028f36600462000fdb565b6200057d565b6200021462000618565b620002146200061e565b6200025b620002ba36600462001058565b6200068a565b620001db620007de565b620001db620007fa565b6200025b620002e536600462001058565b62000816565b6200025b620002fc36600462000fdb565b620008ba565b6200021462000955565b620002146200095b565b6200032062000961565b604051620001ea919062001175565b620001db6200034036600462000fff565b62000982565b6200021462000ce0565b620001db6200036136600462000fff565b62000ce6565b6200037162000d19565b604051620001ea9190620012d3565b6200025b6200039136600462001036565b62000e1e565b6200025b620003a836600462000fdb565b62000ebc565b60215473ffffffffffffffffffffffffffffffffffffffff1681565b60225473ffffffffffffffffffffffffffffffffffffffff1681565b600081601e8110620003f757600080fd5b0154905081565b601f5481565b602681815481106200041557600080fd5b60009182526020909120015473ffffffffffffffffffffffffffffffffffffffff16905081565b60245473ffffffffffffffffffffffffffffffffffffffff16331462000499576040517f08c379a0000000000000000000000000000000000000000000000000000000008152600401620004909062001265565b60405180910390fd5b602380547fffffffffffffffffffffffff00000000000000000000000000000000000000001673ffffffffffffffffffffffffffffffffffffffff92909216919091179055565b60245473ffffffffffffffffffffffffffffffffffffffff16331462000534576040517f08c379a0000000000000000000000000000000000000000000000000000000008152600401620004909062001265565b606481111562000572576040517f08c379a00000000000000000000000000000000000000000000000000000000081526004016200049090620011f7565b602055565b60205481565b60245473ffffffffffffffffffffffffffffffffffffffff163314620005d1576040517f08c379a0000000000000000000000000000000000000000000000000000000008152600401620004909062001265565b602480547fffffffffffffffffffffffff00000000000000000000000000000000000000001673ffffffffffffffffffffffffffffffffffffffff92909216919091179055565b60265490565b6040516200062f6020820162000f57565b7fffffffffffffffffffffffffffffffffffffffffffffffffffffffffffffffe082820381018352601f909101166040819052620006719190602001620010cb565b6040516020818303038152906040528051906020012081565b60225473ffffffffffffffffffffffffffffffffffffffff163314620006de576040517f08c379a0000000000000000000000000000000000000000000000000000000008152600401620004909062001265565b6127108111156200071d576040517f08c379a000000000000000000000000000000000000000000000000000000000815260040162000490906200122e565b8015620007d9576000805b601e8110156200079c57811580156200077c5750600081601e811062000777577f4e487b7100000000000000000000000000000000000000000000000000000000600052603260045260246000fd5b015483145b156200078757600191505b80620007938162001391565b91505062000728565b5080620007d7576040517f08c379a000000000000000000000000000000000000000000000000000000000815260040162000490906200122e565b505b601e55565b60245473ffffffffffffffffffffffffffffffffffffffff1681565b60235473ffffffffffffffffffffffffffffffffffffffff1681565b60225473ffffffffffffffffffffffffffffffffffffffff1633146200086a576040517f08c379a0000000000000000000000000000000000000000000000000000000008152600401620004909062001265565b6200087960016103e862001377565b811115620008b5576040517f08c379a000000000000000000000000000000000000000000000000000000000815260040162000490906200122e565b601f55565b60225473ffffffffffffffffffffffffffffffffffffffff1633146200090e576040517f08c379a0000000000000000000000000000000000000000000000000000000008152600401620004909062001265565b602280547fffffffffffffffffffffffff00000000000000000000000000000000000000001673ffffffffffffffffffffffffffffffffffffffff92909216919091179055565b61271081565b601e5481565b60245474010000000000000000000000000000000000000000900460ff1681565b60008173ffffffffffffffffffffffffffffffffffffffff168373ffffffffffffffffffffffffffffffffffffffff161415620009ed576040517f08c379a0000000000000000000000000000000000000000000000000000000008152600401620004909062001189565b6000808373ffffffffffffffffffffffffffffffffffffffff168573ffffffffffffffffffffffffffffffffffffffff161062000a2c57838562000a2f565b84845b909250905073ffffffffffffffffffffffffffffffffffffffff821662000a84576040517f08c379a000000000000000000000000000000000000000000000000000000000815260040162000490906200129c565b73ffffffffffffffffffffffffffffffffffffffff82811660009081526025602090815260408083208585168452909152902054161562000af3576040517f08c379a00000000000000000000000000000000000000000000000000000000081526004016200049090620011c0565b60006040518060200162000b079062000f57565b6020820181038252601f19601f8201166040525090506000838360405160200162000b3492919062001091565b604051602081830303815290604052805190602001209050808251602084016000f56040517f485cc95500000000000000000000000000000000000000000000000000000000815290955073ffffffffffffffffffffffffffffffffffffffff86169063485cc9559062000baf908790879060040162001128565b600060405180830381600087803b15801562000bca57600080fd5b505af115801562000bdf573d6000803e3d6000fd5b5050505073ffffffffffffffffffffffffffffffffffffffff84811660008181526025602081815260408084208987168086529083528185208054978d167fffffffffffffffffffffffff00000000000000000000000000000000000000009889168117909155938352818520868652909252808420805487168417905560268054600181018255948190527f744a2cf8fd7008e3d53b67916e73460df9fa5214e3ef23dd4259ca09493a35949094018054909616909217909455905490517f0d3648bd0f6ba80134a33ba9275ac585d9d315f0ad8355cddefde31afa28d0e99162000cce918a91906200114f565b60405180910390a35050505092915050565b6103e881565b602560209081526000928352604080842090915290825290205473ffffffffffffffffffffffffffffffffffffffff1681565b62000d2362000f65565b6040805161012081018252601e548152601f5460208083019190915280548284015260215473ffffffffffffffffffffffffffffffffffffffff908116606084015260225481166080840152602354811660a084015260245490811660c084015274010000000000000000000000000000000000000000900460ff16151560e0830152915190916101008301919062000dbe90820162000f57565b7fffffffffffffffffffffffffffffffffffffffffffffffffffffffffffffffe082820381018352601f90910116604081905262000e009190602001620010cb565b60405160208183030381529060405280519060200120815250905090565b60225473ffffffffffffffffffffffffffffffffffffffff16331462000e72576040517f08c379a0000000000000000000000000000000000000000000000000000000008152600401620004909062001265565b6024805491151574010000000000000000000000000000000000000000027fffffffffffffffffffffff00ffffffffffffffffffffffffffffffffffffffff909216919091179055565b60225473ffffffffffffffffffffffffffffffffffffffff16331462000f10576040517f08c379a0000000000000000000000000000000000000000000000000000000008152600401620004909062001265565b602180547fffffffffffffffffffffffff00000000000000000000000000000000000000001673ffffffffffffffffffffffffffffffffffffffff92909216919091179055565b61384b80620013fd83390190565b6040805161012081018252600080825260208201819052918101829052606081018290526080810182905260a0810182905260c0810182905260e0810182905261010081019190915290565b803573ffffffffffffffffffffffffffffffffffffffff8116811462000fd657600080fd5b919050565b60006020828403121562000fed578081fd5b62000ff88262000fb1565b9392505050565b6000806040838503121562001012578081fd5b6200101d8362000fb1565b91506200102d6020840162000fb1565b90509250929050565b60006020828403121562001048578081fd5b8135801515811462000ff8578182fd5b6000602082840312156200106a578081fd5b5035919050565b73ffffffffffffffffffffffffffffffffffffffff169052565b15159052565b7fffffffffffffffffffffffffffffffffffffffff000000000000000000000000606093841b811682529190921b16601482015260280190565b60008251815b81811015620010ed5760208186018101518583015201620010d1565b81811115620010fc5782828501525b509190910192915050565b73ffffffffffffffffffffffffffffffffffffffff91909116815260200190565b73ffffffffffffffffffffffffffffffffffffffff92831681529116602082015260400190565b73ffffffffffffffffffffffffffffffffffffffff929092168252602082015260400190565b901515815260200190565b90815260200190565b6020808252601c908201527f466163746f72793a204944454e544943414c5f41444452455353455300000000604082015260600190565b60208082526014908201527f466163746f72793a20504149525f455849535453000000000000000000000000604082015260600190565b60208082526019908201527f466163746f72793a2057524f4e475f50455243454e5441474500000000000000604082015260600190565b60208082526016908201527f466163746f72793a20464f5242494444454e5f46454500000000000000000000604082015260600190565b60208082526012908201527f466163746f72793a20464f5242494444454e0000000000000000000000000000604082015260600190565b60208082526015908201527f466163746f72793a205a45524f5f414444524553530000000000000000000000604082015260600190565b60006101208201905082518252602083015160208301526040830151604083015273ffffffffffffffffffffffffffffffffffffffff6060840151166060830152608083015162001328608084018262001071565b5060a08301516200133d60a084018262001071565b5060c08301516200135260c084018262001071565b5060e08301516200136760e08401826200108b565b5061010092830151919092015290565b6000828210156200138c576200138c620013cd565b500390565b60007fffffffffffffffffffffffffffffffffffffffffffffffffffffffffffffffff821415620013c657620013c6620013cd565b5060010190565b7f4e487b7100000000000000000000000000000000000000000000000000000000600052601160045260246000fdfe60806040526001600c553480156200001657600080fd5b50604080518082018252601481527f4c69717569646974792d506f6f6c2d546f6b656e0000000000000000000000006020918201528151808301835260018152603160f81b9082015290514691620000d9917f8b73c3c69bb8fe3d512ecc4cf759cc79239f7b179b0ffacaa9a75d522b39400f917fee49096366cc590b73291b7aa9e5e091aa761dec637befae63796ffa4f337d4a917fc89efdaa54c0f20c7adf612882df0950f5a951637e0307cdcb4c672f298b8bc69186913091016200010d565b60408051601f19818403018152919052805160209091012060035550600580546001600160a01b0319163317905562000139565b9485526020850193909352604084019190915260608301526001600160a01b0316608082015260a00190565b61370280620001496000396000f3fe608060405234801561001057600080fd5b50600436106101b95760003560e01c80636a627842116100f9578063ba9a7a5611610097578063d21220a711610071578063d21220a71461034d578063d505accf14610355578063dd62ed3e14610368578063fff6cae91461037b576101b9565b8063ba9a7a561461032a578063bc25cf7714610332578063c45a015514610345576101b9565b80637ecebe00116100d35780637ecebe00146102db57806389afcb44146102ee57806395d89b411461030f578063a9059cbb14610317576101b9565b80636a627842146102ad57806370a08231146102c05780637464fc3d146102d3576101b9565b806323b872dd116101665780633644e515116101405780633644e51514610282578063485cc9551461028a5780635909c0d51461029d5780635a3d5493146102a5576101b9565b806323b872dd1461025257806330adf81f14610265578063313ce5671461026d576101b9565b8063095ea7b311610197578063095ea7b3146102085780630dfe16811461022857806318160ddd1461023d576101b9565b8063022c0d9f146101be57806306fdde03146101d35780630902f1ac146101f1575b600080fd5b6101d16101cc366004612d35565b610383565b005b6101db610a83565b6040516101e89190612f4a565b60405180910390f35b6101f9610abc565b6040516101e893929190613441565b61021b610216366004612cd2565b610b11565b6040516101e89190612ed7565b610230610b28565b6040516101e89190612e18565b610245610b44565b6040516101e89190612ee2565b61021b610260366004612c1d565b610b4a565b610245610c23565b610275610c47565b6040516101e8919061349a565b610245610c4c565b6101d1610298366004612be5565b610c52565b610245610cf6565b610245610cfc565b6102456102bb366004612bad565b610d02565b6102456102ce366004612bad565b611071565b610245611083565b6102456102e9366004612bad565b611089565b6103016102fc366004612bad565b61109b565b6040516101e8929190613471565b6101db6114f4565b61021b610325366004612cd2565b61152d565b61024561153a565b6101d1610340366004612bad565b611540565b6102306116cf565b6102306116eb565b6101d1610363366004612c5d565b611707565b610245610376366004612be5565b611908565b6101d1611925565b600c546001146103c8576040517f08c379a00000000000000000000000000000000000000000000000000000000081526004016103bf9061309d565b60405180910390fd5b6000600c55841515806103db5750600084115b610411576040517f08c379a00000000000000000000000000000000000000000000000000000000081526004016103bf9061337d565b60008061041c610abc565b5091509150816dffffffffffffffffffffffffffff168710801561044f5750806dffffffffffffffffffffffffffff1686105b610485576040517f08c379a00000000000000000000000000000000000000000000000000000000081526004016103bf906133b2565b600654600754600091829173ffffffffffffffffffffffffffffffffffffffff9182169190811690891682148015906104ea57508073ffffffffffffffffffffffffffffffffffffffff168973ffffffffffffffffffffffffffffffffffffffff1614155b610520576040517f08c379a00000000000000000000000000000000000000000000000000000000081526004016103bf90613244565b8a1561053157610531828a8d611ae9565b891561054257610542818a8c611ae9565b86156105d5576040517f10d1e85c00000000000000000000000000000000000000000000000000000000815273ffffffffffffffffffffffffffffffffffffffff8a16906310d1e85c906105a29033908f908f908e908e90600401612e5f565b600060405180830381600087803b1580156105bc57600080fd5b505af11580156105d0573d6000803e3d6000fd5b505050505b6040517f70a0823100000000000000000000000000000000000000000000000000000000815273ffffffffffffffffffffffffffffffffffffffff8316906370a0823190610627903090600401612e18565b60206040518083038186803b15801561063f57600080fd5b505afa158015610653573d6000803e3d6000fd5b505050506040513d601f19601f820116820180604052508101906106779190612d1d565b6040517f70a0823100000000000000000000000000000000000000000000000000000000815290945073ffffffffffffffffffffffffffffffffffffffff8216906370a08231906106cc903090600401612e18565b60206040518083038186803b1580156106e457600080fd5b505afa1580156106f8573d6000803e3d6000fd5b505050506040513d601f19601f8201168201806040525081019061071c9190612d1d565b92505050600089856dffffffffffffffffffffffffffff1661073e9190613590565b831161074b57600061076f565b6107658a6dffffffffffffffffffffffffffff8716613590565b61076f9084613590565b9050600061078d8a6dffffffffffffffffffffffffffff8716613590565b831161079a5760006107be565b6107b48a6dffffffffffffffffffffffffffff8716613590565b6107be9084613590565b905060008211806107cf5750600081115b610805576040517f08c379a00000000000000000000000000000000000000000000000000000000081526004016103bf9061330f565b600554604080517fd63cdaa3000000000000000000000000000000000000000000000000000000008152905160009273ffffffffffffffffffffffffffffffffffffffff169163d63cdaa3916004808301926020929190829003018186803b15801561087057600080fd5b505afa158015610884573d6000803e3d6000fd5b505050506040513d601f19601f820116820180604052508101906108a89190612d1d565b90506000600560009054906101000a900473ffffffffffffffffffffffffffffffffffffffff1673ffffffffffffffffffffffffffffffffffffffff16631df4ccfc6040518163ffffffff1660e01b815260040160206040518083038186803b15801561091457600080fd5b505afa158015610928573d6000803e3d6000fd5b505050506040513d601f19601f8201168201806040525081019061094c9190612d1d565b9050600061096d61095d8684611c9f565b6109678986611c9f565b90611cf9565b9050600061098861097e8685611c9f565b6109678987611c9f565b90506109b4620f42406109ae6dffffffffffffffffffffffffffff8d8116908d16611c9f565b90611c9f565b6109be8383611c9f565b10156109f6576040517f08c379a00000000000000000000000000000000000000000000000000000000081526004016103bf90613346565b50505050610a0684848888611d41565b8873ffffffffffffffffffffffffffffffffffffffff163373ffffffffffffffffffffffffffffffffffffffff167fd78ad95fa46c994b6551d0da85fc275fe613ce37657fb8d5e3d130840159d82284848f8f604051610a69949392919061347f565b60405180910390a350506001600c55505050505050505050565b6040518060400160405280601481526020017f4c69717569646974792d506f6f6c2d546f6b656e00000000000000000000000081525081565b6008546dffffffffffffffffffffffffffff808216926e0100000000000000000000000000008304909116917c0100000000000000000000000000000000000000000000000000000000900463ffffffff1690565b6000610b1e338484612004565b5060015b92915050565b60065473ffffffffffffffffffffffffffffffffffffffff1681565b60005481565b73ffffffffffffffffffffffffffffffffffffffff831660009081526002602090815260408083203384529091528120547fffffffffffffffffffffffffffffffffffffffffffffffffffffffffffffffff14610c0e5773ffffffffffffffffffffffffffffffffffffffff84166000908152600260209081526040808320338452909152902054610bdc9083611cf9565b73ffffffffffffffffffffffffffffffffffffffff851660009081526002602090815260408083203384529091529020555b610c19848484612079565b5060019392505050565b7f6e71edae12b1b97f4d1f60370fef10105fa2faae0126114a169c64845d6126c981565b601281565b60035481565b60055473ffffffffffffffffffffffffffffffffffffffff163314610ca3576040517f08c379a00000000000000000000000000000000000000000000000000000000081526004016103bf9061319f565b6006805473ffffffffffffffffffffffffffffffffffffffff9384167fffffffffffffffffffffffff00000000000000000000000000000000000000009182161790915560078054929093169116179055565b60095481565b600a5481565b6000600c54600114610d40576040517f08c379a00000000000000000000000000000000000000000000000000000000081526004016103bf9061309d565b6000600c81905580610d50610abc565b506006546040517f70a0823100000000000000000000000000000000000000000000000000000000815292945090925060009173ffffffffffffffffffffffffffffffffffffffff909116906370a0823190610db0903090600401612e18565b60206040518083038186803b158015610dc857600080fd5b505afa158015610ddc573d6000803e3d6000fd5b505050506040513d601f19601f82011682018060405250810190610e009190612d1d565b6007546040517f70a0823100000000000000000000000000000000000000000000000000000000815291925060009173ffffffffffffffffffffffffffffffffffffffff909116906370a0823190610e5c903090600401612e18565b60206040518083038186803b158015610e7457600080fd5b505afa158015610e88573d6000803e3d6000fd5b505050506040513d601f19601f82011682018060405250810190610eac9190612d1d565b90506000610eca836dffffffffffffffffffffffffffff8716611cf9565b90506000610ee8836dffffffffffffffffffffffffffff8716611cf9565b90506000610ef68787612144565b60005490915080610f2d57610f196103e8610967610f148787611c9f565b61261c565b9850610f2860006103e861268c565b610f82565b610f7f6dffffffffffffffffffffffffffff8916610f4b8684611c9f565b610f5591906134fb565b6dffffffffffffffffffffffffffff8916610f708685611c9f565b610f7a91906134fb565b612733565b98505b60008911610fbc576040517f08c379a00000000000000000000000000000000000000000000000000000000081526004016103bf90612f9b565b610fc68a8a61268c565b610fd286868a8a611d41565b811561100e5760085461100a906dffffffffffffffffffffffffffff808216916e010000000000000000000000000000900416611c9f565b600b555b3373ffffffffffffffffffffffffffffffffffffffff167f4c209b5fc8ad50758f13e2e1088ba56a560dff690a1c6fef26394f4c03821c4f8585604051611056929190613471565b60405180910390a250506001600c5550949695505050505050565b60016020526000908152604090205481565b600b5481565b60046020526000908152604090205481565b600080600c546001146110da576040517f08c379a00000000000000000000000000000000000000000000000000000000081526004016103bf9061309d565b6000600c819055806110ea610abc565b506006546007546040517f70a0823100000000000000000000000000000000000000000000000000000000815293955091935073ffffffffffffffffffffffffffffffffffffffff9081169291169060009083906370a0823190611152903090600401612e18565b60206040518083038186803b15801561116a57600080fd5b505afa15801561117e573d6000803e3d6000fd5b505050506040513d601f19601f820116820180604052508101906111a29190612d1d565b905060008273ffffffffffffffffffffffffffffffffffffffff166370a08231306040518263ffffffff1660e01b81526004016111df9190612e18565b60206040518083038186803b1580156111f757600080fd5b505afa15801561120b573d6000803e3d6000fd5b505050506040513d601f19601f8201168201806040525081019061122f9190612d1d565b3060009081526001602052604081205491925061124c8888612144565b6000549091508061125d8487611c9f565b61126791906134fb565b9a50806112748486611c9f565b61127e91906134fb565b995060008b118015611290575060008a115b6112c6576040517f08c379a00000000000000000000000000000000000000000000000000000000081526004016103bf90613142565b6112d0308461274b565b6112db878d8d611ae9565b6112e6868d8c611ae9565b6040517f70a0823100000000000000000000000000000000000000000000000000000000815273ffffffffffffffffffffffffffffffffffffffff8816906370a0823190611338903090600401612e18565b60206040518083038186803b15801561135057600080fd5b505afa158015611364573d6000803e3d6000fd5b505050506040513d601f19601f820116820180604052508101906113889190612d1d565b6040517f70a0823100000000000000000000000000000000000000000000000000000000815290955073ffffffffffffffffffffffffffffffffffffffff8716906370a08231906113dd903090600401612e18565b60206040518083038186803b1580156113f557600080fd5b505afa158015611409573d6000803e3d6000fd5b505050506040513d601f19601f8201168201806040525081019061142d9190612d1d565b935061143b85858b8b611d41565b811561147757600854611473906dffffffffffffffffffffffffffff808216916e010000000000000000000000000000900416611c9f565b600b555b8b73ffffffffffffffffffffffffffffffffffffffff163373ffffffffffffffffffffffffffffffffffffffff167fdccd412f0b1252819cb1fd330b93224ca42612892bb3f4f789976e6d819364968d8d6040516114d6929190613471565b60405180910390a35050505050505050506001600c81905550915091565b6040518060400160405280600881526020017f4c502d544f4b454e00000000000000000000000000000000000000000000000081525081565b6000610b1e338484612079565b6103e881565b600c5460011461157c576040517f08c379a00000000000000000000000000000000000000000000000000000000081526004016103bf9061309d565b6000600c556006546007546008546040517f70a0823100000000000000000000000000000000000000000000000000000000815273ffffffffffffffffffffffffffffffffffffffff93841693909216916116579184918691611652916dffffffffffffffffffffffffffff9091169084906370a0823190611602903090600401612e18565b60206040518083038186803b15801561161a57600080fd5b505afa15801561162e573d6000803e3d6000fd5b505050506040513d601f19601f820116820180604052508101906109679190612d1d565b611ae9565b6116c581846116526008600e9054906101000a90046dffffffffffffffffffffffffffff166dffffffffffffffffffffffffffff168573ffffffffffffffffffffffffffffffffffffffff166370a08231306040518263ffffffff1660e01b81526004016116029190612e18565b50506001600c5550565b60055473ffffffffffffffffffffffffffffffffffffffff1681565b60075473ffffffffffffffffffffffffffffffffffffffff1681565b42841015611741576040517f08c379a00000000000000000000000000000000000000000000000000000000081526004016103bf906131d6565b60035473ffffffffffffffffffffffffffffffffffffffff8816600090815260046020526040812080549192917f6e71edae12b1b97f4d1f60370fef10105fa2faae0126114a169c64845d6126c9918b918b918b9190876117a1836135fc565b919050558a6040516020016117bb96959493929190612eeb565b604051602081830303815290604052805190602001206040516020016117e2929190612de2565b60405160208183030381529060405280519060200120905060006001828686866040516000815260200160405260405161181f9493929190612f2c565b6020604051602081039080840390855afa158015611841573d6000803e3d6000fd5b50506040517fffffffffffffffffffffffffffffffffffffffffffffffffffffffffffffffe0015191505073ffffffffffffffffffffffffffffffffffffffff8116158015906118bc57508873ffffffffffffffffffffffffffffffffffffffff168173ffffffffffffffffffffffffffffffffffffffff16145b6118f2576040517f08c379a00000000000000000000000000000000000000000000000000000000081526004016103bf9061302f565b6118fd898989612004565b505050505050505050565b600260209081526000928352604080842090915290825290205481565b600c54600114611961576040517f08c379a00000000000000000000000000000000000000000000000000000000081526004016103bf9061309d565b6000600c556006546040517f70a08231000000000000000000000000000000000000000000000000000000008152611ae29173ffffffffffffffffffffffffffffffffffffffff16906370a08231906119be903090600401612e18565b60206040518083038186803b1580156119d657600080fd5b505afa1580156119ea573d6000803e3d6000fd5b505050506040513d601f19601f82011682018060405250810190611a0e9190612d1d565b6007546040517f70a0823100000000000000000000000000000000000000000000000000000000815273ffffffffffffffffffffffffffffffffffffffff909116906370a0823190611a64903090600401612e18565b60206040518083038186803b158015611a7c57600080fd5b505afa158015611a90573d6000803e3d6000fd5b505050506040513d601f19601f82011682018060405250810190611ab49190612d1d565b6008546dffffffffffffffffffffffffffff808216916e010000000000000000000000000000900416611d41565b6001600c55565b604080518082018252601981527f7472616e7366657228616464726573732c75696e74323536290000000000000060209091015251600090819073ffffffffffffffffffffffffffffffffffffffff8616907fa9059cbb2ab09eb219583f4a59a5d0623ade346d962bcd4e46b11da047c9049b90611b6d9087908790602401612e39565b604080517fffffffffffffffffffffffffffffffffffffffffffffffffffffffffffffffe08184030181529181526020820180517bffffffffffffffffffffffffffffffffffffffffffffffffffffffff167fffffffff00000000000000000000000000000000000000000000000000000000909416939093179092529051611bf69190612dc6565b6000604051808303816000865af19150503d8060008114611c33576040519150601f19603f3d011682016040523d82523d6000602084013e611c38565b606091505b5091509150818015611c62575080511580611c62575080806020019051810190611c629190612cfd565b611c98576040517f08c379a00000000000000000000000000000000000000000000000000000000081526004016103bf906133e9565b5050505050565b6000811580611cc357508282611cb58183613553565b9250611cc190836134fb565b145b610b22576040517f08c379a00000000000000000000000000000000000000000000000000000000081526004016103bf9061310b565b600082611d068382613590565b9150811115610b22576040517f08c379a00000000000000000000000000000000000000000000000000000000081526004016103bf90612ff8565b6dffffffffffffffffffffffffffff8411801590611d6d57506dffffffffffffffffffffffffffff8311155b611da3576040517f08c379a00000000000000000000000000000000000000000000000000000000081526004016103bf906130d4565b6000611db464010000000042613635565b600854909150600090611ded907c0100000000000000000000000000000000000000000000000000000000900463ffffffff16836135a7565b905060008163ffffffff16118015611e1457506dffffffffffffffffffffffffffff841615155b8015611e2f57506dffffffffffffffffffffffffffff831615155b15611efd578063ffffffff16611e6c85611e48866127fc565b7bffffffffffffffffffffffffffffffffffffffffffffffffffffffff1690612827565b7bffffffffffffffffffffffffffffffffffffffffffffffffffffffff16611e949190613553565b60096000828254611ea591906134a8565b909155505063ffffffff8116611ebe84611e48876127fc565b7bffffffffffffffffffffffffffffffffffffffffffffffffffffffff16611ee69190613553565b600a6000828254611ef791906134a8565b90915550505b600880547fffffffffffffffffffffffffffffffffffff0000000000000000000000000000166dffffffffffffffffffffffffffff888116919091177fffffffff0000000000000000000000000000ffffffffffffffffffffffffffff166e0100000000000000000000000000008883168102919091177bffffffffffffffffffffffffffffffffffffffffffffffffffffffff167c010000000000000000000000000000000000000000000000000000000063ffffffff87160217928390556040517f1c411e9a96e071241c2f21f7726b17ae89e3cab4c78be50e062b03a9fffbbad193611ff493818116939091041690613420565b60405180910390a1505050505050565b73ffffffffffffffffffffffffffffffffffffffff80841660008181526002602090815260408083209487168084529490915290819020849055517f8c5be1e5ebec7d5bd14f71427d1e84f3dd0314c0f7b2291e5b200ac8c7c3b9259061206c908590612ee2565b60405180910390a3505050565b73ffffffffffffffffffffffffffffffffffffffff83166000908152600160205260409020546120a99082611cf9565b73ffffffffffffffffffffffffffffffffffffffff80851660009081526001602052604080822093909355908416815220546120e59082612843565b73ffffffffffffffffffffffffffffffffffffffff80841660008181526001602052604090819020939093559151908516907fddf252ad1be2c89b69c2b068fc378daa952ba7f163c4a11628f55a4df523b3ef9061206c908590612ee2565b600080600560009054906101000a900473ffffffffffffffffffffffffffffffffffffffff1673ffffffffffffffffffffffffffffffffffffffff1663017e7e586040518163ffffffff1660e01b815260040160206040518083038186803b1580156121af57600080fd5b505afa1580156121c3573d6000803e3d6000fd5b505050506040513d601f19601f820116820180604052508101906121e79190612bc9565b90506000600560009054906101000a900473ffffffffffffffffffffffffffffffffffffffff1673ffffffffffffffffffffffffffffffffffffffff16638db07c4d6040518163ffffffff1660e01b815260040160206040518083038186803b15801561225357600080fd5b505afa158015612267573d6000803e3d6000fd5b505050506040513d601f19601f8201168201806040525081019061228b9190612bc9565b90506000600560009054906101000a900473ffffffffffffffffffffffffffffffffffffffff1673ffffffffffffffffffffffffffffffffffffffff16633f64a7ab6040518163ffffffff1660e01b815260040160206040518083038186803b1580156122f757600080fd5b505afa15801561230b573d6000803e3d6000fd5b505050506040513d601f19601f8201168201806040525081019061232f9190612d1d565b90506000600560009054906101000a900473ffffffffffffffffffffffffffffffffffffffff1673ffffffffffffffffffffffffffffffffffffffff16631df4ccfc6040518163ffffffff1660e01b815260040160206040518083038186803b15801561239b57600080fd5b505afa1580156123af573d6000803e3d6000fd5b505050506040513d601f19601f820116820180604052508101906123d39190612d1d565b90506000600560009054906101000a900473ffffffffffffffffffffffffffffffffffffffff1673ffffffffffffffffffffffffffffffffffffffff1663b0e21e8a6040518163ffffffff1660e01b815260040160206040518083038186803b15801561243f57600080fd5b505afa158015612453573d6000803e3d6000fd5b505050506040513d601f19601f820116820180604052508101906124779190612d1d565b600b5490915082158015906124a1575073ffffffffffffffffffffffffffffffffffffffff861615155b80156124ad5750600082115b965086156126045780156125ff5760006124dd610f146dffffffffffffffffffffffffffff8c8116908c16611c9f565b905060006124ea8361261c565b9050808211156125fc576000612500838361288b565b90507f556884274ae9710f4ee09c7684aca5dd4300045d7bef418f17cdfa428ca3f520816040516125319190612ee2565b60405180910390a180156125fa57861580612560575073ffffffffffffffffffffffffffffffffffffffff8816155b156125745761256f898261268c565b6125fa565b60006125816064836134fb565b9050600061258f828a611c9f565b9050600061259d8483611cf9565b9050836125aa8284612843565b11156125e2576040517f08c379a00000000000000000000000000000000000000000000000000000000081526004016103bf9061327b565b6125ec8c8261268c565b6125f68b8361268c565b5050505b505b50505b612610565b8015612610576000600b555b50505050505092915050565b6000600382111561267d57508060006126366002836134fb565b6126419060016134a8565b90505b818110156126775790508060028161265c81866134fb565b61266691906134a8565b61267091906134fb565b9050612644565b50612687565b8115612687575060015b919050565b6000546126999082612843565b600090815573ffffffffffffffffffffffffffffffffffffffff83168152600160205260409020546126cb9082612843565b73ffffffffffffffffffffffffffffffffffffffff83166000818152600160205260408082209390935591519091907fddf252ad1be2c89b69c2b068fc378daa952ba7f163c4a11628f55a4df523b3ef90612727908590612ee2565b60405180910390a35050565b60008183106127425781612744565b825b9392505050565b73ffffffffffffffffffffffffffffffffffffffff821660009081526001602052604090205461277b9082611cf9565b73ffffffffffffffffffffffffffffffffffffffff8316600090815260016020526040812091909155546127af9082611cf9565b600090815560405173ffffffffffffffffffffffffffffffffffffffff8416907fddf252ad1be2c89b69c2b068fc378daa952ba7f163c4a11628f55a4df523b3ef90612727908590612ee2565b6000610b226e0100000000000000000000000000006dffffffffffffffffffffffffffff841661350f565b60006127446dffffffffffffffffffffffffffff8316846134c0565b60008261285083826134a8565b9150811015610b22576040517f08c379a00000000000000000000000000000000000000000000000000000000081526004016103bf9061320d565b6000808311801561289c5750600082115b6128d2576040517f08c379a00000000000000000000000000000000000000000000000000000000081526004016103bf90613066565b600554604080517fb8ff5038000000000000000000000000000000000000000000000000000000008152905160009273ffffffffffffffffffffffffffffffffffffffff169163b8ff5038916004808301926020929190829003018186803b15801561293d57600080fd5b505afa158015612951573d6000803e3d6000fd5b505050506040513d601f19601f820116820180604052508101906129759190612cfd565b90506000600560009054906101000a900473ffffffffffffffffffffffffffffffffffffffff1673ffffffffffffffffffffffffffffffffffffffff1663a74d5f306040518163ffffffff1660e01b815260040160206040518083038186803b1580156129e157600080fd5b505afa1580156129f5573d6000803e3d6000fd5b505050506040513d601f19601f82011682018060405250810190612a199190612d1d565b90506000600560009054906101000a900473ffffffffffffffffffffffffffffffffffffffff1673ffffffffffffffffffffffffffffffffffffffff1663b0e21e8a6040518163ffffffff1660e01b815260040160206040518083038186803b158015612a8557600080fd5b505afa158015612a99573d6000803e3d6000fd5b505050506040513d601f19601f82011682018060405250810190612abd9190612d1d565b9050600081118015612acf5750818111155b612b05576040517f08c379a00000000000000000000000000000000000000000000000000000000081526004016103bf906132d8565b60006001612b1383856134fb565b612b1d9190613590565b90507fc4bae801729ea7c3897dd7ce283ee41898f71761ee21440f208688058cd7b10b81604051612b4e9190612ee2565b60405180910390a16000612b6e612b658989611cf9565b60005490611c9f565b90506000612b9488612b8e88612b845785612b87565b60005b8c90611c9f565b90612843565b9050612ba081836134fb565b9998505050505050505050565b600060208284031215612bbe578081fd5b8135612744816136a7565b600060208284031215612bda578081fd5b8151612744816136a7565b60008060408385031215612bf7578081fd5b8235612c02816136a7565b91506020830135612c12816136a7565b809150509250929050565b600080600060608486031215612c31578081fd5b8335612c3c816136a7565b92506020840135612c4c816136a7565b929592945050506040919091013590565b600080600080600080600060e0888a031215612c77578283fd5b8735612c82816136a7565b96506020880135612c92816136a7565b95506040880135945060608801359350608088013560ff81168114612cb5578384fd5b9699959850939692959460a0840135945060c09093013592915050565b60008060408385031215612ce4578182fd5b8235612cef816136a7565b946020939093013593505050565b600060208284031215612d0e578081fd5b81518015158114612744578182fd5b600060208284031215612d2e578081fd5b5051919050565b600080600080600060808688031215612d4c578081fd5b85359450602086013593506040860135612d65816136a7565b9250606086013567ffffffffffffffff80821115612d81578283fd5b818801915088601f830112612d94578283fd5b813581811115612da2578384fd5b896020828501011115612db3578384fd5b9699959850939650602001949392505050565b60008251612dd88184602087016135cc565b9190910192915050565b7f190100000000000000000000000000000000000000000000000000000000000081526002810192909252602282015260420190565b73ffffffffffffffffffffffffffffffffffffffff91909116815260200190565b73ffffffffffffffffffffffffffffffffffffffff929092168252602082015260400190565b600073ffffffffffffffffffffffffffffffffffffffff8716825285602083015284604083015260806060830152826080830152828460a084013781830160a090810191909152601f9092017fffffffffffffffffffffffffffffffffffffffffffffffffffffffffffffffe0160101949350505050565b901515815260200190565b90815260200190565b95865273ffffffffffffffffffffffffffffffffffffffff94851660208701529290931660408501526060840152608083019190915260a082015260c00190565b93845260ff9290921660208401526040830152606082015260800190565b6000602082528251806020840152612f698160408501602087016135cc565b601f017fffffffffffffffffffffffffffffffffffffffffffffffffffffffffffffffe0169190910160400192915050565b60208082526023908201527f506169723a20494e53554646494349454e545f4c49515549444954595f4d494e60408201527f5445440000000000000000000000000000000000000000000000000000000000606082015260800190565b60208082526015908201527f64732d6d6174682d7375622d756e646572666c6f770000000000000000000000604082015260600190565b60208082526018908201527f45524332303a20494e56414c49445f5349474e41545552450000000000000000604082015260600190565b60208082526011908201527f506169723a20524f4f545f4b5f5a45524f000000000000000000000000000000604082015260600190565b6020808252600c908201527f537761703a204c4f434b45440000000000000000000000000000000000000000604082015260600190565b6020808252600e908201527f506169723a204f564552464c4f57000000000000000000000000000000000000604082015260600190565b60208082526014908201527f64732d6d6174682d6d756c2d6f766572666c6f77000000000000000000000000604082015260600190565b60208082526023908201527f506169723a20494e53554646494349454e545f4c49515549444954595f42555260408201527f4e45440000000000000000000000000000000000000000000000000000000000606082015260800190565b6020808252600f908201527f506169723a20464f5242494444454e0000000000000000000000000000000000604082015260600190565b6020808252600e908201527f45524332303a2045585049524544000000000000000000000000000000000000604082015260600190565b60208082526014908201527f64732d6d6174682d6164642d6f766572666c6f77000000000000000000000000604082015260600190565b60208082526010908201527f506169723a20494e56414c49445f544f00000000000000000000000000000000604082015260600190565b60208082526025908201527f506169723a20494e53554646494349454e545f50524f544f434f4c5f4c49515560408201527f4944495459000000000000000000000000000000000000000000000000000000606082015260800190565b6020808252601c908201527f506169723a20464f5242494444454e5f50524f544f434f4c5f46454500000000604082015260600190565b6020808252601f908201527f506169723a20494e53554646494349454e545f494e5055545f414d4f554e5400604082015260600190565b60208082526007908201527f506169723a204b00000000000000000000000000000000000000000000000000604082015260600190565b6020808252818101527f506169723a20494e53554646494349454e545f4f55545055545f414d4f554e54604082015260600190565b6020808252601c908201527f506169723a20494e53554646494349454e545f4c495155494449545900000000604082015260600190565b60208082526015908201527f506169723a205452414e534645525f4641494c45440000000000000000000000604082015260600190565b6dffffffffffffffffffffffffffff92831681529116602082015260400190565b6dffffffffffffffffffffffffffff938416815291909216602082015263ffffffff909116604082015260600190565b918252602082015260400190565b93845260208401929092526040830152606082015260800190565b60ff91909116815260200190565b600082198211156134bb576134bb613649565b500190565b60007bffffffffffffffffffffffffffffffffffffffffffffffffffffffff808416806134ef576134ef613678565b92169190910492915050565b60008261350a5761350a613678565b500490565b60007bffffffffffffffffffffffffffffffffffffffffffffffffffffffff8083168185168183048111821515161561354a5761354a613649565b02949350505050565b6000817fffffffffffffffffffffffffffffffffffffffffffffffffffffffffffffffff048311821515161561358b5761358b613649565b500290565b6000828210156135a2576135a2613649565b500390565b600063ffffffff838116908316818110156135c4576135c4613649565b039392505050565b60005b838110156135e75781810151838201526020016135cf565b838111156135f6576000848401525b50505050565b60007fffffffffffffffffffffffffffffffffffffffffffffffffffffffffffffffff82141561362e5761362e613649565b5060010190565b60008261364457613644613678565b500690565b7f4e487b7100000000000000000000000000000000000000000000000000000000600052601160045260246000fd5b7f4e487b7100000000000000000000000000000000000000000000000000000000600052601260045260246000fd5b73ffffffffffffffffffffffffffffffffffffffff811681146136c957600080fd5b5056fea2646970667358221220c975de3c4dab96b9bbeae2b7b4402d2ac90ed180676d8c3d82a1e99f6b20fa5364736f6c63430008000033a2646970667358221220c5e6ff7b08a67a6aaa11b22b884f2d60b3cbcf82eb3b8820da4c06fce51001ae64736f6c63430008000033","immutableReferences":{},"source":"// SPDX-License-Identifier: MIT\npragma solidity ^0.8.0;\n\nimport './interfaces/IFactory.sol';\nimport './Pair.sol';\n\ncontract Factory is IFactory {\n    using SafeMath for uint;\n\n    uint[30] public POSSIBLE_PROTOCOL_PERCENT = [10000, 5000, 3300, 2500, 2000, 1600, 1400, 1200, 1100, 1000, 900, 800, 700, 600, 500, 400, 300, 200, 100, 90, 80, 70, 60, 50, 40, 30, 20, 10, 5, 1];\n    uint public override constant MAX_TOTAL_FEE_PERCENT = 1_000;\n    uint public override constant MAX_PROTOCOL_FEE_PERCENT = 10_000;\n    uint public override protocolFee;\n    uint public override totalFee;\n    uint public override devFeePercent;\n    address public override feeTo;\n    address public override feeToSetter;\n    address public override devFeeTo;\n    address public override devFeeSetter;\n    bool public override allFeeToProtocol;\n    bytes32 public constant INIT_CODE_PAIR_HASH = keccak256(abi.encodePacked(type(Pair).creationCode));\n\n    mapping(address => mapping(address => address)) public override getPair;\n    address[] public override allPairs;\n\n    modifier onlyOwner() {\n        require(msg.sender == feeToSetter, 'Factory: FORBIDDEN');\n        _;\n    }\n\n    constructor(address _feeToSetter) {\n        feeToSetter = _feeToSetter;\n        protocolFee = 2000;\n        totalFee = 3;\n        devFeePercent = 20;\n        devFeeTo = 0x4086a2CAe8d3FcCd94D1172006516C7d0794C7Ee;\n        devFeeSetter = 0x4086a2CAe8d3FcCd94D1172006516C7d0794C7Ee;\n    }\n\n    function allPairsLength() external view override returns (uint) {\n        return allPairs.length;\n    }\n\n    function allInfo() external view override returns(AllInfo memory) {\n        return AllInfo({\n            protocolFee: protocolFee,\n            totalFee: totalFee,\n            devFeePercent: devFeePercent,\n            feeTo: feeTo,\n            feeToSetter: feeToSetter,\n            devFeeTo: devFeeTo,\n            devFeeSetter: devFeeSetter,\n            allFeeToProtocol: allFeeToProtocol,\n            INIT_CODE_PAIR_HASH: INIT_CODE_PAIR_HASH\n        });\n    }\n\n    function createPair(address tokenA, address tokenB) external override returns (address pair) {\n        require(tokenA != tokenB, 'Factory: IDENTICAL_ADDRESSES');\n        (address token0, address token1) = tokenA < tokenB ? (tokenA, tokenB) : (tokenB, tokenA);\n        require(token0 != address(0), 'Factory: ZERO_ADDRESS');\n        require(getPair[token0][token1] == address(0), 'Factory: PAIR_EXISTS'); // single check is sufficient\n        bytes memory bytecode = type(Pair).creationCode;\n        bytes32 salt = keccak256(abi.encodePacked(token0, token1));\n        assembly {\n            pair := create2(0, add(bytecode, 32), mload(bytecode), salt)\n        }\n        IUniswapV2Pair(pair).initialize(token0, token1);\n        getPair[token0][token1] = pair;\n        getPair[token1][token0] = pair; // populate mapping in the reverse direction\n        allPairs.push(pair);\n        emit PairCreated(token0, token1, pair, allPairs.length);\n    }\n\n    function setDevFeePercent(uint _devFeePercent) external override {\n        require(msg.sender == devFeeSetter, 'Factory: FORBIDDEN');\n        require(_devFeePercent >= 0 && _devFeePercent <= 100, 'Factory: WRONG_PERCENTAGE');\n        devFeePercent = _devFeePercent;\n    }\n\n    function setFeeTo(address _feeTo) external override onlyOwner {\n        feeTo = _feeTo;\n    }\n\n    function setFeeToSetter(address _feeToSetter) external override onlyOwner {\n        feeToSetter = _feeToSetter;\n    }\n\n    function setDevFeeTo(address _devFeeTo) external override {\n        require(msg.sender == devFeeSetter, 'Factory: FORBIDDEN');\n        devFeeTo = _devFeeTo;\n    }\n\n    function setDevFeeSetter(address _devFeeToSetter) external override {\n        require(msg.sender == devFeeSetter, 'Factory: FORBIDDEN');\n        devFeeSetter = _devFeeToSetter;\n    }\n\n    function setAllFeeToProtocol(bool _allFeeToProtocol) external override onlyOwner {\n        allFeeToProtocol = _allFeeToProtocol;\n    }\n\n    function setProtocolFee(uint _protocolFee) external override onlyOwner {\n        require(_protocolFee >= 0 && _protocolFee <= MAX_PROTOCOL_FEE_PERCENT, 'Factory: FORBIDDEN_FEE');\n        if (_protocolFee != 0) {\n            bool allowed;\n            for(uint x; x < POSSIBLE_PROTOCOL_PERCENT.length; x++) {\n                if (!allowed && _protocolFee == POSSIBLE_PROTOCOL_PERCENT[x]) {\n                    allowed = true;\n                }\n            }\n            if (!allowed) revert('Factory: FORBIDDEN_FEE');\n        }\n        protocolFee = _protocolFee;\n    }\n\n    function setTotalFee(uint _totalFee) external override onlyOwner {\n        require(_totalFee >= 0 && _totalFee <= MAX_TOTAL_FEE_PERCENT - 1, 'Factory: FORBIDDEN_FEE');\n        totalFee = _totalFee;\n    }\n}\n","sourcePath":"/home/user/Github/UnifactoryContracts/contracts/Factory.sol","compiler":{"name":"solc","version":"0.8.0+commit.c7dfd78e.Emscripten.clang"},"schemaVersion":"3.4.4","updatedAt":"2022-01-14T10:10:33.820Z","devdoc":{"kind":"dev","methods":{},"version":1},"userdoc":{"kind":"user","methods":{},"version":1}}