{
  "contractName": "Factory",
  "abi": [
    {
      "inputs": [
        {
          "internalType": "address",
          "name": "_feeToSetter",
          "type": "address"
        }
      ],
      "stateMutability": "nonpayable",
      "type": "constructor"
    },
    {
      "anonymous": false,
      "inputs": [
        {
          "indexed": true,
          "internalType": "address",
          "name": "token0",
          "type": "address"
        },
        {
          "indexed": true,
          "internalType": "address",
          "name": "token1",
          "type": "address"
        },
        {
          "indexed": false,
          "internalType": "address",
          "name": "pair",
          "type": "address"
        },
        {
          "indexed": false,
          "internalType": "uint256",
          "name": "",
          "type": "uint256"
        }
      ],
      "name": "PairCreated",
      "type": "event"
    },
    {
      "inputs": [],
      "name": "INIT_CODE_PAIR_HASH",
      "outputs": [
        {
          "internalType": "bytes32",
          "name": "",
          "type": "bytes32"
        }
      ],
      "stateMutability": "view",
      "type": "function"
    },
    {
      "inputs": [
        {
          "internalType": "uint256",
          "name": "",
          "type": "uint256"
        }
      ],
      "name": "allPairs",
      "outputs": [
        {
          "internalType": "address",
          "name": "",
          "type": "address"
        }
      ],
      "stateMutability": "view",
      "type": "function"
    },
    {
      "inputs": [],
      "name": "feeTo",
      "outputs": [
        {
          "internalType": "address",
          "name": "",
          "type": "address"
        }
      ],
      "stateMutability": "view",
      "type": "function"
    },
    {
      "inputs": [],
      "name": "feeToSetter",
      "outputs": [
        {
          "internalType": "address",
          "name": "",
          "type": "address"
        }
      ],
      "stateMutability": "view",
      "type": "function"
    },
    {
      "inputs": [
        {
          "internalType": "address",
          "name": "",
          "type": "address"
        },
        {
          "internalType": "address",
          "name": "",
          "type": "address"
        }
      ],
      "name": "getPair",
      "outputs": [
        {
          "internalType": "address",
          "name": "",
          "type": "address"
        }
      ],
      "stateMutability": "view",
      "type": "function"
    },
    {
      "inputs": [],
      "name": "allPairsLength",
      "outputs": [
        {
          "internalType": "uint256",
          "name": "",
          "type": "uint256"
        }
      ],
      "stateMutability": "view",
      "type": "function"
    },
    {
      "inputs": [
        {
          "internalType": "address",
          "name": "tokenA",
          "type": "address"
        },
        {
          "internalType": "address",
          "name": "tokenB",
          "type": "address"
        }
      ],
      "name": "createPair",
      "outputs": [
        {
          "internalType": "address",
          "name": "pair",
          "type": "address"
        }
      ],
      "stateMutability": "nonpayable",
      "type": "function"
    },
    {
      "inputs": [
        {
          "internalType": "address",
          "name": "_feeTo",
          "type": "address"
        }
      ],
      "name": "setFeeTo",
      "outputs": [],
      "stateMutability": "nonpayable",
      "type": "function"
    },
    {
      "inputs": [
        {
          "internalType": "address",
          "name": "_feeToSetter",
          "type": "address"
        }
      ],
      "name": "setFeeToSetter",
      "outputs": [],
      "stateMutability": "nonpayable",
      "type": "function"
    }
  ],
  "bytecode": "0x608060405234801561001057600080fd5b50604051612dd7380380612dd78339818101604052602081101561003357600080fd5b5051600180546001600160a01b0319166001600160a01b03909216919091179055612d74806100636000396000f3fe608060405234801561001057600080fd5b50600436106100a35760003560e01c80635855a25a11610076578063c9c653961161005b578063c9c653961461013b578063e6a4390514610169578063f46901ed14610197576100a3565b80635855a25a1461010b578063a2e74af614610113576100a3565b8063017e7e58146100a8578063094b7415146100cc5780631e3dd18b146100d4578063574f2ba3146100f1575b600080fd5b6100b06101bd565b604080516001600160a01b039092168252519081900360200190f35b6100b06101cc565b6100b0600480360360208110156100ea57600080fd5b50356101db565b6100f9610205565b60408051918252519081900360200190f35b6100f961020b565b6101396004803603602081101561012957600080fd5b50356001600160a01b03166102bc565b005b6100b06004803603604081101561015157600080fd5b506001600160a01b0381358116916020013516610355565b6100b06004803603604081101561017f57600080fd5b506001600160a01b038135811691602001351661069f565b610139600480360360208110156101ad57600080fd5b50356001600160a01b03166106c5565b6000546001600160a01b031681565b6001546001600160a01b031681565b600381815481106101eb57600080fd5b6000918252602090912001546001600160a01b0316905081565b60035490565b60405161021a6020820161075e565b6020820181038252601f19601f820116604052506040516020018082805190602001908083835b6020831061027e57805182527fffffffffffffffffffffffffffffffffffffffffffffffffffffffffffffffe09092019160209182019101610241565b6001836020036101000a0380198251168184511680821785525050505050509050019150506040516020818303038152906040528051906020012081565b6001546001600160a01b0316331461031b576040805162461bcd60e51b815260206004820152601260248201527f466163746f72793a20464f5242494444454e0000000000000000000000000000604482015290519081900360640190fd5b600180547fffffffffffffffffffffffff0000000000000000000000000000000000000000166001600160a01b0392909216919091179055565b6000816001600160a01b0316836001600160a01b031614156103be576040805162461bcd60e51b815260206004820152601c60248201527f466163746f72793a204944454e544943414c5f41444452455353455300000000604482015290519081900360640190fd5b600080836001600160a01b0316856001600160a01b0316106103e15783856103e4565b84845b90925090506001600160a01b038216610444576040805162461bcd60e51b815260206004820152601560248201527f466163746f72793a205a45524f5f414444524553530000000000000000000000604482015290519081900360640190fd5b6001600160a01b038281166000908152600260209081526040808320858516845290915290205416156104be576040805162461bcd60e51b815260206004820152601460248201527f466163746f72793a20504149525f455849535453000000000000000000000000604482015290519081900360640190fd5b6060604051806020016104d09061075e565b6020820181038252601f19601f8201166040525090506000838360405160200180836001600160a01b031660601b8152601401826001600160a01b031660601b815260140192505050604051602081830303815290604052805190602001209050808251602084016000f59450846001600160a01b031663485cc95585856040518363ffffffff1660e01b815260040180836001600160a01b03168152602001826001600160a01b0316815260200192505050600060405180830381600087803b15801561059d57600080fd5b505af11580156105b1573d6000803e3d6000fd5b505050506001600160a01b0384811660008181526002602081815260408084208987168086529083528185208054978d167fffffffffffffffffffffffff000000000000000000000000000000000000000098891681179091559383528185208686528352818520805488168517905560038054600181018255958190527fc2575a0e9e593c00f959f8c92f12db2869c3395a3b0502d05e2516446f71f85b90950180549097168417909655925483519283529082015281517f0d3648bd0f6ba80134a33ba9275ac585d9d315f0ad8355cddefde31afa28d0e9929181900390910190a35050505092915050565b60026020908152600092835260408084209091529082529020546001600160a01b031681565b6001546001600160a01b03163314610724576040805162461bcd60e51b815260206004820152601260248201527f466163746f72793a20464f5242494444454e0000000000000000000000000000604482015290519081900360640190fd5b600080547fffffffffffffffffffffffff0000000000000000000000000000000000000000166001600160a01b0392909216919091179055565b6125d38061076c8339019056fe60806040526001600c5534801561001557600080fd5b50604080518082018252601481527f4c69717569646974792d506f6f6c2d546f6b656e0000000000000000000000006020918201528151808301835260018152603160f81b9082015281517f8b73c3c69bb8fe3d512ecc4cf759cc79239f7b179b0ffacaa9a75d522b39400f818301527fee49096366cc590b73291b7aa9e5e091aa761dec637befae63796ffa4f337d4a818401527fc89efdaa54c0f20c7adf612882df0950f5a951637e0307cdcb4c672f298b8bc660608201524660808201523060a0808301919091528351808303909101815260c09091019092528151910120600355600580546001600160a01b031916331790556124b88061011b6000396000f3fe608060405234801561001057600080fd5b50600436106101b95760003560e01c80636a627842116100f9578063ba9a7a5611610097578063d21220a711610071578063d21220a71461054b578063d505accf14610553578063dd62ed3e146105a4578063fff6cae9146105d2576101b9565b8063ba9a7a5614610515578063bc25cf771461051d578063c45a015514610543576101b9565b80637ecebe00116100d35780637ecebe001461047c57806389afcb44146104a257806395d89b41146104e1578063a9059cbb146104e9576101b9565b80636a6278421461042857806370a082311461044e5780637464fc3d14610474576101b9565b806323b872dd116101665780633644e515116101405780633644e515146103e2578063485cc955146103ea5780635909c0d5146104185780635a3d549314610420576101b9565b806323b872dd1461038657806330adf81f146103bc578063313ce567146103c4576101b9565b8063095ea7b311610197578063095ea7b3146103085780630dfe16811461034857806318160ddd1461036c576101b9565b8063022c0d9f146101be57806306fdde031461024c5780630902f1ac146102c9575b600080fd5b61024a600480360360808110156101d457600080fd5b8135916020810135916001600160a01b03604083013516919081019060808101606082013564010000000081111561020b57600080fd5b82018360208201111561021d57600080fd5b8035906020019184600183028401116401000000008311171561023f57600080fd5b5090925090506105da565b005b610254610b7a565b6040805160208082528351818301528351919283929083019185019080838360005b8381101561028e578181015183820152602001610276565b50505050905090810190601f1680156102bb5780820380516001836020036101000a031916815260200191505b509250505060405180910390f35b6102d1610bb3565b604080516dffffffffffffffffffffffffffff948516815292909316602083015263ffffffff168183015290519081900360600190f35b6103346004803603604081101561031e57600080fd5b506001600160a01b038135169060200135610c08565b604080519115158252519081900360200190f35b610350610c1f565b604080516001600160a01b039092168252519081900360200190f35b610374610c2e565b60408051918252519081900360200190f35b6103346004803603606081101561039c57600080fd5b506001600160a01b03813581169160208101359091169060400135610c34565b610374610ce6565b6103cc610d0a565b6040805160ff9092168252519081900360200190f35b610374610d0f565b61024a6004803603604081101561040057600080fd5b506001600160a01b0381358116916020013516610d15565b610374610dba565b610374610dc0565b6103746004803603602081101561043e57600080fd5b50356001600160a01b0316610dc6565b6103746004803603602081101561046457600080fd5b50356001600160a01b03166110dc565b6103746110ee565b6103746004803603602081101561049257600080fd5b50356001600160a01b03166110f4565b6104c8600480360360208110156104b857600080fd5b50356001600160a01b0316611106565b6040805192835260208301919091528051918290030190f35b6102546114b8565b610334600480360360408110156104ff57600080fd5b506001600160a01b0381351690602001356114f1565b6103746114fe565b61024a6004803603602081101561053357600080fd5b50356001600160a01b0316611504565b610350611697565b6103506116a6565b61024a600480360360e081101561056957600080fd5b506001600160a01b03813581169160208101359091169060408101359060608101359060ff6080820135169060a08101359060c001356116b5565b610374600480360360408110156105ba57600080fd5b506001600160a01b03813581169160200135166118dd565b61024a6118fa565b600c54600114610631576040805162461bcd60e51b815260206004820152600c60248201527f537761703a204c4f434b45440000000000000000000000000000000000000000604482015290519081900360640190fd5b6000600c55841515806106445750600084115b610695576040805162461bcd60e51b815260206004820181905260248201527f506169723a20494e53554646494349454e545f4f55545055545f414d4f554e54604482015290519081900360640190fd5b6000806106a0610bb3565b5091509150816dffffffffffffffffffffffffffff16871080156106d35750806dffffffffffffffffffffffffffff1686105b610724576040805162461bcd60e51b815260206004820152601c60248201527f506169723a20494e53554646494349454e545f4c495155494449545900000000604482015290519081900360640190fd5b60065460075460009182916001600160a01b039182169190811690891682148015906107625750806001600160a01b0316896001600160a01b031614155b6107b3576040805162461bcd60e51b815260206004820152601060248201527f506169723a20494e56414c49445f544f00000000000000000000000000000000604482015290519081900360640190fd5b8a156107c4576107c4828a8d611a7a565b89156107d5576107d5818a8c611a7a565b861561088757886001600160a01b03166310d1e85c338d8d8c8c6040518663ffffffff1660e01b815260040180866001600160a01b03168152602001858152602001848152602001806020018281038252848482818152602001925080828437600081840152601f19601f8201169050808301925050509650505050505050600060405180830381600087803b15801561086e57600080fd5b505af1158015610882573d6000803e3d6000fd5b505050505b604080516370a0823160e01b815230600482015290516001600160a01b038416916370a08231916024808301926020929190829003018186803b1580156108cd57600080fd5b505afa1580156108e1573d6000803e3d6000fd5b505050506040513d60208110156108f757600080fd5b5051604080516370a0823160e01b815230600482015290519195506001600160a01b038316916370a0823191602480820192602092909190829003018186803b15801561094357600080fd5b505afa158015610957573d6000803e3d6000fd5b505050506040513d602081101561096d57600080fd5b5051925060009150506dffffffffffffffffffffffffffff85168a900383116109975760006109ad565b89856dffffffffffffffffffffffffffff160383035b9050600089856dffffffffffffffffffffffffffff160383116109d15760006109e7565b89856dffffffffffffffffffffffffffff160383035b905060008211806109f85750600081115b610a49576040805162461bcd60e51b815260206004820152601f60248201527f506169723a20494e53554646494349454e545f494e5055545f414d4f554e5400604482015290519081900360640190fd5b6000610a6b610a59846003611c42565b610a65876103e8611c42565b90611cae565b90506000610a7d610a59846003611c42565b9050610aa9620f4240610aa36dffffffffffffffffffffffffffff8b8116908b16611c42565b90611c42565b610ab38383611c42565b1015610b06576040805162461bcd60e51b815260206004820152600760248201527f506169723a204b00000000000000000000000000000000000000000000000000604482015290519081900360640190fd5b5050610b1484848888611d06565b60408051838152602081018390528082018d9052606081018c905290516001600160a01b038b169133917fd78ad95fa46c994b6551d0da85fc275fe613ce37657fb8d5e3d130840159d8229181900360800190a350506001600c55505050505050505050565b6040518060400160405280601481526020017f4c69717569646974792d506f6f6c2d546f6b656e00000000000000000000000081525081565b6008546dffffffffffffffffffffffffffff808216926e0100000000000000000000000000008304909116917c0100000000000000000000000000000000000000000000000000000000900463ffffffff1690565b6000610c15338484611fa2565b5060015b92915050565b6006546001600160a01b031681565b60005481565b6001600160a01b03831660009081526002602090815260408083203384529091528120547fffffffffffffffffffffffffffffffffffffffffffffffffffffffffffffffff14610cd1576001600160a01b0384166000908152600260209081526040808320338452909152902054610cac9083611cae565b6001600160a01b03851660009081526002602090815260408083203384529091529020555b610cdc848484612004565b5060019392505050565b7f6e71edae12b1b97f4d1f60370fef10105fa2faae0126114a169c64845d6126c981565b601281565b60035481565b6005546001600160a01b03163314610d74576040805162461bcd60e51b815260206004820152600f60248201527f506169723a20464f5242494444454e0000000000000000000000000000000000604482015290519081900360640190fd5b600680546001600160a01b039384167fffffffffffffffffffffffff00000000000000000000000000000000000000009182161790915560078054929093169116179055565b60095481565b600a5481565b6000600c54600114610e1f576040805162461bcd60e51b815260206004820152600c60248201527f537761703a204c4f434b45440000000000000000000000000000000000000000604482015290519081900360640190fd5b6000600c81905580610e2f610bb3565b50600654604080516370a0823160e01b815230600482015290519395509193506000926001600160a01b03909116916370a08231916024808301926020929190829003018186803b158015610e8357600080fd5b505afa158015610e97573d6000803e3d6000fd5b505050506040513d6020811015610ead57600080fd5b5051600754604080516370a0823160e01b815230600482015290519293506000926001600160a01b03909216916370a0823191602480820192602092909190829003018186803b158015610f0057600080fd5b505afa158015610f14573d6000803e3d6000fd5b505050506040513d6020811015610f2a57600080fd5b505190506000610f4a836dffffffffffffffffffffffffffff8716611cae565b90506000610f68836dffffffffffffffffffffffffffff8716611cae565b90506000610f7687876120b2565b60005490915080610fad57610f996103e8610a65610f948787611c42565b6121f9565b9850610fa860006103e861224b565b610ffe565b610ffb6dffffffffffffffffffffffffffff8916610fcb8684611c42565b81610fd257fe5b046dffffffffffffffffffffffffffff8916610fee8685611c42565b81610ff557fe5b046122d5565b98505b6000891161103d5760405162461bcd60e51b815260040180806020018281038252602381526020018061243d6023913960400191505060405180910390fd5b6110478a8a61224b565b61105386868a8a611d06565b811561108f5760085461108b906dffffffffffffffffffffffffffff808216916e010000000000000000000000000000900416611c42565b600b555b6040805185815260208101859052815133927f4c209b5fc8ad50758f13e2e1088ba56a560dff690a1c6fef26394f4c03821c4f928290030190a250506001600c5550949695505050505050565b60016020526000908152604090205481565b600b5481565b60046020526000908152604090205481565b600080600c54600114611160576040805162461bcd60e51b815260206004820152600c60248201527f537761703a204c4f434b45440000000000000000000000000000000000000000604482015290519081900360640190fd5b6000600c81905580611170610bb3565b50600654600754604080516370a0823160e01b815230600482015290519496509294506001600160a01b039182169391169160009184916370a08231916024808301926020929190829003018186803b1580156111cc57600080fd5b505afa1580156111e0573d6000803e3d6000fd5b505050506040513d60208110156111f657600080fd5b5051604080516370a0823160e01b815230600482015290519192506000916001600160a01b038516916370a08231916024808301926020929190829003018186803b15801561124457600080fd5b505afa158015611258573d6000803e3d6000fd5b505050506040513d602081101561126e57600080fd5b50513060009081526001602052604081205491925061128d88886120b2565b6000549091508061129e8487611c42565b816112a557fe5b049a50806112b38486611c42565b816112ba57fe5b04995060008b1180156112cd575060008a115b6113085760405162461bcd60e51b81526004018080602001828103825260238152602001806124606023913960400191505060405180910390fd5b61131230846122ed565b61131d878d8d611a7a565b611328868d8c611a7a565b604080516370a0823160e01b815230600482015290516001600160a01b038916916370a08231916024808301926020929190829003018186803b15801561136e57600080fd5b505afa158015611382573d6000803e3d6000fd5b505050506040513d602081101561139857600080fd5b5051604080516370a0823160e01b815230600482015290519196506001600160a01b038816916370a0823191602480820192602092909190829003018186803b1580156113e457600080fd5b505afa1580156113f8573d6000803e3d6000fd5b505050506040513d602081101561140e57600080fd5b5051935061141e85858b8b611d06565b811561145a57600854611456906dffffffffffffffffffffffffffff808216916e010000000000000000000000000000900416611c42565b600b555b604080518c8152602081018c905281516001600160a01b038f169233927fdccd412f0b1252819cb1fd330b93224ca42612892bb3f4f789976e6d81936496929081900390910190a35050505050505050506001600c81905550915091565b6040518060400160405280600881526020017f4c502d544f4b454e00000000000000000000000000000000000000000000000081525081565b6000610c15338484612004565b6103e881565b600c5460011461155b576040805162461bcd60e51b815260206004820152600c60248201527f537761703a204c4f434b45440000000000000000000000000000000000000000604482015290519081900360640190fd5b6000600c55600654600754600854604080516370a0823160e01b815230600482015290516001600160a01b03948516949093169261160b9285928792611606926dffffffffffffffffffffffffffff169185916370a0823191602480820192602092909190829003018186803b1580156115d457600080fd5b505afa1580156115e8573d6000803e3d6000fd5b505050506040513d60208110156115fe57600080fd5b505190611cae565b611a7a565b61168d81846116066008600e9054906101000a90046dffffffffffffffffffffffffffff166dffffffffffffffffffffffffffff16856001600160a01b03166370a08231306040518263ffffffff1660e01b815260040180826001600160a01b0316815260200191505060206040518083038186803b1580156115d457600080fd5b50506001600c5550565b6005546001600160a01b031681565b6007546001600160a01b031681565b4284101561170a576040805162461bcd60e51b815260206004820152600e60248201527f45524332303a2045585049524544000000000000000000000000000000000000604482015290519081900360640190fd5b6003546001600160a01b0380891660008181526004602090815260408083208054600180820190925582517f6e71edae12b1b97f4d1f60370fef10105fa2faae0126114a169c64845d6126c98186015280840196909652958d166060860152608085018c905260a085019590955260c08085018b90528151808603909101815260e0850182528051908301207f19010000000000000000000000000000000000000000000000000000000000006101008601526101028501969096526101228085019690965280518085039096018652610142840180825286519683019690962095839052610162840180825286905260ff89166101828501526101a284018890526101c28401879052519193926101e280820193601f1981019281900390910190855afa158015611840573d6000803e3d6000fd5b5050604051601f1901519150506001600160a01b038116158015906118765750886001600160a01b0316816001600160a01b0316145b6118c7576040805162461bcd60e51b815260206004820152601860248201527f45524332303a20494e56414c49445f5349474e41545552450000000000000000604482015290519081900360640190fd5b6118d2898989611fa2565b505050505050505050565b600260209081526000928352604080842090915290825290205481565b600c54600114611951576040805162461bcd60e51b815260206004820152600c60248201527f537761703a204c4f434b45440000000000000000000000000000000000000000604482015290519081900360640190fd5b6000600c55600654604080516370a0823160e01b81523060048201529051611a73926001600160a01b0316916370a08231916024808301926020929190829003018186803b1580156119a257600080fd5b505afa1580156119b6573d6000803e3d6000fd5b505050506040513d60208110156119cc57600080fd5b5051600754604080516370a0823160e01b815230600482015290516001600160a01b03909216916370a0823191602480820192602092909190829003018186803b158015611a1957600080fd5b505afa158015611a2d573d6000803e3d6000fd5b505050506040513d6020811015611a4357600080fd5b50516008546dffffffffffffffffffffffffffff808216916e010000000000000000000000000000900416611d06565b6001600c55565b604080518082018252601981527f7472616e7366657228616464726573732c75696e74323536290000000000000060209182015281516001600160a01b0385811660248301526044808301869052845180840390910181526064909201845291810180517bffffffffffffffffffffffffffffffffffffffffffffffffffffffff167fa9059cbb000000000000000000000000000000000000000000000000000000001781529251815160009460609489169392918291908083835b60208310611b555780518252601f199092019160209182019101611b36565b6001836020036101000a0380198251168184511680821785525050505050509050019150506000604051808303816000865af19150503d8060008114611bb7576040519150601f19603f3d011682016040523d82523d6000602084013e611bbc565b606091505b5091509150818015611bea575080511580611bea5750808060200190516020811015611be757600080fd5b50515b611c3b576040805162461bcd60e51b815260206004820152601560248201527f506169723a205452414e534645525f4641494c45440000000000000000000000604482015290519081900360640190fd5b5050505050565b6000811580611c5d57505080820282828281611c5a57fe5b04145b610c19576040805162461bcd60e51b815260206004820152601460248201527f64732d6d6174682d6d756c2d6f766572666c6f77000000000000000000000000604482015290519081900360640190fd5b80820382811115610c19576040805162461bcd60e51b815260206004820152601560248201527f64732d6d6174682d7375622d756e646572666c6f770000000000000000000000604482015290519081900360640190fd5b6dffffffffffffffffffffffffffff8411801590611d3257506dffffffffffffffffffffffffffff8311155b611d83576040805162461bcd60e51b815260206004820152600e60248201527f506169723a204f564552464c4f57000000000000000000000000000000000000604482015290519081900360640190fd5b60085463ffffffff428116917c010000000000000000000000000000000000000000000000000000000090048116820390811615801590611dd357506dffffffffffffffffffffffffffff841615155b8015611dee57506dffffffffffffffffffffffffffff831615155b15611e98578063ffffffff16611e2b85611e078661237f565b7bffffffffffffffffffffffffffffffffffffffffffffffffffffffff16906123a3565b600980547bffffffffffffffffffffffffffffffffffffffffffffffffffffffff929092169290920201905563ffffffff8116611e6b84611e078761237f565b600a80547bffffffffffffffffffffffffffffffffffffffffffffffffffffffff92909216929092020190555b600880547fffffffffffffffffffffffffffffffffffff0000000000000000000000000000166dffffffffffffffffffffffffffff888116919091177fffffffff0000000000000000000000000000ffffffffffffffffffffffffffff166e0100000000000000000000000000008883168102919091177bffffffffffffffffffffffffffffffffffffffffffffffffffffffff167c010000000000000000000000000000000000000000000000000000000063ffffffff871602179283905560408051848416815291909304909116602082015281517f1c411e9a96e071241c2f21f7726b17ae89e3cab4c78be50e062b03a9fffbbad1929181900390910190a1505050505050565b6001600160a01b03808416600081815260026020908152604080832094871680845294825291829020859055815185815291517f8c5be1e5ebec7d5bd14f71427d1e84f3dd0314c0f7b2291e5b200ac8c7c3b9259281900390910190a3505050565b6001600160a01b0383166000908152600160205260409020546120279082611cae565b6001600160a01b03808516600090815260016020526040808220939093559084168152205461205690826123e4565b6001600160a01b0380841660008181526001602090815260409182902094909455805185815290519193928716927fddf252ad1be2c89b69c2b068fc378daa952ba7f163c4a11628f55a4df523b3ef92918290030190a3505050565b600080600560009054906101000a90046001600160a01b03166001600160a01b031663017e7e586040518163ffffffff1660e01b815260040160206040518083038186803b15801561210357600080fd5b505afa158015612117573d6000803e3d6000fd5b505050506040513d602081101561212d57600080fd5b5051600b546001600160a01b0382161580159450919250906121e55780156121e0576000612171610f946dffffffffffffffffffffffffffff888116908816611c42565b9050600061217e836121f9565b9050808211156121dd5760006121a06121978484611cae565b60005490611c42565b905060006121b9836121b3866005611c42565b906123e4565b905060008183816121c657fe5b04905080156121d9576121d9878261224b565b5050505b50505b6121f1565b80156121f1576000600b555b505092915050565b6000600382111561223c575080600160028204015b818110156122365780915060028182858161222557fe5b04018161222e57fe5b04905061220e565b50612246565b8115612246575060015b919050565b60005461225890826123e4565b60009081556001600160a01b03831681526001602052604090205461227d90826123e4565b6001600160a01b03831660008181526001602090815260408083209490945583518581529351929391927fddf252ad1be2c89b69c2b068fc378daa952ba7f163c4a11628f55a4df523b3ef9281900390910190a35050565b60008183106122e457816122e6565b825b9392505050565b6001600160a01b0382166000908152600160205260409020546123109082611cae565b6001600160a01b038316600090815260016020526040812091909155546123379082611cae565b60009081556040805183815290516001600160a01b038516917fddf252ad1be2c89b69c2b068fc378daa952ba7f163c4a11628f55a4df523b3ef919081900360200190a35050565b6dffffffffffffffffffffffffffff166e0100000000000000000000000000000290565b60006dffffffffffffffffffffffffffff82167bffffffffffffffffffffffffffffffffffffffffffffffffffffffff8416816123dc57fe5b049392505050565b80820182811015610c19576040805162461bcd60e51b815260206004820152601460248201527f64732d6d6174682d6164642d6f766572666c6f77000000000000000000000000604482015290519081900360640190fdfe506169723a20494e53554646494349454e545f4c49515549444954595f4d494e544544506169723a20494e53554646494349454e545f4c49515549444954595f4255524e4544a26469706673582212200c7127ddba9cb989b141940093e129dacd06da45f349b66c99bafdc0ef34558f64736f6c63430007050033a264697066735822122089b88ca73769c792155d6b9fce6fe791c32dbe9fcd128aee947574ce06a973ba64736f6c63430007050033",
  "immutableReferences": {},
  "source": "// SPDX-License-Identifier: MIT\npragma solidity =0.7.5;\n\nimport './interfaces/IUniswapV2Factory.sol';\nimport './Pair.sol';\n\ncontract Factory is IUniswapV2Factory {\n    address public override feeTo;\n    address public override feeToSetter;\n    bytes32 public constant INIT_CODE_PAIR_HASH = keccak256(abi.encodePacked(type(Pair).creationCode));\n\n    mapping(address => mapping(address => address)) public override getPair;\n    address[] public override allPairs;\n\n    constructor(address _feeToSetter) {\n        feeToSetter = _feeToSetter;\n    }\n\n    function allPairsLength() external override view returns (uint256) {\n        return allPairs.length;\n    }\n\n    function createPair(address tokenA, address tokenB) external override returns (address pair) {\n        require(tokenA != tokenB, 'Factory: IDENTICAL_ADDRESSES');\n        (address token0, address token1) = tokenA < tokenB ? (tokenA, tokenB) : (tokenB, tokenA);\n        require(token0 != address(0), 'Factory: ZERO_ADDRESS');\n        require(getPair[token0][token1] == address(0), 'Factory: PAIR_EXISTS'); // single check is sufficient\n        bytes memory bytecode = type(Pair).creationCode;\n        bytes32 salt = keccak256(abi.encodePacked(token0, token1));\n        assembly {\n            pair := create2(0, add(bytecode, 32), mload(bytecode), salt)\n        }\n        IUniswapV2Pair(pair).initialize(token0, token1);\n        getPair[token0][token1] = pair;\n        getPair[token1][token0] = pair; // populate mapping in the reverse direction\n        allPairs.push(pair);\n        emit PairCreated(token0, token1, pair, allPairs.length);\n    }\n\n    function setFeeTo(address _feeTo) external override {\n        require(msg.sender == feeToSetter, 'Factory: FORBIDDEN');\n        feeTo = _feeTo;\n    }\n\n    function setFeeToSetter(address _feeToSetter) external override {\n        require(msg.sender == feeToSetter, 'Factory: FORBIDDEN');\n        feeToSetter = _feeToSetter;\n    }\n}\n",
  "sourcePath": "/home/user/Github/solidity/core/contracts/Factory.sol",
  "compiler": {
    "name": "solc",
    "version": "0.7.5+commit.eb77ed08.Emscripten.clang"
  },
  "schemaVersion": "3.4.3",
  "updatedAt": "2021-11-19T08:57:59.227Z",
  "devdoc": {
    "kind": "dev",
    "methods": {},
    "version": 1
  },
  "userdoc": {
    "kind": "user",
    "methods": {},
    "version": 1
  }
}