{
  "contractName": "Factory",
  "abi": [
    {
      "inputs": [
        {
          "internalType": "address",
          "name": "_feeToSetter",
          "type": "address"
        }
      ],
      "stateMutability": "nonpayable",
      "type": "constructor"
    },
    {
      "anonymous": false,
      "inputs": [
        {
          "indexed": true,
          "internalType": "address",
          "name": "token0",
          "type": "address"
        },
        {
          "indexed": true,
          "internalType": "address",
          "name": "token1",
          "type": "address"
        },
        {
          "indexed": false,
          "internalType": "address",
          "name": "pair",
          "type": "address"
        },
        {
          "indexed": false,
          "internalType": "uint256",
          "name": "",
          "type": "uint256"
        }
      ],
      "name": "PairCreated",
      "type": "event"
    },
    {
      "inputs": [],
      "name": "INIT_CODE_PAIR_HASH",
      "outputs": [
        {
          "internalType": "bytes32",
          "name": "",
          "type": "bytes32"
        }
      ],
      "stateMutability": "view",
      "type": "function"
    },
    {
      "inputs": [],
      "name": "allFeeToProtocol",
      "outputs": [
        {
          "internalType": "bool",
          "name": "",
          "type": "bool"
        }
      ],
      "stateMutability": "view",
      "type": "function"
    },
    {
      "inputs": [
        {
          "internalType": "uint256",
          "name": "",
          "type": "uint256"
        }
      ],
      "name": "allPairs",
      "outputs": [
        {
          "internalType": "address",
          "name": "",
          "type": "address"
        }
      ],
      "stateMutability": "view",
      "type": "function"
    },
    {
      "inputs": [],
      "name": "feeTo",
      "outputs": [
        {
          "internalType": "address",
          "name": "",
          "type": "address"
        }
      ],
      "stateMutability": "view",
      "type": "function"
    },
    {
      "inputs": [],
      "name": "feeToSetter",
      "outputs": [
        {
          "internalType": "address",
          "name": "",
          "type": "address"
        }
      ],
      "stateMutability": "view",
      "type": "function"
    },
    {
      "inputs": [
        {
          "internalType": "address",
          "name": "",
          "type": "address"
        },
        {
          "internalType": "address",
          "name": "",
          "type": "address"
        }
      ],
      "name": "getPair",
      "outputs": [
        {
          "internalType": "address",
          "name": "",
          "type": "address"
        }
      ],
      "stateMutability": "view",
      "type": "function"
    },
    {
      "inputs": [],
      "name": "protocolFee",
      "outputs": [
        {
          "internalType": "uint256",
          "name": "",
          "type": "uint256"
        }
      ],
      "stateMutability": "view",
      "type": "function"
    },
    {
      "inputs": [],
      "name": "totalFee",
      "outputs": [
        {
          "internalType": "uint256",
          "name": "",
          "type": "uint256"
        }
      ],
      "stateMutability": "view",
      "type": "function"
    },
    {
      "inputs": [],
      "name": "allPairsLength",
      "outputs": [
        {
          "internalType": "uint256",
          "name": "",
          "type": "uint256"
        }
      ],
      "stateMutability": "view",
      "type": "function"
    },
    {
      "inputs": [],
      "name": "allInfo",
      "outputs": [
        {
          "components": [
            {
              "internalType": "uint256",
              "name": "protocolFee",
              "type": "uint256"
            },
            {
              "internalType": "uint256",
              "name": "totalFee",
              "type": "uint256"
            },
            {
              "internalType": "address",
              "name": "feeTo",
              "type": "address"
            },
            {
              "internalType": "address",
              "name": "feeToSetter",
              "type": "address"
            },
            {
              "internalType": "bytes32",
              "name": "INIT_CODE_PAIR_HASH",
              "type": "bytes32"
            },
            {
              "internalType": "bool",
              "name": "allFeeToProtocol",
              "type": "bool"
            }
          ],
          "internalType": "struct IUniswapV2Factory.AllInfo",
          "name": "",
          "type": "tuple"
        }
      ],
      "stateMutability": "view",
      "type": "function"
    },
    {
      "inputs": [
        {
          "internalType": "address",
          "name": "tokenA",
          "type": "address"
        },
        {
          "internalType": "address",
          "name": "tokenB",
          "type": "address"
        }
      ],
      "name": "createPair",
      "outputs": [
        {
          "internalType": "address",
          "name": "pair",
          "type": "address"
        }
      ],
      "stateMutability": "nonpayable",
      "type": "function"
    },
    {
      "inputs": [
        {
          "internalType": "address",
          "name": "_feeTo",
          "type": "address"
        }
      ],
      "name": "setFeeTo",
      "outputs": [],
      "stateMutability": "nonpayable",
      "type": "function"
    },
    {
      "inputs": [
        {
          "internalType": "address",
          "name": "_feeToSetter",
          "type": "address"
        }
      ],
      "name": "setFeeToSetter",
      "outputs": [],
      "stateMutability": "nonpayable",
      "type": "function"
    },
    {
      "inputs": [
        {
          "internalType": "bool",
          "name": "_allFeeToProtocol",
          "type": "bool"
        }
      ],
      "name": "setAllFeeToProtocol",
      "outputs": [],
      "stateMutability": "nonpayable",
      "type": "function"
    },
    {
      "inputs": [
        {
          "internalType": "uint256",
          "name": "_protocolFee",
          "type": "uint256"
        }
      ],
      "name": "setProtocolFee",
      "outputs": [],
      "stateMutability": "nonpayable",
      "type": "function"
    },
    {
      "inputs": [
        {
          "internalType": "uint256",
          "name": "_totalFee",
          "type": "uint256"
        }
      ],
      "name": "setTotalFee",
      "outputs": [],
      "stateMutability": "nonpayable",
      "type": "function"
    }
  ],
  "bytecode": "0x608060405234801561001057600080fd5b50604051613fdf380380613fdf83398101604081905261002f9161005f565b600380546001600160a01b0319166001600160a01b039290921691909117905560056000556103e560015561008d565b600060208284031215610070578081fd5b81516001600160a01b0381168114610086578182fd5b9392505050565b613f438061009c6000396000f3fe608060405234801561001057600080fd5b50600436106101005760003560e01c8063a2e74af611610097578063e6a4390511610066578063e6a43905146101ce578063ef7adc00146101e1578063f1f5aa74146101f6578063f46901ed1461020957610100565b8063a2e74af61461018b578063b0e21e8a1461019e578063b8ff5038146101a6578063c9c65396146101bb57610100565b8063574f2ba3116100d3578063574f2ba3146101535780635855a25a1461015b578063787dce3d14610163578063992d0ebb1461017857610100565b8063017e7e5814610105578063094b7415146101235780631df4ccfc1461012b5780631e3dd18b14610140575b600080fd5b61010d61021c565b60405161011a9190610bff565b60405180910390f35b61010d610238565b610133610254565b60405161011a9190610c78565b61010d61014e366004610b74565b61025a565b610133610291565b610133610297565b610176610171366004610b74565b6102ff565b005b610176610186366004610b74565b610398565b610176610199366004610b01565b610428565b6101336104c0565b6101ae6104c6565b60405161011a9190610c6d565b61010d6101c9366004610b22565b6104e7565b61010d6101dc366004610b22565b610830565b6101e9610863565b60405161011a9190610d94565b610176610204366004610b54565b610963565b610176610217366004610b01565b6109fe565b60025473ffffffffffffffffffffffffffffffffffffffff1681565b60035473ffffffffffffffffffffffffffffffffffffffff1681565b60015481565b6005818154811061026a57600080fd5b60009182526020909120015473ffffffffffffffffffffffffffffffffffffffff16905081565b60055490565b6040516102a660208201610a96565b7fffffffffffffffffffffffffffffffffffffffffffffffffffffffffffffffe082820381018352601f9091011660408190526102e69190602001610bc6565b6040516020818303038152906040528051906020012081565b60035473ffffffffffffffffffffffffffffffffffffffff163314610359576040517f08c379a000000000000000000000000000000000000000000000000000000000815260040161035090610d26565b60405180910390fd5b60008111610393576040517f08c379a000000000000000000000000000000000000000000000000000000000815260040161035090610cef565b600055565b60035473ffffffffffffffffffffffffffffffffffffffff1633146103e9576040517f08c379a000000000000000000000000000000000000000000000000000000000815260040161035090610d26565b60008111610423576040517f08c379a000000000000000000000000000000000000000000000000000000000815260040161035090610cef565b600155565b60035473ffffffffffffffffffffffffffffffffffffffff163314610479576040517f08c379a000000000000000000000000000000000000000000000000000000000815260040161035090610d26565b600380547fffffffffffffffffffffffff00000000000000000000000000000000000000001673ffffffffffffffffffffffffffffffffffffffff92909216919091179055565b60005481565b60035474010000000000000000000000000000000000000000900460ff1681565b60008173ffffffffffffffffffffffffffffffffffffffff168373ffffffffffffffffffffffffffffffffffffffff16141561054f576040517f08c379a000000000000000000000000000000000000000000000000000000000815260040161035090610c81565b6000808373ffffffffffffffffffffffffffffffffffffffff168573ffffffffffffffffffffffffffffffffffffffff161061058c57838561058f565b84845b909250905073ffffffffffffffffffffffffffffffffffffffff82166105e1576040517f08c379a000000000000000000000000000000000000000000000000000000000815260040161035090610d5d565b73ffffffffffffffffffffffffffffffffffffffff82811660009081526004602090815260408083208585168452909152902054161561064d576040517f08c379a000000000000000000000000000000000000000000000000000000000815260040161035090610cb8565b60006040518060200161065f90610a96565b6020820181038252601f19601f8201166040525090506000838360405160200161068a929190610b8c565b604051602081830303815290604052805190602001209050808251602084016000f56040517f485cc95500000000000000000000000000000000000000000000000000000000815290955073ffffffffffffffffffffffffffffffffffffffff86169063485cc955906107039087908790600401610c20565b600060405180830381600087803b15801561071d57600080fd5b505af1158015610731573d6000803e3d6000fd5b5050505073ffffffffffffffffffffffffffffffffffffffff84811660008181526004602081815260408084208987168086529083528185208054978d167fffffffffffffffffffffffff00000000000000000000000000000000000000009889168117909155938352818520868652909252808420805487168417905560058054600181018255948190527f036b6384b5eca791c62761152d0c79bb0604c104a5fb6f4eb0703f3154bb3db09094018054909616909217909455905490517f0d3648bd0f6ba80134a33ba9275ac585d9d315f0ad8355cddefde31afa28d0e99161081e918a9190610c47565b60405180910390a35050505092915050565b600460209081526000928352604080842090915290825290205473ffffffffffffffffffffffffffffffffffffffff1681565b61086b610aa3565b6040805160c081018252600054815260015460208083019190915260025473ffffffffffffffffffffffffffffffffffffffff90811683850152600354166060830152915190916080830191906108c3908201610a96565b7fffffffffffffffffffffffffffffffffffffffffffffffffffffffffffffffe082820381018352601f9091011660408190526109039190602001610bc6565b604080518083037fffffffffffffffffffffffffffffffffffffffffffffffffffffffffffffffe00181529190528051602091820120825260035474010000000000000000000000000000000000000000900460ff161515910152919050565b60035473ffffffffffffffffffffffffffffffffffffffff1633146109b4576040517f08c379a000000000000000000000000000000000000000000000000000000000815260040161035090610d26565b6003805491151574010000000000000000000000000000000000000000027fffffffffffffffffffffff00ffffffffffffffffffffffffffffffffffffffff909216919091179055565b60035473ffffffffffffffffffffffffffffffffffffffff163314610a4f576040517f08c379a000000000000000000000000000000000000000000000000000000000815260040161035090610d26565b600280547fffffffffffffffffffffffff00000000000000000000000000000000000000001673ffffffffffffffffffffffffffffffffffffffff92909216919091179055565b61311780610df783390190565b6040805160c081018252600080825260208201819052918101829052606081018290526080810182905260a081019190915290565b803573ffffffffffffffffffffffffffffffffffffffff81168114610afc57600080fd5b919050565b600060208284031215610b12578081fd5b610b1b82610ad8565b9392505050565b60008060408385031215610b34578081fd5b610b3d83610ad8565b9150610b4b60208401610ad8565b90509250929050565b600060208284031215610b65578081fd5b81358015158114610b1b578182fd5b600060208284031215610b85578081fd5b5035919050565b7fffffffffffffffffffffffffffffffffffffffff000000000000000000000000606093841b811682529190921b16601482015260280190565b60008251815b81811015610be65760208186018101518583015201610bcc565b81811115610bf45782828501525b509190910192915050565b73ffffffffffffffffffffffffffffffffffffffff91909116815260200190565b73ffffffffffffffffffffffffffffffffffffffff92831681529116602082015260400190565b73ffffffffffffffffffffffffffffffffffffffff929092168252602082015260400190565b901515815260200190565b90815260200190565b6020808252601c908201527f466163746f72793a204944454e544943414c5f41444452455353455300000000604082015260600190565b60208082526014908201527f466163746f72793a20504149525f455849535453000000000000000000000000604082015260600190565b60208082526016908201527f466163746f72793a20464f5242494444454e5f46454500000000000000000000604082015260600190565b60208082526012908201527f466163746f72793a20464f5242494444454e0000000000000000000000000000604082015260600190565b60208082526015908201527f466163746f72793a205a45524f5f414444524553530000000000000000000000604082015260600190565b600060c0820190508251825260208301516020830152604083015173ffffffffffffffffffffffffffffffffffffffff808216604085015280606086015116606085015250506080830151608083015260a0830151151560a08301529291505056fe60806040526001600c5534801561001557600080fd5b50604080518082018252601481527f4c69717569646974792d506f6f6c2d546f6b656e0000000000000000000000006020918201528151808301835260018152603160f81b90820152905146916100d6917f8b73c3c69bb8fe3d512ecc4cf759cc79239f7b179b0ffacaa9a75d522b39400f917fee49096366cc590b73291b7aa9e5e091aa761dec637befae63796ffa4f337d4a917fc89efdaa54c0f20c7adf612882df0950f5a951637e0307cdcb4c672f298b8bc6918691309101610109565b60408051601f19818403018152919052805160209091012060035550600580546001600160a01b03191633179055610135565b9485526020850193909352604084019190915260608301526001600160a01b0316608082015260a00190565b612fd280620001456000396000f3fe608060405234801561001057600080fd5b50600436106101b95760003560e01c80636a627842116100f9578063ba9a7a5611610097578063d21220a711610071578063d21220a71461034d578063d505accf14610355578063dd62ed3e14610368578063fff6cae91461037b576101b9565b8063ba9a7a561461032a578063bc25cf7714610332578063c45a015514610345576101b9565b80637ecebe00116100d35780637ecebe00146102db57806389afcb44146102ee57806395d89b411461030f578063a9059cbb14610317576101b9565b80636a627842146102ad57806370a08231146102c05780637464fc3d146102d3576101b9565b806323b872dd116101665780633644e515116101405780633644e51514610282578063485cc9551461028a5780635909c0d51461029d5780635a3d5493146102a5576101b9565b806323b872dd1461025257806330adf81f14610265578063313ce5671461026d576101b9565b8063095ea7b311610197578063095ea7b3146102085780630dfe16811461022857806318160ddd1461023d576101b9565b8063022c0d9f146101be57806306fdde03146101d35780630902f1ac146101f1575b600080fd5b6101d16101cc3660046126d0565b610383565b005b6101db610932565b6040516101e891906128e5565b60405180910390f35b6101f961096b565b6040516101e893929190612d11565b61021b61021636600461266d565b6109c0565b6040516101e89190612872565b6102306109d7565b6040516101e891906127b3565b6102456109f3565b6040516101e8919061287d565b61021b6102603660046125b8565b6109f9565b610245610ad2565b610275610af6565b6040516101e89190612d6a565b610245610afb565b6101d1610298366004612580565b610b01565b610245610ba5565b610245610bab565b6102456102bb366004612548565b610bb1565b6102456102ce366004612548565b610f20565b610245610f32565b6102456102e9366004612548565b610f38565b6103016102fc366004612548565b610f4a565b6040516101e8929190612d41565b6101db6113a3565b61021b61032536600461266d565b6113dc565b6102456113e9565b6101d1610340366004612548565b6113ef565b61023061157e565b61023061159a565b6101d16103633660046125f8565b6115b6565b610245610376366004612580565b6117b7565b6101d16117d4565b600c546001146103c8576040517f08c379a00000000000000000000000000000000000000000000000000000000081526004016103bf90612a01565b60405180910390fd5b6000600c55841515806103db5750600084115b610411576040517f08c379a00000000000000000000000000000000000000000000000000000000081526004016103bf90612c4d565b60008061041c61096b565b5091509150816dffffffffffffffffffffffffffff168710801561044f5750806dffffffffffffffffffffffffffff1686105b610485576040517f08c379a00000000000000000000000000000000000000000000000000000000081526004016103bf90612c82565b600654600754600091829173ffffffffffffffffffffffffffffffffffffffff9182169190811690891682148015906104ea57508073ffffffffffffffffffffffffffffffffffffffff168973ffffffffffffffffffffffffffffffffffffffff1614155b610520576040517f08c379a00000000000000000000000000000000000000000000000000000000081526004016103bf90612ba8565b8a1561053157610531828a8d611998565b891561054257610542818a8c611998565b86156105d5576040517f10d1e85c00000000000000000000000000000000000000000000000000000000815273ffffffffffffffffffffffffffffffffffffffff8a16906310d1e85c906105a29033908f908f908e908e906004016127fa565b600060405180830381600087803b1580156105bc57600080fd5b505af11580156105d0573d6000803e3d6000fd5b505050505b6040517f70a0823100000000000000000000000000000000000000000000000000000000815273ffffffffffffffffffffffffffffffffffffffff8316906370a08231906106279030906004016127b3565b60206040518083038186803b15801561063f57600080fd5b505afa158015610653573d6000803e3d6000fd5b505050506040513d601f19601f8201168201806040525081019061067791906126b8565b6040517f70a0823100000000000000000000000000000000000000000000000000000000815290945073ffffffffffffffffffffffffffffffffffffffff8216906370a08231906106cc9030906004016127b3565b60206040518083038186803b1580156106e457600080fd5b505afa1580156106f8573d6000803e3d6000fd5b505050506040513d601f19601f8201168201806040525081019061071c91906126b8565b92505050600089856dffffffffffffffffffffffffffff1661073e9190612e60565b831161074b57600061076f565b6107658a6dffffffffffffffffffffffffffff8716612e60565b61076f9084612e60565b9050600061078d8a6dffffffffffffffffffffffffffff8716612e60565b831161079a5760006107be565b6107b48a6dffffffffffffffffffffffffffff8716612e60565b6107be9084612e60565b905060008211806107cf5750600081115b610805576040517f08c379a00000000000000000000000000000000000000000000000000000000081526004016103bf90612bdf565b6000610827610815846003611b4e565b610821876103e8611b4e565b90611ba8565b90506000610839610815846003611b4e565b9050610865620f424061085f6dffffffffffffffffffffffffffff8b8116908b16611b4e565b90611b4e565b61086f8383611b4e565b10156108a7576040517f08c379a00000000000000000000000000000000000000000000000000000000081526004016103bf90612c16565b50506108b584848888611bf0565b8873ffffffffffffffffffffffffffffffffffffffff163373ffffffffffffffffffffffffffffffffffffffff167fd78ad95fa46c994b6551d0da85fc275fe613ce37657fb8d5e3d130840159d82284848f8f6040516109189493929190612d4f565b60405180910390a350506001600c55505050505050505050565b6040518060400160405280601481526020017f4c69717569646974792d506f6f6c2d546f6b656e00000000000000000000000081525081565b6008546dffffffffffffffffffffffffffff808216926e0100000000000000000000000000008304909116917c0100000000000000000000000000000000000000000000000000000000900463ffffffff1690565b60006109cd338484611eb3565b5060015b92915050565b60065473ffffffffffffffffffffffffffffffffffffffff1681565b60005481565b73ffffffffffffffffffffffffffffffffffffffff831660009081526002602090815260408083203384529091528120547fffffffffffffffffffffffffffffffffffffffffffffffffffffffffffffffff14610abd5773ffffffffffffffffffffffffffffffffffffffff84166000908152600260209081526040808320338452909152902054610a8b9083611ba8565b73ffffffffffffffffffffffffffffffffffffffff851660009081526002602090815260408083203384529091529020555b610ac8848484611f28565b5060019392505050565b7f6e71edae12b1b97f4d1f60370fef10105fa2faae0126114a169c64845d6126c981565b601281565b60035481565b60055473ffffffffffffffffffffffffffffffffffffffff163314610b52576040517f08c379a00000000000000000000000000000000000000000000000000000000081526004016103bf90612b03565b6006805473ffffffffffffffffffffffffffffffffffffffff9384167fffffffffffffffffffffffff00000000000000000000000000000000000000009182161790915560078054929093169116179055565b60095481565b600a5481565b6000600c54600114610bef576040517f08c379a00000000000000000000000000000000000000000000000000000000081526004016103bf90612a01565b6000600c81905580610bff61096b565b506006546040517f70a0823100000000000000000000000000000000000000000000000000000000815292945090925060009173ffffffffffffffffffffffffffffffffffffffff909116906370a0823190610c5f9030906004016127b3565b60206040518083038186803b158015610c7757600080fd5b505afa158015610c8b573d6000803e3d6000fd5b505050506040513d601f19601f82011682018060405250810190610caf91906126b8565b6007546040517f70a0823100000000000000000000000000000000000000000000000000000000815291925060009173ffffffffffffffffffffffffffffffffffffffff909116906370a0823190610d0b9030906004016127b3565b60206040518083038186803b158015610d2357600080fd5b505afa158015610d37573d6000803e3d6000fd5b505050506040513d601f19601f82011682018060405250810190610d5b91906126b8565b90506000610d79836dffffffffffffffffffffffffffff8716611ba8565b90506000610d97836dffffffffffffffffffffffffffff8716611ba8565b90506000610da58787611ff3565b60005490915080610ddc57610dc86103e8610821610dc38787611b4e565b6122d9565b9850610dd760006103e8612349565b610e31565b610e2e6dffffffffffffffffffffffffffff8916610dfa8684611b4e565b610e049190612dcb565b6dffffffffffffffffffffffffffff8916610e1f8685611b4e565b610e299190612dcb565b6123f0565b98505b60008911610e6b576040517f08c379a00000000000000000000000000000000000000000000000000000000081526004016103bf90612936565b610e758a8a612349565b610e8186868a8a611bf0565b8115610ebd57600854610eb9906dffffffffffffffffffffffffffff808216916e010000000000000000000000000000900416611b4e565b600b555b3373ffffffffffffffffffffffffffffffffffffffff167f4c209b5fc8ad50758f13e2e1088ba56a560dff690a1c6fef26394f4c03821c4f8585604051610f05929190612d41565b60405180910390a250506001600c5550949695505050505050565b60016020526000908152604090205481565b600b5481565b60046020526000908152604090205481565b600080600c54600114610f89576040517f08c379a00000000000000000000000000000000000000000000000000000000081526004016103bf90612a01565b6000600c81905580610f9961096b565b506006546007546040517f70a0823100000000000000000000000000000000000000000000000000000000815293955091935073ffffffffffffffffffffffffffffffffffffffff9081169291169060009083906370a08231906110019030906004016127b3565b60206040518083038186803b15801561101957600080fd5b505afa15801561102d573d6000803e3d6000fd5b505050506040513d601f19601f8201168201806040525081019061105191906126b8565b905060008273ffffffffffffffffffffffffffffffffffffffff166370a08231306040518263ffffffff1660e01b815260040161108e91906127b3565b60206040518083038186803b1580156110a657600080fd5b505afa1580156110ba573d6000803e3d6000fd5b505050506040513d601f19601f820116820180604052508101906110de91906126b8565b306000908152600160205260408120549192506110fb8888611ff3565b6000549091508061110c8487611b4e565b6111169190612dcb565b9a50806111238486611b4e565b61112d9190612dcb565b995060008b11801561113f575060008a115b611175576040517f08c379a00000000000000000000000000000000000000000000000000000000081526004016103bf90612aa6565b61117f3084612408565b61118a878d8d611998565b611195868d8c611998565b6040517f70a0823100000000000000000000000000000000000000000000000000000000815273ffffffffffffffffffffffffffffffffffffffff8816906370a08231906111e79030906004016127b3565b60206040518083038186803b1580156111ff57600080fd5b505afa158015611213573d6000803e3d6000fd5b505050506040513d601f19601f8201168201806040525081019061123791906126b8565b6040517f70a0823100000000000000000000000000000000000000000000000000000000815290955073ffffffffffffffffffffffffffffffffffffffff8716906370a082319061128c9030906004016127b3565b60206040518083038186803b1580156112a457600080fd5b505afa1580156112b8573d6000803e3d6000fd5b505050506040513d601f19601f820116820180604052508101906112dc91906126b8565b93506112ea85858b8b611bf0565b811561132657600854611322906dffffffffffffffffffffffffffff808216916e010000000000000000000000000000900416611b4e565b600b555b8b73ffffffffffffffffffffffffffffffffffffffff163373ffffffffffffffffffffffffffffffffffffffff167fdccd412f0b1252819cb1fd330b93224ca42612892bb3f4f789976e6d819364968d8d604051611385929190612d41565b60405180910390a35050505050505050506001600c81905550915091565b6040518060400160405280600881526020017f4c502d544f4b454e00000000000000000000000000000000000000000000000081525081565b60006109cd338484611f28565b6103e881565b600c5460011461142b576040517f08c379a00000000000000000000000000000000000000000000000000000000081526004016103bf90612a01565b6000600c556006546007546008546040517f70a0823100000000000000000000000000000000000000000000000000000000815273ffffffffffffffffffffffffffffffffffffffff93841693909216916115069184918691611501916dffffffffffffffffffffffffffff9091169084906370a08231906114b19030906004016127b3565b60206040518083038186803b1580156114c957600080fd5b505afa1580156114dd573d6000803e3d6000fd5b505050506040513d601f19601f8201168201806040525081019061082191906126b8565b611998565b61157481846115016008600e9054906101000a90046dffffffffffffffffffffffffffff166dffffffffffffffffffffffffffff168573ffffffffffffffffffffffffffffffffffffffff166370a08231306040518263ffffffff1660e01b81526004016114b191906127b3565b50506001600c5550565b60055473ffffffffffffffffffffffffffffffffffffffff1681565b60075473ffffffffffffffffffffffffffffffffffffffff1681565b428410156115f0576040517f08c379a00000000000000000000000000000000000000000000000000000000081526004016103bf90612b3a565b60035473ffffffffffffffffffffffffffffffffffffffff8816600090815260046020526040812080549192917f6e71edae12b1b97f4d1f60370fef10105fa2faae0126114a169c64845d6126c9918b918b918b91908761165083612ecc565b919050558a60405160200161166a96959493929190612886565b6040516020818303038152906040528051906020012060405160200161169192919061277d565b6040516020818303038152906040528051906020012090506000600182868686604051600081526020016040526040516116ce94939291906128c7565b6020604051602081039080840390855afa1580156116f0573d6000803e3d6000fd5b50506040517fffffffffffffffffffffffffffffffffffffffffffffffffffffffffffffffe0015191505073ffffffffffffffffffffffffffffffffffffffff81161580159061176b57508873ffffffffffffffffffffffffffffffffffffffff168173ffffffffffffffffffffffffffffffffffffffff16145b6117a1576040517f08c379a00000000000000000000000000000000000000000000000000000000081526004016103bf906129ca565b6117ac898989611eb3565b505050505050505050565b600260209081526000928352604080842090915290825290205481565b600c54600114611810576040517f08c379a00000000000000000000000000000000000000000000000000000000081526004016103bf90612a01565b6000600c556006546040517f70a082310000000000000000000000000000000000000000000000000000000081526119919173ffffffffffffffffffffffffffffffffffffffff16906370a082319061186d9030906004016127b3565b60206040518083038186803b15801561188557600080fd5b505afa158015611899573d6000803e3d6000fd5b505050506040513d601f19601f820116820180604052508101906118bd91906126b8565b6007546040517f70a0823100000000000000000000000000000000000000000000000000000000815273ffffffffffffffffffffffffffffffffffffffff909116906370a08231906119139030906004016127b3565b60206040518083038186803b15801561192b57600080fd5b505afa15801561193f573d6000803e3d6000fd5b505050506040513d601f19601f8201168201806040525081019061196391906126b8565b6008546dffffffffffffffffffffffffffff808216916e010000000000000000000000000000900416611bf0565b6001600c55565b604080518082018252601981527f7472616e7366657228616464726573732c75696e74323536290000000000000060209091015251600090819073ffffffffffffffffffffffffffffffffffffffff8616907fa9059cbb2ab09eb219583f4a59a5d0623ade346d962bcd4e46b11da047c9049b90611a1c90879087906024016127d4565b604080517fffffffffffffffffffffffffffffffffffffffffffffffffffffffffffffffe08184030181529181526020820180517bffffffffffffffffffffffffffffffffffffffffffffffffffffffff167fffffffff00000000000000000000000000000000000000000000000000000000909416939093179092529051611aa59190612761565b6000604051808303816000865af19150503d8060008114611ae2576040519150601f19603f3d011682016040523d82523d6000602084013e611ae7565b606091505b5091509150818015611b11575080511580611b11575080806020019051810190611b119190612698565b611b47576040517f08c379a00000000000000000000000000000000000000000000000000000000081526004016103bf90612cb9565b5050505050565b6000811580611b7257508282611b648183612e23565b9250611b709083612dcb565b145b6109d1576040517f08c379a00000000000000000000000000000000000000000000000000000000081526004016103bf90612a6f565b600082611bb58382612e60565b91508111156109d1576040517f08c379a00000000000000000000000000000000000000000000000000000000081526004016103bf90612993565b6dffffffffffffffffffffffffffff8411801590611c1c57506dffffffffffffffffffffffffffff8311155b611c52576040517f08c379a00000000000000000000000000000000000000000000000000000000081526004016103bf90612a38565b6000611c6364010000000042612f05565b600854909150600090611c9c907c0100000000000000000000000000000000000000000000000000000000900463ffffffff1683612e77565b905060008163ffffffff16118015611cc357506dffffffffffffffffffffffffffff841615155b8015611cde57506dffffffffffffffffffffffffffff831615155b15611dac578063ffffffff16611d1b85611cf7866124b9565b7bffffffffffffffffffffffffffffffffffffffffffffffffffffffff16906124e4565b7bffffffffffffffffffffffffffffffffffffffffffffffffffffffff16611d439190612e23565b60096000828254611d549190612d78565b909155505063ffffffff8116611d6d84611cf7876124b9565b7bffffffffffffffffffffffffffffffffffffffffffffffffffffffff16611d959190612e23565b600a6000828254611da69190612d78565b90915550505b600880547fffffffffffffffffffffffffffffffffffff0000000000000000000000000000166dffffffffffffffffffffffffffff888116919091177fffffffff0000000000000000000000000000ffffffffffffffffffffffffffff166e0100000000000000000000000000008883168102919091177bffffffffffffffffffffffffffffffffffffffffffffffffffffffff167c010000000000000000000000000000000000000000000000000000000063ffffffff87160217928390556040517f1c411e9a96e071241c2f21f7726b17ae89e3cab4c78be50e062b03a9fffbbad193611ea393818116939091041690612cf0565b60405180910390a1505050505050565b73ffffffffffffffffffffffffffffffffffffffff80841660008181526002602090815260408083209487168084529490915290819020849055517f8c5be1e5ebec7d5bd14f71427d1e84f3dd0314c0f7b2291e5b200ac8c7c3b92590611f1b90859061287d565b60405180910390a3505050565b73ffffffffffffffffffffffffffffffffffffffff8316600090815260016020526040902054611f589082611ba8565b73ffffffffffffffffffffffffffffffffffffffff8085166000908152600160205260408082209390935590841681522054611f949082612500565b73ffffffffffffffffffffffffffffffffffffffff80841660008181526001602052604090819020939093559151908516907fddf252ad1be2c89b69c2b068fc378daa952ba7f163c4a11628f55a4df523b3ef90611f1b90859061287d565b600080600560009054906101000a900473ffffffffffffffffffffffffffffffffffffffff1673ffffffffffffffffffffffffffffffffffffffff1663017e7e586040518163ffffffff1660e01b815260040160206040518083038186803b15801561205e57600080fd5b505afa158015612072573d6000803e3d6000fd5b505050506040513d601f19601f820116820180604052508101906120969190612564565b90506000600560009054906101000a900473ffffffffffffffffffffffffffffffffffffffff1673ffffffffffffffffffffffffffffffffffffffff1663b8ff50386040518163ffffffff1660e01b815260040160206040518083038186803b15801561210257600080fd5b505afa158015612116573d6000803e3d6000fd5b505050506040513d601f19601f8201168201806040525081019061213a9190612698565b90506000600560009054906101000a900473ffffffffffffffffffffffffffffffffffffffff1673ffffffffffffffffffffffffffffffffffffffff1663b0e21e8a6040518163ffffffff1660e01b8152600401602060405180830381600087803b1580156121a857600080fd5b505af11580156121bc573d6000803e3d6000fd5b505050506040513d601f19601f820116820180604052508101906121e091906126b8565b600b5473ffffffffffffffffffffffffffffffffffffffff85161580159650919250906122c357801580159061221557508115155b156122be57600061223c610dc36dffffffffffffffffffffffffffff8a8116908a16611b4e565b90506000612249836122d9565b9050808211156122bb57600061226b6122628484611ba8565b60005490611b4e565b905060008661228d57612288836122828689611b4e565b90612500565b612297565b6122978484612500565b905060006122a58284612dcb565b905080156122b7576122b78982612349565b5050505b50505b6122cf565b80156122cf576000600b555b5050505092915050565b6000600382111561233a57508060006122f3600283612dcb565b6122fe906001612d78565b90505b81811015612334579050806002816123198186612dcb565b6123239190612d78565b61232d9190612dcb565b9050612301565b50612344565b8115612344575060015b919050565b6000546123569082612500565b600090815573ffffffffffffffffffffffffffffffffffffffff83168152600160205260409020546123889082612500565b73ffffffffffffffffffffffffffffffffffffffff83166000818152600160205260408082209390935591519091907fddf252ad1be2c89b69c2b068fc378daa952ba7f163c4a11628f55a4df523b3ef906123e490859061287d565b60405180910390a35050565b60008183106123ff5781612401565b825b9392505050565b73ffffffffffffffffffffffffffffffffffffffff82166000908152600160205260409020546124389082611ba8565b73ffffffffffffffffffffffffffffffffffffffff83166000908152600160205260408120919091555461246c9082611ba8565b600090815560405173ffffffffffffffffffffffffffffffffffffffff8416907fddf252ad1be2c89b69c2b068fc378daa952ba7f163c4a11628f55a4df523b3ef906123e490859061287d565b60006109d16e0100000000000000000000000000006dffffffffffffffffffffffffffff8416612ddf565b60006124016dffffffffffffffffffffffffffff831684612d90565b60008261250d8382612d78565b91508110156109d1576040517f08c379a00000000000000000000000000000000000000000000000000000000081526004016103bf90612b71565b600060208284031215612559578081fd5b813561240181612f77565b600060208284031215612575578081fd5b815161240181612f77565b60008060408385031215612592578081fd5b823561259d81612f77565b915060208301356125ad81612f77565b809150509250929050565b6000806000606084860312156125cc578081fd5b83356125d781612f77565b925060208401356125e781612f77565b929592945050506040919091013590565b600080600080600080600060e0888a031215612612578283fd5b873561261d81612f77565b9650602088013561262d81612f77565b95506040880135945060608801359350608088013560ff81168114612650578384fd5b9699959850939692959460a0840135945060c09093013592915050565b6000806040838503121561267f578182fd5b823561268a81612f77565b946020939093013593505050565b6000602082840312156126a9578081fd5b81518015158114612401578182fd5b6000602082840312156126c9578081fd5b5051919050565b6000806000806000608086880312156126e7578081fd5b8535945060208601359350604086013561270081612f77565b9250606086013567ffffffffffffffff8082111561271c578283fd5b818801915088601f83011261272f578283fd5b81358181111561273d578384fd5b89602082850101111561274e578384fd5b9699959850939650602001949392505050565b60008251612773818460208701612e9c565b9190910192915050565b7f190100000000000000000000000000000000000000000000000000000000000081526002810192909252602282015260420190565b73ffffffffffffffffffffffffffffffffffffffff91909116815260200190565b73ffffffffffffffffffffffffffffffffffffffff929092168252602082015260400190565b600073ffffffffffffffffffffffffffffffffffffffff8716825285602083015284604083015260806060830152826080830152828460a084013781830160a090810191909152601f9092017fffffffffffffffffffffffffffffffffffffffffffffffffffffffffffffffe0160101949350505050565b901515815260200190565b90815260200190565b95865273ffffffffffffffffffffffffffffffffffffffff94851660208701529290931660408501526060840152608083019190915260a082015260c00190565b93845260ff9290921660208401526040830152606082015260800190565b6000602082528251806020840152612904816040850160208701612e9c565b601f017fffffffffffffffffffffffffffffffffffffffffffffffffffffffffffffffe0169190910160400192915050565b60208082526023908201527f506169723a20494e53554646494349454e545f4c49515549444954595f4d494e60408201527f5445440000000000000000000000000000000000000000000000000000000000606082015260800190565b60208082526015908201527f64732d6d6174682d7375622d756e646572666c6f770000000000000000000000604082015260600190565b60208082526018908201527f45524332303a20494e56414c49445f5349474e41545552450000000000000000604082015260600190565b6020808252600c908201527f537761703a204c4f434b45440000000000000000000000000000000000000000604082015260600190565b6020808252600e908201527f506169723a204f564552464c4f57000000000000000000000000000000000000604082015260600190565b60208082526014908201527f64732d6d6174682d6d756c2d6f766572666c6f77000000000000000000000000604082015260600190565b60208082526023908201527f506169723a20494e53554646494349454e545f4c49515549444954595f42555260408201527f4e45440000000000000000000000000000000000000000000000000000000000606082015260800190565b6020808252600f908201527f506169723a20464f5242494444454e0000000000000000000000000000000000604082015260600190565b6020808252600e908201527f45524332303a2045585049524544000000000000000000000000000000000000604082015260600190565b60208082526014908201527f64732d6d6174682d6164642d6f766572666c6f77000000000000000000000000604082015260600190565b60208082526010908201527f506169723a20494e56414c49445f544f00000000000000000000000000000000604082015260600190565b6020808252601f908201527f506169723a20494e53554646494349454e545f494e5055545f414d4f554e5400604082015260600190565b60208082526007908201527f506169723a204b00000000000000000000000000000000000000000000000000604082015260600190565b6020808252818101527f506169723a20494e53554646494349454e545f4f55545055545f414d4f554e54604082015260600190565b6020808252601c908201527f506169723a20494e53554646494349454e545f4c495155494449545900000000604082015260600190565b60208082526015908201527f506169723a205452414e534645525f4641494c45440000000000000000000000604082015260600190565b6dffffffffffffffffffffffffffff92831681529116602082015260400190565b6dffffffffffffffffffffffffffff938416815291909216602082015263ffffffff909116604082015260600190565b918252602082015260400190565b93845260208401929092526040830152606082015260800190565b60ff91909116815260200190565b60008219821115612d8b57612d8b612f19565b500190565b60007bffffffffffffffffffffffffffffffffffffffffffffffffffffffff80841680612dbf57612dbf612f48565b92169190910492915050565b600082612dda57612dda612f48565b500490565b60007bffffffffffffffffffffffffffffffffffffffffffffffffffffffff80831681851681830481118215151615612e1a57612e1a612f19565b02949350505050565b6000817fffffffffffffffffffffffffffffffffffffffffffffffffffffffffffffffff0483118215151615612e5b57612e5b612f19565b500290565b600082821015612e7257612e72612f19565b500390565b600063ffffffff83811690831681811015612e9457612e94612f19565b039392505050565b60005b83811015612eb7578181015183820152602001612e9f565b83811115612ec6576000848401525b50505050565b60007fffffffffffffffffffffffffffffffffffffffffffffffffffffffffffffffff821415612efe57612efe612f19565b5060010190565b600082612f1457612f14612f48565b500690565b7f4e487b7100000000000000000000000000000000000000000000000000000000600052601160045260246000fd5b7f4e487b7100000000000000000000000000000000000000000000000000000000600052601260045260246000fd5b73ffffffffffffffffffffffffffffffffffffffff81168114612f9957600080fd5b5056fea26469706673582212208f22c85b93fe43a4f4454ffbf080fe3efcd35e2d024742299b250981435dbfe964736f6c63430008000033a2646970667358221220947a54435b52f15f010e729afe69edaee62c1d135d30586dd6d2e62b88a85ea764736f6c63430008000033",
  "immutableReferences": {},
  "source": "// SPDX-License-Identifier: MIT\npragma solidity ^0.8.0;\n\nimport './interfaces/IUniswapV2Factory.sol';\nimport './Pair.sol';\n\ncontract Factory is IUniswapV2Factory {\n    uint256 public override protocolFee;\n    uint256 public override totalFee;\n    address public override feeTo;\n    address public override feeToSetter;\n    bytes32 public constant INIT_CODE_PAIR_HASH = keccak256(abi.encodePacked(type(Pair).creationCode));\n    bool public override allFeeToProtocol;\n\n    mapping(address => mapping(address => address)) public override getPair;\n    address[] public override allPairs;\n\n    modifier onlyOwner() {\n        require(msg.sender == feeToSetter, 'Factory: FORBIDDEN');\n        _;\n    }\n\n    constructor(address _feeToSetter) {\n        feeToSetter = _feeToSetter;\n        protocolFee = 5; \n        totalFee = 997;\n    }\n\n    function allPairsLength() external override view returns (uint256) {\n        return allPairs.length;\n    }\n\n    function allInfo() external view override returns(AllInfo memory) {\n        return AllInfo({\n            protocolFee: protocolFee,\n            totalFee: totalFee,\n            feeTo: feeTo,\n            feeToSetter: feeToSetter,\n            INIT_CODE_PAIR_HASH: INIT_CODE_PAIR_HASH,\n            allFeeToProtocol: allFeeToProtocol\n        });\n    }\n\n    function createPair(address tokenA, address tokenB) external override returns (address pair) {\n        require(tokenA != tokenB, 'Factory: IDENTICAL_ADDRESSES');\n        (address token0, address token1) = tokenA < tokenB ? (tokenA, tokenB) : (tokenB, tokenA);\n        require(token0 != address(0), 'Factory: ZERO_ADDRESS');\n        require(getPair[token0][token1] == address(0), 'Factory: PAIR_EXISTS'); // single check is sufficient\n        bytes memory bytecode = type(Pair).creationCode;\n        bytes32 salt = keccak256(abi.encodePacked(token0, token1));\n        assembly {\n            pair := create2(0, add(bytecode, 32), mload(bytecode), salt)\n        }\n        IUniswapV2Pair(pair).initialize(token0, token1);\n        getPair[token0][token1] = pair;\n        getPair[token1][token0] = pair; // populate mapping in the reverse direction\n        allPairs.push(pair);\n        emit PairCreated(token0, token1, pair, allPairs.length);\n    }\n\n    function setFeeTo(address _feeTo) external override onlyOwner {\n        feeTo = _feeTo;\n    }\n\n    function setFeeToSetter(address _feeToSetter) external override onlyOwner {\n        feeToSetter = _feeToSetter;\n    }\n\n    function setAllFeeToProtocol(bool _allFeeToProtocol) external override onlyOwner {\n        allFeeToProtocol = _allFeeToProtocol;\n    }\n\n    function setProtocolFee(uint _protocolFee) external override onlyOwner {\n        require(_protocolFee > 0, 'Factory: FORBIDDEN_FEE');\n        protocolFee = _protocolFee;\n    }\n\n    function setTotalFee(uint _totalFee) external override onlyOwner {\n        require(_totalFee > 0, 'Factory: FORBIDDEN_FEE');\n        totalFee = _totalFee;\n    }\n}\n",
  "sourcePath": "/home/user/Github/solidity/core/contracts/Factory.sol",
  "compiler": {
    "name": "solc",
    "version": "0.8.0+commit.c7dfd78e.Emscripten.clang"
  },
  "schemaVersion": "3.4.3",
  "updatedAt": "2021-12-01T14:19:23.235Z",
  "devdoc": {
    "kind": "dev",
    "methods": {},
    "version": 1
  },
  "userdoc": {
    "kind": "user",
    "methods": {},
    "version": 1
  }
}