{
  "contractName": "Factory",
  "abi": [
    {
      "inputs": [
        {
          "internalType": "address",
          "name": "_feeToSetter",
          "type": "address"
        }
      ],
      "stateMutability": "nonpayable",
      "type": "constructor"
    },
    {
      "anonymous": false,
      "inputs": [
        {
          "indexed": true,
          "internalType": "address",
          "name": "token0",
          "type": "address"
        },
        {
          "indexed": true,
          "internalType": "address",
          "name": "token1",
          "type": "address"
        },
        {
          "indexed": false,
          "internalType": "address",
          "name": "pair",
          "type": "address"
        },
        {
          "indexed": false,
          "internalType": "uint256",
          "name": "",
          "type": "uint256"
        }
      ],
      "name": "PairCreated",
      "type": "event"
    },
    {
      "inputs": [],
      "name": "INIT_CODE_PAIR_HASH",
      "outputs": [
        {
          "internalType": "bytes32",
          "name": "",
          "type": "bytes32"
        }
      ],
      "stateMutability": "view",
      "type": "function",
      "constant": true
    },
    {
      "inputs": [],
      "name": "allFeeToProtocol",
      "outputs": [
        {
          "internalType": "bool",
          "name": "",
          "type": "bool"
        }
      ],
      "stateMutability": "view",
      "type": "function",
      "constant": true
    },
    {
      "inputs": [
        {
          "internalType": "uint256",
          "name": "",
          "type": "uint256"
        }
      ],
      "name": "allPairs",
      "outputs": [
        {
          "internalType": "address",
          "name": "",
          "type": "address"
        }
      ],
      "stateMutability": "view",
      "type": "function",
      "constant": true
    },
    {
      "inputs": [],
      "name": "feeTo",
      "outputs": [
        {
          "internalType": "address",
          "name": "",
          "type": "address"
        }
      ],
      "stateMutability": "view",
      "type": "function",
      "constant": true
    },
    {
      "inputs": [],
      "name": "feeToSetter",
      "outputs": [
        {
          "internalType": "address",
          "name": "",
          "type": "address"
        }
      ],
      "stateMutability": "view",
      "type": "function",
      "constant": true
    },
    {
      "inputs": [
        {
          "internalType": "address",
          "name": "",
          "type": "address"
        },
        {
          "internalType": "address",
          "name": "",
          "type": "address"
        }
      ],
      "name": "getPair",
      "outputs": [
        {
          "internalType": "address",
          "name": "",
          "type": "address"
        }
      ],
      "stateMutability": "view",
      "type": "function",
      "constant": true
    },
    {
      "inputs": [],
      "name": "protocolFeeDenominator",
      "outputs": [
        {
          "internalType": "uint256",
          "name": "",
          "type": "uint256"
        }
      ],
      "stateMutability": "view",
      "type": "function",
      "constant": true
    },
    {
      "inputs": [],
      "name": "totalFee",
      "outputs": [
        {
          "internalType": "uint256",
          "name": "",
          "type": "uint256"
        }
      ],
      "stateMutability": "view",
      "type": "function",
      "constant": true
    },
    {
      "inputs": [],
      "name": "allPairsLength",
      "outputs": [
        {
          "internalType": "uint256",
          "name": "",
          "type": "uint256"
        }
      ],
      "stateMutability": "view",
      "type": "function",
      "constant": true
    },
    {
      "inputs": [
        {
          "internalType": "address",
          "name": "tokenA",
          "type": "address"
        },
        {
          "internalType": "address",
          "name": "tokenB",
          "type": "address"
        }
      ],
      "name": "createPair",
      "outputs": [
        {
          "internalType": "address",
          "name": "pair",
          "type": "address"
        }
      ],
      "stateMutability": "nonpayable",
      "type": "function"
    },
    {
      "inputs": [
        {
          "internalType": "address",
          "name": "_feeTo",
          "type": "address"
        }
      ],
      "name": "setFeeTo",
      "outputs": [],
      "stateMutability": "nonpayable",
      "type": "function"
    },
    {
      "inputs": [
        {
          "internalType": "address",
          "name": "_feeToSetter",
          "type": "address"
        }
      ],
      "name": "setFeeToSetter",
      "outputs": [],
      "stateMutability": "nonpayable",
      "type": "function"
    },
    {
      "inputs": [
        {
          "internalType": "bool",
          "name": "_allFeeToProtocol",
          "type": "bool"
        }
      ],
      "name": "setAllFeeToProtocol",
      "outputs": [],
      "stateMutability": "nonpayable",
      "type": "function"
    },
    {
      "inputs": [
        {
          "internalType": "uint256",
          "name": "_protocolFeeDenominator",
          "type": "uint256"
        }
      ],
      "name": "setProtocolFee",
      "outputs": [],
      "stateMutability": "nonpayable",
      "type": "function"
    },
    {
      "inputs": [
        {
          "internalType": "uint256",
          "name": "_totalFee",
          "type": "uint256"
        }
      ],
      "name": "changeTotalFee",
      "outputs": [],
      "stateMutability": "nonpayable",
      "type": "function"
    }
  ],
  "bytecode": "0x6080604052610bb86000556103e460015534801561001c57600080fd5b50604051613b2f380380613b2f8339818101604052602081101561003f57600080fd5b5051600380546001600160a01b0319166001600160a01b03909216919091179055613ac08061006f6000396000f3fe608060405234801561001057600080fd5b50600436106100f55760003560e01c8063787dce3d11610097578063cc19230911610066578063cc1923091461022b578063e6a4390514610248578063f1f5aa7414610283578063f46901ed146102a2576100f5565b8063787dce3d14610182578063a2e74af6146101a1578063b8ff5038146101d4578063c9c65396146101f0576100f5565b80631e3dd18b116100d35780631e3dd18b1461014d5780632ff7042a1461016a578063574f2ba3146101725780635855a25a1461017a576100f5565b8063017e7e58146100fa578063094b74151461012b5780631df4ccfc14610133575b600080fd5b6101026102d5565b6040805173ffffffffffffffffffffffffffffffffffffffff9092168252519081900360200190f35b6101026102f1565b61013b61030d565b60408051918252519081900360200190f35b6101026004803603602081101561016357600080fd5b5035610313565b61013b61034a565b61013b610350565b61013b610356565b61019f6004803603602081101561019857600080fd5b5035610407565b005b61019f600480360360208110156101b757600080fd5b503573ffffffffffffffffffffffffffffffffffffffff16610501565b6101dc6105ce565b604080519115158252519081900360200190f35b6101026004803603604081101561020657600080fd5b5073ffffffffffffffffffffffffffffffffffffffff813581169160200135166105ef565b61019f6004803603602081101561024157600080fd5b5035610a23565b6101026004803603604081101561025e57600080fd5b5073ffffffffffffffffffffffffffffffffffffffff81358116916020013516610b1d565b61019f6004803603602081101561029957600080fd5b50351515610b50565b61019f600480360360208110156102b857600080fd5b503573ffffffffffffffffffffffffffffffffffffffff16610c20565b60025473ffffffffffffffffffffffffffffffffffffffff1681565b60035473ffffffffffffffffffffffffffffffffffffffff1681565b60015481565b6005818154811061032357600080fd5b60009182526020909120015473ffffffffffffffffffffffffffffffffffffffff16905081565b60005481565b60055490565b60405161036560208201610ced565b6020820181038252601f19601f820116604052506040516020018082805190602001908083835b602083106103c957805182527fffffffffffffffffffffffffffffffffffffffffffffffffffffffffffffffe0909201916020918201910161038c565b6001836020036101000a0380198251168184511680821785525050505050509050019150506040516020818303038152906040528051906020012081565b60035473ffffffffffffffffffffffffffffffffffffffff16331461048d57604080517f08c379a000000000000000000000000000000000000000000000000000000000815260206004820152601260248201527f466163746f72793a20464f5242494444454e0000000000000000000000000000604482015290519081900360640190fd5b600081116104fc57604080517f08c379a000000000000000000000000000000000000000000000000000000000815260206004820152601660248201527f466163746f72793a20464f5242494444454e5f46454500000000000000000000604482015290519081900360640190fd5b600055565b60035473ffffffffffffffffffffffffffffffffffffffff16331461058757604080517f08c379a000000000000000000000000000000000000000000000000000000000815260206004820152601260248201527f466163746f72793a20464f5242494444454e0000000000000000000000000000604482015290519081900360640190fd5b600380547fffffffffffffffffffffffff00000000000000000000000000000000000000001673ffffffffffffffffffffffffffffffffffffffff92909216919091179055565b60035474010000000000000000000000000000000000000000900460ff1681565b60008173ffffffffffffffffffffffffffffffffffffffff168373ffffffffffffffffffffffffffffffffffffffff16141561068c57604080517f08c379a000000000000000000000000000000000000000000000000000000000815260206004820152601c60248201527f466163746f72793a204944454e544943414c5f41444452455353455300000000604482015290519081900360640190fd5b6000808373ffffffffffffffffffffffffffffffffffffffff168573ffffffffffffffffffffffffffffffffffffffff16106106c95783856106cc565b84845b909250905073ffffffffffffffffffffffffffffffffffffffff821661075357604080517f08c379a000000000000000000000000000000000000000000000000000000000815260206004820152601560248201527f466163746f72793a205a45524f5f414444524553530000000000000000000000604482015290519081900360640190fd5b73ffffffffffffffffffffffffffffffffffffffff8281166000908152600460209081526040808320858516845290915290205416156107f457604080517f08c379a000000000000000000000000000000000000000000000000000000000815260206004820152601460248201527f466163746f72793a20504149525f455849535453000000000000000000000000604482015290519081900360640190fd5b60606040518060200161080690610ced565b6020820181038252601f19601f82011660405250905060008383604051602001808373ffffffffffffffffffffffffffffffffffffffff1660601b81526014018273ffffffffffffffffffffffffffffffffffffffff1660601b815260140192505050604051602081830303815290604052805190602001209050808251602084016000f594508473ffffffffffffffffffffffffffffffffffffffff1663485cc95585856040518363ffffffff1660e01b8152600401808373ffffffffffffffffffffffffffffffffffffffff1681526020018273ffffffffffffffffffffffffffffffffffffffff16815260200192505050600060405180830381600087803b15801561091457600080fd5b505af1158015610928573d6000803e3d6000fd5b5050505073ffffffffffffffffffffffffffffffffffffffff84811660008181526004602081815260408084208987168086529083528185208054978d167fffffffffffffffffffffffff000000000000000000000000000000000000000098891681179091559383528185208686528352818520805488168517905560058054600181018255958190527f036b6384b5eca791c62761152d0c79bb0604c104a5fb6f4eb0703f3154bb3db090950180549097168417909655925483519283529082015281517f0d3648bd0f6ba80134a33ba9275ac585d9d315f0ad8355cddefde31afa28d0e9929181900390910190a35050505092915050565b60035473ffffffffffffffffffffffffffffffffffffffff163314610aa957604080517f08c379a000000000000000000000000000000000000000000000000000000000815260206004820152601260248201527f466163746f72793a20464f5242494444454e0000000000000000000000000000604482015290519081900360640190fd5b60008111610b1857604080517f08c379a000000000000000000000000000000000000000000000000000000000815260206004820152601660248201527f466163746f72793a20464f5242494444454e5f46454500000000000000000000604482015290519081900360640190fd5b600155565b600460209081526000928352604080842090915290825290205473ffffffffffffffffffffffffffffffffffffffff1681565b60035473ffffffffffffffffffffffffffffffffffffffff163314610bd657604080517f08c379a000000000000000000000000000000000000000000000000000000000815260206004820152601260248201527f466163746f72793a20464f5242494444454e0000000000000000000000000000604482015290519081900360640190fd5b6003805491151574010000000000000000000000000000000000000000027fffffffffffffffffffffff00ffffffffffffffffffffffffffffffffffffffff909216919091179055565b60035473ffffffffffffffffffffffffffffffffffffffff163314610ca657604080517f08c379a000000000000000000000000000000000000000000000000000000000815260206004820152601260248201527f466163746f72793a20464f5242494444454e0000000000000000000000000000604482015290519081900360640190fd5b600280547fffffffffffffffffffffffff00000000000000000000000000000000000000001673ffffffffffffffffffffffffffffffffffffffff92909216919091179055565b612d9080610cfb8339019056fe60806040526001600c5534801561001557600080fd5b50604080518082018252601481527f4c69717569646974792d506f6f6c2d546f6b656e0000000000000000000000006020918201528151808301835260018152603160f81b9082015281517f8b73c3c69bb8fe3d512ecc4cf759cc79239f7b179b0ffacaa9a75d522b39400f818301527fee49096366cc590b73291b7aa9e5e091aa761dec637befae63796ffa4f337d4a818401527fc89efdaa54c0f20c7adf612882df0950f5a951637e0307cdcb4c672f298b8bc660608201524660808201523060a0808301919091528351808303909101815260c09091019092528151910120600355600580546001600160a01b03191633179055612c758061011b6000396000f3fe608060405234801561001057600080fd5b50600436106101b95760003560e01c80636a627842116100f9578063ba9a7a5611610097578063d21220a711610071578063d21220a7146105da578063d505accf146105e2578063dd62ed3e14610640578063fff6cae91461067b576101b9565b8063ba9a7a5614610597578063bc25cf771461059f578063c45a0155146105d2576101b9565b80637ecebe00116100d35780637ecebe00146104d757806389afcb441461050a57806395d89b4114610556578063a9059cbb1461055e576101b9565b80636a6278421461046957806370a082311461049c5780637464fc3d146104cf576101b9565b806323b872dd116101665780633644e515116101405780633644e51514610416578063485cc9551461041e5780635909c0d5146104595780635a3d549314610461576101b9565b806323b872dd146103ad57806330adf81f146103f0578063313ce567146103f8576101b9565b8063095ea7b311610197578063095ea7b3146103155780630dfe16811461036257806318160ddd14610393576101b9565b8063022c0d9f146101be57806306fdde03146102595780630902f1ac146102d6575b600080fd5b610257600480360360808110156101d457600080fd5b81359160208101359173ffffffffffffffffffffffffffffffffffffffff604083013516919081019060808101606082013564010000000081111561021857600080fd5b82018360208201111561022a57600080fd5b8035906020019184600183028401116401000000008311171561024c57600080fd5b509092509050610683565b005b610261610d59565b6040805160208082528351818301528351919283929083019185019080838360005b8381101561029b578181015183820152602001610283565b50505050905090810190601f1680156102c85780820380516001836020036101000a031916815260200191505b509250505060405180910390f35b6102de610d92565b604080516dffffffffffffffffffffffffffff948516815292909316602083015263ffffffff168183015290519081900360600190f35b61034e6004803603604081101561032b57600080fd5b5073ffffffffffffffffffffffffffffffffffffffff8135169060200135610de7565b604080519115158252519081900360200190f35b61036a610dfe565b6040805173ffffffffffffffffffffffffffffffffffffffff9092168252519081900360200190f35b61039b610e1a565b60408051918252519081900360200190f35b61034e600480360360608110156103c357600080fd5b5073ffffffffffffffffffffffffffffffffffffffff813581169160208101359091169060400135610e20565b61039b610ef9565b610400610f1d565b6040805160ff9092168252519081900360200190f35b61039b610f22565b6102576004803603604081101561043457600080fd5b5073ffffffffffffffffffffffffffffffffffffffff81358116916020013516610f28565b61039b611001565b61039b611007565b61039b6004803603602081101561047f57600080fd5b503573ffffffffffffffffffffffffffffffffffffffff1661100d565b61039b600480360360208110156104b257600080fd5b503573ffffffffffffffffffffffffffffffffffffffff166113a3565b61039b6113b5565b61039b600480360360208110156104ed57600080fd5b503573ffffffffffffffffffffffffffffffffffffffff166113bb565b61053d6004803603602081101561052057600080fd5b503573ffffffffffffffffffffffffffffffffffffffff166113cd565b6040805192835260208301919091528051918290030190f35b610261611858565b61034e6004803603604081101561057457600080fd5b5073ffffffffffffffffffffffffffffffffffffffff8135169060200135611891565b61039b61189e565b610257600480360360208110156105b557600080fd5b503573ffffffffffffffffffffffffffffffffffffffff166118a4565b61036a611a91565b61036a611aad565b610257600480360360e08110156105f857600080fd5b5073ffffffffffffffffffffffffffffffffffffffff813581169160208101359091169060408101359060608101359060ff6080820135169060a08101359060c00135611ac9565b61039b6004803603604081101561065657600080fd5b5073ffffffffffffffffffffffffffffffffffffffff81358116916020013516611d95565b610257611db2565b600c546001146106f457604080517f08c379a000000000000000000000000000000000000000000000000000000000815260206004820152600c60248201527f537761703a204c4f434b45440000000000000000000000000000000000000000604482015290519081900360640190fd5b6000600c55841515806107075750600084115b61077257604080517f08c379a000000000000000000000000000000000000000000000000000000000815260206004820181905260248201527f506169723a20494e53554646494349454e545f4f55545055545f414d4f554e54604482015290519081900360640190fd5b60008061077d610d92565b5091509150816dffffffffffffffffffffffffffff16871080156107b05750806dffffffffffffffffffffffffffff1686105b61081b57604080517f08c379a000000000000000000000000000000000000000000000000000000000815260206004820152601c60248201527f506169723a20494e53554646494349454e545f4c495155494449545900000000604482015290519081900360640190fd5b600654600754600091829173ffffffffffffffffffffffffffffffffffffffff91821691908116908916821480159061088057508073ffffffffffffffffffffffffffffffffffffffff168973ffffffffffffffffffffffffffffffffffffffff1614155b6108eb57604080517f08c379a000000000000000000000000000000000000000000000000000000000815260206004820152601060248201527f506169723a20494e56414c49445f544f00000000000000000000000000000000604482015290519081900360640190fd5b8a156108fc576108fc828a8d611f98565b891561090d5761090d818a8c611f98565b86156109d9578873ffffffffffffffffffffffffffffffffffffffff166310d1e85c338d8d8c8c6040518663ffffffff1660e01b8152600401808673ffffffffffffffffffffffffffffffffffffffff168152602001858152602001848152602001806020018281038252848482818152602001925080828437600081840152601f19601f8201169050808301925050509650505050505050600060405180830381600087803b1580156109c057600080fd5b505af11580156109d4573d6000803e3d6000fd5b505050505b604080517f70a08231000000000000000000000000000000000000000000000000000000008152306004820152905173ffffffffffffffffffffffffffffffffffffffff8416916370a08231916024808301926020929190829003018186803b158015610a4557600080fd5b505afa158015610a59573d6000803e3d6000fd5b505050506040513d6020811015610a6f57600080fd5b5051604080517f70a08231000000000000000000000000000000000000000000000000000000008152306004820152905191955073ffffffffffffffffffffffffffffffffffffffff8316916370a0823191602480820192602092909190829003018186803b158015610ae157600080fd5b505afa158015610af5573d6000803e3d6000fd5b505050506040513d6020811015610b0b57600080fd5b5051925060009150506dffffffffffffffffffffffffffff85168a90038311610b35576000610b4b565b89856dffffffffffffffffffffffffffff160383035b9050600089856dffffffffffffffffffffffffffff16038311610b6f576000610b85565b89856dffffffffffffffffffffffffffff160383035b90506000821180610b965750600081115b610c0157604080517f08c379a000000000000000000000000000000000000000000000000000000000815260206004820152601f60248201527f506169723a20494e53554646494349454e545f494e5055545f414d4f554e5400604482015290519081900360640190fd5b6000610c23610c118460036121a5565b610c1d876103e86121a5565b9061222b565b90506000610c35610c118460036121a5565b9050610c61620f4240610c5b6dffffffffffffffffffffffffffff8b8116908b166121a5565b906121a5565b610c6b83836121a5565b1015610cd857604080517f08c379a000000000000000000000000000000000000000000000000000000000815260206004820152600760248201527f506169723a204b00000000000000000000000000000000000000000000000000604482015290519081900360640190fd5b5050610ce68484888861229d565b60408051838152602081018390528082018d9052606081018c9052905173ffffffffffffffffffffffffffffffffffffffff8b169133917fd78ad95fa46c994b6551d0da85fc275fe613ce37657fb8d5e3d130840159d8229181900360800190a350506001600c55505050505050505050565b6040518060400160405280601481526020017f4c69717569646974792d506f6f6c2d546f6b656e00000000000000000000000081525081565b6008546dffffffffffffffffffffffffffff808216926e0100000000000000000000000000008304909116917c0100000000000000000000000000000000000000000000000000000000900463ffffffff1690565b6000610df4338484612553565b5060015b92915050565b60065473ffffffffffffffffffffffffffffffffffffffff1681565b60005481565b73ffffffffffffffffffffffffffffffffffffffff831660009081526002602090815260408083203384529091528120547fffffffffffffffffffffffffffffffffffffffffffffffffffffffffffffffff14610ee45773ffffffffffffffffffffffffffffffffffffffff84166000908152600260209081526040808320338452909152902054610eb2908361222b565b73ffffffffffffffffffffffffffffffffffffffff851660009081526002602090815260408083203384529091529020555b610eef8484846125c2565b5060019392505050565b7f6e71edae12b1b97f4d1f60370fef10105fa2faae0126114a169c64845d6126c981565b601281565b60035481565b60055473ffffffffffffffffffffffffffffffffffffffff163314610fae57604080517f08c379a000000000000000000000000000000000000000000000000000000000815260206004820152600f60248201527f506169723a20464f5242494444454e0000000000000000000000000000000000604482015290519081900360640190fd5b6006805473ffffffffffffffffffffffffffffffffffffffff9384167fffffffffffffffffffffffff00000000000000000000000000000000000000009182161790915560078054929093169116179055565b60095481565b600a5481565b6000600c5460011461108057604080517f08c379a000000000000000000000000000000000000000000000000000000000815260206004820152600c60248201527f537761703a204c4f434b45440000000000000000000000000000000000000000604482015290519081900360640190fd5b6000600c81905580611090610d92565b50600654604080517f70a08231000000000000000000000000000000000000000000000000000000008152306004820152905193955091935060009273ffffffffffffffffffffffffffffffffffffffff909116916370a08231916024808301926020929190829003018186803b15801561110a57600080fd5b505afa15801561111e573d6000803e3d6000fd5b505050506040513d602081101561113457600080fd5b5051600754604080517f70a08231000000000000000000000000000000000000000000000000000000008152306004820152905192935060009273ffffffffffffffffffffffffffffffffffffffff909216916370a0823191602480820192602092909190829003018186803b1580156111ad57600080fd5b505afa1580156111c1573d6000803e3d6000fd5b505050506040513d60208110156111d757600080fd5b5051905060006111f7836dffffffffffffffffffffffffffff871661222b565b90506000611215836dffffffffffffffffffffffffffff871661222b565b905060006112238787612697565b6000549091508061125a576112466103e8610c1d61124187876121a5565b61295b565b985061125560006103e86129ad565b6112ab565b6112a86dffffffffffffffffffffffffffff891661127886846121a5565b8161127f57fe5b046dffffffffffffffffffffffffffff891661129b86856121a5565b816112a257fe5b04612a51565b98505b60008911611304576040517f08c379a0000000000000000000000000000000000000000000000000000000008152600401808060200182810382526023815260200180612bfa6023913960400191505060405180910390fd5b61130e8a8a6129ad565b61131a86868a8a61229d565b811561135657600854611352906dffffffffffffffffffffffffffff808216916e0100000000000000000000000000009004166121a5565b600b555b6040805185815260208101859052815133927f4c209b5fc8ad50758f13e2e1088ba56a560dff690a1c6fef26394f4c03821c4f928290030190a250506001600c5550949695505050505050565b60016020526000908152604090205481565b600b5481565b60046020526000908152604090205481565b600080600c5460011461144157604080517f08c379a000000000000000000000000000000000000000000000000000000000815260206004820152600c60248201527f537761703a204c4f434b45440000000000000000000000000000000000000000604482015290519081900360640190fd5b6000600c81905580611451610d92565b50600654600754604080517f70a08231000000000000000000000000000000000000000000000000000000008152306004820152905194965092945073ffffffffffffffffffffffffffffffffffffffff9182169391169160009184916370a08231916024808301926020929190829003018186803b1580156114d357600080fd5b505afa1580156114e7573d6000803e3d6000fd5b505050506040513d60208110156114fd57600080fd5b5051604080517f70a08231000000000000000000000000000000000000000000000000000000008152306004820152905191925060009173ffffffffffffffffffffffffffffffffffffffff8516916370a08231916024808301926020929190829003018186803b15801561157157600080fd5b505afa158015611585573d6000803e3d6000fd5b505050506040513d602081101561159b57600080fd5b5051306000908152600160205260408120549192506115ba8888612697565b600054909150806115cb84876121a5565b816115d257fe5b049a50806115e084866121a5565b816115e757fe5b04995060008b1180156115fa575060008a115b61164f576040517f08c379a0000000000000000000000000000000000000000000000000000000008152600401808060200182810382526023815260200180612c1d6023913960400191505060405180910390fd5b6116593084612a69565b611664878d8d611f98565b61166f868d8c611f98565b604080517f70a08231000000000000000000000000000000000000000000000000000000008152306004820152905173ffffffffffffffffffffffffffffffffffffffff8916916370a08231916024808301926020929190829003018186803b1580156116db57600080fd5b505afa1580156116ef573d6000803e3d6000fd5b505050506040513d602081101561170557600080fd5b5051604080517f70a08231000000000000000000000000000000000000000000000000000000008152306004820152905191965073ffffffffffffffffffffffffffffffffffffffff8816916370a0823191602480820192602092909190829003018186803b15801561177757600080fd5b505afa15801561178b573d6000803e3d6000fd5b505050506040513d60208110156117a157600080fd5b505193506117b185858b8b61229d565b81156117ed576008546117e9906dffffffffffffffffffffffffffff808216916e0100000000000000000000000000009004166121a5565b600b555b604080518c8152602081018c9052815173ffffffffffffffffffffffffffffffffffffffff8f169233927fdccd412f0b1252819cb1fd330b93224ca42612892bb3f4f789976e6d81936496929081900390910190a35050505050505050506001600c81905550915091565b6040518060400160405280600881526020017f4c502d544f4b454e00000000000000000000000000000000000000000000000081525081565b6000610df43384846125c2565b6103e881565b600c5460011461191557604080517f08c379a000000000000000000000000000000000000000000000000000000000815260206004820152600c60248201527f537761703a204c4f434b45440000000000000000000000000000000000000000604482015290519081900360640190fd5b6000600c55600654600754600854604080517f70a08231000000000000000000000000000000000000000000000000000000008152306004820152905173ffffffffffffffffffffffffffffffffffffffff94851694909316926119eb92859287926119e6926dffffffffffffffffffffffffffff169185916370a0823191602480820192602092909190829003018186803b1580156119b457600080fd5b505afa1580156119c8573d6000803e3d6000fd5b505050506040513d60208110156119de57600080fd5b50519061222b565b611f98565b611a8781846119e66008600e9054906101000a90046dffffffffffffffffffffffffffff166dffffffffffffffffffffffffffff168573ffffffffffffffffffffffffffffffffffffffff166370a08231306040518263ffffffff1660e01b8152600401808273ffffffffffffffffffffffffffffffffffffffff16815260200191505060206040518083038186803b1580156119b457600080fd5b50506001600c5550565b60055473ffffffffffffffffffffffffffffffffffffffff1681565b60075473ffffffffffffffffffffffffffffffffffffffff1681565b42841015611b3857604080517f08c379a000000000000000000000000000000000000000000000000000000000815260206004820152600e60248201527f45524332303a2045585049524544000000000000000000000000000000000000604482015290519081900360640190fd5b60035473ffffffffffffffffffffffffffffffffffffffff80891660008181526004602090815260408083208054600180820190925582517f6e71edae12b1b97f4d1f60370fef10105fa2faae0126114a169c64845d6126c98186015280840196909652958d166060860152608085018c905260a085019590955260c08085018b90528151808603909101815260e0850182528051908301207f19010000000000000000000000000000000000000000000000000000000000006101008601526101028501969096526101228085019690965280518085039096018652610142840180825286519683019690962095839052610162840180825286905260ff89166101828501526101a284018890526101c28401879052519193926101e2808201937fffffffffffffffffffffffffffffffffffffffffffffffffffffffffffffffe081019281900390910190855afa158015611c99573d6000803e3d6000fd5b50506040517fffffffffffffffffffffffffffffffffffffffffffffffffffffffffffffffe0015191505073ffffffffffffffffffffffffffffffffffffffff811615801590611d1457508873ffffffffffffffffffffffffffffffffffffffff168173ffffffffffffffffffffffffffffffffffffffff16145b611d7f57604080517f08c379a000000000000000000000000000000000000000000000000000000000815260206004820152601860248201527f45524332303a20494e56414c49445f5349474e41545552450000000000000000604482015290519081900360640190fd5b611d8a898989612553565b505050505050505050565b600260209081526000928352604080842090915290825290205481565b600c54600114611e2357604080517f08c379a000000000000000000000000000000000000000000000000000000000815260206004820152600c60248201527f537761703a204c4f434b45440000000000000000000000000000000000000000604482015290519081900360640190fd5b6000600c55600654604080517f70a082310000000000000000000000000000000000000000000000000000000081523060048201529051611f919273ffffffffffffffffffffffffffffffffffffffff16916370a08231916024808301926020929190829003018186803b158015611e9a57600080fd5b505afa158015611eae573d6000803e3d6000fd5b505050506040513d6020811015611ec457600080fd5b5051600754604080517f70a08231000000000000000000000000000000000000000000000000000000008152306004820152905173ffffffffffffffffffffffffffffffffffffffff909216916370a0823191602480820192602092909190829003018186803b158015611f3757600080fd5b505afa158015611f4b573d6000803e3d6000fd5b505050506040513d6020811015611f6157600080fd5b50516008546dffffffffffffffffffffffffffff808216916e01000000000000000000000000000090041661229d565b6001600c55565b604080518082018252601981527f7472616e7366657228616464726573732c75696e743235362900000000000000602091820152815173ffffffffffffffffffffffffffffffffffffffff85811660248301526044808301869052845180840390910181526064909201845291810180517bffffffffffffffffffffffffffffffffffffffffffffffffffffffff167fa9059cbb000000000000000000000000000000000000000000000000000000001781529251815160009460609489169392918291908083835b6020831061209e57805182527fffffffffffffffffffffffffffffffffffffffffffffffffffffffffffffffe09092019160209182019101612061565b6001836020036101000a0380198251168184511680821785525050505050509050019150506000604051808303816000865af19150503d8060008114612100576040519150601f19603f3d011682016040523d82523d6000602084013e612105565b606091505b5091509150818015612133575080511580612133575080806020019051602081101561213057600080fd5b50515b61219e57604080517f08c379a000000000000000000000000000000000000000000000000000000000815260206004820152601560248201527f506169723a205452414e534645525f4641494c45440000000000000000000000604482015290519081900360640190fd5b5050505050565b60008115806121c0575050808202828282816121bd57fe5b04145b610df857604080517f08c379a000000000000000000000000000000000000000000000000000000000815260206004820152601460248201527f64732d6d6174682d6d756c2d6f766572666c6f77000000000000000000000000604482015290519081900360640190fd5b80820382811115610df857604080517f08c379a000000000000000000000000000000000000000000000000000000000815260206004820152601560248201527f64732d6d6174682d7375622d756e646572666c6f770000000000000000000000604482015290519081900360640190fd5b6dffffffffffffffffffffffffffff84118015906122c957506dffffffffffffffffffffffffffff8311155b61233457604080517f08c379a000000000000000000000000000000000000000000000000000000000815260206004820152600e60248201527f506169723a204f564552464c4f57000000000000000000000000000000000000604482015290519081900360640190fd5b60085463ffffffff428116917c01000000000000000000000000000000000000000000000000000000009004811682039081161580159061238457506dffffffffffffffffffffffffffff841615155b801561239f57506dffffffffffffffffffffffffffff831615155b15612449578063ffffffff166123dc856123b886612b22565b7bffffffffffffffffffffffffffffffffffffffffffffffffffffffff1690612b46565b600980547bffffffffffffffffffffffffffffffffffffffffffffffffffffffff929092169290920201905563ffffffff811661241c846123b887612b22565b600a80547bffffffffffffffffffffffffffffffffffffffffffffffffffffffff92909216929092020190555b600880547fffffffffffffffffffffffffffffffffffff0000000000000000000000000000166dffffffffffffffffffffffffffff888116919091177fffffffff0000000000000000000000000000ffffffffffffffffffffffffffff166e0100000000000000000000000000008883168102919091177bffffffffffffffffffffffffffffffffffffffffffffffffffffffff167c010000000000000000000000000000000000000000000000000000000063ffffffff871602179283905560408051848416815291909304909116602082015281517f1c411e9a96e071241c2f21f7726b17ae89e3cab4c78be50e062b03a9fffbbad1929181900390910190a1505050505050565b73ffffffffffffffffffffffffffffffffffffffff808416600081815260026020908152604080832094871680845294825291829020859055815185815291517f8c5be1e5ebec7d5bd14f71427d1e84f3dd0314c0f7b2291e5b200ac8c7c3b9259281900390910190a3505050565b73ffffffffffffffffffffffffffffffffffffffff83166000908152600160205260409020546125f2908261222b565b73ffffffffffffffffffffffffffffffffffffffff808516600090815260016020526040808220939093559084168152205461262e9082612b87565b73ffffffffffffffffffffffffffffffffffffffff80841660008181526001602090815260409182902094909455805185815290519193928716927fddf252ad1be2c89b69c2b068fc378daa952ba7f163c4a11628f55a4df523b3ef92918290030190a3505050565b600080600560009054906101000a900473ffffffffffffffffffffffffffffffffffffffff1673ffffffffffffffffffffffffffffffffffffffff1663017e7e586040518163ffffffff1660e01b815260040160206040518083038186803b15801561270257600080fd5b505afa158015612716573d6000803e3d6000fd5b505050506040513d602081101561272c57600080fd5b5051600554604080517fb8ff5038000000000000000000000000000000000000000000000000000000008152905192935060009273ffffffffffffffffffffffffffffffffffffffff9092169163b8ff503891600480820192602092909190829003018186803b15801561279f57600080fd5b505afa1580156127b3573d6000803e3d6000fd5b505050506040513d60208110156127c957600080fd5b5051600554604080517f2ff7042a000000000000000000000000000000000000000000000000000000008152905192935060009273ffffffffffffffffffffffffffffffffffffffff90921691632ff7042a9160048082019260209290919082900301818787803b15801561283d57600080fd5b505af1158015612851573d6000803e3d6000fd5b505050506040513d602081101561286757600080fd5b5051600b5473ffffffffffffffffffffffffffffffffffffffff85161580159650919250906129455780156129405760006128b86112416dffffffffffffffffffffffffffff8a8116908a166121a5565b905060006128c58361295b565b90508082111561293d576103e8840460006128ec6128e3858561222b565b600054906121a5565b905060008761290e576129098461290387866121a5565b90612b87565b612918565b6129188585612b87565b9050600081838161292557fe5b0490508015612938576129388a826129ad565b505050505b50505b612951565b8015612951576000600b555b5050505092915050565b6000600382111561299e575080600160028204015b818110156129985780915060028182858161298757fe5b04018161299057fe5b049050612970565b506129a8565b81156129a8575060015b919050565b6000546129ba9082612b87565b600090815573ffffffffffffffffffffffffffffffffffffffff83168152600160205260409020546129ec9082612b87565b73ffffffffffffffffffffffffffffffffffffffff831660008181526001602090815260408083209490945583518581529351929391927fddf252ad1be2c89b69c2b068fc378daa952ba7f163c4a11628f55a4df523b3ef9281900390910190a35050565b6000818310612a605781612a62565b825b9392505050565b73ffffffffffffffffffffffffffffffffffffffff8216600090815260016020526040902054612a99908261222b565b73ffffffffffffffffffffffffffffffffffffffff831660009081526001602052604081209190915554612acd908261222b565b600090815560408051838152905173ffffffffffffffffffffffffffffffffffffffff8516917fddf252ad1be2c89b69c2b068fc378daa952ba7f163c4a11628f55a4df523b3ef919081900360200190a35050565b6dffffffffffffffffffffffffffff166e0100000000000000000000000000000290565b60006dffffffffffffffffffffffffffff82167bffffffffffffffffffffffffffffffffffffffffffffffffffffffff841681612b7f57fe5b049392505050565b80820182811015610df857604080517f08c379a000000000000000000000000000000000000000000000000000000000815260206004820152601460248201527f64732d6d6174682d6164642d6f766572666c6f77000000000000000000000000604482015290519081900360640190fdfe506169723a20494e53554646494349454e545f4c49515549444954595f4d494e544544506169723a20494e53554646494349454e545f4c49515549444954595f4255524e4544a2646970667358221220a99c330c38a095bad3ab61c98b93fa7ce80361739a97bbd6afd331210f2e1b3264736f6c63430007050033a264697066735822122050bd8ed791f6f05653d123f84d05890523ad3cadea43baebba2a78f3414af4c964736f6c63430007050033",
  "immutableReferences": {},
  "source": "// SPDX-License-Identifier: MIT\npragma solidity =0.7.5;\n\nimport './interfaces/IUniswapV2Factory.sol';\nimport './Pair.sol';\n\ncontract Factory is IUniswapV2Factory {\n    uint256 public override protocolFeeDenominator = 3000;\n    uint256 public override totalFee = 996;\n    address public override feeTo;\n    address public override feeToSetter;\n    bytes32 public constant INIT_CODE_PAIR_HASH = keccak256(abi.encodePacked(type(Pair).creationCode));\n    bool public override allFeeToProtocol;\n\n    mapping(address => mapping(address => address)) public override getPair;\n    address[] public override allPairs;\n\n    modifier onlyOwner() {\n        require(msg.sender == feeToSetter, 'Factory: FORBIDDEN');\n        _;\n    }\n\n    constructor(address _feeToSetter) {\n        feeToSetter = _feeToSetter;\n    }\n\n    function allPairsLength() external override view returns (uint256) {\n        return allPairs.length;\n    }\n\n    function createPair(address tokenA, address tokenB) external override returns (address pair) {\n        require(tokenA != tokenB, 'Factory: IDENTICAL_ADDRESSES');\n        (address token0, address token1) = tokenA < tokenB ? (tokenA, tokenB) : (tokenB, tokenA);\n        require(token0 != address(0), 'Factory: ZERO_ADDRESS');\n        require(getPair[token0][token1] == address(0), 'Factory: PAIR_EXISTS'); // single check is sufficient\n        bytes memory bytecode = type(Pair).creationCode;\n        bytes32 salt = keccak256(abi.encodePacked(token0, token1));\n        assembly {\n            pair := create2(0, add(bytecode, 32), mload(bytecode), salt)\n        }\n        IUniswapV2Pair(pair).initialize(token0, token1);\n        getPair[token0][token1] = pair;\n        getPair[token1][token0] = pair; // populate mapping in the reverse direction\n        allPairs.push(pair);\n        emit PairCreated(token0, token1, pair, allPairs.length);\n    }\n\n    function setFeeTo(address _feeTo) external override onlyOwner {\n        feeTo = _feeTo;\n    }\n\n    function setFeeToSetter(address _feeToSetter) external override onlyOwner {\n        feeToSetter = _feeToSetter;\n    }\n\n    function setAllFeeToProtocol(bool _allFeeToProtocol) external override onlyOwner {\n        allFeeToProtocol = _allFeeToProtocol;\n    }\n\n    // set protocol fee denominator to change fee in _mintFee() function of the pair\n    function setProtocolFee(uint _protocolFeeDenominator) external override onlyOwner {\n        require(_protocolFeeDenominator > 0, 'Factory: FORBIDDEN_FEE');\n        protocolFeeDenominator = _protocolFeeDenominator;\n    }\n\n    // set total fee function to change fees in getAmountsOut function\n    function changeTotalFee(uint _totalFee) external override onlyOwner {\n        require(_totalFee > 0, 'Factory: FORBIDDEN_FEE');\n        totalFee = _totalFee;\n    }\n}\n",
  "sourcePath": "/home/user/Github/solidity/core/contracts/Factory.sol",
  "compiler": {
    "name": "solc",
    "version": "0.7.5+commit.eb77ed08.Emscripten.clang"
  },
  "schemaVersion": "3.4.3",
  "updatedAt": "2021-11-30T10:01:50.966Z",
  "networkType": "ethereum",
  "devdoc": {
    "kind": "dev",
    "methods": {},
    "version": 1
  },
  "userdoc": {
    "kind": "user",
    "methods": {},
    "version": 1
  }
}