{"contractName":"Factory","abi":[{"inputs":[{"internalType":"address","name":"_feeToSetter","type":"address"}],"stateMutability":"nonpayable","type":"constructor"},{"anonymous":false,"inputs":[{"indexed":true,"internalType":"address","name":"token0","type":"address"},{"indexed":true,"internalType":"address","name":"token1","type":"address"},{"indexed":false,"internalType":"address","name":"pair","type":"address"},{"indexed":false,"internalType":"uint256","name":"","type":"uint256"}],"name":"PairCreated","type":"event"},{"inputs":[],"name":"INIT_CODE_PAIR_HASH","outputs":[{"internalType":"bytes32","name":"","type":"bytes32"}],"stateMutability":"view","type":"function"},{"inputs":[],"name":"MAX_PROTOCOL_FEE_PERCENT","outputs":[{"internalType":"uint256","name":"","type":"uint256"}],"stateMutability":"view","type":"function"},{"inputs":[],"name":"MAX_TOTAL_FEE_PERCENT","outputs":[{"internalType":"uint256","name":"","type":"uint256"}],"stateMutability":"view","type":"function"},{"inputs":[{"internalType":"uint256","name":"","type":"uint256"}],"name":"POSSIBLE_PROTOCOL_PERCENT","outputs":[{"internalType":"uint256","name":"","type":"uint256"}],"stateMutability":"view","type":"function"},{"inputs":[],"name":"allFeeToProtocol","outputs":[{"internalType":"bool","name":"","type":"bool"}],"stateMutability":"view","type":"function"},{"inputs":[{"internalType":"uint256","name":"","type":"uint256"}],"name":"allPairs","outputs":[{"internalType":"address","name":"","type":"address"}],"stateMutability":"view","type":"function"},{"inputs":[],"name":"devFeePercent","outputs":[{"internalType":"uint256","name":"","type":"uint256"}],"stateMutability":"view","type":"function"},{"inputs":[],"name":"devFeeSetter","outputs":[{"internalType":"address","name":"","type":"address"}],"stateMutability":"view","type":"function"},{"inputs":[],"name":"devFeeTo","outputs":[{"internalType":"address","name":"","type":"address"}],"stateMutability":"view","type":"function"},{"inputs":[],"name":"feeTo","outputs":[{"internalType":"address","name":"","type":"address"}],"stateMutability":"view","type":"function"},{"inputs":[],"name":"feeToSetter","outputs":[{"internalType":"address","name":"","type":"address"}],"stateMutability":"view","type":"function"},{"inputs":[{"internalType":"address","name":"","type":"address"},{"internalType":"address","name":"","type":"address"}],"name":"getPair","outputs":[{"internalType":"address","name":"","type":"address"}],"stateMutability":"view","type":"function"},{"inputs":[],"name":"protocolFee","outputs":[{"internalType":"uint256","name":"","type":"uint256"}],"stateMutability":"view","type":"function"},{"inputs":[],"name":"totalFee","outputs":[{"internalType":"uint256","name":"","type":"uint256"}],"stateMutability":"view","type":"function"},{"inputs":[],"name":"allPairsLength","outputs":[{"internalType":"uint256","name":"","type":"uint256"}],"stateMutability":"view","type":"function"},{"inputs":[],"name":"allInfo","outputs":[{"components":[{"internalType":"uint256[30]","name":"POSSIBLE_PROTOCOL_PERCENT","type":"uint256[30]"},{"internalType":"uint256","name":"MAX_TOTAL_FEE_PERCENT","type":"uint256"},{"internalType":"uint256","name":"MAX_PROTOCOL_FEE_PERCENT","type":"uint256"},{"internalType":"uint256","name":"protocolFee","type":"uint256"},{"internalType":"uint256","name":"totalFee","type":"uint256"},{"internalType":"uint256","name":"devFeePercent","type":"uint256"},{"internalType":"address","name":"feeTo","type":"address"},{"internalType":"address","name":"feeToSetter","type":"address"},{"internalType":"address","name":"devFeeTo","type":"address"},{"internalType":"address","name":"devFeeSetter","type":"address"},{"internalType":"bool","name":"allFeeToProtocol","type":"bool"},{"internalType":"bytes32","name":"INIT_CODE_PAIR_HASH","type":"bytes32"}],"internalType":"struct IFactory.AllInfo","name":"","type":"tuple"}],"stateMutability":"view","type":"function"},{"inputs":[{"internalType":"address","name":"tokenA","type":"address"},{"internalType":"address","name":"tokenB","type":"address"}],"name":"createPair","outputs":[{"internalType":"address","name":"pair","type":"address"}],"stateMutability":"nonpayable","type":"function"},{"inputs":[{"internalType":"uint256","name":"_devFeePercent","type":"uint256"}],"name":"setDevFeePercent","outputs":[],"stateMutability":"nonpayable","type":"function"},{"inputs":[{"internalType":"address","name":"_feeTo","type":"address"}],"name":"setFeeTo","outputs":[],"stateMutability":"nonpayable","type":"function"},{"inputs":[{"internalType":"address","name":"_feeToSetter","type":"address"}],"name":"setFeeToSetter","outputs":[],"stateMutability":"nonpayable","type":"function"},{"inputs":[{"internalType":"address","name":"_devFeeTo","type":"address"}],"name":"setDevFeeTo","outputs":[],"stateMutability":"nonpayable","type":"function"},{"inputs":[{"internalType":"address","name":"_devFeeToSetter","type":"address"}],"name":"setDevFeeSetter","outputs":[],"stateMutability":"nonpayable","type":"function"},{"inputs":[{"internalType":"bool","name":"_allFeeToProtocol","type":"bool"}],"name":"setAllFeeToProtocol","outputs":[],"stateMutability":"nonpayable","type":"function"},{"inputs":[{"internalType":"uint256","name":"_totalFee","type":"uint256"},{"internalType":"uint256","name":"_protocolFee","type":"uint256"}],"name":"setMainFees","outputs":[],"stateMutability":"nonpayable","type":"function"},{"inputs":[{"internalType":"uint256","name":"_totalFee","type":"uint256"}],"name":"setTotalFee","outputs":[],"stateMutability":"nonpayable","type":"function"},{"inputs":[{"internalType":"uint256","name":"_protocolFee","type":"uint256"}],"name":"setProtocolFee","outputs":[],"stateMutability":"nonpayable","type":"function"}],"bytecode":"0x610440604052612710608090815261138860a052610ce460c0526109c460e0526107d06101005261064061012052610578610140526104b06101605261044c610180526103e86101a0526103846101c0526103206101e08190526102bc61020052610258610220526101f4610240526101906102605261012c6102805260c86102a05260646102c052605a6102e05260506103005260469052603c61034052603261036052602861038052601e6103a081905260146103c052600a6103e052600561040052600161042052620000d89160009162000168565b50348015620000e657600080fd5b50604051620051aa380380620051aa8339810160408190526200010991620001c8565b602280546001600160a01b039092166001600160a01b03199283161790556107d0601e556003601f556014602055602380548216734086a2cae8d3fccd94d1172006516c7d0794c7ee90811790915560248054909216179055620001f8565b82601e81019282156200019f579160200282015b828111156200019f578251829061ffff169055916020019190600101906200017c565b50620001ad929150620001b1565b5090565b5b80821115620001ad5760008155600101620001b2565b600060208284031215620001da578081fd5b81516001600160a01b0381168114620001f1578182fd5b9392505050565b614fa280620002086000396000f3fe60806040523480156200001157600080fd5b5060043610620001d85760003560e01c80638db07c4d1162000105578063bf1d90db11620000a5578063e6a43905116200007b578063e6a439051462000373578063ef7adc00146200038a578063f1f5aa7414620003a3578063f46901ed14620003ba57620001d8565b8063bf1d90db146200033b578063c9c653961462000352578063d63cdaa3146200036957620001d8565b8063a74d5f3011620000db578063a74d5f30146200030e578063b0e21e8a1462000318578063b8ff5038146200032257620001d8565b80638db07c4d14620002d6578063992d0ebb14620002e0578063a2e74af614620002f757620001d8565b8063379e2919116200017d578063574f2ba31162000153578063574f2ba314620002a15780635855a25a14620002ab578063787dce3d14620002b557806380d9e8e914620002cc57620001d8565b8063379e291914620002695780633f64a7ab14620002805780633f8848af146200028a57620001d8565b80631df4ccfc11620001b35780631df4ccfc146200022f5780631e3dd18b146200023957806321a45442146200025057620001d8565b8063017e7e5814620001dd578063094b741514620001ff57806315067b841462000209575b600080fd5b620001e7620003d1565b604051620001f69190620012ce565b60405180910390f35b620001e7620003ed565b620002206200021a366004620011d2565b62000409565b604051620001f6919062001347565b6200022062000421565b620001e76200024a366004620011d2565b62000427565b620002676200026136600462001155565b6200045f565b005b620002676200027a366004620011d2565b62000503565b620002206200059a565b620002676200029b36600462001155565b620005a0565b620002206200063b565b6200022062000641565b62000267620002c6366004620011d2565b620006ad565b620001e76200070f565b620001e76200072b565b62000267620002f1366004620011d2565b62000747565b620002676200030836600462001155565b620007a6565b6200022062000841565b6200022062000847565b6200032c6200084d565b604051620001f691906200133c565b620002676200034c366004620011eb565b6200086e565b620001e76200036336600462001179565b62000928565b6200022062000c86565b620001e76200038436600462001179565b62000c8c565b6200039462000cbf565b604051620001f69190620014d1565b62000267620003b4366004620011b0565b62000e0e565b62000267620003cb36600462001155565b62000eac565b60215473ffffffffffffffffffffffffffffffffffffffff1681565b60225473ffffffffffffffffffffffffffffffffffffffff1681565b600081601e81106200041a57600080fd5b0154905081565b601f5481565b602681815481106200043857600080fd5b60009182526020909120015473ffffffffffffffffffffffffffffffffffffffff16905081565b60245473ffffffffffffffffffffffffffffffffffffffff163314620004bc576040517f08c379a0000000000000000000000000000000000000000000000000000000008152600401620004b39062001463565b60405180910390fd5b602380547fffffffffffffffffffffffff00000000000000000000000000000000000000001673ffffffffffffffffffffffffffffffffffffffff92909216919091179055565b60245473ffffffffffffffffffffffffffffffffffffffff16331462000557576040517f08c379a0000000000000000000000000000000000000000000000000000000008152600401620004b39062001463565b606481111562000595576040517f08c379a0000000000000000000000000000000000000000000000000000000008152600401620004b390620013be565b602055565b60205481565b60245473ffffffffffffffffffffffffffffffffffffffff163314620005f4576040517f08c379a0000000000000000000000000000000000000000000000000000000008152600401620004b39062001463565b602480547fffffffffffffffffffffffff00000000000000000000000000000000000000001673ffffffffffffffffffffffffffffffffffffffff92909216919091179055565b60265490565b604051620006526020820162001091565b7fffffffffffffffffffffffffffffffffffffffffffffffffffffffffffffffe082820381018352601f90910116604081905262000694919060200162001292565b6040516020818303038152906040528051906020012081565b60225473ffffffffffffffffffffffffffffffffffffffff16331462000701576040517f08c379a0000000000000000000000000000000000000000000000000000000008152600401620004b39062001463565b6200070c8162000f47565b50565b60245473ffffffffffffffffffffffffffffffffffffffff1681565b60235473ffffffffffffffffffffffffffffffffffffffff1681565b60225473ffffffffffffffffffffffffffffffffffffffff1633146200079b576040517f08c379a0000000000000000000000000000000000000000000000000000000008152600401620004b39062001463565b6200070c8162001041565b60225473ffffffffffffffffffffffffffffffffffffffff163314620007fa576040517f08c379a0000000000000000000000000000000000000000000000000000000008152600401620004b39062001463565b602280547fffffffffffffffffffffffff00000000000000000000000000000000000000001673ffffffffffffffffffffffffffffffffffffffff92909216919091179055565b61271081565b601e5481565b60245474010000000000000000000000000000000000000000900460ff1681565b60225473ffffffffffffffffffffffffffffffffffffffff163314620008c2576040517f08c379a0000000000000000000000000000000000000000000000000000000008152600401620004b39062001463565b620008cd8262001041565b620008d88162000f47565b81601f54148015620008eb575080601e54145b62000924576040517f08c379a0000000000000000000000000000000000000000000000000000000008152600401620004b390620013f5565b5050565b60008173ffffffffffffffffffffffffffffffffffffffff168373ffffffffffffffffffffffffffffffffffffffff16141562000993576040517f08c379a0000000000000000000000000000000000000000000000000000000008152600401620004b39062001350565b6000808373ffffffffffffffffffffffffffffffffffffffff168573ffffffffffffffffffffffffffffffffffffffff1610620009d2578385620009d5565b84845b909250905073ffffffffffffffffffffffffffffffffffffffff821662000a2a576040517f08c379a0000000000000000000000000000000000000000000000000000000008152600401620004b3906200149a565b73ffffffffffffffffffffffffffffffffffffffff82811660009081526025602090815260408083208585168452909152902054161562000a99576040517f08c379a0000000000000000000000000000000000000000000000000000000008152600401620004b39062001387565b60006040518060200162000aad9062001091565b6020820181038252601f19601f8201166040525090506000838360405160200162000ada92919062001258565b604051602081830303815290604052805190602001209050808251602084016000f56040517f485cc95500000000000000000000000000000000000000000000000000000000815290955073ffffffffffffffffffffffffffffffffffffffff86169063485cc9559062000b559087908790600401620012ef565b600060405180830381600087803b15801562000b7057600080fd5b505af115801562000b85573d6000803e3d6000fd5b5050505073ffffffffffffffffffffffffffffffffffffffff84811660008181526025602081815260408084208987168086529083528185208054978d167fffffffffffffffffffffffff00000000000000000000000000000000000000009889168117909155938352818520868652909252808420805487168417905560268054600181018255948190527f744a2cf8fd7008e3d53b67916e73460df9fa5214e3ef23dd4259ca09493a35949094018054909616909217909455905490517f0d3648bd0f6ba80134a33ba9275ac585d9d315f0ad8355cddefde31afa28d0e99162000c74918a919062001316565b60405180910390a35050505092915050565b6103e881565b602560209081526000928352604080842090915290825290205473ffffffffffffffffffffffffffffffffffffffff1681565b62000cc96200109f565b6040805161054081019091528061018081016000601e8282826020028201915b81548152602001906001019080831162000ce95750505091835250506103e8602080830191909152612710604080840191909152601e546060840152601f546080840152815460a084015260215473ffffffffffffffffffffffffffffffffffffffff90811660c0850152602254811660e0850152602354811661010085015260245490811661012085015274010000000000000000000000000000000000000000900460ff16151561014084015251610160909201919062000dae90820162001091565b7fffffffffffffffffffffffffffffffffffffffffffffffffffffffffffffffe082820381018352601f90910116604081905262000df0919060200162001292565b60405160208183030381529060405280519060200120815250905090565b60225473ffffffffffffffffffffffffffffffffffffffff16331462000e62576040517f08c379a0000000000000000000000000000000000000000000000000000000008152600401620004b39062001463565b6024805491151574010000000000000000000000000000000000000000027fffffffffffffffffffffff00ffffffffffffffffffffffffffffffffffffffff909216919091179055565b60225473ffffffffffffffffffffffffffffffffffffffff16331462000f00576040517f08c379a0000000000000000000000000000000000000000000000000000000008152600401620004b39062001463565b602180547fffffffffffffffffffffffff00000000000000000000000000000000000000001673ffffffffffffffffffffffffffffffffffffffff92909216919091179055565b61271081111562000f86576040517f08c379a0000000000000000000000000000000000000000000000000000000008152600401620004b3906200142c565b80156200103c576000805b601e81101562000fff57600081601e811062000fd6577f4e487b7100000000000000000000000000000000000000000000000000000000600052603260045260246000fd5b015483141562000fea576001915062000fff565b8062000ff681620015bb565b91505062000f91565b50806200103a576040517f08c379a0000000000000000000000000000000000000000000000000000000008152600401620004b3906200142c565b505b601e55565b6200105060016103e8620015a1565b8111156200108c576040517f08c379a0000000000000000000000000000000000000000000000000000000008152600401620004b3906200142c565b601f55565b613946806200162783390190565b604051806101800160405280620010b56200110c565b815260006020820181905260408201819052606082018190526080820181905260a0820181905260c0820181905260e082018190526101008201819052610120820181905261014082018190526101609091015290565b604051806103c00160405280601e906020820280368337509192915050565b803573ffffffffffffffffffffffffffffffffffffffff811681146200115057600080fd5b919050565b60006020828403121562001167578081fd5b62001172826200112b565b9392505050565b600080604083850312156200118c578081fd5b62001197836200112b565b9150620011a7602084016200112b565b90509250929050565b600060208284031215620011c2578081fd5b8135801515811462001172578182fd5b600060208284031215620011e4578081fd5b5035919050565b60008060408385031215620011fe578182fd5b50508035926020909101359150565b73ffffffffffffffffffffffffffffffffffffffff169052565b8060005b601e8110156200124c5781518452602093840193909101906001016200122b565b50505050565b15159052565b7fffffffffffffffffffffffffffffffffffffffff000000000000000000000000606093841b811682529190921b16601482015260280190565b60008251815b81811015620012b4576020818601810151858301520162001298565b81811115620012c35782828501525b509190910192915050565b73ffffffffffffffffffffffffffffffffffffffff91909116815260200190565b73ffffffffffffffffffffffffffffffffffffffff92831681529116602082015260400190565b73ffffffffffffffffffffffffffffffffffffffff929092168252602082015260400190565b901515815260200190565b90815260200190565b6020808252601c908201527f466163746f72793a204944454e544943414c5f41444452455353455300000000604082015260600190565b60208082526014908201527f466163746f72793a20504149525f455849535453000000000000000000000000604082015260600190565b60208082526019908201527f466163746f72793a2057524f4e475f50455243454e5441474500000000000000604082015260600190565b60208082526016908201527f466163746f72793a2043414e4e4f545f4348414e474500000000000000000000604082015260600190565b60208082526016908201527f466163746f72793a20464f5242494444454e5f46454500000000000000000000604082015260600190565b60208082526012908201527f466163746f72793a20464f5242494444454e0000000000000000000000000000604082015260600190565b60208082526015908201527f466163746f72793a205a45524f5f414444524553530000000000000000000000604082015260600190565b600061052082019050620014e782845162001227565b60208301516103c083015260408301516103e08301526060830151610400830152608083015161042083015260a083015161044083015260c0830151620015336104608401826200120d565b5060e0830151620015496104808401826200120d565b50610100830151620015606104a08401826200120d565b50610120830151620015776104c08401826200120d565b506101408301516200158e6104e084018262001252565b5061016083015161050083015292915050565b600082821015620015b657620015b6620015f7565b500390565b60007fffffffffffffffffffffffffffffffffffffffffffffffffffffffffffffffff821415620015f057620015f0620015f7565b5060010190565b7f4e487b7100000000000000000000000000000000000000000000000000000000600052601160045260246000fdfe60806040526001600c553480156200001657600080fd5b50604080518082018252601481527f4c69717569646974792d506f6f6c2d546f6b656e0000000000000000000000006020918201528151808301835260018152603160f81b9082015290514691620000d9917f8b73c3c69bb8fe3d512ecc4cf759cc79239f7b179b0ffacaa9a75d522b39400f917fee49096366cc590b73291b7aa9e5e091aa761dec637befae63796ffa4f337d4a917fc89efdaa54c0f20c7adf612882df0950f5a951637e0307cdcb4c672f298b8bc69186913091016200010d565b60408051601f19818403018152919052805160209091012060035550600580546001600160a01b0319163317905562000139565b9485526020850193909352604084019190915260608301526001600160a01b0316608082015260a00190565b6137fd80620001496000396000f3fe608060405234801561001057600080fd5b50600436106101b95760003560e01c80636a627842116100f9578063ba9a7a5611610097578063d21220a711610071578063d21220a71461034d578063d505accf14610355578063dd62ed3e14610368578063fff6cae91461037b576101b9565b8063ba9a7a561461032a578063bc25cf7714610332578063c45a015514610345576101b9565b80637ecebe00116100d35780637ecebe00146102db57806389afcb44146102ee57806395d89b411461030f578063a9059cbb14610317576101b9565b80636a627842146102ad57806370a08231146102c05780637464fc3d146102d3576101b9565b806323b872dd116101665780633644e515116101405780633644e51514610282578063485cc9551461028a5780635909c0d51461029d5780635a3d5493146102a5576101b9565b806323b872dd1461025257806330adf81f14610265578063313ce5671461026d576101b9565b8063095ea7b311610197578063095ea7b3146102085780630dfe16811461022857806318160ddd1461023d576101b9565b8063022c0d9f146101be57806306fdde03146101d35780630902f1ac146101f1575b600080fd5b6101d16101cc366004612d04565b610383565b005b6101db610a8a565b6040516101e89190612f19565b60405180910390f35b6101f9610ac3565b6040516101e893929190613410565b61021b610216366004612ca1565b610b18565b6040516101e89190612ea6565b610230610b2f565b6040516101e89190612de7565b610245610b4b565b6040516101e89190612eb1565b61021b610260366004612bec565b610b51565b610245610c2b565b610275610c4f565b6040516101e89190613469565b610245610c54565b6101d1610298366004612bb4565b610c5a565b610245610cfe565b610245610d04565b6102456102bb366004612b7c565b610d0a565b6102456102ce366004612b7c565b611079565b61024561108b565b6102456102e9366004612b7c565b611091565b6103016102fc366004612b7c565b6110a3565b6040516101e8929190613440565b6101db6114fc565b61021b610325366004612ca1565b611535565b610245611542565b6101d1610340366004612b7c565b611548565b6102306116d7565b6102306116f3565b6101d1610363366004612c2c565b61170f565b610245610376366004612bb4565b611910565b6101d161192d565b600c546001146103c8576040517f08c379a00000000000000000000000000000000000000000000000000000000081526004016103bf9061306c565b60405180910390fd5b6000600c55841515806103db5750600084115b610411576040517f08c379a00000000000000000000000000000000000000000000000000000000081526004016103bf9061334c565b60008061041c610ac3565b5091509150816dffffffffffffffffffffffffffff168710801561044f5750806dffffffffffffffffffffffffffff1686105b610485576040517f08c379a00000000000000000000000000000000000000000000000000000000081526004016103bf90613381565b600654600754600091829173ffffffffffffffffffffffffffffffffffffffff9182169190811690891682148015906104ea57508073ffffffffffffffffffffffffffffffffffffffff168973ffffffffffffffffffffffffffffffffffffffff1614155b610520576040517f08c379a00000000000000000000000000000000000000000000000000000000081526004016103bf90613213565b8a1561053157610531828a8d611af1565b891561054257610542818a8c611af1565b86156105d5576040517f10d1e85c00000000000000000000000000000000000000000000000000000000815273ffffffffffffffffffffffffffffffffffffffff8a16906310d1e85c906105a29033908f908f908e908e90600401612e2e565b600060405180830381600087803b1580156105bc57600080fd5b505af11580156105d0573d6000803e3d6000fd5b505050505b6040517f70a0823100000000000000000000000000000000000000000000000000000000815273ffffffffffffffffffffffffffffffffffffffff8316906370a0823190610627903090600401612de7565b60206040518083038186803b15801561063f57600080fd5b505afa158015610653573d6000803e3d6000fd5b505050506040513d601f19601f820116820180604052508101906106779190612cec565b6040517f70a0823100000000000000000000000000000000000000000000000000000000815290945073ffffffffffffffffffffffffffffffffffffffff8216906370a08231906106cc903090600401612de7565b60206040518083038186803b1580156106e457600080fd5b505afa1580156106f8573d6000803e3d6000fd5b505050506040513d601f19601f8201168201806040525081019061071c9190612cec565b92505050600089856dffffffffffffffffffffffffffff1661073e919061368b565b831161074b57600061076f565b6107658a6dffffffffffffffffffffffffffff871661368b565b61076f908461368b565b9050600061078d8a6dffffffffffffffffffffffffffff871661368b565b831161079a5760006107be565b6107b48a6dffffffffffffffffffffffffffff871661368b565b6107be908461368b565b905060008211806107cf5750600081115b610805576040517f08c379a00000000000000000000000000000000000000000000000000000000081526004016103bf906132de565b600554604080517fd63cdaa3000000000000000000000000000000000000000000000000000000008152905160009273ffffffffffffffffffffffffffffffffffffffff169163d63cdaa3916004808301926020929190829003018186803b15801561087057600080fd5b505afa158015610884573d6000803e3d6000fd5b505050506040513d601f19601f820116820180604052508101906108a89190612cec565b90506000600560009054906101000a900473ffffffffffffffffffffffffffffffffffffffff1673ffffffffffffffffffffffffffffffffffffffff16631df4ccfc6040518163ffffffff1660e01b815260040160206040518083038186803b15801561091457600080fd5b505afa158015610928573d6000803e3d6000fd5b505050506040513d601f19601f8201168201806040525081019061094c9190612cec565b9050600061096d61095d8684611ca7565b6109678986611ca7565b90611d01565b9050600061098861097e8685611ca7565b6109678987611ca7565b90506109bb610998600286613524565b6109b56dffffffffffffffffffffffffffff8d8116908d16611ca7565b90611ca7565b6109c58383611ca7565b10156109fd576040517f08c379a00000000000000000000000000000000000000000000000000000000081526004016103bf90613315565b50505050610a0d84848888611d49565b8873ffffffffffffffffffffffffffffffffffffffff163373ffffffffffffffffffffffffffffffffffffffff167fd78ad95fa46c994b6551d0da85fc275fe613ce37657fb8d5e3d130840159d82284848f8f604051610a70949392919061344e565b60405180910390a350506001600c55505050505050505050565b6040518060400160405280601481526020017f4c69717569646974792d506f6f6c2d546f6b656e00000000000000000000000081525081565b6008546dffffffffffffffffffffffffffff808216926e0100000000000000000000000000008304909116917c0100000000000000000000000000000000000000000000000000000000900463ffffffff1690565b6000610b2533848461200c565b5060015b92915050565b60065473ffffffffffffffffffffffffffffffffffffffff1681565b60005481565b73ffffffffffffffffffffffffffffffffffffffff831660009081526002602090815260408083203384529091528120547fffffffffffffffffffffffffffffffffffffffffffffffffffffffffffffffff14610c155773ffffffffffffffffffffffffffffffffffffffff84166000908152600260209081526040808320338452909152902054610be39083611d01565b73ffffffffffffffffffffffffffffffffffffffff851660009081526002602090815260408083203384529091529020555b610c20848484612081565b5060015b9392505050565b7f6e71edae12b1b97f4d1f60370fef10105fa2faae0126114a169c64845d6126c981565b601281565b60035481565b60055473ffffffffffffffffffffffffffffffffffffffff163314610cab576040517f08c379a00000000000000000000000000000000000000000000000000000000081526004016103bf9061316e565b6006805473ffffffffffffffffffffffffffffffffffffffff9384167fffffffffffffffffffffffff00000000000000000000000000000000000000009182161790915560078054929093169116179055565b60095481565b600a5481565b6000600c54600114610d48576040517f08c379a00000000000000000000000000000000000000000000000000000000081526004016103bf9061306c565b6000600c81905580610d58610ac3565b506006546040517f70a0823100000000000000000000000000000000000000000000000000000000815292945090925060009173ffffffffffffffffffffffffffffffffffffffff909116906370a0823190610db8903090600401612de7565b60206040518083038186803b158015610dd057600080fd5b505afa158015610de4573d6000803e3d6000fd5b505050506040513d601f19601f82011682018060405250810190610e089190612cec565b6007546040517f70a0823100000000000000000000000000000000000000000000000000000000815291925060009173ffffffffffffffffffffffffffffffffffffffff909116906370a0823190610e64903090600401612de7565b60206040518083038186803b158015610e7c57600080fd5b505afa158015610e90573d6000803e3d6000fd5b505050506040513d601f19601f82011682018060405250810190610eb49190612cec565b90506000610ed2836dffffffffffffffffffffffffffff8716611d01565b90506000610ef0836dffffffffffffffffffffffffffff8716611d01565b90506000610efe878761214c565b60005490915080610f3557610f216103e8610967610f1c8787611ca7565b612624565b9850610f3060006103e8612694565b610f8a565b610f876dffffffffffffffffffffffffffff8916610f538684611ca7565b610f5d91906134ca565b6dffffffffffffffffffffffffffff8916610f788685611ca7565b610f8291906134ca565b61273b565b98505b60008911610fc4576040517f08c379a00000000000000000000000000000000000000000000000000000000081526004016103bf90612f6a565b610fce8a8a612694565b610fda86868a8a611d49565b811561101657600854611012906dffffffffffffffffffffffffffff808216916e010000000000000000000000000000900416611ca7565b600b555b3373ffffffffffffffffffffffffffffffffffffffff167f4c209b5fc8ad50758f13e2e1088ba56a560dff690a1c6fef26394f4c03821c4f858560405161105e929190613440565b60405180910390a250506001600c5550949695505050505050565b60016020526000908152604090205481565b600b5481565b60046020526000908152604090205481565b600080600c546001146110e2576040517f08c379a00000000000000000000000000000000000000000000000000000000081526004016103bf9061306c565b6000600c819055806110f2610ac3565b506006546007546040517f70a0823100000000000000000000000000000000000000000000000000000000815293955091935073ffffffffffffffffffffffffffffffffffffffff9081169291169060009083906370a082319061115a903090600401612de7565b60206040518083038186803b15801561117257600080fd5b505afa158015611186573d6000803e3d6000fd5b505050506040513d601f19601f820116820180604052508101906111aa9190612cec565b905060008273ffffffffffffffffffffffffffffffffffffffff166370a08231306040518263ffffffff1660e01b81526004016111e79190612de7565b60206040518083038186803b1580156111ff57600080fd5b505afa158015611213573d6000803e3d6000fd5b505050506040513d601f19601f820116820180604052508101906112379190612cec565b30600090815260016020526040812054919250611254888861214c565b600054909150806112658487611ca7565b61126f91906134ca565b9a508061127c8486611ca7565b61128691906134ca565b995060008b118015611298575060008a115b6112ce576040517f08c379a00000000000000000000000000000000000000000000000000000000081526004016103bf90613111565b6112d83084612751565b6112e3878d8d611af1565b6112ee868d8c611af1565b6040517f70a0823100000000000000000000000000000000000000000000000000000000815273ffffffffffffffffffffffffffffffffffffffff8816906370a0823190611340903090600401612de7565b60206040518083038186803b15801561135857600080fd5b505afa15801561136c573d6000803e3d6000fd5b505050506040513d601f19601f820116820180604052508101906113909190612cec565b6040517f70a0823100000000000000000000000000000000000000000000000000000000815290955073ffffffffffffffffffffffffffffffffffffffff8716906370a08231906113e5903090600401612de7565b60206040518083038186803b1580156113fd57600080fd5b505afa158015611411573d6000803e3d6000fd5b505050506040513d601f19601f820116820180604052508101906114359190612cec565b935061144385858b8b611d49565b811561147f5760085461147b906dffffffffffffffffffffffffffff808216916e010000000000000000000000000000900416611ca7565b600b555b8b73ffffffffffffffffffffffffffffffffffffffff163373ffffffffffffffffffffffffffffffffffffffff167fdccd412f0b1252819cb1fd330b93224ca42612892bb3f4f789976e6d819364968d8d6040516114de929190613440565b60405180910390a35050505050505050506001600c81905550915091565b6040518060400160405280600881526020017f4c502d544f4b454e00000000000000000000000000000000000000000000000081525081565b6000610b25338484612081565b6103e881565b600c54600114611584576040517f08c379a00000000000000000000000000000000000000000000000000000000081526004016103bf9061306c565b6000600c556006546007546008546040517f70a0823100000000000000000000000000000000000000000000000000000000815273ffffffffffffffffffffffffffffffffffffffff938416939092169161165f918491869161165a916dffffffffffffffffffffffffffff9091169084906370a082319061160a903090600401612de7565b60206040518083038186803b15801561162257600080fd5b505afa158015611636573d6000803e3d6000fd5b505050506040513d601f19601f820116820180604052508101906109679190612cec565b611af1565b6116cd818461165a6008600e9054906101000a90046dffffffffffffffffffffffffffff166dffffffffffffffffffffffffffff168573ffffffffffffffffffffffffffffffffffffffff166370a08231306040518263ffffffff1660e01b815260040161160a9190612de7565b50506001600c5550565b60055473ffffffffffffffffffffffffffffffffffffffff1681565b60075473ffffffffffffffffffffffffffffffffffffffff1681565b42841015611749576040517f08c379a00000000000000000000000000000000000000000000000000000000081526004016103bf906131a5565b60035473ffffffffffffffffffffffffffffffffffffffff8816600090815260046020526040812080549192917f6e71edae12b1b97f4d1f60370fef10105fa2faae0126114a169c64845d6126c9918b918b918b9190876117a9836136f7565b919050558a6040516020016117c396959493929190612eba565b604051602081830303815290604052805190602001206040516020016117ea929190612db1565b6040516020818303038152906040528051906020012090506000600182868686604051600081526020016040526040516118279493929190612efb565b6020604051602081039080840390855afa158015611849573d6000803e3d6000fd5b50506040517fffffffffffffffffffffffffffffffffffffffffffffffffffffffffffffffe0015191505073ffffffffffffffffffffffffffffffffffffffff8116158015906118c457508873ffffffffffffffffffffffffffffffffffffffff168173ffffffffffffffffffffffffffffffffffffffff16145b6118fa576040517f08c379a00000000000000000000000000000000000000000000000000000000081526004016103bf90612ffe565b61190589898961200c565b505050505050505050565b600260209081526000928352604080842090915290825290205481565b600c54600114611969576040517f08c379a00000000000000000000000000000000000000000000000000000000081526004016103bf9061306c565b6000600c556006546040517f70a08231000000000000000000000000000000000000000000000000000000008152611aea9173ffffffffffffffffffffffffffffffffffffffff16906370a08231906119c6903090600401612de7565b60206040518083038186803b1580156119de57600080fd5b505afa1580156119f2573d6000803e3d6000fd5b505050506040513d601f19601f82011682018060405250810190611a169190612cec565b6007546040517f70a0823100000000000000000000000000000000000000000000000000000000815273ffffffffffffffffffffffffffffffffffffffff909116906370a0823190611a6c903090600401612de7565b60206040518083038186803b158015611a8457600080fd5b505afa158015611a98573d6000803e3d6000fd5b505050506040513d601f19601f82011682018060405250810190611abc9190612cec565b6008546dffffffffffffffffffffffffffff808216916e010000000000000000000000000000900416611d49565b6001600c55565b604080518082018252601981527f7472616e7366657228616464726573732c75696e74323536290000000000000060209091015251600090819073ffffffffffffffffffffffffffffffffffffffff8616907fa9059cbb2ab09eb219583f4a59a5d0623ade346d962bcd4e46b11da047c9049b90611b759087908790602401612e08565b604080517fffffffffffffffffffffffffffffffffffffffffffffffffffffffffffffffe08184030181529181526020820180517bffffffffffffffffffffffffffffffffffffffffffffffffffffffff167fffffffff00000000000000000000000000000000000000000000000000000000909416939093179092529051611bfe9190612d95565b6000604051808303816000865af19150503d8060008114611c3b576040519150601f19603f3d011682016040523d82523d6000602084013e611c40565b606091505b5091509150818015611c6a575080511580611c6a575080806020019051810190611c6a9190612ccc565b611ca0576040517f08c379a00000000000000000000000000000000000000000000000000000000081526004016103bf906133b8565b5050505050565b6000811580611ccb57508282611cbd818361364e565b9250611cc990836134ca565b145b610b29576040517f08c379a00000000000000000000000000000000000000000000000000000000081526004016103bf906130da565b600082611d0e838261368b565b9150811115610b29576040517f08c379a00000000000000000000000000000000000000000000000000000000081526004016103bf90612fc7565b6dffffffffffffffffffffffffffff8411801590611d7557506dffffffffffffffffffffffffffff8311155b611dab576040517f08c379a00000000000000000000000000000000000000000000000000000000081526004016103bf906130a3565b6000611dbc64010000000042613730565b600854909150600090611df5907c0100000000000000000000000000000000000000000000000000000000900463ffffffff16836136a2565b905060008163ffffffff16118015611e1c57506dffffffffffffffffffffffffffff841615155b8015611e3757506dffffffffffffffffffffffffffff831615155b15611f05578063ffffffff16611e7485611e5086612802565b7bffffffffffffffffffffffffffffffffffffffffffffffffffffffff169061282d565b7bffffffffffffffffffffffffffffffffffffffffffffffffffffffff16611e9c919061364e565b60096000828254611ead9190613477565b909155505063ffffffff8116611ec684611e5087612802565b7bffffffffffffffffffffffffffffffffffffffffffffffffffffffff16611eee919061364e565b600a6000828254611eff9190613477565b90915550505b600880547fffffffffffffffffffffffffffffffffffff0000000000000000000000000000166dffffffffffffffffffffffffffff888116919091177fffffffff0000000000000000000000000000ffffffffffffffffffffffffffff166e0100000000000000000000000000008883168102919091177bffffffffffffffffffffffffffffffffffffffffffffffffffffffff167c010000000000000000000000000000000000000000000000000000000063ffffffff87160217928390556040517f1c411e9a96e071241c2f21f7726b17ae89e3cab4c78be50e062b03a9fffbbad193611ffc938181169390910416906133ef565b60405180910390a1505050505050565b73ffffffffffffffffffffffffffffffffffffffff80841660008181526002602090815260408083209487168084529490915290819020849055517f8c5be1e5ebec7d5bd14f71427d1e84f3dd0314c0f7b2291e5b200ac8c7c3b92590612074908590612eb1565b60405180910390a3505050565b73ffffffffffffffffffffffffffffffffffffffff83166000908152600160205260409020546120b19082611d01565b73ffffffffffffffffffffffffffffffffffffffff80851660009081526001602052604080822093909355908416815220546120ed9082612849565b73ffffffffffffffffffffffffffffffffffffffff80841660008181526001602052604090819020939093559151908516907fddf252ad1be2c89b69c2b068fc378daa952ba7f163c4a11628f55a4df523b3ef90612074908590612eb1565b600080600560009054906101000a900473ffffffffffffffffffffffffffffffffffffffff1673ffffffffffffffffffffffffffffffffffffffff1663017e7e586040518163ffffffff1660e01b815260040160206040518083038186803b1580156121b757600080fd5b505afa1580156121cb573d6000803e3d6000fd5b505050506040513d601f19601f820116820180604052508101906121ef9190612b98565b90506000600560009054906101000a900473ffffffffffffffffffffffffffffffffffffffff1673ffffffffffffffffffffffffffffffffffffffff16638db07c4d6040518163ffffffff1660e01b815260040160206040518083038186803b15801561225b57600080fd5b505afa15801561226f573d6000803e3d6000fd5b505050506040513d601f19601f820116820180604052508101906122939190612b98565b90506000600560009054906101000a900473ffffffffffffffffffffffffffffffffffffffff1673ffffffffffffffffffffffffffffffffffffffff16633f64a7ab6040518163ffffffff1660e01b815260040160206040518083038186803b1580156122ff57600080fd5b505afa158015612313573d6000803e3d6000fd5b505050506040513d601f19601f820116820180604052508101906123379190612cec565b90506000600560009054906101000a900473ffffffffffffffffffffffffffffffffffffffff1673ffffffffffffffffffffffffffffffffffffffff16631df4ccfc6040518163ffffffff1660e01b815260040160206040518083038186803b1580156123a357600080fd5b505afa1580156123b7573d6000803e3d6000fd5b505050506040513d601f19601f820116820180604052508101906123db9190612cec565b90506000600560009054906101000a900473ffffffffffffffffffffffffffffffffffffffff1673ffffffffffffffffffffffffffffffffffffffff1663b0e21e8a6040518163ffffffff1660e01b815260040160206040518083038186803b15801561244757600080fd5b505afa15801561245b573d6000803e3d6000fd5b505050506040513d601f19601f8201168201806040525081019061247f9190612cec565b600b5490915082158015906124a9575073ffffffffffffffffffffffffffffffffffffffff861615155b80156124b55750600082115b9650861561260c5780156126075760006124e5610f1c6dffffffffffffffffffffffffffff8c8116908c16611ca7565b905060006124f283612624565b9050808211156126045760006125088383612891565b90507f556884274ae9710f4ee09c7684aca5dd4300045d7bef418f17cdfa428ca3f520816040516125399190612eb1565b60405180910390a1801561260257861580612568575073ffffffffffffffffffffffffffffffffffffffff8816155b1561257c576125778982612694565b612602565b60006125896064836134ca565b90506000612597828a611ca7565b905060006125a58483611d01565b9050836125b28284612849565b11156125ea576040517f08c379a00000000000000000000000000000000000000000000000000000000081526004016103bf9061324a565b6125f48c82612694565b6125fe8b83612694565b5050505b505b50505b612618565b8015612618576000600b555b50505050505092915050565b60006003821115612685575080600061263e6002836134ca565b612649906001613477565b90505b8181101561267f5790508060028161266481866134ca565b61266e9190613477565b61267891906134ca565b905061264c565b5061268f565b811561268f575060015b919050565b6000546126a19082612849565b600090815573ffffffffffffffffffffffffffffffffffffffff83168152600160205260409020546126d39082612849565b73ffffffffffffffffffffffffffffffffffffffff83166000818152600160205260408082209390935591519091907fddf252ad1be2c89b69c2b068fc378daa952ba7f163c4a11628f55a4df523b3ef9061272f908590612eb1565b60405180910390a35050565b600081831061274a5781610c24565b5090919050565b73ffffffffffffffffffffffffffffffffffffffff82166000908152600160205260409020546127819082611d01565b73ffffffffffffffffffffffffffffffffffffffff8316600090815260016020526040812091909155546127b59082611d01565b600090815560405173ffffffffffffffffffffffffffffffffffffffff8416907fddf252ad1be2c89b69c2b068fc378daa952ba7f163c4a11628f55a4df523b3ef9061272f908590612eb1565b6000610b296e0100000000000000000000000000006dffffffffffffffffffffffffffff8416613613565b6000610c246dffffffffffffffffffffffffffff83168461348f565b6000826128568382613477565b9150811015610b29576040517f08c379a00000000000000000000000000000000000000000000000000000000081526004016103bf906131dc565b600080831180156128a25750600082115b6128d8576040517f08c379a00000000000000000000000000000000000000000000000000000000081526004016103bf90613035565b600554604080517fb8ff5038000000000000000000000000000000000000000000000000000000008152905160009273ffffffffffffffffffffffffffffffffffffffff169163b8ff5038916004808301926020929190829003018186803b15801561294357600080fd5b505afa158015612957573d6000803e3d6000fd5b505050506040513d601f19601f8201168201806040525081019061297b9190612ccc565b90506000600560009054906101000a900473ffffffffffffffffffffffffffffffffffffffff1673ffffffffffffffffffffffffffffffffffffffff1663a74d5f306040518163ffffffff1660e01b815260040160206040518083038186803b1580156129e757600080fd5b505afa1580156129fb573d6000803e3d6000fd5b505050506040513d601f19601f82011682018060405250810190612a1f9190612cec565b90506000600560009054906101000a900473ffffffffffffffffffffffffffffffffffffffff1673ffffffffffffffffffffffffffffffffffffffff1663b0e21e8a6040518163ffffffff1660e01b815260040160206040518083038186803b158015612a8b57600080fd5b505afa158015612a9f573d6000803e3d6000fd5b505050506040513d601f19601f82011682018060405250810190612ac39190612cec565b9050600081118015612ad55750818111155b612b0b576040517f08c379a00000000000000000000000000000000000000000000000000000000081526004016103bf906132a7565b60006001612b1983856134ca565b612b23919061368b565b90506000612b3d612b348989611d01565b60005490611ca7565b90506000612b6388612b5d88612b535785612b56565b60005b8c90611ca7565b90612849565b9050612b6f81836134ca565b9998505050505050505050565b600060208284031215612b8d578081fd5b8135610c24816137a2565b600060208284031215612ba9578081fd5b8151610c24816137a2565b60008060408385031215612bc6578081fd5b8235612bd1816137a2565b91506020830135612be1816137a2565b809150509250929050565b600080600060608486031215612c00578081fd5b8335612c0b816137a2565b92506020840135612c1b816137a2565b929592945050506040919091013590565b600080600080600080600060e0888a031215612c46578283fd5b8735612c51816137a2565b96506020880135612c61816137a2565b95506040880135945060608801359350608088013560ff81168114612c84578384fd5b9699959850939692959460a0840135945060c09093013592915050565b60008060408385031215612cb3578182fd5b8235612cbe816137a2565b946020939093013593505050565b600060208284031215612cdd578081fd5b81518015158114610c24578182fd5b600060208284031215612cfd578081fd5b5051919050565b600080600080600060808688031215612d1b578081fd5b85359450602086013593506040860135612d34816137a2565b9250606086013567ffffffffffffffff80821115612d50578283fd5b818801915088601f830112612d63578283fd5b813581811115612d71578384fd5b896020828501011115612d82578384fd5b9699959850939650602001949392505050565b60008251612da78184602087016136c7565b9190910192915050565b7f190100000000000000000000000000000000000000000000000000000000000081526002810192909252602282015260420190565b73ffffffffffffffffffffffffffffffffffffffff91909116815260200190565b73ffffffffffffffffffffffffffffffffffffffff929092168252602082015260400190565b600073ffffffffffffffffffffffffffffffffffffffff8716825285602083015284604083015260806060830152826080830152828460a084013781830160a090810191909152601f9092017fffffffffffffffffffffffffffffffffffffffffffffffffffffffffffffffe0160101949350505050565b901515815260200190565b90815260200190565b95865273ffffffffffffffffffffffffffffffffffffffff94851660208701529290931660408501526060840152608083019190915260a082015260c00190565b93845260ff9290921660208401526040830152606082015260800190565b6000602082528251806020840152612f388160408501602087016136c7565b601f017fffffffffffffffffffffffffffffffffffffffffffffffffffffffffffffffe0169190910160400192915050565b60208082526023908201527f506169723a20494e53554646494349454e545f4c49515549444954595f4d494e60408201527f5445440000000000000000000000000000000000000000000000000000000000606082015260800190565b60208082526015908201527f64732d6d6174682d7375622d756e646572666c6f770000000000000000000000604082015260600190565b60208082526018908201527f45524332303a20494e56414c49445f5349474e41545552450000000000000000604082015260600190565b60208082526011908201527f506169723a20524f4f545f4b5f5a45524f000000000000000000000000000000604082015260600190565b6020808252600c908201527f537761703a204c4f434b45440000000000000000000000000000000000000000604082015260600190565b6020808252600e908201527f506169723a204f564552464c4f57000000000000000000000000000000000000604082015260600190565b60208082526014908201527f64732d6d6174682d6d756c2d6f766572666c6f77000000000000000000000000604082015260600190565b60208082526023908201527f506169723a20494e53554646494349454e545f4c49515549444954595f42555260408201527f4e45440000000000000000000000000000000000000000000000000000000000606082015260800190565b6020808252600f908201527f506169723a20464f5242494444454e0000000000000000000000000000000000604082015260600190565b6020808252600e908201527f45524332303a2045585049524544000000000000000000000000000000000000604082015260600190565b60208082526014908201527f64732d6d6174682d6164642d6f766572666c6f77000000000000000000000000604082015260600190565b60208082526010908201527f506169723a20494e56414c49445f544f00000000000000000000000000000000604082015260600190565b60208082526025908201527f506169723a20494e53554646494349454e545f50524f544f434f4c5f4c49515560408201527f4944495459000000000000000000000000000000000000000000000000000000606082015260800190565b6020808252601c908201527f506169723a20464f5242494444454e5f50524f544f434f4c5f46454500000000604082015260600190565b6020808252601f908201527f506169723a20494e53554646494349454e545f494e5055545f414d4f554e5400604082015260600190565b60208082526007908201527f506169723a204b00000000000000000000000000000000000000000000000000604082015260600190565b6020808252818101527f506169723a20494e53554646494349454e545f4f55545055545f414d4f554e54604082015260600190565b6020808252601c908201527f506169723a20494e53554646494349454e545f4c495155494449545900000000604082015260600190565b60208082526015908201527f506169723a205452414e534645525f4641494c45440000000000000000000000604082015260600190565b6dffffffffffffffffffffffffffff92831681529116602082015260400190565b6dffffffffffffffffffffffffffff938416815291909216602082015263ffffffff909116604082015260600190565b918252602082015260400190565b93845260208401929092526040830152606082015260800190565b60ff91909116815260200190565b6000821982111561348a5761348a613744565b500190565b60007bffffffffffffffffffffffffffffffffffffffffffffffffffffffff808416806134be576134be613773565b92169190910492915050565b6000826134d9576134d9613773565b500490565b80825b60018086116134f0575061351b565b81870482111561350257613502613744565b8086161561350f57918102915b9490941c9380026134e1565b94509492505050565b6000610c247fffffffffffffffffffffffffffffffffffffffffffffffffffffffffffffffff60ff85168460008261355e57506001610c24565b8161356b57506000610c24565b8160018114613581576002811461358b576135b8565b6001915050610c24565b60ff84111561359c5761359c613744565b6001841b9150848211156135b2576135b2613744565b50610c24565b5060208310610133831016604e8410600b84101617156135eb575081810a838111156135e6576135e6613744565b610c24565b6135f884848460016134de565b80860482111561360a5761360a613744565b02949350505050565b60007bffffffffffffffffffffffffffffffffffffffffffffffffffffffff8083168185168183048111821515161561360a5761360a613744565b6000817fffffffffffffffffffffffffffffffffffffffffffffffffffffffffffffffff048311821515161561368657613686613744565b500290565b60008282101561369d5761369d613744565b500390565b600063ffffffff838116908316818110156136bf576136bf613744565b039392505050565b60005b838110156136e25781810151838201526020016136ca565b838111156136f1576000848401525b50505050565b60007fffffffffffffffffffffffffffffffffffffffffffffffffffffffffffffffff82141561372957613729613744565b5060010190565b60008261373f5761373f613773565b500690565b7f4e487b7100000000000000000000000000000000000000000000000000000000600052601160045260246000fd5b7f4e487b7100000000000000000000000000000000000000000000000000000000600052601260045260246000fd5b73ffffffffffffffffffffffffffffffffffffffff811681146137c457600080fd5b5056fea26469706673582212201c041a439d1b8c8e39dc2417c089dd5dc2a64cea0dc4b86dd2c1287caaf2268564736f6c63430008000033a26469706673582212204ee9e854659728464d423e448311e61985c962da2e54632ccd9ad871ad23f2ec64736f6c63430008000033","immutableReferences":{},"source":"// SPDX-License-Identifier: MIT\npragma solidity ^0.8.0;\n\nimport './interfaces/IFactory.sol';\nimport './Pair.sol';\n\ncontract Factory is IFactory {\n    using SafeMath for uint;\n\n    uint[30] public POSSIBLE_PROTOCOL_PERCENT = [10000, 5000, 3300, 2500, 2000, 1600, 1400, 1200, 1100, 1000, 900, 800, 700, 600, 500, 400, 300, 200, 100, 90, 80, 70, 60, 50, 40, 30, 20, 10, 5, 1];\n    uint public override constant MAX_TOTAL_FEE_PERCENT = 1_000;\n    uint public override constant MAX_PROTOCOL_FEE_PERCENT = 10_000;\n    uint public override protocolFee;\n    uint public override totalFee;\n    uint public override devFeePercent;\n    address public override feeTo;\n    address public override feeToSetter;\n    address public override devFeeTo;\n    address public override devFeeSetter;\n    bool public override allFeeToProtocol;\n    bytes32 public constant INIT_CODE_PAIR_HASH = keccak256(abi.encodePacked(type(Pair).creationCode));\n\n    mapping(address => mapping(address => address)) public override getPair;\n    address[] public override allPairs;\n\n    modifier onlyOwner() {\n        require(msg.sender == feeToSetter, 'Factory: FORBIDDEN');\n        _;\n    }\n\n    constructor(address _feeToSetter) {\n        feeToSetter = _feeToSetter;\n        protocolFee = 2000;\n        totalFee = 3;\n        devFeePercent = 20;\n        devFeeTo = 0x4086a2CAe8d3FcCd94D1172006516C7d0794C7Ee;\n        devFeeSetter = 0x4086a2CAe8d3FcCd94D1172006516C7d0794C7Ee;\n    }\n\n    function allPairsLength() external view override returns (uint) {\n        return allPairs.length;\n    }\n\n    function allInfo() external view override returns(AllInfo memory) {\n        return AllInfo({\n            protocolFee: protocolFee,\n            totalFee: totalFee,\n            devFeePercent: devFeePercent,\n            feeTo: feeTo,\n            feeToSetter: feeToSetter,\n            devFeeTo: devFeeTo,\n            devFeeSetter: devFeeSetter,\n            allFeeToProtocol: allFeeToProtocol,\n            POSSIBLE_PROTOCOL_PERCENT: POSSIBLE_PROTOCOL_PERCENT,\n            MAX_TOTAL_FEE_PERCENT: MAX_TOTAL_FEE_PERCENT,\n            MAX_PROTOCOL_FEE_PERCENT: MAX_PROTOCOL_FEE_PERCENT,\n            INIT_CODE_PAIR_HASH: INIT_CODE_PAIR_HASH\n        });\n    }\n\n    function createPair(address tokenA, address tokenB) external override returns (address pair) {\n        require(tokenA != tokenB, 'Factory: IDENTICAL_ADDRESSES');\n        (address token0, address token1) = tokenA < tokenB ? (tokenA, tokenB) : (tokenB, tokenA);\n        require(token0 != address(0), 'Factory: ZERO_ADDRESS');\n        require(getPair[token0][token1] == address(0), 'Factory: PAIR_EXISTS'); // single check is sufficient\n        bytes memory bytecode = type(Pair).creationCode;\n        bytes32 salt = keccak256(abi.encodePacked(token0, token1));\n        assembly {\n            pair := create2(0, add(bytecode, 32), mload(bytecode), salt)\n        }\n        IUniswapV2Pair(pair).initialize(token0, token1);\n        getPair[token0][token1] = pair;\n        getPair[token1][token0] = pair; // populate mapping in the reverse direction\n        allPairs.push(pair);\n        emit PairCreated(token0, token1, pair, allPairs.length);\n    }\n\n    function setDevFeePercent(uint _devFeePercent) external override {\n        require(msg.sender == devFeeSetter, 'Factory: FORBIDDEN');\n        require(_devFeePercent >= 0 && _devFeePercent <= 100, 'Factory: WRONG_PERCENTAGE');\n        devFeePercent = _devFeePercent;\n    }\n\n    function setFeeTo(address _feeTo) external override onlyOwner {\n        feeTo = _feeTo;\n    }\n\n    function setFeeToSetter(address _feeToSetter) external override onlyOwner {\n        feeToSetter = _feeToSetter;\n    }\n\n    function setDevFeeTo(address _devFeeTo) external override {\n        require(msg.sender == devFeeSetter, 'Factory: FORBIDDEN');\n        devFeeTo = _devFeeTo;\n    }\n\n    function setDevFeeSetter(address _devFeeToSetter) external override {\n        require(msg.sender == devFeeSetter, 'Factory: FORBIDDEN');\n        devFeeSetter = _devFeeToSetter;\n    }\n\n    function setAllFeeToProtocol(bool _allFeeToProtocol) external override onlyOwner {\n        allFeeToProtocol = _allFeeToProtocol;\n    }\n\n    function setMainFees(uint _totalFee, uint _protocolFee) external override onlyOwner {\n        _setTotalFee(_totalFee);\n        _setProtocolFee(_protocolFee);\n        require(totalFee == _totalFee && protocolFee == _protocolFee, 'Factory: CANNOT_CHANGE');\n    }\n\n    function setTotalFee(uint _totalFee) external override onlyOwner {\n        _setTotalFee(_totalFee);\n    }\n\n    function setProtocolFee(uint _protocolFee) external override onlyOwner {\n        _setProtocolFee(_protocolFee);\n    }\n\n    function _setTotalFee(uint _totalFee) private {\n        require(_totalFee >= 0 && _totalFee <= MAX_TOTAL_FEE_PERCENT - 1, 'Factory: FORBIDDEN_FEE');\n        totalFee = _totalFee;\n    }\n\n    function _setProtocolFee(uint _protocolFee) private {\n        require(_protocolFee >= 0 && _protocolFee <= MAX_PROTOCOL_FEE_PERCENT, 'Factory: FORBIDDEN_FEE');\n        if (_protocolFee != 0) {\n            bool allowed;\n            for(uint x; x < POSSIBLE_PROTOCOL_PERCENT.length; x++) {\n                if (_protocolFee == POSSIBLE_PROTOCOL_PERCENT[x]) {\n                    allowed = true;\n                    break;\n                }\n            }\n            if (!allowed) revert('Factory: FORBIDDEN_FEE');\n        }\n        protocolFee = _protocolFee;\n    }\n}\n","sourcePath":"/home/user/Github/UnifactoryContracts/contracts/Factory.sol","compiler":{"name":"solc","version":"0.8.0+commit.c7dfd78e.Emscripten.clang"},"schemaVersion":"3.4.4","updatedAt":"2022-01-16T17:29:54.858Z","devdoc":{"kind":"dev","methods":{},"version":1},"userdoc":{"kind":"user","methods":{},"version":1}}