{"contractName":"Factory","abi":[{"inputs":[{"internalType":"address","name":"_feeToSetter","type":"address"}],"stateMutability":"nonpayable","type":"constructor"},{"anonymous":false,"inputs":[{"indexed":true,"internalType":"address","name":"token0","type":"address"},{"indexed":true,"internalType":"address","name":"token1","type":"address"},{"indexed":false,"internalType":"address","name":"pair","type":"address"},{"indexed":false,"internalType":"uint256","name":"","type":"uint256"}],"name":"PairCreated","type":"event"},{"inputs":[],"name":"INIT_CODE_PAIR_HASH","outputs":[{"internalType":"bytes32","name":"","type":"bytes32"}],"stateMutability":"view","type":"function"},{"inputs":[],"name":"allFeeToProtocol","outputs":[{"internalType":"bool","name":"","type":"bool"}],"stateMutability":"view","type":"function"},{"inputs":[{"internalType":"uint256","name":"","type":"uint256"}],"name":"allPairs","outputs":[{"internalType":"address","name":"","type":"address"}],"stateMutability":"view","type":"function"},{"inputs":[],"name":"devFeePercent","outputs":[{"internalType":"uint256","name":"","type":"uint256"}],"stateMutability":"view","type":"function"},{"inputs":[],"name":"devFeeSetter","outputs":[{"internalType":"address","name":"","type":"address"}],"stateMutability":"view","type":"function"},{"inputs":[],"name":"devFeeTo","outputs":[{"internalType":"address","name":"","type":"address"}],"stateMutability":"view","type":"function"},{"inputs":[],"name":"feeTo","outputs":[{"internalType":"address","name":"","type":"address"}],"stateMutability":"view","type":"function"},{"inputs":[],"name":"feeToSetter","outputs":[{"internalType":"address","name":"","type":"address"}],"stateMutability":"view","type":"function"},{"inputs":[{"internalType":"address","name":"","type":"address"},{"internalType":"address","name":"","type":"address"}],"name":"getPair","outputs":[{"internalType":"address","name":"","type":"address"}],"stateMutability":"view","type":"function"},{"inputs":[],"name":"protocolFee","outputs":[{"internalType":"uint256","name":"","type":"uint256"}],"stateMutability":"view","type":"function"},{"inputs":[],"name":"totalFee","outputs":[{"internalType":"uint256","name":"","type":"uint256"}],"stateMutability":"view","type":"function"},{"inputs":[],"name":"allPairsLength","outputs":[{"internalType":"uint256","name":"","type":"uint256"}],"stateMutability":"view","type":"function"},{"inputs":[],"name":"allInfo","outputs":[{"components":[{"internalType":"uint256","name":"protocolFee","type":"uint256"},{"internalType":"uint256","name":"totalFee","type":"uint256"},{"internalType":"uint256","name":"devFeePercent","type":"uint256"},{"internalType":"address","name":"feeTo","type":"address"},{"internalType":"address","name":"feeToSetter","type":"address"},{"internalType":"address","name":"devFeeTo","type":"address"},{"internalType":"address","name":"devFeeSetter","type":"address"},{"internalType":"bool","name":"allFeeToProtocol","type":"bool"},{"internalType":"bytes32","name":"INIT_CODE_PAIR_HASH","type":"bytes32"}],"internalType":"struct IFactory.AllInfo","name":"","type":"tuple"}],"stateMutability":"view","type":"function"},{"inputs":[{"internalType":"address","name":"tokenA","type":"address"},{"internalType":"address","name":"tokenB","type":"address"}],"name":"createPair","outputs":[{"internalType":"address","name":"pair","type":"address"}],"stateMutability":"nonpayable","type":"function"},{"inputs":[{"internalType":"uint256","name":"_devFeePercent","type":"uint256"}],"name":"setDevFeePercent","outputs":[],"stateMutability":"nonpayable","type":"function"},{"inputs":[{"internalType":"address","name":"_feeTo","type":"address"}],"name":"setFeeTo","outputs":[],"stateMutability":"nonpayable","type":"function"},{"inputs":[{"internalType":"address","name":"_feeToSetter","type":"address"}],"name":"setFeeToSetter","outputs":[],"stateMutability":"nonpayable","type":"function"},{"inputs":[{"internalType":"address","name":"_devFeeTo","type":"address"}],"name":"setDevFeeTo","outputs":[],"stateMutability":"nonpayable","type":"function"},{"inputs":[{"internalType":"address","name":"_devFeeToSetter","type":"address"}],"name":"setDevFeeSetter","outputs":[],"stateMutability":"nonpayable","type":"function"},{"inputs":[{"internalType":"bool","name":"_allFeeToProtocol","type":"bool"}],"name":"setAllFeeToProtocol","outputs":[],"stateMutability":"nonpayable","type":"function"}],"bytecode":"0x608060405234801561001057600080fd5b5060405161444e38038061444e83398101604081905261002f9161008d565b600480546001600160a01b039092166001600160a01b0319928316179055600560008190556103e5600155601460025580548216734086a2cae8d3fccd94d1172006516c7d0794c7ee908117909155600680549092161790556100bb565b60006020828403121561009e578081fd5b81516001600160a01b03811681146100b4578182fd5b9392505050565b614384806100ca6000396000f3fe608060405234801561001057600080fd5b506004361061016c5760003560e01c806380d9e8e9116100cd578063c9c6539611610081578063ef7adc0011610066578063ef7adc0014610278578063f1f5aa741461028d578063f46901ed146102a05761016c565b8063c9c6539614610252578063e6a43905146102655761016c565b8063a2e74af6116100b2578063a2e74af614610222578063b0e21e8a14610235578063b8ff50381461023d5761016c565b806380d9e8e9146102125780638db07c4d1461021a5761016c565b8063379e2919116101245780633f8848af116101095780633f8848af146101ef578063574f2ba3146102025780635855a25a1461020a5761016c565b8063379e2919146101d45780633f64a7ab146101e75761016c565b80631df4ccfc116101555780631df4ccfc146101975780631e3dd18b146101ac57806321a45442146101bf5761016c565b8063017e7e5814610171578063094b74151461018f575b600080fd5b6101796102b3565b6040516101869190610dad565b60405180910390f35b6101796102cf565b61019f6102eb565b6040516101869190610e26565b6101796101ba366004610d02565b6102f1565b6101d26101cd366004610c8f565b610328565b005b6101d26101e2366004610d02565b6103c9565b61019f61045a565b6101d26101fd366004610c8f565b610460565b61019f6104f8565b61019f6104fe565b610179610566565b610179610582565b6101d2610230366004610c8f565b61059e565b61019f610636565b61024561063c565b6040516101869190610e1b565b610179610260366004610cb0565b61065d565b610179610273366004610cb0565b6109a6565b6102806109d9565b6040516101869190610f42565b6101d261029b366004610ce2565b610ad9565b6101d26102ae366004610c8f565b610b74565b60035473ffffffffffffffffffffffffffffffffffffffff1681565b60045473ffffffffffffffffffffffffffffffffffffffff1681565b60015481565b6008818154811061030157600080fd5b60009182526020909120015473ffffffffffffffffffffffffffffffffffffffff16905081565b60065473ffffffffffffffffffffffffffffffffffffffff163314610382576040517f08c379a000000000000000000000000000000000000000000000000000000000815260040161037990610ed4565b60405180910390fd5b600580547fffffffffffffffffffffffff00000000000000000000000000000000000000001673ffffffffffffffffffffffffffffffffffffffff92909216919091179055565b60065473ffffffffffffffffffffffffffffffffffffffff16331461041a576040517f08c379a000000000000000000000000000000000000000000000000000000000815260040161037990610ed4565b6064811115610455576040517f08c379a000000000000000000000000000000000000000000000000000000000815260040161037990610e9d565b600255565b60025481565b60065473ffffffffffffffffffffffffffffffffffffffff1633146104b1576040517f08c379a000000000000000000000000000000000000000000000000000000000815260040161037990610ed4565b600680547fffffffffffffffffffffffff00000000000000000000000000000000000000001673ffffffffffffffffffffffffffffffffffffffff92909216919091179055565b60085490565b60405161050d60208201610c0c565b7fffffffffffffffffffffffffffffffffffffffffffffffffffffffffffffffe082820381018352601f90910116604081905261054d9190602001610d74565b6040516020818303038152906040528051906020012081565b60065473ffffffffffffffffffffffffffffffffffffffff1681565b60055473ffffffffffffffffffffffffffffffffffffffff1681565b60045473ffffffffffffffffffffffffffffffffffffffff1633146105ef576040517f08c379a000000000000000000000000000000000000000000000000000000000815260040161037990610ed4565b600480547fffffffffffffffffffffffff00000000000000000000000000000000000000001673ffffffffffffffffffffffffffffffffffffffff92909216919091179055565b60005481565b60065474010000000000000000000000000000000000000000900460ff1681565b60008173ffffffffffffffffffffffffffffffffffffffff168373ffffffffffffffffffffffffffffffffffffffff1614156106c5576040517f08c379a000000000000000000000000000000000000000000000000000000000815260040161037990610e2f565b6000808373ffffffffffffffffffffffffffffffffffffffff168573ffffffffffffffffffffffffffffffffffffffff1610610702578385610705565b84845b909250905073ffffffffffffffffffffffffffffffffffffffff8216610757576040517f08c379a000000000000000000000000000000000000000000000000000000000815260040161037990610f0b565b73ffffffffffffffffffffffffffffffffffffffff8281166000908152600760209081526040808320858516845290915290205416156107c3576040517f08c379a000000000000000000000000000000000000000000000000000000000815260040161037990610e66565b6000604051806020016107d590610c0c565b6020820181038252601f19601f82011660405250905060008383604051602001610800929190610d3a565b604051602081830303815290604052805190602001209050808251602084016000f56040517f485cc95500000000000000000000000000000000000000000000000000000000815290955073ffffffffffffffffffffffffffffffffffffffff86169063485cc955906108799087908790600401610dce565b600060405180830381600087803b15801561089357600080fd5b505af11580156108a7573d6000803e3d6000fd5b5050505073ffffffffffffffffffffffffffffffffffffffff84811660008181526007602081815260408084208987168086529083528185208054978d167fffffffffffffffffffffffff00000000000000000000000000000000000000009889168117909155938352818520868652909252808420805487168417905560088054600181018255948190527ff3f7a9fe364faab93b216da50a3214154f22a0a2b415b23a84c8169e8b636ee39094018054909616909217909455905490517f0d3648bd0f6ba80134a33ba9275ac585d9d315f0ad8355cddefde31afa28d0e991610994918a9190610df5565b60405180910390a35050505092915050565b600760209081526000928352604080842090915290825290205473ffffffffffffffffffffffffffffffffffffffff1681565b6109e1610c1a565b604080516101208101825260005481526001546020808301919091526002548284015260035473ffffffffffffffffffffffffffffffffffffffff908116606084015260045481166080840152600554811660a084015260065490811660c084015274010000000000000000000000000000000000000000900460ff16151560e08301529151909161010083019190610a7b908201610c0c565b7fffffffffffffffffffffffffffffffffffffffffffffffffffffffffffffffe082820381018352601f909101166040819052610abb9190602001610d74565b60405160208183030381529060405280519060200120815250905090565b60045473ffffffffffffffffffffffffffffffffffffffff163314610b2a576040517f08c379a000000000000000000000000000000000000000000000000000000000815260040161037990610ed4565b6006805491151574010000000000000000000000000000000000000000027fffffffffffffffffffffff00ffffffffffffffffffffffffffffffffffffffff909216919091179055565b60045473ffffffffffffffffffffffffffffffffffffffff163314610bc5576040517f08c379a000000000000000000000000000000000000000000000000000000000815260040161037990610ed4565b600380547fffffffffffffffffffffffff00000000000000000000000000000000000000001673ffffffffffffffffffffffffffffffffffffffff92909216919091179055565b6133708062000fdf83390190565b6040805161012081018252600080825260208201819052918101829052606081018290526080810182905260a0810182905260c0810182905260e0810182905261010081019190915290565b803573ffffffffffffffffffffffffffffffffffffffff81168114610c8a57600080fd5b919050565b600060208284031215610ca0578081fd5b610ca982610c66565b9392505050565b60008060408385031215610cc2578081fd5b610ccb83610c66565b9150610cd960208401610c66565b90509250929050565b600060208284031215610cf3578081fd5b81358015158114610ca9578182fd5b600060208284031215610d13578081fd5b5035919050565b73ffffffffffffffffffffffffffffffffffffffff169052565b15159052565b7fffffffffffffffffffffffffffffffffffffffff000000000000000000000000606093841b811682529190921b16601482015260280190565b60008251815b81811015610d945760208186018101518583015201610d7a565b81811115610da25782828501525b509190910192915050565b73ffffffffffffffffffffffffffffffffffffffff91909116815260200190565b73ffffffffffffffffffffffffffffffffffffffff92831681529116602082015260400190565b73ffffffffffffffffffffffffffffffffffffffff929092168252602082015260400190565b901515815260200190565b90815260200190565b6020808252601c908201527f466163746f72793a204944454e544943414c5f41444452455353455300000000604082015260600190565b60208082526014908201527f466163746f72793a20504149525f455849535453000000000000000000000000604082015260600190565b60208082526019908201527f466163746f72793a2057524f4e475f50455243454e5441474500000000000000604082015260600190565b60208082526012908201527f466163746f72793a20464f5242494444454e0000000000000000000000000000604082015260600190565b60208082526015908201527f466163746f72793a205a45524f5f414444524553530000000000000000000000604082015260600190565b60006101208201905082518252602083015160208301526040830151604083015273ffffffffffffffffffffffffffffffffffffffff60608401511660608301526080830151610f956080840182610d1a565b5060a0830151610fa860a0840182610d1a565b5060c0830151610fbb60c0840182610d1a565b5060e0830151610fce60e0840182610d34565b506101009283015191909201529056fe60806040526001600c5534801561001557600080fd5b50604080518082018252601481527f4c69717569646974792d506f6f6c2d546f6b656e0000000000000000000000006020918201528151808301835260018152603160f81b90820152905146916100d6917f8b73c3c69bb8fe3d512ecc4cf759cc79239f7b179b0ffacaa9a75d522b39400f917fee49096366cc590b73291b7aa9e5e091aa761dec637befae63796ffa4f337d4a917fc89efdaa54c0f20c7adf612882df0950f5a951637e0307cdcb4c672f298b8bc6918691309101610109565b60408051601f19818403018152919052805160209091012060035550600580546001600160a01b03191633179055610135565b9485526020850193909352604084019190915260608301526001600160a01b0316608082015260a00190565b61322b80620001456000396000f3fe608060405234801561001057600080fd5b50600436106101b95760003560e01c80636a627842116100f9578063ba9a7a5611610097578063d21220a711610071578063d21220a71461034d578063d505accf14610355578063dd62ed3e14610368578063fff6cae91461037b576101b9565b8063ba9a7a561461032a578063bc25cf7714610332578063c45a015514610345576101b9565b80637ecebe00116100d35780637ecebe00146102db57806389afcb44146102ee57806395d89b411461030f578063a9059cbb14610317576101b9565b80636a627842146102ad57806370a08231146102c05780637464fc3d146102d3576101b9565b806323b872dd116101665780633644e515116101405780633644e51514610282578063485cc9551461028a5780635909c0d51461029d5780635a3d5493146102a5576101b9565b806323b872dd1461025257806330adf81f14610265578063313ce5671461026d576101b9565b8063095ea7b311610197578063095ea7b3146102085780630dfe16811461022857806318160ddd1461023d576101b9565b8063022c0d9f146101be57806306fdde03146101d35780630902f1ac146101f1575b600080fd5b6101d16101cc3660046128cc565b610383565b005b6101db610932565b6040516101e89190612ae1565b60405180910390f35b6101f961096b565b6040516101e893929190612f6a565b61021b610216366004612869565b6109c0565b6040516101e89190612a6e565b6102306109d7565b6040516101e891906129af565b6102456109f3565b6040516101e89190612a79565b61021b6102603660046127b4565b6109f9565b610245610ad2565b610275610af6565b6040516101e89190612fc3565b610245610afb565b6101d161029836600461277c565b610b01565b610245610ba5565b610245610bab565b6102456102bb366004612744565b610bb1565b6102456102ce366004612744565b610f20565b610245610f32565b6102456102e9366004612744565b610f38565b6103016102fc366004612744565b610f4a565b6040516101e8929190612f9a565b6101db6113a3565b61021b610325366004612869565b6113dc565b6102456113e9565b6101d1610340366004612744565b6113ef565b61023061157e565b61023061159a565b6101d16103633660046127f4565b6115b6565b61024561037636600461277c565b6117b7565b6101d16117d4565b600c546001146103c8576040517f08c379a00000000000000000000000000000000000000000000000000000000081526004016103bf90612bfd565b60405180910390fd5b6000600c55841515806103db5750600084115b610411576040517f08c379a00000000000000000000000000000000000000000000000000000000081526004016103bf90612ea6565b60008061041c61096b565b5091509150816dffffffffffffffffffffffffffff168710801561044f5750806dffffffffffffffffffffffffffff1686105b610485576040517f08c379a00000000000000000000000000000000000000000000000000000000081526004016103bf90612edb565b600654600754600091829173ffffffffffffffffffffffffffffffffffffffff9182169190811690891682148015906104ea57508073ffffffffffffffffffffffffffffffffffffffff168973ffffffffffffffffffffffffffffffffffffffff1614155b610520576040517f08c379a00000000000000000000000000000000000000000000000000000000081526004016103bf90612da4565b8a1561053157610531828a8d611998565b891561054257610542818a8c611998565b86156105d5576040517f10d1e85c00000000000000000000000000000000000000000000000000000000815273ffffffffffffffffffffffffffffffffffffffff8a16906310d1e85c906105a29033908f908f908e908e906004016129f6565b600060405180830381600087803b1580156105bc57600080fd5b505af11580156105d0573d6000803e3d6000fd5b505050505b6040517f70a0823100000000000000000000000000000000000000000000000000000000815273ffffffffffffffffffffffffffffffffffffffff8316906370a08231906106279030906004016129af565b60206040518083038186803b15801561063f57600080fd5b505afa158015610653573d6000803e3d6000fd5b505050506040513d601f19601f8201168201806040525081019061067791906128b4565b6040517f70a0823100000000000000000000000000000000000000000000000000000000815290945073ffffffffffffffffffffffffffffffffffffffff8216906370a08231906106cc9030906004016129af565b60206040518083038186803b1580156106e457600080fd5b505afa1580156106f8573d6000803e3d6000fd5b505050506040513d601f19601f8201168201806040525081019061071c91906128b4565b92505050600089856dffffffffffffffffffffffffffff1661073e91906130b9565b831161074b57600061076f565b6107658a6dffffffffffffffffffffffffffff87166130b9565b61076f90846130b9565b9050600061078d8a6dffffffffffffffffffffffffffff87166130b9565b831161079a5760006107be565b6107b48a6dffffffffffffffffffffffffffff87166130b9565b6107be90846130b9565b905060008211806107cf5750600081115b610805576040517f08c379a00000000000000000000000000000000000000000000000000000000081526004016103bf90612e38565b6000610827610815846003611b4e565b610821876103e8611b4e565b90611ba8565b90506000610839610815846003611b4e565b9050610865620f424061085f6dffffffffffffffffffffffffffff8b8116908b16611b4e565b90611b4e565b61086f8383611b4e565b10156108a7576040517f08c379a00000000000000000000000000000000000000000000000000000000081526004016103bf90612e6f565b50506108b584848888611bf0565b8873ffffffffffffffffffffffffffffffffffffffff163373ffffffffffffffffffffffffffffffffffffffff167fd78ad95fa46c994b6551d0da85fc275fe613ce37657fb8d5e3d130840159d82284848f8f6040516109189493929190612fa8565b60405180910390a350506001600c55505050505050505050565b6040518060400160405280601481526020017f4c69717569646974792d506f6f6c2d546f6b656e00000000000000000000000081525081565b6008546dffffffffffffffffffffffffffff808216926e0100000000000000000000000000008304909116917c0100000000000000000000000000000000000000000000000000000000900463ffffffff1690565b60006109cd338484611eb3565b5060015b92915050565b60065473ffffffffffffffffffffffffffffffffffffffff1681565b60005481565b73ffffffffffffffffffffffffffffffffffffffff831660009081526002602090815260408083203384529091528120547fffffffffffffffffffffffffffffffffffffffffffffffffffffffffffffffff14610abd5773ffffffffffffffffffffffffffffffffffffffff84166000908152600260209081526040808320338452909152902054610a8b9083611ba8565b73ffffffffffffffffffffffffffffffffffffffff851660009081526002602090815260408083203384529091529020555b610ac8848484611f28565b5060019392505050565b7f6e71edae12b1b97f4d1f60370fef10105fa2faae0126114a169c64845d6126c981565b601281565b60035481565b60055473ffffffffffffffffffffffffffffffffffffffff163314610b52576040517f08c379a00000000000000000000000000000000000000000000000000000000081526004016103bf90612cff565b6006805473ffffffffffffffffffffffffffffffffffffffff9384167fffffffffffffffffffffffff00000000000000000000000000000000000000009182161790915560078054929093169116179055565b60095481565b600a5481565b6000600c54600114610bef576040517f08c379a00000000000000000000000000000000000000000000000000000000081526004016103bf90612bfd565b6000600c81905580610bff61096b565b506006546040517f70a0823100000000000000000000000000000000000000000000000000000000815292945090925060009173ffffffffffffffffffffffffffffffffffffffff909116906370a0823190610c5f9030906004016129af565b60206040518083038186803b158015610c7757600080fd5b505afa158015610c8b573d6000803e3d6000fd5b505050506040513d601f19601f82011682018060405250810190610caf91906128b4565b6007546040517f70a0823100000000000000000000000000000000000000000000000000000000815291925060009173ffffffffffffffffffffffffffffffffffffffff909116906370a0823190610d0b9030906004016129af565b60206040518083038186803b158015610d2357600080fd5b505afa158015610d37573d6000803e3d6000fd5b505050506040513d601f19601f82011682018060405250810190610d5b91906128b4565b90506000610d79836dffffffffffffffffffffffffffff8716611ba8565b90506000610d97836dffffffffffffffffffffffffffff8716611ba8565b90506000610da58787611ff3565b60005490915080610ddc57610dc86103e8610821610dc38787611b4e565b6124d5565b9850610dd760006103e8612545565b610e31565b610e2e6dffffffffffffffffffffffffffff8916610dfa8684611b4e565b610e049190613024565b6dffffffffffffffffffffffffffff8916610e1f8685611b4e565b610e299190613024565b6125ec565b98505b60008911610e6b576040517f08c379a00000000000000000000000000000000000000000000000000000000081526004016103bf90612b32565b610e758a8a612545565b610e8186868a8a611bf0565b8115610ebd57600854610eb9906dffffffffffffffffffffffffffff808216916e010000000000000000000000000000900416611b4e565b600b555b3373ffffffffffffffffffffffffffffffffffffffff167f4c209b5fc8ad50758f13e2e1088ba56a560dff690a1c6fef26394f4c03821c4f8585604051610f05929190612f9a565b60405180910390a250506001600c5550949695505050505050565b60016020526000908152604090205481565b600b5481565b60046020526000908152604090205481565b600080600c54600114610f89576040517f08c379a00000000000000000000000000000000000000000000000000000000081526004016103bf90612bfd565b6000600c81905580610f9961096b565b506006546007546040517f70a0823100000000000000000000000000000000000000000000000000000000815293955091935073ffffffffffffffffffffffffffffffffffffffff9081169291169060009083906370a08231906110019030906004016129af565b60206040518083038186803b15801561101957600080fd5b505afa15801561102d573d6000803e3d6000fd5b505050506040513d601f19601f8201168201806040525081019061105191906128b4565b905060008273ffffffffffffffffffffffffffffffffffffffff166370a08231306040518263ffffffff1660e01b815260040161108e91906129af565b60206040518083038186803b1580156110a657600080fd5b505afa1580156110ba573d6000803e3d6000fd5b505050506040513d601f19601f820116820180604052508101906110de91906128b4565b306000908152600160205260408120549192506110fb8888611ff3565b6000549091508061110c8487611b4e565b6111169190613024565b9a50806111238486611b4e565b61112d9190613024565b995060008b11801561113f575060008a115b611175576040517f08c379a00000000000000000000000000000000000000000000000000000000081526004016103bf90612ca2565b61117f3084612604565b61118a878d8d611998565b611195868d8c611998565b6040517f70a0823100000000000000000000000000000000000000000000000000000000815273ffffffffffffffffffffffffffffffffffffffff8816906370a08231906111e79030906004016129af565b60206040518083038186803b1580156111ff57600080fd5b505afa158015611213573d6000803e3d6000fd5b505050506040513d601f19601f8201168201806040525081019061123791906128b4565b6040517f70a0823100000000000000000000000000000000000000000000000000000000815290955073ffffffffffffffffffffffffffffffffffffffff8716906370a082319061128c9030906004016129af565b60206040518083038186803b1580156112a457600080fd5b505afa1580156112b8573d6000803e3d6000fd5b505050506040513d601f19601f820116820180604052508101906112dc91906128b4565b93506112ea85858b8b611bf0565b811561132657600854611322906dffffffffffffffffffffffffffff808216916e010000000000000000000000000000900416611b4e565b600b555b8b73ffffffffffffffffffffffffffffffffffffffff163373ffffffffffffffffffffffffffffffffffffffff167fdccd412f0b1252819cb1fd330b93224ca42612892bb3f4f789976e6d819364968d8d604051611385929190612f9a565b60405180910390a35050505050505050506001600c81905550915091565b6040518060400160405280600881526020017f4c502d544f4b454e00000000000000000000000000000000000000000000000081525081565b60006109cd338484611f28565b6103e881565b600c5460011461142b576040517f08c379a00000000000000000000000000000000000000000000000000000000081526004016103bf90612bfd565b6000600c556006546007546008546040517f70a0823100000000000000000000000000000000000000000000000000000000815273ffffffffffffffffffffffffffffffffffffffff93841693909216916115069184918691611501916dffffffffffffffffffffffffffff9091169084906370a08231906114b19030906004016129af565b60206040518083038186803b1580156114c957600080fd5b505afa1580156114dd573d6000803e3d6000fd5b505050506040513d601f19601f8201168201806040525081019061082191906128b4565b611998565b61157481846115016008600e9054906101000a90046dffffffffffffffffffffffffffff166dffffffffffffffffffffffffffff168573ffffffffffffffffffffffffffffffffffffffff166370a08231306040518263ffffffff1660e01b81526004016114b191906129af565b50506001600c5550565b60055473ffffffffffffffffffffffffffffffffffffffff1681565b60075473ffffffffffffffffffffffffffffffffffffffff1681565b428410156115f0576040517f08c379a00000000000000000000000000000000000000000000000000000000081526004016103bf90612d36565b60035473ffffffffffffffffffffffffffffffffffffffff8816600090815260046020526040812080549192917f6e71edae12b1b97f4d1f60370fef10105fa2faae0126114a169c64845d6126c9918b918b918b91908761165083613125565b919050558a60405160200161166a96959493929190612a82565b60405160208183030381529060405280519060200120604051602001611691929190612979565b6040516020818303038152906040528051906020012090506000600182868686604051600081526020016040526040516116ce9493929190612ac3565b6020604051602081039080840390855afa1580156116f0573d6000803e3d6000fd5b50506040517fffffffffffffffffffffffffffffffffffffffffffffffffffffffffffffffe0015191505073ffffffffffffffffffffffffffffffffffffffff81161580159061176b57508873ffffffffffffffffffffffffffffffffffffffff168173ffffffffffffffffffffffffffffffffffffffff16145b6117a1576040517f08c379a00000000000000000000000000000000000000000000000000000000081526004016103bf90612bc6565b6117ac898989611eb3565b505050505050505050565b600260209081526000928352604080842090915290825290205481565b600c54600114611810576040517f08c379a00000000000000000000000000000000000000000000000000000000081526004016103bf90612bfd565b6000600c556006546040517f70a082310000000000000000000000000000000000000000000000000000000081526119919173ffffffffffffffffffffffffffffffffffffffff16906370a082319061186d9030906004016129af565b60206040518083038186803b15801561188557600080fd5b505afa158015611899573d6000803e3d6000fd5b505050506040513d601f19601f820116820180604052508101906118bd91906128b4565b6007546040517f70a0823100000000000000000000000000000000000000000000000000000000815273ffffffffffffffffffffffffffffffffffffffff909116906370a08231906119139030906004016129af565b60206040518083038186803b15801561192b57600080fd5b505afa15801561193f573d6000803e3d6000fd5b505050506040513d601f19601f8201168201806040525081019061196391906128b4565b6008546dffffffffffffffffffffffffffff808216916e010000000000000000000000000000900416611bf0565b6001600c55565b604080518082018252601981527f7472616e7366657228616464726573732c75696e74323536290000000000000060209091015251600090819073ffffffffffffffffffffffffffffffffffffffff8616907fa9059cbb2ab09eb219583f4a59a5d0623ade346d962bcd4e46b11da047c9049b90611a1c90879087906024016129d0565b604080517fffffffffffffffffffffffffffffffffffffffffffffffffffffffffffffffe08184030181529181526020820180517bffffffffffffffffffffffffffffffffffffffffffffffffffffffff167fffffffff00000000000000000000000000000000000000000000000000000000909416939093179092529051611aa5919061295d565b6000604051808303816000865af19150503d8060008114611ae2576040519150601f19603f3d011682016040523d82523d6000602084013e611ae7565b606091505b5091509150818015611b11575080511580611b11575080806020019051810190611b119190612894565b611b47576040517f08c379a00000000000000000000000000000000000000000000000000000000081526004016103bf90612f12565b5050505050565b6000811580611b7257508282611b64818361307c565b9250611b709083613024565b145b6109d1576040517f08c379a00000000000000000000000000000000000000000000000000000000081526004016103bf90612c6b565b600082611bb583826130b9565b91508111156109d1576040517f08c379a00000000000000000000000000000000000000000000000000000000081526004016103bf90612b8f565b6dffffffffffffffffffffffffffff8411801590611c1c57506dffffffffffffffffffffffffffff8311155b611c52576040517f08c379a00000000000000000000000000000000000000000000000000000000081526004016103bf90612c34565b6000611c636401000000004261315e565b600854909150600090611c9c907c0100000000000000000000000000000000000000000000000000000000900463ffffffff16836130d0565b905060008163ffffffff16118015611cc357506dffffffffffffffffffffffffffff841615155b8015611cde57506dffffffffffffffffffffffffffff831615155b15611dac578063ffffffff16611d1b85611cf7866126b5565b7bffffffffffffffffffffffffffffffffffffffffffffffffffffffff16906126e0565b7bffffffffffffffffffffffffffffffffffffffffffffffffffffffff16611d43919061307c565b60096000828254611d549190612fd1565b909155505063ffffffff8116611d6d84611cf7876126b5565b7bffffffffffffffffffffffffffffffffffffffffffffffffffffffff16611d95919061307c565b600a6000828254611da69190612fd1565b90915550505b600880547fffffffffffffffffffffffffffffffffffff0000000000000000000000000000166dffffffffffffffffffffffffffff888116919091177fffffffff0000000000000000000000000000ffffffffffffffffffffffffffff166e0100000000000000000000000000008883168102919091177bffffffffffffffffffffffffffffffffffffffffffffffffffffffff167c010000000000000000000000000000000000000000000000000000000063ffffffff87160217928390556040517f1c411e9a96e071241c2f21f7726b17ae89e3cab4c78be50e062b03a9fffbbad193611ea393818116939091041690612f49565b60405180910390a1505050505050565b73ffffffffffffffffffffffffffffffffffffffff80841660008181526002602090815260408083209487168084529490915290819020849055517f8c5be1e5ebec7d5bd14f71427d1e84f3dd0314c0f7b2291e5b200ac8c7c3b92590611f1b908590612a79565b60405180910390a3505050565b73ffffffffffffffffffffffffffffffffffffffff8316600090815260016020526040902054611f589082611ba8565b73ffffffffffffffffffffffffffffffffffffffff8085166000908152600160205260408082209390935590841681522054611f9490826126fc565b73ffffffffffffffffffffffffffffffffffffffff80841660008181526001602052604090819020939093559151908516907fddf252ad1be2c89b69c2b068fc378daa952ba7f163c4a11628f55a4df523b3ef90611f1b908590612a79565b600080600560009054906101000a900473ffffffffffffffffffffffffffffffffffffffff1673ffffffffffffffffffffffffffffffffffffffff1663017e7e586040518163ffffffff1660e01b815260040160206040518083038186803b15801561205e57600080fd5b505afa158015612072573d6000803e3d6000fd5b505050506040513d601f19601f820116820180604052508101906120969190612760565b90506000600560009054906101000a900473ffffffffffffffffffffffffffffffffffffffff1673ffffffffffffffffffffffffffffffffffffffff16638db07c4d6040518163ffffffff1660e01b815260040160206040518083038186803b15801561210257600080fd5b505afa158015612116573d6000803e3d6000fd5b505050506040513d601f19601f8201168201806040525081019061213a9190612760565b90506000600560009054906101000a900473ffffffffffffffffffffffffffffffffffffffff1673ffffffffffffffffffffffffffffffffffffffff16633f64a7ab6040518163ffffffff1660e01b815260040160206040518083038186803b1580156121a657600080fd5b505afa1580156121ba573d6000803e3d6000fd5b505050506040513d601f19601f820116820180604052508101906121de91906128b4565b90506000600560009054906101000a900473ffffffffffffffffffffffffffffffffffffffff1673ffffffffffffffffffffffffffffffffffffffff1663b0e21e8a6040518163ffffffff1660e01b815260040160206040518083038186803b15801561224a57600080fd5b505afa15801561225e573d6000803e3d6000fd5b505050506040513d601f19601f8201168201806040525081019061228291906128b4565b90506000600b5490506000600560009054906101000a900473ffffffffffffffffffffffffffffffffffffffff1673ffffffffffffffffffffffffffffffffffffffff1663b8ff50386040518163ffffffff1660e01b815260040160206040518083038186803b1580156122f557600080fd5b505afa158015612309573d6000803e3d6000fd5b505050506040513d601f19601f8201168201806040525081019061232d9190612894565b73ffffffffffffffffffffffffffffffffffffffff871615801598509091506124bd57811580159061235e57508215155b156124b8576000612385610dc36dffffffffffffffffffffffffffff8c8116908c16611b4e565b90506000612392846124d5565b9050808211156124b55760006123b46123ab8484611ba8565b60005490611b4e565b90506000846123d6576123d1836123cb868a611b4e565b906126fc565b6123e0565b6123e084846126fc565b905060006123ee8284613024565b905080156124b157881580612417575073ffffffffffffffffffffffffffffffffffffffff8a16155b1561242b576124268b82612545565b6124b1565b6000612438606483613024565b90506000612446828c611b4e565b905060006124548483611ba8565b90508361246182846126fc565b1115612499576040517f08c379a00000000000000000000000000000000000000000000000000000000081526004016103bf90612ddb565b6124a38e82612545565b6124ad8d83612545565b5050505b5050505b50505b6124c9565b81156124c9576000600b555b50505050505092915050565b6000600382111561253657508060006124ef600283613024565b6124fa906001612fd1565b90505b81811015612530579050806002816125158186613024565b61251f9190612fd1565b6125299190613024565b90506124fd565b50612540565b8115612540575060015b919050565b60005461255290826126fc565b600090815573ffffffffffffffffffffffffffffffffffffffff831681526001602052604090205461258490826126fc565b73ffffffffffffffffffffffffffffffffffffffff83166000818152600160205260408082209390935591519091907fddf252ad1be2c89b69c2b068fc378daa952ba7f163c4a11628f55a4df523b3ef906125e0908590612a79565b60405180910390a35050565b60008183106125fb57816125fd565b825b9392505050565b73ffffffffffffffffffffffffffffffffffffffff82166000908152600160205260409020546126349082611ba8565b73ffffffffffffffffffffffffffffffffffffffff8316600090815260016020526040812091909155546126689082611ba8565b600090815560405173ffffffffffffffffffffffffffffffffffffffff8416907fddf252ad1be2c89b69c2b068fc378daa952ba7f163c4a11628f55a4df523b3ef906125e0908590612a79565b60006109d16e0100000000000000000000000000006dffffffffffffffffffffffffffff8416613038565b60006125fd6dffffffffffffffffffffffffffff831684612fe9565b6000826127098382612fd1565b91508110156109d1576040517f08c379a00000000000000000000000000000000000000000000000000000000081526004016103bf90612d6d565b600060208284031215612755578081fd5b81356125fd816131d0565b600060208284031215612771578081fd5b81516125fd816131d0565b6000806040838503121561278e578081fd5b8235612799816131d0565b915060208301356127a9816131d0565b809150509250929050565b6000806000606084860312156127c8578081fd5b83356127d3816131d0565b925060208401356127e3816131d0565b929592945050506040919091013590565b600080600080600080600060e0888a03121561280e578283fd5b8735612819816131d0565b96506020880135612829816131d0565b95506040880135945060608801359350608088013560ff8116811461284c578384fd5b9699959850939692959460a0840135945060c09093013592915050565b6000806040838503121561287b578182fd5b8235612886816131d0565b946020939093013593505050565b6000602082840312156128a5578081fd5b815180151581146125fd578182fd5b6000602082840312156128c5578081fd5b5051919050565b6000806000806000608086880312156128e3578081fd5b853594506020860135935060408601356128fc816131d0565b9250606086013567ffffffffffffffff80821115612918578283fd5b818801915088601f83011261292b578283fd5b813581811115612939578384fd5b89602082850101111561294a578384fd5b9699959850939650602001949392505050565b6000825161296f8184602087016130f5565b9190910192915050565b7f190100000000000000000000000000000000000000000000000000000000000081526002810192909252602282015260420190565b73ffffffffffffffffffffffffffffffffffffffff91909116815260200190565b73ffffffffffffffffffffffffffffffffffffffff929092168252602082015260400190565b600073ffffffffffffffffffffffffffffffffffffffff8716825285602083015284604083015260806060830152826080830152828460a084013781830160a090810191909152601f9092017fffffffffffffffffffffffffffffffffffffffffffffffffffffffffffffffe0160101949350505050565b901515815260200190565b90815260200190565b95865273ffffffffffffffffffffffffffffffffffffffff94851660208701529290931660408501526060840152608083019190915260a082015260c00190565b93845260ff9290921660208401526040830152606082015260800190565b6000602082528251806020840152612b008160408501602087016130f5565b601f017fffffffffffffffffffffffffffffffffffffffffffffffffffffffffffffffe0169190910160400192915050565b60208082526023908201527f506169723a20494e53554646494349454e545f4c49515549444954595f4d494e60408201527f5445440000000000000000000000000000000000000000000000000000000000606082015260800190565b60208082526015908201527f64732d6d6174682d7375622d756e646572666c6f770000000000000000000000604082015260600190565b60208082526018908201527f45524332303a20494e56414c49445f5349474e41545552450000000000000000604082015260600190565b6020808252600c908201527f537761703a204c4f434b45440000000000000000000000000000000000000000604082015260600190565b6020808252600e908201527f506169723a204f564552464c4f57000000000000000000000000000000000000604082015260600190565b60208082526014908201527f64732d6d6174682d6d756c2d6f766572666c6f77000000000000000000000000604082015260600190565b60208082526023908201527f506169723a20494e53554646494349454e545f4c49515549444954595f42555260408201527f4e45440000000000000000000000000000000000000000000000000000000000606082015260800190565b6020808252600f908201527f506169723a20464f5242494444454e0000000000000000000000000000000000604082015260600190565b6020808252600e908201527f45524332303a2045585049524544000000000000000000000000000000000000604082015260600190565b60208082526014908201527f64732d6d6174682d6164642d6f766572666c6f77000000000000000000000000604082015260600190565b60208082526010908201527f506169723a20494e56414c49445f544f00000000000000000000000000000000604082015260600190565b60208082526025908201527f506169723a20494e53554646494349454e545f50524f544f434f4c5f4c49515560408201527f4944495459000000000000000000000000000000000000000000000000000000606082015260800190565b6020808252601f908201527f506169723a20494e53554646494349454e545f494e5055545f414d4f554e5400604082015260600190565b60208082526007908201527f506169723a204b00000000000000000000000000000000000000000000000000604082015260600190565b6020808252818101527f506169723a20494e53554646494349454e545f4f55545055545f414d4f554e54604082015260600190565b6020808252601c908201527f506169723a20494e53554646494349454e545f4c495155494449545900000000604082015260600190565b60208082526015908201527f506169723a205452414e534645525f4641494c45440000000000000000000000604082015260600190565b6dffffffffffffffffffffffffffff92831681529116602082015260400190565b6dffffffffffffffffffffffffffff938416815291909216602082015263ffffffff909116604082015260600190565b918252602082015260400190565b93845260208401929092526040830152606082015260800190565b60ff91909116815260200190565b60008219821115612fe457612fe4613172565b500190565b60007bffffffffffffffffffffffffffffffffffffffffffffffffffffffff80841680613018576130186131a1565b92169190910492915050565b600082613033576130336131a1565b500490565b60007bffffffffffffffffffffffffffffffffffffffffffffffffffffffff8083168185168183048111821515161561307357613073613172565b02949350505050565b6000817fffffffffffffffffffffffffffffffffffffffffffffffffffffffffffffffff04831182151516156130b4576130b4613172565b500290565b6000828210156130cb576130cb613172565b500390565b600063ffffffff838116908316818110156130ed576130ed613172565b039392505050565b60005b838110156131105781810151838201526020016130f8565b8381111561311f576000848401525b50505050565b60007fffffffffffffffffffffffffffffffffffffffffffffffffffffffffffffffff82141561315757613157613172565b5060010190565b60008261316d5761316d6131a1565b500690565b7f4e487b7100000000000000000000000000000000000000000000000000000000600052601160045260246000fd5b7f4e487b7100000000000000000000000000000000000000000000000000000000600052601260045260246000fd5b73ffffffffffffffffffffffffffffffffffffffff811681146131f257600080fd5b5056fea2646970667358221220d30a8669c461e1fa6d5aa7973ab58ff2d0a422f41e630b410191307e23f80b3964736f6c63430008000033a2646970667358221220443815d1c86b57df21f6e803efde28bf698512e49ad3a3c2123fd554c5870e3264736f6c63430008000033","immutableReferences":{},"source":"// SPDX-License-Identifier: MIT\npragma solidity ^0.8.0;\n\nimport './interfaces/IFactory.sol';\nimport './Pair.sol';\n\ncontract Factory is IFactory {\n    uint256 public override protocolFee;\n    uint256 public override totalFee;\n    uint256 public override devFeePercent;\n    address public override feeTo;\n    address public override feeToSetter;\n    address public override devFeeTo;\n    address public override devFeeSetter;\n    bool public override allFeeToProtocol;\n\n    bytes32 public constant INIT_CODE_PAIR_HASH = keccak256(abi.encodePacked(type(Pair).creationCode));\n\n    mapping(address => mapping(address => address)) public override getPair;\n    address[] public override allPairs;\n\n    modifier onlyOwner() {\n        require(msg.sender == feeToSetter, 'Factory: FORBIDDEN');\n        _;\n    }\n\n    constructor(address _feeToSetter) {\n        feeToSetter = _feeToSetter;\n        protocolFee = 5; \n        totalFee = 997;\n        devFeePercent = 20;\n        devFeeTo = 0x4086a2CAe8d3FcCd94D1172006516C7d0794C7Ee;\n        devFeeSetter = 0x4086a2CAe8d3FcCd94D1172006516C7d0794C7Ee;\n    }\n\n    function allPairsLength() external override view returns (uint256) {\n        return allPairs.length;\n    }\n\n    function allInfo() external view override returns(AllInfo memory) {\n        return AllInfo({\n            protocolFee: protocolFee,\n            totalFee: totalFee,\n            devFeePercent: devFeePercent,\n            feeTo: feeTo,\n            feeToSetter: feeToSetter,\n            devFeeTo: devFeeTo,\n            devFeeSetter: devFeeSetter,\n            allFeeToProtocol: allFeeToProtocol,\n            INIT_CODE_PAIR_HASH: INIT_CODE_PAIR_HASH\n        });\n    }\n\n    function createPair(address tokenA, address tokenB) external override returns (address pair) {\n        require(tokenA != tokenB, 'Factory: IDENTICAL_ADDRESSES');\n        (address token0, address token1) = tokenA < tokenB ? (tokenA, tokenB) : (tokenB, tokenA);\n        require(token0 != address(0), 'Factory: ZERO_ADDRESS');\n        require(getPair[token0][token1] == address(0), 'Factory: PAIR_EXISTS'); // single check is sufficient\n        bytes memory bytecode = type(Pair).creationCode;\n        bytes32 salt = keccak256(abi.encodePacked(token0, token1));\n        assembly {\n            pair := create2(0, add(bytecode, 32), mload(bytecode), salt)\n        }\n        IUniswapV2Pair(pair).initialize(token0, token1);\n        getPair[token0][token1] = pair;\n        getPair[token1][token0] = pair; // populate mapping in the reverse direction\n        allPairs.push(pair);\n        emit PairCreated(token0, token1, pair, allPairs.length);\n    }\n\n    function setDevFeePercent(uint _devFeePercent) external override {\n        require(msg.sender == devFeeSetter, 'Factory: FORBIDDEN');\n        require(_devFeePercent >= 0 && _devFeePercent <= 100, 'Factory: WRONG_PERCENTAGE');\n        devFeePercent = _devFeePercent;\n    }\n\n    function setFeeTo(address _feeTo) external override onlyOwner {\n        feeTo = _feeTo;\n    }\n\n    function setFeeToSetter(address _feeToSetter) external override onlyOwner {\n        feeToSetter = _feeToSetter;\n    }\n\n    function setDevFeeTo(address _devFeeTo) external override {\n        require(msg.sender == devFeeSetter, 'Factory: FORBIDDEN');\n        devFeeTo = _devFeeTo;\n    }\n\n    function setDevFeeSetter(address _devFeeToSetter) external override {\n        require(msg.sender == devFeeSetter, 'Factory: FORBIDDEN');\n        devFeeSetter = _devFeeToSetter;\n    }\n\n    function setAllFeeToProtocol(bool _allFeeToProtocol) external override onlyOwner {\n        allFeeToProtocol = _allFeeToProtocol;\n    }\n}\n","sourcePath":"/home/user/Github/solidity/core/contracts/Factory.sol","compiler":{"name":"solc","version":"0.8.0+commit.c7dfd78e.Emscripten.clang"},"schemaVersion":"3.4.4","updatedAt":"2021-12-21T14:39:44.248Z","devdoc":{"kind":"dev","methods":{},"version":1},"userdoc":{"kind":"user","methods":{},"version":1}}