{
  "contractName": "ProjectStorage",
  "abi": [
    {
      "inputs": [
        {
          "internalType": "address",
          "name": "_admin",
          "type": "address"
        }
      ],
      "stateMutability": "nonpayable",
      "type": "constructor"
    },
    {
      "inputs": [],
      "name": "admin",
      "outputs": [
        {
          "internalType": "address",
          "name": "",
          "type": "address"
        }
      ],
      "stateMutability": "view",
      "type": "function"
    },
    {
      "inputs": [],
      "name": "brandColor",
      "outputs": [
        {
          "internalType": "string",
          "name": "",
          "type": "string"
        }
      ],
      "stateMutability": "view",
      "type": "function"
    },
    {
      "inputs": [],
      "name": "logoUrl",
      "outputs": [
        {
          "internalType": "string",
          "name": "",
          "type": "string"
        }
      ],
      "stateMutability": "view",
      "type": "function"
    },
    {
      "inputs": [],
      "name": "projectName",
      "outputs": [
        {
          "internalType": "string",
          "name": "",
          "type": "string"
        }
      ],
      "stateMutability": "view",
      "type": "function"
    },
    {
      "inputs": [
        {
          "internalType": "address",
          "name": "_admin",
          "type": "address"
        }
      ],
      "name": "setAdmin",
      "outputs": [],
      "stateMutability": "nonpayable",
      "type": "function"
    },
    {
      "inputs": [
        {
          "internalType": "string",
          "name": "_projectName",
          "type": "string"
        }
      ],
      "name": "setProjectName",
      "outputs": [],
      "stateMutability": "nonpayable",
      "type": "function"
    },
    {
      "inputs": [
        {
          "internalType": "string",
          "name": "_logoUrl",
          "type": "string"
        }
      ],
      "name": "setLogoUrl",
      "outputs": [],
      "stateMutability": "nonpayable",
      "type": "function"
    },
    {
      "inputs": [
        {
          "internalType": "string",
          "name": "_brandColor",
          "type": "string"
        }
      ],
      "name": "setBrandColor",
      "outputs": [],
      "stateMutability": "nonpayable",
      "type": "function"
    }
  ],
  "bytecode": "0x608060405234801561001057600080fd5b506040516108a43803806108a48339818101604052602081101561003357600080fd5b5051600380546001600160a01b0319166001600160a01b03909216919091179055610841806100636000396000f3fe608060405234801561001057600080fd5b50600436106100885760003560e01c80639a33e3001161005b5780639a33e3001461028b578063bf74823414610293578063d0e4f09314610339578063f851a4401461034157610088565b806348b6b16f1461008d578063704b6c02146101355780638a66010814610168578063993d77af1461020e575b600080fd5b610133600480360360208110156100a357600080fd5b8101906020810181356401000000008111156100be57600080fd5b8201836020820111156100d057600080fd5b803590602001918460018302840111640100000000831117156100f257600080fd5b91908080601f016020809104026020016040519081016040528093929190818152602001838380828437600092019190915250929550610372945050505050565b005b6101336004803603602081101561014b57600080fd5b503573ffffffffffffffffffffffffffffffffffffffff1661040f565b6101336004803603602081101561017e57600080fd5b81019060208101813564010000000081111561019957600080fd5b8201836020820111156101ab57600080fd5b803590602001918460018302840111640100000000831117156101cd57600080fd5b91908080601f0160208091040260200160405190810160405280939291908181526020018383808284376000920191909152509295506104dc945050505050565b610216610575565b6040805160208082528351818301528351919283929083019185019080838360005b83811015610250578181015183820152602001610238565b50505050905090810190601f16801561027d5780820380516001836020036101000a031916815260200191505b509250505060405180910390f35b610216610602565b610133600480360360208110156102a957600080fd5b8101906020810181356401000000008111156102c457600080fd5b8201836020820111156102d657600080fd5b803590602001918460018302840111640100000000831117156102f857600080fd5b91908080601f01602080910402602001604051908101604052809392919081815260200183838082843760009201919091525092955061065d945050505050565b6102166106f6565b61034961074e565b6040805173ffffffffffffffffffffffffffffffffffffffff9092168252519081900360200190f35b60035473ffffffffffffffffffffffffffffffffffffffff1633146103f857604080517f08c379a000000000000000000000000000000000000000000000000000000000815260206004820152601760248201527f43616c6c6572206973206e6f74207468652061646d696e000000000000000000604482015290519081900360640190fd5b805161040b90600090602084019061076a565b5050565b60035473ffffffffffffffffffffffffffffffffffffffff16331461049557604080517f08c379a000000000000000000000000000000000000000000000000000000000815260206004820152601760248201527f43616c6c6572206973206e6f74207468652061646d696e000000000000000000604482015290519081900360640190fd5b600380547fffffffffffffffffffffffff00000000000000000000000000000000000000001673ffffffffffffffffffffffffffffffffffffffff92909216919091179055565b60035473ffffffffffffffffffffffffffffffffffffffff16331461056257604080517f08c379a000000000000000000000000000000000000000000000000000000000815260206004820152601760248201527f43616c6c6572206973206e6f74207468652061646d696e000000000000000000604482015290519081900360640190fd5b805161040b90600290602084019061076a565b60018054604080516020600284861615610100026000190190941693909304601f810184900484028201840190925281815292918301828280156105fa5780601f106105cf576101008083540402835291602001916105fa565b820191906000526020600020905b8154815290600101906020018083116105dd57829003601f168201915b505050505081565b6000805460408051602060026001851615610100026000190190941693909304601f810184900484028201840190925281815292918301828280156105fa5780601f106105cf576101008083540402835291602001916105fa565b60035473ffffffffffffffffffffffffffffffffffffffff1633146106e357604080517f08c379a000000000000000000000000000000000000000000000000000000000815260206004820152601760248201527f43616c6c6572206973206e6f74207468652061646d696e000000000000000000604482015290519081900360640190fd5b805161040b90600190602084019061076a565b6002805460408051602060018416156101000260001901909316849004601f810184900484028201840190925281815292918301828280156105fa5780601f106105cf576101008083540402835291602001916105fa565b60035473ffffffffffffffffffffffffffffffffffffffff1681565b828054600181600116156101000203166002900490600052602060002090601f0160209004810192826107a057600085556107e6565b82601f106107b957805160ff19168380011785556107e6565b828001600101855582156107e6579182015b828111156107e65782518255916020019190600101906107cb565b506107f29291506107f6565b5090565b5b808211156107f257600081556001016107f756fea264697066735822122077e5ddb0434e8cd239ef76e5b85be11ccd6083fdcde868e8010244df8ac77de964736f6c63430007050033",
  "immutableReferences": {},
  "source": "// SPDX-License-Identifier: MIT\npragma solidity =0.7.5;\n\ncontract ProjectStorage {\n    string public projectName;\n    string public logoUrl;\n    string public brandColor;\n    address public admin;\n\n    // struct TokenList {\n    //     bool exists;\n    //     string name;\n    //     string[] tokens;\n    // }\n\n    // mapping(string => TokenList[]) tokenLists;\n\n    modifier onlyAdmin() {\n        require(msg.sender == admin, \"Caller is not the admin\");\n        _;\n    }\n\n    constructor(address _admin) {\n        admin = _admin;\n    }\n\n    function setAdmin(address _admin) external onlyAdmin {\n        admin = _admin;\n    }\n\n    function setProjectName(string memory _projectName) external onlyAdmin {\n         projectName = _projectName;\n    }\n\n    function setLogoUrl(string memory _logoUrl) external onlyAdmin {\n         logoUrl = _logoUrl;\n    }\n\n    function setBrandColor(string memory _brandColor) external onlyAdmin {\n         brandColor = _brandColor;\n    }\n\n    // function addTokenList(string _key, TokenList _tokenList) external onlyAdmin {\n    //     require(!tokenLists[_key].exists == true, \"The list of tokens already exists\");\n    //     tokenLists[_key] = _tokenList;\n    // }\n\n    // function removeTokenList(string _key) external {\n    //     require(tokenLists[_key].exists, \"The list of tokens already exists\");\n    //     tokenLists[_key] = _tokenList;\n    // }\n}",
  "sourcePath": "/home/user/Github/solidity/storage/contracts/Storage.sol",
  "compiler": {
    "name": "solc",
    "version": "0.7.5+commit.eb77ed08.Emscripten.clang"
  },
  "schemaVersion": "3.4.3",
  "updatedAt": "2021-11-23T12:53:42.582Z",
  "devdoc": {
    "kind": "dev",
    "methods": {},
    "version": 1
  },
  "userdoc": {
    "kind": "user",
    "methods": {},
    "version": 1
  }
}