{"contractName":"Registry","abi":[{"inputs":[{"internalType":"string","name":"","type":"string"}],"name":"domainData","outputs":[{"internalType":"address","name":"admin","type":"address"},{"internalType":"address","name":"factory","type":"address"},{"internalType":"address","name":"router","type":"address"}],"stateMutability":"view","type":"function","constant":true},{"inputs":[{"internalType":"string","name":"","type":"string"}],"name":"domainStorage","outputs":[{"internalType":"address","name":"","type":"address"}],"stateMutability":"view","type":"function","constant":true},{"inputs":[{"internalType":"string","name":"_domain","type":"string"},{"components":[{"internalType":"address","name":"admin","type":"address"},{"internalType":"address","name":"factory","type":"address"},{"internalType":"address","name":"router","type":"address"}],"internalType":"struct Registry.Domain","name":"_data","type":"tuple"}],"name":"addDomainData","outputs":[],"stateMutability":"nonpayable","type":"function"},{"inputs":[{"internalType":"string","name":"_domain","type":"string"},{"internalType":"address","name":"_storage","type":"address"}],"name":"addDomainStorage","outputs":[],"stateMutability":"nonpayable","type":"function"},{"inputs":[{"internalType":"string","name":"_domain","type":"string"}],"name":"removeDomain","outputs":[],"stateMutability":"nonpayable","type":"function"}],"bytecode":"0x608060405234801561001057600080fd5b50610aca806100206000396000f3fe608060405234801561001057600080fd5b50600436106100675760003560e01c80633742b081116100505780633742b081146100ac578063be9c46d8146100bf578063e1a24fc7146100d257610067565b80630ea4cbd11461006c5780632277892914610097575b600080fd5b61007f61007a3660046107ea565b6100f2565b60405161008e93929190610990565b60405180910390f35b6100aa6100a53660046107ea565b610138565b005b6100aa6100ba366004610825565b610319565b6100aa6100cd366004610871565b6104b8565b6100e56100e03660046107ea565b6106ef565b60405161008e919061096f565b805160208183018101805160008252928201919093012091528054600182015460029092015473ffffffffffffffffffffffffffffffffffffffff918216928216911683565b80518190819061017d576040517f08c379a0000000000000000000000000000000000000000000000000000000008152600401610174906109f7565b60405180910390fd5b82600073ffffffffffffffffffffffffffffffffffffffff166000826040516101a69190610936565b9081526040519081900360200190205473ffffffffffffffffffffffffffffffffffffffff161415610204576040517f08c379a0000000000000000000000000000000000000000000000000000000008152600401610174906109c0565b6000816040516102149190610936565b908152604051908190036020019020543373ffffffffffffffffffffffffffffffffffffffff90911614610274576040517f08c379a000000000000000000000000000000000000000000000000000000000815260040161017490610a2e565b6000846040516102849190610936565b90815260405190819003602001812080547fffffffffffffffffffffffff000000000000000000000000000000000000000090811682556001808301805483169055600290920180549091169055906102de908690610936565b90815260405190819003602001902080547fffffffffffffffffffffffff000000000000000000000000000000000000000016905550505050565b815182908190610355576040517f08c379a0000000000000000000000000000000000000000000000000000000008152600401610174906109f7565b83600073ffffffffffffffffffffffffffffffffffffffff1660008260405161037e9190610936565b9081526040519081900360200190205473ffffffffffffffffffffffffffffffffffffffff1614156103dc576040517f08c379a0000000000000000000000000000000000000000000000000000000008152600401610174906109c0565b6000816040516103ec9190610936565b908152604051908190036020019020543373ffffffffffffffffffffffffffffffffffffffff9091161461044c576040517f08c379a000000000000000000000000000000000000000000000000000000000815260040161017490610a2e565b8360018660405161045d9190610936565b908152604051908190036020019020805473ffffffffffffffffffffffffffffffffffffffff929092167fffffffffffffffffffffffff00000000000000000000000000000000000000009092169190911790555050505050565b8151829081906104f4576040517f08c379a0000000000000000000000000000000000000000000000000000000008152600401610174906109f7565b600073ffffffffffffffffffffffffffffffffffffffff1660008560405161051c9190610936565b9081526040519081900360200190205473ffffffffffffffffffffffffffffffffffffffff16146105b7576000846040516105579190610936565b908152604051908190036020019020543373ffffffffffffffffffffffffffffffffffffffff909116146105b7576040517f08c379a000000000000000000000000000000000000000000000000000000000815260040161017490610a2e565b82516040516000906105ca908790610936565b908152602001604051809103902060000160006101000a81548173ffffffffffffffffffffffffffffffffffffffff021916908373ffffffffffffffffffffffffffffffffffffffff160217905550826020015160008560405161062e9190610936565b908152602001604051809103902060010160006101000a81548173ffffffffffffffffffffffffffffffffffffffff021916908373ffffffffffffffffffffffffffffffffffffffff16021790555082604001516000856040516106929190610936565b908152604051908190036020019020600201805473ffffffffffffffffffffffffffffffffffffffff929092167fffffffffffffffffffffffff000000000000000000000000000000000000000090921691909117905550505050565b805160208183018101805160018252928201919093012091525473ffffffffffffffffffffffffffffffffffffffff1681565b803573ffffffffffffffffffffffffffffffffffffffff8116811461074657600080fd5b919050565b600082601f83011261075b578081fd5b813567ffffffffffffffff8082111561077657610776610a65565b60405160207fffffffffffffffffffffffffffffffffffffffffffffffffffffffffffffffe0601f85011682010181811083821117156107b8576107b8610a65565b6040528281528483016020018610156107cf578384fd5b82602086016020830137918201602001929092529392505050565b6000602082840312156107fb578081fd5b813567ffffffffffffffff811115610811578182fd5b61081d8482850161074b565b949350505050565b60008060408385031215610837578081fd5b823567ffffffffffffffff81111561084d578182fd5b6108598582860161074b565b92505061086860208401610722565b90509250929050565b6000808284036080811215610884578283fd5b833567ffffffffffffffff8082111561089b578485fd5b6108a78783880161074b565b945060607fffffffffffffffffffffffffffffffffffffffffffffffffffffffffffffffe0840112156108d8578384fd5b604051925060608301915082821081831117156108f7576108f7610a65565b5060405261090760208501610722565b815261091560408501610722565b602082015261092660608501610722565b6040820152809150509250929050565b60008251815b81811015610956576020818601810151858301520161093c565b818111156109645782828501525b509190910192915050565b73ffffffffffffffffffffffffffffffffffffffff91909116815260200190565b73ffffffffffffffffffffffffffffffffffffffff93841681529183166020830152909116604082015260600190565b60208082526018908201527f52656769737472793a204e4f5f444f4d41494e5f444154410000000000000000604082015260600190565b60208082526012908201527f52656769737472793a204e4f5f56414c55450000000000000000000000000000604082015260600190565b60208082526013908201527f52656769737472793a20464f5242494444454e00000000000000000000000000604082015260600190565b7f4e487b7100000000000000000000000000000000000000000000000000000000600052604160045260246000fdfea264697066735822122027373d7e4598f664280ec67d14cf86d5ecf84b1aea0e029f932bbd84dd22691d64736f6c63430008000033","immutableReferences":{},"source":"// SPDX-License-Identifier: MIT\npragma solidity ^0.8.0;\n\ncontract Registry {\n    struct Domain {\n        address admin;\n        address factory;\n        address router;\n    }\n\n    mapping(string => Domain) public domainData;\n    mapping(string => address) public domainStorage;\n\n    modifier onlyAdmin(string memory _domain) {\n        require(domainData[_domain].admin != address(0), 'Registry: NO_DOMAIN_DATA');\n        require(msg.sender == domainData[_domain].admin, 'Registry: FORBIDDEN');\n        _;\n    }\n\n    modifier notEmpty(string memory _value) {\n        bytes memory byteValue = bytes(_value);\n        require(byteValue.length != 0, 'Registry: NO_VALUE');\n        _;\n    }\n\n    function addDomainData(string memory _domain, Domain memory _data) external notEmpty(_domain) {\n        if (domainData[_domain].admin != address(0)) {\n            require(msg.sender == domainData[_domain].admin, 'Registry: FORBIDDEN');\n        }\n        domainData[_domain].admin = _data.admin;\n        domainData[_domain].factory = _data.factory;\n        domainData[_domain].router = _data.router;\n    }\n\n    function addDomainStorage(string memory _domain, address _storage) external notEmpty(_domain) onlyAdmin(_domain) {\n        domainStorage[_domain] = _storage;\n    }\n\n    function removeDomain(string memory _domain) external notEmpty(_domain) onlyAdmin(_domain) {\n        delete domainData[_domain];\n        delete domainStorage[_domain];\n    }\n}","sourcePath":"/home/user/Github/solidity/storage/contracts/Registry.sol","compiler":{"name":"solc","version":"0.8.0+commit.c7dfd78e.Emscripten.clang"},"schemaVersion":"3.4.3","updatedAt":"2021-12-15T10:30:09.955Z","networkType":"ethereum","devdoc":{"kind":"dev","methods":{},"version":1},"userdoc":{"kind":"user","methods":{},"version":1}}