{"contractName":"Registry","abi":[{"inputs":[{"internalType":"string","name":"","type":"string"}],"name":"domainData","outputs":[{"internalType":"address","name":"admin","type":"address"},{"internalType":"address","name":"factory","type":"address"},{"internalType":"address","name":"router","type":"address"}],"stateMutability":"view","type":"function"},{"inputs":[{"internalType":"string","name":"","type":"string"}],"name":"domainStorage","outputs":[{"internalType":"address","name":"","type":"address"}],"stateMutability":"view","type":"function"},{"inputs":[{"internalType":"string","name":"_domainName","type":"string"},{"components":[{"internalType":"address","name":"admin","type":"address"},{"internalType":"address","name":"factory","type":"address"},{"internalType":"address","name":"router","type":"address"}],"internalType":"struct Registry.Domain","name":"_data","type":"tuple"}],"name":"addDomainData","outputs":[],"stateMutability":"nonpayable","type":"function"},{"inputs":[{"internalType":"string","name":"_domainName","type":"string"},{"internalType":"address","name":"_storage","type":"address"}],"name":"addDomainStorage","outputs":[],"stateMutability":"nonpayable","type":"function"},{"inputs":[{"internalType":"string","name":"_domainName","type":"string"}],"name":"removeDomain","outputs":[],"stateMutability":"nonpayable","type":"function"},{"inputs":[{"internalType":"string","name":"_name","type":"string"}],"name":"domain","outputs":[{"components":[{"internalType":"address","name":"admin","type":"address"},{"internalType":"address","name":"factory","type":"address"},{"internalType":"address","name":"router","type":"address"},{"internalType":"address","name":"storageAddr","type":"address"}],"internalType":"struct Registry.FullDomain","name":"","type":"tuple"}],"stateMutability":"view","type":"function"},{"inputs":[],"name":"domains","outputs":[{"internalType":"string[]","name":"","type":"string[]"}],"stateMutability":"view","type":"function"},{"inputs":[],"name":"allDomainsData","outputs":[{"components":[{"internalType":"address","name":"admin","type":"address"},{"internalType":"address","name":"factory","type":"address"},{"internalType":"address","name":"router","type":"address"},{"internalType":"address","name":"storageAddr","type":"address"}],"internalType":"struct Registry.FullDomain[]","name":"","type":"tuple[]"}],"stateMutability":"view","type":"function"}],"bytecode":"0x608060405234801561001057600080fd5b506117f6806100206000396000f3fe608060405234801561001057600080fd5b50600436106100885760003560e01c80634c7983381161005b5780634c798338146100f55780637f109dd31461010a578063be9c46d81461012a578063e1a24fc71461013d57610088565b80630ea4cbd11461008d57806322778929146100b85780633742b081146100cd578063440df4f4146100e0575b600080fd5b6100a061009b36600461117e565b61015d565b6040516100af93929190611411565b60405180910390f35b6100cb6100c636600461117e565b6101a3565b005b6100cb6100db3660046111b1565b6106af565b6100e861084e565b6040516100af9190611441565b6100fd610927565b6040516100af91906114f5565b61011d61011836600461117e565b610aea565b6040516100af9190611656565b6100cb6101383660046111fd565b610b3f565b61015061014b36600461117e565b610dc0565b6040516100af91906113f0565b805160208183018101805160008252928201919093012091528054600182015460029092015473ffffffffffffffffffffffffffffffffffffffff918216928216911683565b8051819081906101e8576040517f08c379a00000000000000000000000000000000000000000000000000000000081526004016101df90611543565b60405180910390fd5b82600073ffffffffffffffffffffffffffffffffffffffff166000826040516102119190611302565b9081526040519081900360200190205473ffffffffffffffffffffffffffffffffffffffff16141561026f576040517f08c379a00000000000000000000000000000000000000000000000000000000081526004016101df906115e8565b60008160405161027f9190611302565b908152604051908190036020019020543373ffffffffffffffffffffffffffffffffffffffff909116146102df576040517f08c379a00000000000000000000000000000000000000000000000000000000081526004016101df906115b1565b6000846040516102ef9190611302565b90815260405190819003602001812080547fffffffffffffffffffffffff0000000000000000000000000000000000000000908116825560018201805482169055600290910180549091169055600090819061034c908790611302565b9081526040805160209281900383018120606082018352805473ffffffffffffffffffffffffffffffffffffffff9081168084526001830154821695840195909552600290910154169181019190915291501580156103c35750602081015173ffffffffffffffffffffffffffffffffffffffff16155b80156103e75750604081015173ffffffffffffffffffffffffffffffffffffffff16155b61041d576040517f08c379a00000000000000000000000000000000000000000000000000000000081526004016101df9061161f565b60018560405161042d9190611302565b90815260405190819003602001812080547fffffffffffffffffffffffff0000000000000000000000000000000000000000169055600090600190610473908890611302565b9081526040519081900360200190205473ffffffffffffffffffffffffffffffffffffffff16146104d0576040517f08c379a00000000000000000000000000000000000000000000000000000000081526004016101df9061157a565b6000805b6002546104e39060019061168e565b81101561064957866040516020016104fb9190611302565b604051602081830303815290604052805190602001206002828154811061054b577f4e487b7100000000000000000000000000000000000000000000000000000000600052603260045260246000fd5b90600052602060002001604051602001610565919061131e565b60405160208183030381529060405280519060200120141561058657600191505b8115610637576002610599826001611676565b815481106105d0577f4e487b7100000000000000000000000000000000000000000000000000000000600052603260045260246000fd5b9060005260206000200160028281548110610614577f4e487b7100000000000000000000000000000000000000000000000000000000600052603260045260246000fd5b9060005260206000200190805461062a906116d5565b610635929190610f3c565b505b8061064181611729565b9150506104d4565b5080156106a7576002805480610688577f4e487b7100000000000000000000000000000000000000000000000000000000600052603160045260246000fd5b6001900381819060005260206000200160006106a49190610fc7565b90555b505050505050565b8151829081906106eb576040517f08c379a00000000000000000000000000000000000000000000000000000000081526004016101df90611543565b83600073ffffffffffffffffffffffffffffffffffffffff166000826040516107149190611302565b9081526040519081900360200190205473ffffffffffffffffffffffffffffffffffffffff161415610772576040517f08c379a00000000000000000000000000000000000000000000000000000000081526004016101df906115e8565b6000816040516107829190611302565b908152604051908190036020019020543373ffffffffffffffffffffffffffffffffffffffff909116146107e2576040517f08c379a00000000000000000000000000000000000000000000000000000000081526004016101df906115b1565b836001866040516107f39190611302565b908152604051908190036020019020805473ffffffffffffffffffffffffffffffffffffffff929092167fffffffffffffffffffffffff00000000000000000000000000000000000000009092169190911790555050505050565b60606002805480602002602001604051908101604052809291908181526020016000905b8282101561091e578382906000526020600020018054610891906116d5565b80601f01602080910402602001604051908101604052809291908181526020018280546108bd906116d5565b801561090a5780601f106108df5761010080835404028352916020019161090a565b820191906000526020600020905b8154815290600101906020018083116108ed57829003601f168201915b505050505081526020019060010190610872565b50505050905090565b60025460609060009067ffffffffffffffff81111561096f577f4e487b7100000000000000000000000000000000000000000000000000000000600052604160045260246000fd5b6040519080825280602002602001820160405280156109a857816020015b610995611006565b81526020019060019003908161098d5790505b50905060005b600254811015610ae457610a8d600282815481106109f5577f4e487b7100000000000000000000000000000000000000000000000000000000600052603260045260246000fd5b906000526020600020018054610a0a906116d5565b80601f0160208091040260200160405190810160405280929190818152602001828054610a36906116d5565b8015610a835780601f10610a5857610100808354040283529160200191610a83565b820191906000526020600020905b815481529060010190602001808311610a6657829003601f168201915b5050505050610df3565b828281518110610ac6577f4e487b7100000000000000000000000000000000000000000000000000000000600052603260045260246000fd5b60200260200101819052508080610adc90611729565b9150506109ae565b50905090565b610af2611006565b815182908190610b2e576040517f08c379a00000000000000000000000000000000000000000000000000000000081526004016101df90611543565b610b3784610df3565b949350505050565b815182908190610b7b576040517f08c379a00000000000000000000000000000000000000000000000000000000081526004016101df90611543565b600073ffffffffffffffffffffffffffffffffffffffff16600085604051610ba39190611302565b9081526040519081900360200190205473ffffffffffffffffffffffffffffffffffffffff1614610c4357600084604051610bde9190611302565b908152604051908190036020019020543373ffffffffffffffffffffffffffffffffffffffff90911614610c3e576040517f08c379a00000000000000000000000000000000000000000000000000000000081526004016101df906115b1565b610c88565b600280546001810182556000919091528451610c86917f405787fa12a823e0f2b7631cc41b3ba8828b3321ca811111fa75cd3aa3bb5ace0190602087019061102d565b505b8251604051600090610c9b908790611302565b908152602001604051809103902060000160006101000a81548173ffffffffffffffffffffffffffffffffffffffff021916908373ffffffffffffffffffffffffffffffffffffffff1602179055508260200151600085604051610cff9190611302565b908152602001604051809103902060010160006101000a81548173ffffffffffffffffffffffffffffffffffffffff021916908373ffffffffffffffffffffffffffffffffffffffff1602179055508260400151600085604051610d639190611302565b908152604051908190036020019020600201805473ffffffffffffffffffffffffffffffffffffffff929092167fffffffffffffffffffffffff000000000000000000000000000000000000000090921691909117905550505050565b805160208183018101805160018252928201919093012091525473ffffffffffffffffffffffffffffffffffffffff1681565b610dfb611006565b815182908190610e37576040517f08c379a00000000000000000000000000000000000000000000000000000000081526004016101df90611543565b6040518060800160405280600086604051610e529190611302565b90815260408051602092819003830190205473ffffffffffffffffffffffffffffffffffffffff16835251910190600090610e8e908890611302565b90815260408051602092819003830190206001015473ffffffffffffffffffffffffffffffffffffffff16835251910190600090610ecd908890611302565b90815260408051602092819003830190206002015473ffffffffffffffffffffffffffffffffffffffff16835251910190600190610f0c908890611302565b9081526040519081900360200190205473ffffffffffffffffffffffffffffffffffffffff169052949350505050565b828054610f48906116d5565b90600052602060002090601f016020900481019282610f6a5760008555610fb7565b82601f10610f7b5780548555610fb7565b82800160010185558215610fb757600052602060002091601f016020900482015b82811115610fb7578254825591600101919060010190610f9c565b50610fc39291506110a1565b5090565b508054610fd3906116d5565b6000825580601f10610fe55750611003565b601f01602090049060005260206000209081019061100391906110a1565b50565b60408051608081018252600080825260208201819052918101829052606081019190915290565b828054611039906116d5565b90600052602060002090601f01602090048101928261105b5760008555610fb7565b82601f1061107457805160ff1916838001178555610fb7565b82800160010185558215610fb7579182015b82811115610fb7578251825591602001919060010190611086565b5b80821115610fc357600081556001016110a2565b803573ffffffffffffffffffffffffffffffffffffffff811681146110da57600080fd5b919050565b600082601f8301126110ef578081fd5b813567ffffffffffffffff8082111561110a5761110a611791565b60405160207fffffffffffffffffffffffffffffffffffffffffffffffffffffffffffffffe0601f850116820101818110838211171561114c5761114c611791565b604052828152848301602001861015611163578384fd5b82602086016020830137918201602001929092529392505050565b60006020828403121561118f578081fd5b813567ffffffffffffffff8111156111a5578182fd5b610b37848285016110df565b600080604083850312156111c3578081fd5b823567ffffffffffffffff8111156111d9578182fd5b6111e5858286016110df565b9250506111f4602084016110b6565b90509250929050565b6000808284036080811215611210578283fd5b833567ffffffffffffffff80821115611227578485fd5b611233878388016110df565b945060607fffffffffffffffffffffffffffffffffffffffffffffffffffffffffffffffe084011215611264578384fd5b6040519250606083019150828210818311171561128357611283611791565b50604052611293602085016110b6565b81526112a1604085016110b6565b60208201526112b2606085016110b6565b6040820152809150509250929050565b805173ffffffffffffffffffffffffffffffffffffffff908116835260208083015182169084015260408083015182169084015260609182015116910152565b600082516113148184602087016116a5565b9190910192915050565b815460009081906002810460018083168061133a57607f831692505b6020808410821415611373577f4e487b710000000000000000000000000000000000000000000000000000000087526022600452602487fd5b81801561138757600181146113b6576113e2565b7fffffffffffffffffffffffffffffffffffffffffffffffffffffffffffffff008616895284890196506113e2565b6113bf8a61166a565b885b868110156113da5781548b8201529085019083016113c1565b505084890196505b509498975050505050505050565b73ffffffffffffffffffffffffffffffffffffffff91909116815260200190565b73ffffffffffffffffffffffffffffffffffffffff93841681529183166020830152909116604082015260600190565b6000602080830181845280855180835260408601915060408482028701019250838701855b828110156114e8577fffffffffffffffffffffffffffffffffffffffffffffffffffffffffffffffc0888603018452815180518087526114ab818989018a85016116a5565b601f017fffffffffffffffffffffffffffffffffffffffffffffffffffffffffffffffe01695909501860194509285019290850190600101611466565b5092979650505050505050565b6020808252825182820181905260009190848201906040850190845b81811015611537576115248385516112c2565b9284019260809290920191600101611511565b50909695505050505050565b60208082526008908201527f4e4f5f56414c5545000000000000000000000000000000000000000000000000604082015260600190565b60208082526013908201527f53544f524147455f4e4f545f44454c4554454400000000000000000000000000604082015260600190565b60208082526009908201527f464f5242494444454e0000000000000000000000000000000000000000000000604082015260600190565b6020808252600e908201527f4e4f5f444f4d41494e5f44415441000000000000000000000000000000000000604082015260600190565b6020808252601c908201527f4d41494e5f444f4d41494e5f444154415f4e4f545f44454c4554454400000000604082015260600190565b6080810161166482846112c2565b92915050565b60009081526020902090565b6000821982111561168957611689611762565b500190565b6000828210156116a0576116a0611762565b500390565b60005b838110156116c05781810151838201526020016116a8565b838111156116cf576000848401525b50505050565b6002810460018216806116e957607f821691505b60208210811415611723577f4e487b7100000000000000000000000000000000000000000000000000000000600052602260045260246000fd5b50919050565b60007fffffffffffffffffffffffffffffffffffffffffffffffffffffffffffffffff82141561175b5761175b611762565b5060010190565b7f4e487b7100000000000000000000000000000000000000000000000000000000600052601160045260246000fd5b7f4e487b7100000000000000000000000000000000000000000000000000000000600052604160045260246000fdfea26469706673582212203538bae5babfe02fe9bc4c97524fbf965ae48e8ddcf289a7c26c6c9e61b548a564736f6c63430008000033","immutableReferences":{},"source":"// SPDX-License-Identifier: MIT\npragma solidity ^0.8.0;\n\ncontract Registry {\n    struct Domain {\n        address admin;\n        address factory;\n        address router;\n    }\n\n    struct FullDomain {\n        address admin;\n        address factory;\n        address router;\n        address storageAddr;\n    }\n\n    mapping(string => Domain) public domainData;\n    mapping(string => address) public domainStorage;\n    string[] private _domains;\n\n    modifier onlyAdmin(string memory _domainName) {\n        require(domainData[_domainName].admin != address(0), 'NO_DOMAIN_DATA');\n        require(msg.sender == domainData[_domainName].admin, 'FORBIDDEN');\n        _;\n    }\n\n    modifier notEmpty(string memory _value) {\n        bytes memory byteValue = bytes(_value);\n        require(byteValue.length != 0, 'NO_VALUE');\n        _;\n    }\n\n    function addDomainData(string memory _domainName, Domain memory _data) external notEmpty(_domainName) {\n        if (domainData[_domainName].admin != address(0)) {\n            require(msg.sender == domainData[_domainName].admin, 'FORBIDDEN');\n        } else {\n            _domains.push(_domainName);\n        }\n        domainData[_domainName].admin = _data.admin;\n        domainData[_domainName].factory = _data.factory;\n        domainData[_domainName].router = _data.router;\n    }\n\n    function addDomainStorage(string memory _domainName, address _storage) external notEmpty(_domainName) onlyAdmin(_domainName) {\n        domainStorage[_domainName] = _storage;\n    }\n\n    function removeDomain(string memory _domainName) external notEmpty(_domainName) onlyAdmin(_domainName) {\n        delete domainData[_domainName];\n        Domain memory emptyDomain = domainData[_domainName];\n        require(\n            emptyDomain.admin == address(0) &&\n            emptyDomain.factory == address(0) &&\n            emptyDomain.router == address(0),\n            'MAIN_DOMAIN_DATA_NOT_DELETED'\n        );\n        delete domainStorage[_domainName];\n        require(domainStorage[_domainName] == address(0), 'STORAGE_NOT_DELETED');\n        bool arrayOffset;\n        for(uint x; x < _domains.length - 1; x++) {\n            if (keccak256(abi.encodePacked(_domains[x])) == keccak256(abi.encodePacked(_domainName))) {\n                arrayOffset = true;\n            }\n            if (arrayOffset) _domains[x] = _domains[x + 1];\n        }\n        if (arrayOffset) _domains.pop();\n    }\n\n    function domain(string memory _name) external view notEmpty(_name) returns(FullDomain memory) {\n        return _domain(_name);\n    }\n\n    function domains() external view returns(string[] memory) {\n        return _domains;\n    }\n\n    function allDomainsData() external view returns(FullDomain[] memory) {\n        FullDomain[] memory _allDomains = new FullDomain[](_domains.length);\n        for(uint x; x < _domains.length; x++) {\n            _allDomains[x] = _domain(_domains[x]);\n        }\n        return _allDomains;\n    }\n\n    function _domain(string memory _name) private view notEmpty(_name) returns(FullDomain memory _data) {\n        _data = FullDomain({\n            admin: domainData[_name].admin,\n            factory: domainData[_name].factory,\n            router: domainData[_name].router,\n            storageAddr: domainStorage[_name]\n        });\n    }\n}","sourcePath":"/home/user/Github/UnifactoryContracts/contracts/Registry.sol","compiler":{"name":"solc","version":"0.8.0+commit.c7dfd78e.Emscripten.clang"},"schemaVersion":"3.4.4","updatedAt":"2022-01-14T10:10:33.855Z","devdoc":{"kind":"dev","methods":{},"version":1},"userdoc":{"kind":"user","methods":{},"version":1}}