{
  "contractName": "RouterV2",
  "abi": [
    {
      "inputs": [
        {
          "internalType": "address",
          "name": "_factory",
          "type": "address"
        },
        {
          "internalType": "address",
          "name": "_WETH",
          "type": "address"
        }
      ],
      "stateMutability": "nonpayable",
      "type": "constructor"
    },
    {
      "inputs": [],
      "name": "WETH",
      "outputs": [
        {
          "internalType": "address",
          "name": "",
          "type": "address"
        }
      ],
      "stateMutability": "view",
      "type": "function",
      "constant": true
    },
    {
      "inputs": [],
      "name": "factory",
      "outputs": [
        {
          "internalType": "address",
          "name": "",
          "type": "address"
        }
      ],
      "stateMutability": "view",
      "type": "function",
      "constant": true
    },
    {
      "stateMutability": "payable",
      "type": "receive",
      "payable": true
    },
    {
      "inputs": [
        {
          "internalType": "address",
          "name": "tokenA",
          "type": "address"
        },
        {
          "internalType": "address",
          "name": "tokenB",
          "type": "address"
        },
        {
          "internalType": "uint256",
          "name": "amountADesired",
          "type": "uint256"
        },
        {
          "internalType": "uint256",
          "name": "amountBDesired",
          "type": "uint256"
        },
        {
          "internalType": "uint256",
          "name": "amountAMin",
          "type": "uint256"
        },
        {
          "internalType": "uint256",
          "name": "amountBMin",
          "type": "uint256"
        },
        {
          "internalType": "address",
          "name": "to",
          "type": "address"
        },
        {
          "internalType": "uint256",
          "name": "deadline",
          "type": "uint256"
        }
      ],
      "name": "addLiquidity",
      "outputs": [
        {
          "internalType": "uint256",
          "name": "amountA",
          "type": "uint256"
        },
        {
          "internalType": "uint256",
          "name": "amountB",
          "type": "uint256"
        },
        {
          "internalType": "uint256",
          "name": "liquidity",
          "type": "uint256"
        }
      ],
      "stateMutability": "nonpayable",
      "type": "function"
    },
    {
      "inputs": [
        {
          "internalType": "address",
          "name": "token",
          "type": "address"
        },
        {
          "internalType": "uint256",
          "name": "amountTokenDesired",
          "type": "uint256"
        },
        {
          "internalType": "uint256",
          "name": "amountTokenMin",
          "type": "uint256"
        },
        {
          "internalType": "uint256",
          "name": "amountETHMin",
          "type": "uint256"
        },
        {
          "internalType": "address",
          "name": "to",
          "type": "address"
        },
        {
          "internalType": "uint256",
          "name": "deadline",
          "type": "uint256"
        }
      ],
      "name": "addLiquidityETH",
      "outputs": [
        {
          "internalType": "uint256",
          "name": "amountToken",
          "type": "uint256"
        },
        {
          "internalType": "uint256",
          "name": "amountETH",
          "type": "uint256"
        },
        {
          "internalType": "uint256",
          "name": "liquidity",
          "type": "uint256"
        }
      ],
      "stateMutability": "payable",
      "type": "function",
      "payable": true
    },
    {
      "inputs": [
        {
          "internalType": "address",
          "name": "tokenA",
          "type": "address"
        },
        {
          "internalType": "address",
          "name": "tokenB",
          "type": "address"
        },
        {
          "internalType": "uint256",
          "name": "liquidity",
          "type": "uint256"
        },
        {
          "internalType": "uint256",
          "name": "amountAMin",
          "type": "uint256"
        },
        {
          "internalType": "uint256",
          "name": "amountBMin",
          "type": "uint256"
        },
        {
          "internalType": "address",
          "name": "to",
          "type": "address"
        },
        {
          "internalType": "uint256",
          "name": "deadline",
          "type": "uint256"
        }
      ],
      "name": "removeLiquidity",
      "outputs": [
        {
          "internalType": "uint256",
          "name": "amountA",
          "type": "uint256"
        },
        {
          "internalType": "uint256",
          "name": "amountB",
          "type": "uint256"
        }
      ],
      "stateMutability": "nonpayable",
      "type": "function"
    },
    {
      "inputs": [
        {
          "internalType": "address",
          "name": "token",
          "type": "address"
        },
        {
          "internalType": "uint256",
          "name": "liquidity",
          "type": "uint256"
        },
        {
          "internalType": "uint256",
          "name": "amountTokenMin",
          "type": "uint256"
        },
        {
          "internalType": "uint256",
          "name": "amountETHMin",
          "type": "uint256"
        },
        {
          "internalType": "address",
          "name": "to",
          "type": "address"
        },
        {
          "internalType": "uint256",
          "name": "deadline",
          "type": "uint256"
        }
      ],
      "name": "removeLiquidityETH",
      "outputs": [
        {
          "internalType": "uint256",
          "name": "amountToken",
          "type": "uint256"
        },
        {
          "internalType": "uint256",
          "name": "amountETH",
          "type": "uint256"
        }
      ],
      "stateMutability": "nonpayable",
      "type": "function"
    },
    {
      "inputs": [
        {
          "internalType": "address",
          "name": "tokenA",
          "type": "address"
        },
        {
          "internalType": "address",
          "name": "tokenB",
          "type": "address"
        },
        {
          "internalType": "uint256",
          "name": "liquidity",
          "type": "uint256"
        },
        {
          "internalType": "uint256",
          "name": "amountAMin",
          "type": "uint256"
        },
        {
          "internalType": "uint256",
          "name": "amountBMin",
          "type": "uint256"
        },
        {
          "internalType": "address",
          "name": "to",
          "type": "address"
        },
        {
          "internalType": "uint256",
          "name": "deadline",
          "type": "uint256"
        },
        {
          "internalType": "bool",
          "name": "approveMax",
          "type": "bool"
        },
        {
          "internalType": "uint8",
          "name": "v",
          "type": "uint8"
        },
        {
          "internalType": "bytes32",
          "name": "r",
          "type": "bytes32"
        },
        {
          "internalType": "bytes32",
          "name": "s",
          "type": "bytes32"
        }
      ],
      "name": "removeLiquidityWithPermit",
      "outputs": [
        {
          "internalType": "uint256",
          "name": "amountA",
          "type": "uint256"
        },
        {
          "internalType": "uint256",
          "name": "amountB",
          "type": "uint256"
        }
      ],
      "stateMutability": "nonpayable",
      "type": "function"
    },
    {
      "inputs": [
        {
          "internalType": "address",
          "name": "token",
          "type": "address"
        },
        {
          "internalType": "uint256",
          "name": "liquidity",
          "type": "uint256"
        },
        {
          "internalType": "uint256",
          "name": "amountTokenMin",
          "type": "uint256"
        },
        {
          "internalType": "uint256",
          "name": "amountETHMin",
          "type": "uint256"
        },
        {
          "internalType": "address",
          "name": "to",
          "type": "address"
        },
        {
          "internalType": "uint256",
          "name": "deadline",
          "type": "uint256"
        },
        {
          "internalType": "bool",
          "name": "approveMax",
          "type": "bool"
        },
        {
          "internalType": "uint8",
          "name": "v",
          "type": "uint8"
        },
        {
          "internalType": "bytes32",
          "name": "r",
          "type": "bytes32"
        },
        {
          "internalType": "bytes32",
          "name": "s",
          "type": "bytes32"
        }
      ],
      "name": "removeLiquidityETHWithPermit",
      "outputs": [
        {
          "internalType": "uint256",
          "name": "amountToken",
          "type": "uint256"
        },
        {
          "internalType": "uint256",
          "name": "amountETH",
          "type": "uint256"
        }
      ],
      "stateMutability": "nonpayable",
      "type": "function"
    },
    {
      "inputs": [
        {
          "internalType": "address",
          "name": "token",
          "type": "address"
        },
        {
          "internalType": "uint256",
          "name": "liquidity",
          "type": "uint256"
        },
        {
          "internalType": "uint256",
          "name": "amountTokenMin",
          "type": "uint256"
        },
        {
          "internalType": "uint256",
          "name": "amountETHMin",
          "type": "uint256"
        },
        {
          "internalType": "address",
          "name": "to",
          "type": "address"
        },
        {
          "internalType": "uint256",
          "name": "deadline",
          "type": "uint256"
        }
      ],
      "name": "removeLiquidityETHSupportingFeeOnTransferTokens",
      "outputs": [
        {
          "internalType": "uint256",
          "name": "amountETH",
          "type": "uint256"
        }
      ],
      "stateMutability": "nonpayable",
      "type": "function"
    },
    {
      "inputs": [
        {
          "internalType": "address",
          "name": "token",
          "type": "address"
        },
        {
          "internalType": "uint256",
          "name": "liquidity",
          "type": "uint256"
        },
        {
          "internalType": "uint256",
          "name": "amountTokenMin",
          "type": "uint256"
        },
        {
          "internalType": "uint256",
          "name": "amountETHMin",
          "type": "uint256"
        },
        {
          "internalType": "address",
          "name": "to",
          "type": "address"
        },
        {
          "internalType": "uint256",
          "name": "deadline",
          "type": "uint256"
        },
        {
          "internalType": "bool",
          "name": "approveMax",
          "type": "bool"
        },
        {
          "internalType": "uint8",
          "name": "v",
          "type": "uint8"
        },
        {
          "internalType": "bytes32",
          "name": "r",
          "type": "bytes32"
        },
        {
          "internalType": "bytes32",
          "name": "s",
          "type": "bytes32"
        }
      ],
      "name": "removeLiquidityETHWithPermitSupportingFeeOnTransferTokens",
      "outputs": [
        {
          "internalType": "uint256",
          "name": "amountETH",
          "type": "uint256"
        }
      ],
      "stateMutability": "nonpayable",
      "type": "function"
    },
    {
      "inputs": [
        {
          "internalType": "uint256",
          "name": "amountIn",
          "type": "uint256"
        },
        {
          "internalType": "uint256",
          "name": "amountOutMin",
          "type": "uint256"
        },
        {
          "internalType": "address[]",
          "name": "path",
          "type": "address[]"
        },
        {
          "internalType": "address",
          "name": "to",
          "type": "address"
        },
        {
          "internalType": "uint256",
          "name": "deadline",
          "type": "uint256"
        }
      ],
      "name": "swapExactTokensForTokens",
      "outputs": [
        {
          "internalType": "uint256[]",
          "name": "amounts",
          "type": "uint256[]"
        }
      ],
      "stateMutability": "nonpayable",
      "type": "function"
    },
    {
      "inputs": [
        {
          "internalType": "uint256",
          "name": "amountOut",
          "type": "uint256"
        },
        {
          "internalType": "uint256",
          "name": "amountInMax",
          "type": "uint256"
        },
        {
          "internalType": "address[]",
          "name": "path",
          "type": "address[]"
        },
        {
          "internalType": "address",
          "name": "to",
          "type": "address"
        },
        {
          "internalType": "uint256",
          "name": "deadline",
          "type": "uint256"
        }
      ],
      "name": "swapTokensForExactTokens",
      "outputs": [
        {
          "internalType": "uint256[]",
          "name": "amounts",
          "type": "uint256[]"
        }
      ],
      "stateMutability": "nonpayable",
      "type": "function"
    },
    {
      "inputs": [
        {
          "internalType": "uint256",
          "name": "amountOutMin",
          "type": "uint256"
        },
        {
          "internalType": "address[]",
          "name": "path",
          "type": "address[]"
        },
        {
          "internalType": "address",
          "name": "to",
          "type": "address"
        },
        {
          "internalType": "uint256",
          "name": "deadline",
          "type": "uint256"
        }
      ],
      "name": "swapExactETHForTokens",
      "outputs": [
        {
          "internalType": "uint256[]",
          "name": "amounts",
          "type": "uint256[]"
        }
      ],
      "stateMutability": "payable",
      "type": "function",
      "payable": true
    },
    {
      "inputs": [
        {
          "internalType": "uint256",
          "name": "amountOut",
          "type": "uint256"
        },
        {
          "internalType": "uint256",
          "name": "amountInMax",
          "type": "uint256"
        },
        {
          "internalType": "address[]",
          "name": "path",
          "type": "address[]"
        },
        {
          "internalType": "address",
          "name": "to",
          "type": "address"
        },
        {
          "internalType": "uint256",
          "name": "deadline",
          "type": "uint256"
        }
      ],
      "name": "swapTokensForExactETH",
      "outputs": [
        {
          "internalType": "uint256[]",
          "name": "amounts",
          "type": "uint256[]"
        }
      ],
      "stateMutability": "nonpayable",
      "type": "function"
    },
    {
      "inputs": [
        {
          "internalType": "uint256",
          "name": "amountIn",
          "type": "uint256"
        },
        {
          "internalType": "uint256",
          "name": "amountOutMin",
          "type": "uint256"
        },
        {
          "internalType": "address[]",
          "name": "path",
          "type": "address[]"
        },
        {
          "internalType": "address",
          "name": "to",
          "type": "address"
        },
        {
          "internalType": "uint256",
          "name": "deadline",
          "type": "uint256"
        }
      ],
      "name": "swapExactTokensForETH",
      "outputs": [
        {
          "internalType": "uint256[]",
          "name": "amounts",
          "type": "uint256[]"
        }
      ],
      "stateMutability": "nonpayable",
      "type": "function"
    },
    {
      "inputs": [
        {
          "internalType": "uint256",
          "name": "amountOut",
          "type": "uint256"
        },
        {
          "internalType": "address[]",
          "name": "path",
          "type": "address[]"
        },
        {
          "internalType": "address",
          "name": "to",
          "type": "address"
        },
        {
          "internalType": "uint256",
          "name": "deadline",
          "type": "uint256"
        }
      ],
      "name": "swapETHForExactTokens",
      "outputs": [
        {
          "internalType": "uint256[]",
          "name": "amounts",
          "type": "uint256[]"
        }
      ],
      "stateMutability": "payable",
      "type": "function",
      "payable": true
    },
    {
      "inputs": [
        {
          "internalType": "uint256",
          "name": "amountIn",
          "type": "uint256"
        },
        {
          "internalType": "uint256",
          "name": "amountOutMin",
          "type": "uint256"
        },
        {
          "internalType": "address[]",
          "name": "path",
          "type": "address[]"
        },
        {
          "internalType": "address",
          "name": "to",
          "type": "address"
        },
        {
          "internalType": "uint256",
          "name": "deadline",
          "type": "uint256"
        }
      ],
      "name": "swapExactTokensForTokensSupportingFeeOnTransferTokens",
      "outputs": [],
      "stateMutability": "nonpayable",
      "type": "function"
    },
    {
      "inputs": [
        {
          "internalType": "uint256",
          "name": "amountOutMin",
          "type": "uint256"
        },
        {
          "internalType": "address[]",
          "name": "path",
          "type": "address[]"
        },
        {
          "internalType": "address",
          "name": "to",
          "type": "address"
        },
        {
          "internalType": "uint256",
          "name": "deadline",
          "type": "uint256"
        }
      ],
      "name": "swapExactETHForTokensSupportingFeeOnTransferTokens",
      "outputs": [],
      "stateMutability": "payable",
      "type": "function",
      "payable": true
    },
    {
      "inputs": [
        {
          "internalType": "uint256",
          "name": "amountIn",
          "type": "uint256"
        },
        {
          "internalType": "uint256",
          "name": "amountOutMin",
          "type": "uint256"
        },
        {
          "internalType": "address[]",
          "name": "path",
          "type": "address[]"
        },
        {
          "internalType": "address",
          "name": "to",
          "type": "address"
        },
        {
          "internalType": "uint256",
          "name": "deadline",
          "type": "uint256"
        }
      ],
      "name": "swapExactTokensForETHSupportingFeeOnTransferTokens",
      "outputs": [],
      "stateMutability": "nonpayable",
      "type": "function"
    },
    {
      "inputs": [
        {
          "internalType": "uint256",
          "name": "amountA",
          "type": "uint256"
        },
        {
          "internalType": "uint256",
          "name": "reserveA",
          "type": "uint256"
        },
        {
          "internalType": "uint256",
          "name": "reserveB",
          "type": "uint256"
        }
      ],
      "name": "quote",
      "outputs": [
        {
          "internalType": "uint256",
          "name": "amountB",
          "type": "uint256"
        }
      ],
      "stateMutability": "pure",
      "type": "function",
      "constant": true
    },
    {
      "inputs": [
        {
          "internalType": "address",
          "name": "_factory",
          "type": "address"
        },
        {
          "internalType": "uint256",
          "name": "amountIn",
          "type": "uint256"
        },
        {
          "internalType": "uint256",
          "name": "reserveIn",
          "type": "uint256"
        },
        {
          "internalType": "uint256",
          "name": "reserveOut",
          "type": "uint256"
        }
      ],
      "name": "getAmountOut",
      "outputs": [
        {
          "internalType": "uint256",
          "name": "amountOut",
          "type": "uint256"
        }
      ],
      "stateMutability": "nonpayable",
      "type": "function"
    },
    {
      "inputs": [
        {
          "internalType": "address",
          "name": "_factory",
          "type": "address"
        },
        {
          "internalType": "uint256",
          "name": "amountOut",
          "type": "uint256"
        },
        {
          "internalType": "uint256",
          "name": "reserveIn",
          "type": "uint256"
        },
        {
          "internalType": "uint256",
          "name": "reserveOut",
          "type": "uint256"
        }
      ],
      "name": "getAmountIn",
      "outputs": [
        {
          "internalType": "uint256",
          "name": "amountIn",
          "type": "uint256"
        }
      ],
      "stateMutability": "nonpayable",
      "type": "function"
    },
    {
      "inputs": [
        {
          "internalType": "uint256",
          "name": "amountIn",
          "type": "uint256"
        },
        {
          "internalType": "address[]",
          "name": "path",
          "type": "address[]"
        }
      ],
      "name": "getAmountsOut",
      "outputs": [
        {
          "internalType": "uint256[]",
          "name": "amounts",
          "type": "uint256[]"
        }
      ],
      "stateMutability": "nonpayable",
      "type": "function"
    },
    {
      "inputs": [
        {
          "internalType": "uint256",
          "name": "amountOut",
          "type": "uint256"
        },
        {
          "internalType": "address[]",
          "name": "path",
          "type": "address[]"
        }
      ],
      "name": "getAmountsIn",
      "outputs": [
        {
          "internalType": "uint256[]",
          "name": "amounts",
          "type": "uint256[]"
        }
      ],
      "stateMutability": "nonpayable",
      "type": "function"
    }
  ],
  "bytecode": "0x60c06040523480156200001157600080fd5b506040516200576b3803806200576b833981810160405260408110156200003757600080fd5b5080516020909101516001600160601b0319606092831b8116608052911b1660a05260805160601c60a05160601c6155df6200018c600039806101ac5280610e955280610ed05280610ff852806112bb528061172c52806119265280611e4a5280611f895280612097528061219e528061235152806123e6528061268b528061273a5280612808528061290d52806129f55280612a7652806130ef528061340f52806134655280613499528061351a528061370852806138ce52806139635250806110ea52806111e8528061138e52806113c75280611572528061181e52806119045280611af15280612284528061242552806125ab5280612ab55280612db65280613074528061309d52806130cd52806132aa528061344352806137ee52806139a252806142a252806142e552806147b4528061491552806149a05280614f675280615054528061512e52506155df6000f3fe60806040526004361061018f5760003560e01c80638803dbee116100d6578063c45a01551161007f578063e8e3370011610059578063e8e3370014610ca9578063f305d71914610d36578063fb3bdb4114610d89576101d5565b8063c45a015514610b5d578063d06ca61f14610b72578063ded9382a14610c29576101d5565b8063af2979eb116100b0578063af2979eb14610a00578063b6f9de9514610a60578063baa2abde14610af3576101d5565b80638803dbee146108e7578063ad5c46481461098c578063ad615dec146109ca576101d5565b80634a25d94a1161013857806376a41c5c1161011257806376a41c5c1461075d578063791ac947146107af5780637ff36ab514610854576101d5565b80634a25d94a146105935780635b0d5984146106385780635c11d795146106b8576101d5565b80632195995c116101695780632195995c146103ff57806338ed17391461048a5780634327e8b51461052f576101d5565b806302751cec146101da57806318cbafe5146102535780631f00ca7414610348576101d5565b366101d5573373ffffffffffffffffffffffffffffffffffffffff7f000000000000000000000000000000000000000000000000000000000000000016146101d357fe5b005b600080fd5b3480156101e657600080fd5b5061023a600480360360c08110156101fd57600080fd5b5073ffffffffffffffffffffffffffffffffffffffff81358116916020810135916040820135916060810135916080820135169060a00135610e1c565b6040805192835260208301919091528051918290030190f35b34801561025f57600080fd5b506102f8600480360360a081101561027657600080fd5b81359160208101359181019060608101604082013564010000000081111561029d57600080fd5b8201836020820111156102af57600080fd5b803590602001918460208302840111640100000000831117156102d157600080fd5b919350915073ffffffffffffffffffffffffffffffffffffffff8135169060200135610f6f565b60408051602080825283518183015283519192839290830191858101910280838360005b8381101561033457818101518382015260200161031c565b505050509050019250505060405180910390f35b34801561035457600080fd5b506102f86004803603604081101561036b57600080fd5b8135919081019060408101602082013564010000000081111561038d57600080fd5b82018360208201111561039f57600080fd5b803590602001918460208302840111640100000000831117156103c157600080fd5b919080806020026020016040519081016040528093929190818152602001838360200280828437600092019190915250929550611387945050505050565b34801561040b57600080fd5b5061023a600480360361016081101561042357600080fd5b5073ffffffffffffffffffffffffffffffffffffffff8135811691602081013582169160408201359160608101359160808201359160a08101359091169060c08101359060e081013515159060ff61010082013516906101208101359061014001356113bd565b34801561049657600080fd5b506102f8600480360360a08110156104ad57600080fd5b8135916020810135918101906060810160408201356401000000008111156104d457600080fd5b8201836020820111156104e657600080fd5b8035906020019184602083028401116401000000008311171561050857600080fd5b919350915073ffffffffffffffffffffffffffffffffffffffff81351690602001356114fb565b34801561053b57600080fd5b506105816004803603608081101561055257600080fd5b5073ffffffffffffffffffffffffffffffffffffffff813516906020810135906040810135906060013561168c565b60408051918252519081900360200190f35b34801561059f57600080fd5b506102f8600480360360a08110156105b657600080fd5b8135916020810135918101906060810160408201356401000000008111156105dd57600080fd5b8201836020820111156105ef57600080fd5b8035906020019184602083028401116401000000008311171561061157600080fd5b919350915073ffffffffffffffffffffffffffffffffffffffff81351690602001356116a3565b34801561064457600080fd5b50610581600480360361014081101561065c57600080fd5b5073ffffffffffffffffffffffffffffffffffffffff81358116916020810135916040820135916060810135916080820135169060a08101359060c081013515159060ff60e082013516906101008101359061012001356118fc565b3480156106c457600080fd5b506101d3600480360360a08110156106db57600080fd5b81359160208101359181019060608101604082013564010000000081111561070257600080fd5b82018360208201111561071457600080fd5b8035906020019184602083028401116401000000008311171561073657600080fd5b919350915073ffffffffffffffffffffffffffffffffffffffff8135169060200135611a4e565b34801561076957600080fd5b506105816004803603608081101561078057600080fd5b5073ffffffffffffffffffffffffffffffffffffffff8135169060208101359060408101359060600135611db5565b3480156107bb57600080fd5b506101d3600480360360a08110156107d257600080fd5b8135916020810135918101906060810160408201356401000000008111156107f957600080fd5b82018360208201111561080b57600080fd5b8035906020019184602083028401116401000000008311171561082d57600080fd5b919350915073ffffffffffffffffffffffffffffffffffffffff8135169060200135611dc3565b6102f86004803603608081101561086a57600080fd5b8135919081019060408101602082013564010000000081111561088c57600080fd5b82018360208201111561089e57600080fd5b803590602001918460208302840111640100000000831117156108c057600080fd5b919350915073ffffffffffffffffffffffffffffffffffffffff813516906020013561212a565b3480156108f357600080fd5b506102f8600480360360a081101561090a57600080fd5b81359160208101359181019060608101604082013564010000000081111561093157600080fd5b82018360208201111561094357600080fd5b8035906020019184602083028401116401000000008311171561096557600080fd5b919350915073ffffffffffffffffffffffffffffffffffffffff8135169060200135612534565b34801561099857600080fd5b506109a1612689565b6040805173ffffffffffffffffffffffffffffffffffffffff9092168252519081900360200190f35b3480156109d657600080fd5b50610581600480360360608110156109ed57600080fd5b50803590602081013590604001356126ad565b348015610a0c57600080fd5b50610581600480360360c0811015610a2357600080fd5b5073ffffffffffffffffffffffffffffffffffffffff81358116916020810135916040820135916060810135916080820135169060a001356126c2565b6101d360048036036080811015610a7657600080fd5b81359190810190604081016020820135640100000000811115610a9857600080fd5b820183602082011115610aaa57600080fd5b80359060200191846020830284011164010000000083111715610acc57600080fd5b919350915073ffffffffffffffffffffffffffffffffffffffff813516906020013561289b565b348015610aff57600080fd5b5061023a600480360360e0811015610b1657600080fd5b5073ffffffffffffffffffffffffffffffffffffffff8135811691602081013582169160408201359160608101359160808201359160a08101359091169060c00135612d3c565b348015610b6957600080fd5b506109a1613072565b348015610b7e57600080fd5b506102f860048036036040811015610b9557600080fd5b81359190810190604081016020820135640100000000811115610bb757600080fd5b820183602082011115610bc957600080fd5b80359060200191846020830284011164010000000083111715610beb57600080fd5b919080806020026020016040519081016040528093929190818152602001838360200280828437600092019190915250929550613096945050505050565b348015610c3557600080fd5b5061023a6004803603610140811015610c4d57600080fd5b5073ffffffffffffffffffffffffffffffffffffffff81358116916020810135916040820135916060810135916080820135169060a08101359060c081013515159060ff60e082013516906101008101359061012001356130c3565b348015610cb557600080fd5b50610d186004803603610100811015610ccd57600080fd5b5073ffffffffffffffffffffffffffffffffffffffff8135811691602081013582169160408201359160608101359160808201359160a08101359160c0820135169060e0013561321b565b60408051938452602084019290925282820152519081900360600190f35b610d18600480360360c0811015610d4c57600080fd5b5073ffffffffffffffffffffffffffffffffffffffff81358116916020810135916040820135916060810135916080820135169060a00135613394565b6102f860048036036080811015610d9f57600080fd5b81359190810190604081016020820135640100000000811115610dc157600080fd5b820183602082011115610dd357600080fd5b80359060200191846020830284011164010000000083111715610df557600080fd5b919350915073ffffffffffffffffffffffffffffffffffffffff8135169060200135613694565b6000808242811015610e8f57604080517f08c379a000000000000000000000000000000000000000000000000000000000815260206004820152601160248201527f526f7574657256323a2045585049524544000000000000000000000000000000604482015290519081900360640190fd5b610ebe897f00000000000000000000000000000000000000000000000000000000000000008a8a8a308a612d3c565b9093509150610ece898685613ae3565b7f000000000000000000000000000000000000000000000000000000000000000073ffffffffffffffffffffffffffffffffffffffff16632e1a7d4d836040518263ffffffff1660e01b815260040180828152602001915050600060405180830381600087803b158015610f4157600080fd5b505af1158015610f55573d6000803e3d6000fd5b50505050610f638583613caa565b50965096945050505050565b60608142811015610fe157604080517f08c379a000000000000000000000000000000000000000000000000000000000815260206004820152601160248201527f526f7574657256323a2045585049524544000000000000000000000000000000604482015290519081900360640190fd5b73ffffffffffffffffffffffffffffffffffffffff7f00000000000000000000000000000000000000000000000000000000000000001686867fffffffffffffffffffffffffffffffffffffffffffffffffffffffffffffffff810181811061104657fe5b9050602002013573ffffffffffffffffffffffffffffffffffffffff1673ffffffffffffffffffffffffffffffffffffffff16146110e557604080517f08c379a000000000000000000000000000000000000000000000000000000000815260206004820152601660248201527f526f7574657256323a20494e56414c49445f5041544800000000000000000000604482015290519081900360640190fd5b6111437f000000000000000000000000000000000000000000000000000000000000000089888880806020026020016040519081016040528093929190818152602001838360200280828437600092019190915250613de792505050565b9150868260018451038151811061115657fe5b602002602001015110156111b5576040517f08c379a000000000000000000000000000000000000000000000000000000000815260040180806020018281038252602481526020018061550f6024913960400191505060405180910390fd5b61127a868660008181106111c557fe5b9050602002013573ffffffffffffffffffffffffffffffffffffffff16336112607f00000000000000000000000000000000000000000000000000000000000000008a8a600081811061121457fe5b9050602002013573ffffffffffffffffffffffffffffffffffffffff168b8b600181811061123e57fe5b9050602002013573ffffffffffffffffffffffffffffffffffffffff16613f4e565b8560008151811061126d57fe5b6020026020010151614009565b6112b9828787808060200260200160405190810160405280939291908181526020018383602002808284376000920191909152503092506141d9915050565b7f000000000000000000000000000000000000000000000000000000000000000073ffffffffffffffffffffffffffffffffffffffff16632e1a7d4d8360018551038151811061130557fe5b60200260200101516040518263ffffffff1660e01b815260040180828152602001915050600060405180830381600087803b15801561134357600080fd5b505af1158015611357573d6000803e3d6000fd5b5050505061137c848360018551038151811061136f57fe5b6020026020010151613caa565b509695505050505050565b60606113b47f0000000000000000000000000000000000000000000000000000000000000000848461444a565b90505b92915050565b60008060006113ed7f00000000000000000000000000000000000000000000000000000000000000008f8f613f4e565b90506000876113fc578c61141e565b7fffffffffffffffffffffffffffffffffffffffffffffffffffffffffffffffff5b604080517fd505accf00000000000000000000000000000000000000000000000000000000815233600482015230602482015260448101839052606481018c905260ff8a16608482015260a4810189905260c48101889052905191925073ffffffffffffffffffffffffffffffffffffffff84169163d505accf9160e48082019260009290919082900301818387803b1580156114ba57600080fd5b505af11580156114ce573d6000803e3d6000fd5b505050506114e18f8f8f8f8f8f8f612d3c565b809450819550505050509b509b9950505050505050505050565b6060814281101561156d57604080517f08c379a000000000000000000000000000000000000000000000000000000000815260206004820152601160248201527f526f7574657256323a2045585049524544000000000000000000000000000000604482015290519081900360640190fd5b6115cb7f000000000000000000000000000000000000000000000000000000000000000089888880806020026020016040519081016040528093929190818152602001838360200280828437600092019190915250613de792505050565b915086826001845103815181106115de57fe5b6020026020010151101561163d576040517f08c379a000000000000000000000000000000000000000000000000000000000815260040180806020018281038252602481526020018061550f6024913960400191505060405180910390fd5b61164d868660008181106111c557fe5b61137c828787808060200260200160405190810160405280939291908181526020018383602002808284376000920191909152508992506141d9915050565b600061169a858585856145d9565b95945050505050565b6060814281101561171557604080517f08c379a000000000000000000000000000000000000000000000000000000000815260206004820152601160248201527f526f7574657256323a2045585049524544000000000000000000000000000000604482015290519081900360640190fd5b73ffffffffffffffffffffffffffffffffffffffff7f00000000000000000000000000000000000000000000000000000000000000001686867fffffffffffffffffffffffffffffffffffffffffffffffffffffffffffffffff810181811061177a57fe5b9050602002013573ffffffffffffffffffffffffffffffffffffffff1673ffffffffffffffffffffffffffffffffffffffff161461181957604080517f08c379a000000000000000000000000000000000000000000000000000000000815260206004820152601660248201527f526f7574657256323a20494e56414c49445f5041544800000000000000000000604482015290519081900360640190fd5b6118777f00000000000000000000000000000000000000000000000000000000000000008988888080602002602001604051908101604052809392919081815260200183836020028082843760009201919091525061444a92505050565b9150868260008151811061188757fe5b602002602001015111156111b557604080517f08c379a000000000000000000000000000000000000000000000000000000000815260206004820181905260248201527f526f7574657256323a204558434553534956455f494e5055545f414d4f554e54604482015290519081900360640190fd5b60008061194a7f00000000000000000000000000000000000000000000000000000000000000008d7f0000000000000000000000000000000000000000000000000000000000000000613f4e565b9050600086611959578b61197b565b7fffffffffffffffffffffffffffffffffffffffffffffffffffffffffffffffff5b604080517fd505accf00000000000000000000000000000000000000000000000000000000815233600482015230602482015260448101839052606481018b905260ff8916608482015260a4810188905260c48101879052905191925073ffffffffffffffffffffffffffffffffffffffff84169163d505accf9160e48082019260009290919082900301818387803b158015611a1757600080fd5b505af1158015611a2b573d6000803e3d6000fd5b50505050611a3d8d8d8d8d8d8d6126c2565b9d9c50505050505050505050505050565b8042811015611abe57604080517f08c379a000000000000000000000000000000000000000000000000000000000815260206004820152601160248201527f526f7574657256323a2045585049524544000000000000000000000000000000604482015290519081900360640190fd5b611b4d85856000818110611ace57fe5b9050602002013573ffffffffffffffffffffffffffffffffffffffff1633611b477f000000000000000000000000000000000000000000000000000000000000000089896000818110611b1d57fe5b9050602002013573ffffffffffffffffffffffffffffffffffffffff168a8a600181811061123e57fe5b8a614009565b600085857fffffffffffffffffffffffffffffffffffffffffffffffffffffffffffffffff8101818110611b7d57fe5b9050602002013573ffffffffffffffffffffffffffffffffffffffff1673ffffffffffffffffffffffffffffffffffffffff166370a08231856040518263ffffffff1660e01b8152600401808273ffffffffffffffffffffffffffffffffffffffff16815260200191505060206040518083038186803b158015611c0057600080fd5b505afa158015611c14573d6000803e3d6000fd5b505050506040513d6020811015611c2a57600080fd5b50516040805160208881028281018201909352888252929350611c6c92909189918991829185019084908082843760009201919091525088925061475d915050565b86611d548288887fffffffffffffffffffffffffffffffffffffffffffffffffffffffffffffffff8101818110611c9f57fe5b9050602002013573ffffffffffffffffffffffffffffffffffffffff1673ffffffffffffffffffffffffffffffffffffffff166370a08231886040518263ffffffff1660e01b8152600401808273ffffffffffffffffffffffffffffffffffffffff16815260200191505060206040518083038186803b158015611d2257600080fd5b505afa158015611d36573d6000803e3d6000fd5b505050506040513d6020811015611d4c57600080fd5b505190614afb565b1015611dab576040517f08c379a000000000000000000000000000000000000000000000000000000000815260040180806020018281038252602481526020018061550f6024913960400191505060405180910390fd5b5050505050505050565b600061169a85858585614b6d565b8042811015611e3357604080517f08c379a000000000000000000000000000000000000000000000000000000000815260206004820152601160248201527f526f7574657256323a2045585049524544000000000000000000000000000000604482015290519081900360640190fd5b73ffffffffffffffffffffffffffffffffffffffff7f00000000000000000000000000000000000000000000000000000000000000001685857fffffffffffffffffffffffffffffffffffffffffffffffffffffffffffffffff8101818110611e9857fe5b9050602002013573ffffffffffffffffffffffffffffffffffffffff1673ffffffffffffffffffffffffffffffffffffffff1614611f3757604080517f08c379a000000000000000000000000000000000000000000000000000000000815260206004820152601660248201527f526f7574657256323a20494e56414c49445f5041544800000000000000000000604482015290519081900360640190fd5b611f4785856000818110611ace57fe5b611f8585858080602002602001604051908101604052809392919081815260200183836020028082843760009201919091525030925061475d915050565b60007f000000000000000000000000000000000000000000000000000000000000000073ffffffffffffffffffffffffffffffffffffffff166370a08231306040518263ffffffff1660e01b8152600401808273ffffffffffffffffffffffffffffffffffffffff16815260200191505060206040518083038186803b15801561200e57600080fd5b505afa158015612022573d6000803e3d6000fd5b505050506040513d602081101561203857600080fd5b5051905086811015612095576040517f08c379a000000000000000000000000000000000000000000000000000000000815260040180806020018281038252602481526020018061550f6024913960400191505060405180910390fd5b7f000000000000000000000000000000000000000000000000000000000000000073ffffffffffffffffffffffffffffffffffffffff16632e1a7d4d826040518263ffffffff1660e01b815260040180828152602001915050600060405180830381600087803b15801561210857600080fd5b505af115801561211c573d6000803e3d6000fd5b50505050611dab8482613caa565b6060814281101561219c57604080517f08c379a000000000000000000000000000000000000000000000000000000000815260206004820152601160248201527f526f7574657256323a2045585049524544000000000000000000000000000000604482015290519081900360640190fd5b7f000000000000000000000000000000000000000000000000000000000000000073ffffffffffffffffffffffffffffffffffffffff16868660008181106121e057fe5b9050602002013573ffffffffffffffffffffffffffffffffffffffff1673ffffffffffffffffffffffffffffffffffffffff161461227f57604080517f08c379a000000000000000000000000000000000000000000000000000000000815260206004820152601660248201527f526f7574657256323a20494e56414c49445f5041544800000000000000000000604482015290519081900360640190fd5b6122dd7f000000000000000000000000000000000000000000000000000000000000000034888880806020026020016040519081016040528093929190818152602001838360200280828437600092019190915250613de792505050565b915086826001845103815181106122f057fe5b6020026020010151101561234f576040517f08c379a000000000000000000000000000000000000000000000000000000000815260040180806020018281038252602481526020018061550f6024913960400191505060405180910390fd5b7f000000000000000000000000000000000000000000000000000000000000000073ffffffffffffffffffffffffffffffffffffffff1663d0e30db08360008151811061239857fe5b60200260200101516040518263ffffffff1660e01b81526004016000604051808303818588803b1580156123cb57600080fd5b505af11580156123df573d6000803e3d6000fd5b50505050507f000000000000000000000000000000000000000000000000000000000000000073ffffffffffffffffffffffffffffffffffffffff1663a9059cbb6124517f000000000000000000000000000000000000000000000000000000000000000089896000818110611b1d57fe5b8460008151811061245e57fe5b60200260200101516040518363ffffffff1660e01b8152600401808373ffffffffffffffffffffffffffffffffffffffff16815260200182815260200192505050602060405180830381600087803b1580156124b957600080fd5b505af11580156124cd573d6000803e3d6000fd5b505050506040513d60208110156124e357600080fd5b50516124eb57fe5b61252a828787808060200260200160405190810160405280939291908181526020018383602002808284376000920191909152508992506141d9915050565b5095945050505050565b606081428110156125a657604080517f08c379a000000000000000000000000000000000000000000000000000000000815260206004820152601160248201527f526f7574657256323a2045585049524544000000000000000000000000000000604482015290519081900360640190fd5b6126047f00000000000000000000000000000000000000000000000000000000000000008988888080602002602001604051908101604052809392919081815260200183836020028082843760009201919091525061444a92505050565b9150868260008151811061261457fe5b6020026020010151111561163d57604080517f08c379a000000000000000000000000000000000000000000000000000000000815260206004820181905260248201527f526f7574657256323a204558434553534956455f494e5055545f414d4f554e54604482015290519081900360640190fd5b7f000000000000000000000000000000000000000000000000000000000000000081565b60006126ba848484614cf1565b949350505050565b6000814281101561273457604080517f08c379a000000000000000000000000000000000000000000000000000000000815260206004820152601160248201527f526f7574657256323a2045585049524544000000000000000000000000000000604482015290519081900360640190fd5b612763887f00000000000000000000000000000000000000000000000000000000000000008989893089612d3c565b90508092505061280688858a73ffffffffffffffffffffffffffffffffffffffff166370a08231306040518263ffffffff1660e01b8152600401808273ffffffffffffffffffffffffffffffffffffffff16815260200191505060206040518083038186803b1580156127d557600080fd5b505afa1580156127e9573d6000803e3d6000fd5b505050506040513d60208110156127ff57600080fd5b5051613ae3565b7f000000000000000000000000000000000000000000000000000000000000000073ffffffffffffffffffffffffffffffffffffffff16632e1a7d4d836040518263ffffffff1660e01b815260040180828152602001915050600060405180830381600087803b15801561287957600080fd5b505af115801561288d573d6000803e3d6000fd5b5050505061137c8483613caa565b804281101561290b57604080517f08c379a000000000000000000000000000000000000000000000000000000000815260206004820152601160248201527f526f7574657256323a2045585049524544000000000000000000000000000000604482015290519081900360640190fd5b7f000000000000000000000000000000000000000000000000000000000000000073ffffffffffffffffffffffffffffffffffffffff168585600081811061294f57fe5b9050602002013573ffffffffffffffffffffffffffffffffffffffff1673ffffffffffffffffffffffffffffffffffffffff16146129ee57604080517f08c379a000000000000000000000000000000000000000000000000000000000815260206004820152601660248201527f526f7574657256323a20494e56414c49445f5041544800000000000000000000604482015290519081900360640190fd5b60003490507f000000000000000000000000000000000000000000000000000000000000000073ffffffffffffffffffffffffffffffffffffffff1663d0e30db0826040518263ffffffff1660e01b81526004016000604051808303818588803b158015612a5b57600080fd5b505af1158015612a6f573d6000803e3d6000fd5b50505050507f000000000000000000000000000000000000000000000000000000000000000073ffffffffffffffffffffffffffffffffffffffff1663a9059cbb612ae17f000000000000000000000000000000000000000000000000000000000000000089896000818110611b1d57fe5b836040518363ffffffff1660e01b8152600401808373ffffffffffffffffffffffffffffffffffffffff16815260200182815260200192505050602060405180830381600087803b158015612b3557600080fd5b505af1158015612b49573d6000803e3d6000fd5b505050506040513d6020811015612b5f57600080fd5b5051612b6757fe5b600086867fffffffffffffffffffffffffffffffffffffffffffffffffffffffffffffffff8101818110612b9757fe5b9050602002013573ffffffffffffffffffffffffffffffffffffffff1673ffffffffffffffffffffffffffffffffffffffff166370a08231866040518263ffffffff1660e01b8152600401808273ffffffffffffffffffffffffffffffffffffffff16815260200191505060206040518083038186803b158015612c1a57600080fd5b505afa158015612c2e573d6000803e3d6000fd5b505050506040513d6020811015612c4457600080fd5b50516040805160208981028281018201909352898252929350612c869290918a918a91829185019084908082843760009201919091525089925061475d915050565b87611d548289897fffffffffffffffffffffffffffffffffffffffffffffffffffffffffffffffff8101818110612cb957fe5b9050602002013573ffffffffffffffffffffffffffffffffffffffff1673ffffffffffffffffffffffffffffffffffffffff166370a08231896040518263ffffffff1660e01b8152600401808273ffffffffffffffffffffffffffffffffffffffff16815260200191505060206040518083038186803b158015611d2257600080fd5b6000808242811015612daf57604080517f08c379a000000000000000000000000000000000000000000000000000000000815260206004820152601160248201527f526f7574657256323a2045585049524544000000000000000000000000000000604482015290519081900360640190fd5b6000612ddc7f00000000000000000000000000000000000000000000000000000000000000008c8c613f4e565b604080517f23b872dd00000000000000000000000000000000000000000000000000000000815233600482015273ffffffffffffffffffffffffffffffffffffffff831660248201819052604482018d9052915192935090916323b872dd916064808201926020929091908290030181600087803b158015612e5d57600080fd5b505af1158015612e71573d6000803e3d6000fd5b505050506040513d6020811015612e8757600080fd5b5050604080517f89afcb4400000000000000000000000000000000000000000000000000000000815273ffffffffffffffffffffffffffffffffffffffff888116600483015282516000938493928616926389afcb44926024808301939282900301818787803b158015612efa57600080fd5b505af1158015612f0e573d6000803e3d6000fd5b505050506040513d6040811015612f2457600080fd5b50805160209091015190925090506000612f3e8e8e614de1565b5090508073ffffffffffffffffffffffffffffffffffffffff168e73ffffffffffffffffffffffffffffffffffffffff1614612f7b578183612f7e565b82825b90975095508a871015612ff257604080517f08c379a000000000000000000000000000000000000000000000000000000000815260206004820152601f60248201527f526f7574657256323a20494e53554646494349454e545f415f414d4f554e5400604482015290519081900360640190fd5b8986101561306157604080517f08c379a000000000000000000000000000000000000000000000000000000000815260206004820152601f60248201527f526f7574657256323a20494e53554646494349454e545f425f414d4f554e5400604482015290519081900360640190fd5b505050505097509795505050505050565b7f000000000000000000000000000000000000000000000000000000000000000081565b60606113b47f00000000000000000000000000000000000000000000000000000000000000008484613de7565b60008060006131137f00000000000000000000000000000000000000000000000000000000000000008e7f0000000000000000000000000000000000000000000000000000000000000000613f4e565b9050600087613122578c613144565b7fffffffffffffffffffffffffffffffffffffffffffffffffffffffffffffffff5b604080517fd505accf00000000000000000000000000000000000000000000000000000000815233600482015230602482015260448101839052606481018c905260ff8a16608482015260a4810189905260c48101889052905191925073ffffffffffffffffffffffffffffffffffffffff84169163d505accf9160e48082019260009290919082900301818387803b1580156131e057600080fd5b505af11580156131f4573d6000803e3d6000fd5b505050506132068e8e8e8e8e8e610e1c565b909f909e509c50505050505050505050505050565b6000806000834281101561329057604080517f08c379a000000000000000000000000000000000000000000000000000000000815260206004820152601160248201527f526f7574657256323a2045585049524544000000000000000000000000000000604482015290519081900360640190fd5b61329e8c8c8c8c8c8c614f4a565b909450925060006132d07f00000000000000000000000000000000000000000000000000000000000000008e8e613f4e565b90506132de8d338388614009565b6132ea8c338387614009565b8073ffffffffffffffffffffffffffffffffffffffff16636a627842886040518263ffffffff1660e01b8152600401808273ffffffffffffffffffffffffffffffffffffffff168152602001915050602060405180830381600087803b15801561335357600080fd5b505af1158015613367573d6000803e3d6000fd5b505050506040513d602081101561337d57600080fd5b5051949d939c50939a509198505050505050505050565b6000806000834281101561340957604080517f08c379a000000000000000000000000000000000000000000000000000000000815260206004820152601160248201527f526f7574657256323a2045585049524544000000000000000000000000000000604482015290519081900360640190fd5b6134378a7f00000000000000000000000000000000000000000000000000000000000000008b348c8c614f4a565b909450925060006134897f00000000000000000000000000000000000000000000000000000000000000008c7f0000000000000000000000000000000000000000000000000000000000000000613f4e565b90506134978b338388614009565b7f000000000000000000000000000000000000000000000000000000000000000073ffffffffffffffffffffffffffffffffffffffff1663d0e30db0856040518263ffffffff1660e01b81526004016000604051808303818588803b1580156134ff57600080fd5b505af1158015613513573d6000803e3d6000fd5b50505050507f000000000000000000000000000000000000000000000000000000000000000073ffffffffffffffffffffffffffffffffffffffff1663a9059cbb82866040518363ffffffff1660e01b8152600401808373ffffffffffffffffffffffffffffffffffffffff16815260200182815260200192505050602060405180830381600087803b1580156135a957600080fd5b505af11580156135bd573d6000803e3d6000fd5b505050506040513d60208110156135d357600080fd5b50516135db57fe5b8073ffffffffffffffffffffffffffffffffffffffff16636a627842886040518263ffffffff1660e01b8152600401808273ffffffffffffffffffffffffffffffffffffffff168152602001915050602060405180830381600087803b15801561364457600080fd5b505af1158015613658573d6000803e3d6000fd5b505050506040513d602081101561366e57600080fd5b50519250348410156136865761368633853403613caa565b505096509650969350505050565b6060814281101561370657604080517f08c379a000000000000000000000000000000000000000000000000000000000815260206004820152601160248201527f526f7574657256323a2045585049524544000000000000000000000000000000604482015290519081900360640190fd5b7f000000000000000000000000000000000000000000000000000000000000000073ffffffffffffffffffffffffffffffffffffffff168686600081811061374a57fe5b9050602002013573ffffffffffffffffffffffffffffffffffffffff1673ffffffffffffffffffffffffffffffffffffffff16146137e957604080517f08c379a000000000000000000000000000000000000000000000000000000000815260206004820152601660248201527f526f7574657256323a20494e56414c49445f5041544800000000000000000000604482015290519081900360640190fd5b6138477f00000000000000000000000000000000000000000000000000000000000000008888888080602002602001604051908101604052809392919081815260200183836020028082843760009201919091525061444a92505050565b9150348260008151811061385757fe5b602002602001015111156138cc57604080517f08c379a000000000000000000000000000000000000000000000000000000000815260206004820181905260248201527f526f7574657256323a204558434553534956455f494e5055545f414d4f554e54604482015290519081900360640190fd5b7f000000000000000000000000000000000000000000000000000000000000000073ffffffffffffffffffffffffffffffffffffffff1663d0e30db08360008151811061391557fe5b60200260200101516040518263ffffffff1660e01b81526004016000604051808303818588803b15801561394857600080fd5b505af115801561395c573d6000803e3d6000fd5b50505050507f000000000000000000000000000000000000000000000000000000000000000073ffffffffffffffffffffffffffffffffffffffff1663a9059cbb6139ce7f000000000000000000000000000000000000000000000000000000000000000089896000818110611b1d57fe5b846000815181106139db57fe5b60200260200101516040518363ffffffff1660e01b8152600401808373ffffffffffffffffffffffffffffffffffffffff16815260200182815260200192505050602060405180830381600087803b158015613a3657600080fd5b505af1158015613a4a573d6000803e3d6000fd5b505050506040513d6020811015613a6057600080fd5b5051613a6857fe5b613aa7828787808060200260200160405190810160405280939291908181526020018383602002808284376000920191909152508992506141d9915050565b81600081518110613ab457fe5b602002602001015134111561252a5761252a3383600081518110613ad457fe5b60200260200101513403613caa565b6040805173ffffffffffffffffffffffffffffffffffffffff8481166024830152604480830185905283518084039091018152606490920183526020820180517bffffffffffffffffffffffffffffffffffffffffffffffffffffffff167fa9059cbb00000000000000000000000000000000000000000000000000000000178152925182516000946060949389169392918291908083835b60208310613bb957805182527fffffffffffffffffffffffffffffffffffffffffffffffffffffffffffffffe09092019160209182019101613b7c565b6001836020036101000a0380198251168184511680821785525050505050509050019150506000604051808303816000865af19150503d8060008114613c1b576040519150601f19603f3d011682016040523d82523d6000602084013e613c20565b606091505b5091509150818015613c4e575080511580613c4e5750808060200190516020811015613c4b57600080fd5b50515b613ca3576040517f08c379a000000000000000000000000000000000000000000000000000000000815260040180806020018281038252602d81526020018061555a602d913960400191505060405180910390fd5b5050505050565b6040805160008082526020820190925273ffffffffffffffffffffffffffffffffffffffff84169083906040518082805190602001908083835b60208310613d2157805182527fffffffffffffffffffffffffffffffffffffffffffffffffffffffffffffffe09092019160209182019101613ce4565b6001836020036101000a03801982511681845116808217855250505050505090500191505060006040518083038185875af1925050503d8060008114613d83576040519150601f19603f3d011682016040523d82523d6000602084013e613d88565b606091505b5050905080613de2576040517f08c379a00000000000000000000000000000000000000000000000000000000081526004018080602001828103825260348152602001806154b56034913960400191505060405180910390fd5b505050565b6060600282511015613e5a57604080517f08c379a000000000000000000000000000000000000000000000000000000000815260206004820152601960248201527f4d61696e4c6962726172793a20494e56414c49445f5041544800000000000000604482015290519081900360640190fd5b815167ffffffffffffffff81118015613e7257600080fd5b50604051908082528060200260200182016040528015613e9c578160200160208202803683370190505b5090508281600081518110613ead57fe5b60200260200101818152505060005b6001835103811015613f4657600080613eff87868581518110613edb57fe5b6020026020010151878660010181518110613ef257fe5b60200260200101516152a3565b91509150613f2287858581518110613f1357fe5b602002602001015184846145d9565b848460010181518110613f3157fe5b60209081029190910101525050600101613ebc565b509392505050565b60008373ffffffffffffffffffffffffffffffffffffffff1663e6a4390584846040518363ffffffff1660e01b8152600401808373ffffffffffffffffffffffffffffffffffffffff1681526020018273ffffffffffffffffffffffffffffffffffffffff1681526020019250505060206040518083038186803b158015613fd557600080fd5b505afa158015613fe9573d6000803e3d6000fd5b505050506040513d6020811015613fff57600080fd5b5051949350505050565b6040805173ffffffffffffffffffffffffffffffffffffffff85811660248301528481166044830152606480830185905283518084039091018152608490920183526020820180517bffffffffffffffffffffffffffffffffffffffffffffffffffffffff167f23b872dd0000000000000000000000000000000000000000000000000000000017815292518251600094606094938a169392918291908083835b602083106140e757805182527fffffffffffffffffffffffffffffffffffffffffffffffffffffffffffffffe090920191602091820191016140aa565b6001836020036101000a0380198251168184511680821785525050505050509050019150506000604051808303816000865af19150503d8060008114614149576040519150601f19603f3d011682016040523d82523d6000602084013e61414e565b606091505b509150915081801561417c57508051158061417c575080806020019051602081101561417957600080fd5b50515b6141d1576040517f08c379a00000000000000000000000000000000000000000000000000000000081526004018080602001828103825260318152602001806154846031913960400191505060405180910390fd5b505050505050565b60005b6001835103811015614444576000808483815181106141f757fe5b602002602001015185846001018151811061420e57fe5b60200260200101519150915060006142268383614de1565b509050600087856001018151811061423a57fe5b602002602001015190506000808373ffffffffffffffffffffffffffffffffffffffff168673ffffffffffffffffffffffffffffffffffffffff161461428257826000614286565b6000835b91509150600060028a5103881061429d57886142de565b6142de7f0000000000000000000000000000000000000000000000000000000000000000878c8b600201815181106142d157fe5b6020026020010151613f4e565b905061430b7f00000000000000000000000000000000000000000000000000000000000000008888613f4e565b73ffffffffffffffffffffffffffffffffffffffff1663022c0d9f84848460006040519080825280601f01601f191660200182016040528015614355576020820181803683370190505b506040518563ffffffff1660e01b8152600401808581526020018481526020018373ffffffffffffffffffffffffffffffffffffffff16815260200180602001828103825283818151815260200191508051906020019080838360005b838110156143ca5781810151838201526020016143b2565b50505050905090810190601f1680156143f75780820380516001836020036101000a031916815260200191505b5095505050505050600060405180830381600087803b15801561441957600080fd5b505af115801561442d573d6000803e3d6000fd5b5050600190990198506141dc975050505050505050565b50505050565b60606002825110156144bd57604080517f08c379a000000000000000000000000000000000000000000000000000000000815260206004820152601960248201527f4d61696e4c6962726172793a20494e56414c49445f5041544800000000000000604482015290519081900360640190fd5b815167ffffffffffffffff811180156144d557600080fd5b506040519080825280602002602001820160405280156144ff578160200160208202803683370190505b509050828160018351038151811061451357fe5b602090810291909101015281517fffffffffffffffffffffffffffffffffffffffffffffffffffffffffffffffff015b8015613f46576000806145738786600186038151811061455f57fe5b6020026020010151878681518110613ef257fe5b915091506145968785858151811061458757fe5b60200260200101518484614b6d565b8460018503815181106145a557fe5b602090810291909101015250507fffffffffffffffffffffffffffffffffffffffffffffffffffffffffffffffff01614543565b6000808411614633576040517f08c379a00000000000000000000000000000000000000000000000000000000081526004018080602001828103825260268152602001806154e96026913960400191505060405180910390fd5b6000831180156146435750600082115b614698576040517f08c379a00000000000000000000000000000000000000000000000000000000081526004018080602001828103825260238152602001806155876023913960400191505060405180910390fd5b60008573ffffffffffffffffffffffffffffffffffffffff16631df4ccfc6040518163ffffffff1660e01b8152600401602060405180830381600087803b1580156146e257600080fd5b505af11580156146f6573d6000803e3d6000fd5b505050506040513d602081101561470c57600080fd5b50519050600061471c868361538b565b9050600061472a828661538b565b905060006147448361473e896103e861538b565b90615411565b905080828161474f57fe5b049998505050505050505050565b60005b6001835103811015613de25760008084838151811061477b57fe5b602002602001015185846001018151811061479257fe5b60200260200101519150915060006147aa8383614de1565b50905060006147da7f00000000000000000000000000000000000000000000000000000000000000008585613f4e565b90506000806000808473ffffffffffffffffffffffffffffffffffffffff16630902f1ac6040518163ffffffff1660e01b815260040160606040518083038186803b15801561482857600080fd5b505afa15801561483c573d6000803e3d6000fd5b505050506040513d606081101561485257600080fd5b5080516020909101516dffffffffffffffffffffffffffff918216935016905060008073ffffffffffffffffffffffffffffffffffffffff8a81169089161461489c57828461489f565b83835b9150915061490e828b73ffffffffffffffffffffffffffffffffffffffff166370a082318a6040518263ffffffff1660e01b8152600401808273ffffffffffffffffffffffffffffffffffffffff16815260200191505060206040518083038186803b158015611d2257600080fd5b955061493c7f00000000000000000000000000000000000000000000000000000000000000008784846145d9565b9450505050506000808573ffffffffffffffffffffffffffffffffffffffff168873ffffffffffffffffffffffffffffffffffffffff161461498057826000614984565b6000835b91509150600060028c51038a1061499b578a6149cf565b6149cf7f0000000000000000000000000000000000000000000000000000000000000000898e8d600201815181106142d157fe5b60408051600080825260208201928390527f022c0d9f000000000000000000000000000000000000000000000000000000008352602482018781526044830187905273ffffffffffffffffffffffffffffffffffffffff8086166064850152608060848501908152845160a48601819052969750908c169563022c0d9f958a958a958a9591949193919260c486019290918190849084905b83811015614a7f578181015183820152602001614a67565b50505050905090810190601f168015614aac5780820380516001836020036101000a031916815260200191505b5095505050505050600060405180830381600087803b158015614ace57600080fd5b505af1158015614ae2573d6000803e3d6000fd5b50506001909b019a506147609950505050505050505050565b808203828111156113b757604080517f08c379a000000000000000000000000000000000000000000000000000000000815260206004820152601560248201527f64732d6d6174682d7375622d756e646572666c6f770000000000000000000000604482015290519081900360640190fd5b6000808411614bc7576040517f08c379a00000000000000000000000000000000000000000000000000000000081526004018080602001828103825260278152602001806155336027913960400191505060405180910390fd5b600083118015614bd75750600082115b614c2c576040517f08c379a00000000000000000000000000000000000000000000000000000000081526004018080602001828103825260238152602001806155876023913960400191505060405180910390fd5b60008573ffffffffffffffffffffffffffffffffffffffff16631df4ccfc6040518163ffffffff1660e01b8152600401602060405180830381600087803b158015614c7657600080fd5b505af1158015614c8a573d6000803e3d6000fd5b505050506040513d6020811015614ca057600080fd5b505190506000614cbc6103e8614cb6878961538b565b9061538b565b90506000614cce83614cb6878a614afb565b9050614ce56001828481614cde57fe5b0490615411565b98975050505050505050565b6000808411614d6157604080517f08c379a000000000000000000000000000000000000000000000000000000000815260206004820181905260248201527f4d61696e4c6962726172793a20494e53554646494349454e545f414d4f554e54604482015290519081900360640190fd5b600083118015614d715750600082115b614dc6576040517f08c379a00000000000000000000000000000000000000000000000000000000081526004018080602001828103825260238152602001806155876023913960400191505060405180910390fd5b82614dd1858461538b565b81614dd857fe5b04949350505050565b6000808273ffffffffffffffffffffffffffffffffffffffff168473ffffffffffffffffffffffffffffffffffffffff161415614e7f57604080517f08c379a000000000000000000000000000000000000000000000000000000000815260206004820181905260248201527f4d61696e4c6962726172793a204944454e544943414c5f414444524553534553604482015290519081900360640190fd5b8273ffffffffffffffffffffffffffffffffffffffff168473ffffffffffffffffffffffffffffffffffffffff1610614eb9578284614ebc565b83835b909250905073ffffffffffffffffffffffffffffffffffffffff8216614f4357604080517f08c379a000000000000000000000000000000000000000000000000000000000815260206004820152601960248201527f4d61696e4c6962726172793a205a45524f5f4144445245535300000000000000604482015290519081900360640190fd5b9250929050565b600080600073ffffffffffffffffffffffffffffffffffffffff167f000000000000000000000000000000000000000000000000000000000000000073ffffffffffffffffffffffffffffffffffffffff1663e6a439058a8a6040518363ffffffff1660e01b8152600401808373ffffffffffffffffffffffffffffffffffffffff1681526020018273ffffffffffffffffffffffffffffffffffffffff1681526020019250505060206040518083038186803b15801561500a57600080fd5b505afa15801561501e573d6000803e3d6000fd5b505050506040513d602081101561503457600080fd5b505173ffffffffffffffffffffffffffffffffffffffff161415615126577f000000000000000000000000000000000000000000000000000000000000000073ffffffffffffffffffffffffffffffffffffffff1663c9c6539689896040518363ffffffff1660e01b8152600401808373ffffffffffffffffffffffffffffffffffffffff1681526020018273ffffffffffffffffffffffffffffffffffffffff16815260200192505050602060405180830381600087803b1580156150f957600080fd5b505af115801561510d573d6000803e3d6000fd5b505050506040513d602081101561512357600080fd5b50505b6000806151547f00000000000000000000000000000000000000000000000000000000000000008b8b6152a3565b91509150816000148015615166575080155b1561517657879350869250615296565b6000615183898484614cf1565b905087811161520657858110156151fb57604080517f08c379a000000000000000000000000000000000000000000000000000000000815260206004820152601f60248201527f526f7574657256323a20494e53554646494349454e545f425f414d4f554e5400604482015290519081900360640190fd5b889450925082615294565b6000615213898486614cf1565b90508981111561521f57fe5b8781101561528e57604080517f08c379a000000000000000000000000000000000000000000000000000000000815260206004820152601f60248201527f526f7574657256323a20494e53554646494349454e545f415f414d4f554e5400604482015290519081900360640190fd5b94508793505b505b5050965096945050505050565b60008060006152b28585614de1565b5090506000806152c3888888613f4e565b73ffffffffffffffffffffffffffffffffffffffff16630902f1ac6040518163ffffffff1660e01b815260040160606040518083038186803b15801561530857600080fd5b505afa15801561531c573d6000803e3d6000fd5b505050506040513d606081101561533257600080fd5b5080516020909101516dffffffffffffffffffffffffffff918216935016905073ffffffffffffffffffffffffffffffffffffffff8781169084161461537957808261537c565b81815b90999098509650505050505050565b60008115806153a6575050808202828282816153a357fe5b04145b6113b757604080517f08c379a000000000000000000000000000000000000000000000000000000000815260206004820152601460248201527f64732d6d6174682d6d756c2d6f766572666c6f77000000000000000000000000604482015290519081900360640190fd5b808201828110156113b757604080517f08c379a000000000000000000000000000000000000000000000000000000000815260206004820152601460248201527f64732d6d6174682d6164642d6f766572666c6f77000000000000000000000000604482015290519081900360640190fdfe5472616e7366657248656c7065723a3a7472616e7366657246726f6d3a207472616e7366657246726f6d206661696c65645472616e7366657248656c7065723a3a736166655472616e736665724554483a20455448207472616e73666572206661696c65644d61696e4c6962726172793a20494e53554646494349454e545f494e5055545f414d4f554e54526f7574657256323a20494e53554646494349454e545f4f55545055545f414d4f554e544d61696e4c6962726172793a20494e53554646494349454e545f4f55545055545f414d4f554e545472616e7366657248656c7065723a3a736166655472616e736665723a207472616e73666572206661696c65644d61696e4c6962726172793a20494e53554646494349454e545f4c4951554944495459a264697066735822122060338e1af272e4f838a719affb1647de5e5557247ef1c3f7f8766533b909e7ac64736f6c63430007050033",
  "immutableReferences": {
    "1480": [
      {
        "length": 32,
        "start": 4330
      },
      {
        "length": 32,
        "start": 4584
      },
      {
        "length": 32,
        "start": 5006
      },
      {
        "length": 32,
        "start": 5063
      },
      {
        "length": 32,
        "start": 5490
      },
      {
        "length": 32,
        "start": 6174
      },
      {
        "length": 32,
        "start": 6404
      },
      {
        "length": 32,
        "start": 6897
      },
      {
        "length": 32,
        "start": 8836
      },
      {
        "length": 32,
        "start": 9253
      },
      {
        "length": 32,
        "start": 9643
      },
      {
        "length": 32,
        "start": 10933
      },
      {
        "length": 32,
        "start": 11702
      },
      {
        "length": 32,
        "start": 12404
      },
      {
        "length": 32,
        "start": 12445
      },
      {
        "length": 32,
        "start": 12493
      },
      {
        "length": 32,
        "start": 12970
      },
      {
        "length": 32,
        "start": 13379
      },
      {
        "length": 32,
        "start": 14318
      },
      {
        "length": 32,
        "start": 14754
      },
      {
        "length": 32,
        "start": 17058
      },
      {
        "length": 32,
        "start": 17125
      },
      {
        "length": 32,
        "start": 18356
      },
      {
        "length": 32,
        "start": 18709
      },
      {
        "length": 32,
        "start": 18848
      },
      {
        "length": 32,
        "start": 20327
      },
      {
        "length": 32,
        "start": 20564
      },
      {
        "length": 32,
        "start": 20782
      }
    ],
    "1483": [
      {
        "length": 32,
        "start": 428
      },
      {
        "length": 32,
        "start": 3733
      },
      {
        "length": 32,
        "start": 3792
      },
      {
        "length": 32,
        "start": 4088
      },
      {
        "length": 32,
        "start": 4795
      },
      {
        "length": 32,
        "start": 5932
      },
      {
        "length": 32,
        "start": 6438
      },
      {
        "length": 32,
        "start": 7754
      },
      {
        "length": 32,
        "start": 8073
      },
      {
        "length": 32,
        "start": 8343
      },
      {
        "length": 32,
        "start": 8606
      },
      {
        "length": 32,
        "start": 9041
      },
      {
        "length": 32,
        "start": 9190
      },
      {
        "length": 32,
        "start": 9867
      },
      {
        "length": 32,
        "start": 10042
      },
      {
        "length": 32,
        "start": 10248
      },
      {
        "length": 32,
        "start": 10509
      },
      {
        "length": 32,
        "start": 10741
      },
      {
        "length": 32,
        "start": 10870
      },
      {
        "length": 32,
        "start": 12527
      },
      {
        "length": 32,
        "start": 13327
      },
      {
        "length": 32,
        "start": 13413
      },
      {
        "length": 32,
        "start": 13465
      },
      {
        "length": 32,
        "start": 13594
      },
      {
        "length": 32,
        "start": 14088
      },
      {
        "length": 32,
        "start": 14542
      },
      {
        "length": 32,
        "start": 14691
      }
    ]
  },
  "source": "// SPDX-License-Identifier: MIT\npragma solidity =0.7.5;\n\nimport './libraries/TransferHelper.sol';\nimport './libraries/MainLibrary.sol';\nimport './libraries/SafeMath.sol';\n\nimport './interfaces/IUniswapV2Factory.sol';\nimport './interfaces/IUniswapV2Router02.sol';\nimport './interfaces/IERC20.sol';\nimport './interfaces/IWETH.sol';\n\ncontract RouterV2 is IUniswapV2Router02 {\n    using SafeMath for uint;\n\n    address public immutable override factory;\n    address public immutable override WETH;\n\n    modifier ensure(uint deadline) {\n        require(deadline >= block.timestamp, 'RouterV2: EXPIRED');\n        _;\n    }\n\n    constructor(address _factory, address _WETH) {\n        factory = _factory;\n        WETH = _WETH;\n    }\n\n    receive() external payable {\n        assert(msg.sender == WETH); // only accept ETH via fallback from the WETH contract\n    }\n\n    // **** ADD LIQUIDITY ****\n    function _addLiquidity(\n        address tokenA,\n        address tokenB,\n        uint amountADesired,\n        uint amountBDesired,\n        uint amountAMin,\n        uint amountBMin\n    ) internal virtual returns (uint amountA, uint amountB) {\n        // create the pair if it doesn't exist yet\n        if (IUniswapV2Factory(factory).getPair(tokenA, tokenB) == address(0)) {\n            IUniswapV2Factory(factory).createPair(tokenA, tokenB);\n        }\n        (uint reserveA, uint reserveB) = MainLibrary.getReserves(factory, tokenA, tokenB);\n        if (reserveA == 0 && reserveB == 0) {\n            (amountA, amountB) = (amountADesired, amountBDesired);\n        } else {\n            uint amountBOptimal = MainLibrary.quote(amountADesired, reserveA, reserveB);\n            if (amountBOptimal <= amountBDesired) {\n                require(amountBOptimal >= amountBMin, 'RouterV2: INSUFFICIENT_B_AMOUNT');\n                (amountA, amountB) = (amountADesired, amountBOptimal);\n            } else {\n                uint amountAOptimal = MainLibrary.quote(amountBDesired, reserveB, reserveA);\n                assert(amountAOptimal <= amountADesired);\n                require(amountAOptimal >= amountAMin, 'RouterV2: INSUFFICIENT_A_AMOUNT');\n                (amountA, amountB) = (amountAOptimal, amountBDesired);\n            }\n        }\n    }\n    function addLiquidity(\n        address tokenA,\n        address tokenB,\n        uint amountADesired,\n        uint amountBDesired,\n        uint amountAMin,\n        uint amountBMin,\n        address to,\n        uint deadline\n    ) external virtual override ensure(deadline) returns (uint amountA, uint amountB, uint liquidity) {\n        (amountA, amountB) = _addLiquidity(tokenA, tokenB, amountADesired, amountBDesired, amountAMin, amountBMin);\n        address pair = MainLibrary.pairFor(factory, tokenA, tokenB);\n        TransferHelper.safeTransferFrom(tokenA, msg.sender, pair, amountA);\n        TransferHelper.safeTransferFrom(tokenB, msg.sender, pair, amountB);\n        liquidity = IUniswapV2Pair(pair).mint(to);\n    }\n    function addLiquidityETH(\n        address token,\n        uint amountTokenDesired,\n        uint amountTokenMin,\n        uint amountETHMin,\n        address to,\n        uint deadline\n    ) external virtual override payable ensure(deadline) returns (uint amountToken, uint amountETH, uint liquidity) {\n        (amountToken, amountETH) = _addLiquidity(\n            token,\n            WETH,\n            amountTokenDesired,\n            msg.value,\n            amountTokenMin,\n            amountETHMin\n        );\n        address pair = MainLibrary.pairFor(factory, token, WETH);\n        TransferHelper.safeTransferFrom(token, msg.sender, pair, amountToken);\n        IWETH(WETH).deposit{value: amountETH}();\n        assert(IWETH(WETH).transfer(pair, amountETH));\n        liquidity = IUniswapV2Pair(pair).mint(to);\n        // refund dust eth, if any\n        if (msg.value > amountETH) TransferHelper.safeTransferETH(msg.sender, msg.value - amountETH);\n    }\n\n    // **** REMOVE LIQUIDITY ****\n    function removeLiquidity(\n        address tokenA,\n        address tokenB,\n        uint liquidity,\n        uint amountAMin,\n        uint amountBMin,\n        address to,\n        uint deadline\n    ) public virtual override ensure(deadline) returns (uint amountA, uint amountB) {\n        address pair = MainLibrary.pairFor(factory, tokenA, tokenB);\n        IUniswapV2Pair(pair).transferFrom(msg.sender, pair, liquidity); // send liquidity to pair\n        (uint amount0, uint amount1) = IUniswapV2Pair(pair).burn(to);\n        (address token0,) = MainLibrary.sortTokens(tokenA, tokenB);\n        (amountA, amountB) = tokenA == token0 ? (amount0, amount1) : (amount1, amount0);\n        require(amountA >= amountAMin, 'RouterV2: INSUFFICIENT_A_AMOUNT');\n        require(amountB >= amountBMin, 'RouterV2: INSUFFICIENT_B_AMOUNT');\n    }\n    function removeLiquidityETH(\n        address token,\n        uint liquidity,\n        uint amountTokenMin,\n        uint amountETHMin,\n        address to,\n        uint deadline\n    ) public virtual override ensure(deadline) returns (uint amountToken, uint amountETH) {\n        (amountToken, amountETH) = removeLiquidity(\n            token,\n            WETH,\n            liquidity,\n            amountTokenMin,\n            amountETHMin,\n            address(this),\n            deadline\n        );\n        TransferHelper.safeTransfer(token, to, amountToken);\n        IWETH(WETH).withdraw(amountETH);\n        TransferHelper.safeTransferETH(to, amountETH);\n    }\n    function removeLiquidityWithPermit(\n        address tokenA,\n        address tokenB,\n        uint liquidity,\n        uint amountAMin,\n        uint amountBMin,\n        address to,\n        uint deadline,\n        bool approveMax, uint8 v, bytes32 r, bytes32 s\n    ) external virtual override returns (uint amountA, uint amountB) {\n        address pair = MainLibrary.pairFor(factory, tokenA, tokenB);\n        uint value = approveMax ? uint(-1) : liquidity;\n        IUniswapV2Pair(pair).permit(msg.sender, address(this), value, deadline, v, r, s);\n        (amountA, amountB) = removeLiquidity(tokenA, tokenB, liquidity, amountAMin, amountBMin, to, deadline);\n    }\n    function removeLiquidityETHWithPermit(\n        address token,\n        uint liquidity,\n        uint amountTokenMin,\n        uint amountETHMin,\n        address to,\n        uint deadline,\n        bool approveMax, uint8 v, bytes32 r, bytes32 s\n    ) external virtual override returns (uint amountToken, uint amountETH) {\n        address pair = MainLibrary.pairFor(factory, token, WETH);\n        uint value = approveMax ? uint(-1) : liquidity;\n        IUniswapV2Pair(pair).permit(msg.sender, address(this), value, deadline, v, r, s);\n        (amountToken, amountETH) = removeLiquidityETH(token, liquidity, amountTokenMin, amountETHMin, to, deadline);\n    }\n\n    // **** REMOVE LIQUIDITY (supporting fee-on-transfer tokens) ****\n    function removeLiquidityETHSupportingFeeOnTransferTokens(\n        address token,\n        uint liquidity,\n        uint amountTokenMin,\n        uint amountETHMin,\n        address to,\n        uint deadline\n    ) public virtual override ensure(deadline) returns (uint amountETH) {\n        (, amountETH) = removeLiquidity(\n            token,\n            WETH,\n            liquidity,\n            amountTokenMin,\n            amountETHMin,\n            address(this),\n            deadline\n        );\n        TransferHelper.safeTransfer(token, to, IERC20(token).balanceOf(address(this)));\n        IWETH(WETH).withdraw(amountETH);\n        TransferHelper.safeTransferETH(to, amountETH);\n    }\n    function removeLiquidityETHWithPermitSupportingFeeOnTransferTokens(\n        address token,\n        uint liquidity,\n        uint amountTokenMin,\n        uint amountETHMin,\n        address to,\n        uint deadline,\n        bool approveMax, uint8 v, bytes32 r, bytes32 s\n    ) external virtual override returns (uint amountETH) {\n        address pair = MainLibrary.pairFor(factory, token, WETH);\n        uint value = approveMax ? uint(-1) : liquidity;\n        IUniswapV2Pair(pair).permit(msg.sender, address(this), value, deadline, v, r, s);\n        amountETH = removeLiquidityETHSupportingFeeOnTransferTokens(\n            token, liquidity, amountTokenMin, amountETHMin, to, deadline\n        );\n    }\n\n    // **** SWAP ****\n    // requires the initial amount to have already been sent to the first pair\n    function _swap(uint[] memory amounts, address[] memory path, address _to) internal virtual {\n        for (uint i; i < path.length - 1; i++) {\n            (address input, address output) = (path[i], path[i + 1]);\n            (address token0,) = MainLibrary.sortTokens(input, output);\n            uint amountOut = amounts[i + 1];\n            (uint amount0Out, uint amount1Out) = input == token0 ? (uint(0), amountOut) : (amountOut, uint(0));\n            address to = i < path.length - 2 ? MainLibrary.pairFor(factory, output, path[i + 2]) : _to;\n            IUniswapV2Pair(MainLibrary.pairFor(factory, input, output)).swap(\n                amount0Out, amount1Out, to, new bytes(0)\n            );\n        }\n    }\n    function swapExactTokensForTokens(\n        uint amountIn,\n        uint amountOutMin,\n        address[] calldata path,\n        address to,\n        uint deadline\n    ) external virtual override ensure(deadline) returns (uint[] memory amounts) {\n        amounts = MainLibrary.getAmountsOut(factory, amountIn, path);\n        require(amounts[amounts.length - 1] >= amountOutMin, 'RouterV2: INSUFFICIENT_OUTPUT_AMOUNT');\n        TransferHelper.safeTransferFrom(\n            path[0], msg.sender, MainLibrary.pairFor(factory, path[0], path[1]), amounts[0]\n        );\n        _swap(amounts, path, to);\n    }\n    function swapTokensForExactTokens(\n        uint amountOut,\n        uint amountInMax,\n        address[] calldata path,\n        address to,\n        uint deadline\n    ) external virtual override ensure(deadline) returns (uint[] memory amounts) {\n        amounts = MainLibrary.getAmountsIn(factory, amountOut, path);\n        require(amounts[0] <= amountInMax, 'RouterV2: EXCESSIVE_INPUT_AMOUNT');\n        TransferHelper.safeTransferFrom(\n            path[0], msg.sender, MainLibrary.pairFor(factory, path[0], path[1]), amounts[0]\n        );\n        _swap(amounts, path, to);\n    }\n    function swapExactETHForTokens(uint amountOutMin, address[] calldata path, address to, uint deadline)\n        external\n        virtual\n        override\n        payable\n        ensure(deadline)\n        returns (uint[] memory amounts)\n    {\n        require(path[0] == WETH, 'RouterV2: INVALID_PATH');\n        amounts = MainLibrary.getAmountsOut(factory, msg.value, path);\n        require(amounts[amounts.length - 1] >= amountOutMin, 'RouterV2: INSUFFICIENT_OUTPUT_AMOUNT');\n        IWETH(WETH).deposit{value: amounts[0]}();\n        assert(IWETH(WETH).transfer(MainLibrary.pairFor(factory, path[0], path[1]), amounts[0]));\n        _swap(amounts, path, to);\n    }\n    function swapTokensForExactETH(uint amountOut, uint amountInMax, address[] calldata path, address to, uint deadline)\n        external\n        virtual\n        override\n        ensure(deadline)\n        returns (uint[] memory amounts)\n    {\n        require(path[path.length - 1] == WETH, 'RouterV2: INVALID_PATH');\n        amounts = MainLibrary.getAmountsIn(factory, amountOut, path);\n        require(amounts[0] <= amountInMax, 'RouterV2: EXCESSIVE_INPUT_AMOUNT');\n        TransferHelper.safeTransferFrom(\n            path[0], msg.sender, MainLibrary.pairFor(factory, path[0], path[1]), amounts[0]\n        );\n        _swap(amounts, path, address(this));\n        IWETH(WETH).withdraw(amounts[amounts.length - 1]);\n        TransferHelper.safeTransferETH(to, amounts[amounts.length - 1]);\n    }\n    function swapExactTokensForETH(uint amountIn, uint amountOutMin, address[] calldata path, address to, uint deadline)\n        external\n        virtual\n        override\n        ensure(deadline)\n        returns (uint[] memory amounts)\n    {\n        require(path[path.length - 1] == WETH, 'RouterV2: INVALID_PATH');\n        amounts = MainLibrary.getAmountsOut(factory, amountIn, path);\n        require(amounts[amounts.length - 1] >= amountOutMin, 'RouterV2: INSUFFICIENT_OUTPUT_AMOUNT');\n        TransferHelper.safeTransferFrom(\n            path[0], msg.sender, MainLibrary.pairFor(factory, path[0], path[1]), amounts[0]\n        );\n        _swap(amounts, path, address(this));\n        IWETH(WETH).withdraw(amounts[amounts.length - 1]);\n        TransferHelper.safeTransferETH(to, amounts[amounts.length - 1]);\n    }\n    function swapETHForExactTokens(uint amountOut, address[] calldata path, address to, uint deadline)\n        external\n        virtual\n        override\n        payable\n        ensure(deadline)\n        returns (uint[] memory amounts)\n    {\n        require(path[0] == WETH, 'RouterV2: INVALID_PATH');\n        amounts = MainLibrary.getAmountsIn(factory, amountOut, path);\n        require(amounts[0] <= msg.value, 'RouterV2: EXCESSIVE_INPUT_AMOUNT');\n        IWETH(WETH).deposit{value: amounts[0]}();\n        assert(IWETH(WETH).transfer(MainLibrary.pairFor(factory, path[0], path[1]), amounts[0]));\n        _swap(amounts, path, to);\n        // refund dust eth, if any\n        if (msg.value > amounts[0]) TransferHelper.safeTransferETH(msg.sender, msg.value - amounts[0]);\n    }\n\n    // **** SWAP (supporting fee-on-transfer tokens) ****\n    // requires the initial amount to have already been sent to the first pair\n    function _swapSupportingFeeOnTransferTokens(address[] memory path, address _to) internal virtual {\n        for (uint i; i < path.length - 1; i++) {\n            (address input, address output) = (path[i], path[i + 1]);\n            (address token0,) = MainLibrary.sortTokens(input, output);\n            IUniswapV2Pair pair = IUniswapV2Pair(MainLibrary.pairFor(factory, input, output));\n            uint amountInput;\n            uint amountOutput;\n            { // scope to avoid stack too deep errors\n            (uint reserve0, uint reserve1,) = pair.getReserves();\n            (uint reserveInput, uint reserveOutput) = input == token0 ? (reserve0, reserve1) : (reserve1, reserve0);\n            amountInput = IERC20(input).balanceOf(address(pair)).sub(reserveInput);\n            amountOutput = MainLibrary.getAmountOut(factory, amountInput, reserveInput, reserveOutput);\n            }\n            (uint amount0Out, uint amount1Out) = input == token0 ? (uint(0), amountOutput) : (amountOutput, uint(0));\n            address to = i < path.length - 2 ? MainLibrary.pairFor(factory, output, path[i + 2]) : _to;\n            pair.swap(amount0Out, amount1Out, to, new bytes(0));\n        }\n    }\n    function swapExactTokensForTokensSupportingFeeOnTransferTokens(\n        uint amountIn,\n        uint amountOutMin,\n        address[] calldata path,\n        address to,\n        uint deadline\n    ) external virtual override ensure(deadline) {\n        TransferHelper.safeTransferFrom(\n            path[0], msg.sender, MainLibrary.pairFor(factory, path[0], path[1]), amountIn\n        );\n        uint balanceBefore = IERC20(path[path.length - 1]).balanceOf(to);\n        _swapSupportingFeeOnTransferTokens(path, to);\n        require(\n            IERC20(path[path.length - 1]).balanceOf(to).sub(balanceBefore) >= amountOutMin,\n            'RouterV2: INSUFFICIENT_OUTPUT_AMOUNT'\n        );\n    }\n    function swapExactETHForTokensSupportingFeeOnTransferTokens(\n        uint amountOutMin,\n        address[] calldata path,\n        address to,\n        uint deadline\n    )\n        external\n        virtual\n        override\n        payable\n        ensure(deadline)\n    {\n        require(path[0] == WETH, 'RouterV2: INVALID_PATH');\n        uint amountIn = msg.value;\n        IWETH(WETH).deposit{value: amountIn}();\n        assert(IWETH(WETH).transfer(MainLibrary.pairFor(factory, path[0], path[1]), amountIn));\n        uint balanceBefore = IERC20(path[path.length - 1]).balanceOf(to);\n        _swapSupportingFeeOnTransferTokens(path, to);\n        require(\n            IERC20(path[path.length - 1]).balanceOf(to).sub(balanceBefore) >= amountOutMin,\n            'RouterV2: INSUFFICIENT_OUTPUT_AMOUNT'\n        );\n    }\n    function swapExactTokensForETHSupportingFeeOnTransferTokens(\n        uint amountIn,\n        uint amountOutMin,\n        address[] calldata path,\n        address to,\n        uint deadline\n    )\n        external\n        virtual\n        override\n        ensure(deadline)\n    {\n        require(path[path.length - 1] == WETH, 'RouterV2: INVALID_PATH');\n        TransferHelper.safeTransferFrom(\n            path[0], msg.sender, MainLibrary.pairFor(factory, path[0], path[1]), amountIn\n        );\n        _swapSupportingFeeOnTransferTokens(path, address(this));\n        uint amountOut = IERC20(WETH).balanceOf(address(this));\n        require(amountOut >= amountOutMin, 'RouterV2: INSUFFICIENT_OUTPUT_AMOUNT');\n        IWETH(WETH).withdraw(amountOut);\n        TransferHelper.safeTransferETH(to, amountOut);\n    }\n\n    // **** LIBRARY FUNCTIONS ****\n    function quote(uint amountA, uint reserveA, uint reserveB) public pure virtual override returns (uint amountB) {\n        return MainLibrary.quote(amountA, reserveA, reserveB);\n    }\n\n    function getAmountOut(address _factory, uint amountIn, uint reserveIn, uint reserveOut)\n        public\n        virtual\n        override\n        returns (uint amountOut)\n    {\n        return MainLibrary.getAmountOut(_factory, amountIn, reserveIn, reserveOut);\n    }\n\n    function getAmountIn(address _factory, uint amountOut, uint reserveIn, uint reserveOut)\n        public\n        virtual\n        override\n        returns (uint amountIn)\n    {\n        return MainLibrary.getAmountIn(_factory, amountOut, reserveIn, reserveOut);\n    }\n\n    function getAmountsOut(uint amountIn, address[] memory path)\n        public\n        virtual\n        override\n        returns (uint[] memory amounts)\n    {\n        return MainLibrary.getAmountsOut(factory, amountIn, path);\n    }\n\n    function getAmountsIn(uint amountOut, address[] memory path)\n        public\n        virtual\n        override\n        returns (uint[] memory amounts)\n    {\n        return MainLibrary.getAmountsIn(factory, amountOut, path);\n    }\n}\n",
  "sourcePath": "/home/user/Github/solidity/core/contracts/RouterV2.sol",
  "compiler": {
    "name": "solc",
    "version": "0.7.5+commit.eb77ed08.Emscripten.clang"
  },
  "schemaVersion": "3.4.3",
  "updatedAt": "2021-11-30T10:01:50.987Z",
  "networkType": "ethereum",
  "devdoc": {
    "kind": "dev",
    "methods": {},
    "version": 1
  },
  "userdoc": {
    "kind": "user",
    "methods": {},
    "version": 1
  }
}