{
  "contractName": "RouterV1",
  "abi": [
    {
      "inputs": [
        {
          "internalType": "address",
          "name": "_factory",
          "type": "address"
        },
        {
          "internalType": "address",
          "name": "_WETH",
          "type": "address"
        }
      ],
      "stateMutability": "nonpayable",
      "type": "constructor"
    },
    {
      "inputs": [],
      "name": "WETH",
      "outputs": [
        {
          "internalType": "address",
          "name": "",
          "type": "address"
        }
      ],
      "stateMutability": "view",
      "type": "function"
    },
    {
      "inputs": [],
      "name": "factory",
      "outputs": [
        {
          "internalType": "address",
          "name": "",
          "type": "address"
        }
      ],
      "stateMutability": "view",
      "type": "function"
    },
    {
      "stateMutability": "payable",
      "type": "receive"
    },
    {
      "inputs": [
        {
          "internalType": "address",
          "name": "tokenA",
          "type": "address"
        },
        {
          "internalType": "address",
          "name": "tokenB",
          "type": "address"
        },
        {
          "internalType": "uint256",
          "name": "amountADesired",
          "type": "uint256"
        },
        {
          "internalType": "uint256",
          "name": "amountBDesired",
          "type": "uint256"
        },
        {
          "internalType": "uint256",
          "name": "amountAMin",
          "type": "uint256"
        },
        {
          "internalType": "uint256",
          "name": "amountBMin",
          "type": "uint256"
        },
        {
          "internalType": "address",
          "name": "to",
          "type": "address"
        },
        {
          "internalType": "uint256",
          "name": "deadline",
          "type": "uint256"
        }
      ],
      "name": "addLiquidity",
      "outputs": [
        {
          "internalType": "uint256",
          "name": "amountA",
          "type": "uint256"
        },
        {
          "internalType": "uint256",
          "name": "amountB",
          "type": "uint256"
        },
        {
          "internalType": "uint256",
          "name": "liquidity",
          "type": "uint256"
        }
      ],
      "stateMutability": "nonpayable",
      "type": "function"
    },
    {
      "inputs": [
        {
          "internalType": "address",
          "name": "token",
          "type": "address"
        },
        {
          "internalType": "uint256",
          "name": "amountTokenDesired",
          "type": "uint256"
        },
        {
          "internalType": "uint256",
          "name": "amountTokenMin",
          "type": "uint256"
        },
        {
          "internalType": "uint256",
          "name": "amountETHMin",
          "type": "uint256"
        },
        {
          "internalType": "address",
          "name": "to",
          "type": "address"
        },
        {
          "internalType": "uint256",
          "name": "deadline",
          "type": "uint256"
        }
      ],
      "name": "addLiquidityETH",
      "outputs": [
        {
          "internalType": "uint256",
          "name": "amountToken",
          "type": "uint256"
        },
        {
          "internalType": "uint256",
          "name": "amountETH",
          "type": "uint256"
        },
        {
          "internalType": "uint256",
          "name": "liquidity",
          "type": "uint256"
        }
      ],
      "stateMutability": "payable",
      "type": "function"
    },
    {
      "inputs": [
        {
          "internalType": "address",
          "name": "tokenA",
          "type": "address"
        },
        {
          "internalType": "address",
          "name": "tokenB",
          "type": "address"
        },
        {
          "internalType": "uint256",
          "name": "liquidity",
          "type": "uint256"
        },
        {
          "internalType": "uint256",
          "name": "amountAMin",
          "type": "uint256"
        },
        {
          "internalType": "uint256",
          "name": "amountBMin",
          "type": "uint256"
        },
        {
          "internalType": "address",
          "name": "to",
          "type": "address"
        },
        {
          "internalType": "uint256",
          "name": "deadline",
          "type": "uint256"
        }
      ],
      "name": "removeLiquidity",
      "outputs": [
        {
          "internalType": "uint256",
          "name": "amountA",
          "type": "uint256"
        },
        {
          "internalType": "uint256",
          "name": "amountB",
          "type": "uint256"
        }
      ],
      "stateMutability": "nonpayable",
      "type": "function"
    },
    {
      "inputs": [
        {
          "internalType": "address",
          "name": "token",
          "type": "address"
        },
        {
          "internalType": "uint256",
          "name": "liquidity",
          "type": "uint256"
        },
        {
          "internalType": "uint256",
          "name": "amountTokenMin",
          "type": "uint256"
        },
        {
          "internalType": "uint256",
          "name": "amountETHMin",
          "type": "uint256"
        },
        {
          "internalType": "address",
          "name": "to",
          "type": "address"
        },
        {
          "internalType": "uint256",
          "name": "deadline",
          "type": "uint256"
        }
      ],
      "name": "removeLiquidityETH",
      "outputs": [
        {
          "internalType": "uint256",
          "name": "amountToken",
          "type": "uint256"
        },
        {
          "internalType": "uint256",
          "name": "amountETH",
          "type": "uint256"
        }
      ],
      "stateMutability": "nonpayable",
      "type": "function"
    },
    {
      "inputs": [
        {
          "internalType": "address",
          "name": "tokenA",
          "type": "address"
        },
        {
          "internalType": "address",
          "name": "tokenB",
          "type": "address"
        },
        {
          "internalType": "uint256",
          "name": "liquidity",
          "type": "uint256"
        },
        {
          "internalType": "uint256",
          "name": "amountAMin",
          "type": "uint256"
        },
        {
          "internalType": "uint256",
          "name": "amountBMin",
          "type": "uint256"
        },
        {
          "internalType": "address",
          "name": "to",
          "type": "address"
        },
        {
          "internalType": "uint256",
          "name": "deadline",
          "type": "uint256"
        },
        {
          "internalType": "bool",
          "name": "approveMax",
          "type": "bool"
        },
        {
          "internalType": "uint8",
          "name": "v",
          "type": "uint8"
        },
        {
          "internalType": "bytes32",
          "name": "r",
          "type": "bytes32"
        },
        {
          "internalType": "bytes32",
          "name": "s",
          "type": "bytes32"
        }
      ],
      "name": "removeLiquidityWithPermit",
      "outputs": [
        {
          "internalType": "uint256",
          "name": "amountA",
          "type": "uint256"
        },
        {
          "internalType": "uint256",
          "name": "amountB",
          "type": "uint256"
        }
      ],
      "stateMutability": "nonpayable",
      "type": "function"
    },
    {
      "inputs": [
        {
          "internalType": "address",
          "name": "token",
          "type": "address"
        },
        {
          "internalType": "uint256",
          "name": "liquidity",
          "type": "uint256"
        },
        {
          "internalType": "uint256",
          "name": "amountTokenMin",
          "type": "uint256"
        },
        {
          "internalType": "uint256",
          "name": "amountETHMin",
          "type": "uint256"
        },
        {
          "internalType": "address",
          "name": "to",
          "type": "address"
        },
        {
          "internalType": "uint256",
          "name": "deadline",
          "type": "uint256"
        },
        {
          "internalType": "bool",
          "name": "approveMax",
          "type": "bool"
        },
        {
          "internalType": "uint8",
          "name": "v",
          "type": "uint8"
        },
        {
          "internalType": "bytes32",
          "name": "r",
          "type": "bytes32"
        },
        {
          "internalType": "bytes32",
          "name": "s",
          "type": "bytes32"
        }
      ],
      "name": "removeLiquidityETHWithPermit",
      "outputs": [
        {
          "internalType": "uint256",
          "name": "amountToken",
          "type": "uint256"
        },
        {
          "internalType": "uint256",
          "name": "amountETH",
          "type": "uint256"
        }
      ],
      "stateMutability": "nonpayable",
      "type": "function"
    },
    {
      "inputs": [
        {
          "internalType": "uint256",
          "name": "amountIn",
          "type": "uint256"
        },
        {
          "internalType": "uint256",
          "name": "amountOutMin",
          "type": "uint256"
        },
        {
          "internalType": "address[]",
          "name": "path",
          "type": "address[]"
        },
        {
          "internalType": "address",
          "name": "to",
          "type": "address"
        },
        {
          "internalType": "uint256",
          "name": "deadline",
          "type": "uint256"
        }
      ],
      "name": "swapExactTokensForTokens",
      "outputs": [
        {
          "internalType": "uint256[]",
          "name": "amounts",
          "type": "uint256[]"
        }
      ],
      "stateMutability": "nonpayable",
      "type": "function"
    },
    {
      "inputs": [
        {
          "internalType": "uint256",
          "name": "amountOut",
          "type": "uint256"
        },
        {
          "internalType": "uint256",
          "name": "amountInMax",
          "type": "uint256"
        },
        {
          "internalType": "address[]",
          "name": "path",
          "type": "address[]"
        },
        {
          "internalType": "address",
          "name": "to",
          "type": "address"
        },
        {
          "internalType": "uint256",
          "name": "deadline",
          "type": "uint256"
        }
      ],
      "name": "swapTokensForExactTokens",
      "outputs": [
        {
          "internalType": "uint256[]",
          "name": "amounts",
          "type": "uint256[]"
        }
      ],
      "stateMutability": "nonpayable",
      "type": "function"
    },
    {
      "inputs": [
        {
          "internalType": "uint256",
          "name": "amountOutMin",
          "type": "uint256"
        },
        {
          "internalType": "address[]",
          "name": "path",
          "type": "address[]"
        },
        {
          "internalType": "address",
          "name": "to",
          "type": "address"
        },
        {
          "internalType": "uint256",
          "name": "deadline",
          "type": "uint256"
        }
      ],
      "name": "swapExactETHForTokens",
      "outputs": [
        {
          "internalType": "uint256[]",
          "name": "amounts",
          "type": "uint256[]"
        }
      ],
      "stateMutability": "payable",
      "type": "function"
    },
    {
      "inputs": [
        {
          "internalType": "uint256",
          "name": "amountOut",
          "type": "uint256"
        },
        {
          "internalType": "uint256",
          "name": "amountInMax",
          "type": "uint256"
        },
        {
          "internalType": "address[]",
          "name": "path",
          "type": "address[]"
        },
        {
          "internalType": "address",
          "name": "to",
          "type": "address"
        },
        {
          "internalType": "uint256",
          "name": "deadline",
          "type": "uint256"
        }
      ],
      "name": "swapTokensForExactETH",
      "outputs": [
        {
          "internalType": "uint256[]",
          "name": "amounts",
          "type": "uint256[]"
        }
      ],
      "stateMutability": "nonpayable",
      "type": "function"
    },
    {
      "inputs": [
        {
          "internalType": "uint256",
          "name": "amountIn",
          "type": "uint256"
        },
        {
          "internalType": "uint256",
          "name": "amountOutMin",
          "type": "uint256"
        },
        {
          "internalType": "address[]",
          "name": "path",
          "type": "address[]"
        },
        {
          "internalType": "address",
          "name": "to",
          "type": "address"
        },
        {
          "internalType": "uint256",
          "name": "deadline",
          "type": "uint256"
        }
      ],
      "name": "swapExactTokensForETH",
      "outputs": [
        {
          "internalType": "uint256[]",
          "name": "amounts",
          "type": "uint256[]"
        }
      ],
      "stateMutability": "nonpayable",
      "type": "function"
    },
    {
      "inputs": [
        {
          "internalType": "uint256",
          "name": "amountOut",
          "type": "uint256"
        },
        {
          "internalType": "address[]",
          "name": "path",
          "type": "address[]"
        },
        {
          "internalType": "address",
          "name": "to",
          "type": "address"
        },
        {
          "internalType": "uint256",
          "name": "deadline",
          "type": "uint256"
        }
      ],
      "name": "swapETHForExactTokens",
      "outputs": [
        {
          "internalType": "uint256[]",
          "name": "amounts",
          "type": "uint256[]"
        }
      ],
      "stateMutability": "payable",
      "type": "function"
    },
    {
      "inputs": [
        {
          "internalType": "uint256",
          "name": "amountA",
          "type": "uint256"
        },
        {
          "internalType": "uint256",
          "name": "reserveA",
          "type": "uint256"
        },
        {
          "internalType": "uint256",
          "name": "reserveB",
          "type": "uint256"
        }
      ],
      "name": "quote",
      "outputs": [
        {
          "internalType": "uint256",
          "name": "amountB",
          "type": "uint256"
        }
      ],
      "stateMutability": "pure",
      "type": "function"
    },
    {
      "inputs": [
        {
          "internalType": "uint256",
          "name": "amountIn",
          "type": "uint256"
        },
        {
          "internalType": "uint256",
          "name": "reserveIn",
          "type": "uint256"
        },
        {
          "internalType": "uint256",
          "name": "reserveOut",
          "type": "uint256"
        }
      ],
      "name": "getAmountOut",
      "outputs": [
        {
          "internalType": "uint256",
          "name": "amountOut",
          "type": "uint256"
        }
      ],
      "stateMutability": "pure",
      "type": "function"
    },
    {
      "inputs": [
        {
          "internalType": "uint256",
          "name": "amountOut",
          "type": "uint256"
        },
        {
          "internalType": "uint256",
          "name": "reserveIn",
          "type": "uint256"
        },
        {
          "internalType": "uint256",
          "name": "reserveOut",
          "type": "uint256"
        }
      ],
      "name": "getAmountIn",
      "outputs": [
        {
          "internalType": "uint256",
          "name": "amountIn",
          "type": "uint256"
        }
      ],
      "stateMutability": "pure",
      "type": "function"
    },
    {
      "inputs": [
        {
          "internalType": "uint256",
          "name": "amountIn",
          "type": "uint256"
        },
        {
          "internalType": "address[]",
          "name": "path",
          "type": "address[]"
        }
      ],
      "name": "getAmountsOut",
      "outputs": [
        {
          "internalType": "uint256[]",
          "name": "amounts",
          "type": "uint256[]"
        }
      ],
      "stateMutability": "view",
      "type": "function"
    },
    {
      "inputs": [
        {
          "internalType": "uint256",
          "name": "amountOut",
          "type": "uint256"
        },
        {
          "internalType": "address[]",
          "name": "path",
          "type": "address[]"
        }
      ],
      "name": "getAmountsIn",
      "outputs": [
        {
          "internalType": "uint256[]",
          "name": "amounts",
          "type": "uint256[]"
        }
      ],
      "stateMutability": "view",
      "type": "function"
    }
  ],
  "bytecode": "0x60c060405234801561001057600080fd5b506040516137ee3803806137ee8339818101604052604081101561003357600080fd5b5080516020909101516001600160601b0319606092831b8116608052911b1660a05260805160601c60a05160601c6136b261013c600039806101585280610a535280610a8e5280610b975280610dc7528061118e528061134c52806114a4528061152c52806117a05280611b005280611da75280611dfd5280611e315280611ea5528061204552806121b05280612238525080610c375280610d0e5280610e8d5280610ec6528061102c528061122e52806113f1528061155e52806116da528061182f5280611a855280611aae5280611ade5280611c765280611ddb52806120ea528061226a5280612b615280612ba45280612fe752806130a0528061315352506136b26000f3fe6080604052600436106101485760003560e01c80638803dbee116100c0578063d06ca61f11610074578063e8e3370011610059578063e8e33700146108a8578063f305d71914610928578063fb3bdb411461096e57610181565b8063d06ca61f1461077e578063ded9382a1461083557610181565b8063ad615dec116100a5578063ad615dec146106d6578063baa2abde1461070c578063c45a01551461076957610181565b80638803dbee1461060d578063ad5c4648146106a557610181565b80632195995c116101175780634a25d94a116100fc5780634a25d94a146104ef5780637ff36ab51461058757806385f8c259146101f257610181565b80632195995c146103d957806338ed17391461045757610181565b806302751cec14610186578063054d50d4146101f257806318cbafe51461023a5780631f00ca741461032257610181565b3661018157336001600160a01b037f0000000000000000000000000000000000000000000000000000000000000000161461017f57fe5b005b600080fd5b34801561019257600080fd5b506101d9600480360360c08110156101a957600080fd5b506001600160a01b0381358116916020810135916040820135916060810135916080820135169060a001356109f4565b6040805192835260208301919091528051918290030190f35b3480156101fe57600080fd5b506102286004803603606081101561021557600080fd5b5080359060208101359060400135610b20565b60408051918252519081900360200190f35b34801561024657600080fd5b506102d2600480360360a081101561025d57600080fd5b81359160208101359181019060608101604082013564010000000081111561028457600080fd5b82018360208201111561029657600080fd5b803590602001918460208302840111640100000000831117156102b857600080fd5b91935091506001600160a01b038135169060200135610b35565b60408051602080825283518183015283519192839290830191858101910280838360005b8381101561030e5781810151838201526020016102f6565b505050509050019250505060405180910390f35b34801561032e57600080fd5b506102d26004803603604081101561034557600080fd5b8135919081019060408101602082013564010000000081111561036757600080fd5b82018360208201111561037957600080fd5b8035906020019184602083028401116401000000008311171561039b57600080fd5b919080806020026020016040519081016040528093929190818152602001838360200280828437600092019190915250929550610e86945050505050565b3480156103e557600080fd5b506101d960048036036101608110156103fd57600080fd5b506001600160a01b038135811691602081013582169160408201359160608101359160808201359160a08101359091169060c08101359060e081013515159060ff6101008201351690610120810135906101400135610ebc565b34801561046357600080fd5b506102d2600480360360a081101561047a57600080fd5b8135916020810135918101906060810160408201356401000000008111156104a157600080fd5b8201836020820111156104b357600080fd5b803590602001918460208302840111640100000000831117156104d557600080fd5b91935091506001600160a01b038135169060200135610fcf565b3480156104fb57600080fd5b506102d2600480360360a081101561051257600080fd5b81359160208101359181019060608101604082013564010000000081111561053957600080fd5b82018360208201111561054b57600080fd5b8035906020019184602083028401116401000000008311171561056d57600080fd5b91935091506001600160a01b03813516906020013561112c565b6102d26004803603608081101561059d57600080fd5b813591908101906040810160208201356401000000008111156105bf57600080fd5b8201836020820111156105d157600080fd5b803590602001918460208302840111640100000000831117156105f357600080fd5b91935091506001600160a01b0381351690602001356112f2565b34801561061957600080fd5b506102d2600480360360a081101561063057600080fd5b81359160208101359181019060608101604082013564010000000081111561065757600080fd5b82018360208201111561066957600080fd5b8035906020019184602083028401116401000000008311171561068b57600080fd5b91935091506001600160a01b03813516906020013561167d565b3480156106b157600080fd5b506106ba61179e565b604080516001600160a01b039092168252519081900360200190f35b3480156106e257600080fd5b50610228600480360360608110156106f957600080fd5b50803590602081013590604001356117c2565b34801561071857600080fd5b506101d9600480360360e081101561072f57600080fd5b506001600160a01b038135811691602081013582169160408201359160608101359160808201359160a08101359091169060c001356117cf565b34801561077557600080fd5b506106ba611a83565b34801561078a57600080fd5b506102d2600480360360408110156107a157600080fd5b813591908101906040810160208201356401000000008111156107c357600080fd5b8201836020820111156107d557600080fd5b803590602001918460208302840111640100000000831117156107f757600080fd5b919080806020026020016040519081016040528093929190818152602001838360200280828437600092019190915250929550611aa7945050505050565b34801561084157600080fd5b506101d9600480360361014081101561085957600080fd5b506001600160a01b0381358116916020810135916040820135916060810135916080820135169060a08101359060c081013515159060ff60e08201351690610100810135906101200135611ad4565b3480156108b457600080fd5b5061090a60048036036101008110156108cc57600080fd5b506001600160a01b038135811691602081013582169160408201359160608101359160808201359160a08101359160c0820135169060e00135611c01565b60408051938452602084019290925282820152519081900360600190f35b61090a600480360360c081101561093e57600080fd5b506001600160a01b0381358116916020810135916040820135916060810135916080820135169060a00135611d46565b6102d26004803603608081101561098457600080fd5b813591908101906040810160208201356401000000008111156109a657600080fd5b8201836020820111156109b857600080fd5b803590602001918460208302840111640100000000831117156109da57600080fd5b91935091506001600160a01b038135169060200135611feb565b6000808242811015610a4d576040805162461bcd60e51b815260206004820152601160248201527f526f7574657256313a2045585049524544000000000000000000000000000000604482015290519081900360640190fd5b610a7c897f00000000000000000000000000000000000000000000000000000000000000008a8a8a308a6117cf565b9093509150610a8c89868561239e565b7f00000000000000000000000000000000000000000000000000000000000000006001600160a01b0316632e1a7d4d836040518263ffffffff1660e01b815260040180828152602001915050600060405180830381600087803b158015610af257600080fd5b505af1158015610b06573d6000803e3d6000fd5b50505050610b148583612520565b50965096945050505050565b6000610b2d848484612618565b949350505050565b60608142811015610b8d576040805162461bcd60e51b815260206004820152601160248201527f526f7574657256313a2045585049524544000000000000000000000000000000604482015290519081900360640190fd5b6001600160a01b037f00000000000000000000000000000000000000000000000000000000000000001686866000198101818110610bc757fe5b905060200201356001600160a01b03166001600160a01b031614610c32576040805162461bcd60e51b815260206004820152601660248201527f526f7574657256313a20494e56414c49445f5041544800000000000000000000604482015290519081900360640190fd5b610c907f0000000000000000000000000000000000000000000000000000000000000000898888808060200260200160405190810160405280939291908181526020018383602002808284376000920191909152506126f092505050565b91508682600184510381518110610ca357fe5b60200260200101511015610ce85760405162461bcd60e51b81526004018080602001828103825260248152602001806135bc6024913960400191505060405180910390fd5b610d8686866000818110610cf857fe5b905060200201356001600160a01b031633610d6c7f00000000000000000000000000000000000000000000000000000000000000008a8a6000818110610d3a57fe5b905060200201356001600160a01b03168b8b6001818110610d5757fe5b905060200201356001600160a01b031661283c565b85600081518110610d7957fe5b6020026020010151612927565b610dc582878780806020026020016040519081016040528093929190818152602001838360200280828437600092019190915250309250612ab2915050565b7f00000000000000000000000000000000000000000000000000000000000000006001600160a01b0316632e1a7d4d83600185510381518110610e0457fe5b60200260200101516040518263ffffffff1660e01b815260040180828152602001915050600060405180830381600087803b158015610e4257600080fd5b505af1158015610e56573d6000803e3d6000fd5b50505050610e7b8483600185510381518110610e6e57fe5b6020026020010151612520565b509695505050505050565b6060610eb37f00000000000000000000000000000000000000000000000000000000000000008484612cef565b90505b92915050565b6000806000610eec7f00000000000000000000000000000000000000000000000000000000000000008f8f61283c565b9050600087610efb578c610eff565b6000195b604080517fd505accf00000000000000000000000000000000000000000000000000000000815233600482015230602482015260448101839052606481018c905260ff8a16608482015260a4810189905260c4810188905290519192506001600160a01b0384169163d505accf9160e48082019260009290919082900301818387803b158015610f8e57600080fd5b505af1158015610fa2573d6000803e3d6000fd5b50505050610fb58f8f8f8f8f8f8f6117cf565b809450819550505050509b509b9950505050505050505050565b60608142811015611027576040805162461bcd60e51b815260206004820152601160248201527f526f7574657256313a2045585049524544000000000000000000000000000000604482015290519081900360640190fd5b6110857f0000000000000000000000000000000000000000000000000000000000000000898888808060200260200160405190810160405280939291908181526020018383602002808284376000920191909152506126f092505050565b9150868260018451038151811061109857fe5b602002602001015110156110dd5760405162461bcd60e51b81526004018080602001828103825260248152602001806135bc6024913960400191505060405180910390fd5b6110ed86866000818110610cf857fe5b610e7b82878780806020026020016040519081016040528093929190818152602001838360200280828437600092019190915250899250612ab2915050565b60608142811015611184576040805162461bcd60e51b815260206004820152601160248201527f526f7574657256313a2045585049524544000000000000000000000000000000604482015290519081900360640190fd5b6001600160a01b037f000000000000000000000000000000000000000000000000000000000000000016868660001981018181106111be57fe5b905060200201356001600160a01b03166001600160a01b031614611229576040805162461bcd60e51b815260206004820152601660248201527f526f7574657256313a20494e56414c49445f5041544800000000000000000000604482015290519081900360640190fd5b6112877f000000000000000000000000000000000000000000000000000000000000000089888880806020026020016040519081016040528093929190818152602001838360200280828437600092019190915250612cef92505050565b9150868260008151811061129757fe5b60200260200101511115610ce8576040805162461bcd60e51b815260206004820181905260248201527f526f7574657256313a204558434553534956455f494e5055545f414d4f554e54604482015290519081900360640190fd5b6060814281101561134a576040805162461bcd60e51b815260206004820152601160248201527f526f7574657256313a2045585049524544000000000000000000000000000000604482015290519081900360640190fd5b7f00000000000000000000000000000000000000000000000000000000000000006001600160a01b03168686600081811061138157fe5b905060200201356001600160a01b03166001600160a01b0316146113ec576040805162461bcd60e51b815260206004820152601660248201527f526f7574657256313a20494e56414c49445f5041544800000000000000000000604482015290519081900360640190fd5b61144a7f0000000000000000000000000000000000000000000000000000000000000000348888808060200260200160405190810160405280939291908181526020018383602002808284376000920191909152506126f092505050565b9150868260018451038151811061145d57fe5b602002602001015110156114a25760405162461bcd60e51b81526004018080602001828103825260248152602001806135bc6024913960400191505060405180910390fd5b7f00000000000000000000000000000000000000000000000000000000000000006001600160a01b031663d0e30db0836000815181106114de57fe5b60200260200101516040518263ffffffff1660e01b81526004016000604051808303818588803b15801561151157600080fd5b505af1158015611525573d6000803e3d6000fd5b50505050507f00000000000000000000000000000000000000000000000000000000000000006001600160a01b031663a9059cbb6115a77f00000000000000000000000000000000000000000000000000000000000000008989600081811061158a57fe5b905060200201356001600160a01b03168a8a6001818110610d5757fe5b846000815181106115b457fe5b60200260200101516040518363ffffffff1660e01b815260040180836001600160a01b0316815260200182815260200192505050602060405180830381600087803b15801561160257600080fd5b505af1158015611616573d6000803e3d6000fd5b505050506040513d602081101561162c57600080fd5b505161163457fe5b61167382878780806020026020016040519081016040528093929190818152602001838360200280828437600092019190915250899250612ab2915050565b5095945050505050565b606081428110156116d5576040805162461bcd60e51b815260206004820152601160248201527f526f7574657256313a2045585049524544000000000000000000000000000000604482015290519081900360640190fd5b6117337f000000000000000000000000000000000000000000000000000000000000000089888880806020026020016040519081016040528093929190818152602001838360200280828437600092019190915250612cef92505050565b9150868260008151811061174357fe5b602002602001015111156110dd576040805162461bcd60e51b815260206004820181905260248201527f526f7574657256313a204558434553534956455f494e5055545f414d4f554e54604482015290519081900360640190fd5b7f000000000000000000000000000000000000000000000000000000000000000081565b6000610b2d848484612e27565b6000808242811015611828576040805162461bcd60e51b815260206004820152601160248201527f526f7574657256313a2045585049524544000000000000000000000000000000604482015290519081900360640190fd5b60006118557f00000000000000000000000000000000000000000000000000000000000000008c8c61283c565b604080517f23b872dd0000000000000000000000000000000000000000000000000000000081523360048201526001600160a01b03831660248201819052604482018d9052915192935090916323b872dd916064808201926020929091908290030181600087803b1580156118c957600080fd5b505af11580156118dd573d6000803e3d6000fd5b505050506040513d60208110156118f357600080fd5b5050604080517f89afcb440000000000000000000000000000000000000000000000000000000081526001600160a01b03888116600483015282516000938493928616926389afcb44926024808301939282900301818787803b15801561195957600080fd5b505af115801561196d573d6000803e3d6000fd5b505050506040513d604081101561198357600080fd5b5080516020909101519092509050600061199d8e8e612ee3565b509050806001600160a01b03168e6001600160a01b0316146119c05781836119c3565b82825b90975095508a871015611a1d576040805162461bcd60e51b815260206004820152601f60248201527f526f7574657256313a20494e53554646494349454e545f415f414d4f554e5400604482015290519081900360640190fd5b89861015611a72576040805162461bcd60e51b815260206004820152601f60248201527f526f7574657256313a20494e53554646494349454e545f425f414d4f554e5400604482015290519081900360640190fd5b505050505097509795505050505050565b7f000000000000000000000000000000000000000000000000000000000000000081565b6060610eb37f000000000000000000000000000000000000000000000000000000000000000084846126f0565b6000806000611b247f00000000000000000000000000000000000000000000000000000000000000008e7f000000000000000000000000000000000000000000000000000000000000000061283c565b9050600087611b33578c611b37565b6000195b604080517fd505accf00000000000000000000000000000000000000000000000000000000815233600482015230602482015260448101839052606481018c905260ff8a16608482015260a4810189905260c4810188905290519192506001600160a01b0384169163d505accf9160e48082019260009290919082900301818387803b158015611bc657600080fd5b505af1158015611bda573d6000803e3d6000fd5b50505050611bec8e8e8e8e8e8e6109f4565b909f909e509c50505050505050505050505050565b60008060008342811015611c5c576040805162461bcd60e51b815260206004820152601160248201527f526f7574657256313a2045585049524544000000000000000000000000000000604482015290519081900360640190fd5b611c6a8c8c8c8c8c8c612fd7565b90945092506000611c9c7f00000000000000000000000000000000000000000000000000000000000000008e8e61283c565b9050611caa8d338388612927565b611cb68c338387612927565b806001600160a01b0316636a627842886040518263ffffffff1660e01b815260040180826001600160a01b03168152602001915050602060405180830381600087803b158015611d0557600080fd5b505af1158015611d19573d6000803e3d6000fd5b505050506040513d6020811015611d2f57600080fd5b5051949d939c50939a509198505050505050505050565b60008060008342811015611da1576040805162461bcd60e51b815260206004820152601160248201527f526f7574657256313a2045585049524544000000000000000000000000000000604482015290519081900360640190fd5b611dcf8a7f00000000000000000000000000000000000000000000000000000000000000008b348c8c612fd7565b90945092506000611e217f00000000000000000000000000000000000000000000000000000000000000008c7f000000000000000000000000000000000000000000000000000000000000000061283c565b9050611e2f8b338388612927565b7f00000000000000000000000000000000000000000000000000000000000000006001600160a01b031663d0e30db0856040518263ffffffff1660e01b81526004016000604051808303818588803b158015611e8a57600080fd5b505af1158015611e9e573d6000803e3d6000fd5b50505050507f00000000000000000000000000000000000000000000000000000000000000006001600160a01b031663a9059cbb82866040518363ffffffff1660e01b815260040180836001600160a01b0316815260200182815260200192505050602060405180830381600087803b158015611f1a57600080fd5b505af1158015611f2e573d6000803e3d6000fd5b505050506040513d6020811015611f4457600080fd5b5051611f4c57fe5b806001600160a01b0316636a627842886040518263ffffffff1660e01b815260040180826001600160a01b03168152602001915050602060405180830381600087803b158015611f9b57600080fd5b505af1158015611faf573d6000803e3d6000fd5b505050506040513d6020811015611fc557600080fd5b5051925034841015611fdd57611fdd33853403612520565b505096509650969350505050565b60608142811015612043576040805162461bcd60e51b815260206004820152601160248201527f526f7574657256313a2045585049524544000000000000000000000000000000604482015290519081900360640190fd5b7f00000000000000000000000000000000000000000000000000000000000000006001600160a01b03168686600081811061207a57fe5b905060200201356001600160a01b03166001600160a01b0316146120e5576040805162461bcd60e51b815260206004820152601660248201527f526f7574657256313a20494e56414c49445f5041544800000000000000000000604482015290519081900360640190fd5b6121437f000000000000000000000000000000000000000000000000000000000000000088888880806020026020016040519081016040528093929190818152602001838360200280828437600092019190915250612cef92505050565b9150348260008151811061215357fe5b602002602001015111156121ae576040805162461bcd60e51b815260206004820181905260248201527f526f7574657256313a204558434553534956455f494e5055545f414d4f554e54604482015290519081900360640190fd5b7f00000000000000000000000000000000000000000000000000000000000000006001600160a01b031663d0e30db0836000815181106121ea57fe5b60200260200101516040518263ffffffff1660e01b81526004016000604051808303818588803b15801561221d57600080fd5b505af1158015612231573d6000803e3d6000fd5b50505050507f00000000000000000000000000000000000000000000000000000000000000006001600160a01b031663a9059cbb6122967f00000000000000000000000000000000000000000000000000000000000000008989600081811061158a57fe5b846000815181106122a357fe5b60200260200101516040518363ffffffff1660e01b815260040180836001600160a01b0316815260200182815260200192505050602060405180830381600087803b1580156122f157600080fd5b505af1158015612305573d6000803e3d6000fd5b505050506040513d602081101561231b57600080fd5b505161232357fe5b61236282878780806020026020016040519081016040528093929190818152602001838360200280828437600092019190915250899250612ab2915050565b8160008151811061236f57fe5b602002602001015134111561167357611673338360008151811061238f57fe5b60200260200101513403612520565b604080516001600160a01b038481166024830152604480830185905283518084039091018152606490920183526020820180517bffffffffffffffffffffffffffffffffffffffffffffffffffffffff167fa9059cbb00000000000000000000000000000000000000000000000000000000178152925182516000946060949389169392918291908083835b602083106124495780518252601f19909201916020918201910161242a565b6001836020036101000a0380198251168184511680821785525050505050509050019150506000604051808303816000865af19150503d80600081146124ab576040519150601f19603f3d011682016040523d82523d6000602084013e6124b0565b606091505b50915091508180156124de5750805115806124de57508080602001905160208110156124db57600080fd5b50515b6125195760405162461bcd60e51b815260040180806020018281038252602d81526020018061362d602d913960400191505060405180910390fd5b5050505050565b604080516000808252602082019092526001600160a01b0384169083906040518082805190602001908083835b6020831061256c5780518252601f19909201916020918201910161254d565b6001836020036101000a03801982511681845116808217855250505050505090500191505060006040518083038185875af1925050503d80600081146125ce576040519150601f19603f3d011682016040523d82523d6000602084013e6125d3565b606091505b50509050806126135760405162461bcd60e51b81526004018080602001828103825260348152602001806135886034913960400191505060405180910390fd5b505050565b60008084116126585760405162461bcd60e51b81526004018080602001828103825260268152602001806135e06026913960400191505060405180910390fd5b6000831180156126685750600082115b6126a35760405162461bcd60e51b815260040180806020018281038252602381526020018061365a6023913960400191505060405180910390fd5b60006126b1856103e5613294565b905060006126bf8285613294565b905060006126d9836126d3886103e8613294565b90613300565b90508082816126e457fe5b04979650505050505050565b6060600282511015612749576040805162461bcd60e51b815260206004820152601960248201527f4d61696e4c6962726172793a20494e56414c49445f5041544800000000000000604482015290519081900360640190fd5b815167ffffffffffffffff8111801561276157600080fd5b5060405190808252806020026020018201604052801561278b578160200160208202803683370190505b509050828160008151811061279c57fe5b60200260200101818152505060005b6001835103811015612834576000806127ee878685815181106127ca57fe5b60200260200101518786600101815181106127e157fe5b6020026020010151613358565b9150915061281084848151811061280157fe5b60200260200101518383612618565b84846001018151811061281f57fe5b602090810291909101015250506001016127ab565b509392505050565b600080600061284b8585612ee3565b604080517fffffffffffffffffffffffffffffffffffffffff000000000000000000000000606094851b811660208084019190915293851b81166034830152825160288184030181526048830184528051908501207fff0000000000000000000000000000000000000000000000000000000000000060688401529a90941b9093166069840152607d8301989098527f2b412748f39ea0fec33e51424ba001ecc89020b7b84f9827e1bd91468446d718609d808401919091528851808403909101815260bd909201909752805196019590952095945050505050565b604080516001600160a01b0385811660248301528481166044830152606480830185905283518084039091018152608490920183526020820180517bffffffffffffffffffffffffffffffffffffffffffffffffffffffff167f23b872dd0000000000000000000000000000000000000000000000000000000017815292518251600094606094938a169392918291908083835b602083106129da5780518252601f1990920191602091820191016129bb565b6001836020036101000a0380198251168184511680821785525050505050509050019150506000604051808303816000865af19150503d8060008114612a3c576040519150601f19603f3d011682016040523d82523d6000602084013e612a41565b606091505b5091509150818015612a6f575080511580612a6f5750808060200190516020811015612a6c57600080fd5b50515b612aaa5760405162461bcd60e51b81526004018080602001828103825260318152602001806135576031913960400191505060405180910390fd5b505050505050565b60005b6001835103811015612ce957600080848381518110612ad057fe5b6020026020010151858460010181518110612ae757fe5b6020026020010151915091506000612aff8383612ee3565b5090506000878560010181518110612b1357fe5b60200260200101519050600080836001600160a01b0316866001600160a01b031614612b4157826000612b45565b6000835b91509150600060028a51038810612b5c5788612b9d565b612b9d7f0000000000000000000000000000000000000000000000000000000000000000878c8b60020181518110612b9057fe5b602002602001015161283c565b9050612bca7f0000000000000000000000000000000000000000000000000000000000000000888861283c565b6001600160a01b031663022c0d9f84848460006040519080825280601f01601f191660200182016040528015612c07576020820181803683370190505b506040518563ffffffff1660e01b815260040180858152602001848152602001836001600160a01b0316815260200180602001828103825283818151815260200191508051906020019080838360005b83811015612c6f578181015183820152602001612c57565b50505050905090810190601f168015612c9c5780820380516001836020036101000a031916815260200191505b5095505050505050600060405180830381600087803b158015612cbe57600080fd5b505af1158015612cd2573d6000803e3d6000fd5b505060019099019850612ab5975050505050505050565b50505050565b6060600282511015612d48576040805162461bcd60e51b815260206004820152601960248201527f4d61696e4c6962726172793a20494e56414c49445f5041544800000000000000604482015290519081900360640190fd5b815167ffffffffffffffff81118015612d6057600080fd5b50604051908082528060200260200182016040528015612d8a578160200160208202803683370190505b5090508281600183510381518110612d9e57fe5b60209081029190910101528151600019015b801561283457600080612de087866001860381518110612dcc57fe5b60200260200101518786815181106127e157fe5b91509150612e02848481518110612df357fe5b60200260200101518383613426565b846001850381518110612e1157fe5b6020908102919091010152505060001901612db0565b6000808411612e7d576040805162461bcd60e51b815260206004820181905260248201527f4d61696e4c6962726172793a20494e53554646494349454e545f414d4f554e54604482015290519081900360640190fd5b600083118015612e8d5750600082115b612ec85760405162461bcd60e51b815260040180806020018281038252602381526020018061365a6023913960400191505060405180910390fd5b82612ed38584613294565b81612eda57fe5b04949350505050565b600080826001600160a01b0316846001600160a01b03161415612f4d576040805162461bcd60e51b815260206004820181905260248201527f4d61696e4c6962726172793a204944454e544943414c5f414444524553534553604482015290519081900360640190fd5b826001600160a01b0316846001600160a01b031610612f6d578284612f70565b83835b90925090506001600160a01b038216612fd0576040805162461bcd60e51b815260206004820152601960248201527f4d61696e4c6962726172793a205a45524f5f4144445245535300000000000000604482015290519081900360640190fd5b9250929050565b60008060006001600160a01b03167f00000000000000000000000000000000000000000000000000000000000000006001600160a01b031663e6a439058a8a6040518363ffffffff1660e01b815260040180836001600160a01b03168152602001826001600160a01b031681526020019250505060206040518083038186803b15801561306357600080fd5b505afa158015613077573d6000803e3d6000fd5b505050506040513d602081101561308d57600080fd5b50516001600160a01b0316141561314b577f00000000000000000000000000000000000000000000000000000000000000006001600160a01b031663c9c6539689896040518363ffffffff1660e01b815260040180836001600160a01b03168152602001826001600160a01b0316815260200192505050602060405180830381600087803b15801561311e57600080fd5b505af1158015613132573d6000803e3d6000fd5b505050506040513d602081101561314857600080fd5b50505b6000806131797f00000000000000000000000000000000000000000000000000000000000000008b8b613358565b9150915081600014801561318b575080155b1561319b57879350869250613287565b60006131a8898484612e27565b90508781116132115785811015613206576040805162461bcd60e51b815260206004820152601f60248201527f526f7574657256313a20494e53554646494349454e545f425f414d4f554e5400604482015290519081900360640190fd5b889450925082613285565b600061321e898486612e27565b90508981111561322a57fe5b8781101561327f576040805162461bcd60e51b815260206004820152601f60248201527f526f7574657256313a20494e53554646494349454e545f415f414d4f554e5400604482015290519081900360640190fd5b94508793505b505b5050965096945050505050565b60008115806132af575050808202828282816132ac57fe5b04145b610eb6576040805162461bcd60e51b815260206004820152601460248201527f64732d6d6174682d6d756c2d6f766572666c6f77000000000000000000000000604482015290519081900360640190fd5b80820182811015610eb6576040805162461bcd60e51b815260206004820152601460248201527f64732d6d6174682d6164642d6f766572666c6f77000000000000000000000000604482015290519081900360640190fd5b60008060006133678585612ee3565b50905060008061337888888861283c565b6001600160a01b0316630902f1ac6040518163ffffffff1660e01b815260040160606040518083038186803b1580156133b057600080fd5b505afa1580156133c4573d6000803e3d6000fd5b505050506040513d60608110156133da57600080fd5b5080516020909101516dffffffffffffffffffffffffffff91821693501690506001600160a01b0387811690841614613414578082613417565b81815b90999098509650505050505050565b60008084116134665760405162461bcd60e51b81526004018080602001828103825260278152602001806136066027913960400191505060405180910390fd5b6000831180156134765750600082115b6134b15760405162461bcd60e51b815260040180806020018281038252602381526020018061365a6023913960400191505060405180910390fd5b60006134c96103e86134c38688613294565b90613294565b905060006134dd6103e56134c386896134fe565b90506134f460018284816134ed57fe5b0490613300565b9695505050505050565b80820382811115610eb6576040805162461bcd60e51b815260206004820152601560248201527f64732d6d6174682d7375622d756e646572666c6f770000000000000000000000604482015290519081900360640190fdfe5472616e7366657248656c7065723a3a7472616e7366657246726f6d3a207472616e7366657246726f6d206661696c65645472616e7366657248656c7065723a3a736166655472616e736665724554483a20455448207472616e73666572206661696c6564526f7574657256313a20494e53554646494349454e545f4f55545055545f414d4f554e544d61696e4c6962726172793a20494e53554646494349454e545f494e5055545f414d4f554e544d61696e4c6962726172793a20494e53554646494349454e545f4f55545055545f414d4f554e545472616e7366657248656c7065723a3a736166655472616e736665723a207472616e73666572206661696c65644d61696e4c6962726172793a20494e53554646494349454e545f4c4951554944495459a2646970667358221220770613c161633e35a55d4103043af1ecb2e150b60f2282b76407be9ca0cbfb2c64736f6c63430007050033",
  "immutableReferences": {
    "1676": [
      {
        "length": 32,
        "start": 3127
      },
      {
        "length": 32,
        "start": 3342
      },
      {
        "length": 32,
        "start": 3725
      },
      {
        "length": 32,
        "start": 3782
      },
      {
        "length": 32,
        "start": 4140
      },
      {
        "length": 32,
        "start": 4654
      },
      {
        "length": 32,
        "start": 5105
      },
      {
        "length": 32,
        "start": 5470
      },
      {
        "length": 32,
        "start": 5850
      },
      {
        "length": 32,
        "start": 6191
      },
      {
        "length": 32,
        "start": 6789
      },
      {
        "length": 32,
        "start": 6830
      },
      {
        "length": 32,
        "start": 6878
      },
      {
        "length": 32,
        "start": 7286
      },
      {
        "length": 32,
        "start": 7643
      },
      {
        "length": 32,
        "start": 8426
      },
      {
        "length": 32,
        "start": 8810
      },
      {
        "length": 32,
        "start": 11105
      },
      {
        "length": 32,
        "start": 11172
      },
      {
        "length": 32,
        "start": 12263
      },
      {
        "length": 32,
        "start": 12448
      },
      {
        "length": 32,
        "start": 12627
      }
    ],
    "1679": [
      {
        "length": 32,
        "start": 344
      },
      {
        "length": 32,
        "start": 2643
      },
      {
        "length": 32,
        "start": 2702
      },
      {
        "length": 32,
        "start": 2967
      },
      {
        "length": 32,
        "start": 3527
      },
      {
        "length": 32,
        "start": 4494
      },
      {
        "length": 32,
        "start": 4940
      },
      {
        "length": 32,
        "start": 5284
      },
      {
        "length": 32,
        "start": 5420
      },
      {
        "length": 32,
        "start": 6048
      },
      {
        "length": 32,
        "start": 6912
      },
      {
        "length": 32,
        "start": 7591
      },
      {
        "length": 32,
        "start": 7677
      },
      {
        "length": 32,
        "start": 7729
      },
      {
        "length": 32,
        "start": 7845
      },
      {
        "length": 32,
        "start": 8261
      },
      {
        "length": 32,
        "start": 8624
      },
      {
        "length": 32,
        "start": 8760
      }
    ]
  },
  "source": "// SPDX-License-Identifier: MIT\npragma solidity =0.7.5;\n\nimport './libraries/TransferHelper.sol';\nimport './libraries/MainLibrary.sol';\n\nimport './interfaces/IUniswapV2Factory.sol';\nimport './interfaces/IUniswapV2Router01.sol';\nimport './interfaces/IERC20.sol';\nimport './interfaces/IWETH.sol';\n\ncontract RouterV1 is IUniswapV2Router01 {\n    address public immutable override factory;\n    address public immutable override WETH;\n\n    modifier ensure(uint deadline) {\n        require(deadline >= block.timestamp, 'RouterV1: EXPIRED');\n        _;\n    }\n\n    constructor(address _factory, address _WETH) {\n        factory = _factory;\n        WETH = _WETH;\n    }\n\n    receive() external payable {\n        assert(msg.sender == WETH); // only accept ETH via fallback from the WETH contract\n    }\n\n    // **** ADD LIQUIDITY ****\n    function _addLiquidity(\n        address tokenA,\n        address tokenB,\n        uint amountADesired,\n        uint amountBDesired,\n        uint amountAMin,\n        uint amountBMin\n    ) private returns (uint amountA, uint amountB) {\n        // create the pair if it doesn't exist yet\n        if (IUniswapV2Factory(factory).getPair(tokenA, tokenB) == address(0)) {\n            IUniswapV2Factory(factory).createPair(tokenA, tokenB);\n        }\n        (uint reserveA, uint reserveB) = MainLibrary.getReserves(factory, tokenA, tokenB);\n        if (reserveA == 0 && reserveB == 0) {\n            (amountA, amountB) = (amountADesired, amountBDesired);\n        } else {\n            uint amountBOptimal = MainLibrary.quote(amountADesired, reserveA, reserveB);\n            if (amountBOptimal <= amountBDesired) {\n                require(amountBOptimal >= amountBMin, 'RouterV1: INSUFFICIENT_B_AMOUNT');\n                (amountA, amountB) = (amountADesired, amountBOptimal);\n            } else {\n                uint amountAOptimal = MainLibrary.quote(amountBDesired, reserveB, reserveA);\n                assert(amountAOptimal <= amountADesired);\n                require(amountAOptimal >= amountAMin, 'RouterV1: INSUFFICIENT_A_AMOUNT');\n                (amountA, amountB) = (amountAOptimal, amountBDesired);\n            }\n        }\n    }\n    function addLiquidity(\n        address tokenA,\n        address tokenB,\n        uint amountADesired,\n        uint amountBDesired,\n        uint amountAMin,\n        uint amountBMin,\n        address to,\n        uint deadline\n    ) external override ensure(deadline) returns (uint amountA, uint amountB, uint liquidity) {\n        (amountA, amountB) = _addLiquidity(tokenA, tokenB, amountADesired, amountBDesired, amountAMin, amountBMin);\n        address pair = MainLibrary.pairFor(factory, tokenA, tokenB);\n        TransferHelper.safeTransferFrom(tokenA, msg.sender, pair, amountA);\n        TransferHelper.safeTransferFrom(tokenB, msg.sender, pair, amountB);\n        liquidity = IUniswapV2Pair(pair).mint(to);\n    }\n    function addLiquidityETH(\n        address token,\n        uint amountTokenDesired,\n        uint amountTokenMin,\n        uint amountETHMin,\n        address to,\n        uint deadline\n    ) external override payable ensure(deadline) returns (uint amountToken, uint amountETH, uint liquidity) {\n        (amountToken, amountETH) = _addLiquidity(\n            token,\n            WETH,\n            amountTokenDesired,\n            msg.value,\n            amountTokenMin,\n            amountETHMin\n        );\n        address pair = MainLibrary.pairFor(factory, token, WETH);\n        TransferHelper.safeTransferFrom(token, msg.sender, pair, amountToken);\n        IWETH(WETH).deposit{value: amountETH}();\n        assert(IWETH(WETH).transfer(pair, amountETH));\n        liquidity = IUniswapV2Pair(pair).mint(to);\n        if (msg.value > amountETH) TransferHelper.safeTransferETH(msg.sender, msg.value - amountETH); // refund dust eth, if any\n    }\n\n    // **** REMOVE LIQUIDITY ****\n    function removeLiquidity(\n        address tokenA,\n        address tokenB,\n        uint liquidity,\n        uint amountAMin,\n        uint amountBMin,\n        address to,\n        uint deadline\n    ) public override ensure(deadline) returns (uint amountA, uint amountB) {\n        address pair = MainLibrary.pairFor(factory, tokenA, tokenB);\n        IUniswapV2Pair(pair).transferFrom(msg.sender, pair, liquidity); // send liquidity to pair\n        (uint amount0, uint amount1) = IUniswapV2Pair(pair).burn(to);\n        (address token0,) = MainLibrary.sortTokens(tokenA, tokenB);\n        (amountA, amountB) = tokenA == token0 ? (amount0, amount1) : (amount1, amount0);\n        require(amountA >= amountAMin, 'RouterV1: INSUFFICIENT_A_AMOUNT');\n        require(amountB >= amountBMin, 'RouterV1: INSUFFICIENT_B_AMOUNT');\n    }\n    function removeLiquidityETH(\n        address token,\n        uint liquidity,\n        uint amountTokenMin,\n        uint amountETHMin,\n        address to,\n        uint deadline\n    ) public override ensure(deadline) returns (uint amountToken, uint amountETH) {\n        (amountToken, amountETH) = removeLiquidity(\n            token,\n            WETH,\n            liquidity,\n            amountTokenMin,\n            amountETHMin,\n            address(this),\n            deadline\n        );\n        TransferHelper.safeTransfer(token, to, amountToken);\n        IWETH(WETH).withdraw(amountETH);\n        TransferHelper.safeTransferETH(to, amountETH);\n    }\n    function removeLiquidityWithPermit(\n        address tokenA,\n        address tokenB,\n        uint liquidity,\n        uint amountAMin,\n        uint amountBMin,\n        address to,\n        uint deadline,\n        bool approveMax, uint8 v, bytes32 r, bytes32 s\n    ) external override returns (uint amountA, uint amountB) {\n        address pair = MainLibrary.pairFor(factory, tokenA, tokenB);\n        uint value = approveMax ? uint(-1) : liquidity;\n        IUniswapV2Pair(pair).permit(msg.sender, address(this), value, deadline, v, r, s);\n        (amountA, amountB) = removeLiquidity(tokenA, tokenB, liquidity, amountAMin, amountBMin, to, deadline);\n    }\n    function removeLiquidityETHWithPermit(\n        address token,\n        uint liquidity,\n        uint amountTokenMin,\n        uint amountETHMin,\n        address to,\n        uint deadline,\n        bool approveMax, uint8 v, bytes32 r, bytes32 s\n    ) external override returns (uint amountToken, uint amountETH) {\n        address pair = MainLibrary.pairFor(factory, token, WETH);\n        uint value = approveMax ? uint(-1) : liquidity;\n        IUniswapV2Pair(pair).permit(msg.sender, address(this), value, deadline, v, r, s);\n        (amountToken, amountETH) = removeLiquidityETH(token, liquidity, amountTokenMin, amountETHMin, to, deadline);\n    }\n\n    // **** SWAP ****\n    // requires the initial amount to have already been sent to the first pair\n    function _swap(uint[] memory amounts, address[] memory path, address _to) private {\n        for (uint i; i < path.length - 1; i++) {\n            (address input, address output) = (path[i], path[i + 1]);\n            (address token0,) = MainLibrary.sortTokens(input, output);\n            uint amountOut = amounts[i + 1];\n            (uint amount0Out, uint amount1Out) = input == token0 ? (uint(0), amountOut) : (amountOut, uint(0));\n            address to = i < path.length - 2 ? MainLibrary.pairFor(factory, output, path[i + 2]) : _to;\n            IUniswapV2Pair(MainLibrary.pairFor(factory, input, output)).swap(amount0Out, amount1Out, to, new bytes(0));\n        }\n    }\n    function swapExactTokensForTokens(\n        uint amountIn,\n        uint amountOutMin,\n        address[] calldata path,\n        address to,\n        uint deadline\n    ) external override ensure(deadline) returns (uint[] memory amounts) {\n        amounts = MainLibrary.getAmountsOut(factory, amountIn, path);\n        require(amounts[amounts.length - 1] >= amountOutMin, 'RouterV1: INSUFFICIENT_OUTPUT_AMOUNT');\n        TransferHelper.safeTransferFrom(path[0], msg.sender, MainLibrary.pairFor(factory, path[0], path[1]), amounts[0]);\n        _swap(amounts, path, to);\n    }\n    function swapTokensForExactTokens(\n        uint amountOut,\n        uint amountInMax,\n        address[] calldata path,\n        address to,\n        uint deadline\n    ) external override ensure(deadline) returns (uint[] memory amounts) {\n        amounts = MainLibrary.getAmountsIn(factory, amountOut, path);\n        require(amounts[0] <= amountInMax, 'RouterV1: EXCESSIVE_INPUT_AMOUNT');\n        TransferHelper.safeTransferFrom(path[0], msg.sender, MainLibrary.pairFor(factory, path[0], path[1]), amounts[0]);\n        _swap(amounts, path, to);\n    }\n    function swapExactETHForTokens(uint amountOutMin, address[] calldata path, address to, uint deadline)\n        external\n        override\n        payable\n        ensure(deadline)\n        returns (uint[] memory amounts)\n    {\n        require(path[0] == WETH, 'RouterV1: INVALID_PATH');\n        amounts = MainLibrary.getAmountsOut(factory, msg.value, path);\n        require(amounts[amounts.length - 1] >= amountOutMin, 'RouterV1: INSUFFICIENT_OUTPUT_AMOUNT');\n        IWETH(WETH).deposit{value: amounts[0]}();\n        assert(IWETH(WETH).transfer(MainLibrary.pairFor(factory, path[0], path[1]), amounts[0]));\n        _swap(amounts, path, to);\n    }\n    function swapTokensForExactETH(uint amountOut, uint amountInMax, address[] calldata path, address to, uint deadline)\n        external\n        override\n        ensure(deadline)\n        returns (uint[] memory amounts)\n    {\n        require(path[path.length - 1] == WETH, 'RouterV1: INVALID_PATH');\n        amounts = MainLibrary.getAmountsIn(factory, amountOut, path);\n        require(amounts[0] <= amountInMax, 'RouterV1: EXCESSIVE_INPUT_AMOUNT');\n        TransferHelper.safeTransferFrom(path[0], msg.sender, MainLibrary.pairFor(factory, path[0], path[1]), amounts[0]);\n        _swap(amounts, path, address(this));\n        IWETH(WETH).withdraw(amounts[amounts.length - 1]);\n        TransferHelper.safeTransferETH(to, amounts[amounts.length - 1]);\n    }\n    function swapExactTokensForETH(uint amountIn, uint amountOutMin, address[] calldata path, address to, uint deadline)\n        external\n        override\n        ensure(deadline)\n        returns (uint[] memory amounts)\n    {\n        require(path[path.length - 1] == WETH, 'RouterV1: INVALID_PATH');\n        amounts = MainLibrary.getAmountsOut(factory, amountIn, path);\n        require(amounts[amounts.length - 1] >= amountOutMin, 'RouterV1: INSUFFICIENT_OUTPUT_AMOUNT');\n        TransferHelper.safeTransferFrom(path[0], msg.sender, MainLibrary.pairFor(factory, path[0], path[1]), amounts[0]);\n        _swap(amounts, path, address(this));\n        IWETH(WETH).withdraw(amounts[amounts.length - 1]);\n        TransferHelper.safeTransferETH(to, amounts[amounts.length - 1]);\n    }\n    function swapETHForExactTokens(uint amountOut, address[] calldata path, address to, uint deadline)\n        external\n        override\n        payable\n        ensure(deadline)\n        returns (uint[] memory amounts)\n    {\n        require(path[0] == WETH, 'RouterV1: INVALID_PATH');\n        amounts = MainLibrary.getAmountsIn(factory, amountOut, path);\n        require(amounts[0] <= msg.value, 'RouterV1: EXCESSIVE_INPUT_AMOUNT');\n        IWETH(WETH).deposit{value: amounts[0]}();\n        assert(IWETH(WETH).transfer(MainLibrary.pairFor(factory, path[0], path[1]), amounts[0]));\n        _swap(amounts, path, to);\n        if (msg.value > amounts[0]) TransferHelper.safeTransferETH(msg.sender, msg.value - amounts[0]); // refund dust eth, if any\n    }\n\n    function quote(uint amountA, uint reserveA, uint reserveB) public pure override returns (uint amountB) {\n        return MainLibrary.quote(amountA, reserveA, reserveB);\n    }\n\n    function getAmountOut(uint amountIn, uint reserveIn, uint reserveOut) public pure override returns (uint amountOut) {\n        return MainLibrary.getAmountOut(amountIn, reserveIn, reserveOut);\n    }\n\n    function getAmountIn(uint amountOut, uint reserveIn, uint reserveOut) public pure override returns (uint amountIn) {\n        return MainLibrary.getAmountOut(amountOut, reserveIn, reserveOut);\n    }\n\n    function getAmountsOut(uint amountIn, address[] memory path) public view override returns (uint[] memory amounts) {\n        return MainLibrary.getAmountsOut(factory, amountIn, path);\n    }\n\n    function getAmountsIn(uint amountOut, address[] memory path) public view override returns (uint[] memory amounts) {\n        return MainLibrary.getAmountsIn(factory, amountOut, path);\n    }\n}\n",
  "sourcePath": "/home/user/Github/solidity/core/contracts/RouterV1.sol",
  "compiler": {
    "name": "solc",
    "version": "0.7.5+commit.eb77ed08.Emscripten.clang"
  },
  "schemaVersion": "3.4.3",
  "updatedAt": "2021-11-19T08:57:59.281Z",
  "devdoc": {
    "kind": "dev",
    "methods": {},
    "version": 1
  },
  "userdoc": {
    "kind": "user",
    "methods": {},
    "version": 1
  }
}