{
  "contractName": "RouterV2",
  "abi": [
    {
      "inputs": [
        {
          "internalType": "address",
          "name": "_factory",
          "type": "address"
        },
        {
          "internalType": "address",
          "name": "_WETH",
          "type": "address"
        }
      ],
      "stateMutability": "nonpayable",
      "type": "constructor"
    },
    {
      "inputs": [],
      "name": "WETH",
      "outputs": [
        {
          "internalType": "address",
          "name": "",
          "type": "address"
        }
      ],
      "stateMutability": "view",
      "type": "function"
    },
    {
      "inputs": [],
      "name": "factory",
      "outputs": [
        {
          "internalType": "address",
          "name": "",
          "type": "address"
        }
      ],
      "stateMutability": "view",
      "type": "function"
    },
    {
      "stateMutability": "payable",
      "type": "receive"
    },
    {
      "inputs": [
        {
          "internalType": "address",
          "name": "tokenA",
          "type": "address"
        },
        {
          "internalType": "address",
          "name": "tokenB",
          "type": "address"
        },
        {
          "internalType": "uint256",
          "name": "amountADesired",
          "type": "uint256"
        },
        {
          "internalType": "uint256",
          "name": "amountBDesired",
          "type": "uint256"
        },
        {
          "internalType": "uint256",
          "name": "amountAMin",
          "type": "uint256"
        },
        {
          "internalType": "uint256",
          "name": "amountBMin",
          "type": "uint256"
        },
        {
          "internalType": "address",
          "name": "to",
          "type": "address"
        },
        {
          "internalType": "uint256",
          "name": "deadline",
          "type": "uint256"
        }
      ],
      "name": "addLiquidity",
      "outputs": [
        {
          "internalType": "uint256",
          "name": "amountA",
          "type": "uint256"
        },
        {
          "internalType": "uint256",
          "name": "amountB",
          "type": "uint256"
        },
        {
          "internalType": "uint256",
          "name": "liquidity",
          "type": "uint256"
        }
      ],
      "stateMutability": "nonpayable",
      "type": "function"
    },
    {
      "inputs": [
        {
          "internalType": "address",
          "name": "token",
          "type": "address"
        },
        {
          "internalType": "uint256",
          "name": "amountTokenDesired",
          "type": "uint256"
        },
        {
          "internalType": "uint256",
          "name": "amountTokenMin",
          "type": "uint256"
        },
        {
          "internalType": "uint256",
          "name": "amountETHMin",
          "type": "uint256"
        },
        {
          "internalType": "address",
          "name": "to",
          "type": "address"
        },
        {
          "internalType": "uint256",
          "name": "deadline",
          "type": "uint256"
        }
      ],
      "name": "addLiquidityETH",
      "outputs": [
        {
          "internalType": "uint256",
          "name": "amountToken",
          "type": "uint256"
        },
        {
          "internalType": "uint256",
          "name": "amountETH",
          "type": "uint256"
        },
        {
          "internalType": "uint256",
          "name": "liquidity",
          "type": "uint256"
        }
      ],
      "stateMutability": "payable",
      "type": "function"
    },
    {
      "inputs": [
        {
          "internalType": "address",
          "name": "tokenA",
          "type": "address"
        },
        {
          "internalType": "address",
          "name": "tokenB",
          "type": "address"
        },
        {
          "internalType": "uint256",
          "name": "liquidity",
          "type": "uint256"
        },
        {
          "internalType": "uint256",
          "name": "amountAMin",
          "type": "uint256"
        },
        {
          "internalType": "uint256",
          "name": "amountBMin",
          "type": "uint256"
        },
        {
          "internalType": "address",
          "name": "to",
          "type": "address"
        },
        {
          "internalType": "uint256",
          "name": "deadline",
          "type": "uint256"
        }
      ],
      "name": "removeLiquidity",
      "outputs": [
        {
          "internalType": "uint256",
          "name": "amountA",
          "type": "uint256"
        },
        {
          "internalType": "uint256",
          "name": "amountB",
          "type": "uint256"
        }
      ],
      "stateMutability": "nonpayable",
      "type": "function"
    },
    {
      "inputs": [
        {
          "internalType": "address",
          "name": "token",
          "type": "address"
        },
        {
          "internalType": "uint256",
          "name": "liquidity",
          "type": "uint256"
        },
        {
          "internalType": "uint256",
          "name": "amountTokenMin",
          "type": "uint256"
        },
        {
          "internalType": "uint256",
          "name": "amountETHMin",
          "type": "uint256"
        },
        {
          "internalType": "address",
          "name": "to",
          "type": "address"
        },
        {
          "internalType": "uint256",
          "name": "deadline",
          "type": "uint256"
        }
      ],
      "name": "removeLiquidityETH",
      "outputs": [
        {
          "internalType": "uint256",
          "name": "amountToken",
          "type": "uint256"
        },
        {
          "internalType": "uint256",
          "name": "amountETH",
          "type": "uint256"
        }
      ],
      "stateMutability": "nonpayable",
      "type": "function"
    },
    {
      "inputs": [
        {
          "internalType": "address",
          "name": "tokenA",
          "type": "address"
        },
        {
          "internalType": "address",
          "name": "tokenB",
          "type": "address"
        },
        {
          "internalType": "uint256",
          "name": "liquidity",
          "type": "uint256"
        },
        {
          "internalType": "uint256",
          "name": "amountAMin",
          "type": "uint256"
        },
        {
          "internalType": "uint256",
          "name": "amountBMin",
          "type": "uint256"
        },
        {
          "internalType": "address",
          "name": "to",
          "type": "address"
        },
        {
          "internalType": "uint256",
          "name": "deadline",
          "type": "uint256"
        },
        {
          "internalType": "bool",
          "name": "approveMax",
          "type": "bool"
        },
        {
          "internalType": "uint8",
          "name": "v",
          "type": "uint8"
        },
        {
          "internalType": "bytes32",
          "name": "r",
          "type": "bytes32"
        },
        {
          "internalType": "bytes32",
          "name": "s",
          "type": "bytes32"
        }
      ],
      "name": "removeLiquidityWithPermit",
      "outputs": [
        {
          "internalType": "uint256",
          "name": "amountA",
          "type": "uint256"
        },
        {
          "internalType": "uint256",
          "name": "amountB",
          "type": "uint256"
        }
      ],
      "stateMutability": "nonpayable",
      "type": "function"
    },
    {
      "inputs": [
        {
          "internalType": "address",
          "name": "token",
          "type": "address"
        },
        {
          "internalType": "uint256",
          "name": "liquidity",
          "type": "uint256"
        },
        {
          "internalType": "uint256",
          "name": "amountTokenMin",
          "type": "uint256"
        },
        {
          "internalType": "uint256",
          "name": "amountETHMin",
          "type": "uint256"
        },
        {
          "internalType": "address",
          "name": "to",
          "type": "address"
        },
        {
          "internalType": "uint256",
          "name": "deadline",
          "type": "uint256"
        },
        {
          "internalType": "bool",
          "name": "approveMax",
          "type": "bool"
        },
        {
          "internalType": "uint8",
          "name": "v",
          "type": "uint8"
        },
        {
          "internalType": "bytes32",
          "name": "r",
          "type": "bytes32"
        },
        {
          "internalType": "bytes32",
          "name": "s",
          "type": "bytes32"
        }
      ],
      "name": "removeLiquidityETHWithPermit",
      "outputs": [
        {
          "internalType": "uint256",
          "name": "amountToken",
          "type": "uint256"
        },
        {
          "internalType": "uint256",
          "name": "amountETH",
          "type": "uint256"
        }
      ],
      "stateMutability": "nonpayable",
      "type": "function"
    },
    {
      "inputs": [
        {
          "internalType": "address",
          "name": "token",
          "type": "address"
        },
        {
          "internalType": "uint256",
          "name": "liquidity",
          "type": "uint256"
        },
        {
          "internalType": "uint256",
          "name": "amountTokenMin",
          "type": "uint256"
        },
        {
          "internalType": "uint256",
          "name": "amountETHMin",
          "type": "uint256"
        },
        {
          "internalType": "address",
          "name": "to",
          "type": "address"
        },
        {
          "internalType": "uint256",
          "name": "deadline",
          "type": "uint256"
        }
      ],
      "name": "removeLiquidityETHSupportingFeeOnTransferTokens",
      "outputs": [
        {
          "internalType": "uint256",
          "name": "amountETH",
          "type": "uint256"
        }
      ],
      "stateMutability": "nonpayable",
      "type": "function"
    },
    {
      "inputs": [
        {
          "internalType": "address",
          "name": "token",
          "type": "address"
        },
        {
          "internalType": "uint256",
          "name": "liquidity",
          "type": "uint256"
        },
        {
          "internalType": "uint256",
          "name": "amountTokenMin",
          "type": "uint256"
        },
        {
          "internalType": "uint256",
          "name": "amountETHMin",
          "type": "uint256"
        },
        {
          "internalType": "address",
          "name": "to",
          "type": "address"
        },
        {
          "internalType": "uint256",
          "name": "deadline",
          "type": "uint256"
        },
        {
          "internalType": "bool",
          "name": "approveMax",
          "type": "bool"
        },
        {
          "internalType": "uint8",
          "name": "v",
          "type": "uint8"
        },
        {
          "internalType": "bytes32",
          "name": "r",
          "type": "bytes32"
        },
        {
          "internalType": "bytes32",
          "name": "s",
          "type": "bytes32"
        }
      ],
      "name": "removeLiquidityETHWithPermitSupportingFeeOnTransferTokens",
      "outputs": [
        {
          "internalType": "uint256",
          "name": "amountETH",
          "type": "uint256"
        }
      ],
      "stateMutability": "nonpayable",
      "type": "function"
    },
    {
      "inputs": [
        {
          "internalType": "uint256",
          "name": "amountIn",
          "type": "uint256"
        },
        {
          "internalType": "uint256",
          "name": "amountOutMin",
          "type": "uint256"
        },
        {
          "internalType": "address[]",
          "name": "path",
          "type": "address[]"
        },
        {
          "internalType": "address",
          "name": "to",
          "type": "address"
        },
        {
          "internalType": "uint256",
          "name": "deadline",
          "type": "uint256"
        }
      ],
      "name": "swapExactTokensForTokens",
      "outputs": [
        {
          "internalType": "uint256[]",
          "name": "amounts",
          "type": "uint256[]"
        }
      ],
      "stateMutability": "nonpayable",
      "type": "function"
    },
    {
      "inputs": [
        {
          "internalType": "uint256",
          "name": "amountOut",
          "type": "uint256"
        },
        {
          "internalType": "uint256",
          "name": "amountInMax",
          "type": "uint256"
        },
        {
          "internalType": "address[]",
          "name": "path",
          "type": "address[]"
        },
        {
          "internalType": "address",
          "name": "to",
          "type": "address"
        },
        {
          "internalType": "uint256",
          "name": "deadline",
          "type": "uint256"
        }
      ],
      "name": "swapTokensForExactTokens",
      "outputs": [
        {
          "internalType": "uint256[]",
          "name": "amounts",
          "type": "uint256[]"
        }
      ],
      "stateMutability": "nonpayable",
      "type": "function"
    },
    {
      "inputs": [
        {
          "internalType": "uint256",
          "name": "amountOutMin",
          "type": "uint256"
        },
        {
          "internalType": "address[]",
          "name": "path",
          "type": "address[]"
        },
        {
          "internalType": "address",
          "name": "to",
          "type": "address"
        },
        {
          "internalType": "uint256",
          "name": "deadline",
          "type": "uint256"
        }
      ],
      "name": "swapExactETHForTokens",
      "outputs": [
        {
          "internalType": "uint256[]",
          "name": "amounts",
          "type": "uint256[]"
        }
      ],
      "stateMutability": "payable",
      "type": "function"
    },
    {
      "inputs": [
        {
          "internalType": "uint256",
          "name": "amountOut",
          "type": "uint256"
        },
        {
          "internalType": "uint256",
          "name": "amountInMax",
          "type": "uint256"
        },
        {
          "internalType": "address[]",
          "name": "path",
          "type": "address[]"
        },
        {
          "internalType": "address",
          "name": "to",
          "type": "address"
        },
        {
          "internalType": "uint256",
          "name": "deadline",
          "type": "uint256"
        }
      ],
      "name": "swapTokensForExactETH",
      "outputs": [
        {
          "internalType": "uint256[]",
          "name": "amounts",
          "type": "uint256[]"
        }
      ],
      "stateMutability": "nonpayable",
      "type": "function"
    },
    {
      "inputs": [
        {
          "internalType": "uint256",
          "name": "amountIn",
          "type": "uint256"
        },
        {
          "internalType": "uint256",
          "name": "amountOutMin",
          "type": "uint256"
        },
        {
          "internalType": "address[]",
          "name": "path",
          "type": "address[]"
        },
        {
          "internalType": "address",
          "name": "to",
          "type": "address"
        },
        {
          "internalType": "uint256",
          "name": "deadline",
          "type": "uint256"
        }
      ],
      "name": "swapExactTokensForETH",
      "outputs": [
        {
          "internalType": "uint256[]",
          "name": "amounts",
          "type": "uint256[]"
        }
      ],
      "stateMutability": "nonpayable",
      "type": "function"
    },
    {
      "inputs": [
        {
          "internalType": "uint256",
          "name": "amountOut",
          "type": "uint256"
        },
        {
          "internalType": "address[]",
          "name": "path",
          "type": "address[]"
        },
        {
          "internalType": "address",
          "name": "to",
          "type": "address"
        },
        {
          "internalType": "uint256",
          "name": "deadline",
          "type": "uint256"
        }
      ],
      "name": "swapETHForExactTokens",
      "outputs": [
        {
          "internalType": "uint256[]",
          "name": "amounts",
          "type": "uint256[]"
        }
      ],
      "stateMutability": "payable",
      "type": "function"
    },
    {
      "inputs": [
        {
          "internalType": "uint256",
          "name": "amountIn",
          "type": "uint256"
        },
        {
          "internalType": "uint256",
          "name": "amountOutMin",
          "type": "uint256"
        },
        {
          "internalType": "address[]",
          "name": "path",
          "type": "address[]"
        },
        {
          "internalType": "address",
          "name": "to",
          "type": "address"
        },
        {
          "internalType": "uint256",
          "name": "deadline",
          "type": "uint256"
        }
      ],
      "name": "swapExactTokensForTokensSupportingFeeOnTransferTokens",
      "outputs": [],
      "stateMutability": "nonpayable",
      "type": "function"
    },
    {
      "inputs": [
        {
          "internalType": "uint256",
          "name": "amountOutMin",
          "type": "uint256"
        },
        {
          "internalType": "address[]",
          "name": "path",
          "type": "address[]"
        },
        {
          "internalType": "address",
          "name": "to",
          "type": "address"
        },
        {
          "internalType": "uint256",
          "name": "deadline",
          "type": "uint256"
        }
      ],
      "name": "swapExactETHForTokensSupportingFeeOnTransferTokens",
      "outputs": [],
      "stateMutability": "payable",
      "type": "function"
    },
    {
      "inputs": [
        {
          "internalType": "uint256",
          "name": "amountIn",
          "type": "uint256"
        },
        {
          "internalType": "uint256",
          "name": "amountOutMin",
          "type": "uint256"
        },
        {
          "internalType": "address[]",
          "name": "path",
          "type": "address[]"
        },
        {
          "internalType": "address",
          "name": "to",
          "type": "address"
        },
        {
          "internalType": "uint256",
          "name": "deadline",
          "type": "uint256"
        }
      ],
      "name": "swapExactTokensForETHSupportingFeeOnTransferTokens",
      "outputs": [],
      "stateMutability": "nonpayable",
      "type": "function"
    },
    {
      "inputs": [
        {
          "internalType": "uint256",
          "name": "amountA",
          "type": "uint256"
        },
        {
          "internalType": "uint256",
          "name": "reserveA",
          "type": "uint256"
        },
        {
          "internalType": "uint256",
          "name": "reserveB",
          "type": "uint256"
        }
      ],
      "name": "quote",
      "outputs": [
        {
          "internalType": "uint256",
          "name": "amountB",
          "type": "uint256"
        }
      ],
      "stateMutability": "pure",
      "type": "function"
    },
    {
      "inputs": [
        {
          "internalType": "address",
          "name": "_factory",
          "type": "address"
        },
        {
          "internalType": "uint256",
          "name": "amountIn",
          "type": "uint256"
        },
        {
          "internalType": "uint256",
          "name": "reserveIn",
          "type": "uint256"
        },
        {
          "internalType": "uint256",
          "name": "reserveOut",
          "type": "uint256"
        }
      ],
      "name": "getAmountOut",
      "outputs": [
        {
          "internalType": "uint256",
          "name": "amountOut",
          "type": "uint256"
        }
      ],
      "stateMutability": "nonpayable",
      "type": "function"
    },
    {
      "inputs": [
        {
          "internalType": "address",
          "name": "_factory",
          "type": "address"
        },
        {
          "internalType": "uint256",
          "name": "amountOut",
          "type": "uint256"
        },
        {
          "internalType": "uint256",
          "name": "reserveIn",
          "type": "uint256"
        },
        {
          "internalType": "uint256",
          "name": "reserveOut",
          "type": "uint256"
        }
      ],
      "name": "getAmountIn",
      "outputs": [
        {
          "internalType": "uint256",
          "name": "amountIn",
          "type": "uint256"
        }
      ],
      "stateMutability": "nonpayable",
      "type": "function"
    },
    {
      "inputs": [
        {
          "internalType": "uint256",
          "name": "amountIn",
          "type": "uint256"
        },
        {
          "internalType": "address[]",
          "name": "path",
          "type": "address[]"
        }
      ],
      "name": "getAmountsOut",
      "outputs": [
        {
          "internalType": "uint256[]",
          "name": "amounts",
          "type": "uint256[]"
        }
      ],
      "stateMutability": "nonpayable",
      "type": "function"
    },
    {
      "inputs": [
        {
          "internalType": "uint256",
          "name": "amountOut",
          "type": "uint256"
        },
        {
          "internalType": "address[]",
          "name": "path",
          "type": "address[]"
        }
      ],
      "name": "getAmountsIn",
      "outputs": [
        {
          "internalType": "uint256[]",
          "name": "amounts",
          "type": "uint256[]"
        }
      ],
      "stateMutability": "nonpayable",
      "type": "function"
    }
  ],
  "bytecode": "0x60c06040523480156200001157600080fd5b5060405162005af638038062005af6833981016040819052620000349162000070565b6001600160601b0319606092831b8116608052911b1660a052620000a7565b80516001600160a01b03811681146200006b57600080fd5b919050565b6000806040838503121562000083578182fd5b6200008e8362000053565b91506200009e6020840162000053565b90509250929050565b60805160601c60a05160601c6158b062000246600039600081816101ac01528181610557015281816105cd0152818161069e015281816109ec01528181610e820152818161104c01528181611543015281816116c3015281816117c10152818161187101528181611a2b01528181611aed01528181611dcc01528181611e4601528181611f5f0152818161200d015281816120e50152818161216601528181612753015281816129f401528181612a4a01528181612a7e01528181612b3701528181612d0401528181612eb20152612f74015260008181610768015281816108a201528181610b2b01528181610b6401528181610cb901528181610f4c0152818161102a015281816111e60152818161194701528181611b2c01528181611cf4015281816121a50152818161249d015281816126d80152818161270101528181612731015281816128b801528181612a2801528181612dda01528181612fb301528181613950015281816139c701528181613f120152818161406b015281816140ff015281816145370152818161462c01526146bf01526158b06000f3fe60806040526004361061018f5760003560e01c80638803dbee116100d6578063c45a01551161007f578063e8e3370011610059578063e8e33700146104b5578063f305d719146104e4578063fb3bdb41146104f757610202565b8063c45a015514610460578063d06ca61f14610475578063ded9382a1461049557610202565b8063af2979eb116100b0578063af2979eb1461040d578063b6f9de951461042d578063baa2abde1461044057610202565b80638803dbee146103ab578063ad5c4648146103cb578063ad615dec146103ed57610202565b80634a25d94a1161013857806376a41c5c1161011257806376a41c5c14610358578063791ac947146103785780637ff36ab51461039857610202565b80634a25d94a146102f85780635b0d5984146103185780635c11d7951461033857610202565b80632195995c116101695780632195995c1461028b57806338ed1739146102ab5780634327e8b5146102cb57610202565b806302751cec1461020757806318cbafe51461023e5780631f00ca741461026b57610202565b36610202573373ffffffffffffffffffffffffffffffffffffffff7f00000000000000000000000000000000000000000000000000000000000000001614610200577f4e487b7100000000000000000000000000000000000000000000000000000000600052600160045260246000fd5b005b600080fd5b34801561021357600080fd5b50610227610222366004614c36565b61050a565b60405161023592919061560a565b60405180910390f35b34801561024a57600080fd5b5061025e610259366004614eff565b61064a565b60405161023591906150a4565b34801561027757600080fd5b5061025e610286366004614e0f565b610b24565b34801561029757600080fd5b506102276102a6366004614ad8565b610b5a565b3480156102b757600080fd5b5061025e6102c6366004614eff565b610c77565b3480156102d757600080fd5b506102eb6102e6366004614bfc565b610e17565b6040516102359190615601565b34801561030457600080fd5b5061025e610313366004614eff565b610e2e565b34801561032457600080fd5b506102eb610333366004614c93565b611022565b34801561034457600080fd5b50610200610353366004614eff565b611153565b34801561036457600080fd5b506102eb610373366004614bfc565b6114e3565b34801561038457600080fd5b50610200610393366004614eff565b6114f1565b61025e6103a6366004614daa565b611832565b3480156103b757600080fd5b5061025e6103c6366004614eff565b611cb2565b3480156103d757600080fd5b506103e0611dca565b6040516102359190614fb7565b3480156103f957600080fd5b506102eb610408366004614f70565b611dee565b34801561041957600080fd5b506102eb610428366004614c36565b611e03565b61020061043b366004614daa565b611fd0565b34801561044c57600080fd5b5061022761045b366004614a67565b612458565b34801561046c57600080fd5b506103e06126d6565b34801561048157600080fd5b5061025e610490366004614e0f565b6126fa565b3480156104a157600080fd5b506102276104b0366004614c93565b612727565b3480156104c157600080fd5b506104d56104d0366004614b81565b61285e565b60405161023593929190615694565b6104d56104f2366004614c36565b6129ae565b61025e610505366004614daa565b612cc5565b6000808242811015610551576040517f08c379a000000000000000000000000000000000000000000000000000000000815260040161054890615536565b60405180910390fd5b610580897f00000000000000000000000000000000000000000000000000000000000000008a8a8a308a612458565b90935091506105908986856131c9565b6040517f2e1a7d4d00000000000000000000000000000000000000000000000000000000815273ffffffffffffffffffffffffffffffffffffffff7f00000000000000000000000000000000000000000000000000000000000000001690632e1a7d4d90610602908590600401615601565b600060405180830381600087803b15801561061c57600080fd5b505af1158015610630573d6000803e3d6000fd5b5050505061063e85836132f2565b50965096945050505050565b60608142811015610687576040517f08c379a000000000000000000000000000000000000000000000000000000000815260040161054890615536565b73ffffffffffffffffffffffffffffffffffffffff7f00000000000000000000000000000000000000000000000000000000000000001686866106cb600182615738565b818110610701577f4e487b7100000000000000000000000000000000000000000000000000000000600052603260045260246000fd5b90506020020160208101906107169190614a28565b73ffffffffffffffffffffffffffffffffffffffff1614610763576040517f08c379a000000000000000000000000000000000000000000000000000000000815260040161054890615356565b6107c17f0000000000000000000000000000000000000000000000000000000000000000898888808060200260200160405190810160405280939291908181526020018383602002808284376000920191909152506133ab92505050565b91508682600184516107d39190615738565b8151811061080a577f4e487b7100000000000000000000000000000000000000000000000000000000600052603260045260246000fd5b6020026020010151101561084a576040517f08c379a00000000000000000000000000000000000000000000000000000000081526004016105489061541f565b6109ab86866000818110610887577f4e487b7100000000000000000000000000000000000000000000000000000000600052603260045260246000fd5b905060200201602081019061089c9190614a28565b336109647f00000000000000000000000000000000000000000000000000000000000000008a8a60008181106108fb577f4e487b7100000000000000000000000000000000000000000000000000000000600052603260045260246000fd5b90506020020160208101906109109190614a28565b8b8b600181811061094a577f4e487b7100000000000000000000000000000000000000000000000000000000600052603260045260246000fd5b905060200201602081019061095f9190614a28565b61360b565b8560008151811061099e577f4e487b7100000000000000000000000000000000000000000000000000000000600052603260045260246000fd5b60200260200101516136b2565b6109ea828787808060200260200160405190810160405280939291908181526020018383602002808284376000920191909152503092506137de915050565b7f000000000000000000000000000000000000000000000000000000000000000073ffffffffffffffffffffffffffffffffffffffff16632e1a7d4d8360018551610a359190615738565b81518110610a6c577f4e487b7100000000000000000000000000000000000000000000000000000000600052603260045260246000fd5b60200260200101516040518263ffffffff1660e01b8152600401610a909190615601565b600060405180830381600087803b158015610aaa57600080fd5b505af1158015610abe573d6000803e3d6000fd5b50505050610b19848360018551610ad59190615738565b81518110610b0c577f4e487b7100000000000000000000000000000000000000000000000000000000600052603260045260246000fd5b60200260200101516132f2565b509695505050505050565b6060610b517f00000000000000000000000000000000000000000000000000000000000000008484613aa9565b90505b92915050565b6000806000610b8a7f00000000000000000000000000000000000000000000000000000000000000008f8f61360b565b9050600087610b99578c610bbb565b7fffffffffffffffffffffffffffffffffffffffffffffffffffffffffffffffff5b6040517fd505accf00000000000000000000000000000000000000000000000000000000815290915073ffffffffffffffffffffffffffffffffffffffff83169063d505accf90610c1c903390309086908f908e908e908e90600401615030565b600060405180830381600087803b158015610c3657600080fd5b505af1158015610c4a573d6000803e3d6000fd5b50505050610c5d8f8f8f8f8f8f8f612458565b809450819550505050509b509b9950505050505050505050565b60608142811015610cb4576040517f08c379a000000000000000000000000000000000000000000000000000000000815260040161054890615536565b610d127f0000000000000000000000000000000000000000000000000000000000000000898888808060200260200160405190810160405280939291908181526020018383602002808284376000920191909152506133ab92505050565b9150868260018451610d249190615738565b81518110610d5b577f4e487b7100000000000000000000000000000000000000000000000000000000600052603260045260246000fd5b60200260200101511015610d9b576040517f08c379a00000000000000000000000000000000000000000000000000000000081526004016105489061541f565b610dd886866000818110610887577f4e487b7100000000000000000000000000000000000000000000000000000000600052603260045260246000fd5b610b19828787808060200260200160405190810160405280939291908181526020018383602002808284376000920191909152508992506137de915050565b6000610e2585858585613cff565b95945050505050565b60608142811015610e6b576040517f08c379a000000000000000000000000000000000000000000000000000000000815260040161054890615536565b73ffffffffffffffffffffffffffffffffffffffff7f0000000000000000000000000000000000000000000000000000000000000000168686610eaf600182615738565b818110610ee5577f4e487b7100000000000000000000000000000000000000000000000000000000600052603260045260246000fd5b9050602002016020810190610efa9190614a28565b73ffffffffffffffffffffffffffffffffffffffff1614610f47576040517f08c379a000000000000000000000000000000000000000000000000000000000815260040161054890615356565b610fa57f000000000000000000000000000000000000000000000000000000000000000089888880806020026020016040519081016040528093929190818152602001838360200280828437600092019190915250613aa992505050565b91508682600081518110610fe2577f4e487b7100000000000000000000000000000000000000000000000000000000600052603260045260246000fd5b6020026020010151111561084a576040517f08c379a0000000000000000000000000000000000000000000000000000000008152600401610548906153ea565b6000806110707f00000000000000000000000000000000000000000000000000000000000000008d7f000000000000000000000000000000000000000000000000000000000000000061360b565b905060008661107f578b6110a1565b7fffffffffffffffffffffffffffffffffffffffffffffffffffffffffffffffff5b6040517fd505accf00000000000000000000000000000000000000000000000000000000815290915073ffffffffffffffffffffffffffffffffffffffff83169063d505accf90611102903390309086908e908d908d908d90600401615030565b600060405180830381600087803b15801561111c57600080fd5b505af1158015611130573d6000803e3d6000fd5b505050506111428d8d8d8d8d8d611e03565b9d9c50505050505050505050505050565b804281101561118e576040517f08c379a000000000000000000000000000000000000000000000000000000000815260040161054890615536565b611294858560008181106111cb577f4e487b7100000000000000000000000000000000000000000000000000000000600052603260045260246000fd5b90506020020160208101906111e09190614a28565b3361128e7f00000000000000000000000000000000000000000000000000000000000000008989600081811061123f577f4e487b7100000000000000000000000000000000000000000000000000000000600052603260045260246000fd5b90506020020160208101906112549190614a28565b8a8a600181811061094a577f4e487b7100000000000000000000000000000000000000000000000000000000600052603260045260246000fd5b8a6136b2565b600085856112a3600182615738565b8181106112d9577f4e487b7100000000000000000000000000000000000000000000000000000000600052603260045260246000fd5b90506020020160208101906112ee9190614a28565b73ffffffffffffffffffffffffffffffffffffffff166370a08231856040518263ffffffff1660e01b81526004016113269190614fb7565b60206040518083038186803b15801561133e57600080fd5b505afa158015611352573d6000803e3d6000fd5b505050506040513d601f19601f820116820180604052508101906113769190614d92565b90506113b6868680806020026020016040519081016040528093929190818152602001838360200280828437600092019190915250889250613e4f915050565b866114a18288886113c8600182615738565b8181106113fe577f4e487b7100000000000000000000000000000000000000000000000000000000600052603260045260246000fd5b90506020020160208101906114139190614a28565b73ffffffffffffffffffffffffffffffffffffffff166370a08231886040518263ffffffff1660e01b815260040161144b9190614fb7565b60206040518083038186803b15801561146357600080fd5b505afa158015611477573d6000803e3d6000fd5b505050506040513d601f19601f8201168201806040525081019061149b9190614d92565b906141e1565b10156114d9576040517f08c379a00000000000000000000000000000000000000000000000000000000081526004016105489061541f565b5050505050505050565b6000610e2585858585614229565b804281101561152c576040517f08c379a000000000000000000000000000000000000000000000000000000000815260040161054890615536565b73ffffffffffffffffffffffffffffffffffffffff7f0000000000000000000000000000000000000000000000000000000000000000168585611570600182615738565b8181106115a6577f4e487b7100000000000000000000000000000000000000000000000000000000600052603260045260246000fd5b90506020020160208101906115bb9190614a28565b73ffffffffffffffffffffffffffffffffffffffff1614611608576040517f08c379a000000000000000000000000000000000000000000000000000000000815260040161054890615356565b611645858560008181106111cb577f4e487b7100000000000000000000000000000000000000000000000000000000600052603260045260246000fd5b611683858580806020026020016040519081016040528093929190818152602001838360200280828437600092019190915250309250613e4f915050565b6040517f70a0823100000000000000000000000000000000000000000000000000000000815260009073ffffffffffffffffffffffffffffffffffffffff7f000000000000000000000000000000000000000000000000000000000000000016906370a08231906116f8903090600401614fb7565b60206040518083038186803b15801561171057600080fd5b505afa158015611724573d6000803e3d6000fd5b505050506040513d601f19601f820116820180604052508101906117489190614d92565b905086811015611784576040517f08c379a00000000000000000000000000000000000000000000000000000000081526004016105489061541f565b6040517f2e1a7d4d00000000000000000000000000000000000000000000000000000000815273ffffffffffffffffffffffffffffffffffffffff7f00000000000000000000000000000000000000000000000000000000000000001690632e1a7d4d906117f6908490600401615601565b600060405180830381600087803b15801561181057600080fd5b505af1158015611824573d6000803e3d6000fd5b505050506114d984826132f2565b6060814281101561186f576040517f08c379a000000000000000000000000000000000000000000000000000000000815260040161054890615536565b7f000000000000000000000000000000000000000000000000000000000000000073ffffffffffffffffffffffffffffffffffffffff16868660008181106118e0577f4e487b7100000000000000000000000000000000000000000000000000000000600052603260045260246000fd5b90506020020160208101906118f59190614a28565b73ffffffffffffffffffffffffffffffffffffffff1614611942576040517f08c379a000000000000000000000000000000000000000000000000000000000815260040161054890615356565b6119a07f0000000000000000000000000000000000000000000000000000000000000000348888808060200260200160405190810160405280939291908181526020018383602002808284376000920191909152506133ab92505050565b91508682600184516119b29190615738565b815181106119e9577f4e487b7100000000000000000000000000000000000000000000000000000000600052603260045260246000fd5b60200260200101511015611a29576040517f08c379a00000000000000000000000000000000000000000000000000000000081526004016105489061541f565b7f000000000000000000000000000000000000000000000000000000000000000073ffffffffffffffffffffffffffffffffffffffff1663d0e30db083600081518110611a9f577f4e487b7100000000000000000000000000000000000000000000000000000000600052603260045260246000fd5b60200260200101516040518263ffffffff1660e01b81526004016000604051808303818588803b158015611ad257600080fd5b505af1158015611ae6573d6000803e3d6000fd5b50505050507f000000000000000000000000000000000000000000000000000000000000000073ffffffffffffffffffffffffffffffffffffffff1663a9059cbb611b857f00000000000000000000000000000000000000000000000000000000000000008989600081811061123f577f4e487b7100000000000000000000000000000000000000000000000000000000600052603260045260246000fd5b84600081518110611bbf577f4e487b7100000000000000000000000000000000000000000000000000000000600052603260045260246000fd5b60200260200101516040518363ffffffff1660e01b8152600401611be492919061507e565b602060405180830381600087803b158015611bfe57600080fd5b505af1158015611c12573d6000803e3d6000fd5b505050506040513d601f19601f82011682018060405250810190611c369190614d28565b611c69577f4e487b7100000000000000000000000000000000000000000000000000000000600052600160045260246000fd5b611ca8828787808060200260200160405190810160405280939291908181526020018383602002808284376000920191909152508992506137de915050565b5095945050505050565b60608142811015611cef576040517f08c379a000000000000000000000000000000000000000000000000000000000815260040161054890615536565b611d4d7f000000000000000000000000000000000000000000000000000000000000000089888880806020026020016040519081016040528093929190818152602001838360200280828437600092019190915250613aa992505050565b91508682600081518110611d8a577f4e487b7100000000000000000000000000000000000000000000000000000000600052603260045260246000fd5b60200260200101511115610d9b576040517f08c379a0000000000000000000000000000000000000000000000000000000008152600401610548906153ea565b7f000000000000000000000000000000000000000000000000000000000000000081565b6000611dfb848484614373565b949350505050565b60008142811015611e40576040517f08c379a000000000000000000000000000000000000000000000000000000000815260040161054890615536565b611e6f887f00000000000000000000000000000000000000000000000000000000000000008989893089612458565b6040517f70a08231000000000000000000000000000000000000000000000000000000008152909350611f2291508990869073ffffffffffffffffffffffffffffffffffffffff8316906370a0823190611ecd903090600401614fb7565b60206040518083038186803b158015611ee557600080fd5b505afa158015611ef9573d6000803e3d6000fd5b505050506040513d601f19601f82011682018060405250810190611f1d9190614d92565b6131c9565b6040517f2e1a7d4d00000000000000000000000000000000000000000000000000000000815273ffffffffffffffffffffffffffffffffffffffff7f00000000000000000000000000000000000000000000000000000000000000001690632e1a7d4d90611f94908590600401615601565b600060405180830381600087803b158015611fae57600080fd5b505af1158015611fc2573d6000803e3d6000fd5b50505050610b1984836132f2565b804281101561200b576040517f08c379a000000000000000000000000000000000000000000000000000000000815260040161054890615536565b7f000000000000000000000000000000000000000000000000000000000000000073ffffffffffffffffffffffffffffffffffffffff168585600081811061207c577f4e487b7100000000000000000000000000000000000000000000000000000000600052603260045260246000fd5b90506020020160208101906120919190614a28565b73ffffffffffffffffffffffffffffffffffffffff16146120de576040517f08c379a000000000000000000000000000000000000000000000000000000000815260040161054890615356565b60003490507f000000000000000000000000000000000000000000000000000000000000000073ffffffffffffffffffffffffffffffffffffffff1663d0e30db0826040518263ffffffff1660e01b81526004016000604051808303818588803b15801561214b57600080fd5b505af115801561215f573d6000803e3d6000fd5b50505050507f000000000000000000000000000000000000000000000000000000000000000073ffffffffffffffffffffffffffffffffffffffff1663a9059cbb6121fe7f00000000000000000000000000000000000000000000000000000000000000008989600081811061123f577f4e487b7100000000000000000000000000000000000000000000000000000000600052603260045260246000fd5b836040518363ffffffff1660e01b815260040161221c92919061507e565b602060405180830381600087803b15801561223657600080fd5b505af115801561224a573d6000803e3d6000fd5b505050506040513d601f19601f8201168201806040525081019061226e9190614d28565b6122a1577f4e487b7100000000000000000000000000000000000000000000000000000000600052600160045260246000fd5b600086866122b0600182615738565b8181106122e6577f4e487b7100000000000000000000000000000000000000000000000000000000600052603260045260246000fd5b90506020020160208101906122fb9190614a28565b73ffffffffffffffffffffffffffffffffffffffff166370a08231866040518263ffffffff1660e01b81526004016123339190614fb7565b60206040518083038186803b15801561234b57600080fd5b505afa15801561235f573d6000803e3d6000fd5b505050506040513d601f19601f820116820180604052508101906123839190614d92565b90506123c3878780806020026020016040519081016040528093929190818152602001838360200280828437600092019190915250899250613e4f915050565b876114a18289896123d5600182615738565b81811061240b577f4e487b7100000000000000000000000000000000000000000000000000000000600052603260045260246000fd5b90506020020160208101906124209190614a28565b73ffffffffffffffffffffffffffffffffffffffff166370a08231896040518263ffffffff1660e01b815260040161144b9190614fb7565b6000808242811015612496576040517f08c379a000000000000000000000000000000000000000000000000000000000815260040161054890615536565b60006124c37f00000000000000000000000000000000000000000000000000000000000000008c8c61360b565b6040517f23b872dd00000000000000000000000000000000000000000000000000000000815290915073ffffffffffffffffffffffffffffffffffffffff8216906323b872dd9061251c90339085908e90600401614fff565b602060405180830381600087803b15801561253657600080fd5b505af115801561254a573d6000803e3d6000fd5b505050506040513d601f19601f8201168201806040525081019061256e9190614d28565b506000808273ffffffffffffffffffffffffffffffffffffffff166389afcb44896040518263ffffffff1660e01b81526004016125ab9190614fb7565b6040805180830381600087803b1580156125c457600080fd5b505af11580156125d8573d6000803e3d6000fd5b505050506040513d601f19601f820116820180604052508101906125fc9190614edc565b91509150600061260c8e8e614409565b5090508073ffffffffffffffffffffffffffffffffffffffff168e73ffffffffffffffffffffffffffffffffffffffff161461264957818361264c565b82825b90975095508a87101561268b576040517f08c379a0000000000000000000000000000000000000000000000000000000008152600401610548906155ca565b898610156126c5576040517f08c379a0000000000000000000000000000000000000000000000000000000008152600401610548906152b5565b505050505097509795505050505050565b7f000000000000000000000000000000000000000000000000000000000000000081565b6060610b517f000000000000000000000000000000000000000000000000000000000000000084846133ab565b60008060006127777f00000000000000000000000000000000000000000000000000000000000000008e7f000000000000000000000000000000000000000000000000000000000000000061360b565b9050600087612786578c6127a8565b7fffffffffffffffffffffffffffffffffffffffffffffffffffffffffffffffff5b6040517fd505accf00000000000000000000000000000000000000000000000000000000815290915073ffffffffffffffffffffffffffffffffffffffff83169063d505accf90612809903390309086908f908e908e908e90600401615030565b600060405180830381600087803b15801561282357600080fd5b505af1158015612837573d6000803e3d6000fd5b505050506128498e8e8e8e8e8e61050a565b909f909e509c50505050505050505050505050565b6000806000834281101561289e576040517f08c379a000000000000000000000000000000000000000000000000000000000815260040161054890615536565b6128ac8c8c8c8c8c8c614508565b909450925060006128de7f00000000000000000000000000000000000000000000000000000000000000008e8e61360b565b90506128ec8d3383886136b2565b6128f88c3383876136b2565b6040517f6a62784200000000000000000000000000000000000000000000000000000000815273ffffffffffffffffffffffffffffffffffffffff821690636a6278429061294a908a90600401614fb7565b602060405180830381600087803b15801561296457600080fd5b505af1158015612978573d6000803e3d6000fd5b505050506040513d601f19601f8201168201806040525081019061299c9190614d92565b92505050985098509895505050505050565b600080600083428110156129ee576040517f08c379a000000000000000000000000000000000000000000000000000000000815260040161054890615536565b612a1c8a7f00000000000000000000000000000000000000000000000000000000000000008b348c8c614508565b90945092506000612a6e7f00000000000000000000000000000000000000000000000000000000000000008c7f000000000000000000000000000000000000000000000000000000000000000061360b565b9050612a7c8b3383886136b2565b7f000000000000000000000000000000000000000000000000000000000000000073ffffffffffffffffffffffffffffffffffffffff1663d0e30db0856040518263ffffffff1660e01b81526004016000604051808303818588803b158015612ae457600080fd5b505af1158015612af8573d6000803e3d6000fd5b50506040517fa9059cbb00000000000000000000000000000000000000000000000000000000815273ffffffffffffffffffffffffffffffffffffffff7f000000000000000000000000000000000000000000000000000000000000000016935063a9059cbb9250612b7191508490889060040161507e565b602060405180830381600087803b158015612b8b57600080fd5b505af1158015612b9f573d6000803e3d6000fd5b505050506040513d601f19601f82011682018060405250810190612bc39190614d28565b612bf6577f4e487b7100000000000000000000000000000000000000000000000000000000600052600160045260246000fd5b6040517f6a62784200000000000000000000000000000000000000000000000000000000815273ffffffffffffffffffffffffffffffffffffffff821690636a62784290612c48908a90600401614fb7565b602060405180830381600087803b158015612c6257600080fd5b505af1158015612c76573d6000803e3d6000fd5b505050506040513d601f19601f82011682018060405250810190612c9a9190614d92565b925083341115612cb757612cb733612cb28634615738565b6132f2565b505096509650969350505050565b60608142811015612d02576040517f08c379a000000000000000000000000000000000000000000000000000000000815260040161054890615536565b7f000000000000000000000000000000000000000000000000000000000000000073ffffffffffffffffffffffffffffffffffffffff1686866000818110612d73577f4e487b7100000000000000000000000000000000000000000000000000000000600052603260045260246000fd5b9050602002016020810190612d889190614a28565b73ffffffffffffffffffffffffffffffffffffffff1614612dd5576040517f08c379a000000000000000000000000000000000000000000000000000000000815260040161054890615356565b612e337f000000000000000000000000000000000000000000000000000000000000000088888880806020026020016040519081016040528093929190818152602001838360200280828437600092019190915250613aa992505050565b91503482600081518110612e70577f4e487b7100000000000000000000000000000000000000000000000000000000600052603260045260246000fd5b60200260200101511115612eb0576040517f08c379a0000000000000000000000000000000000000000000000000000000008152600401610548906153ea565b7f000000000000000000000000000000000000000000000000000000000000000073ffffffffffffffffffffffffffffffffffffffff1663d0e30db083600081518110612f26577f4e487b7100000000000000000000000000000000000000000000000000000000600052603260045260246000fd5b60200260200101516040518263ffffffff1660e01b81526004016000604051808303818588803b158015612f5957600080fd5b505af1158015612f6d573d6000803e3d6000fd5b50505050507f000000000000000000000000000000000000000000000000000000000000000073ffffffffffffffffffffffffffffffffffffffff1663a9059cbb61300c7f00000000000000000000000000000000000000000000000000000000000000008989600081811061123f577f4e487b7100000000000000000000000000000000000000000000000000000000600052603260045260246000fd5b84600081518110613046577f4e487b7100000000000000000000000000000000000000000000000000000000600052603260045260246000fd5b60200260200101516040518363ffffffff1660e01b815260040161306b92919061507e565b602060405180830381600087803b15801561308557600080fd5b505af1158015613099573d6000803e3d6000fd5b505050506040513d601f19601f820116820180604052508101906130bd9190614d28565b6130f0577f4e487b7100000000000000000000000000000000000000000000000000000000600052600160045260246000fd5b61312f828787808060200260200160405190810160405280939291908181526020018383602002808284376000920191909152508992506137de915050565b81600081518110613169577f4e487b7100000000000000000000000000000000000000000000000000000000600052603260045260246000fd5b6020026020010151341115611ca857611ca833836000815181106131b6577f4e487b7100000000000000000000000000000000000000000000000000000000600052603260045260246000fd5b602002602001015134612cb29190615738565b6000808473ffffffffffffffffffffffffffffffffffffffff1663a9059cbb85856040516024016131fb92919061507e565b6040516020818303038152906040529060e01b6020820180517bffffffffffffffffffffffffffffffffffffffffffffffffffffffff83818316178352505050506040516132499190614f9b565b6000604051808303816000865af19150503d8060008114613286576040519150601f19603f3d011682016040523d82523d6000602084013e61328b565b606091505b50915091508180156132b55750805115806132b55750808060200190518101906132b59190614d28565b6132eb576040517f08c379a0000000000000000000000000000000000000000000000000000000008152600401610548906154d9565b5050505050565b6040805160008082526020820190925273ffffffffffffffffffffffffffffffffffffffff84169083906040516133299190614f9b565b60006040518083038185875af1925050503d8060008114613366576040519150601f19603f3d011682016040523d82523d6000602084013e61336b565b606091505b50509050806133a6576040517f08c379a000000000000000000000000000000000000000000000000000000000815260040161054890615258565b505050565b60606002825110156133e9576040517f08c379a0000000000000000000000000000000000000000000000000000000008152600401610548906151c4565b815167ffffffffffffffff81111561342a577f4e487b7100000000000000000000000000000000000000000000000000000000600052604160045260246000fd5b604051908082528060200260200182016040528015613453578160200160208202803683370190505b5090508281600081518110613491577f4e487b7100000000000000000000000000000000000000000000000000000000600052603260045260246000fd5b60200260200101818152505060005b600183516134ae9190615738565b8110156136035760008061354f878685815181106134f5577f4e487b7100000000000000000000000000000000000000000000000000000000600052603260045260246000fd5b60200260200101518786600161350b91906156aa565b81518110613542577f4e487b7100000000000000000000000000000000000000000000000000000000600052603260045260246000fd5b60200260200101516147f7565b9150915061359f87858581518110613590577f4e487b7100000000000000000000000000000000000000000000000000000000600052603260045260246000fd5b60200260200101518484613cff565b846135ab8560016156aa565b815181106135e2577f4e487b7100000000000000000000000000000000000000000000000000000000600052603260045260246000fd5b602002602001018181525050505080806135fb906157b0565b9150506134a0565b509392505050565b6040517fe6a4390500000000000000000000000000000000000000000000000000000000815260009073ffffffffffffffffffffffffffffffffffffffff85169063e6a43905906136629086908690600401614fd8565b60206040518083038186803b15801561367a57600080fd5b505afa15801561368e573d6000803e3d6000fd5b505050506040513d601f19601f82011682018060405250810190611dfb9190614a4b565b6000808573ffffffffffffffffffffffffffffffffffffffff166323b872dd8686866040516024016136e693929190614fff565b6040516020818303038152906040529060e01b6020820180517bffffffffffffffffffffffffffffffffffffffffffffffffffffffff83818316178352505050506040516137349190614f9b565b6000604051808303816000865af19150503d8060008114613771576040519150601f19603f3d011682016040523d82523d6000602084013e613776565b606091505b50915091508180156137a05750805115806137a05750808060200190518101906137a09190614d28565b6137d6576040517f08c379a0000000000000000000000000000000000000000000000000000000008152600401610548906151fb565b505050505050565b60005b600183516137ef9190615738565b811015613aa357600080848381518110613832577f4e487b7100000000000000000000000000000000000000000000000000000000600052603260045260246000fd5b60200260200101518584600161384891906156aa565b8151811061387f577f4e487b7100000000000000000000000000000000000000000000000000000000600052603260045260246000fd5b60200260200101519150915060006138978383614409565b5090506000876138a88660016156aa565b815181106138df577f4e487b7100000000000000000000000000000000000000000000000000000000600052603260045260246000fd5b602002602001015190506000808373ffffffffffffffffffffffffffffffffffffffff168673ffffffffffffffffffffffffffffffffffffffff16146139275782600061392b565b6000835b91509150600060028a5161393f9190615738565b881061394b57886139c0565b6139c07f0000000000000000000000000000000000000000000000000000000000000000878c61397c8c60026156aa565b815181106139b3577f4e487b7100000000000000000000000000000000000000000000000000000000600052603260045260246000fd5b602002602001015161360b565b90506139ed7f0000000000000000000000000000000000000000000000000000000000000000888861360b565b73ffffffffffffffffffffffffffffffffffffffff1663022c0d9f84848460006040519080825280601f01601f191660200182016040528015613a37576020820181803683370190505b506040518563ffffffff1660e01b8152600401613a579493929190615618565b600060405180830381600087803b158015613a7157600080fd5b505af1158015613a85573d6000803e3d6000fd5b50505050505050505050508080613a9b906157b0565b9150506137e1565b50505050565b6060600282511015613ae7576040517f08c379a0000000000000000000000000000000000000000000000000000000008152600401610548906151c4565b815167ffffffffffffffff811115613b28577f4e487b7100000000000000000000000000000000000000000000000000000000600052604160045260246000fd5b604051908082528060200260200182016040528015613b51578160200160208202803683370190505b509050828160018351613b649190615738565b81518110613b9b577f4e487b7100000000000000000000000000000000000000000000000000000000600052603260045260246000fd5b602002602001018181525050600060018351613bb79190615738565b90505b801561360357600080613c4b8786613bd3600187615738565b81518110613c0a577f4e487b7100000000000000000000000000000000000000000000000000000000600052603260045260246000fd5b6020026020010151878681518110613542577f4e487b7100000000000000000000000000000000000000000000000000000000600052603260045260246000fd5b91509150613c9b87858581518110613c8c577f4e487b7100000000000000000000000000000000000000000000000000000000600052603260045260246000fd5b60200260200101518484614229565b84613ca7600186615738565b81518110613cde577f4e487b7100000000000000000000000000000000000000000000000000000000600052603260045260246000fd5b60200260200101818152505050508080613cf79061577b565b915050613bba565b6000808411613d3a576040517f08c379a00000000000000000000000000000000000000000000000000000000081526004016105489061538d565b600083118015613d4a5750600082115b613d80576040517f08c379a00000000000000000000000000000000000000000000000000000000081526004016105489061556d565b60008573ffffffffffffffffffffffffffffffffffffffff16631df4ccfc6040518163ffffffff1660e01b815260040160206040518083038186803b158015613dc857600080fd5b505afa158015613ddc573d6000803e3d6000fd5b505050506040513d601f19601f82011682018060405250810190613e009190614d92565b90506000613e0e8683614905565b90506000613e1c8286614905565b90506000613e3683613e30896103e8614905565b9061495f565b9050613e4281836156c2565b9998505050505050505050565b60005b60018351613e609190615738565b8110156133a657600080848381518110613ea3577f4e487b7100000000000000000000000000000000000000000000000000000000600052603260045260246000fd5b602002602001015185846001613eb991906156aa565b81518110613ef0577f4e487b7100000000000000000000000000000000000000000000000000000000600052603260045260246000fd5b6020026020010151915091506000613f088383614409565b5090506000613f387f0000000000000000000000000000000000000000000000000000000000000000858561360b565b90506000806000808473ffffffffffffffffffffffffffffffffffffffff16630902f1ac6040518163ffffffff1660e01b815260040160606040518083038186803b158015613f8657600080fd5b505afa158015613f9a573d6000803e3d6000fd5b505050506040513d601f19601f82011682018060405250810190613fbe9190614d44565b506dffffffffffffffffffffffffffff1691506dffffffffffffffffffffffffffff1691506000808773ffffffffffffffffffffffffffffffffffffffff168a73ffffffffffffffffffffffffffffffffffffffff1614614020578284614023565b83835b91509150614064828b73ffffffffffffffffffffffffffffffffffffffff166370a082318a6040518263ffffffff1660e01b815260040161144b9190614fb7565b95506140927f0000000000000000000000000000000000000000000000000000000000000000878484613cff565b9450505050506000808573ffffffffffffffffffffffffffffffffffffffff168873ffffffffffffffffffffffffffffffffffffffff16146140d6578260006140da565b6000835b91509150600060028c516140ee9190615738565b8a106140fa578a61412b565b61412b7f0000000000000000000000000000000000000000000000000000000000000000898e61397c8e60026156aa565b604080516000815260208101918290527f022c0d9f0000000000000000000000000000000000000000000000000000000090915290915073ffffffffffffffffffffffffffffffffffffffff87169063022c0d9f906141939086908690869060248101615618565b600060405180830381600087803b1580156141ad57600080fd5b505af11580156141c1573d6000803e3d6000fd5b5050505050505050505050505080806141d9906157b0565b915050613e52565b6000826141ee8382615738565b9150811115610b54576040517f08c379a0000000000000000000000000000000000000000000000000000000008152600401610548906150e8565b6000808411614264576040517f08c379a00000000000000000000000000000000000000000000000000000000081526004016105489061547c565b6000831180156142745750600082115b6142aa576040517f08c379a00000000000000000000000000000000000000000000000000000000081526004016105489061556d565b60008573ffffffffffffffffffffffffffffffffffffffff16631df4ccfc6040518163ffffffff1660e01b815260040160206040518083038186803b1580156142f257600080fd5b505afa158015614306573d6000803e3d6000fd5b505050506040513d601f19601f8201168201806040525081019061432a9190614d92565b905060006143446103e861433e8789614905565b90614905565b905060006143568361433e878a6141e1565b90506143676001613e3083856156c2565b98975050505050505050565b60008084116143ae576040517f08c379a000000000000000000000000000000000000000000000000000000000815260040161054890615321565b6000831180156143be5750600082115b6143f4576040517f08c379a00000000000000000000000000000000000000000000000000000000081526004016105489061556d565b826143ff8584614905565b611dfb91906156c2565b6000808273ffffffffffffffffffffffffffffffffffffffff168473ffffffffffffffffffffffffffffffffffffffff161415614472576040517f08c379a0000000000000000000000000000000000000000000000000000000008152600401610548906152ec565b8273ffffffffffffffffffffffffffffffffffffffff168473ffffffffffffffffffffffffffffffffffffffff16106144ac5782846144af565b83835b909250905073ffffffffffffffffffffffffffffffffffffffff8216614501576040517f08c379a00000000000000000000000000000000000000000000000000000000081526004016105489061511f565b9250929050565b6040517fe6a43905000000000000000000000000000000000000000000000000000000008152600090819081907f000000000000000000000000000000000000000000000000000000000000000073ffffffffffffffffffffffffffffffffffffffff169063e6a4390590614583908c908c90600401614fd8565b60206040518083038186803b15801561459b57600080fd5b505afa1580156145af573d6000803e3d6000fd5b505050506040513d601f19601f820116820180604052508101906145d39190614a4b565b73ffffffffffffffffffffffffffffffffffffffff1614156146b7576040517fc9c6539600000000000000000000000000000000000000000000000000000000815273ffffffffffffffffffffffffffffffffffffffff7f0000000000000000000000000000000000000000000000000000000000000000169063c9c6539690614663908b908b90600401614fd8565b602060405180830381600087803b15801561467d57600080fd5b505af1158015614691573d6000803e3d6000fd5b505050506040513d601f19601f820116820180604052508101906146b59190614a4b565b505b6000806146e57f00000000000000000000000000000000000000000000000000000000000000008b8b6147f7565b915091508160001480156146f7575080155b15614707578793508692506147ea565b6000614714898484614373565b90508781116147625785811015614757576040517f08c379a0000000000000000000000000000000000000000000000000000000008152600401610548906152b5565b8894509250826147e8565b600061476f898486614373565b9050898111156147a8577f4e487b7100000000000000000000000000000000000000000000000000000000600052600160045260246000fd5b878110156147e2576040517f08c379a0000000000000000000000000000000000000000000000000000000008152600401610548906155ca565b94508793505b505b5050965096945050505050565b60008060006148068585614409565b50905060008061481788888861360b565b73ffffffffffffffffffffffffffffffffffffffff16630902f1ac6040518163ffffffff1660e01b815260040160606040518083038186803b15801561485c57600080fd5b505afa158015614870573d6000803e3d6000fd5b505050506040513d601f19601f820116820180604052508101906148949190614d44565b506dffffffffffffffffffffffffffff1691506dffffffffffffffffffffffffffff1691508273ffffffffffffffffffffffffffffffffffffffff168773ffffffffffffffffffffffffffffffffffffffff16146148f35780826148f6565b81815b90999098509650505050505050565b60008115806149295750828261491b81836156fb565b925061492790836156c2565b145b610b54576040517f08c379a000000000000000000000000000000000000000000000000000000000815260040161054890615156565b60008261496c83826156aa565b9150811015610b54576040517f08c379a00000000000000000000000000000000000000000000000000000000081526004016105489061518d565b80356149b281615847565b919050565b60008083601f8401126149c8578081fd5b50813567ffffffffffffffff8111156149df578182fd5b602083019150836020808302850101111561450157600080fd5b80516dffffffffffffffffffffffffffff811681146149b257600080fd5b803560ff811681146149b257600080fd5b600060208284031215614a39578081fd5b8135614a4481615847565b9392505050565b600060208284031215614a5c578081fd5b8151614a4481615847565b600080600080600080600060e0888a031215614a81578283fd5b8735614a8c81615847565b96506020880135614a9c81615847565b955060408801359450606088013593506080880135925060a0880135614ac181615847565b8092505060c0880135905092959891949750929550565b60008060008060008060008060008060006101608c8e031215614af9578384fd5b8b35614b0481615847565b9a5060208c0135614b1481615847565b995060408c0135985060608c0135975060808c0135965060a08c0135614b3981615847565b955060c08c0135945060e08c0135614b508161586c565b9350614b5f6101008d01614a17565b92506101208c013591506101408c013590509295989b509295989b9093969950565b600080600080600080600080610100898b031215614b9d578384fd5b8835614ba881615847565b97506020890135614bb881615847565b965060408901359550606089013594506080890135935060a0890135925060c0890135614be481615847565b8092505060e089013590509295985092959890939650565b60008060008060808587031215614c11578384fd5b8435614c1c81615847565b966020860135965060408601359560600135945092505050565b60008060008060008060c08789031215614c4e578384fd5b8635614c5981615847565b95506020870135945060408701359350606087013592506080870135614c7e81615847565b8092505060a087013590509295509295509295565b6000806000806000806000806000806101408b8d031215614cb2578384fd5b8a35614cbd81615847565b995060208b0135985060408b0135975060608b0135965060808b0135614ce281615847565b955060a08b0135945060c08b0135614cf98161586c565b9350614d0760e08c01614a17565b92506101008b013591506101208b013590509295989b9194979a5092959850565b600060208284031215614d39578081fd5b8151614a448161586c565b600080600060608486031215614d58578081fd5b614d61846149f9565b9250614d6f602085016149f9565b9150604084015163ffffffff81168114614d87578182fd5b809150509250925092565b600060208284031215614da3578081fd5b5051919050565b600080600080600060808688031215614dc1578283fd5b85359450602086013567ffffffffffffffff811115614dde578384fd5b614dea888289016149b7565b9095509350506040860135614dfe81615847565b949793965091946060013592915050565b60008060408385031215614e21578182fd5b8235915060208084013567ffffffffffffffff80821115614e40578384fd5b818601915086601f830112614e53578384fd5b813581811115614e6557614e65615818565b83810260405185828201018181108582111715614e8457614e84615818565b604052828152858101935084860182860187018b1015614ea2578788fd5b8795505b83861015614ecb57614eb7816149a7565b855260019590950194938601938601614ea6565b508096505050505050509250929050565b60008060408385031215614eee578182fd5b505080516020909101519092909150565b60008060008060008060a08789031215614f17578384fd5b8635955060208701359450604087013567ffffffffffffffff811115614f3b578485fd5b614f4789828a016149b7565b9095509350506060870135614f5b81615847565b80925050608087013590509295509295509295565b600080600060608486031215614f84578081fd5b505081359360208301359350604090920135919050565b60008251614fad81846020870161574f565b9190910192915050565b73ffffffffffffffffffffffffffffffffffffffff91909116815260200190565b73ffffffffffffffffffffffffffffffffffffffff92831681529116602082015260400190565b73ffffffffffffffffffffffffffffffffffffffff9384168152919092166020820152604081019190915260600190565b73ffffffffffffffffffffffffffffffffffffffff97881681529590961660208601526040850193909352606084019190915260ff16608083015260a082015260c081019190915260e00190565b73ffffffffffffffffffffffffffffffffffffffff929092168252602082015260400190565b6020808252825182820181905260009190848201906040850190845b818110156150dc578351835292840192918401916001016150c0565b50909695505050505050565b60208082526015908201527f64732d6d6174682d7375622d756e646572666c6f770000000000000000000000604082015260600190565b60208082526019908201527f4d61696e4c6962726172793a205a45524f5f4144445245535300000000000000604082015260600190565b60208082526014908201527f64732d6d6174682d6d756c2d6f766572666c6f77000000000000000000000000604082015260600190565b60208082526014908201527f64732d6d6174682d6164642d6f766572666c6f77000000000000000000000000604082015260600190565b60208082526019908201527f4d61696e4c6962726172793a20494e56414c49445f5041544800000000000000604082015260600190565b60208082526031908201527f5472616e7366657248656c7065723a3a7472616e7366657246726f6d3a20747260408201527f616e7366657246726f6d206661696c6564000000000000000000000000000000606082015260800190565b60208082526034908201527f5472616e7366657248656c7065723a3a736166655472616e736665724554483a60408201527f20455448207472616e73666572206661696c6564000000000000000000000000606082015260800190565b6020808252601f908201527f526f7574657256323a20494e53554646494349454e545f425f414d4f554e5400604082015260600190565b6020808252818101527f4d61696e4c6962726172793a204944454e544943414c5f414444524553534553604082015260600190565b6020808252818101527f4d61696e4c6962726172793a20494e53554646494349454e545f414d4f554e54604082015260600190565b60208082526016908201527f526f7574657256323a20494e56414c49445f5041544800000000000000000000604082015260600190565b60208082526026908201527f4d61696e4c6962726172793a20494e53554646494349454e545f494e5055545f60408201527f414d4f554e540000000000000000000000000000000000000000000000000000606082015260800190565b6020808252818101527f526f7574657256323a204558434553534956455f494e5055545f414d4f554e54604082015260600190565b60208082526024908201527f526f7574657256323a20494e53554646494349454e545f4f55545055545f414d60408201527f4f554e5400000000000000000000000000000000000000000000000000000000606082015260800190565b60208082526027908201527f4d61696e4c6962726172793a20494e53554646494349454e545f4f555450555460408201527f5f414d4f554e5400000000000000000000000000000000000000000000000000606082015260800190565b6020808252602d908201527f5472616e7366657248656c7065723a3a736166655472616e736665723a20747260408201527f616e73666572206661696c656400000000000000000000000000000000000000606082015260800190565b60208082526011908201527f526f7574657256323a2045585049524544000000000000000000000000000000604082015260600190565b60208082526023908201527f4d61696e4c6962726172793a20494e53554646494349454e545f4c495155494460408201527f4954590000000000000000000000000000000000000000000000000000000000606082015260800190565b6020808252601f908201527f526f7574657256323a20494e53554646494349454e545f415f414d4f554e5400604082015260600190565b90815260200190565b918252602082015260400190565b600085825284602083015273ffffffffffffffffffffffffffffffffffffffff8416604083015260806060830152825180608084015261565f8160a085016020870161574f565b601f017fffffffffffffffffffffffffffffffffffffffffffffffffffffffffffffffe0169190910160a00195945050505050565b9283526020830191909152604082015260600190565b600082198211156156bd576156bd6157e9565b500190565b6000826156f6577f4e487b710000000000000000000000000000000000000000000000000000000081526012600452602481fd5b500490565b6000817fffffffffffffffffffffffffffffffffffffffffffffffffffffffffffffffff0483118215151615615733576157336157e9565b500290565b60008282101561574a5761574a6157e9565b500390565b60005b8381101561576a578181015183820152602001615752565b83811115613aa35750506000910152565b60008161578a5761578a6157e9565b507fffffffffffffffffffffffffffffffffffffffffffffffffffffffffffffffff0190565b60007fffffffffffffffffffffffffffffffffffffffffffffffffffffffffffffffff8214156157e2576157e26157e9565b5060010190565b7f4e487b7100000000000000000000000000000000000000000000000000000000600052601160045260246000fd5b7f4e487b7100000000000000000000000000000000000000000000000000000000600052604160045260246000fd5b73ffffffffffffffffffffffffffffffffffffffff8116811461586957600080fd5b50565b801515811461586957600080fdfea26469706673582212203745c25a418a09243f0a52aee5a4c093fb70e0fc9a6ab5307f1c55e1183a089064736f6c63430008000033",
  "immutableReferences": {
    "3409": [
      {
        "length": 32,
        "start": 1896
      },
      {
        "length": 32,
        "start": 2210
      },
      {
        "length": 32,
        "start": 2859
      },
      {
        "length": 32,
        "start": 2916
      },
      {
        "length": 32,
        "start": 3257
      },
      {
        "length": 32,
        "start": 3916
      },
      {
        "length": 32,
        "start": 4138
      },
      {
        "length": 32,
        "start": 4582
      },
      {
        "length": 32,
        "start": 6471
      },
      {
        "length": 32,
        "start": 6956
      },
      {
        "length": 32,
        "start": 7412
      },
      {
        "length": 32,
        "start": 8613
      },
      {
        "length": 32,
        "start": 9373
      },
      {
        "length": 32,
        "start": 9944
      },
      {
        "length": 32,
        "start": 9985
      },
      {
        "length": 32,
        "start": 10033
      },
      {
        "length": 32,
        "start": 10424
      },
      {
        "length": 32,
        "start": 10792
      },
      {
        "length": 32,
        "start": 11738
      },
      {
        "length": 32,
        "start": 12211
      },
      {
        "length": 32,
        "start": 14672
      },
      {
        "length": 32,
        "start": 14791
      },
      {
        "length": 32,
        "start": 16146
      },
      {
        "length": 32,
        "start": 16491
      },
      {
        "length": 32,
        "start": 16639
      },
      {
        "length": 32,
        "start": 17719
      },
      {
        "length": 32,
        "start": 17964
      },
      {
        "length": 32,
        "start": 18111
      }
    ],
    "3412": [
      {
        "length": 32,
        "start": 428
      },
      {
        "length": 32,
        "start": 1367
      },
      {
        "length": 32,
        "start": 1485
      },
      {
        "length": 32,
        "start": 1694
      },
      {
        "length": 32,
        "start": 2540
      },
      {
        "length": 32,
        "start": 3714
      },
      {
        "length": 32,
        "start": 4172
      },
      {
        "length": 32,
        "start": 5443
      },
      {
        "length": 32,
        "start": 5827
      },
      {
        "length": 32,
        "start": 6081
      },
      {
        "length": 32,
        "start": 6257
      },
      {
        "length": 32,
        "start": 6699
      },
      {
        "length": 32,
        "start": 6893
      },
      {
        "length": 32,
        "start": 7628
      },
      {
        "length": 32,
        "start": 7750
      },
      {
        "length": 32,
        "start": 8031
      },
      {
        "length": 32,
        "start": 8205
      },
      {
        "length": 32,
        "start": 8421
      },
      {
        "length": 32,
        "start": 8550
      },
      {
        "length": 32,
        "start": 10067
      },
      {
        "length": 32,
        "start": 10740
      },
      {
        "length": 32,
        "start": 10826
      },
      {
        "length": 32,
        "start": 10878
      },
      {
        "length": 32,
        "start": 11063
      },
      {
        "length": 32,
        "start": 11524
      },
      {
        "length": 32,
        "start": 11954
      },
      {
        "length": 32,
        "start": 12148
      }
    ]
  },
  "source": "// SPDX-License-Identifier: MIT\npragma solidity ^0.8.0;\n\nimport './libraries/TransferHelper.sol';\nimport './libraries/MainLibrary.sol';\nimport './libraries/SafeMath.sol';\n\nimport './interfaces/IFactory.sol';\nimport './interfaces/IUniswapV2Router02.sol';\nimport './interfaces/IERC20.sol';\nimport './interfaces/IWETH.sol';\n\ncontract RouterV2 is IUniswapV2Router02 {\n    using SafeMath for uint;\n\n    address public immutable override factory;\n    address public immutable override WETH;\n\n    modifier ensure(uint deadline) {\n        require(deadline >= block.timestamp, 'RouterV2: EXPIRED');\n        _;\n    }\n\n    constructor(address _factory, address _WETH) {\n        factory = _factory;\n        WETH = _WETH;\n    }\n\n    receive() external payable {\n        assert(msg.sender == WETH); // only accept ETH via fallback from the WETH contract\n    }\n\n    // **** ADD LIQUIDITY ****\n    function _addLiquidity(\n        address tokenA,\n        address tokenB,\n        uint amountADesired,\n        uint amountBDesired,\n        uint amountAMin,\n        uint amountBMin\n    ) internal virtual returns (uint amountA, uint amountB) {\n        // create the pair if it doesn't exist yet\n        if (IFactory(factory).getPair(tokenA, tokenB) == address(0)) {\n            IFactory(factory).createPair(tokenA, tokenB);\n        }\n        (uint reserveA, uint reserveB) = MainLibrary.getReserves(factory, tokenA, tokenB);\n        if (reserveA == 0 && reserveB == 0) {\n            (amountA, amountB) = (amountADesired, amountBDesired);\n        } else {\n            uint amountBOptimal = MainLibrary.quote(amountADesired, reserveA, reserveB);\n            if (amountBOptimal <= amountBDesired) {\n                require(amountBOptimal >= amountBMin, 'RouterV2: INSUFFICIENT_B_AMOUNT');\n                (amountA, amountB) = (amountADesired, amountBOptimal);\n            } else {\n                uint amountAOptimal = MainLibrary.quote(amountBDesired, reserveB, reserveA);\n                assert(amountAOptimal <= amountADesired);\n                require(amountAOptimal >= amountAMin, 'RouterV2: INSUFFICIENT_A_AMOUNT');\n                (amountA, amountB) = (amountAOptimal, amountBDesired);\n            }\n        }\n    }\n    function addLiquidity(\n        address tokenA,\n        address tokenB,\n        uint amountADesired,\n        uint amountBDesired,\n        uint amountAMin,\n        uint amountBMin,\n        address to,\n        uint deadline\n    ) external virtual override ensure(deadline) returns (uint amountA, uint amountB, uint liquidity) {\n        (amountA, amountB) = _addLiquidity(tokenA, tokenB, amountADesired, amountBDesired, amountAMin, amountBMin);\n        address pair = MainLibrary.pairFor(factory, tokenA, tokenB);\n        TransferHelper.safeTransferFrom(tokenA, msg.sender, pair, amountA);\n        TransferHelper.safeTransferFrom(tokenB, msg.sender, pair, amountB);\n        liquidity = IUniswapV2Pair(pair).mint(to);\n    }\n    function addLiquidityETH(\n        address token,\n        uint amountTokenDesired,\n        uint amountTokenMin,\n        uint amountETHMin,\n        address to,\n        uint deadline\n    ) external virtual override payable ensure(deadline) returns (uint amountToken, uint amountETH, uint liquidity) {\n        (amountToken, amountETH) = _addLiquidity(\n            token,\n            WETH,\n            amountTokenDesired,\n            msg.value,\n            amountTokenMin,\n            amountETHMin\n        );\n        address pair = MainLibrary.pairFor(factory, token, WETH);\n        TransferHelper.safeTransferFrom(token, msg.sender, pair, amountToken);\n        IWETH(WETH).deposit{value: amountETH}();\n        assert(IWETH(WETH).transfer(pair, amountETH));\n        liquidity = IUniswapV2Pair(pair).mint(to);\n        // refund dust eth, if any\n        if (msg.value > amountETH) TransferHelper.safeTransferETH(msg.sender, msg.value - amountETH);\n    }\n\n    // **** REMOVE LIQUIDITY ****\n    function removeLiquidity(\n        address tokenA,\n        address tokenB,\n        uint liquidity,\n        uint amountAMin,\n        uint amountBMin,\n        address to,\n        uint deadline\n    ) public virtual override ensure(deadline) returns (uint amountA, uint amountB) {\n        address pair = MainLibrary.pairFor(factory, tokenA, tokenB);\n        IUniswapV2Pair(pair).transferFrom(msg.sender, pair, liquidity); // send liquidity to pair\n        (uint amount0, uint amount1) = IUniswapV2Pair(pair).burn(to);\n        (address token0,) = MainLibrary.sortTokens(tokenA, tokenB);\n        (amountA, amountB) = tokenA == token0 ? (amount0, amount1) : (amount1, amount0);\n        require(amountA >= amountAMin, 'RouterV2: INSUFFICIENT_A_AMOUNT');\n        require(amountB >= amountBMin, 'RouterV2: INSUFFICIENT_B_AMOUNT');\n    }\n    function removeLiquidityETH(\n        address token,\n        uint liquidity,\n        uint amountTokenMin,\n        uint amountETHMin,\n        address to,\n        uint deadline\n    ) public virtual override ensure(deadline) returns (uint amountToken, uint amountETH) {\n        (amountToken, amountETH) = removeLiquidity(\n            token,\n            WETH,\n            liquidity,\n            amountTokenMin,\n            amountETHMin,\n            address(this),\n            deadline\n        );\n        TransferHelper.safeTransfer(token, to, amountToken);\n        IWETH(WETH).withdraw(amountETH);\n        TransferHelper.safeTransferETH(to, amountETH);\n    }\n    function removeLiquidityWithPermit(\n        address tokenA,\n        address tokenB,\n        uint liquidity,\n        uint amountAMin,\n        uint amountBMin,\n        address to,\n        uint deadline,\n        bool approveMax, uint8 v, bytes32 r, bytes32 s\n    ) external virtual override returns (uint amountA, uint amountB) {\n        address pair = MainLibrary.pairFor(factory, tokenA, tokenB);\n        uint value = approveMax ? type(uint).max : liquidity;\n        IUniswapV2Pair(pair).permit(msg.sender, address(this), value, deadline, v, r, s);\n        (amountA, amountB) = removeLiquidity(tokenA, tokenB, liquidity, amountAMin, amountBMin, to, deadline);\n    }\n    function removeLiquidityETHWithPermit(\n        address token,\n        uint liquidity,\n        uint amountTokenMin,\n        uint amountETHMin,\n        address to,\n        uint deadline,\n        bool approveMax, uint8 v, bytes32 r, bytes32 s\n    ) external virtual override returns (uint amountToken, uint amountETH) {\n        address pair = MainLibrary.pairFor(factory, token, WETH);\n        uint value = approveMax ? type(uint).max : liquidity;\n        IUniswapV2Pair(pair).permit(msg.sender, address(this), value, deadline, v, r, s);\n        (amountToken, amountETH) = removeLiquidityETH(token, liquidity, amountTokenMin, amountETHMin, to, deadline);\n    }\n\n    // **** REMOVE LIQUIDITY (supporting fee-on-transfer tokens) ****\n    function removeLiquidityETHSupportingFeeOnTransferTokens(\n        address token,\n        uint liquidity,\n        uint amountTokenMin,\n        uint amountETHMin,\n        address to,\n        uint deadline\n    ) public virtual override ensure(deadline) returns (uint amountETH) {\n        (, amountETH) = removeLiquidity(\n            token,\n            WETH,\n            liquidity,\n            amountTokenMin,\n            amountETHMin,\n            address(this),\n            deadline\n        );\n        TransferHelper.safeTransfer(token, to, IERC20(token).balanceOf(address(this)));\n        IWETH(WETH).withdraw(amountETH);\n        TransferHelper.safeTransferETH(to, amountETH);\n    }\n    function removeLiquidityETHWithPermitSupportingFeeOnTransferTokens(\n        address token,\n        uint liquidity,\n        uint amountTokenMin,\n        uint amountETHMin,\n        address to,\n        uint deadline,\n        bool approveMax, uint8 v, bytes32 r, bytes32 s\n    ) external virtual override returns (uint amountETH) {\n        address pair = MainLibrary.pairFor(factory, token, WETH);\n        uint value = approveMax ? type(uint).max : liquidity;\n        IUniswapV2Pair(pair).permit(msg.sender, address(this), value, deadline, v, r, s);\n        amountETH = removeLiquidityETHSupportingFeeOnTransferTokens(\n            token, liquidity, amountTokenMin, amountETHMin, to, deadline\n        );\n    }\n\n    // **** SWAP ****\n    // requires the initial amount to have already been sent to the first pair\n    function _swap(uint[] memory amounts, address[] memory path, address _to) internal virtual {\n        for (uint i; i < path.length - 1; i++) {\n            (address input, address output) = (path[i], path[i + 1]);\n            (address token0,) = MainLibrary.sortTokens(input, output);\n            uint amountOut = amounts[i + 1];\n            (uint amount0Out, uint amount1Out) = input == token0 ? (uint(0), amountOut) : (amountOut, uint(0));\n            address to = i < path.length - 2 ? MainLibrary.pairFor(factory, output, path[i + 2]) : _to;\n            IUniswapV2Pair(MainLibrary.pairFor(factory, input, output)).swap(\n                amount0Out, amount1Out, to, new bytes(0)\n            );\n        }\n    }\n    function swapExactTokensForTokens(\n        uint amountIn,\n        uint amountOutMin,\n        address[] calldata path,\n        address to,\n        uint deadline\n    ) external virtual override ensure(deadline) returns (uint[] memory amounts) {\n        amounts = MainLibrary.getAmountsOut(factory, amountIn, path);\n        require(amounts[amounts.length - 1] >= amountOutMin, 'RouterV2: INSUFFICIENT_OUTPUT_AMOUNT');\n        TransferHelper.safeTransferFrom(\n            path[0], msg.sender, MainLibrary.pairFor(factory, path[0], path[1]), amounts[0]\n        );\n        _swap(amounts, path, to);\n    }\n    function swapTokensForExactTokens(\n        uint amountOut,\n        uint amountInMax,\n        address[] calldata path,\n        address to,\n        uint deadline\n    ) external virtual override ensure(deadline) returns (uint[] memory amounts) {\n        amounts = MainLibrary.getAmountsIn(factory, amountOut, path);\n        require(amounts[0] <= amountInMax, 'RouterV2: EXCESSIVE_INPUT_AMOUNT');\n        TransferHelper.safeTransferFrom(\n            path[0], msg.sender, MainLibrary.pairFor(factory, path[0], path[1]), amounts[0]\n        );\n        _swap(amounts, path, to);\n    }\n    function swapExactETHForTokens(uint amountOutMin, address[] calldata path, address to, uint deadline)\n        external\n        virtual\n        override\n        payable\n        ensure(deadline)\n        returns (uint[] memory amounts)\n    {\n        require(path[0] == WETH, 'RouterV2: INVALID_PATH');\n        amounts = MainLibrary.getAmountsOut(factory, msg.value, path);\n        require(amounts[amounts.length - 1] >= amountOutMin, 'RouterV2: INSUFFICIENT_OUTPUT_AMOUNT');\n        IWETH(WETH).deposit{value: amounts[0]}();\n        assert(IWETH(WETH).transfer(MainLibrary.pairFor(factory, path[0], path[1]), amounts[0]));\n        _swap(amounts, path, to);\n    }\n    function swapTokensForExactETH(uint amountOut, uint amountInMax, address[] calldata path, address to, uint deadline)\n        external\n        virtual\n        override\n        ensure(deadline)\n        returns (uint[] memory amounts)\n    {\n        require(path[path.length - 1] == WETH, 'RouterV2: INVALID_PATH');\n        amounts = MainLibrary.getAmountsIn(factory, amountOut, path);\n        require(amounts[0] <= amountInMax, 'RouterV2: EXCESSIVE_INPUT_AMOUNT');\n        TransferHelper.safeTransferFrom(\n            path[0], msg.sender, MainLibrary.pairFor(factory, path[0], path[1]), amounts[0]\n        );\n        _swap(amounts, path, address(this));\n        IWETH(WETH).withdraw(amounts[amounts.length - 1]);\n        TransferHelper.safeTransferETH(to, amounts[amounts.length - 1]);\n    }\n    function swapExactTokensForETH(uint amountIn, uint amountOutMin, address[] calldata path, address to, uint deadline)\n        external\n        virtual\n        override\n        ensure(deadline)\n        returns (uint[] memory amounts)\n    {\n        require(path[path.length - 1] == WETH, 'RouterV2: INVALID_PATH');\n        amounts = MainLibrary.getAmountsOut(factory, amountIn, path);\n        require(amounts[amounts.length - 1] >= amountOutMin, 'RouterV2: INSUFFICIENT_OUTPUT_AMOUNT');\n        TransferHelper.safeTransferFrom(\n            path[0], msg.sender, MainLibrary.pairFor(factory, path[0], path[1]), amounts[0]\n        );\n        _swap(amounts, path, address(this));\n        IWETH(WETH).withdraw(amounts[amounts.length - 1]);\n        TransferHelper.safeTransferETH(to, amounts[amounts.length - 1]);\n    }\n    function swapETHForExactTokens(uint amountOut, address[] calldata path, address to, uint deadline)\n        external\n        virtual\n        override\n        payable\n        ensure(deadline)\n        returns (uint[] memory amounts)\n    {\n        require(path[0] == WETH, 'RouterV2: INVALID_PATH');\n        amounts = MainLibrary.getAmountsIn(factory, amountOut, path);\n        require(amounts[0] <= msg.value, 'RouterV2: EXCESSIVE_INPUT_AMOUNT');\n        IWETH(WETH).deposit{value: amounts[0]}();\n        assert(IWETH(WETH).transfer(MainLibrary.pairFor(factory, path[0], path[1]), amounts[0]));\n        _swap(amounts, path, to);\n        // refund dust eth, if any\n        if (msg.value > amounts[0]) TransferHelper.safeTransferETH(msg.sender, msg.value - amounts[0]);\n    }\n\n    // **** SWAP (supporting fee-on-transfer tokens) ****\n    // requires the initial amount to have already been sent to the first pair\n    function _swapSupportingFeeOnTransferTokens(address[] memory path, address _to) internal virtual {\n        for (uint i; i < path.length - 1; i++) {\n            (address input, address output) = (path[i], path[i + 1]);\n            (address token0,) = MainLibrary.sortTokens(input, output);\n            IUniswapV2Pair pair = IUniswapV2Pair(MainLibrary.pairFor(factory, input, output));\n            uint amountInput;\n            uint amountOutput;\n            { // scope to avoid stack too deep errors\n            (uint reserve0, uint reserve1,) = pair.getReserves();\n            (uint reserveInput, uint reserveOutput) = input == token0 ? (reserve0, reserve1) : (reserve1, reserve0);\n            amountInput = IERC20(input).balanceOf(address(pair)).sub(reserveInput);\n            amountOutput = MainLibrary.getAmountOut(factory, amountInput, reserveInput, reserveOutput);\n            }\n            (uint amount0Out, uint amount1Out) = input == token0 ? (uint(0), amountOutput) : (amountOutput, uint(0));\n            address to = i < path.length - 2 ? MainLibrary.pairFor(factory, output, path[i + 2]) : _to;\n            pair.swap(amount0Out, amount1Out, to, new bytes(0));\n        }\n    }\n    function swapExactTokensForTokensSupportingFeeOnTransferTokens(\n        uint amountIn,\n        uint amountOutMin,\n        address[] calldata path,\n        address to,\n        uint deadline\n    ) external virtual override ensure(deadline) {\n        TransferHelper.safeTransferFrom(\n            path[0], msg.sender, MainLibrary.pairFor(factory, path[0], path[1]), amountIn\n        );\n        uint balanceBefore = IERC20(path[path.length - 1]).balanceOf(to);\n        _swapSupportingFeeOnTransferTokens(path, to);\n        require(\n            IERC20(path[path.length - 1]).balanceOf(to).sub(balanceBefore) >= amountOutMin,\n            'RouterV2: INSUFFICIENT_OUTPUT_AMOUNT'\n        );\n    }\n    function swapExactETHForTokensSupportingFeeOnTransferTokens(\n        uint amountOutMin,\n        address[] calldata path,\n        address to,\n        uint deadline\n    )\n        external\n        virtual\n        override\n        payable\n        ensure(deadline)\n    {\n        require(path[0] == WETH, 'RouterV2: INVALID_PATH');\n        uint amountIn = msg.value;\n        IWETH(WETH).deposit{value: amountIn}();\n        assert(IWETH(WETH).transfer(MainLibrary.pairFor(factory, path[0], path[1]), amountIn));\n        uint balanceBefore = IERC20(path[path.length - 1]).balanceOf(to);\n        _swapSupportingFeeOnTransferTokens(path, to);\n        require(\n            IERC20(path[path.length - 1]).balanceOf(to).sub(balanceBefore) >= amountOutMin,\n            'RouterV2: INSUFFICIENT_OUTPUT_AMOUNT'\n        );\n    }\n    function swapExactTokensForETHSupportingFeeOnTransferTokens(\n        uint amountIn,\n        uint amountOutMin,\n        address[] calldata path,\n        address to,\n        uint deadline\n    )\n        external\n        virtual\n        override\n        ensure(deadline)\n    {\n        require(path[path.length - 1] == WETH, 'RouterV2: INVALID_PATH');\n        TransferHelper.safeTransferFrom(\n            path[0], msg.sender, MainLibrary.pairFor(factory, path[0], path[1]), amountIn\n        );\n        _swapSupportingFeeOnTransferTokens(path, address(this));\n        uint amountOut = IERC20(WETH).balanceOf(address(this));\n        require(amountOut >= amountOutMin, 'RouterV2: INSUFFICIENT_OUTPUT_AMOUNT');\n        IWETH(WETH).withdraw(amountOut);\n        TransferHelper.safeTransferETH(to, amountOut);\n    }\n\n    // **** LIBRARY FUNCTIONS ****\n    function quote(uint amountA, uint reserveA, uint reserveB) public pure virtual override returns (uint amountB) {\n        return MainLibrary.quote(amountA, reserveA, reserveB);\n    }\n\n    function getAmountOut(address _factory, uint amountIn, uint reserveIn, uint reserveOut)\n        public\n        virtual\n        override\n        returns (uint amountOut)\n    {\n        return MainLibrary.getAmountOut(_factory, amountIn, reserveIn, reserveOut);\n    }\n\n    function getAmountIn(address _factory, uint amountOut, uint reserveIn, uint reserveOut)\n        public\n        virtual\n        override\n        returns (uint amountIn)\n    {\n        return MainLibrary.getAmountIn(_factory, amountOut, reserveIn, reserveOut);\n    }\n\n    function getAmountsOut(uint amountIn, address[] memory path)\n        public\n        virtual\n        override\n        returns (uint[] memory amounts)\n    {\n        return MainLibrary.getAmountsOut(factory, amountIn, path);\n    }\n\n    function getAmountsIn(uint amountOut, address[] memory path)\n        public\n        virtual\n        override\n        returns (uint[] memory amounts)\n    {\n        return MainLibrary.getAmountsIn(factory, amountOut, path);\n    }\n}\n",
  "sourcePath": "/home/user/Github/solidity/core/contracts/RouterV2.sol",
  "compiler": {
    "name": "solc",
    "version": "0.8.0+commit.c7dfd78e.Emscripten.clang"
  },
  "schemaVersion": "3.4.3",
  "updatedAt": "2021-12-02T12:52:39.543Z",
  "devdoc": {
    "kind": "dev",
    "methods": {},
    "version": 1
  },
  "userdoc": {
    "kind": "user",
    "methods": {},
    "version": 1
  }
}