{
  "contractName": "RouterV2",
  "abi": [
    {
      "inputs": [
        {
          "internalType": "address",
          "name": "_factory",
          "type": "address"
        },
        {
          "internalType": "address",
          "name": "_WETH",
          "type": "address"
        }
      ],
      "stateMutability": "nonpayable",
      "type": "constructor"
    },
    {
      "inputs": [],
      "name": "WETH",
      "outputs": [
        {
          "internalType": "address",
          "name": "",
          "type": "address"
        }
      ],
      "stateMutability": "view",
      "type": "function"
    },
    {
      "inputs": [],
      "name": "factory",
      "outputs": [
        {
          "internalType": "address",
          "name": "",
          "type": "address"
        }
      ],
      "stateMutability": "view",
      "type": "function"
    },
    {
      "stateMutability": "payable",
      "type": "receive"
    },
    {
      "inputs": [
        {
          "internalType": "address",
          "name": "tokenA",
          "type": "address"
        },
        {
          "internalType": "address",
          "name": "tokenB",
          "type": "address"
        },
        {
          "internalType": "uint256",
          "name": "amountADesired",
          "type": "uint256"
        },
        {
          "internalType": "uint256",
          "name": "amountBDesired",
          "type": "uint256"
        },
        {
          "internalType": "uint256",
          "name": "amountAMin",
          "type": "uint256"
        },
        {
          "internalType": "uint256",
          "name": "amountBMin",
          "type": "uint256"
        },
        {
          "internalType": "address",
          "name": "to",
          "type": "address"
        },
        {
          "internalType": "uint256",
          "name": "deadline",
          "type": "uint256"
        }
      ],
      "name": "addLiquidity",
      "outputs": [
        {
          "internalType": "uint256",
          "name": "amountA",
          "type": "uint256"
        },
        {
          "internalType": "uint256",
          "name": "amountB",
          "type": "uint256"
        },
        {
          "internalType": "uint256",
          "name": "liquidity",
          "type": "uint256"
        }
      ],
      "stateMutability": "nonpayable",
      "type": "function"
    },
    {
      "inputs": [
        {
          "internalType": "address",
          "name": "token",
          "type": "address"
        },
        {
          "internalType": "uint256",
          "name": "amountTokenDesired",
          "type": "uint256"
        },
        {
          "internalType": "uint256",
          "name": "amountTokenMin",
          "type": "uint256"
        },
        {
          "internalType": "uint256",
          "name": "amountETHMin",
          "type": "uint256"
        },
        {
          "internalType": "address",
          "name": "to",
          "type": "address"
        },
        {
          "internalType": "uint256",
          "name": "deadline",
          "type": "uint256"
        }
      ],
      "name": "addLiquidityETH",
      "outputs": [
        {
          "internalType": "uint256",
          "name": "amountToken",
          "type": "uint256"
        },
        {
          "internalType": "uint256",
          "name": "amountETH",
          "type": "uint256"
        },
        {
          "internalType": "uint256",
          "name": "liquidity",
          "type": "uint256"
        }
      ],
      "stateMutability": "payable",
      "type": "function"
    },
    {
      "inputs": [
        {
          "internalType": "address",
          "name": "tokenA",
          "type": "address"
        },
        {
          "internalType": "address",
          "name": "tokenB",
          "type": "address"
        },
        {
          "internalType": "uint256",
          "name": "liquidity",
          "type": "uint256"
        },
        {
          "internalType": "uint256",
          "name": "amountAMin",
          "type": "uint256"
        },
        {
          "internalType": "uint256",
          "name": "amountBMin",
          "type": "uint256"
        },
        {
          "internalType": "address",
          "name": "to",
          "type": "address"
        },
        {
          "internalType": "uint256",
          "name": "deadline",
          "type": "uint256"
        }
      ],
      "name": "removeLiquidity",
      "outputs": [
        {
          "internalType": "uint256",
          "name": "amountA",
          "type": "uint256"
        },
        {
          "internalType": "uint256",
          "name": "amountB",
          "type": "uint256"
        }
      ],
      "stateMutability": "nonpayable",
      "type": "function"
    },
    {
      "inputs": [
        {
          "internalType": "address",
          "name": "token",
          "type": "address"
        },
        {
          "internalType": "uint256",
          "name": "liquidity",
          "type": "uint256"
        },
        {
          "internalType": "uint256",
          "name": "amountTokenMin",
          "type": "uint256"
        },
        {
          "internalType": "uint256",
          "name": "amountETHMin",
          "type": "uint256"
        },
        {
          "internalType": "address",
          "name": "to",
          "type": "address"
        },
        {
          "internalType": "uint256",
          "name": "deadline",
          "type": "uint256"
        }
      ],
      "name": "removeLiquidityETH",
      "outputs": [
        {
          "internalType": "uint256",
          "name": "amountToken",
          "type": "uint256"
        },
        {
          "internalType": "uint256",
          "name": "amountETH",
          "type": "uint256"
        }
      ],
      "stateMutability": "nonpayable",
      "type": "function"
    },
    {
      "inputs": [
        {
          "internalType": "address",
          "name": "tokenA",
          "type": "address"
        },
        {
          "internalType": "address",
          "name": "tokenB",
          "type": "address"
        },
        {
          "internalType": "uint256",
          "name": "liquidity",
          "type": "uint256"
        },
        {
          "internalType": "uint256",
          "name": "amountAMin",
          "type": "uint256"
        },
        {
          "internalType": "uint256",
          "name": "amountBMin",
          "type": "uint256"
        },
        {
          "internalType": "address",
          "name": "to",
          "type": "address"
        },
        {
          "internalType": "uint256",
          "name": "deadline",
          "type": "uint256"
        },
        {
          "internalType": "bool",
          "name": "approveMax",
          "type": "bool"
        },
        {
          "internalType": "uint8",
          "name": "v",
          "type": "uint8"
        },
        {
          "internalType": "bytes32",
          "name": "r",
          "type": "bytes32"
        },
        {
          "internalType": "bytes32",
          "name": "s",
          "type": "bytes32"
        }
      ],
      "name": "removeLiquidityWithPermit",
      "outputs": [
        {
          "internalType": "uint256",
          "name": "amountA",
          "type": "uint256"
        },
        {
          "internalType": "uint256",
          "name": "amountB",
          "type": "uint256"
        }
      ],
      "stateMutability": "nonpayable",
      "type": "function"
    },
    {
      "inputs": [
        {
          "internalType": "address",
          "name": "token",
          "type": "address"
        },
        {
          "internalType": "uint256",
          "name": "liquidity",
          "type": "uint256"
        },
        {
          "internalType": "uint256",
          "name": "amountTokenMin",
          "type": "uint256"
        },
        {
          "internalType": "uint256",
          "name": "amountETHMin",
          "type": "uint256"
        },
        {
          "internalType": "address",
          "name": "to",
          "type": "address"
        },
        {
          "internalType": "uint256",
          "name": "deadline",
          "type": "uint256"
        },
        {
          "internalType": "bool",
          "name": "approveMax",
          "type": "bool"
        },
        {
          "internalType": "uint8",
          "name": "v",
          "type": "uint8"
        },
        {
          "internalType": "bytes32",
          "name": "r",
          "type": "bytes32"
        },
        {
          "internalType": "bytes32",
          "name": "s",
          "type": "bytes32"
        }
      ],
      "name": "removeLiquidityETHWithPermit",
      "outputs": [
        {
          "internalType": "uint256",
          "name": "amountToken",
          "type": "uint256"
        },
        {
          "internalType": "uint256",
          "name": "amountETH",
          "type": "uint256"
        }
      ],
      "stateMutability": "nonpayable",
      "type": "function"
    },
    {
      "inputs": [
        {
          "internalType": "address",
          "name": "token",
          "type": "address"
        },
        {
          "internalType": "uint256",
          "name": "liquidity",
          "type": "uint256"
        },
        {
          "internalType": "uint256",
          "name": "amountTokenMin",
          "type": "uint256"
        },
        {
          "internalType": "uint256",
          "name": "amountETHMin",
          "type": "uint256"
        },
        {
          "internalType": "address",
          "name": "to",
          "type": "address"
        },
        {
          "internalType": "uint256",
          "name": "deadline",
          "type": "uint256"
        }
      ],
      "name": "removeLiquidityETHSupportingFeeOnTransferTokens",
      "outputs": [
        {
          "internalType": "uint256",
          "name": "amountETH",
          "type": "uint256"
        }
      ],
      "stateMutability": "nonpayable",
      "type": "function"
    },
    {
      "inputs": [
        {
          "internalType": "address",
          "name": "token",
          "type": "address"
        },
        {
          "internalType": "uint256",
          "name": "liquidity",
          "type": "uint256"
        },
        {
          "internalType": "uint256",
          "name": "amountTokenMin",
          "type": "uint256"
        },
        {
          "internalType": "uint256",
          "name": "amountETHMin",
          "type": "uint256"
        },
        {
          "internalType": "address",
          "name": "to",
          "type": "address"
        },
        {
          "internalType": "uint256",
          "name": "deadline",
          "type": "uint256"
        },
        {
          "internalType": "bool",
          "name": "approveMax",
          "type": "bool"
        },
        {
          "internalType": "uint8",
          "name": "v",
          "type": "uint8"
        },
        {
          "internalType": "bytes32",
          "name": "r",
          "type": "bytes32"
        },
        {
          "internalType": "bytes32",
          "name": "s",
          "type": "bytes32"
        }
      ],
      "name": "removeLiquidityETHWithPermitSupportingFeeOnTransferTokens",
      "outputs": [
        {
          "internalType": "uint256",
          "name": "amountETH",
          "type": "uint256"
        }
      ],
      "stateMutability": "nonpayable",
      "type": "function"
    },
    {
      "inputs": [
        {
          "internalType": "uint256",
          "name": "amountIn",
          "type": "uint256"
        },
        {
          "internalType": "uint256",
          "name": "amountOutMin",
          "type": "uint256"
        },
        {
          "internalType": "address[]",
          "name": "path",
          "type": "address[]"
        },
        {
          "internalType": "address",
          "name": "to",
          "type": "address"
        },
        {
          "internalType": "uint256",
          "name": "deadline",
          "type": "uint256"
        }
      ],
      "name": "swapExactTokensForTokens",
      "outputs": [
        {
          "internalType": "uint256[]",
          "name": "amounts",
          "type": "uint256[]"
        }
      ],
      "stateMutability": "nonpayable",
      "type": "function"
    },
    {
      "inputs": [
        {
          "internalType": "uint256",
          "name": "amountOut",
          "type": "uint256"
        },
        {
          "internalType": "uint256",
          "name": "amountInMax",
          "type": "uint256"
        },
        {
          "internalType": "address[]",
          "name": "path",
          "type": "address[]"
        },
        {
          "internalType": "address",
          "name": "to",
          "type": "address"
        },
        {
          "internalType": "uint256",
          "name": "deadline",
          "type": "uint256"
        }
      ],
      "name": "swapTokensForExactTokens",
      "outputs": [
        {
          "internalType": "uint256[]",
          "name": "amounts",
          "type": "uint256[]"
        }
      ],
      "stateMutability": "nonpayable",
      "type": "function"
    },
    {
      "inputs": [
        {
          "internalType": "uint256",
          "name": "amountOutMin",
          "type": "uint256"
        },
        {
          "internalType": "address[]",
          "name": "path",
          "type": "address[]"
        },
        {
          "internalType": "address",
          "name": "to",
          "type": "address"
        },
        {
          "internalType": "uint256",
          "name": "deadline",
          "type": "uint256"
        }
      ],
      "name": "swapExactETHForTokens",
      "outputs": [
        {
          "internalType": "uint256[]",
          "name": "amounts",
          "type": "uint256[]"
        }
      ],
      "stateMutability": "payable",
      "type": "function"
    },
    {
      "inputs": [
        {
          "internalType": "uint256",
          "name": "amountOut",
          "type": "uint256"
        },
        {
          "internalType": "uint256",
          "name": "amountInMax",
          "type": "uint256"
        },
        {
          "internalType": "address[]",
          "name": "path",
          "type": "address[]"
        },
        {
          "internalType": "address",
          "name": "to",
          "type": "address"
        },
        {
          "internalType": "uint256",
          "name": "deadline",
          "type": "uint256"
        }
      ],
      "name": "swapTokensForExactETH",
      "outputs": [
        {
          "internalType": "uint256[]",
          "name": "amounts",
          "type": "uint256[]"
        }
      ],
      "stateMutability": "nonpayable",
      "type": "function"
    },
    {
      "inputs": [
        {
          "internalType": "uint256",
          "name": "amountIn",
          "type": "uint256"
        },
        {
          "internalType": "uint256",
          "name": "amountOutMin",
          "type": "uint256"
        },
        {
          "internalType": "address[]",
          "name": "path",
          "type": "address[]"
        },
        {
          "internalType": "address",
          "name": "to",
          "type": "address"
        },
        {
          "internalType": "uint256",
          "name": "deadline",
          "type": "uint256"
        }
      ],
      "name": "swapExactTokensForETH",
      "outputs": [
        {
          "internalType": "uint256[]",
          "name": "amounts",
          "type": "uint256[]"
        }
      ],
      "stateMutability": "nonpayable",
      "type": "function"
    },
    {
      "inputs": [
        {
          "internalType": "uint256",
          "name": "amountOut",
          "type": "uint256"
        },
        {
          "internalType": "address[]",
          "name": "path",
          "type": "address[]"
        },
        {
          "internalType": "address",
          "name": "to",
          "type": "address"
        },
        {
          "internalType": "uint256",
          "name": "deadline",
          "type": "uint256"
        }
      ],
      "name": "swapETHForExactTokens",
      "outputs": [
        {
          "internalType": "uint256[]",
          "name": "amounts",
          "type": "uint256[]"
        }
      ],
      "stateMutability": "payable",
      "type": "function"
    },
    {
      "inputs": [
        {
          "internalType": "uint256",
          "name": "amountIn",
          "type": "uint256"
        },
        {
          "internalType": "uint256",
          "name": "amountOutMin",
          "type": "uint256"
        },
        {
          "internalType": "address[]",
          "name": "path",
          "type": "address[]"
        },
        {
          "internalType": "address",
          "name": "to",
          "type": "address"
        },
        {
          "internalType": "uint256",
          "name": "deadline",
          "type": "uint256"
        }
      ],
      "name": "swapExactTokensForTokensSupportingFeeOnTransferTokens",
      "outputs": [],
      "stateMutability": "nonpayable",
      "type": "function"
    },
    {
      "inputs": [
        {
          "internalType": "uint256",
          "name": "amountOutMin",
          "type": "uint256"
        },
        {
          "internalType": "address[]",
          "name": "path",
          "type": "address[]"
        },
        {
          "internalType": "address",
          "name": "to",
          "type": "address"
        },
        {
          "internalType": "uint256",
          "name": "deadline",
          "type": "uint256"
        }
      ],
      "name": "swapExactETHForTokensSupportingFeeOnTransferTokens",
      "outputs": [],
      "stateMutability": "payable",
      "type": "function"
    },
    {
      "inputs": [
        {
          "internalType": "uint256",
          "name": "amountIn",
          "type": "uint256"
        },
        {
          "internalType": "uint256",
          "name": "amountOutMin",
          "type": "uint256"
        },
        {
          "internalType": "address[]",
          "name": "path",
          "type": "address[]"
        },
        {
          "internalType": "address",
          "name": "to",
          "type": "address"
        },
        {
          "internalType": "uint256",
          "name": "deadline",
          "type": "uint256"
        }
      ],
      "name": "swapExactTokensForETHSupportingFeeOnTransferTokens",
      "outputs": [],
      "stateMutability": "nonpayable",
      "type": "function"
    },
    {
      "inputs": [
        {
          "internalType": "uint256",
          "name": "amountA",
          "type": "uint256"
        },
        {
          "internalType": "uint256",
          "name": "reserveA",
          "type": "uint256"
        },
        {
          "internalType": "uint256",
          "name": "reserveB",
          "type": "uint256"
        }
      ],
      "name": "quote",
      "outputs": [
        {
          "internalType": "uint256",
          "name": "amountB",
          "type": "uint256"
        }
      ],
      "stateMutability": "pure",
      "type": "function"
    },
    {
      "inputs": [
        {
          "internalType": "uint256",
          "name": "amountIn",
          "type": "uint256"
        },
        {
          "internalType": "uint256",
          "name": "reserveIn",
          "type": "uint256"
        },
        {
          "internalType": "uint256",
          "name": "reserveOut",
          "type": "uint256"
        }
      ],
      "name": "getAmountOut",
      "outputs": [
        {
          "internalType": "uint256",
          "name": "amountOut",
          "type": "uint256"
        }
      ],
      "stateMutability": "pure",
      "type": "function"
    },
    {
      "inputs": [
        {
          "internalType": "uint256",
          "name": "amountOut",
          "type": "uint256"
        },
        {
          "internalType": "uint256",
          "name": "reserveIn",
          "type": "uint256"
        },
        {
          "internalType": "uint256",
          "name": "reserveOut",
          "type": "uint256"
        }
      ],
      "name": "getAmountIn",
      "outputs": [
        {
          "internalType": "uint256",
          "name": "amountIn",
          "type": "uint256"
        }
      ],
      "stateMutability": "pure",
      "type": "function"
    },
    {
      "inputs": [
        {
          "internalType": "uint256",
          "name": "amountIn",
          "type": "uint256"
        },
        {
          "internalType": "address[]",
          "name": "path",
          "type": "address[]"
        }
      ],
      "name": "getAmountsOut",
      "outputs": [
        {
          "internalType": "uint256[]",
          "name": "amounts",
          "type": "uint256[]"
        }
      ],
      "stateMutability": "view",
      "type": "function"
    },
    {
      "inputs": [
        {
          "internalType": "uint256",
          "name": "amountOut",
          "type": "uint256"
        },
        {
          "internalType": "address[]",
          "name": "path",
          "type": "address[]"
        }
      ],
      "name": "getAmountsIn",
      "outputs": [
        {
          "internalType": "uint256[]",
          "name": "amounts",
          "type": "uint256[]"
        }
      ],
      "stateMutability": "view",
      "type": "function"
    }
  ],
  "bytecode": "0x60c060405234801561001057600080fd5b506040516200492a3803806200492a8339818101604052604081101561003557600080fd5b5080516020909101516001600160601b0319606092831b8116608052911b1660a05260805160601c60a05160601c6147a5620001856000398061019f5280610d405280610d7b5280610e7852806110a8528061145752806115e552806119b95280611aa65280611b805280611c545280611dac5280611e34528061208c528061210d52806121c15280612293528061233a52806123ae52806128f55280612b845280612bda5280612c0e5280612c825280612e165280612f815280613009525080610f185280610fef528061116e52806111a7528061130152806114f752806115c352806117525280611cf95280611e665280611fc652806123e05280612624528061287a52806128a352806128d35280612a5f5280612bb85280612ebb528061303b528061393252806139755280613c4f5280613dcc528061420a52806142c3528061437652506147a56000f3fe60806040526004361061018f5760003560e01c80638803dbee116100d6578063c45a01551161007f578063e8e3370011610059578063e8e3370014610ba1578063f305d71914610c21578063fb3bdb4114610c67576101c8565b8063c45a015514610a62578063d06ca61f14610a77578063ded9382a14610b2e576101c8565b8063af2979eb116100b0578063af2979eb1461092c578063b6f9de951461097f578063baa2abde14610a05576101c8565b80638803dbee1461082d578063ad5c4648146108c5578063ad615dec146108f6576101c8565b80634a25d94a11610138578063791ac94711610112578063791ac947146106d95780637ff36ab51461077157806385f8c259146107f7576101c8565b80634a25d94a146105365780635b0d5984146105ce5780635c11d79514610641576101c8565b80631f00ca74116101695780631f00ca74146103695780632195995c1461042057806338ed17391461049e576101c8565b806302751cec146101cd578063054d50d41461023957806318cbafe514610281576101c8565b366101c857336001600160a01b037f000000000000000000000000000000000000000000000000000000000000000016146101c657fe5b005b600080fd5b3480156101d957600080fd5b50610220600480360360c08110156101f057600080fd5b506001600160a01b0381358116916020810135916040820135916060810135916080820135169060a00135610ced565b6040805192835260208301919091528051918290030190f35b34801561024557600080fd5b5061026f6004803603606081101561025c57600080fd5b5080359060208101359060400135610e0d565b60408051918252519081900360200190f35b34801561028d57600080fd5b50610319600480360360a08110156102a457600080fd5b8135916020810135918101906060810160408201356401000000008111156102cb57600080fd5b8201836020820111156102dd57600080fd5b803590602001918460208302840111640100000000831117156102ff57600080fd5b91935091506001600160a01b038135169060200135610e22565b60408051602080825283518183015283519192839290830191858101910280838360005b8381101561035557818101518382015260200161033d565b505050509050019250505060405180910390f35b34801561037557600080fd5b506103196004803603604081101561038c57600080fd5b813591908101906040810160208201356401000000008111156103ae57600080fd5b8201836020820111156103c057600080fd5b803590602001918460208302840111640100000000831117156103e257600080fd5b919080806020026020016040519081016040528093929190818152602001838360200280828437600092019190915250929550611167945050505050565b34801561042c57600080fd5b50610220600480360361016081101561044457600080fd5b506001600160a01b038135811691602081013582169160408201359160608101359160808201359160a08101359091169060c08101359060e081013515159060ff610100820135169061012081013590610140013561119d565b3480156104aa57600080fd5b50610319600480360360a08110156104c157600080fd5b8135916020810135918101906060810160408201356401000000008111156104e857600080fd5b8201836020820111156104fa57600080fd5b8035906020019184602083028401116401000000008311171561051c57600080fd5b91935091506001600160a01b0381351690602001356112b0565b34801561054257600080fd5b50610319600480360360a081101561055957600080fd5b81359160208101359181019060608101604082013564010000000081111561058057600080fd5b82018360208201111561059257600080fd5b803590602001918460208302840111640100000000831117156105b457600080fd5b91935091506001600160a01b038135169060200135611401565b3480156105da57600080fd5b5061026f60048036036101408110156105f257600080fd5b506001600160a01b0381358116916020810135916040820135916060810135916080820135169060a08101359060c081013515159060ff60e082013516906101008101359061012001356115bb565b34801561064d57600080fd5b506101c6600480360360a081101561066457600080fd5b81359160208101359181019060608101604082013564010000000081111561068b57600080fd5b82018360208201111561069d57600080fd5b803590602001918460208302840111640100000000831117156106bf57600080fd5b91935091506001600160a01b0381351690602001356116e2565b3480156106e557600080fd5b506101c6600480360360a08110156106fc57600080fd5b81359160208101359181019060608101604082013564010000000081111561072357600080fd5b82018360208201111561073557600080fd5b8035906020019184602083028401116401000000008311171561075757600080fd5b91935091506001600160a01b038135169060200135611965565b6103196004803603608081101561078757600080fd5b813591908101906040810160208201356401000000008111156107a957600080fd5b8201836020820111156107bb57600080fd5b803590602001918460208302840111640100000000831117156107dd57600080fd5b91935091506001600160a01b038135169060200135611c06565b34801561080357600080fd5b5061026f6004803603606081101561081a57600080fd5b5080359060208101359060400135611f68565b34801561083957600080fd5b50610319600480360360a081101561085057600080fd5b81359160208101359181019060608101604082013564010000000081111561087757600080fd5b82018360208201111561088957600080fd5b803590602001918460208302840111640100000000831117156108ab57600080fd5b91935091506001600160a01b038135169060200135611f75565b3480156108d157600080fd5b506108da61208a565b604080516001600160a01b039092168252519081900360200190f35b34801561090257600080fd5b5061026f6004803603606081101561091957600080fd5b50803590602081013590604001356120ae565b34801561093857600080fd5b5061026f600480360360c081101561094f57600080fd5b506001600160a01b0381358116916020810135916040820135916060810135916080820135169060a001356120bb565b6101c66004803603608081101561099557600080fd5b813591908101906040810160208201356401000000008111156109b757600080fd5b8201836020820111156109c957600080fd5b803590602001918460208302840111640100000000831117156109eb57600080fd5b91935091506001600160a01b038135169060200135612247565b348015610a1157600080fd5b50610220600480360360e0811015610a2857600080fd5b506001600160a01b038135811691602081013582169160408201359160608101359160808201359160a08101359091169060c001356125d0565b348015610a6e57600080fd5b506108da612878565b348015610a8357600080fd5b5061031960048036036040811015610a9a57600080fd5b81359190810190604081016020820135640100000000811115610abc57600080fd5b820183602082011115610ace57600080fd5b80359060200191846020830284011164010000000083111715610af057600080fd5b91908080602002602001604051908101604052809392919081815260200183836020028082843760009201919091525092955061289c945050505050565b348015610b3a57600080fd5b506102206004803603610140811015610b5257600080fd5b506001600160a01b0381358116916020810135916040820135916060810135916080820135169060a08101359060c081013515159060ff60e082013516906101008101359061012001356128c9565b348015610bad57600080fd5b50610c036004803603610100811015610bc557600080fd5b506001600160a01b038135811691602081013582169160408201359160608101359160808201359160a08101359160c0820135169060e001356129f6565b60408051938452602084019290925282820152519081900360600190f35b610c03600480360360c0811015610c3757600080fd5b506001600160a01b0381358116916020810135916040820135916060810135916080820135169060a00135612b2f565b61031960048036036080811015610c7d57600080fd5b81359190810190604081016020820135640100000000811115610c9f57600080fd5b820183602082011115610cb157600080fd5b80359060200191846020830284011164010000000083111715610cd357600080fd5b91935091506001600160a01b038135169060200135612dc8565b6000808242811015610d3a576040805162461bcd60e51b8152602060048201526011602482015270149bdd5d195c958c8e8811561412549151607a1b604482015290519081900360640190fd5b610d69897f00000000000000000000000000000000000000000000000000000000000000008a8a8a308a6125d0565b9093509150610d7989868561316f565b7f00000000000000000000000000000000000000000000000000000000000000006001600160a01b0316632e1a7d4d836040518263ffffffff1660e01b815260040180828152602001915050600060405180830381600087803b158015610ddf57600080fd5b505af1158015610df3573d6000803e3d6000fd5b50505050610e0185836132f1565b50965096945050505050565b6000610e1a8484846133e9565b949350505050565b60608142811015610e6e576040805162461bcd60e51b8152602060048201526011602482015270149bdd5d195c958c8e8811561412549151607a1b604482015290519081900360640190fd5b6001600160a01b037f00000000000000000000000000000000000000000000000000000000000000001686866000198101818110610ea857fe5b905060200201356001600160a01b03166001600160a01b031614610f13576040805162461bcd60e51b815260206004820152601660248201527f526f7574657256323a20494e56414c49445f5041544800000000000000000000604482015290519081900360640190fd5b610f717f0000000000000000000000000000000000000000000000000000000000000000898888808060200260200160405190810160405280939291908181526020018383602002808284376000920191909152506134c192505050565b91508682600184510381518110610f8457fe5b60200260200101511015610fc95760405162461bcd60e51b81526004018080602001828103825260248152602001806146d56024913960400191505060405180910390fd5b61106786866000818110610fd957fe5b905060200201356001600160a01b03163361104d7f00000000000000000000000000000000000000000000000000000000000000008a8a600081811061101b57fe5b905060200201356001600160a01b03168b8b600181811061103857fe5b905060200201356001600160a01b031661360d565b8560008151811061105a57fe5b60200260200101516136f8565b6110a682878780806020026020016040519081016040528093929190818152602001838360200280828437600092019190915250309250613883915050565b7f00000000000000000000000000000000000000000000000000000000000000006001600160a01b0316632e1a7d4d836001855103815181106110e557fe5b60200260200101516040518263ffffffff1660e01b815260040180828152602001915050600060405180830381600087803b15801561112357600080fd5b505af1158015611137573d6000803e3d6000fd5b5050505061115c848360018551038151811061114f57fe5b60200260200101516132f1565b509695505050505050565b60606111947f00000000000000000000000000000000000000000000000000000000000000008484613ac0565b90505b92915050565b60008060006111cd7f00000000000000000000000000000000000000000000000000000000000000008f8f61360d565b90506000876111dc578c6111e0565b6000195b604080517fd505accf00000000000000000000000000000000000000000000000000000000815233600482015230602482015260448101839052606481018c905260ff8a16608482015260a4810189905260c4810188905290519192506001600160a01b0384169163d505accf9160e48082019260009290919082900301818387803b15801561126f57600080fd5b505af1158015611283573d6000803e3d6000fd5b505050506112968f8f8f8f8f8f8f6125d0565b809450819550505050509b509b9950505050505050505050565b606081428110156112fc576040805162461bcd60e51b8152602060048201526011602482015270149bdd5d195c958c8e8811561412549151607a1b604482015290519081900360640190fd5b61135a7f0000000000000000000000000000000000000000000000000000000000000000898888808060200260200160405190810160405280939291908181526020018383602002808284376000920191909152506134c192505050565b9150868260018451038151811061136d57fe5b602002602001015110156113b25760405162461bcd60e51b81526004018080602001828103825260248152602001806146d56024913960400191505060405180910390fd5b6113c286866000818110610fd957fe5b61115c82878780806020026020016040519081016040528093929190818152602001838360200280828437600092019190915250899250613883915050565b6060814281101561144d576040805162461bcd60e51b8152602060048201526011602482015270149bdd5d195c958c8e8811561412549151607a1b604482015290519081900360640190fd5b6001600160a01b037f0000000000000000000000000000000000000000000000000000000000000000168686600019810181811061148757fe5b905060200201356001600160a01b03166001600160a01b0316146114f2576040805162461bcd60e51b815260206004820152601660248201527f526f7574657256323a20494e56414c49445f5041544800000000000000000000604482015290519081900360640190fd5b6115507f000000000000000000000000000000000000000000000000000000000000000089888880806020026020016040519081016040528093929190818152602001838360200280828437600092019190915250613ac092505050565b9150868260008151811061156057fe5b60200260200101511115610fc9576040805162461bcd60e51b815260206004820181905260248201527f526f7574657256323a204558434553534956455f494e5055545f414d4f554e54604482015290519081900360640190fd5b6000806116097f00000000000000000000000000000000000000000000000000000000000000008d7f000000000000000000000000000000000000000000000000000000000000000061360d565b9050600086611618578b61161c565b6000195b604080517fd505accf00000000000000000000000000000000000000000000000000000000815233600482015230602482015260448101839052606481018b905260ff8916608482015260a4810188905260c4810187905290519192506001600160a01b0384169163d505accf9160e48082019260009290919082900301818387803b1580156116ab57600080fd5b505af11580156116bf573d6000803e3d6000fd5b505050506116d18d8d8d8d8d8d6120bb565b9d9c50505050505050505050505050565b804281101561172c576040805162461bcd60e51b8152602060048201526011602482015270149bdd5d195c958c8e8811561412549151607a1b604482015290519081900360640190fd5b6117a18585600081811061173c57fe5b905060200201356001600160a01b03163361179b7f00000000000000000000000000000000000000000000000000000000000000008989600081811061177e57fe5b905060200201356001600160a01b03168a8a600181811061103857fe5b8a6136f8565b6000858560001981018181106117b357fe5b905060200201356001600160a01b03166001600160a01b03166370a08231856040518263ffffffff1660e01b815260040180826001600160a01b0316815260200191505060206040518083038186803b15801561180f57600080fd5b505afa158015611823573d6000803e3d6000fd5b505050506040513d602081101561183957600080fd5b5051604080516020888102828101820190935288825292935061187b929091899189918291850190849080828437600092019190915250889250613bf8915050565b8661191e828888600019810181811061189057fe5b905060200201356001600160a01b03166001600160a01b03166370a08231886040518263ffffffff1660e01b815260040180826001600160a01b0316815260200191505060206040518083038186803b1580156118ec57600080fd5b505afa158015611900573d6000803e3d6000fd5b505050506040513d602081101561191657600080fd5b505190613f1a565b101561195b5760405162461bcd60e51b81526004018080602001828103825260248152602001806146d56024913960400191505060405180910390fd5b5050505050505050565b80428110156119af576040805162461bcd60e51b8152602060048201526011602482015270149bdd5d195c958c8e8811561412549151607a1b604482015290519081900360640190fd5b6001600160a01b037f000000000000000000000000000000000000000000000000000000000000000016858560001981018181106119e957fe5b905060200201356001600160a01b03166001600160a01b031614611a54576040805162461bcd60e51b815260206004820152601660248201527f526f7574657256323a20494e56414c49445f5041544800000000000000000000604482015290519081900360640190fd5b611a648585600081811061173c57fe5b611aa2858580806020026020016040519081016040528093929190818152602001838360200280828437600092019190915250309250613bf8915050565b60007f00000000000000000000000000000000000000000000000000000000000000006001600160a01b03166370a08231306040518263ffffffff1660e01b815260040180826001600160a01b0316815260200191505060206040518083038186803b158015611b1157600080fd5b505afa158015611b25573d6000803e3d6000fd5b505050506040513d6020811015611b3b57600080fd5b5051905086811015611b7e5760405162461bcd60e51b81526004018080602001828103825260248152602001806146d56024913960400191505060405180910390fd5b7f00000000000000000000000000000000000000000000000000000000000000006001600160a01b0316632e1a7d4d826040518263ffffffff1660e01b815260040180828152602001915050600060405180830381600087803b158015611be457600080fd5b505af1158015611bf8573d6000803e3d6000fd5b5050505061195b84826132f1565b60608142811015611c52576040805162461bcd60e51b8152602060048201526011602482015270149bdd5d195c958c8e8811561412549151607a1b604482015290519081900360640190fd5b7f00000000000000000000000000000000000000000000000000000000000000006001600160a01b031686866000818110611c8957fe5b905060200201356001600160a01b03166001600160a01b031614611cf4576040805162461bcd60e51b815260206004820152601660248201527f526f7574657256323a20494e56414c49445f5041544800000000000000000000604482015290519081900360640190fd5b611d527f0000000000000000000000000000000000000000000000000000000000000000348888808060200260200160405190810160405280939291908181526020018383602002808284376000920191909152506134c192505050565b91508682600184510381518110611d6557fe5b60200260200101511015611daa5760405162461bcd60e51b81526004018080602001828103825260248152602001806146d56024913960400191505060405180910390fd5b7f00000000000000000000000000000000000000000000000000000000000000006001600160a01b031663d0e30db083600081518110611de657fe5b60200260200101516040518263ffffffff1660e01b81526004016000604051808303818588803b158015611e1957600080fd5b505af1158015611e2d573d6000803e3d6000fd5b50505050507f00000000000000000000000000000000000000000000000000000000000000006001600160a01b031663a9059cbb611e927f00000000000000000000000000000000000000000000000000000000000000008989600081811061177e57fe5b84600081518110611e9f57fe5b60200260200101516040518363ffffffff1660e01b815260040180836001600160a01b0316815260200182815260200192505050602060405180830381600087803b158015611eed57600080fd5b505af1158015611f01573d6000803e3d6000fd5b505050506040513d6020811015611f1757600080fd5b5051611f1f57fe5b611f5e82878780806020026020016040519081016040528093929190818152602001838360200280828437600092019190915250899250613883915050565b5095945050505050565b6000610e1a848484613f72565b60608142811015611fc1576040805162461bcd60e51b8152602060048201526011602482015270149bdd5d195c958c8e8811561412549151607a1b604482015290519081900360640190fd5b61201f7f000000000000000000000000000000000000000000000000000000000000000089888880806020026020016040519081016040528093929190818152602001838360200280828437600092019190915250613ac092505050565b9150868260008151811061202f57fe5b602002602001015111156113b2576040805162461bcd60e51b815260206004820181905260248201527f526f7574657256323a204558434553534956455f494e5055545f414d4f554e54604482015290519081900360640190fd5b7f000000000000000000000000000000000000000000000000000000000000000081565b6000610e1a84848461404a565b60008142811015612107576040805162461bcd60e51b8152602060048201526011602482015270149bdd5d195c958c8e8811561412549151607a1b604482015290519081900360640190fd5b612136887f000000000000000000000000000000000000000000000000000000000000000089898930896125d0565b9050809250506121bf88858a6001600160a01b03166370a08231306040518263ffffffff1660e01b815260040180826001600160a01b0316815260200191505060206040518083038186803b15801561218e57600080fd5b505afa1580156121a2573d6000803e3d6000fd5b505050506040513d60208110156121b857600080fd5b505161316f565b7f00000000000000000000000000000000000000000000000000000000000000006001600160a01b0316632e1a7d4d836040518263ffffffff1660e01b815260040180828152602001915050600060405180830381600087803b15801561222557600080fd5b505af1158015612239573d6000803e3d6000fd5b5050505061115c84836132f1565b8042811015612291576040805162461bcd60e51b8152602060048201526011602482015270149bdd5d195c958c8e8811561412549151607a1b604482015290519081900360640190fd5b7f00000000000000000000000000000000000000000000000000000000000000006001600160a01b0316858560008181106122c857fe5b905060200201356001600160a01b03166001600160a01b031614612333576040805162461bcd60e51b815260206004820152601660248201527f526f7574657256323a20494e56414c49445f5041544800000000000000000000604482015290519081900360640190fd5b60003490507f00000000000000000000000000000000000000000000000000000000000000006001600160a01b031663d0e30db0826040518263ffffffff1660e01b81526004016000604051808303818588803b15801561239357600080fd5b505af11580156123a7573d6000803e3d6000fd5b50505050507f00000000000000000000000000000000000000000000000000000000000000006001600160a01b031663a9059cbb61240c7f00000000000000000000000000000000000000000000000000000000000000008989600081811061177e57fe5b836040518363ffffffff1660e01b815260040180836001600160a01b0316815260200182815260200192505050602060405180830381600087803b15801561245357600080fd5b505af1158015612467573d6000803e3d6000fd5b505050506040513d602081101561247d57600080fd5b505161248557fe5b60008686600019810181811061249757fe5b905060200201356001600160a01b03166001600160a01b03166370a08231866040518263ffffffff1660e01b815260040180826001600160a01b0316815260200191505060206040518083038186803b1580156124f357600080fd5b505afa158015612507573d6000803e3d6000fd5b505050506040513d602081101561251d57600080fd5b5051604080516020898102828101820190935289825292935061255f9290918a918a918291850190849080828437600092019190915250899250613bf8915050565b8761191e828989600019810181811061257457fe5b905060200201356001600160a01b03166001600160a01b03166370a08231896040518263ffffffff1660e01b815260040180826001600160a01b0316815260200191505060206040518083038186803b1580156118ec57600080fd5b600080824281101561261d576040805162461bcd60e51b8152602060048201526011602482015270149bdd5d195c958c8e8811561412549151607a1b604482015290519081900360640190fd5b600061264a7f00000000000000000000000000000000000000000000000000000000000000008c8c61360d565b604080517f23b872dd0000000000000000000000000000000000000000000000000000000081523360048201526001600160a01b03831660248201819052604482018d9052915192935090916323b872dd916064808201926020929091908290030181600087803b1580156126be57600080fd5b505af11580156126d2573d6000803e3d6000fd5b505050506040513d60208110156126e857600080fd5b5050604080517f89afcb440000000000000000000000000000000000000000000000000000000081526001600160a01b03888116600483015282516000938493928616926389afcb44926024808301939282900301818787803b15801561274e57600080fd5b505af1158015612762573d6000803e3d6000fd5b505050506040513d604081101561277857600080fd5b508051602090910151909250905060006127928e8e614106565b509050806001600160a01b03168e6001600160a01b0316146127b55781836127b8565b82825b90975095508a871015612812576040805162461bcd60e51b815260206004820152601f60248201527f526f7574657256323a20494e53554646494349454e545f415f414d4f554e5400604482015290519081900360640190fd5b89861015612867576040805162461bcd60e51b815260206004820152601f60248201527f526f7574657256323a20494e53554646494349454e545f425f414d4f554e5400604482015290519081900360640190fd5b505050505097509795505050505050565b7f000000000000000000000000000000000000000000000000000000000000000081565b60606111947f000000000000000000000000000000000000000000000000000000000000000084846134c1565b60008060006129197f00000000000000000000000000000000000000000000000000000000000000008e7f000000000000000000000000000000000000000000000000000000000000000061360d565b9050600087612928578c61292c565b6000195b604080517fd505accf00000000000000000000000000000000000000000000000000000000815233600482015230602482015260448101839052606481018c905260ff8a16608482015260a4810189905260c4810188905290519192506001600160a01b0384169163d505accf9160e48082019260009290919082900301818387803b1580156129bb57600080fd5b505af11580156129cf573d6000803e3d6000fd5b505050506129e18e8e8e8e8e8e610ced565b909f909e509c50505050505050505050505050565b60008060008342811015612a45576040805162461bcd60e51b8152602060048201526011602482015270149bdd5d195c958c8e8811561412549151607a1b604482015290519081900360640190fd5b612a538c8c8c8c8c8c6141fa565b90945092506000612a857f00000000000000000000000000000000000000000000000000000000000000008e8e61360d565b9050612a938d3383886136f8565b612a9f8c3383876136f8565b806001600160a01b0316636a627842886040518263ffffffff1660e01b815260040180826001600160a01b03168152602001915050602060405180830381600087803b158015612aee57600080fd5b505af1158015612b02573d6000803e3d6000fd5b505050506040513d6020811015612b1857600080fd5b5051949d939c50939a509198505050505050505050565b60008060008342811015612b7e576040805162461bcd60e51b8152602060048201526011602482015270149bdd5d195c958c8e8811561412549151607a1b604482015290519081900360640190fd5b612bac8a7f00000000000000000000000000000000000000000000000000000000000000008b348c8c6141fa565b90945092506000612bfe7f00000000000000000000000000000000000000000000000000000000000000008c7f000000000000000000000000000000000000000000000000000000000000000061360d565b9050612c0c8b3383886136f8565b7f00000000000000000000000000000000000000000000000000000000000000006001600160a01b031663d0e30db0856040518263ffffffff1660e01b81526004016000604051808303818588803b158015612c6757600080fd5b505af1158015612c7b573d6000803e3d6000fd5b50505050507f00000000000000000000000000000000000000000000000000000000000000006001600160a01b031663a9059cbb82866040518363ffffffff1660e01b815260040180836001600160a01b0316815260200182815260200192505050602060405180830381600087803b158015612cf757600080fd5b505af1158015612d0b573d6000803e3d6000fd5b505050506040513d6020811015612d2157600080fd5b5051612d2957fe5b806001600160a01b0316636a627842886040518263ffffffff1660e01b815260040180826001600160a01b03168152602001915050602060405180830381600087803b158015612d7857600080fd5b505af1158015612d8c573d6000803e3d6000fd5b505050506040513d6020811015612da257600080fd5b5051925034841015612dba57612dba338534036132f1565b505096509650969350505050565b60608142811015612e14576040805162461bcd60e51b8152602060048201526011602482015270149bdd5d195c958c8e8811561412549151607a1b604482015290519081900360640190fd5b7f00000000000000000000000000000000000000000000000000000000000000006001600160a01b031686866000818110612e4b57fe5b905060200201356001600160a01b03166001600160a01b031614612eb6576040805162461bcd60e51b815260206004820152601660248201527f526f7574657256323a20494e56414c49445f5041544800000000000000000000604482015290519081900360640190fd5b612f147f000000000000000000000000000000000000000000000000000000000000000088888880806020026020016040519081016040528093929190818152602001838360200280828437600092019190915250613ac092505050565b91503482600081518110612f2457fe5b60200260200101511115612f7f576040805162461bcd60e51b815260206004820181905260248201527f526f7574657256323a204558434553534956455f494e5055545f414d4f554e54604482015290519081900360640190fd5b7f00000000000000000000000000000000000000000000000000000000000000006001600160a01b031663d0e30db083600081518110612fbb57fe5b60200260200101516040518263ffffffff1660e01b81526004016000604051808303818588803b158015612fee57600080fd5b505af1158015613002573d6000803e3d6000fd5b50505050507f00000000000000000000000000000000000000000000000000000000000000006001600160a01b031663a9059cbb6130677f00000000000000000000000000000000000000000000000000000000000000008989600081811061177e57fe5b8460008151811061307457fe5b60200260200101516040518363ffffffff1660e01b815260040180836001600160a01b0316815260200182815260200192505050602060405180830381600087803b1580156130c257600080fd5b505af11580156130d6573d6000803e3d6000fd5b505050506040513d60208110156130ec57600080fd5b50516130f457fe5b61313382878780806020026020016040519081016040528093929190818152602001838360200280828437600092019190915250899250613883915050565b8160008151811061314057fe5b6020026020010151341115611f5e57611f5e338360008151811061316057fe5b602002602001015134036132f1565b604080516001600160a01b038481166024830152604480830185905283518084039091018152606490920183526020820180517bffffffffffffffffffffffffffffffffffffffffffffffffffffffff167fa9059cbb00000000000000000000000000000000000000000000000000000000178152925182516000946060949389169392918291908083835b6020831061321a5780518252601f1990920191602091820191016131fb565b6001836020036101000a0380198251168184511680821785525050505050509050019150506000604051808303816000865af19150503d806000811461327c576040519150601f19603f3d011682016040523d82523d6000602084013e613281565b606091505b50915091508180156132af5750805115806132af57508080602001905160208110156132ac57600080fd5b50515b6132ea5760405162461bcd60e51b815260040180806020018281038252602d815260200180614720602d913960400191505060405180910390fd5b5050505050565b604080516000808252602082019092526001600160a01b0384169083906040518082805190602001908083835b6020831061333d5780518252601f19909201916020918201910161331e565b6001836020036101000a03801982511681845116808217855250505050505090500191505060006040518083038185875af1925050503d806000811461339f576040519150601f19603f3d011682016040523d82523d6000602084013e6133a4565b606091505b50509050806133e45760405162461bcd60e51b815260040180806020018281038252603481526020018061467b6034913960400191505060405180910390fd5b505050565b60008084116134295760405162461bcd60e51b81526004018080602001828103825260268152602001806146af6026913960400191505060405180910390fd5b6000831180156134395750600082115b6134745760405162461bcd60e51b815260040180806020018281038252602381526020018061474d6023913960400191505060405180910390fd5b6000613482856103e56144b7565b9050600061349082856144b7565b905060006134aa836134a4886103e86144b7565b90614523565b90508082816134b557fe5b04979650505050505050565b606060028251101561351a576040805162461bcd60e51b815260206004820152601960248201527f4d61696e4c6962726172793a20494e56414c49445f5041544800000000000000604482015290519081900360640190fd5b815167ffffffffffffffff8111801561353257600080fd5b5060405190808252806020026020018201604052801561355c578160200160208202803683370190505b509050828160008151811061356d57fe5b60200260200101818152505060005b6001835103811015613605576000806135bf8786858151811061359b57fe5b60200260200101518786600101815181106135b257fe5b602002602001015161457b565b915091506135e18484815181106135d257fe5b602002602001015183836133e9565b8484600101815181106135f057fe5b6020908102919091010152505060010161357c565b509392505050565b600080600061361c8585614106565b604080517fffffffffffffffffffffffffffffffffffffffff000000000000000000000000606094851b811660208084019190915293851b81166034830152825160288184030181526048830184528051908501207fff0000000000000000000000000000000000000000000000000000000000000060688401529a90941b9093166069840152607d8301989098527f2b412748f39ea0fec33e51424ba001ecc89020b7b84f9827e1bd91468446d718609d808401919091528851808403909101815260bd909201909752805196019590952095945050505050565b604080516001600160a01b0385811660248301528481166044830152606480830185905283518084039091018152608490920183526020820180517bffffffffffffffffffffffffffffffffffffffffffffffffffffffff167f23b872dd0000000000000000000000000000000000000000000000000000000017815292518251600094606094938a169392918291908083835b602083106137ab5780518252601f19909201916020918201910161378c565b6001836020036101000a0380198251168184511680821785525050505050509050019150506000604051808303816000865af19150503d806000811461380d576040519150601f19603f3d011682016040523d82523d6000602084013e613812565b606091505b5091509150818015613840575080511580613840575080806020019051602081101561383d57600080fd5b50515b61387b5760405162461bcd60e51b815260040180806020018281038252603181526020018061464a6031913960400191505060405180910390fd5b505050505050565b60005b6001835103811015613aba576000808483815181106138a157fe5b60200260200101518584600101815181106138b857fe5b60200260200101519150915060006138d08383614106565b50905060008785600101815181106138e457fe5b60200260200101519050600080836001600160a01b0316866001600160a01b03161461391257826000613916565b6000835b91509150600060028a5103881061392d578861396e565b61396e7f0000000000000000000000000000000000000000000000000000000000000000878c8b6002018151811061396157fe5b602002602001015161360d565b905061399b7f0000000000000000000000000000000000000000000000000000000000000000888861360d565b6001600160a01b031663022c0d9f84848460006040519080825280601f01601f1916602001820160405280156139d8576020820181803683370190505b506040518563ffffffff1660e01b815260040180858152602001848152602001836001600160a01b0316815260200180602001828103825283818151815260200191508051906020019080838360005b83811015613a40578181015183820152602001613a28565b50505050905090810190601f168015613a6d5780820380516001836020036101000a031916815260200191505b5095505050505050600060405180830381600087803b158015613a8f57600080fd5b505af1158015613aa3573d6000803e3d6000fd5b505060019099019850613886975050505050505050565b50505050565b6060600282511015613b19576040805162461bcd60e51b815260206004820152601960248201527f4d61696e4c6962726172793a20494e56414c49445f5041544800000000000000604482015290519081900360640190fd5b815167ffffffffffffffff81118015613b3157600080fd5b50604051908082528060200260200182016040528015613b5b578160200160208202803683370190505b5090508281600183510381518110613b6f57fe5b60209081029190910101528151600019015b801561360557600080613bb187866001860381518110613b9d57fe5b60200260200101518786815181106135b257fe5b91509150613bd3848481518110613bc457fe5b60200260200101518383613f72565b846001850381518110613be257fe5b6020908102919091010152505060001901613b81565b60005b60018351038110156133e457600080848381518110613c1657fe5b6020026020010151858460010181518110613c2d57fe5b6020026020010151915091506000613c458383614106565b5090506000613c757f0000000000000000000000000000000000000000000000000000000000000000858561360d565b9050600080600080846001600160a01b0316630902f1ac6040518163ffffffff1660e01b815260040160606040518083038186803b158015613cb657600080fd5b505afa158015613cca573d6000803e3d6000fd5b505050506040513d6060811015613ce057600080fd5b5080516020909101516dffffffffffffffffffffffffffff91821693501690506000806001600160a01b038a811690891614613d1d578284613d20565b83835b91509150613d75828b6001600160a01b03166370a082318a6040518263ffffffff1660e01b815260040180826001600160a01b0316815260200191505060206040518083038186803b1580156118ec57600080fd5b9550613d828683836133e9565b945050505050600080856001600160a01b0316886001600160a01b031614613dac57826000613db0565b6000835b91509150600060028c51038a10613dc7578a613dfb565b613dfb7f0000000000000000000000000000000000000000000000000000000000000000898e8d6002018151811061396157fe5b60408051600080825260208201928390527f022c0d9f00000000000000000000000000000000000000000000000000000000835260248201878152604483018790526001600160a01b038086166064850152608060848501908152845160a48601819052969750908c169563022c0d9f958a958a958a9591949193919260c486019290918190849084905b83811015613e9e578181015183820152602001613e86565b50505050905090810190601f168015613ecb5780820380516001836020036101000a031916815260200191505b5095505050505050600060405180830381600087803b158015613eed57600080fd5b505af1158015613f01573d6000803e3d6000fd5b50506001909b019a50613bfb9950505050505050505050565b80820382811115611197576040805162461bcd60e51b815260206004820152601560248201527f64732d6d6174682d7375622d756e646572666c6f770000000000000000000000604482015290519081900360640190fd5b6000808411613fb25760405162461bcd60e51b81526004018080602001828103825260278152602001806146f96027913960400191505060405180910390fd5b600083118015613fc25750600082115b613ffd5760405162461bcd60e51b815260040180806020018281038252602381526020018061474d6023913960400191505060405180910390fd5b60006140156103e861400f86886144b7565b906144b7565b905060006140296103e561400f8689613f1a565b9050614040600182848161403957fe5b0490614523565b9695505050505050565b60008084116140a0576040805162461bcd60e51b815260206004820181905260248201527f4d61696e4c6962726172793a20494e53554646494349454e545f414d4f554e54604482015290519081900360640190fd5b6000831180156140b05750600082115b6140eb5760405162461bcd60e51b815260040180806020018281038252602381526020018061474d6023913960400191505060405180910390fd5b826140f685846144b7565b816140fd57fe5b04949350505050565b600080826001600160a01b0316846001600160a01b03161415614170576040805162461bcd60e51b815260206004820181905260248201527f4d61696e4c6962726172793a204944454e544943414c5f414444524553534553604482015290519081900360640190fd5b826001600160a01b0316846001600160a01b031610614190578284614193565b83835b90925090506001600160a01b0382166141f3576040805162461bcd60e51b815260206004820152601960248201527f4d61696e4c6962726172793a205a45524f5f4144445245535300000000000000604482015290519081900360640190fd5b9250929050565b60008060006001600160a01b03167f00000000000000000000000000000000000000000000000000000000000000006001600160a01b031663e6a439058a8a6040518363ffffffff1660e01b815260040180836001600160a01b03168152602001826001600160a01b031681526020019250505060206040518083038186803b15801561428657600080fd5b505afa15801561429a573d6000803e3d6000fd5b505050506040513d60208110156142b057600080fd5b50516001600160a01b0316141561436e577f00000000000000000000000000000000000000000000000000000000000000006001600160a01b031663c9c6539689896040518363ffffffff1660e01b815260040180836001600160a01b03168152602001826001600160a01b0316815260200192505050602060405180830381600087803b15801561434157600080fd5b505af1158015614355573d6000803e3d6000fd5b505050506040513d602081101561436b57600080fd5b50505b60008061439c7f00000000000000000000000000000000000000000000000000000000000000008b8b61457b565b915091508160001480156143ae575080155b156143be578793508692506144aa565b60006143cb89848461404a565b90508781116144345785811015614429576040805162461bcd60e51b815260206004820152601f60248201527f526f7574657256323a20494e53554646494349454e545f425f414d4f554e5400604482015290519081900360640190fd5b8894509250826144a8565b600061444189848661404a565b90508981111561444d57fe5b878110156144a2576040805162461bcd60e51b815260206004820152601f60248201527f526f7574657256323a20494e53554646494349454e545f415f414d4f554e5400604482015290519081900360640190fd5b94508793505b505b5050965096945050505050565b60008115806144d2575050808202828282816144cf57fe5b04145b611197576040805162461bcd60e51b815260206004820152601460248201527f64732d6d6174682d6d756c2d6f766572666c6f77000000000000000000000000604482015290519081900360640190fd5b80820182811015611197576040805162461bcd60e51b815260206004820152601460248201527f64732d6d6174682d6164642d6f766572666c6f77000000000000000000000000604482015290519081900360640190fd5b600080600061458a8585614106565b50905060008061459b88888861360d565b6001600160a01b0316630902f1ac6040518163ffffffff1660e01b815260040160606040518083038186803b1580156145d357600080fd5b505afa1580156145e7573d6000803e3d6000fd5b505050506040513d60608110156145fd57600080fd5b5080516020909101516dffffffffffffffffffffffffffff91821693501690506001600160a01b038781169084161461463757808261463a565b81815b9099909850965050505050505056fe5472616e7366657248656c7065723a3a7472616e7366657246726f6d3a207472616e7366657246726f6d206661696c65645472616e7366657248656c7065723a3a736166655472616e736665724554483a20455448207472616e73666572206661696c65644d61696e4c6962726172793a20494e53554646494349454e545f494e5055545f414d4f554e54526f7574657256323a20494e53554646494349454e545f4f55545055545f414d4f554e544d61696e4c6962726172793a20494e53554646494349454e545f4f55545055545f414d4f554e545472616e7366657248656c7065723a3a736166655472616e736665723a207472616e73666572206661696c65644d61696e4c6962726172793a20494e53554646494349454e545f4c4951554944495459a2646970667358221220d620c97e151f1fc342b0f2388738879944844c6e7100ff3c96bf4b6c439d813564736f6c63430007050033",
  "immutableReferences": {
    "3138": [
      {
        "length": 32,
        "start": 3864
      },
      {
        "length": 32,
        "start": 4079
      },
      {
        "length": 32,
        "start": 4462
      },
      {
        "length": 32,
        "start": 4519
      },
      {
        "length": 32,
        "start": 4865
      },
      {
        "length": 32,
        "start": 5367
      },
      {
        "length": 32,
        "start": 5571
      },
      {
        "length": 32,
        "start": 5970
      },
      {
        "length": 32,
        "start": 7417
      },
      {
        "length": 32,
        "start": 7782
      },
      {
        "length": 32,
        "start": 8134
      },
      {
        "length": 32,
        "start": 9184
      },
      {
        "length": 32,
        "start": 9764
      },
      {
        "length": 32,
        "start": 10362
      },
      {
        "length": 32,
        "start": 10403
      },
      {
        "length": 32,
        "start": 10451
      },
      {
        "length": 32,
        "start": 10847
      },
      {
        "length": 32,
        "start": 11192
      },
      {
        "length": 32,
        "start": 11963
      },
      {
        "length": 32,
        "start": 12347
      },
      {
        "length": 32,
        "start": 14642
      },
      {
        "length": 32,
        "start": 14709
      },
      {
        "length": 32,
        "start": 15439
      },
      {
        "length": 32,
        "start": 15820
      },
      {
        "length": 32,
        "start": 16906
      },
      {
        "length": 32,
        "start": 17091
      },
      {
        "length": 32,
        "start": 17270
      }
    ],
    "3141": [
      {
        "length": 32,
        "start": 415
      },
      {
        "length": 32,
        "start": 3392
      },
      {
        "length": 32,
        "start": 3451
      },
      {
        "length": 32,
        "start": 3704
      },
      {
        "length": 32,
        "start": 4264
      },
      {
        "length": 32,
        "start": 5207
      },
      {
        "length": 32,
        "start": 5605
      },
      {
        "length": 32,
        "start": 6585
      },
      {
        "length": 32,
        "start": 6822
      },
      {
        "length": 32,
        "start": 7040
      },
      {
        "length": 32,
        "start": 7252
      },
      {
        "length": 32,
        "start": 7596
      },
      {
        "length": 32,
        "start": 7732
      },
      {
        "length": 32,
        "start": 8332
      },
      {
        "length": 32,
        "start": 8461
      },
      {
        "length": 32,
        "start": 8641
      },
      {
        "length": 32,
        "start": 8851
      },
      {
        "length": 32,
        "start": 9018
      },
      {
        "length": 32,
        "start": 9134
      },
      {
        "length": 32,
        "start": 10485
      },
      {
        "length": 32,
        "start": 11140
      },
      {
        "length": 32,
        "start": 11226
      },
      {
        "length": 32,
        "start": 11278
      },
      {
        "length": 32,
        "start": 11394
      },
      {
        "length": 32,
        "start": 11798
      },
      {
        "length": 32,
        "start": 12161
      },
      {
        "length": 32,
        "start": 12297
      }
    ]
  },
  "source": "// SPDX-License-Identifier: MIT\npragma solidity =0.7.5;\n\nimport './libraries/TransferHelper.sol';\nimport './libraries/MainLibrary.sol';\nimport './libraries/SafeMath.sol';\n\nimport './interfaces/IUniswapV2Factory.sol';\nimport './interfaces/IUniswapV2Router02.sol';\nimport './interfaces/IERC20.sol';\nimport './interfaces/IWETH.sol';\n\ncontract RouterV2 is IUniswapV2Router02 {\n    using SafeMath for uint;\n\n    address public immutable override factory;\n    address public immutable override WETH;\n\n    modifier ensure(uint deadline) {\n        require(deadline >= block.timestamp, 'RouterV2: EXPIRED');\n        _;\n    }\n\n    constructor(address _factory, address _WETH) {\n        factory = _factory;\n        WETH = _WETH;\n    }\n\n    receive() external payable {\n        assert(msg.sender == WETH); // only accept ETH via fallback from the WETH contract\n    }\n\n    // **** ADD LIQUIDITY ****\n    function _addLiquidity(\n        address tokenA,\n        address tokenB,\n        uint amountADesired,\n        uint amountBDesired,\n        uint amountAMin,\n        uint amountBMin\n    ) internal virtual returns (uint amountA, uint amountB) {\n        // create the pair if it doesn't exist yet\n        if (IUniswapV2Factory(factory).getPair(tokenA, tokenB) == address(0)) {\n            IUniswapV2Factory(factory).createPair(tokenA, tokenB);\n        }\n        (uint reserveA, uint reserveB) = MainLibrary.getReserves(factory, tokenA, tokenB);\n        if (reserveA == 0 && reserveB == 0) {\n            (amountA, amountB) = (amountADesired, amountBDesired);\n        } else {\n            uint amountBOptimal = MainLibrary.quote(amountADesired, reserveA, reserveB);\n            if (amountBOptimal <= amountBDesired) {\n                require(amountBOptimal >= amountBMin, 'RouterV2: INSUFFICIENT_B_AMOUNT');\n                (amountA, amountB) = (amountADesired, amountBOptimal);\n            } else {\n                uint amountAOptimal = MainLibrary.quote(amountBDesired, reserveB, reserveA);\n                assert(amountAOptimal <= amountADesired);\n                require(amountAOptimal >= amountAMin, 'RouterV2: INSUFFICIENT_A_AMOUNT');\n                (amountA, amountB) = (amountAOptimal, amountBDesired);\n            }\n        }\n    }\n    function addLiquidity(\n        address tokenA,\n        address tokenB,\n        uint amountADesired,\n        uint amountBDesired,\n        uint amountAMin,\n        uint amountBMin,\n        address to,\n        uint deadline\n    ) external virtual override ensure(deadline) returns (uint amountA, uint amountB, uint liquidity) {\n        (amountA, amountB) = _addLiquidity(tokenA, tokenB, amountADesired, amountBDesired, amountAMin, amountBMin);\n        address pair = MainLibrary.pairFor(factory, tokenA, tokenB);\n        TransferHelper.safeTransferFrom(tokenA, msg.sender, pair, amountA);\n        TransferHelper.safeTransferFrom(tokenB, msg.sender, pair, amountB);\n        liquidity = IUniswapV2Pair(pair).mint(to);\n    }\n    function addLiquidityETH(\n        address token,\n        uint amountTokenDesired,\n        uint amountTokenMin,\n        uint amountETHMin,\n        address to,\n        uint deadline\n    ) external virtual override payable ensure(deadline) returns (uint amountToken, uint amountETH, uint liquidity) {\n        (amountToken, amountETH) = _addLiquidity(\n            token,\n            WETH,\n            amountTokenDesired,\n            msg.value,\n            amountTokenMin,\n            amountETHMin\n        );\n        address pair = MainLibrary.pairFor(factory, token, WETH);\n        TransferHelper.safeTransferFrom(token, msg.sender, pair, amountToken);\n        IWETH(WETH).deposit{value: amountETH}();\n        assert(IWETH(WETH).transfer(pair, amountETH));\n        liquidity = IUniswapV2Pair(pair).mint(to);\n        // refund dust eth, if any\n        if (msg.value > amountETH) TransferHelper.safeTransferETH(msg.sender, msg.value - amountETH);\n    }\n\n    // **** REMOVE LIQUIDITY ****\n    function removeLiquidity(\n        address tokenA,\n        address tokenB,\n        uint liquidity,\n        uint amountAMin,\n        uint amountBMin,\n        address to,\n        uint deadline\n    ) public virtual override ensure(deadline) returns (uint amountA, uint amountB) {\n        address pair = MainLibrary.pairFor(factory, tokenA, tokenB);\n        IUniswapV2Pair(pair).transferFrom(msg.sender, pair, liquidity); // send liquidity to pair\n        (uint amount0, uint amount1) = IUniswapV2Pair(pair).burn(to);\n        (address token0,) = MainLibrary.sortTokens(tokenA, tokenB);\n        (amountA, amountB) = tokenA == token0 ? (amount0, amount1) : (amount1, amount0);\n        require(amountA >= amountAMin, 'RouterV2: INSUFFICIENT_A_AMOUNT');\n        require(amountB >= amountBMin, 'RouterV2: INSUFFICIENT_B_AMOUNT');\n    }\n    function removeLiquidityETH(\n        address token,\n        uint liquidity,\n        uint amountTokenMin,\n        uint amountETHMin,\n        address to,\n        uint deadline\n    ) public virtual override ensure(deadline) returns (uint amountToken, uint amountETH) {\n        (amountToken, amountETH) = removeLiquidity(\n            token,\n            WETH,\n            liquidity,\n            amountTokenMin,\n            amountETHMin,\n            address(this),\n            deadline\n        );\n        TransferHelper.safeTransfer(token, to, amountToken);\n        IWETH(WETH).withdraw(amountETH);\n        TransferHelper.safeTransferETH(to, amountETH);\n    }\n    function removeLiquidityWithPermit(\n        address tokenA,\n        address tokenB,\n        uint liquidity,\n        uint amountAMin,\n        uint amountBMin,\n        address to,\n        uint deadline,\n        bool approveMax, uint8 v, bytes32 r, bytes32 s\n    ) external virtual override returns (uint amountA, uint amountB) {\n        address pair = MainLibrary.pairFor(factory, tokenA, tokenB);\n        uint value = approveMax ? uint(-1) : liquidity;\n        IUniswapV2Pair(pair).permit(msg.sender, address(this), value, deadline, v, r, s);\n        (amountA, amountB) = removeLiquidity(tokenA, tokenB, liquidity, amountAMin, amountBMin, to, deadline);\n    }\n    function removeLiquidityETHWithPermit(\n        address token,\n        uint liquidity,\n        uint amountTokenMin,\n        uint amountETHMin,\n        address to,\n        uint deadline,\n        bool approveMax, uint8 v, bytes32 r, bytes32 s\n    ) external virtual override returns (uint amountToken, uint amountETH) {\n        address pair = MainLibrary.pairFor(factory, token, WETH);\n        uint value = approveMax ? uint(-1) : liquidity;\n        IUniswapV2Pair(pair).permit(msg.sender, address(this), value, deadline, v, r, s);\n        (amountToken, amountETH) = removeLiquidityETH(token, liquidity, amountTokenMin, amountETHMin, to, deadline);\n    }\n\n    // **** REMOVE LIQUIDITY (supporting fee-on-transfer tokens) ****\n    function removeLiquidityETHSupportingFeeOnTransferTokens(\n        address token,\n        uint liquidity,\n        uint amountTokenMin,\n        uint amountETHMin,\n        address to,\n        uint deadline\n    ) public virtual override ensure(deadline) returns (uint amountETH) {\n        (, amountETH) = removeLiquidity(\n            token,\n            WETH,\n            liquidity,\n            amountTokenMin,\n            amountETHMin,\n            address(this),\n            deadline\n        );\n        TransferHelper.safeTransfer(token, to, IERC20(token).balanceOf(address(this)));\n        IWETH(WETH).withdraw(amountETH);\n        TransferHelper.safeTransferETH(to, amountETH);\n    }\n    function removeLiquidityETHWithPermitSupportingFeeOnTransferTokens(\n        address token,\n        uint liquidity,\n        uint amountTokenMin,\n        uint amountETHMin,\n        address to,\n        uint deadline,\n        bool approveMax, uint8 v, bytes32 r, bytes32 s\n    ) external virtual override returns (uint amountETH) {\n        address pair = MainLibrary.pairFor(factory, token, WETH);\n        uint value = approveMax ? uint(-1) : liquidity;\n        IUniswapV2Pair(pair).permit(msg.sender, address(this), value, deadline, v, r, s);\n        amountETH = removeLiquidityETHSupportingFeeOnTransferTokens(\n            token, liquidity, amountTokenMin, amountETHMin, to, deadline\n        );\n    }\n\n    // **** SWAP ****\n    // requires the initial amount to have already been sent to the first pair\n    function _swap(uint[] memory amounts, address[] memory path, address _to) internal virtual {\n        for (uint i; i < path.length - 1; i++) {\n            (address input, address output) = (path[i], path[i + 1]);\n            (address token0,) = MainLibrary.sortTokens(input, output);\n            uint amountOut = amounts[i + 1];\n            (uint amount0Out, uint amount1Out) = input == token0 ? (uint(0), amountOut) : (amountOut, uint(0));\n            address to = i < path.length - 2 ? MainLibrary.pairFor(factory, output, path[i + 2]) : _to;\n            IUniswapV2Pair(MainLibrary.pairFor(factory, input, output)).swap(\n                amount0Out, amount1Out, to, new bytes(0)\n            );\n        }\n    }\n    function swapExactTokensForTokens(\n        uint amountIn,\n        uint amountOutMin,\n        address[] calldata path,\n        address to,\n        uint deadline\n    ) external virtual override ensure(deadline) returns (uint[] memory amounts) {\n        amounts = MainLibrary.getAmountsOut(factory, amountIn, path);\n        require(amounts[amounts.length - 1] >= amountOutMin, 'RouterV2: INSUFFICIENT_OUTPUT_AMOUNT');\n        TransferHelper.safeTransferFrom(\n            path[0], msg.sender, MainLibrary.pairFor(factory, path[0], path[1]), amounts[0]\n        );\n        _swap(amounts, path, to);\n    }\n    function swapTokensForExactTokens(\n        uint amountOut,\n        uint amountInMax,\n        address[] calldata path,\n        address to,\n        uint deadline\n    ) external virtual override ensure(deadline) returns (uint[] memory amounts) {\n        amounts = MainLibrary.getAmountsIn(factory, amountOut, path);\n        require(amounts[0] <= amountInMax, 'RouterV2: EXCESSIVE_INPUT_AMOUNT');\n        TransferHelper.safeTransferFrom(\n            path[0], msg.sender, MainLibrary.pairFor(factory, path[0], path[1]), amounts[0]\n        );\n        _swap(amounts, path, to);\n    }\n    function swapExactETHForTokens(uint amountOutMin, address[] calldata path, address to, uint deadline)\n        external\n        virtual\n        override\n        payable\n        ensure(deadline)\n        returns (uint[] memory amounts)\n    {\n        require(path[0] == WETH, 'RouterV2: INVALID_PATH');\n        amounts = MainLibrary.getAmountsOut(factory, msg.value, path);\n        require(amounts[amounts.length - 1] >= amountOutMin, 'RouterV2: INSUFFICIENT_OUTPUT_AMOUNT');\n        IWETH(WETH).deposit{value: amounts[0]}();\n        assert(IWETH(WETH).transfer(MainLibrary.pairFor(factory, path[0], path[1]), amounts[0]));\n        _swap(amounts, path, to);\n    }\n    function swapTokensForExactETH(uint amountOut, uint amountInMax, address[] calldata path, address to, uint deadline)\n        external\n        virtual\n        override\n        ensure(deadline)\n        returns (uint[] memory amounts)\n    {\n        require(path[path.length - 1] == WETH, 'RouterV2: INVALID_PATH');\n        amounts = MainLibrary.getAmountsIn(factory, amountOut, path);\n        require(amounts[0] <= amountInMax, 'RouterV2: EXCESSIVE_INPUT_AMOUNT');\n        TransferHelper.safeTransferFrom(\n            path[0], msg.sender, MainLibrary.pairFor(factory, path[0], path[1]), amounts[0]\n        );\n        _swap(amounts, path, address(this));\n        IWETH(WETH).withdraw(amounts[amounts.length - 1]);\n        TransferHelper.safeTransferETH(to, amounts[amounts.length - 1]);\n    }\n    function swapExactTokensForETH(uint amountIn, uint amountOutMin, address[] calldata path, address to, uint deadline)\n        external\n        virtual\n        override\n        ensure(deadline)\n        returns (uint[] memory amounts)\n    {\n        require(path[path.length - 1] == WETH, 'RouterV2: INVALID_PATH');\n        amounts = MainLibrary.getAmountsOut(factory, amountIn, path);\n        require(amounts[amounts.length - 1] >= amountOutMin, 'RouterV2: INSUFFICIENT_OUTPUT_AMOUNT');\n        TransferHelper.safeTransferFrom(\n            path[0], msg.sender, MainLibrary.pairFor(factory, path[0], path[1]), amounts[0]\n        );\n        _swap(amounts, path, address(this));\n        IWETH(WETH).withdraw(amounts[amounts.length - 1]);\n        TransferHelper.safeTransferETH(to, amounts[amounts.length - 1]);\n    }\n    function swapETHForExactTokens(uint amountOut, address[] calldata path, address to, uint deadline)\n        external\n        virtual\n        override\n        payable\n        ensure(deadline)\n        returns (uint[] memory amounts)\n    {\n        require(path[0] == WETH, 'RouterV2: INVALID_PATH');\n        amounts = MainLibrary.getAmountsIn(factory, amountOut, path);\n        require(amounts[0] <= msg.value, 'RouterV2: EXCESSIVE_INPUT_AMOUNT');\n        IWETH(WETH).deposit{value: amounts[0]}();\n        assert(IWETH(WETH).transfer(MainLibrary.pairFor(factory, path[0], path[1]), amounts[0]));\n        _swap(amounts, path, to);\n        // refund dust eth, if any\n        if (msg.value > amounts[0]) TransferHelper.safeTransferETH(msg.sender, msg.value - amounts[0]);\n    }\n\n    // **** SWAP (supporting fee-on-transfer tokens) ****\n    // requires the initial amount to have already been sent to the first pair\n    function _swapSupportingFeeOnTransferTokens(address[] memory path, address _to) internal virtual {\n        for (uint i; i < path.length - 1; i++) {\n            (address input, address output) = (path[i], path[i + 1]);\n            (address token0,) = MainLibrary.sortTokens(input, output);\n            IUniswapV2Pair pair = IUniswapV2Pair(MainLibrary.pairFor(factory, input, output));\n            uint amountInput;\n            uint amountOutput;\n            { // scope to avoid stack too deep errors\n            (uint reserve0, uint reserve1,) = pair.getReserves();\n            (uint reserveInput, uint reserveOutput) = input == token0 ? (reserve0, reserve1) : (reserve1, reserve0);\n            amountInput = IERC20(input).balanceOf(address(pair)).sub(reserveInput);\n            amountOutput = MainLibrary.getAmountOut(amountInput, reserveInput, reserveOutput);\n            }\n            (uint amount0Out, uint amount1Out) = input == token0 ? (uint(0), amountOutput) : (amountOutput, uint(0));\n            address to = i < path.length - 2 ? MainLibrary.pairFor(factory, output, path[i + 2]) : _to;\n            pair.swap(amount0Out, amount1Out, to, new bytes(0));\n        }\n    }\n    function swapExactTokensForTokensSupportingFeeOnTransferTokens(\n        uint amountIn,\n        uint amountOutMin,\n        address[] calldata path,\n        address to,\n        uint deadline\n    ) external virtual override ensure(deadline) {\n        TransferHelper.safeTransferFrom(\n            path[0], msg.sender, MainLibrary.pairFor(factory, path[0], path[1]), amountIn\n        );\n        uint balanceBefore = IERC20(path[path.length - 1]).balanceOf(to);\n        _swapSupportingFeeOnTransferTokens(path, to);\n        require(\n            IERC20(path[path.length - 1]).balanceOf(to).sub(balanceBefore) >= amountOutMin,\n            'RouterV2: INSUFFICIENT_OUTPUT_AMOUNT'\n        );\n    }\n    function swapExactETHForTokensSupportingFeeOnTransferTokens(\n        uint amountOutMin,\n        address[] calldata path,\n        address to,\n        uint deadline\n    )\n        external\n        virtual\n        override\n        payable\n        ensure(deadline)\n    {\n        require(path[0] == WETH, 'RouterV2: INVALID_PATH');\n        uint amountIn = msg.value;\n        IWETH(WETH).deposit{value: amountIn}();\n        assert(IWETH(WETH).transfer(MainLibrary.pairFor(factory, path[0], path[1]), amountIn));\n        uint balanceBefore = IERC20(path[path.length - 1]).balanceOf(to);\n        _swapSupportingFeeOnTransferTokens(path, to);\n        require(\n            IERC20(path[path.length - 1]).balanceOf(to).sub(balanceBefore) >= amountOutMin,\n            'RouterV2: INSUFFICIENT_OUTPUT_AMOUNT'\n        );\n    }\n    function swapExactTokensForETHSupportingFeeOnTransferTokens(\n        uint amountIn,\n        uint amountOutMin,\n        address[] calldata path,\n        address to,\n        uint deadline\n    )\n        external\n        virtual\n        override\n        ensure(deadline)\n    {\n        require(path[path.length - 1] == WETH, 'RouterV2: INVALID_PATH');\n        TransferHelper.safeTransferFrom(\n            path[0], msg.sender, MainLibrary.pairFor(factory, path[0], path[1]), amountIn\n        );\n        _swapSupportingFeeOnTransferTokens(path, address(this));\n        uint amountOut = IERC20(WETH).balanceOf(address(this));\n        require(amountOut >= amountOutMin, 'RouterV2: INSUFFICIENT_OUTPUT_AMOUNT');\n        IWETH(WETH).withdraw(amountOut);\n        TransferHelper.safeTransferETH(to, amountOut);\n    }\n\n    // **** LIBRARY FUNCTIONS ****\n    function quote(uint amountA, uint reserveA, uint reserveB) public pure virtual override returns (uint amountB) {\n        return MainLibrary.quote(amountA, reserveA, reserveB);\n    }\n\n    function getAmountOut(uint amountIn, uint reserveIn, uint reserveOut)\n        public\n        pure\n        virtual\n        override\n        returns (uint amountOut)\n    {\n        return MainLibrary.getAmountOut(amountIn, reserveIn, reserveOut);\n    }\n\n    function getAmountIn(uint amountOut, uint reserveIn, uint reserveOut)\n        public\n        pure\n        virtual\n        override\n        returns (uint amountIn)\n    {\n        return MainLibrary.getAmountIn(amountOut, reserveIn, reserveOut);\n    }\n\n    function getAmountsOut(uint amountIn, address[] memory path)\n        public\n        view\n        virtual\n        override\n        returns (uint[] memory amounts)\n    {\n        return MainLibrary.getAmountsOut(factory, amountIn, path);\n    }\n\n    function getAmountsIn(uint amountOut, address[] memory path)\n        public\n        view\n        virtual\n        override\n        returns (uint[] memory amounts)\n    {\n        return MainLibrary.getAmountsIn(factory, amountOut, path);\n    }\n}\n",
  "sourcePath": "/home/user/Github/solidity/core/contracts/RouterV2.sol",
  "compiler": {
    "name": "solc",
    "version": "0.7.5+commit.eb77ed08.Emscripten.clang"
  },
  "schemaVersion": "3.4.3",
  "updatedAt": "2021-11-19T08:57:59.404Z",
  "devdoc": {
    "kind": "dev",
    "methods": {},
    "version": 1
  },
  "userdoc": {
    "kind": "user",
    "methods": {},
    "version": 1
  }
}