{
  "contractName": "Storage",
  "abi": [
    {
      "inputs": [
        {
          "internalType": "address",
          "name": "owner_",
          "type": "address"
        }
      ],
      "stateMutability": "nonpayable",
      "type": "constructor"
    },
    {
      "inputs": [],
      "name": "owner",
      "outputs": [
        {
          "internalType": "address",
          "name": "",
          "type": "address"
        }
      ],
      "stateMutability": "view",
      "type": "function"
    },
    {
      "inputs": [],
      "name": "project",
      "outputs": [
        {
          "components": [
            {
              "internalType": "string",
              "name": "name",
              "type": "string"
            },
            {
              "internalType": "string",
              "name": "logo",
              "type": "string"
            },
            {
              "internalType": "string",
              "name": "brandColor",
              "type": "string"
            }
          ],
          "internalType": "struct IStorage.Project",
          "name": "",
          "type": "tuple"
        }
      ],
      "stateMutability": "view",
      "type": "function"
    },
    {
      "inputs": [
        {
          "internalType": "string",
          "name": "_name",
          "type": "string"
        }
      ],
      "name": "tokenList",
      "outputs": [
        {
          "internalType": "string",
          "name": "_listData",
          "type": "string"
        }
      ],
      "stateMutability": "view",
      "type": "function"
    },
    {
      "inputs": [],
      "name": "tokenLists",
      "outputs": [
        {
          "internalType": "string[]",
          "name": "",
          "type": "string[]"
        }
      ],
      "stateMutability": "view",
      "type": "function"
    },
    {
      "inputs": [
        {
          "internalType": "address",
          "name": "owner_",
          "type": "address"
        }
      ],
      "name": "setOwner",
      "outputs": [],
      "stateMutability": "nonpayable",
      "type": "function"
    },
    {
      "inputs": [
        {
          "internalType": "string",
          "name": "_name",
          "type": "string"
        }
      ],
      "name": "setProjectName",
      "outputs": [],
      "stateMutability": "nonpayable",
      "type": "function"
    },
    {
      "inputs": [
        {
          "internalType": "string",
          "name": "_logo",
          "type": "string"
        }
      ],
      "name": "setLogoUrl",
      "outputs": [],
      "stateMutability": "nonpayable",
      "type": "function"
    },
    {
      "inputs": [
        {
          "internalType": "string",
          "name": "_color",
          "type": "string"
        }
      ],
      "name": "setBrandColor",
      "outputs": [],
      "stateMutability": "nonpayable",
      "type": "function"
    },
    {
      "inputs": [
        {
          "internalType": "string",
          "name": "_name",
          "type": "string"
        },
        {
          "internalType": "string",
          "name": "_data",
          "type": "string"
        }
      ],
      "name": "addTokenList",
      "outputs": [],
      "stateMutability": "nonpayable",
      "type": "function"
    },
    {
      "inputs": [
        {
          "internalType": "string",
          "name": "_name",
          "type": "string"
        }
      ],
      "name": "removeTokenList",
      "outputs": [],
      "stateMutability": "nonpayable",
      "type": "function"
    },
    {
      "inputs": [],
      "name": "clearTokenLists",
      "outputs": [],
      "stateMutability": "nonpayable",
      "type": "function"
    },
    {
      "inputs": [
        {
          "components": [
            {
              "internalType": "string",
              "name": "name",
              "type": "string"
            },
            {
              "internalType": "string",
              "name": "logo",
              "type": "string"
            },
            {
              "internalType": "string",
              "name": "brandColor",
              "type": "string"
            }
          ],
          "internalType": "struct IStorage.Project",
          "name": "_newData",
          "type": "tuple"
        }
      ],
      "name": "setFullData",
      "outputs": [],
      "stateMutability": "nonpayable",
      "type": "function"
    }
  ],
  "bytecode": "0x608060405234801561001057600080fd5b506040516118b43803806118b483398101604081905261002f91610054565b600080546001600160a01b0319166001600160a01b0392909216919091179055610082565b600060208284031215610065578081fd5b81516001600160a01b038116811461007b578182fd5b9392505050565b611823806100916000396000f3fe608060405234801561001057600080fd5b50600436106100d45760003560e01c8063bf74823411610081578063dc3984351161005b578063dc398435146101a0578063f60ca60d146101a8578063f8b839eb146101bd576100d4565b8063bf74823414610165578063ce85004f14610178578063da07758c1461018b576100d4565b806348b6b16f116100b257806348b6b16f1461012a5780638a6601081461013d5780638da5cb5b14610150576100d4565b806313af4035146100d95780631820a2de146100ee57806326e3b24114610117575b600080fd5b6100ec6100e73660046111f7565b6101d0565b005b6101016100fc366004611232565b6102be565b60405161010e919061156a565b60405180910390f35b6100ec610125366004611232565b610460565b6100ec610138366004611232565b610732565b6100ec61014b366004611232565b61079a565b6101586107fe565b60405161010e91906114cb565b6100ec610173366004611232565b61081a565b6100ec61018636600461126d565b61087e565b610193610b15565b60405161010e91906114ec565b6100ec610cd1565b6101b0610d30565b60405161010e9190611622565b6100ec6101cb3660046112ce565b610f00565b60005473ffffffffffffffffffffffffffffffffffffffff16331461022a576040517f08c379a00000000000000000000000000000000000000000000000000000000081526004016102219061157d565b60405180910390fd5b73ffffffffffffffffffffffffffffffffffffffff8116610277576040517f08c379a0000000000000000000000000000000000000000000000000000000008152600401610221906115b4565b600080547fffffffffffffffffffffffff00000000000000000000000000000000000000001673ffffffffffffffffffffffffffffffffffffffff92909216919091179055565b606060005b60045481101561045957826040516020016102de91906113dd565b604051602081830303815290604052805190602001206004828154811061032e577f4e487b7100000000000000000000000000000000000000000000000000000000600052603260045260246000fd5b906000526020600020906002020160000160405160200161034f91906113f9565b60405160208183030381529060405280519060200120141561044757600481815481106103a5577f4e487b7100000000000000000000000000000000000000000000000000000000600052603260045260246000fd5b906000526020600020906002020160010180546103c190611708565b80601f01602080910402602001604051908101604052809291908181526020018280546103ed90611708565b801561043a5780601f1061040f5761010080835404028352916020019161043a565b820191906000526020600020905b81548152906001019060200180831161041d57829003601f168201915b505050505091505061045b565b8061045181611756565b9150506102c3565b505b919050565b60005473ffffffffffffffffffffffffffffffffffffffff1633146104b1576040517f08c379a00000000000000000000000000000000000000000000000000000000081526004016102219061157d565b805181906104eb576040517f08c379a0000000000000000000000000000000000000000000000000000000008152600401610221906115eb565b6000805b6004546104fe906001906116c5565b81101561069d578360405160200161051691906113dd565b6040516020818303038152906040528051906020012060048281548110610566577f4e487b7100000000000000000000000000000000000000000000000000000000600052603260045260246000fd5b906000526020600020906002020160000160405160200161058791906113f9565b6040516020818303038152906040528051906020012014156105a857600191505b811561068b5760046105bb8260016116ad565b815481106105f2577f4e487b7100000000000000000000000000000000000000000000000000000000600052603260045260246000fd5b90600052602060002090600202016004828154811061063a577f4e487b7100000000000000000000000000000000000000000000000000000000600052603260045260246000fd5b9060005260206000209060020201600082018160000190805461065c90611708565b610667929190610f98565b50600182018160010190805461067c90611708565b610687929190610f98565b5050505b8061069581611756565b9150506104ef565b50801561072d5760048054806106dc577f4e487b7100000000000000000000000000000000000000000000000000000000600052603160045260246000fd5b6000828152602081207fffffffffffffffffffffffffffffffffffffffffffffffffffffffffffffffff9092019160028302019061071a8282611023565b610728600183016000611023565b505090555b505050565b60005473ffffffffffffffffffffffffffffffffffffffff163314610783576040517f08c379a00000000000000000000000000000000000000000000000000000000081526004016102219061157d565b8051610796906001906020840190611062565b5050565b60005473ffffffffffffffffffffffffffffffffffffffff1633146107eb576040517f08c379a00000000000000000000000000000000000000000000000000000000081526004016102219061157d565b8051610796906003906020840190611062565b60005473ffffffffffffffffffffffffffffffffffffffff1690565b60005473ffffffffffffffffffffffffffffffffffffffff16331461086b576040517f08c379a00000000000000000000000000000000000000000000000000000000081526004016102219061157d565b8051610796906002906020840190611062565b60005473ffffffffffffffffffffffffffffffffffffffff1633146108cf576040517f08c379a00000000000000000000000000000000000000000000000000000000081526004016102219061157d565b81518290610909576040517f08c379a0000000000000000000000000000000000000000000000000000000008152600401610221906115eb565b6000805b600454811015610a8c578460405160200161092891906113dd565b6040516020818303038152906040528051906020012060048281548110610978577f4e487b7100000000000000000000000000000000000000000000000000000000600052603260045260246000fd5b906000526020600020906002020160000160405160200161099991906113f9565b604051602081830303815290604052805190602001201415610a7a5784600482815481106109f0577f4e487b7100000000000000000000000000000000000000000000000000000000600052603260045260246000fd5b90600052602060002090600202016000019080519060200190610a14929190611062565b508360048281548110610a50577f4e487b7100000000000000000000000000000000000000000000000000000000600052603260045260246000fd5b90600052602060002090600202016001019080519060200190610a74929190611062565b50600191505b80610a8481611756565b91505061090d565b5080610b0f57604080518082019091528481526020808201859052600480546001810182556000919091528251805160029092027f8a35acfbc15ff81a39ae7d344fd709f28e8600b4aa8c65c6b64bfe7fe36bd19b0192610af292849290910190611062565b506020828101518051610b0b9260018501920190611062565b5050505b50505050565b60045460609060009067ffffffffffffffff811115610b5d577f4e487b7100000000000000000000000000000000000000000000000000000000600052604160045260246000fd5b604051908082528060200260200182016040528015610b9057816020015b6060815260200190600190039081610b7b5790505b50905060005b600454811015610ccb5760048181548110610bda577f4e487b7100000000000000000000000000000000000000000000000000000000600052603260045260246000fd5b90600052602060002090600202016001018054610bf690611708565b80601f0160208091040260200160405190810160405280929190818152602001828054610c2290611708565b8015610c6f5780601f10610c4457610100808354040283529160200191610c6f565b820191906000526020600020905b815481529060010190602001808311610c5257829003601f168201915b5050505050828281518110610cad577f4e487b7100000000000000000000000000000000000000000000000000000000600052603260045260246000fd5b60200260200101819052508080610cc390611756565b915050610b96565b50905090565b60005473ffffffffffffffffffffffffffffffffffffffff163314610d22576040517f08c379a00000000000000000000000000000000000000000000000000000000081526004016102219061157d565b610d2e600460006110d6565b565b610d386110f7565b6001604051806060016040529081600082018054610d5590611708565b80601f0160208091040260200160405190810160405280929190818152602001828054610d8190611708565b8015610dce5780601f10610da357610100808354040283529160200191610dce565b820191906000526020600020905b815481529060010190602001808311610db157829003601f168201915b50505050508152602001600182018054610de790611708565b80601f0160208091040260200160405190810160405280929190818152602001828054610e1390611708565b8015610e605780601f10610e3557610100808354040283529160200191610e60565b820191906000526020600020905b815481529060010190602001808311610e4357829003601f168201915b50505050508152602001600282018054610e7990611708565b80601f0160208091040260200160405190810160405280929190818152602001828054610ea590611708565b8015610ef25780601f10610ec757610100808354040283529160200191610ef2565b820191906000526020600020905b815481529060010190602001808311610ed557829003601f168201915b505050505081525050905090565b60005473ffffffffffffffffffffffffffffffffffffffff163314610f51576040517f08c379a00000000000000000000000000000000000000000000000000000000081526004016102219061157d565b80518051610f6791600191602090910190611062565b506020808201518051610f7e926002920190611062565b506040810151805161079691600391602090910190611062565b828054610fa490611708565b90600052602060002090601f016020900481019282610fc65760008555611013565b82601f10610fd75780548555611013565b8280016001018555821561101357600052602060002091601f016020900482015b82811115611013578254825591600101919060010190610ff8565b5061101f929150611118565b5090565b50805461102f90611708565b6000825580601f10611041575061105f565b601f01602090049060005260206000209081019061105f9190611118565b50565b82805461106e90611708565b90600052602060002090601f0160209004810192826110905760008555611013565b82601f106110a957805160ff1916838001178555611013565b82800160010185558215611013579182015b828111156110135782518255916020019190600101906110bb565b508054600082556002029060005260206000209081019061105f919061112d565b60405180606001604052806060815260200160608152602001606081525090565b5b8082111561101f5760008155600101611119565b8082111561101f5760006111418282611023565b61114f600183016000611023565b5060020161112d565b600082601f830112611168578081fd5b813567ffffffffffffffff80821115611183576111836117be565b60405160207fffffffffffffffffffffffffffffffffffffffffffffffffffffffffffffffe0601f85011682010181811083821117156111c5576111c56117be565b6040528281528483016020018610156111dc578384fd5b82602086016020830137918201602001929092529392505050565b600060208284031215611208578081fd5b813573ffffffffffffffffffffffffffffffffffffffff8116811461122b578182fd5b9392505050565b600060208284031215611243578081fd5b813567ffffffffffffffff811115611259578182fd5b61126584828501611158565b949350505050565b6000806040838503121561127f578081fd5b823567ffffffffffffffff80821115611296578283fd5b6112a286838701611158565b935060208501359150808211156112b7578283fd5b506112c485828601611158565b9150509250929050565b6000602082840312156112df578081fd5b813567ffffffffffffffff808211156112f6578283fd5b9083019060608286031215611309578283fd5b604051606081018181108382111715611324576113246117be565b604052823582811115611335578485fd5b61134187828601611158565b825250602083013582811115611355578485fd5b61136187828601611158565b602083015250604083013582811115611378578485fd5b61138487828601611158565b60408301525095945050505050565b600081518084526113ab8160208601602086016116dc565b601f017fffffffffffffffffffffffffffffffffffffffffffffffffffffffffffffffe0169290920160200192915050565b600082516113ef8184602087016116dc565b9190910192915050565b815460009081906002810460018083168061141557607f831692505b602080841082141561144e577f4e487b710000000000000000000000000000000000000000000000000000000087526022600452602487fd5b8180156114625760018114611491576114bd565b7fffffffffffffffffffffffffffffffffffffffffffffffffffffffffffffff008616895284890196506114bd565b61149a8a6116a1565b885b868110156114b55781548b82015290850190830161149c565b505084890196505b509498975050505050505050565b73ffffffffffffffffffffffffffffffffffffffff91909116815260200190565b6000602080830181845280855180835260408601915060408482028701019250838701855b8281101561155d577fffffffffffffffffffffffffffffffffffffffffffffffffffffffffffffffc088860301845261154b858351611393565b94509285019290850190600101611511565b5092979650505050505050565b60006020825261122b6020830184611393565b60208082526010908201527f4f776e65723a20464f5242494444454e00000000000000000000000000000000604082015260600190565b6020808252600c908201527f5a65726f20616464726573730000000000000000000000000000000000000000604082015260600190565b60208082526007908201527f4e6f206e616d6500000000000000000000000000000000000000000000000000604082015260600190565b60006020825282516060602084015261163e6080840182611393565b905060208401517fffffffffffffffffffffffffffffffffffffffffffffffffffffffffffffffe08085840301604086015261167a8383611393565b92506040860151915080858403016060860152506116988282611393565b95945050505050565b60009081526020902090565b600082198211156116c0576116c061178f565b500190565b6000828210156116d7576116d761178f565b500390565b60005b838110156116f75781810151838201526020016116df565b83811115610b0f5750506000910152565b60028104600182168061171c57607f821691505b60208210811415610459577f4e487b7100000000000000000000000000000000000000000000000000000000600052602260045260246000fd5b60007fffffffffffffffffffffffffffffffffffffffffffffffffffffffffffffffff8214156117885761178861178f565b5060010190565b7f4e487b7100000000000000000000000000000000000000000000000000000000600052601160045260246000fd5b7f4e487b7100000000000000000000000000000000000000000000000000000000600052604160045260246000fdfea264697066735822122041954f78fd4b9ef67602ccb81602d4a6a2588649ea977e5ae43f37586368e68a64736f6c63430008000033",
  "immutableReferences": {},
  "source": "// SPDX-License-Identifier: MIT\npragma solidity ^0.8.0;\n\nimport './IStorage.sol';\n\ncontract Storage is IStorage {\n    address private _owner;\n    Project private _project;\n    TokenList[] private _tokenLists;\n\n    modifier onlyOwner() {\n        require(msg.sender == _owner, \"Owner: FORBIDDEN\");\n        _;\n    }\n\n    constructor(address owner_) {\n        _owner = owner_;\n    }\n\n    function owner() external override view returns(address) {\n        return _owner;\n    }\n\n    function project() external override view returns(Project memory) {\n        return _project;\n    }\n\n    function tokenList(string memory _name) external override view returns(string memory _listData) {\n        for(uint256 i; i < _tokenLists.length; i++) {\n            if (keccak256(abi.encodePacked(_tokenLists[i].name)) == keccak256(abi.encodePacked(_name))) {\n                return _tokenLists[i].data;\n            }\n        }\n    }\n\n    function tokenLists() external override view returns(string[] memory) {\n        string[] memory lists = new string[](_tokenLists.length);\n        for(uint256 i; i < _tokenLists.length; i++) {\n            lists[i] = _tokenLists[i].data;\n        }\n        return lists;\n    }\n\n    function setOwner(address owner_) external override onlyOwner {\n        require(owner_ != address(0), \"Zero address\");\n        _owner = owner_;\n    }\n\n    function setProjectName(string memory _name) external override onlyOwner {\n        _project.name = _name;\n    }\n\n    function setLogoUrl(string memory _logo) external override onlyOwner {\n        _project.logo = _logo;\n    }\n\n    function setBrandColor(string memory _color) external override onlyOwner {\n        _project.brandColor = _color;\n    }\n\n    function addTokenList(string memory _name, string memory _data) external override onlyOwner {\n        bytes memory byteName = bytes(_name);\n        require(byteName.length != 0, \"No name\");\n        bool exist;\n        for(uint256 i; i < _tokenLists.length; i++) {\n            if (keccak256(abi.encodePacked(_tokenLists[i].name)) == keccak256(abi.encodePacked(_name))) {\n                _tokenLists[i].name = _name;\n                _tokenLists[i].data = _data;\n                exist = true;\n            }\n        }\n        if (!exist) _tokenLists.push(TokenList({name: _name, data: _data}));\n    }\n\n    function removeTokenList(string memory _name) external override onlyOwner {\n        bytes memory byteName = bytes(_name);\n        require(byteName.length != 0, \"No name\");\n        bool arrayOffset;\n        for(uint256 i; i < _tokenLists.length - 1; i++) {\n            if (keccak256(abi.encodePacked(_tokenLists[i].name)) == keccak256(abi.encodePacked(_name))) {\n                arrayOffset = true;\n            }\n            if (arrayOffset) _tokenLists[i] = _tokenLists[i + 1];\n        }\n        if (arrayOffset) _tokenLists.pop();\n    }\n\n    function clearTokenLists() external override onlyOwner {\n        delete _tokenLists;\n    }\n\n    function setFullData(Project memory _newData) external override onlyOwner {\n        // use existed functions to set this info\n        _project.name = _newData.name;\n        _project.logo = _newData.logo;\n        _project.brandColor = _newData.brandColor;\n    }\n}",
  "sourcePath": "/home/user/Github/solidity/storage/contracts/Storage.sol",
  "compiler": {
    "name": "solc",
    "version": "0.8.0+commit.c7dfd78e.Emscripten.clang"
  },
  "schemaVersion": "3.4.3",
  "updatedAt": "2021-11-29T13:30:26.734Z",
  "devdoc": {
    "kind": "dev",
    "methods": {},
    "version": 1
  },
  "userdoc": {
    "kind": "user",
    "methods": {},
    "version": 1
  }
}