{
  "contractName": "Storage",
  "abi": [
    {
      "inputs": [
        {
          "internalType": "address",
          "name": "owner_",
          "type": "address"
        }
      ],
      "stateMutability": "nonpayable",
      "type": "constructor"
    },
    {
      "inputs": [],
      "name": "owner",
      "outputs": [
        {
          "internalType": "address",
          "name": "",
          "type": "address"
        }
      ],
      "stateMutability": "view",
      "type": "function"
    },
    {
      "inputs": [],
      "name": "project",
      "outputs": [
        {
          "components": [
            {
              "internalType": "string",
              "name": "name",
              "type": "string"
            },
            {
              "internalType": "string",
              "name": "logo",
              "type": "string"
            },
            {
              "internalType": "string",
              "name": "brandColor",
              "type": "string"
            }
          ],
          "internalType": "struct IStorage.Project",
          "name": "",
          "type": "tuple"
        }
      ],
      "stateMutability": "view",
      "type": "function"
    },
    {
      "inputs": [
        {
          "internalType": "string",
          "name": "_listName",
          "type": "string"
        }
      ],
      "name": "list",
      "outputs": [
        {
          "components": [
            {
              "internalType": "bool",
              "name": "exists",
              "type": "bool"
            },
            {
              "internalType": "string",
              "name": "name",
              "type": "string"
            },
            {
              "internalType": "string[]",
              "name": "tokens",
              "type": "string[]"
            }
          ],
          "internalType": "struct IStorage.TokenList",
          "name": "",
          "type": "tuple"
        }
      ],
      "stateMutability": "view",
      "type": "function"
    },
    {
      "inputs": [
        {
          "internalType": "address",
          "name": "owner_",
          "type": "address"
        }
      ],
      "name": "setOwner",
      "outputs": [],
      "stateMutability": "nonpayable",
      "type": "function"
    },
    {
      "inputs": [
        {
          "internalType": "string",
          "name": "_projectName",
          "type": "string"
        }
      ],
      "name": "setProjectName",
      "outputs": [],
      "stateMutability": "nonpayable",
      "type": "function"
    },
    {
      "inputs": [
        {
          "internalType": "string",
          "name": "_logoUrl",
          "type": "string"
        }
      ],
      "name": "setLogoUrl",
      "outputs": [],
      "stateMutability": "nonpayable",
      "type": "function"
    },
    {
      "inputs": [
        {
          "internalType": "string",
          "name": "_brandColor",
          "type": "string"
        }
      ],
      "name": "setBrandColor",
      "outputs": [],
      "stateMutability": "nonpayable",
      "type": "function"
    },
    {
      "inputs": [
        {
          "internalType": "string",
          "name": "_name",
          "type": "string"
        },
        {
          "internalType": "string[]",
          "name": "_tokenList",
          "type": "string[]"
        }
      ],
      "name": "addTokenList",
      "outputs": [],
      "stateMutability": "nonpayable",
      "type": "function"
    },
    {
      "inputs": [
        {
          "internalType": "string",
          "name": "_key",
          "type": "string"
        }
      ],
      "name": "removeTokenList",
      "outputs": [],
      "stateMutability": "nonpayable",
      "type": "function"
    },
    {
      "inputs": [
        {
          "components": [
            {
              "internalType": "string",
              "name": "name",
              "type": "string"
            },
            {
              "internalType": "string",
              "name": "logo",
              "type": "string"
            },
            {
              "internalType": "string",
              "name": "brandColor",
              "type": "string"
            },
            {
              "internalType": "string",
              "name": "listName",
              "type": "string"
            },
            {
              "internalType": "string[]",
              "name": "tokens",
              "type": "string[]"
            }
          ],
          "internalType": "struct IStorage.FullProjectData",
          "name": "fullData",
          "type": "tuple"
        }
      ],
      "name": "addFullData",
      "outputs": [],
      "stateMutability": "nonpayable",
      "type": "function"
    }
  ],
  "bytecode": "0x608060405234801561001057600080fd5b5060405161114438038061114483398101604081905261002f91610054565b600080546001600160a01b0319166001600160a01b0392909216919091179055610082565b600060208284031215610065578081fd5b81516001600160a01b038116811461007b578182fd5b9392505050565b6110b3806100916000396000f3fe608060405234801561001057600080fd5b50600436106100be5760003560e01c80638da5cb5b11610076578063c9e420171161005b578063c9e4201714610155578063f60ca60d14610168578063fe42bf1a1461017d576100be565b80638da5cb5b14610124578063bf74823414610142576100be565b806348b6b16f116100a757806348b6b16f146100eb5780637b9c5756146100fe5780638a66010814610111576100be565b806313af4035146100c357806326e3b241146100d8575b600080fd5b6100d66100d1366004610bb5565b61019d565b005b6100d66100e6366004610bf0565b610224565b6100d66100f9366004610bf0565b610302565b6100d661010c366004610c8c565b610350565b6100d661011f366004610bf0565b6103f9565b61012c610443565b6040516101399190610dcb565b60405180910390f35b6100d6610150366004610bf0565b61045f565b6100d6610163366004610c2b565b6104a9565b610170610580565b6040516101399190610eb7565b61019061018b366004610bf0565b610750565b6040516101399190610f18565b60005473ffffffffffffffffffffffffffffffffffffffff1633146101dd5760405162461bcd60e51b81526004016101d490610dec565b60405180910390fd5b600080547fffffffffffffffffffffffff00000000000000000000000000000000000000001673ffffffffffffffffffffffffffffffffffffffff92909216919091179055565b60005473ffffffffffffffffffffffffffffffffffffffff16331461025b5760405162461bcd60e51b81526004016101d490610dec565b60048160405161026b9190610daf565b9081526040519081900360200190205460ff161561029b5760405162461bcd60e51b81526004016101d490610e5a565b6004816040516102ab9190610daf565b90815260405190819003602001902080547fffffffffffffffffffffffffffffffffffffffffffffffffffffffffffffff0016815560006102ef600183018261091f565b6102fd60028301600061095e565b505050565b60005473ffffffffffffffffffffffffffffffffffffffff1633146103395760405162461bcd60e51b81526004016101d490610dec565b805161034c90600190602084019061097c565b5050565b60005473ffffffffffffffffffffffffffffffffffffffff1633146103875760405162461bcd60e51b81526004016101d490610dec565b8051602082015160408301518251156103b257835180516103b09160019160209091019061097c565b505b8151156103d15760208085015180516103cf92600292019061097c565b505b8051156103f357604084015180516103f19160039160209091019061097c565b505b50505050565b60005473ffffffffffffffffffffffffffffffffffffffff1633146104305760405162461bcd60e51b81526004016101d490610dec565b805161034c90600390602084019061097c565b60005473ffffffffffffffffffffffffffffffffffffffff1690565b60005473ffffffffffffffffffffffffffffffffffffffff1633146104965760405162461bcd60e51b81526004016101d490610dec565b805161034c90600290602084019061097c565b60005473ffffffffffffffffffffffffffffffffffffffff1633146104e05760405162461bcd60e51b81526004016101d490610dec565b60405180606001604052806001151581526020018381526020018281525060048360405161050e9190610daf565b90815260405160209181900382019020825181547fffffffffffffffffffffffffffffffffffffffffffffffffffffffffffffff001690151517815582820151805191926105649260018501929091019061097c565b50604082015180516103f1916002840191602090910190610a00565b610588610a59565b60016040518060600160405290816000820180546105a590610ffa565b80601f01602080910402602001604051908101604052809291908181526020018280546105d190610ffa565b801561061e5780601f106105f35761010080835404028352916020019161061e565b820191906000526020600020905b81548152906001019060200180831161060157829003601f168201915b5050505050815260200160018201805461063790610ffa565b80601f016020809104026020016040519081016040528092919081815260200182805461066390610ffa565b80156106b05780601f10610685576101008083540402835291602001916106b0565b820191906000526020600020905b81548152906001019060200180831161069357829003601f168201915b505050505081526020016002820180546106c990610ffa565b80601f01602080910402602001604051908101604052809291908181526020018280546106f590610ffa565b80156107425780601f1061071757610100808354040283529160200191610742565b820191906000526020600020905b81548152906001019060200180831161072557829003601f168201915b505050505081525050905090565b610758610a7a565b815182906107785760405162461bcd60e51b81526004016101d490610e23565b6004836040516107889190610daf565b90815260408051918290036020908101832060608401909252815460ff1615158352600182018054918401916107bd90610ffa565b80601f01602080910402602001604051908101604052809291908181526020018280546107e990610ffa565b80156108365780601f1061080b57610100808354040283529160200191610836565b820191906000526020600020905b81548152906001019060200180831161081957829003601f168201915b5050505050815260200160028201805480602002602001604051908101604052809291908181526020016000905b8282101561091057838290600052602060002001805461088390610ffa565b80601f01602080910402602001604051908101604052809291908181526020018280546108af90610ffa565b80156108fc5780601f106108d1576101008083540402835291602001916108fc565b820191906000526020600020905b8154815290600101906020018083116108df57829003601f168201915b505050505081526020019060010190610864565b50505091525090949350505050565b50805461092b90610ffa565b6000825580601f1061093d575061095b565b601f01602090049060005260206000209081019061095b9190610a9d565b50565b508054600082559060005260206000209081019061095b9190610ab2565b82805461098890610ffa565b90600052602060002090601f0160209004810192826109aa57600085556109f0565b82601f106109c357805160ff19168380011785556109f0565b828001600101855582156109f0579182015b828111156109f05782518255916020019190600101906109d5565b506109fc929150610a9d565b5090565b828054828255906000526020600020908101928215610a4d579160200282015b82811115610a4d5782518051610a3d91849160209091019061097c565b5091602001919060010190610a20565b506109fc929150610ab2565b60405180606001604052806060815260200160608152602001606081525090565b604051806060016040528060001515815260200160608152602001606081525090565b5b808211156109fc5760008155600101610a9e565b808211156109fc576000610ac6828261091f565b50600101610ab2565b600082601f830112610adf578081fd5b8135602067ffffffffffffffff821115610afb57610afb61104e565b610b088182840201610fa4565b82815281810190858301855b85811015610b3d57610b2b898684358b0101610b4a565b84529284019290840190600101610b14565b5090979650505050505050565b600082601f830112610b5a578081fd5b813567ffffffffffffffff811115610b7457610b7461104e565b610b876020601f19601f84011601610fa4565b818152846020838601011115610b9b578283fd5b816020850160208301379081016020019190915292915050565b600060208284031215610bc6578081fd5b813573ffffffffffffffffffffffffffffffffffffffff81168114610be9578182fd5b9392505050565b600060208284031215610c01578081fd5b813567ffffffffffffffff811115610c17578182fd5b610c2384828501610b4a565b949350505050565b60008060408385031215610c3d578081fd5b823567ffffffffffffffff80821115610c54578283fd5b610c6086838701610b4a565b93506020850135915080821115610c75578283fd5b50610c8285828601610acf565b9150509250929050565b600060208284031215610c9d578081fd5b813567ffffffffffffffff80821115610cb4578283fd5b9083019060a08286031215610cc7578283fd5b610cd160a0610fa4565b823582811115610cdf578485fd5b610ceb87828601610b4a565b825250602083013582811115610cff578485fd5b610d0b87828601610b4a565b602083015250604083013582811115610d22578485fd5b610d2e87828601610b4a565b604083015250606083013582811115610d45578485fd5b610d5187828601610b4a565b606083015250608083013582811115610d68578485fd5b610d7487828601610acf565b60808301525095945050505050565b60008151808452610d9b816020860160208601610fce565b601f01601f19169290920160200192915050565b60008251610dc1818460208701610fce565b9190910192915050565b73ffffffffffffffffffffffffffffffffffffffff91909116815260200190565b60208082526017908201527f43616c6c6572206973206e6f7420746865206f776e6572000000000000000000604082015260600190565b6020808252600c908201527f4e6f206c697374206e616d650000000000000000000000000000000000000000604082015260600190565b60208082526021908201527f546865206c697374206f6620746f6b656e7320646f6573206e6f74206578697360408201527f7400000000000000000000000000000000000000000000000000000000000000606082015260800190565b600060208252825160606020840152610ed36080840182610d83565b90506020840151601f1980858403016040860152610ef18383610d83565b9250604086015191508085840301606086015250610f0f8282610d83565b95945050505050565b6000602080835283511515818401528084015160606040850152610f3f6080850182610d83565b6040860151601f19868303810160608801528151808452929350908401918484019085810285018601875b82811015610f965784878303018452610f84828751610d83565b95880195938801939150600101610f6a565b509998505050505050505050565b60405181810167ffffffffffffffff81118282101715610fc657610fc661104e565b604052919050565b60005b83811015610fe9578181015183820152602001610fd1565b838111156103f35750506000910152565b60028104600182168061100e57607f821691505b60208210811415611048577f4e487b7100000000000000000000000000000000000000000000000000000000600052602260045260246000fd5b50919050565b7f4e487b7100000000000000000000000000000000000000000000000000000000600052604160045260246000fdfea264697066735822122031993b6596b96dde34e1c7ee44879779e0f8f84b01c7101e3195f6acab7899dc64736f6c63430008000033",
  "immutableReferences": {},
  "source": "// SPDX-License-Identifier: MIT\npragma solidity ^0.8.0;\n\nimport './interfaces/IStorage.sol';\n\ncontract Storage is IStorage {\n    address private _owner;\n    Project private _project;\n\n    // TODO: ability to add/remove and change any token list\n    // problems with mapping: how to get all existed lists,\n    // if we have to know mapping lenght and every key\n    // uint256 private _tokenListLength;\n    // string[] private _tokenListNames;\n    // TokenLists private _tokenLists = TokenLists(0, {});\n    mapping(string => TokenList) private _tokenLists;\n\n    modifier onlyOwner() {\n        require(msg.sender == _owner, \"Caller is not the owner\");\n        _;\n    }\n\n    constructor(address owner_) {\n        _owner = owner_;\n    }\n\n    function owner() external override view returns(address) {\n        return _owner;\n    }\n\n    function project() external override view returns(Project memory) {\n        return _project;\n    }\n\n    function list(string memory _listName) external override view returns(TokenList memory) {\n        bytes memory byteName = bytes(_listName);\n        require(byteName.length != 0, \"No list name\");\n        return _tokenLists[_listName];\n    }\n\n    // function tokenLists() external override view returns(TokenList[] memory) {\n    //     TokenList[] memory memoryArray = new TokenList[];\n\n    //     for(uint256 i = 0; i < _tokenListLength; i++) {\n    //         memoryArray[i] = _tokenLists[]; // how to get all keys\n    //     }\n\n    //     return memoryArray;\n    // }\n\n    function setOwner(address owner_) external override onlyOwner {\n        _owner = owner_;\n    }\n\n    function setProjectName(string memory _projectName) external override onlyOwner {\n        _project.name = _projectName;\n    }\n\n    function setLogoUrl(string memory _logoUrl) external override onlyOwner {\n        _project.logo = _logoUrl;\n    }\n\n    function setBrandColor(string memory _brandColor) external override onlyOwner {\n        _project.brandColor = _brandColor;\n    }\n\n    function addTokenList(string memory _name, string[] memory _tokenList) external override onlyOwner {\n        _tokenLists[_name] = TokenList(true, _name, _tokenList);\n    }\n\n    function removeTokenList(string memory _key) external override onlyOwner {\n        require(!_tokenLists[_key].exists, \"The list of tokens does not exist\");\n        delete _tokenLists[_key];\n    }\n\n    function addFullData(FullProjectData memory fullData) external override onlyOwner {\n        bytes memory byteName = bytes(fullData.name);\n        bytes memory byteLogo = bytes(fullData.logo);\n        bytes memory byteColor = bytes(fullData.brandColor);\n\n        if (byteName.length != 0) {\n            _project.name = fullData.name;\n        }\n        if (byteLogo.length != 0) {\n            _project.logo = fullData.logo;\n        }\n        if (byteColor.length != 0) {\n            _project.brandColor = fullData.brandColor;\n        }\n        // if (fullData.listName && fullData.tokens) {\n        //     _tokenLists[fullData.listName] = TokenList(true, fullData.listName, fullData.tokens);\n        // }\n    }\n}",
  "sourcePath": "/home/user/Github/solidity/storage/contracts/Storage.sol",
  "compiler": {
    "name": "solc",
    "version": "0.8.0+commit.c7dfd78e.Emscripten.clang"
  },
  "schemaVersion": "3.4.3",
  "updatedAt": "2021-11-24T15:30:28.663Z",
  "devdoc": {
    "kind": "dev",
    "methods": {},
    "version": 1
  },
  "userdoc": {
    "kind": "user",
    "methods": {},
    "version": 1
  }
}