{
  "contractName": "Storage",
  "abi": [
    {
      "inputs": [
        {
          "internalType": "address",
          "name": "owner_",
          "type": "address"
        }
      ],
      "stateMutability": "nonpayable",
      "type": "constructor"
    },
    {
      "inputs": [],
      "name": "owner",
      "outputs": [
        {
          "internalType": "address",
          "name": "",
          "type": "address"
        }
      ],
      "stateMutability": "view",
      "type": "function"
    },
    {
      "inputs": [],
      "name": "project",
      "outputs": [
        {
          "components": [
            {
              "internalType": "string",
              "name": "name",
              "type": "string"
            },
            {
              "internalType": "string",
              "name": "logo",
              "type": "string"
            },
            {
              "internalType": "string",
              "name": "brandColor",
              "type": "string"
            }
          ],
          "internalType": "struct IStorage.Project",
          "name": "",
          "type": "tuple"
        }
      ],
      "stateMutability": "view",
      "type": "function"
    },
    {
      "inputs": [],
      "name": "tokenList",
      "outputs": [
        {
          "components": [
            {
              "internalType": "string",
              "name": "name",
              "type": "string"
            },
            {
              "internalType": "string[]",
              "name": "tokens",
              "type": "string[]"
            }
          ],
          "internalType": "struct IStorage.TokenList",
          "name": "",
          "type": "tuple"
        }
      ],
      "stateMutability": "view",
      "type": "function"
    },
    {
      "inputs": [
        {
          "internalType": "address",
          "name": "owner_",
          "type": "address"
        }
      ],
      "name": "setOwner",
      "outputs": [],
      "stateMutability": "nonpayable",
      "type": "function"
    },
    {
      "inputs": [
        {
          "internalType": "string",
          "name": "_name",
          "type": "string"
        }
      ],
      "name": "setProjectName",
      "outputs": [],
      "stateMutability": "nonpayable",
      "type": "function"
    },
    {
      "inputs": [
        {
          "internalType": "string",
          "name": "_logo",
          "type": "string"
        }
      ],
      "name": "setLogoUrl",
      "outputs": [],
      "stateMutability": "nonpayable",
      "type": "function"
    },
    {
      "inputs": [
        {
          "internalType": "string",
          "name": "_color",
          "type": "string"
        }
      ],
      "name": "setBrandColor",
      "outputs": [],
      "stateMutability": "nonpayable",
      "type": "function"
    },
    {
      "inputs": [
        {
          "internalType": "string",
          "name": "_name",
          "type": "string"
        },
        {
          "internalType": "string[]",
          "name": "_tokens",
          "type": "string[]"
        }
      ],
      "name": "setTokenList",
      "outputs": [],
      "stateMutability": "nonpayable",
      "type": "function"
    }
  ],
  "bytecode": "0x608060405234801561001057600080fd5b50604051610e01380380610e0183398101604081905261002f91610054565b600080546001600160a01b0319166001600160a01b0392909216919091179055610082565b600060208284031215610065578081fd5b81516001600160a01b038116811461007b578182fd5b9392505050565b610d70806100916000396000f3fe608060405234801561001057600080fd5b50600436106100885760003560e01c80639e2c58ca1161005b5780639e2c58ca146100e6578063bd260cb2146100fb578063bf7482341461010e578063f60ca60d1461012157610088565b806313af40351461008d57806348b6b16f146100a25780638a660108146100b55780638da5cb5b146100c8575b600080fd5b6100a061009b366004610942565b610136565b005b6100a06100b036600461097d565b6101d7565b6100a06100c336600461097d565b61023f565b6100d06102a3565b6040516100dd9190610ae1565b60405180910390f35b6100ee6102bf565b6040516100dd9190610bef565b6100a06101093660046109b8565b610444565b6100a061011c36600461097d565b6104fc565b610129610560565b6040516100dd9190610b70565b60005473ffffffffffffffffffffffffffffffffffffffff163314610190576040517f08c379a000000000000000000000000000000000000000000000000000000000815260040161018790610b02565b60405180910390fd5b600080547fffffffffffffffffffffffff00000000000000000000000000000000000000001673ffffffffffffffffffffffffffffffffffffffff92909216919091179055565b60005473ffffffffffffffffffffffffffffffffffffffff163314610228576040517f08c379a000000000000000000000000000000000000000000000000000000000815260040161018790610b02565b805161023b906001906020840190610730565b5050565b60005473ffffffffffffffffffffffffffffffffffffffff163314610290576040517f08c379a000000000000000000000000000000000000000000000000000000000815260040161018790610b02565b805161023b906003906020840190610730565b60005473ffffffffffffffffffffffffffffffffffffffff1690565b6102c76107b4565b60046040518060400160405290816000820180546102e490610cb7565b80601f016020809104026020016040519081016040528092919081815260200182805461031090610cb7565b801561035d5780601f106103325761010080835404028352916020019161035d565b820191906000526020600020905b81548152906001019060200180831161034057829003601f168201915b5050505050815260200160018201805480602002602001604051908101604052809291908181526020016000905b828210156104375783829060005260206000200180546103aa90610cb7565b80601f01602080910402602001604051908101604052809291908181526020018280546103d690610cb7565b80156104235780601f106103f857610100808354040283529160200191610423565b820191906000526020600020905b81548152906001019060200180831161040657829003601f168201915b50505050508152602001906001019061038b565b5050505081525050905090565b60005473ffffffffffffffffffffffffffffffffffffffff163314610495576040517f08c379a000000000000000000000000000000000000000000000000000000000815260040161018790610b02565b815182906104cf576040517f08c379a000000000000000000000000000000000000000000000000000000000815260040161018790610b39565b82516104e2906004906020860190610730565b5081516104f69060059060208501906107ce565b50505050565b60005473ffffffffffffffffffffffffffffffffffffffff16331461054d576040517f08c379a000000000000000000000000000000000000000000000000000000000815260040161018790610b02565b805161023b906002906020840190610730565b610568610827565b600160405180606001604052908160008201805461058590610cb7565b80601f01602080910402602001604051908101604052809291908181526020018280546105b190610cb7565b80156105fe5780601f106105d3576101008083540402835291602001916105fe565b820191906000526020600020905b8154815290600101906020018083116105e157829003601f168201915b5050505050815260200160018201805461061790610cb7565b80601f016020809104026020016040519081016040528092919081815260200182805461064390610cb7565b80156106905780601f1061066557610100808354040283529160200191610690565b820191906000526020600020905b81548152906001019060200180831161067357829003601f168201915b505050505081526020016002820180546106a990610cb7565b80601f01602080910402602001604051908101604052809291908181526020018280546106d590610cb7565b80156107225780601f106106f757610100808354040283529160200191610722565b820191906000526020600020905b81548152906001019060200180831161070557829003601f168201915b505050505081525050905090565b82805461073c90610cb7565b90600052602060002090601f01602090048101928261075e57600085556107a4565b82601f1061077757805160ff19168380011785556107a4565b828001600101855582156107a4579182015b828111156107a4578251825591602001919060010190610789565b506107b0929150610848565b5090565b604051806040016040528060608152602001606081525090565b82805482825590600052602060002090810192821561081b579160200282015b8281111561081b578251805161080b918491602090910190610730565b50916020019190600101906107ee565b506107b092915061085d565b60405180606001604052806060815260200160608152602001606081525090565b5b808211156107b05760008155600101610849565b808211156107b0576000610871828261087a565b5060010161085d565b50805461088690610cb7565b6000825580601f1061089857506108b6565b601f0160209004906000526020600020908101906108b69190610848565b50565b600082601f8301126108c9578081fd5b813567ffffffffffffffff8111156108e3576108e3610d0b565b61091460207fffffffffffffffffffffffffffffffffffffffffffffffffffffffffffffffe0601f84011601610c8d565b818152846020838601011115610928578283fd5b816020850160208301379081016020019190915292915050565b600060208284031215610953578081fd5b813573ffffffffffffffffffffffffffffffffffffffff81168114610976578182fd5b9392505050565b60006020828403121561098e578081fd5b813567ffffffffffffffff8111156109a4578182fd5b6109b0848285016108b9565b949350505050565b600080604083850312156109ca578081fd5b823567ffffffffffffffff808211156109e1578283fd5b6109ed868387016108b9565b9350602091508185013581811115610a03578384fd5b8501601f81018713610a13578384fd5b803582811115610a2557610a25610d0b565b610a328485830201610c8d565b8181528481019350828501865b83811015610a6857610a568b8884358801016108b9565b86529486019490860190600101610a3f565b5096999098509650505050505050565b60008151808452815b81811015610a9d57602081850181015186830182015201610a81565b81811115610aae5782602083870101525b50601f017fffffffffffffffffffffffffffffffffffffffffffffffffffffffffffffffe0169290920160200192915050565b73ffffffffffffffffffffffffffffffffffffffff91909116815260200190565b60208082526010908201527f4f776e65723a20464f5242494444454e00000000000000000000000000000000604082015260600190565b60208082526007908201527f4e6f206e616d6500000000000000000000000000000000000000000000000000604082015260600190565b600060208252825160606020840152610b8c6080840182610a78565b905060208401517fffffffffffffffffffffffffffffffffffffffffffffffffffffffffffffffe080858403016040860152610bc88383610a78565b9250604086015191508085840301606086015250610be68282610a78565b95945050505050565b600060208083528351604082850152610c0b6060850182610a78565b828601517fffffffffffffffffffffffffffffffffffffffffffffffffffffffffffffffe0868303810160408801528151808452929350908401918385019080860285018601875b82811015610c7f5784878303018452610c6d828751610a78565b95880195938801939150600101610c53565b509998505050505050505050565b60405181810167ffffffffffffffff81118282101715610caf57610caf610d0b565b604052919050565b600281046001821680610ccb57607f821691505b60208210811415610d05577f4e487b7100000000000000000000000000000000000000000000000000000000600052602260045260246000fd5b50919050565b7f4e487b7100000000000000000000000000000000000000000000000000000000600052604160045260246000fdfea2646970667358221220ead69d8ce44e7914915fb4c83f005a7267f1e18a8a131b136bd42439de730d2a64736f6c63430008000033",
  "immutableReferences": {},
  "source": "// SPDX-License-Identifier: MIT\npragma solidity ^0.8.0;\n\nimport './IStorage.sol';\n\ncontract Storage is IStorage {\n    address private _owner;\n    Project private _project;\n    TokenList private _tokenList;\n\n    modifier onlyOwner() {\n        require(msg.sender == _owner, \"Owner: FORBIDDEN\");\n        _;\n    }\n\n    constructor(address owner_) {\n        _owner = owner_;\n    }\n\n    function owner() external override view returns(address) {\n        return _owner;\n    }\n\n    function project() external override view returns(Project memory) {\n        return _project;\n    }\n\n    function tokenList() external override view returns(TokenList memory) {\n        return _tokenList;\n    }\n\n    function setOwner(address owner_) external override onlyOwner {\n        _owner = owner_;\n    }\n\n    function setProjectName(string memory _name) external override onlyOwner {\n        _project.name = _name;\n    }\n\n    function setLogoUrl(string memory _logo) external override onlyOwner {\n        _project.logo = _logo;\n    }\n\n    function setBrandColor(string memory _color) external override onlyOwner {\n        _project.brandColor = _color;\n    }\n\n    function setTokenList(string memory _name, string[] memory _tokens) external override onlyOwner {\n        bytes memory byteName = bytes(_name);\n        require(byteName.length != 0, \"No name\");\n\n        _tokenList.name = _name;\n        _tokenList.tokens = _tokens;\n    }\n}",
  "sourcePath": "/home/user/Github/solidity/storage/contracts/Storage.sol",
  "compiler": {
    "name": "solc",
    "version": "0.8.0+commit.c7dfd78e.Emscripten.clang"
  },
  "schemaVersion": "3.4.3",
  "updatedAt": "2021-11-25T12:32:32.723Z",
  "devdoc": {
    "kind": "dev",
    "methods": {},
    "version": 1
  },
  "userdoc": {
    "kind": "user",
    "methods": {},
    "version": 1
  }
}