{"contractName":"Storage","abi":[{"inputs":[{"internalType":"address","name":"owner_","type":"address"}],"stateMutability":"nonpayable","type":"constructor"},{"inputs":[{"internalType":"address","name":"owner_","type":"address"}],"name":"setOwner","outputs":[],"stateMutability":"nonpayable","type":"function"},{"inputs":[{"internalType":"string","name":"settings_","type":"string"}],"name":"setSettings","outputs":[],"stateMutability":"nonpayable","type":"function"},{"inputs":[{"internalType":"string","name":"_name","type":"string"},{"internalType":"string","name":"_data","type":"string"}],"name":"addTokenList","outputs":[],"stateMutability":"nonpayable","type":"function"},{"inputs":[{"components":[{"internalType":"string","name":"name","type":"string"},{"internalType":"string","name":"data","type":"string"}],"internalType":"struct Storage.TokenList[]","name":"_lists","type":"tuple[]"}],"name":"addTokenLists","outputs":[],"stateMutability":"nonpayable","type":"function"},{"inputs":[{"internalType":"string","name":"_oldName","type":"string"},{"internalType":"string","name":"_name","type":"string"},{"internalType":"string","name":"_data","type":"string"}],"name":"updateTokenList","outputs":[],"stateMutability":"nonpayable","type":"function"},{"inputs":[{"internalType":"string","name":"_name","type":"string"}],"name":"removeTokenList","outputs":[],"stateMutability":"nonpayable","type":"function"},{"inputs":[],"name":"clearTokenLists","outputs":[],"stateMutability":"nonpayable","type":"function"},{"inputs":[],"name":"owner","outputs":[{"internalType":"address","name":"","type":"address"}],"stateMutability":"view","type":"function"},{"inputs":[],"name":"settings","outputs":[{"internalType":"string","name":"","type":"string"}],"stateMutability":"view","type":"function"},{"inputs":[{"internalType":"string","name":"_name","type":"string"}],"name":"tokenList","outputs":[{"internalType":"string","name":"_listData","type":"string"}],"stateMutability":"view","type":"function"},{"inputs":[],"name":"tokenLists","outputs":[{"internalType":"string[]","name":"","type":"string[]"}],"stateMutability":"view","type":"function"}],"bytecode":"0x608060405234801561001057600080fd5b50604051611a28380380611a2883398101604081905261002f91610054565b600080546001600160a01b0319166001600160a01b0392909216919091179055610082565b600060208284031215610065578081fd5b81516001600160a01b038116811461007b578182fd5b9392505050565b611997806100916000396000f3fe608060405234801561001057600080fd5b50600436106100c95760003560e01c8063a0e7c25e11610081578063da07758c1161005b578063da07758c14610180578063dc39843514610195578063e06174e41461019d576100c9565b8063a0e7c25e14610147578063bc83c5f81461015a578063ce85004f1461016d576100c9565b806326e3b241116100b257806326e3b2411461010c5780635a022df51461011f5780638da5cb5b14610132576100c9565b806313af4035146100ce5780631820a2de146100e3575b600080fd5b6100e16100dc3660046112a3565b6101a5565b005b6100f66100f1366004611405565b610293565b60405161010391906116fc565b60405180910390f35b6100e161011a366004611405565b610435565b6100e161012d3660046114a1565b61070a565b61013a61095f565b604051610103919061165d565b6100e1610155366004611405565b61097b565b6100e16101683660046112de565b6109d8565b6100e161017b366004611440565b610a32565b610188610a91565b604051610103919061167e565b6100e1610c4d565b6100f6610cac565b60005473ffffffffffffffffffffffffffffffffffffffff1633146101ff576040517f08c379a00000000000000000000000000000000000000000000000000000000081526004016101f69061170f565b60405180910390fd5b73ffffffffffffffffffffffffffffffffffffffff811661024c576040517f08c379a00000000000000000000000000000000000000000000000000000000081526004016101f6906117b4565b600080547fffffffffffffffffffffffff00000000000000000000000000000000000000001673ffffffffffffffffffffffffffffffffffffffff92909216919091179055565b606060005b60025481101561042e57826040516020016102b3919061156f565b6040516020818303038152906040528051906020012060028281548110610303577f4e487b7100000000000000000000000000000000000000000000000000000000600052603260045260246000fd5b9060005260206000209060020201600001604051602001610324919061158b565b60405160208183030381529060405280519060200120141561041c576002818154811061037a577f4e487b7100000000000000000000000000000000000000000000000000000000600052603260045260246000fd5b906000526020600020906002020160010180546103969061187c565b80601f01602080910402602001604051908101604052809291908181526020018280546103c29061187c565b801561040f5780601f106103e45761010080835404028352916020019161040f565b820191906000526020600020905b8154815290600101906020018083116103f257829003601f168201915b5050505050915050610430565b80610426816118ca565b915050610298565b505b919050565b805181908190610471576040517f08c379a00000000000000000000000000000000000000000000000000000000081526004016101f690611746565b60005473ffffffffffffffffffffffffffffffffffffffff1633146104c2576040517f08c379a00000000000000000000000000000000000000000000000000000000081526004016101f69061170f565b6000805b6002546104d590600190611839565b81101561067457846040516020016104ed919061156f565b604051602081830303815290604052805190602001206002828154811061053d577f4e487b7100000000000000000000000000000000000000000000000000000000600052603260045260246000fd5b906000526020600020906002020160000160405160200161055e919061158b565b60405160208183030381529060405280519060200120141561057f57600191505b8115610662576002610592826001611821565b815481106105c9577f4e487b7100000000000000000000000000000000000000000000000000000000600052603260045260246000fd5b906000526020600020906002020160028281548110610611577f4e487b7100000000000000000000000000000000000000000000000000000000600052603260045260246000fd5b906000526020600020906002020160008201816000019080546106339061187c565b61063e92919061107e565b5060018201816001019080546106539061187c565b61065e92919061107e565b5050505b8061066c816118ca565b9150506104c6565b5080156107045760028054806106b3577f4e487b7100000000000000000000000000000000000000000000000000000000600052603160045260246000fd5b6000828152602081207fffffffffffffffffffffffffffffffffffffffffffffffffffffffffffffffff909201916002830201906106f18282611109565b6106ff600183016000611109565b505090555b50505050565b825183908190610746576040517f08c379a00000000000000000000000000000000000000000000000000000000081526004016101f690611746565b835184908190610782576040517f08c379a00000000000000000000000000000000000000000000000000000000081526004016101f690611746565b60005473ffffffffffffffffffffffffffffffffffffffff1633146107d3576040517f08c379a00000000000000000000000000000000000000000000000000000000081526004016101f69061170f565b60005b60025481101561095557876040516020016107f1919061156f565b6040516020818303038152906040528051906020012060028281548110610841577f4e487b7100000000000000000000000000000000000000000000000000000000600052603260045260246000fd5b9060005260206000209060020201600001604051602001610862919061158b565b6040516020818303038152906040528051906020012014156109435786600282815481106108b9577f4e487b7100000000000000000000000000000000000000000000000000000000600052603260045260246000fd5b906000526020600020906002020160000190805190602001906108dd929190611145565b508560028281548110610919577f4e487b7100000000000000000000000000000000000000000000000000000000600052603260045260246000fd5b9060005260206000209060020201600101908051906020019061093d929190611145565b50610955565b8061094d816118ca565b9150506107d6565b5050505050505050565b60005473ffffffffffffffffffffffffffffffffffffffff1690565b60005473ffffffffffffffffffffffffffffffffffffffff1633146109cc576040517f08c379a00000000000000000000000000000000000000000000000000000000081526004016101f69061170f565b6109d581610d3e565b50565b60005473ffffffffffffffffffffffffffffffffffffffff163314610a29576040517f08c379a00000000000000000000000000000000000000000000000000000000081526004016101f69061170f565b6109d581610d51565b60005473ffffffffffffffffffffffffffffffffffffffff163314610a83576040517f08c379a00000000000000000000000000000000000000000000000000000000081526004016101f69061170f565b610a8d8282610e3c565b5050565b60025460609060009067ffffffffffffffff811115610ad9577f4e487b7100000000000000000000000000000000000000000000000000000000600052604160045260246000fd5b604051908082528060200260200182016040528015610b0c57816020015b6060815260200190600190039081610af75790505b50905060005b600254811015610c475760028181548110610b56577f4e487b7100000000000000000000000000000000000000000000000000000000600052603260045260246000fd5b90600052602060002090600202016001018054610b729061187c565b80601f0160208091040260200160405190810160405280929190818152602001828054610b9e9061187c565b8015610beb5780601f10610bc057610100808354040283529160200191610beb565b820191906000526020600020905b815481529060010190602001808311610bce57829003601f168201915b5050505050828281518110610c29577f4e487b7100000000000000000000000000000000000000000000000000000000600052603260045260246000fd5b60200260200101819052508080610c3f906118ca565b915050610b12565b50905090565b60005473ffffffffffffffffffffffffffffffffffffffff163314610c9e576040517f08c379a00000000000000000000000000000000000000000000000000000000081526004016101f69061170f565b610caa600260006111b9565b565b606060018054610cbb9061187c565b80601f0160208091040260200160405190810160405280929190818152602001828054610ce79061187c565b8015610d345780601f10610d0957610100808354040283529160200191610d34565b820191906000526020600020905b815481529060010190602001808311610d1757829003601f168201915b5050505050905090565b8051610a8d906001906020840190611145565b6000815111610d8c576040517f08c379a00000000000000000000000000000000000000000000000000000000081526004016101f69061177d565b60005b8151811015610a8d57610e2a828281518110610dd4577f4e487b7100000000000000000000000000000000000000000000000000000000600052603260045260246000fd5b602002602001015160000151838381518110610e19577f4e487b7100000000000000000000000000000000000000000000000000000000600052603260045260246000fd5b602002602001015160200151610e3c565b80610e34816118ca565b915050610d8f565b815182908190610e78576040517f08c379a00000000000000000000000000000000000000000000000000000000081526004016101f690611746565b6000805b600254811015610ffb5785604051602001610e97919061156f565b6040516020818303038152906040528051906020012060028281548110610ee7577f4e487b7100000000000000000000000000000000000000000000000000000000600052603260045260246000fd5b9060005260206000209060020201600001604051602001610f08919061158b565b604051602081830303815290604052805190602001201415610fe9578560028281548110610f5f577f4e487b7100000000000000000000000000000000000000000000000000000000600052603260045260246000fd5b90600052602060002090600202016000019080519060200190610f83929190611145565b508460028281548110610fbf577f4e487b7100000000000000000000000000000000000000000000000000000000600052603260045260246000fd5b90600052602060002090600202016001019080519060200190610fe3929190611145565b50600191505b80610ff3816118ca565b915050610e7c565b50806110775760408051808201909152858152602080820186905260028054600181018255600082905283518051919092027f405787fa12a823e0f2b7631cc41b3ba8828b3321ca811111fa75cd3aa3bb5ace019261105e928492910190611145565b5060208281015180516109559260018501920190611145565b5050505050565b82805461108a9061187c565b90600052602060002090601f0160209004810192826110ac57600085556110f9565b82601f106110bd57805485556110f9565b828001600101855582156110f957600052602060002091601f016020900482015b828111156110f95782548255916001019190600101906110de565b506111059291506111da565b5090565b5080546111159061187c565b6000825580601f1061112757506109d5565b601f0160209004906000526020600020908101906109d591906111da565b8280546111519061187c565b90600052602060002090601f01602090048101928261117357600085556110f9565b82601f1061118c57805160ff19168380011785556110f9565b828001600101855582156110f9579182015b828111156110f957825182559160200191906001019061119e565b50805460008255600202906000526020600020908101906109d591906111ef565b5b8082111561110557600081556001016111db565b808211156111055760006112038282611109565b611211600183016000611109565b506002016111ef565b600082601f83011261122a578081fd5b813567ffffffffffffffff81111561124457611244611932565b61127560207fffffffffffffffffffffffffffffffffffffffffffffffffffffffffffffffe0601f840116016117eb565b818152846020838601011115611289578283fd5b816020850160208301379081016020019190915292915050565b6000602082840312156112b4578081fd5b813573ffffffffffffffffffffffffffffffffffffffff811681146112d7578182fd5b9392505050565b600060208083850312156112f0578182fd5b823567ffffffffffffffff80821115611307578384fd5b818501915085601f83011261131a578384fd5b81358181111561132c5761132c611932565b61133984858302016117eb565b81815284810190848601875b848110156113f657813587016040807fffffffffffffffffffffffffffffffffffffffffffffffffffffffffffffffe0838f03011215611383578a8bfd5b80518181018181108a8211171561139c5761139c611932565b8252828b0135898111156113ae578c8dfd5b6113bc8f8d8387010161121a565b8252509082013590888211156113d0578b8cfd5b6113de8e8c8486010161121a565b818c0152865250509287019290870190600101611345565b50909998505050505050505050565b600060208284031215611416578081fd5b813567ffffffffffffffff81111561142c578182fd5b6114388482850161121a565b949350505050565b60008060408385031215611452578081fd5b823567ffffffffffffffff80821115611469578283fd5b6114758683870161121a565b9350602085013591508082111561148a578283fd5b506114978582860161121a565b9150509250929050565b6000806000606084860312156114b5578081fd5b833567ffffffffffffffff808211156114cc578283fd5b6114d88783880161121a565b945060208601359150808211156114ed578283fd5b6114f98783880161121a565b9350604086013591508082111561150e578283fd5b5061151b8682870161121a565b9150509250925092565b6000815180845261153d816020860160208601611850565b601f017fffffffffffffffffffffffffffffffffffffffffffffffffffffffffffffffe0169290920160200192915050565b60008251611581818460208701611850565b9190910192915050565b81546000908190600281046001808316806115a757607f831692505b60208084108214156115e0577f4e487b710000000000000000000000000000000000000000000000000000000087526022600452602487fd5b8180156115f457600181146116235761164f565b7fffffffffffffffffffffffffffffffffffffffffffffffffffffffffffffff0086168952848901965061164f565b61162c8a611815565b885b868110156116475781548b82015290850190830161162e565b505084890196505b509498975050505050505050565b73ffffffffffffffffffffffffffffffffffffffff91909116815260200190565b6000602080830181845280855180835260408601915060408482028701019250838701855b828110156116ef577fffffffffffffffffffffffffffffffffffffffffffffffffffffffffffffffc08886030184526116dd858351611525565b945092850192908501906001016116a3565b5092979650505050505050565b6000602082526112d76020830184611525565b60208082526010908201527f4f776e65723a20464f5242494444454e00000000000000000000000000000000604082015260600190565b60208082526008908201527f4e4f5f56414c5545000000000000000000000000000000000000000000000000604082015260600190565b60208082526007908201527f4e4f5f4441544100000000000000000000000000000000000000000000000000604082015260600190565b6020808252600c908201527f5a45524f5f414444524553530000000000000000000000000000000000000000604082015260600190565b60405181810167ffffffffffffffff8111828210171561180d5761180d611932565b604052919050565b60009081526020902090565b6000821982111561183457611834611903565b500190565b60008282101561184b5761184b611903565b500390565b60005b8381101561186b578181015183820152602001611853565b838111156107045750506000910152565b60028104600182168061189057607f821691505b6020821081141561042e577f4e487b7100000000000000000000000000000000000000000000000000000000600052602260045260246000fd5b60007fffffffffffffffffffffffffffffffffffffffffffffffffffffffffffffffff8214156118fc576118fc611903565b5060010190565b7f4e487b7100000000000000000000000000000000000000000000000000000000600052601160045260246000fd5b7f4e487b7100000000000000000000000000000000000000000000000000000000600052604160045260246000fdfea26469706673582212209eb8ce00d2f4cc42511432f554ee6f843a2cf3af2ada3bfbe125dbb13a92187a64736f6c63430008000033","immutableReferences":{},"source":"// SPDX-License-Identifier: MIT\npragma solidity ^0.8.0;\n\ncontract Storage {\n    struct TokenList {\n        string name;\n        string data;\n    }\n\n    address private _owner;\n    string private _settings;\n    TokenList[] private _tokenLists;\n\n    modifier onlyOwner() {\n        require(msg.sender == _owner, 'Owner: FORBIDDEN');\n        _;\n    }\n\n    modifier notEmpty(string memory _value) {\n        bytes memory byteValue = bytes(_value);\n        require(byteValue.length != 0, 'NO_VALUE');\n        _;\n    }\n\n    constructor(address owner_) {\n        _owner = owner_;\n    }\n\n    function setOwner(address owner_) external onlyOwner {\n        require(owner_ != address(0), 'ZERO_ADDRESS');\n        _owner = owner_;\n    }\n\n    function setSettings(string memory settings_) external onlyOwner {\n        _setSettings(settings_);\n    }\n\n    function addTokenList(string memory _name, string memory _data) external onlyOwner {\n        _addTokenList(_name, _data);\n    }\n\n    function addTokenLists(TokenList[] memory _lists) external onlyOwner {\n        _addTokenLists(_lists);\n    }\n\n    function updateTokenList(\n        string memory _oldName,\n        string memory _name,\n        string memory _data\n    ) external notEmpty(_oldName) notEmpty(_name) onlyOwner {\n        for(uint x; x < _tokenLists.length; x++) {\n            if (keccak256(abi.encodePacked(_tokenLists[x].name)) == keccak256(abi.encodePacked(_oldName))) {\n                _tokenLists[x].name = _name;\n                _tokenLists[x].data = _data;\n                break;\n            }\n        }\n    }\n\n    function removeTokenList(string memory _name) external notEmpty(_name) onlyOwner {\n        bool arrayOffset;\n        for(uint x; x < _tokenLists.length - 1; x++) {\n            if (keccak256(abi.encodePacked(_tokenLists[x].name)) == keccak256(abi.encodePacked(_name))) {\n                arrayOffset = true;\n            }\n            if (arrayOffset) _tokenLists[x] = _tokenLists[x + 1];\n        }\n        if (arrayOffset) _tokenLists.pop();\n    }\n\n    function clearTokenLists() external onlyOwner {\n        delete _tokenLists;\n    }\n\n    function owner() external view returns(address) {\n        return _owner;\n    }\n\n    function settings() external view returns(string memory) {\n        return _settings;\n    }\n\n    function tokenList(string memory _name) external view returns(string memory _listData) {\n        for(uint x; x < _tokenLists.length; x++) {\n            if (keccak256(abi.encodePacked(_tokenLists[x].name)) == keccak256(abi.encodePacked(_name))) {\n                return _tokenLists[x].data;\n            }\n        }\n    }\n\n    function tokenLists() external view returns(string[] memory) {\n        string[] memory lists = new string[](_tokenLists.length);\n        for(uint x; x < _tokenLists.length; x++) {\n            lists[x] = _tokenLists[x].data;\n        }\n        return lists;\n    }\n\n    function _setSettings(string memory settings_) private {\n        _settings = settings_;\n    }\n\n    function _addTokenList(string memory _name, string memory _data) private notEmpty(_name) {\n        bool exist;\n        for(uint x; x < _tokenLists.length; x++) {\n            if (keccak256(abi.encodePacked(_tokenLists[x].name)) == keccak256(abi.encodePacked(_name))) {\n                _tokenLists[x].name = _name;\n                _tokenLists[x].data = _data;\n                exist = true;\n            }\n        }\n        if (!exist) _tokenLists.push(TokenList({name: _name, data: _data}));\n    }\n\n    function _addTokenLists(TokenList[] memory _lists) private {\n        require(_lists.length > 0, 'NO_DATA');\n        for(uint x; x < _lists.length; x++) {\n            _addTokenList(_lists[x].name, _lists[x].data);\n        }\n    }\n}","sourcePath":"/home/user/Github/UnifactoryContracts/contracts/Storage.sol","compiler":{"name":"solc","version":"0.8.0+commit.c7dfd78e.Emscripten.clang"},"schemaVersion":"3.4.4","updatedAt":"2022-01-19T13:37:44.226Z","devdoc":{"kind":"dev","methods":{},"version":1},"userdoc":{"kind":"user","methods":{},"version":1}}