{
  "contractName": "Storage",
  "abi": [
    {
      "inputs": [
        {
          "internalType": "address",
          "name": "owner_",
          "type": "address"
        }
      ],
      "stateMutability": "nonpayable",
      "type": "constructor"
    },
    {
      "inputs": [],
      "name": "owner",
      "outputs": [
        {
          "internalType": "address",
          "name": "",
          "type": "address"
        }
      ],
      "stateMutability": "view",
      "type": "function"
    },
    {
      "inputs": [],
      "name": "project",
      "outputs": [
        {
          "components": [
            {
              "internalType": "string",
              "name": "name",
              "type": "string"
            },
            {
              "internalType": "string",
              "name": "logo",
              "type": "string"
            },
            {
              "internalType": "string",
              "name": "brandColor",
              "type": "string"
            }
          ],
          "internalType": "struct IStorage.Project",
          "name": "",
          "type": "tuple"
        }
      ],
      "stateMutability": "view",
      "type": "function"
    },
    {
      "inputs": [],
      "name": "tokenList",
      "outputs": [
        {
          "components": [
            {
              "internalType": "string",
              "name": "name",
              "type": "string"
            },
            {
              "internalType": "string[]",
              "name": "tokens",
              "type": "string[]"
            }
          ],
          "internalType": "struct IStorage.TokenList",
          "name": "",
          "type": "tuple"
        }
      ],
      "stateMutability": "view",
      "type": "function"
    },
    {
      "inputs": [
        {
          "internalType": "address",
          "name": "owner_",
          "type": "address"
        }
      ],
      "name": "setOwner",
      "outputs": [],
      "stateMutability": "nonpayable",
      "type": "function"
    },
    {
      "inputs": [
        {
          "internalType": "string",
          "name": "_name",
          "type": "string"
        }
      ],
      "name": "setProjectName",
      "outputs": [],
      "stateMutability": "nonpayable",
      "type": "function"
    },
    {
      "inputs": [
        {
          "internalType": "string",
          "name": "_logo",
          "type": "string"
        }
      ],
      "name": "setLogoUrl",
      "outputs": [],
      "stateMutability": "nonpayable",
      "type": "function"
    },
    {
      "inputs": [
        {
          "internalType": "string",
          "name": "_color",
          "type": "string"
        }
      ],
      "name": "setBrandColor",
      "outputs": [],
      "stateMutability": "nonpayable",
      "type": "function"
    },
    {
      "inputs": [
        {
          "components": [
            {
              "internalType": "string",
              "name": "name",
              "type": "string"
            },
            {
              "internalType": "string[]",
              "name": "tokens",
              "type": "string[]"
            }
          ],
          "internalType": "struct IStorage.TokenList",
          "name": "_list",
          "type": "tuple"
        }
      ],
      "name": "setTokenList",
      "outputs": [],
      "stateMutability": "nonpayable",
      "type": "function"
    }
  ],
  "bytecode": "0x608060405234801561001057600080fd5b50604051610e51380380610e5183398101604081905261002f91610054565b600080546001600160a01b0319166001600160a01b0392909216919091179055610082565b600060208284031215610065578081fd5b81516001600160a01b038116811461007b578182fd5b9392505050565b610dc0806100916000396000f3fe608060405234801561001057600080fd5b50600436106100885760003560e01c80638da5cb5b1161005b5780638da5cb5b146100db5780639e2c58ca146100f9578063bf7482341461010e578063f60ca60d1461012157610088565b806313af40351461008d57806348b6b16f146100a25780637c378651146100b55780638a660108146100c8575b600080fd5b6100a061009b36600461094f565b610136565b005b6100a06100b036600461098a565b6101d7565b6100a06100c33660046109c5565b61023f565b6100a06100d636600461098a565b610304565b6100e3610368565b6040516100f09190610b31565b60405180910390f35b610101610384565b6040516100f09190610c3f565b6100a061011c36600461098a565b610509565b61012961056d565b6040516100f09190610bc0565b60005473ffffffffffffffffffffffffffffffffffffffff163314610190576040517f08c379a000000000000000000000000000000000000000000000000000000000815260040161018790610b52565b60405180910390fd5b600080547fffffffffffffffffffffffff00000000000000000000000000000000000000001673ffffffffffffffffffffffffffffffffffffffff92909216919091179055565b60005473ffffffffffffffffffffffffffffffffffffffff163314610228576040517f08c379a000000000000000000000000000000000000000000000000000000000815260040161018790610b52565b805161023b90600190602084019061073d565b5050565b60005473ffffffffffffffffffffffffffffffffffffffff163314610290576040517f08c379a000000000000000000000000000000000000000000000000000000000815260040161018790610b52565b805180516102ca576040517f08c379a000000000000000000000000000000000000000000000000000000000815260040161018790610b89565b8151805183916004916102e491839160209091019061073d565b5060208281015180516102fd92600185019201906107c1565b5050505050565b60005473ffffffffffffffffffffffffffffffffffffffff163314610355576040517f08c379a000000000000000000000000000000000000000000000000000000000815260040161018790610b52565b805161023b90600390602084019061073d565b60005473ffffffffffffffffffffffffffffffffffffffff1690565b61038c61081a565b60046040518060400160405290816000820180546103a990610d07565b80601f01602080910402602001604051908101604052809291908181526020018280546103d590610d07565b80156104225780601f106103f757610100808354040283529160200191610422565b820191906000526020600020905b81548152906001019060200180831161040557829003601f168201915b5050505050815260200160018201805480602002602001604051908101604052809291908181526020016000905b828210156104fc57838290600052602060002001805461046f90610d07565b80601f016020809104026020016040519081016040528092919081815260200182805461049b90610d07565b80156104e85780601f106104bd576101008083540402835291602001916104e8565b820191906000526020600020905b8154815290600101906020018083116104cb57829003601f168201915b505050505081526020019060010190610450565b5050505081525050905090565b60005473ffffffffffffffffffffffffffffffffffffffff16331461055a576040517f08c379a000000000000000000000000000000000000000000000000000000000815260040161018790610b52565b805161023b90600290602084019061073d565b610575610834565b600160405180606001604052908160008201805461059290610d07565b80601f01602080910402602001604051908101604052809291908181526020018280546105be90610d07565b801561060b5780601f106105e05761010080835404028352916020019161060b565b820191906000526020600020905b8154815290600101906020018083116105ee57829003601f168201915b5050505050815260200160018201805461062490610d07565b80601f016020809104026020016040519081016040528092919081815260200182805461065090610d07565b801561069d5780601f106106725761010080835404028352916020019161069d565b820191906000526020600020905b81548152906001019060200180831161068057829003601f168201915b505050505081526020016002820180546106b690610d07565b80601f01602080910402602001604051908101604052809291908181526020018280546106e290610d07565b801561072f5780601f106107045761010080835404028352916020019161072f565b820191906000526020600020905b81548152906001019060200180831161071257829003601f168201915b505050505081525050905090565b82805461074990610d07565b90600052602060002090601f01602090048101928261076b57600085556107b1565b82601f1061078457805160ff19168380011785556107b1565b828001600101855582156107b1579182015b828111156107b1578251825591602001919060010190610796565b506107bd929150610855565b5090565b82805482825590600052602060002090810192821561080e579160200282015b8281111561080e57825180516107fe91849160209091019061073d565b50916020019190600101906107e1565b506107bd92915061086a565b604051806040016040528060608152602001606081525090565b60405180606001604052806060815260200160608152602001606081525090565b5b808211156107bd5760008155600101610856565b808211156107bd57600061087e8282610887565b5060010161086a565b50805461089390610d07565b6000825580601f106108a557506108c3565b601f0160209004906000526020600020908101906108c39190610855565b50565b600082601f8301126108d6578081fd5b813567ffffffffffffffff8111156108f0576108f0610d5b565b61092160207fffffffffffffffffffffffffffffffffffffffffffffffffffffffffffffffe0601f84011601610cdd565b818152846020838601011115610935578283fd5b816020850160208301379081016020019190915292915050565b600060208284031215610960578081fd5b813573ffffffffffffffffffffffffffffffffffffffff81168114610983578182fd5b9392505050565b60006020828403121561099b578081fd5b813567ffffffffffffffff8111156109b1578182fd5b6109bd848285016108c6565b949350505050565b600060208083850312156109d7578182fd5b823567ffffffffffffffff808211156109ee578384fd5b9084019060408287031215610a01578384fd5b604051604081018181108382111715610a1c57610a1c610d5b565b604052823582811115610a2d578586fd5b610a39888286016108c6565b8252508383013582811115610a4c578586fd5b80840193505086601f840112610a60578485fd5b823582811115610a7257610a72610d5b565b610a7f8586830201610cdd565b8181528581019350848601875b83811015610ab557610aa38b8984358a01016108c6565b86529487019490870190600101610a8c565b5050948201949094529695505050505050565b60008151808452815b81811015610aed57602081850181015186830182015201610ad1565b81811115610afe5782602083870101525b50601f017fffffffffffffffffffffffffffffffffffffffffffffffffffffffffffffffe0169290920160200192915050565b73ffffffffffffffffffffffffffffffffffffffff91909116815260200190565b60208082526010908201527f4f776e65723a20464f5242494444454e00000000000000000000000000000000604082015260600190565b60208082526007908201527f4e6f206e616d6500000000000000000000000000000000000000000000000000604082015260600190565b600060208252825160606020840152610bdc6080840182610ac8565b905060208401517fffffffffffffffffffffffffffffffffffffffffffffffffffffffffffffffe080858403016040860152610c188383610ac8565b9250604086015191508085840301606086015250610c368282610ac8565b95945050505050565b600060208083528351604082850152610c5b6060850182610ac8565b828601517fffffffffffffffffffffffffffffffffffffffffffffffffffffffffffffffe0868303810160408801528151808452929350908401918385019080860285018601875b82811015610ccf5784878303018452610cbd828751610ac8565b95880195938801939150600101610ca3565b509998505050505050505050565b60405181810167ffffffffffffffff81118282101715610cff57610cff610d5b565b604052919050565b600281046001821680610d1b57607f821691505b60208210811415610d55577f4e487b7100000000000000000000000000000000000000000000000000000000600052602260045260246000fd5b50919050565b7f4e487b7100000000000000000000000000000000000000000000000000000000600052604160045260246000fdfea2646970667358221220abe355be0471a4120dd6c40912be3a315ce6f681d85e1d31659e754ea67db5f264736f6c63430008000033",
  "immutableReferences": {},
  "source": "// SPDX-License-Identifier: MIT\npragma solidity ^0.8.0;\n\nimport './IStorage.sol';\n\ncontract Storage is IStorage {\n    address private _owner;\n    Project private _project;\n    TokenList private _tokenList;\n\n    modifier onlyOwner() {\n        require(msg.sender == _owner, \"Owner: FORBIDDEN\");\n        _;\n    }\n\n    constructor(address owner_) {\n        _owner = owner_;\n    }\n\n    function owner() external override view returns(address) {\n        return _owner;\n    }\n\n    function project() external override view returns(Project memory) {\n        return _project;\n    }\n\n    function tokenList() external override view returns(TokenList memory) {\n        return _tokenList;\n    }\n\n    function setOwner(address owner_) external override onlyOwner {\n        _owner = owner_;\n    }\n\n    function setProjectName(string memory _name) external override onlyOwner {\n        _project.name = _name;\n    }\n\n    function setLogoUrl(string memory _logo) external override onlyOwner {\n        _project.logo = _logo;\n    }\n\n    function setBrandColor(string memory _color) external override onlyOwner {\n        _project.brandColor = _color;\n    }\n\n    function setTokenList(TokenList memory _list) external override onlyOwner {\n        bytes memory byteName = bytes(_list.name);\n        require(byteName.length != 0, \"No name\");\n\n        _tokenList = _list;\n    }\n}",
  "sourcePath": "/home/user/Github/solidity/storage/contracts/Storage.sol",
  "compiler": {
    "name": "solc",
    "version": "0.8.0+commit.c7dfd78e.Emscripten.clang"
  },
  "schemaVersion": "3.4.3",
  "updatedAt": "2021-11-25T16:43:27.421Z",
  "devdoc": {
    "kind": "dev",
    "methods": {},
    "version": 1
  },
  "userdoc": {
    "kind": "user",
    "methods": {},
    "version": 1
  }
}