{
  "contractName": "Storage",
  "abi": [
    {
      "inputs": [
        {
          "internalType": "address",
          "name": "owner_",
          "type": "address"
        }
      ],
      "stateMutability": "nonpayable",
      "type": "constructor"
    },
    {
      "inputs": [],
      "name": "owner",
      "outputs": [
        {
          "internalType": "address",
          "name": "",
          "type": "address"
        }
      ],
      "stateMutability": "view",
      "type": "function"
    },
    {
      "inputs": [],
      "name": "project",
      "outputs": [
        {
          "components": [
            {
              "internalType": "string",
              "name": "name",
              "type": "string"
            },
            {
              "internalType": "string",
              "name": "logo",
              "type": "string"
            },
            {
              "internalType": "string",
              "name": "brandColor",
              "type": "string"
            },
            {
              "internalType": "string",
              "name": "listName",
              "type": "string"
            },
            {
              "internalType": "address[]",
              "name": "tokens",
              "type": "address[]"
            }
          ],
          "internalType": "struct IStorage.Project",
          "name": "",
          "type": "tuple"
        }
      ],
      "stateMutability": "view",
      "type": "function"
    },
    {
      "inputs": [],
      "name": "tokenList",
      "outputs": [
        {
          "internalType": "string",
          "name": "_name",
          "type": "string"
        },
        {
          "internalType": "address[]",
          "name": "_tokens",
          "type": "address[]"
        }
      ],
      "stateMutability": "view",
      "type": "function"
    },
    {
      "inputs": [
        {
          "internalType": "address",
          "name": "owner_",
          "type": "address"
        }
      ],
      "name": "setOwner",
      "outputs": [],
      "stateMutability": "nonpayable",
      "type": "function"
    },
    {
      "inputs": [
        {
          "internalType": "string",
          "name": "_name",
          "type": "string"
        }
      ],
      "name": "setProjectName",
      "outputs": [],
      "stateMutability": "nonpayable",
      "type": "function"
    },
    {
      "inputs": [
        {
          "internalType": "string",
          "name": "_logo",
          "type": "string"
        }
      ],
      "name": "setLogoUrl",
      "outputs": [],
      "stateMutability": "nonpayable",
      "type": "function"
    },
    {
      "inputs": [
        {
          "internalType": "string",
          "name": "_color",
          "type": "string"
        }
      ],
      "name": "setBrandColor",
      "outputs": [],
      "stateMutability": "nonpayable",
      "type": "function"
    },
    {
      "inputs": [
        {
          "internalType": "string",
          "name": "_name",
          "type": "string"
        },
        {
          "internalType": "address[]",
          "name": "_tokens",
          "type": "address[]"
        }
      ],
      "name": "setTokenList",
      "outputs": [],
      "stateMutability": "nonpayable",
      "type": "function"
    },
    {
      "inputs": [],
      "name": "clearTokenList",
      "outputs": [],
      "stateMutability": "nonpayable",
      "type": "function"
    },
    {
      "inputs": [
        {
          "components": [
            {
              "internalType": "string",
              "name": "name",
              "type": "string"
            },
            {
              "internalType": "string",
              "name": "logo",
              "type": "string"
            },
            {
              "internalType": "string",
              "name": "brandColor",
              "type": "string"
            },
            {
              "internalType": "string",
              "name": "listName",
              "type": "string"
            },
            {
              "internalType": "address[]",
              "name": "tokens",
              "type": "address[]"
            }
          ],
          "internalType": "struct IStorage.Project",
          "name": "_data",
          "type": "tuple"
        }
      ],
      "name": "setFullData",
      "outputs": [],
      "stateMutability": "nonpayable",
      "type": "function"
    }
  ],
  "bytecode": "0x608060405234801561001057600080fd5b506040516111a33803806111a383398101604081905261002f91610054565b600080546001600160a01b0319166001600160a01b0392909216919091179055610082565b600060208284031215610065578081fd5b81516001600160a01b038116811461007b578182fd5b9392505050565b611112806100916000396000f3fe608060405234801561001057600080fd5b50600436106100be5760003560e01c80638da5cb5b11610076578063bf7482341161005b578063bf7482341461014d578063ece08cec14610160578063f60ca60d14610173576100be565b80638da5cb5b146101195780639e2c58ca14610137576100be565b806348b6b16f116100a757806348b6b16f146100eb5780634e4d1f42146100fe5780638a66010814610106576100be565b806313af4035146100c357806327157ec4146100d8575b600080fd5b6100d66100d1366004610c1e565b610188565b005b6100d66100e6366004610cdb565b610276565b6100d66100f9366004610c3f565b610346565b6100d66103aa565b6100d6610114366004610c3f565b610409565b61012161046d565b60405161012e9190610e8b565b60405180910390f35b61013f610489565b60405161012e929190610eac565b6100d661015b366004610c3f565b610593565b6100d661016e366004610c7a565b6105f7565b61017b6106af565b60405161012e9190610f7f565b60005473ffffffffffffffffffffffffffffffffffffffff1633146101e2576040517f08c379a00000000000000000000000000000000000000000000000000000000081526004016101d990610eda565b60405180910390fd5b73ffffffffffffffffffffffffffffffffffffffff811661022f576040517f08c379a00000000000000000000000000000000000000000000000000000000081526004016101d990610f11565b600080547fffffffffffffffffffffffff00000000000000000000000000000000000000001673ffffffffffffffffffffffffffffffffffffffff92909216919091179055565b60005473ffffffffffffffffffffffffffffffffffffffff1633146102c7576040517f08c379a00000000000000000000000000000000000000000000000000000000081526004016101d990610eda565b805180516102dd91600191602090910190610980565b5060208082015180516102f4926002920190610980565b506040810151805161030e91600391602090910190610980565b506060810151805161032891600491602090910190610980565b506080810151805161034291600591602090910190610a04565b5050565b60005473ffffffffffffffffffffffffffffffffffffffff163314610397576040517f08c379a00000000000000000000000000000000000000000000000000000000081526004016101d990610eda565b8051610342906001906020840190610980565b60005473ffffffffffffffffffffffffffffffffffffffff1633146103fb576040517f08c379a00000000000000000000000000000000000000000000000000000000081526004016101d990610eda565b61040760056000610a7e565b565b60005473ffffffffffffffffffffffffffffffffffffffff16331461045a576040517f08c379a00000000000000000000000000000000000000000000000000000000081526004016101d990610eda565b8051610342906003906020840190610980565b60005473ffffffffffffffffffffffffffffffffffffffff1690565b606080600160030160016004018180546104a290611059565b80601f01602080910402602001604051908101604052809291908181526020018280546104ce90611059565b801561051b5780601f106104f05761010080835404028352916020019161051b565b820191906000526020600020905b8154815290600101906020018083116104fe57829003601f168201915b505050505091508080548060200260200160405190810160405280929190818152602001828054801561058457602002820191906000526020600020905b815473ffffffffffffffffffffffffffffffffffffffff168152600190910190602001808311610559575b50505050509050915091509091565b60005473ffffffffffffffffffffffffffffffffffffffff1633146105e4576040517f08c379a00000000000000000000000000000000000000000000000000000000081526004016101d990610eda565b8051610342906002906020840190610980565b60005473ffffffffffffffffffffffffffffffffffffffff163314610648576040517f08c379a00000000000000000000000000000000000000000000000000000000081526004016101d990610eda565b81518290610682576040517f08c379a00000000000000000000000000000000000000000000000000000000081526004016101d990610f48565b8251610695906004906020860190610980565b5081516106a9906005906020850190610a04565b50505050565b6106b7610a9f565b60016040518060a00160405290816000820180546106d490611059565b80601f016020809104026020016040519081016040528092919081815260200182805461070090611059565b801561074d5780601f106107225761010080835404028352916020019161074d565b820191906000526020600020905b81548152906001019060200180831161073057829003601f168201915b5050505050815260200160018201805461076690611059565b80601f016020809104026020016040519081016040528092919081815260200182805461079290611059565b80156107df5780601f106107b4576101008083540402835291602001916107df565b820191906000526020600020905b8154815290600101906020018083116107c257829003601f168201915b505050505081526020016002820180546107f890611059565b80601f016020809104026020016040519081016040528092919081815260200182805461082490611059565b80156108715780601f1061084657610100808354040283529160200191610871565b820191906000526020600020905b81548152906001019060200180831161085457829003601f168201915b5050505050815260200160038201805461088a90611059565b80601f01602080910402602001604051908101604052809291908181526020018280546108b690611059565b80156109035780601f106108d857610100808354040283529160200191610903565b820191906000526020600020905b8154815290600101906020018083116108e657829003601f168201915b505050505081526020016004820180548060200260200160405190810160405280929190818152602001828054801561097257602002820191906000526020600020905b815473ffffffffffffffffffffffffffffffffffffffff168152600190910190602001808311610947575b505050505081525050905090565b82805461098c90611059565b90600052602060002090601f0160209004810192826109ae57600085556109f4565b82601f106109c757805160ff19168380011785556109f4565b828001600101855582156109f4579182015b828111156109f45782518255916020019190600101906109d9565b50610a00929150610ace565b5090565b8280548282559060005260206000209081019282156109f4579160200282015b828111156109f457825182547fffffffffffffffffffffffff00000000000000000000000000000000000000001673ffffffffffffffffffffffffffffffffffffffff909116178255602090920191600190910190610a24565b5080546000825590600052602060002090810190610a9c9190610ace565b50565b6040518060a0016040528060608152602001606081526020016060815260200160608152602001606081525090565b5b80821115610a005760008155600101610acf565b803573ffffffffffffffffffffffffffffffffffffffff81168114610b0757600080fd5b919050565b600082601f830112610b1c578081fd5b8135602067ffffffffffffffff821115610b3857610b386110ad565b808202610b4682820161102f565b838152828101908684018388018501891015610b60578687fd5b8693505b85841015610b8957610b7581610ae3565b835260019390930192918401918401610b64565b50979650505050505050565b600082601f830112610ba5578081fd5b813567ffffffffffffffff811115610bbf57610bbf6110ad565b610bf060207fffffffffffffffffffffffffffffffffffffffffffffffffffffffffffffffe0601f8401160161102f565b818152846020838601011115610c04578283fd5b816020850160208301379081016020019190915292915050565b600060208284031215610c2f578081fd5b610c3882610ae3565b9392505050565b600060208284031215610c50578081fd5b813567ffffffffffffffff811115610c66578182fd5b610c7284828501610b95565b949350505050565b60008060408385031215610c8c578081fd5b823567ffffffffffffffff80821115610ca3578283fd5b610caf86838701610b95565b93506020850135915080821115610cc4578283fd5b50610cd185828601610b0c565b9150509250929050565b600060208284031215610cec578081fd5b813567ffffffffffffffff80821115610d03578283fd5b9083019060a08286031215610d16578283fd5b610d2060a061102f565b823582811115610d2e578485fd5b610d3a87828601610b95565b825250602083013582811115610d4e578485fd5b610d5a87828601610b95565b602083015250604083013582811115610d71578485fd5b610d7d87828601610b95565b604083015250606083013582811115610d94578485fd5b610da087828601610b95565b606083015250608083013582811115610db7578485fd5b610dc387828601610b0c565b60808301525095945050505050565b6000815180845260208085019450808401835b83811015610e1757815173ffffffffffffffffffffffffffffffffffffffff1687529582019590820190600101610de5565b509495945050505050565b60008151808452815b81811015610e4757602081850181015186830182015201610e2b565b81811115610e585782602083870101525b50601f017fffffffffffffffffffffffffffffffffffffffffffffffffffffffffffffffe0169290920160200192915050565b73ffffffffffffffffffffffffffffffffffffffff91909116815260200190565b600060408252610ebf6040830185610e22565b8281036020840152610ed18185610dd2565b95945050505050565b60208082526010908201527f4f776e65723a20464f5242494444454e00000000000000000000000000000000604082015260600190565b6020808252600c908201527f5a65726f20616464726573730000000000000000000000000000000000000000604082015260600190565b6020808252600c908201527f4e6f206c697374206e616d650000000000000000000000000000000000000000604082015260600190565b600060208252825160a06020840152610f9b60c0840182610e22565b905060208401517fffffffffffffffffffffffffffffffffffffffffffffffffffffffffffffffe080858403016040860152610fd78383610e22565b92506040860151915080858403016060860152610ff48383610e22565b925060608601519150808584030160808601526110118383610e22565b925060808601519150808584030160a086015250610ed18282610dd2565b60405181810167ffffffffffffffff81118282101715611051576110516110ad565b604052919050565b60028104600182168061106d57607f821691505b602082108114156110a7577f4e487b7100000000000000000000000000000000000000000000000000000000600052602260045260246000fd5b50919050565b7f4e487b7100000000000000000000000000000000000000000000000000000000600052604160045260246000fdfea2646970667358221220a034b47f0781ce5486e7ba15898238776073998413cfe250f76033d4d155082164736f6c63430008000033",
  "immutableReferences": {},
  "source": "// SPDX-License-Identifier: MIT\npragma solidity ^0.8.0;\n\nimport './IStorage.sol';\n\ncontract Storage is IStorage {\n    address private _owner;\n    Project private _project;\n\n    modifier onlyOwner() {\n        require(msg.sender == _owner, \"Owner: FORBIDDEN\");\n        _;\n    }\n\n    constructor(address owner_) {\n        _owner = owner_;\n    }\n\n    function owner() external override view returns(address) {\n        return _owner;\n    }\n\n    function project() external override view returns(Project memory) {\n        return _project;\n    }\n\n    function tokenList() external override view returns(string memory _name, address[] memory _tokens) {\n        return (_project.listName, _project.tokens);\n    }\n\n    function setOwner(address owner_) external override onlyOwner {\n        require(owner_ != address(0), \"Zero address\");\n        _owner = owner_;\n    }\n\n    function setProjectName(string memory _name) external override onlyOwner {\n        _project.name = _name;\n    }\n\n    function setLogoUrl(string memory _logo) external override onlyOwner {\n        _project.logo = _logo;\n    }\n\n    function setBrandColor(string memory _color) external override onlyOwner {\n        _project.brandColor = _color;\n    }\n\n    function setTokenList(string memory _name, address[] memory _tokens) external override onlyOwner {\n        bytes memory byteName = bytes(_name);\n        require(byteName.length != 0, \"No list name\");\n        _project.listName = _name;\n        _project.tokens = _tokens;\n    }\n\n    function clearTokenList() external override onlyOwner {\n        delete _project.tokens;\n    }\n\n    function setFullData(Project memory _data) external override onlyOwner {\n        _project.name = _data.name;\n        _project.logo = _data.logo;\n        _project.brandColor = _data.brandColor;\n        _project.listName = _data.listName;\n        _project.tokens = _data.tokens;\n    }\n}",
  "sourcePath": "/home/user/Github/solidity/storage/contracts/Storage.sol",
  "compiler": {
    "name": "solc",
    "version": "0.8.0+commit.c7dfd78e.Emscripten.clang"
  },
  "schemaVersion": "3.4.3",
  "updatedAt": "2021-11-26T13:37:50.499Z",
  "devdoc": {
    "kind": "dev",
    "methods": {},
    "version": 1
  },
  "userdoc": {
    "kind": "user",
    "methods": {},
    "version": 1
  }
}