{
  "contractName": "Storage",
  "abi": [
    {
      "inputs": [
        {
          "internalType": "address",
          "name": "owner_",
          "type": "address"
        }
      ],
      "stateMutability": "nonpayable",
      "type": "constructor"
    },
    {
      "inputs": [
        {
          "internalType": "address",
          "name": "owner_",
          "type": "address"
        }
      ],
      "name": "setOwner",
      "outputs": [],
      "stateMutability": "nonpayable",
      "type": "function"
    },
    {
      "inputs": [
        {
          "internalType": "string",
          "name": "_domain",
          "type": "string"
        }
      ],
      "name": "setDomain",
      "outputs": [],
      "stateMutability": "nonpayable",
      "type": "function"
    },
    {
      "inputs": [
        {
          "internalType": "string",
          "name": "_name",
          "type": "string"
        }
      ],
      "name": "setProjectName",
      "outputs": [],
      "stateMutability": "nonpayable",
      "type": "function"
    },
    {
      "inputs": [
        {
          "internalType": "string",
          "name": "_logo",
          "type": "string"
        }
      ],
      "name": "setLogoUrl",
      "outputs": [],
      "stateMutability": "nonpayable",
      "type": "function"
    },
    {
      "inputs": [
        {
          "internalType": "string",
          "name": "_color",
          "type": "string"
        }
      ],
      "name": "setBrandColor",
      "outputs": [],
      "stateMutability": "nonpayable",
      "type": "function"
    },
    {
      "inputs": [
        {
          "components": [
            {
              "internalType": "string",
              "name": "domain",
              "type": "string"
            },
            {
              "internalType": "string",
              "name": "name",
              "type": "string"
            },
            {
              "internalType": "string",
              "name": "logo",
              "type": "string"
            },
            {
              "internalType": "string",
              "name": "brandColor",
              "type": "string"
            }
          ],
          "internalType": "struct IStorage.Project",
          "name": "_data",
          "type": "tuple"
        }
      ],
      "name": "setFullData",
      "outputs": [],
      "stateMutability": "nonpayable",
      "type": "function"
    },
    {
      "inputs": [
        {
          "internalType": "string",
          "name": "_name",
          "type": "string"
        },
        {
          "internalType": "string",
          "name": "_data",
          "type": "string"
        }
      ],
      "name": "addTokenList",
      "outputs": [],
      "stateMutability": "nonpayable",
      "type": "function"
    },
    {
      "inputs": [
        {
          "components": [
            {
              "internalType": "string",
              "name": "name",
              "type": "string"
            },
            {
              "internalType": "string",
              "name": "data",
              "type": "string"
            }
          ],
          "internalType": "struct IStorage.TokenList[]",
          "name": "_lists",
          "type": "tuple[]"
        }
      ],
      "name": "addTokenLists",
      "outputs": [],
      "stateMutability": "nonpayable",
      "type": "function"
    },
    {
      "inputs": [
        {
          "internalType": "string",
          "name": "_oldName",
          "type": "string"
        },
        {
          "internalType": "string",
          "name": "_name",
          "type": "string"
        },
        {
          "internalType": "string",
          "name": "_data",
          "type": "string"
        }
      ],
      "name": "updateTokenList",
      "outputs": [],
      "stateMutability": "nonpayable",
      "type": "function"
    },
    {
      "inputs": [
        {
          "internalType": "string",
          "name": "_name",
          "type": "string"
        }
      ],
      "name": "removeTokenList",
      "outputs": [],
      "stateMutability": "nonpayable",
      "type": "function"
    },
    {
      "inputs": [],
      "name": "clearTokenLists",
      "outputs": [],
      "stateMutability": "nonpayable",
      "type": "function"
    },
    {
      "inputs": [],
      "name": "owner",
      "outputs": [
        {
          "internalType": "address",
          "name": "",
          "type": "address"
        }
      ],
      "stateMutability": "view",
      "type": "function"
    },
    {
      "inputs": [],
      "name": "project",
      "outputs": [
        {
          "components": [
            {
              "internalType": "string",
              "name": "domain",
              "type": "string"
            },
            {
              "internalType": "string",
              "name": "name",
              "type": "string"
            },
            {
              "internalType": "string",
              "name": "logo",
              "type": "string"
            },
            {
              "internalType": "string",
              "name": "brandColor",
              "type": "string"
            }
          ],
          "internalType": "struct IStorage.Project",
          "name": "",
          "type": "tuple"
        }
      ],
      "stateMutability": "view",
      "type": "function"
    },
    {
      "inputs": [
        {
          "internalType": "string",
          "name": "_name",
          "type": "string"
        }
      ],
      "name": "tokenList",
      "outputs": [
        {
          "internalType": "string",
          "name": "_listData",
          "type": "string"
        }
      ],
      "stateMutability": "view",
      "type": "function"
    },
    {
      "inputs": [],
      "name": "tokenLists",
      "outputs": [
        {
          "internalType": "string[]",
          "name": "",
          "type": "string[]"
        }
      ],
      "stateMutability": "view",
      "type": "function"
    }
  ],
  "bytecode": "0x608060405234801561001057600080fd5b50604051611fe6380380611fe683398101604081905261002f91610054565b600080546001600160a01b0319166001600160a01b0392909216919091179055610082565b600060208284031215610065578081fd5b81516001600160a01b038116811461007b578182fd5b9392505050565b611f55806100916000396000f3fe608060405234801561001057600080fd5b50600436106100f55760003560e01c80638da5cb5b11610097578063da07758c11610066578063da07758c146101e5578063dc398435146101fa578063e5eab09614610202578063f60ca60d14610215576100f5565b80638da5cb5b14610197578063bc83c5f8146101ac578063bf748234146101bf578063ce85004f146101d2576100f5565b806327d85bcb116100d357806327d85bcb1461014b57806348b6b16f1461015e5780635a022df5146101715780638a66010814610184576100f5565b806313af4035146100fa5780631820a2de1461010f57806326e3b24114610138575b600080fd5b61010d6101083660046116ba565b61022a565b005b61012261011d36600461181c565b610318565b60405161012f9190611be7565b60405180910390f35b61010d61014636600461181c565b6104ba565b61010d61015936600461193c565b61078c565b61010d61016c36600461181c565b610812565b61010d61017f3660046118b8565b61086c565b61010d61019236600461181c565b610a90565b61019f610aea565b60405161012f9190611b48565b61010d6101ba3660046116f5565b610b06565b61010d6101cd36600461181c565b610b60565b61010d6101e0366004611857565b610bba565b6101ed610c19565b60405161012f9190611b69565b61010d610dd5565b61010d61021036600461181c565b610e34565b61021d610e8e565b60405161012f9190611d0d565b60005473ffffffffffffffffffffffffffffffffffffffff163314610284576040517f08c379a000000000000000000000000000000000000000000000000000000000815260040161027b90611bfa565b60405180910390fd5b73ffffffffffffffffffffffffffffffffffffffff81166102d1576040517f08c379a000000000000000000000000000000000000000000000000000000000815260040161027b90611c68565b600080547fffffffffffffffffffffffff00000000000000000000000000000000000000001673ffffffffffffffffffffffffffffffffffffffff92909216919091179055565b606060005b6005548110156104b357826040516020016103389190611a5a565b6040516020818303038152906040528051906020012060058281548110610388577f4e487b7100000000000000000000000000000000000000000000000000000000600052603260045260246000fd5b90600052602060002090600202016000016040516020016103a99190611a76565b6040516020818303038152906040528051906020012014156104a157600581815481106103ff577f4e487b7100000000000000000000000000000000000000000000000000000000600052603260045260246000fd5b9060005260206000209060020201600101805461041b90611e3a565b80601f016020809104026020016040519081016040528092919081815260200182805461044790611e3a565b80156104945780601f1061046957610100808354040283529160200191610494565b820191906000526020600020905b81548152906001019060200180831161047757829003601f168201915b50505050509150506104b5565b806104ab81611e88565b91505061031d565b505b919050565b60005473ffffffffffffffffffffffffffffffffffffffff16331461050b576040517f08c379a000000000000000000000000000000000000000000000000000000000815260040161027b90611bfa565b80518190610545576040517f08c379a000000000000000000000000000000000000000000000000000000000815260040161027b90611cd6565b6000805b60055461055890600190611df7565b8110156106f757836040516020016105709190611a5a565b60405160208183030381529060405280519060200120600582815481106105c0577f4e487b7100000000000000000000000000000000000000000000000000000000600052603260045260246000fd5b90600052602060002090600202016000016040516020016105e19190611a76565b60405160208183030381529060405280519060200120141561060257600191505b81156106e5576005610615826001611ddf565b8154811061064c577f4e487b7100000000000000000000000000000000000000000000000000000000600052603260045260246000fd5b906000526020600020906002020160058281548110610694577f4e487b7100000000000000000000000000000000000000000000000000000000600052603260045260246000fd5b906000526020600020906002020160008201816000019080546106b690611e3a565b6106c192919061146d565b5060018201816001019080546106d690611e3a565b6106e192919061146d565b5050505b806106ef81611e88565b915050610549565b508015610787576005805480610736577f4e487b7100000000000000000000000000000000000000000000000000000000600052603160045260246000fd5b6000828152602081207fffffffffffffffffffffffffffffffffffffffffffffffffffffffffffffffff9092019160028302019061077482826114f8565b6107826001830160006114f8565b505090555b505050565b60005473ffffffffffffffffffffffffffffffffffffffff1633146107dd576040517f08c379a000000000000000000000000000000000000000000000000000000000815260040161027b90611bfa565b80516107e8906110f0565b6107f58160200151611103565b6108028160400151611116565b61080f8160600151611129565b50565b60005473ffffffffffffffffffffffffffffffffffffffff163314610863576040517f08c379a000000000000000000000000000000000000000000000000000000000815260040161027b90611bfa565b61080f81611103565b60005473ffffffffffffffffffffffffffffffffffffffff1633146108bd576040517f08c379a000000000000000000000000000000000000000000000000000000000815260040161027b90611bfa565b8251839083901515806108d05750805115155b610906576040517f08c379a000000000000000000000000000000000000000000000000000000000815260040161027b90611c9f565b60005b600554811015610a8857856040516020016109249190611a5a565b6040516020818303038152906040528051906020012060058281548110610974577f4e487b7100000000000000000000000000000000000000000000000000000000600052603260045260246000fd5b90600052602060002090600202016000016040516020016109959190611a76565b604051602081830303815290604052805190602001201415610a765784600582815481106109ec577f4e487b7100000000000000000000000000000000000000000000000000000000600052603260045260246000fd5b90600052602060002090600202016000019080519060200190610a10929190611534565b508360058281548110610a4c577f4e487b7100000000000000000000000000000000000000000000000000000000600052603260045260246000fd5b90600052602060002090600202016001019080519060200190610a70929190611534565b50610a88565b80610a8081611e88565b915050610909565b505050505050565b60005473ffffffffffffffffffffffffffffffffffffffff163314610ae1576040517f08c379a000000000000000000000000000000000000000000000000000000000815260040161027b90611bfa565b61080f81611129565b60005473ffffffffffffffffffffffffffffffffffffffff1690565b60005473ffffffffffffffffffffffffffffffffffffffff163314610b57576040517f08c379a000000000000000000000000000000000000000000000000000000000815260040161027b90611bfa565b61080f8161113c565b60005473ffffffffffffffffffffffffffffffffffffffff163314610bb1576040517f08c379a000000000000000000000000000000000000000000000000000000000815260040161027b90611bfa565b61080f81611116565b60005473ffffffffffffffffffffffffffffffffffffffff163314610c0b576040517f08c379a000000000000000000000000000000000000000000000000000000000815260040161027b90611bfa565b610c158282611227565b5050565b60055460609060009067ffffffffffffffff811115610c61577f4e487b7100000000000000000000000000000000000000000000000000000000600052604160045260246000fd5b604051908082528060200260200182016040528015610c9457816020015b6060815260200190600190039081610c7f5790505b50905060005b600554811015610dcf5760058181548110610cde577f4e487b7100000000000000000000000000000000000000000000000000000000600052603260045260246000fd5b90600052602060002090600202016001018054610cfa90611e3a565b80601f0160208091040260200160405190810160405280929190818152602001828054610d2690611e3a565b8015610d735780601f10610d4857610100808354040283529160200191610d73565b820191906000526020600020905b815481529060010190602001808311610d5657829003601f168201915b5050505050828281518110610db1577f4e487b7100000000000000000000000000000000000000000000000000000000600052603260045260246000fd5b60200260200101819052508080610dc790611e88565b915050610c9a565b50905090565b60005473ffffffffffffffffffffffffffffffffffffffff163314610e26576040517f08c379a000000000000000000000000000000000000000000000000000000000815260040161027b90611bfa565b610e32600560006115a8565b565b60005473ffffffffffffffffffffffffffffffffffffffff163314610e85576040517f08c379a000000000000000000000000000000000000000000000000000000000815260040161027b90611bfa565b61080f816110f0565b610e966115c9565b6001604051806080016040529081600082018054610eb390611e3a565b80601f0160208091040260200160405190810160405280929190818152602001828054610edf90611e3a565b8015610f2c5780601f10610f0157610100808354040283529160200191610f2c565b820191906000526020600020905b815481529060010190602001808311610f0f57829003601f168201915b50505050508152602001600182018054610f4590611e3a565b80601f0160208091040260200160405190810160405280929190818152602001828054610f7190611e3a565b8015610fbe5780601f10610f9357610100808354040283529160200191610fbe565b820191906000526020600020905b815481529060010190602001808311610fa157829003601f168201915b50505050508152602001600282018054610fd790611e3a565b80601f016020809104026020016040519081016040528092919081815260200182805461100390611e3a565b80156110505780601f1061102557610100808354040283529160200191611050565b820191906000526020600020905b81548152906001019060200180831161103357829003601f168201915b5050505050815260200160038201805461106990611e3a565b80601f016020809104026020016040519081016040528092919081815260200182805461109590611e3a565b80156110e25780601f106110b7576101008083540402835291602001916110e2565b820191906000526020600020905b8154815290600101906020018083116110c557829003601f168201915b505050505081525050905090565b8051610c15906001906020840190611534565b8051610c15906002906020840190611534565b8051610c15906003906020840190611534565b8051610c15906004906020840190611534565b6000815111611177576040517f08c379a000000000000000000000000000000000000000000000000000000000815260040161027b90611c31565b60005b8151811015610c15576112158282815181106111bf577f4e487b7100000000000000000000000000000000000000000000000000000000600052603260045260246000fd5b602002602001015160000151838381518110611204577f4e487b7100000000000000000000000000000000000000000000000000000000600052603260045260246000fd5b602002602001015160200151611227565b8061121f81611e88565b91505061117a565b81518290611261576040517f08c379a000000000000000000000000000000000000000000000000000000000815260040161027b90611cd6565b6000805b6005548110156113e457846040516020016112809190611a5a565b60405160208183030381529060405280519060200120600582815481106112d0577f4e487b7100000000000000000000000000000000000000000000000000000000600052603260045260246000fd5b90600052602060002090600202016000016040516020016112f19190611a76565b6040516020818303038152906040528051906020012014156113d2578460058281548110611348577f4e487b7100000000000000000000000000000000000000000000000000000000600052603260045260246000fd5b9060005260206000209060020201600001908051906020019061136c929190611534565b5083600582815481106113a8577f4e487b7100000000000000000000000000000000000000000000000000000000600052603260045260246000fd5b906000526020600020906002020160010190805190602001906113cc929190611534565b50600191505b806113dc81611e88565b915050611265565b508061146757604080518082019091528481526020808201859052600580546001810182556000919091528251805160029092027f036b6384b5eca791c62761152d0c79bb0604c104a5fb6f4eb0703f3154bb3db0019261144a92849290910190611534565b5060208281015180516114639260018501920190611534565b5050505b50505050565b82805461147990611e3a565b90600052602060002090601f01602090048101928261149b57600085556114e8565b82601f106114ac57805485556114e8565b828001600101855582156114e857600052602060002091601f016020900482015b828111156114e85782548255916001019190600101906114cd565b506114f49291506115f1565b5090565b50805461150490611e3a565b6000825580601f10611516575061080f565b601f01602090049060005260206000209081019061080f91906115f1565b82805461154090611e3a565b90600052602060002090601f01602090048101928261156257600085556114e8565b82601f1061157b57805160ff19168380011785556114e8565b828001600101855582156114e8579182015b828111156114e857825182559160200191906001019061158d565b508054600082556002029060005260206000209081019061080f9190611606565b6040518060800160405280606081526020016060815260200160608152602001606081525090565b5b808211156114f457600081556001016115f2565b808211156114f457600061161a82826114f8565b6116286001830160006114f8565b50600201611606565b600082601f830112611641578081fd5b813567ffffffffffffffff81111561165b5761165b611ef0565b61168c60207fffffffffffffffffffffffffffffffffffffffffffffffffffffffffffffffe0601f84011601611da9565b8181528460208386010111156116a0578283fd5b816020850160208301379081016020019190915292915050565b6000602082840312156116cb578081fd5b813573ffffffffffffffffffffffffffffffffffffffff811681146116ee578182fd5b9392505050565b60006020808385031215611707578182fd5b823567ffffffffffffffff8082111561171e578384fd5b818501915085601f830112611731578384fd5b81358181111561174357611743611ef0565b6117508485830201611da9565b81815284810190848601875b8481101561180d57813587016040807fffffffffffffffffffffffffffffffffffffffffffffffffffffffffffffffe0838f0301121561179a578a8bfd5b80518181018181108a821117156117b3576117b3611ef0565b8252828b0135898111156117c5578c8dfd5b6117d38f8d83870101611631565b8252509082013590888211156117e7578b8cfd5b6117f58e8c84860101611631565b818c015286525050928701929087019060010161175c565b50909998505050505050505050565b60006020828403121561182d578081fd5b813567ffffffffffffffff811115611843578182fd5b61184f84828501611631565b949350505050565b60008060408385031215611869578081fd5b823567ffffffffffffffff80821115611880578283fd5b61188c86838701611631565b935060208501359150808211156118a1578283fd5b506118ae85828601611631565b9150509250929050565b6000806000606084860312156118cc578081fd5b833567ffffffffffffffff808211156118e3578283fd5b6118ef87838801611631565b94506020860135915080821115611904578283fd5b61191087838801611631565b93506040860135915080821115611925578283fd5b5061193286828701611631565b9150509250925092565b60006020828403121561194d578081fd5b813567ffffffffffffffff80821115611964578283fd5b9083019060808286031215611977578283fd5b6119816080611da9565b82358281111561198f578485fd5b61199b87828601611631565b8252506020830135828111156119af578485fd5b6119bb87828601611631565b6020830152506040830135828111156119d2578485fd5b6119de87828601611631565b6040830152506060830135828111156119f5578485fd5b611a0187828601611631565b60608301525095945050505050565b60008151808452611a28816020860160208601611e0e565b601f017fffffffffffffffffffffffffffffffffffffffffffffffffffffffffffffffe0169290920160200192915050565b60008251611a6c818460208701611e0e565b9190910192915050565b8154600090819060028104600180831680611a9257607f831692505b6020808410821415611acb577f4e487b710000000000000000000000000000000000000000000000000000000087526022600452602487fd5b818015611adf5760018114611b0e57611b3a565b7fffffffffffffffffffffffffffffffffffffffffffffffffffffffffffffff00861689528489019650611b3a565b611b178a611dd3565b885b86811015611b325781548b820152908501908301611b19565b505084890196505b509498975050505050505050565b73ffffffffffffffffffffffffffffffffffffffff91909116815260200190565b6000602080830181845280855180835260408601915060408482028701019250838701855b82811015611bda577fffffffffffffffffffffffffffffffffffffffffffffffffffffffffffffffc0888603018452611bc8858351611a10565b94509285019290850190600101611b8e565b5092979650505050505050565b6000602082526116ee6020830184611a10565b60208082526010908201527f4f776e65723a20464f5242494444454e00000000000000000000000000000000604082015260600190565b60208082526007908201527f4e4f5f4441544100000000000000000000000000000000000000000000000000604082015260600190565b6020808252600c908201527f5a45524f5f414444524553530000000000000000000000000000000000000000604082015260600190565b60208082526012908201527f4e414d45535f4152455f52455155495245440000000000000000000000000000604082015260600190565b60208082526007908201527f4e4f5f4e414d4500000000000000000000000000000000000000000000000000604082015260600190565b600060208252825160806020840152611d2960a0840182611a10565b905060208401517fffffffffffffffffffffffffffffffffffffffffffffffffffffffffffffffe080858403016040860152611d658383611a10565b92506040860151915080858403016060860152611d828383611a10565b9250606086015191508085840301608086015250611da08282611a10565b95945050505050565b60405181810167ffffffffffffffff81118282101715611dcb57611dcb611ef0565b604052919050565b60009081526020902090565b60008219821115611df257611df2611ec1565b500190565b600082821015611e0957611e09611ec1565b500390565b60005b83811015611e29578181015183820152602001611e11565b838111156114675750506000910152565b600281046001821680611e4e57607f821691505b602082108114156104b3577f4e487b7100000000000000000000000000000000000000000000000000000000600052602260045260246000fd5b60007fffffffffffffffffffffffffffffffffffffffffffffffffffffffffffffffff821415611eba57611eba611ec1565b5060010190565b7f4e487b7100000000000000000000000000000000000000000000000000000000600052601160045260246000fd5b7f4e487b7100000000000000000000000000000000000000000000000000000000600052604160045260246000fdfea2646970667358221220408081b7a5f33a1f3b9b5f7e36339b2d30f68d7625cec42fa50e60fdaac8b93664736f6c63430008000033",
  "immutableReferences": {},
  "source": "// SPDX-License-Identifier: MIT\npragma solidity ^0.8.0;\n\nimport './IStorage.sol';\n\ncontract Storage is IStorage {\n    address private _owner;\n    Project private _project;\n    TokenList[] private _tokenLists;\n\n    modifier onlyOwner() {\n        require(msg.sender == _owner, 'Owner: FORBIDDEN');\n        _;\n    }\n\n    constructor(address owner_) {\n        _owner = owner_;\n    }\n\n    function setOwner(address owner_) external override onlyOwner {\n        require(owner_ != address(0), 'ZERO_ADDRESS');\n        _owner = owner_;\n    }\n\n    function setDomain(string memory _domain) external override onlyOwner {\n        _setDomain(_domain);\n    }\n\n    function setProjectName(string memory _name) external override onlyOwner {\n        _setProjectName(_name);\n    }\n\n    function setLogoUrl(string memory _logo) external override onlyOwner {\n        _setLogoUrl(_logo);\n    }\n\n    function setBrandColor(string memory _color) external override onlyOwner {\n        _setBrandColor(_color);\n    }\n\n    function setFullData(Project memory _data) external override onlyOwner {\n        _setDomain(_data.domain);\n        _setProjectName(_data.name);\n        _setLogoUrl(_data.logo);\n        _setBrandColor(_data.brandColor);\n    }\n\n    function addTokenList(string memory _name, string memory _data) external override onlyOwner {\n        _addTokenList(_name, _data);\n    }\n\n    function addTokenLists(TokenList[] memory _lists) external override onlyOwner {\n        _addTokenLists(_lists);\n    }\n\n    function updateTokenList(\n        string memory _oldName,\n        string memory _name,\n        string memory _data\n    ) external override onlyOwner {\n        bytes memory byteOldName = bytes(_oldName);\n        bytes memory byteName = bytes(_name);\n        require(byteOldName.length != 0 || byteName.length != 0, 'NAMES_ARE_REQUIRED');\n        for(uint256 x; x < _tokenLists.length; x++) {\n            if (keccak256(abi.encodePacked(_tokenLists[x].name)) == keccak256(abi.encodePacked(_oldName))) {\n                _tokenLists[x].name = _name;\n                _tokenLists[x].data = _data;\n                break;\n            }\n        }\n    }\n\n    function removeTokenList(string memory _name) external override onlyOwner {\n        bytes memory byteName = bytes(_name);\n        require(byteName.length != 0, 'NO_NAME');\n        bool arrayOffset;\n        for(uint256 x; x < _tokenLists.length - 1; x++) {\n            if (keccak256(abi.encodePacked(_tokenLists[x].name)) == keccak256(abi.encodePacked(_name))) {\n                arrayOffset = true;\n            }\n            if (arrayOffset) _tokenLists[x] = _tokenLists[x + 1];\n        }\n        if (arrayOffset) _tokenLists.pop();\n    }\n\n    function clearTokenLists() external override onlyOwner {\n        delete _tokenLists;\n    }\n\n    function owner() external override view returns(address) {\n        return _owner;\n    }\n\n    function project() external override view returns(Project memory) {\n        return _project;\n    }\n\n    function tokenList(string memory _name) external override view returns(string memory _listData) {\n        for(uint256 x; x < _tokenLists.length; x++) {\n            if (keccak256(abi.encodePacked(_tokenLists[x].name)) == keccak256(abi.encodePacked(_name))) {\n                return _tokenLists[x].data;\n            }\n        }\n    }\n\n    function tokenLists() external override view returns(string[] memory) {\n        string[] memory lists = new string[](_tokenLists.length);\n        for(uint256 x; x < _tokenLists.length; x++) {\n            lists[x] = _tokenLists[x].data;\n        }\n        return lists;\n    }\n\n    function _setDomain(string memory _domain) private {\n        _project.domain = _domain;\n    }\n\n    function _setProjectName(string memory _name) private {\n        _project.name = _name;\n    }\n\n    function _setLogoUrl(string memory _logo) private {\n        _project.logo = _logo;\n    }\n\n    function _setBrandColor(string memory _color) private {\n        _project.brandColor = _color;\n    }\n\n    function _addTokenList(string memory _name, string memory _data) private {\n        bytes memory byteName = bytes(_name);\n        require(byteName.length != 0, 'NO_NAME');\n        bool exist;\n        for(uint256 x; x < _tokenLists.length; x++) {\n            if (keccak256(abi.encodePacked(_tokenLists[x].name)) == keccak256(abi.encodePacked(_name))) {\n                _tokenLists[x].name = _name;\n                _tokenLists[x].data = _data;\n                exist = true;\n            }\n        }\n        if (!exist) _tokenLists.push(TokenList({name: _name, data: _data}));\n    }\n\n    function _addTokenLists(TokenList[] memory _lists) private {\n        require(_lists.length > 0, 'NO_DATA');\n        for(uint256 x; x < _lists.length; x++) {\n            _addTokenList(_lists[x].name, _lists[x].data);\n        }\n    }\n}",
  "sourcePath": "/home/user/Github/solidity/storage/contracts/Storage.sol",
  "compiler": {
    "name": "solc",
    "version": "0.8.0+commit.c7dfd78e.Emscripten.clang"
  },
  "schemaVersion": "3.4.3",
  "updatedAt": "2021-12-03T12:16:19.044Z",
  "devdoc": {
    "kind": "dev",
    "methods": {},
    "version": 1
  },
  "userdoc": {
    "kind": "user",
    "methods": {},
    "version": 1
  }
}