{
  "contractName": "Storage",
  "abi": [
    {
      "inputs": [
        {
          "internalType": "address",
          "name": "owner_",
          "type": "address"
        }
      ],
      "stateMutability": "nonpayable",
      "type": "constructor"
    },
    {
      "inputs": [
        {
          "internalType": "address",
          "name": "owner_",
          "type": "address"
        }
      ],
      "name": "setOwner",
      "outputs": [],
      "stateMutability": "nonpayable",
      "type": "function"
    },
    {
      "inputs": [
        {
          "internalType": "string",
          "name": "_domain",
          "type": "string"
        }
      ],
      "name": "setDomain",
      "outputs": [],
      "stateMutability": "nonpayable",
      "type": "function"
    },
    {
      "inputs": [
        {
          "internalType": "string",
          "name": "_name",
          "type": "string"
        }
      ],
      "name": "setProjectName",
      "outputs": [],
      "stateMutability": "nonpayable",
      "type": "function"
    },
    {
      "inputs": [
        {
          "internalType": "string",
          "name": "_logo",
          "type": "string"
        }
      ],
      "name": "setLogoUrl",
      "outputs": [],
      "stateMutability": "nonpayable",
      "type": "function"
    },
    {
      "inputs": [
        {
          "internalType": "string",
          "name": "_color",
          "type": "string"
        }
      ],
      "name": "setBrandColor",
      "outputs": [],
      "stateMutability": "nonpayable",
      "type": "function"
    },
    {
      "inputs": [
        {
          "internalType": "string",
          "name": "_name",
          "type": "string"
        },
        {
          "internalType": "string",
          "name": "_data",
          "type": "string"
        }
      ],
      "name": "addTokenList",
      "outputs": [],
      "stateMutability": "nonpayable",
      "type": "function"
    },
    {
      "inputs": [
        {
          "internalType": "string",
          "name": "_oldName",
          "type": "string"
        },
        {
          "internalType": "string",
          "name": "_name",
          "type": "string"
        },
        {
          "internalType": "string",
          "name": "_data",
          "type": "string"
        }
      ],
      "name": "updateTokenList",
      "outputs": [],
      "stateMutability": "nonpayable",
      "type": "function"
    },
    {
      "inputs": [
        {
          "internalType": "string",
          "name": "_name",
          "type": "string"
        }
      ],
      "name": "removeTokenList",
      "outputs": [],
      "stateMutability": "nonpayable",
      "type": "function"
    },
    {
      "inputs": [],
      "name": "clearTokenLists",
      "outputs": [],
      "stateMutability": "nonpayable",
      "type": "function"
    },
    {
      "inputs": [
        {
          "components": [
            {
              "internalType": "string",
              "name": "domain",
              "type": "string"
            },
            {
              "internalType": "string",
              "name": "name",
              "type": "string"
            },
            {
              "internalType": "string",
              "name": "logo",
              "type": "string"
            },
            {
              "internalType": "string",
              "name": "brandColor",
              "type": "string"
            }
          ],
          "internalType": "struct IStorage.Project",
          "name": "_newData",
          "type": "tuple"
        }
      ],
      "name": "setFullData",
      "outputs": [],
      "stateMutability": "nonpayable",
      "type": "function"
    },
    {
      "inputs": [],
      "name": "owner",
      "outputs": [
        {
          "internalType": "address",
          "name": "",
          "type": "address"
        }
      ],
      "stateMutability": "view",
      "type": "function"
    },
    {
      "inputs": [],
      "name": "project",
      "outputs": [
        {
          "components": [
            {
              "internalType": "string",
              "name": "domain",
              "type": "string"
            },
            {
              "internalType": "string",
              "name": "name",
              "type": "string"
            },
            {
              "internalType": "string",
              "name": "logo",
              "type": "string"
            },
            {
              "internalType": "string",
              "name": "brandColor",
              "type": "string"
            }
          ],
          "internalType": "struct IStorage.Project",
          "name": "",
          "type": "tuple"
        }
      ],
      "stateMutability": "view",
      "type": "function"
    },
    {
      "inputs": [
        {
          "internalType": "string",
          "name": "_name",
          "type": "string"
        }
      ],
      "name": "tokenList",
      "outputs": [
        {
          "internalType": "string",
          "name": "_listData",
          "type": "string"
        }
      ],
      "stateMutability": "view",
      "type": "function"
    },
    {
      "inputs": [],
      "name": "tokenLists",
      "outputs": [
        {
          "internalType": "string[]",
          "name": "",
          "type": "string[]"
        }
      ],
      "stateMutability": "view",
      "type": "function"
    }
  ],
  "bytecode": "0x608060405234801561001057600080fd5b50604051611d1b380380611d1b83398101604081905261002f91610054565b600080546001600160a01b0319166001600160a01b0392909216919091179055610082565b600060208284031215610065578081fd5b81516001600160a01b038116811461007b578182fd5b9392505050565b611c8a806100916000396000f3fe608060405234801561001057600080fd5b50600436106100ea5760003560e01c80638da5cb5b1161008c578063da07758c11610066578063da07758c146101c7578063dc398435146101dc578063e5eab096146101e4578063f60ca60d146101f7576100ea565b80638da5cb5b1461018c578063bf748234146101a1578063ce85004f146101b4576100ea565b806327d85bcb116100c857806327d85bcb1461014057806348b6b16f146101535780635a022df5146101665780638a66010814610179576100ea565b806313af4035146100ef5780631820a2de1461010457806326e3b2411461012d575b600080fd5b6101026100fd36600461154d565b61020c565b005b610117610112366004611588565b6102fa565b6040516101249190611953565b60405180910390f35b61010261013b366004611588565b61049c565b61010261014e3660046116a8565b61076e565b610102610161366004611588565b6107f4565b610102610174366004611624565b61084e565b610102610187366004611588565b610a72565b610194610acc565b60405161012491906118b4565b6101026101af366004611588565b610ae8565b6101026101c23660046115c3565b610b42565b6101cf610dd9565b60405161012491906118d5565b610102610f95565b6101026101f2366004611588565b610ff4565b6101ff61104e565b6040516101249190611a42565b60005473ffffffffffffffffffffffffffffffffffffffff163314610266576040517f08c379a000000000000000000000000000000000000000000000000000000000815260040161025d90611966565b60405180910390fd5b73ffffffffffffffffffffffffffffffffffffffff81166102b3576040517f08c379a000000000000000000000000000000000000000000000000000000000815260040161025d9061199d565b600080547fffffffffffffffffffffffff00000000000000000000000000000000000000001673ffffffffffffffffffffffffffffffffffffffff92909216919091179055565b606060005b600554811015610495578260405160200161031a91906117c6565b604051602081830303815290604052805190602001206005828154811061036a577f4e487b7100000000000000000000000000000000000000000000000000000000600052603260045260246000fd5b906000526020600020906002020160000160405160200161038b91906117e2565b60405160208183030381529060405280519060200120141561048357600581815481106103e1577f4e487b7100000000000000000000000000000000000000000000000000000000600052603260045260246000fd5b906000526020600020906002020160010180546103fd90611b6f565b80601f016020809104026020016040519081016040528092919081815260200182805461042990611b6f565b80156104765780601f1061044b57610100808354040283529160200191610476565b820191906000526020600020905b81548152906001019060200180831161045957829003601f168201915b5050505050915050610497565b8061048d81611bbd565b9150506102ff565b505b919050565b60005473ffffffffffffffffffffffffffffffffffffffff1633146104ed576040517f08c379a000000000000000000000000000000000000000000000000000000000815260040161025d90611966565b80518190610527576040517f08c379a000000000000000000000000000000000000000000000000000000000815260040161025d906119d4565b6000805b60055461053a90600190611b2c565b8110156106d9578360405160200161055291906117c6565b60405160208183030381529060405280519060200120600582815481106105a2577f4e487b7100000000000000000000000000000000000000000000000000000000600052603260045260246000fd5b90600052602060002090600202016000016040516020016105c391906117e2565b6040516020818303038152906040528051906020012014156105e457600191505b81156106c75760056105f7826001611b14565b8154811061062e577f4e487b7100000000000000000000000000000000000000000000000000000000600052603260045260246000fd5b906000526020600020906002020160058281548110610676577f4e487b7100000000000000000000000000000000000000000000000000000000600052603260045260246000fd5b9060005260206000209060020201600082018160000190805461069890611b6f565b6106a3929190611300565b5060018201816001019080546106b890611b6f565b6106c3929190611300565b5050505b806106d181611bbd565b91505061052b565b508015610769576005805480610718577f4e487b7100000000000000000000000000000000000000000000000000000000600052603160045260246000fd5b6000828152602081207fffffffffffffffffffffffffffffffffffffffffffffffffffffffffffffffff90920191600283020190610756828261138b565b61076460018301600061138b565b505090555b505050565b60005473ffffffffffffffffffffffffffffffffffffffff1633146107bf576040517f08c379a000000000000000000000000000000000000000000000000000000000815260040161025d90611966565b80516107ca906112b0565b6107d781602001516112c7565b6107e481604001516112da565b6107f181606001516112ed565b50565b60005473ffffffffffffffffffffffffffffffffffffffff163314610845576040517f08c379a000000000000000000000000000000000000000000000000000000000815260040161025d90611966565b6107f1816112c7565b60005473ffffffffffffffffffffffffffffffffffffffff16331461089f576040517f08c379a000000000000000000000000000000000000000000000000000000000815260040161025d90611966565b8251839083901515806108b25750805115155b6108e8576040517f08c379a000000000000000000000000000000000000000000000000000000000815260040161025d90611a0b565b60005b600554811015610a6a578560405160200161090691906117c6565b6040516020818303038152906040528051906020012060058281548110610956577f4e487b7100000000000000000000000000000000000000000000000000000000600052603260045260246000fd5b906000526020600020906002020160000160405160200161097791906117e2565b604051602081830303815290604052805190602001201415610a585784600582815481106109ce577f4e487b7100000000000000000000000000000000000000000000000000000000600052603260045260246000fd5b906000526020600020906002020160000190805190602001906109f29291906113c7565b508360058281548110610a2e577f4e487b7100000000000000000000000000000000000000000000000000000000600052603260045260246000fd5b90600052602060002090600202016001019080519060200190610a529291906113c7565b50610a6a565b80610a6281611bbd565b9150506108eb565b505050505050565b60005473ffffffffffffffffffffffffffffffffffffffff163314610ac3576040517f08c379a000000000000000000000000000000000000000000000000000000000815260040161025d90611966565b6107f1816112ed565b60005473ffffffffffffffffffffffffffffffffffffffff1690565b60005473ffffffffffffffffffffffffffffffffffffffff163314610b39576040517f08c379a000000000000000000000000000000000000000000000000000000000815260040161025d90611966565b6107f1816112da565b60005473ffffffffffffffffffffffffffffffffffffffff163314610b93576040517f08c379a000000000000000000000000000000000000000000000000000000000815260040161025d90611966565b81518290610bcd576040517f08c379a000000000000000000000000000000000000000000000000000000000815260040161025d906119d4565b6000805b600554811015610d505784604051602001610bec91906117c6565b6040516020818303038152906040528051906020012060058281548110610c3c577f4e487b7100000000000000000000000000000000000000000000000000000000600052603260045260246000fd5b9060005260206000209060020201600001604051602001610c5d91906117e2565b604051602081830303815290604052805190602001201415610d3e578460058281548110610cb4577f4e487b7100000000000000000000000000000000000000000000000000000000600052603260045260246000fd5b90600052602060002090600202016000019080519060200190610cd89291906113c7565b508360058281548110610d14577f4e487b7100000000000000000000000000000000000000000000000000000000600052603260045260246000fd5b90600052602060002090600202016001019080519060200190610d389291906113c7565b50600191505b80610d4881611bbd565b915050610bd1565b5080610dd357604080518082019091528481526020808201859052600580546001810182556000919091528251805160029092027f036b6384b5eca791c62761152d0c79bb0604c104a5fb6f4eb0703f3154bb3db00192610db6928492909101906113c7565b506020828101518051610dcf92600185019201906113c7565b5050505b50505050565b60055460609060009067ffffffffffffffff811115610e21577f4e487b7100000000000000000000000000000000000000000000000000000000600052604160045260246000fd5b604051908082528060200260200182016040528015610e5457816020015b6060815260200190600190039081610e3f5790505b50905060005b600554811015610f8f5760058181548110610e9e577f4e487b7100000000000000000000000000000000000000000000000000000000600052603260045260246000fd5b90600052602060002090600202016001018054610eba90611b6f565b80601f0160208091040260200160405190810160405280929190818152602001828054610ee690611b6f565b8015610f335780601f10610f0857610100808354040283529160200191610f33565b820191906000526020600020905b815481529060010190602001808311610f1657829003601f168201915b5050505050828281518110610f71577f4e487b7100000000000000000000000000000000000000000000000000000000600052603260045260246000fd5b60200260200101819052508080610f8790611bbd565b915050610e5a565b50905090565b60005473ffffffffffffffffffffffffffffffffffffffff163314610fe6576040517f08c379a000000000000000000000000000000000000000000000000000000000815260040161025d90611966565b610ff26005600061143b565b565b60005473ffffffffffffffffffffffffffffffffffffffff163314611045576040517f08c379a000000000000000000000000000000000000000000000000000000000815260040161025d90611966565b6107f1816112b0565b61105661145c565b600160405180608001604052908160008201805461107390611b6f565b80601f016020809104026020016040519081016040528092919081815260200182805461109f90611b6f565b80156110ec5780601f106110c1576101008083540402835291602001916110ec565b820191906000526020600020905b8154815290600101906020018083116110cf57829003601f168201915b5050505050815260200160018201805461110590611b6f565b80601f016020809104026020016040519081016040528092919081815260200182805461113190611b6f565b801561117e5780601f106111535761010080835404028352916020019161117e565b820191906000526020600020905b81548152906001019060200180831161116157829003601f168201915b5050505050815260200160028201805461119790611b6f565b80601f01602080910402602001604051908101604052809291908181526020018280546111c390611b6f565b80156112105780601f106111e557610100808354040283529160200191611210565b820191906000526020600020905b8154815290600101906020018083116111f357829003601f168201915b5050505050815260200160038201805461122990611b6f565b80601f016020809104026020016040519081016040528092919081815260200182805461125590611b6f565b80156112a25780601f10611277576101008083540402835291602001916112a2565b820191906000526020600020905b81548152906001019060200180831161128557829003601f168201915b505050505081525050905090565b80516112c39060019060208401906113c7565b5050565b80516112c39060029060208401906113c7565b80516112c39060039060208401906113c7565b80516112c39060049060208401906113c7565b82805461130c90611b6f565b90600052602060002090601f01602090048101928261132e576000855561137b565b82601f1061133f578054855561137b565b8280016001018555821561137b57600052602060002091601f016020900482015b8281111561137b578254825591600101919060010190611360565b50611387929150611484565b5090565b50805461139790611b6f565b6000825580601f106113a957506107f1565b601f0160209004906000526020600020908101906107f19190611484565b8280546113d390611b6f565b90600052602060002090601f0160209004810192826113f5576000855561137b565b82601f1061140e57805160ff191683800117855561137b565b8280016001018555821561137b579182015b8281111561137b578251825591602001919060010190611420565b50805460008255600202906000526020600020908101906107f19190611499565b6040518060800160405280606081526020016060815260200160608152602001606081525090565b5b808211156113875760008155600101611485565b808211156113875760006114ad828261138b565b6114bb60018301600061138b565b50600201611499565b600082601f8301126114d4578081fd5b813567ffffffffffffffff8111156114ee576114ee611c25565b61151f60207fffffffffffffffffffffffffffffffffffffffffffffffffffffffffffffffe0601f84011601611ade565b818152846020838601011115611533578283fd5b816020850160208301379081016020019190915292915050565b60006020828403121561155e578081fd5b813573ffffffffffffffffffffffffffffffffffffffff81168114611581578182fd5b9392505050565b600060208284031215611599578081fd5b813567ffffffffffffffff8111156115af578182fd5b6115bb848285016114c4565b949350505050565b600080604083850312156115d5578081fd5b823567ffffffffffffffff808211156115ec578283fd5b6115f8868387016114c4565b9350602085013591508082111561160d578283fd5b5061161a858286016114c4565b9150509250929050565b600080600060608486031215611638578081fd5b833567ffffffffffffffff8082111561164f578283fd5b61165b878388016114c4565b94506020860135915080821115611670578283fd5b61167c878388016114c4565b93506040860135915080821115611691578283fd5b5061169e868287016114c4565b9150509250925092565b6000602082840312156116b9578081fd5b813567ffffffffffffffff808211156116d0578283fd5b90830190608082860312156116e3578283fd5b6116ed6080611ade565b8235828111156116fb578485fd5b611707878286016114c4565b82525060208301358281111561171b578485fd5b611727878286016114c4565b60208301525060408301358281111561173e578485fd5b61174a878286016114c4565b604083015250606083013582811115611761578485fd5b61176d878286016114c4565b60608301525095945050505050565b60008151808452611794816020860160208601611b43565b601f017fffffffffffffffffffffffffffffffffffffffffffffffffffffffffffffffe0169290920160200192915050565b600082516117d8818460208701611b43565b9190910192915050565b81546000908190600281046001808316806117fe57607f831692505b6020808410821415611837577f4e487b710000000000000000000000000000000000000000000000000000000087526022600452602487fd5b81801561184b576001811461187a576118a6565b7fffffffffffffffffffffffffffffffffffffffffffffffffffffffffffffff008616895284890196506118a6565b6118838a611b08565b885b8681101561189e5781548b820152908501908301611885565b505084890196505b509498975050505050505050565b73ffffffffffffffffffffffffffffffffffffffff91909116815260200190565b6000602080830181845280855180835260408601915060408482028701019250838701855b82811015611946577fffffffffffffffffffffffffffffffffffffffffffffffffffffffffffffffc088860301845261193485835161177c565b945092850192908501906001016118fa565b5092979650505050505050565b600060208252611581602083018461177c565b60208082526010908201527f4f776e65723a20464f5242494444454e00000000000000000000000000000000604082015260600190565b6020808252600c908201527f5a65726f20616464726573730000000000000000000000000000000000000000604082015260600190565b60208082526007908201527f4e6f206e616d6500000000000000000000000000000000000000000000000000604082015260600190565b6020808252600e908201527f4e616d6573207265717569726564000000000000000000000000000000000000604082015260600190565b600060208252825160806020840152611a5e60a084018261177c565b905060208401517fffffffffffffffffffffffffffffffffffffffffffffffffffffffffffffffe080858403016040860152611a9a838361177c565b92506040860151915080858403016060860152611ab7838361177c565b9250606086015191508085840301608086015250611ad5828261177c565b95945050505050565b60405181810167ffffffffffffffff81118282101715611b0057611b00611c25565b604052919050565b60009081526020902090565b60008219821115611b2757611b27611bf6565b500190565b600082821015611b3e57611b3e611bf6565b500390565b60005b83811015611b5e578181015183820152602001611b46565b83811115610dd35750506000910152565b600281046001821680611b8357607f821691505b60208210811415610495577f4e487b7100000000000000000000000000000000000000000000000000000000600052602260045260246000fd5b60007fffffffffffffffffffffffffffffffffffffffffffffffffffffffffffffffff821415611bef57611bef611bf6565b5060010190565b7f4e487b7100000000000000000000000000000000000000000000000000000000600052601160045260246000fd5b7f4e487b7100000000000000000000000000000000000000000000000000000000600052604160045260246000fdfea264697066735822122024a25fbb3dd5f3b6270c7dd759905bd64502d554a22f18e9ff2e885c018d307a64736f6c63430008000033",
  "immutableReferences": {},
  "source": "// SPDX-License-Identifier: MIT\npragma solidity ^0.8.0;\n\nimport './IStorage.sol';\n\ncontract Storage is IStorage {\n    address private _owner;\n    Project private _project;\n    TokenList[] private _tokenLists;\n\n    modifier onlyOwner() {\n        require(msg.sender == _owner, \"Owner: FORBIDDEN\");\n        _;\n    }\n\n    constructor(address owner_) {\n        _owner = owner_;\n    }\n\n    function setOwner(address owner_) external override onlyOwner {\n        require(owner_ != address(0), \"Zero address\");\n        _owner = owner_;\n    }\n\n    function setDomain(string memory _domain) external override onlyOwner {\n        _setDomain(_domain);\n    }\n\n    function setProjectName(string memory _name) external override onlyOwner {\n        _setProjectName(_name);\n    }\n\n    function setLogoUrl(string memory _logo) external override onlyOwner {\n        _setLogoUrl(_logo);\n    }\n\n    function setBrandColor(string memory _color) external override onlyOwner {\n        _setBrandColor(_color);\n    }\n\n    function addTokenList(string memory _name, string memory _data) external override onlyOwner {\n        bytes memory byteName = bytes(_name);\n        require(byteName.length != 0, \"No name\");\n        bool exist;\n        for(uint256 x; x < _tokenLists.length; x++) {\n            if (keccak256(abi.encodePacked(_tokenLists[x].name)) == keccak256(abi.encodePacked(_name))) {\n                _tokenLists[x].name = _name;\n                _tokenLists[x].data = _data;\n                exist = true;\n            }\n        }\n        if (!exist) _tokenLists.push(TokenList({name: _name, data: _data}));\n    }\n\n    function updateTokenList(\n        string memory _oldName,\n        string memory _name,\n        string memory _data\n    ) external override onlyOwner {\n        bytes memory byteOldName = bytes(_oldName);\n        bytes memory byteName = bytes(_name);\n        require(byteOldName.length != 0 || byteName.length != 0, \"Names required\");\n        for(uint256 x; x < _tokenLists.length; x++) {\n            if (keccak256(abi.encodePacked(_tokenLists[x].name)) == keccak256(abi.encodePacked(_oldName))) {\n                _tokenLists[x].name = _name;\n                _tokenLists[x].data = _data;\n                break;\n            }\n        }\n    }\n\n    function removeTokenList(string memory _name) external override onlyOwner {\n        bytes memory byteName = bytes(_name);\n        require(byteName.length != 0, \"No name\");\n        bool arrayOffset;\n        for(uint256 x; x < _tokenLists.length - 1; x++) {\n            if (keccak256(abi.encodePacked(_tokenLists[x].name)) == keccak256(abi.encodePacked(_name))) {\n                arrayOffset = true;\n            }\n            if (arrayOffset) _tokenLists[x] = _tokenLists[x + 1];\n        }\n        if (arrayOffset) _tokenLists.pop();\n    }\n\n    function clearTokenLists() external override onlyOwner {\n        delete _tokenLists;\n    }\n\n    function setFullData(Project memory _newData) external override onlyOwner {\n        _setDomain(_newData.domain);\n        _setProjectName(_newData.name);\n        _setLogoUrl(_newData.logo);\n        _setBrandColor(_newData.brandColor);\n    }\n\n    function owner() external override view returns(address) {\n        return _owner;\n    }\n\n    function project() external override view returns(Project memory) {\n        return _project;\n    }\n\n    function tokenList(string memory _name) external override view returns(string memory _listData) {\n        for(uint256 x; x < _tokenLists.length; x++) {\n            if (keccak256(abi.encodePacked(_tokenLists[x].name)) == keccak256(abi.encodePacked(_name))) {\n                return _tokenLists[x].data;\n            }\n        }\n    }\n\n    function tokenLists() external override view returns(string[] memory) {\n        string[] memory lists = new string[](_tokenLists.length);\n        for(uint256 x; x < _tokenLists.length; x++) {\n            lists[x] = _tokenLists[x].data;\n        }\n        return lists;\n    }\n\n    function _setDomain(string memory _domain) private {\n        _project.domain = _domain;\n    }\n\n    function _setProjectName(string memory _name) private {\n        _project.name = _name;\n    }\n\n    function _setLogoUrl(string memory _logo) private {\n        _project.logo = _logo;\n    }\n\n    function _setBrandColor(string memory _color) private {\n        _project.brandColor = _color;\n    }\n}",
  "sourcePath": "/home/user/Github/solidity/storage/contracts/Storage.sol",
  "compiler": {
    "name": "solc",
    "version": "0.8.0+commit.c7dfd78e.Emscripten.clang"
  },
  "schemaVersion": "3.4.3",
  "updatedAt": "2021-11-30T07:45:36.176Z",
  "devdoc": {
    "kind": "dev",
    "methods": {},
    "version": 1
  },
  "userdoc": {
    "kind": "user",
    "methods": {},
    "version": 1
  }
}