{"contractName":"Storage","abi":[{"inputs":[{"internalType":"address","name":"owner_","type":"address"}],"stateMutability":"nonpayable","type":"constructor"},{"inputs":[{"internalType":"address","name":"owner_","type":"address"}],"name":"setOwner","outputs":[],"stateMutability":"nonpayable","type":"function"},{"inputs":[{"internalType":"string","name":"settings_","type":"string"}],"name":"setSettings","outputs":[],"stateMutability":"nonpayable","type":"function"},{"inputs":[{"internalType":"string","name":"_name","type":"string"},{"internalType":"string","name":"_data","type":"string"}],"name":"addTokenList","outputs":[],"stateMutability":"nonpayable","type":"function"},{"inputs":[{"components":[{"internalType":"string","name":"name","type":"string"},{"internalType":"string","name":"data","type":"string"}],"internalType":"struct Storage.TokenList[]","name":"_lists","type":"tuple[]"}],"name":"addTokenLists","outputs":[],"stateMutability":"nonpayable","type":"function"},{"inputs":[{"internalType":"string","name":"_oldName","type":"string"},{"internalType":"string","name":"_name","type":"string"},{"internalType":"string","name":"_data","type":"string"}],"name":"updateTokenList","outputs":[],"stateMutability":"nonpayable","type":"function"},{"inputs":[{"internalType":"string","name":"_name","type":"string"}],"name":"removeTokenList","outputs":[],"stateMutability":"nonpayable","type":"function"},{"inputs":[],"name":"clearTokenLists","outputs":[],"stateMutability":"nonpayable","type":"function"},{"inputs":[],"name":"owner","outputs":[{"internalType":"address","name":"","type":"address"}],"stateMutability":"view","type":"function"},{"inputs":[],"name":"settings","outputs":[{"internalType":"string","name":"","type":"string"}],"stateMutability":"view","type":"function"},{"inputs":[{"internalType":"string","name":"_name","type":"string"}],"name":"tokenList","outputs":[{"internalType":"string","name":"_listData","type":"string"}],"stateMutability":"view","type":"function"},{"inputs":[],"name":"tokenLists","outputs":[{"internalType":"string[]","name":"","type":"string[]"}],"stateMutability":"view","type":"function"}],"bytecode":"0x608060405234801561001057600080fd5b50604051611a2c380380611a2c83398101604081905261002f91610054565b600080546001600160a01b0319166001600160a01b0392909216919091179055610082565b600060208284031215610065578081fd5b81516001600160a01b038116811461007b578182fd5b9392505050565b61199b806100916000396000f3fe608060405234801561001057600080fd5b50600436106100c95760003560e01c8063a0e7c25e11610081578063da07758c1161005b578063da07758c14610180578063dc39843514610195578063e06174e41461019d576100c9565b8063a0e7c25e14610147578063bc83c5f81461015a578063ce85004f1461016d576100c9565b806326e3b241116100b257806326e3b2411461010c5780635a022df51461011f5780638da5cb5b14610132576100c9565b806313af4035146100ce5780631820a2de146100e3575b600080fd5b6100e16100dc366004611270565b6101a5565b005b6100f66100f13660046113d2565b610293565b60405161010391906116c9565b60405180910390f35b6100e161011a3660046113d2565b610435565b6100e161012d36600461146e565b610707565b61013a61092b565b604051610103919061162a565b6100e16101553660046113d2565b610947565b6100e16101683660046112ab565b6109a4565b6100e161017b36600461140d565b6109fe565b610188610a5d565b604051610103919061164b565b6100e1610c19565b6100f6610c78565b60005473ffffffffffffffffffffffffffffffffffffffff1633146101ff576040517f08c379a00000000000000000000000000000000000000000000000000000000081526004016101f6906116dc565b60405180910390fd5b73ffffffffffffffffffffffffffffffffffffffff811661024c576040517f08c379a00000000000000000000000000000000000000000000000000000000081526004016101f69061174a565b600080547fffffffffffffffffffffffff00000000000000000000000000000000000000001673ffffffffffffffffffffffffffffffffffffffff92909216919091179055565b606060005b60025481101561042e57826040516020016102b3919061153c565b6040516020818303038152906040528051906020012060028281548110610303577f4e487b7100000000000000000000000000000000000000000000000000000000600052603260045260246000fd5b90600052602060002090600202016000016040516020016103249190611558565b60405160208183030381529060405280519060200120141561041c576002818154811061037a577f4e487b7100000000000000000000000000000000000000000000000000000000600052603260045260246000fd5b9060005260206000209060020201600101805461039690611880565b80601f01602080910402602001604051908101604052809291908181526020018280546103c290611880565b801561040f5780601f106103e45761010080835404028352916020019161040f565b820191906000526020600020905b8154815290600101906020018083116103f257829003601f168201915b5050505050915050610430565b80610426816118ce565b915050610298565b505b919050565b60005473ffffffffffffffffffffffffffffffffffffffff163314610486576040517f08c379a00000000000000000000000000000000000000000000000000000000081526004016101f6906116dc565b805181906104c0576040517f08c379a00000000000000000000000000000000000000000000000000000000081526004016101f6906117b8565b6000805b6002546104d39060019061183d565b81101561067257836040516020016104eb919061153c565b604051602081830303815290604052805190602001206002828154811061053b577f4e487b7100000000000000000000000000000000000000000000000000000000600052603260045260246000fd5b906000526020600020906002020160000160405160200161055c9190611558565b60405160208183030381529060405280519060200120141561057d57600191505b8115610660576002610590826001611825565b815481106105c7577f4e487b7100000000000000000000000000000000000000000000000000000000600052603260045260246000fd5b90600052602060002090600202016002828154811061060f577f4e487b7100000000000000000000000000000000000000000000000000000000600052603260045260246000fd5b9060005260206000209060020201600082018160000190805461063190611880565b61063c92919061104b565b50600182018160010190805461065190611880565b61065c92919061104b565b5050505b8061066a816118ce565b9150506104c4565b5080156107025760028054806106b1577f4e487b7100000000000000000000000000000000000000000000000000000000600052603160045260246000fd5b6000828152602081207fffffffffffffffffffffffffffffffffffffffffffffffffffffffffffffffff909201916002830201906106ef82826110d6565b6106fd6001830160006110d6565b505090555b505050565b60005473ffffffffffffffffffffffffffffffffffffffff163314610758576040517f08c379a00000000000000000000000000000000000000000000000000000000081526004016101f6906116dc565b82518390839015158061076b5750805115155b6107a1576040517f08c379a00000000000000000000000000000000000000000000000000000000081526004016101f690611781565b60005b60025481101561092357856040516020016107bf919061153c565b604051602081830303815290604052805190602001206002828154811061080f577f4e487b7100000000000000000000000000000000000000000000000000000000600052603260045260246000fd5b90600052602060002090600202016000016040516020016108309190611558565b604051602081830303815290604052805190602001201415610911578460028281548110610887577f4e487b7100000000000000000000000000000000000000000000000000000000600052603260045260246000fd5b906000526020600020906002020160000190805190602001906108ab929190611112565b5083600282815481106108e7577f4e487b7100000000000000000000000000000000000000000000000000000000600052603260045260246000fd5b9060005260206000209060020201600101908051906020019061090b929190611112565b50610923565b8061091b816118ce565b9150506107a4565b505050505050565b60005473ffffffffffffffffffffffffffffffffffffffff1690565b60005473ffffffffffffffffffffffffffffffffffffffff163314610998576040517f08c379a00000000000000000000000000000000000000000000000000000000081526004016101f6906116dc565b6109a181610d0a565b50565b60005473ffffffffffffffffffffffffffffffffffffffff1633146109f5576040517f08c379a00000000000000000000000000000000000000000000000000000000081526004016101f6906116dc565b6109a181610d1d565b60005473ffffffffffffffffffffffffffffffffffffffff163314610a4f576040517f08c379a00000000000000000000000000000000000000000000000000000000081526004016101f6906116dc565b610a598282610e08565b5050565b60025460609060009067ffffffffffffffff811115610aa5577f4e487b7100000000000000000000000000000000000000000000000000000000600052604160045260246000fd5b604051908082528060200260200182016040528015610ad857816020015b6060815260200190600190039081610ac35790505b50905060005b600254811015610c135760028181548110610b22577f4e487b7100000000000000000000000000000000000000000000000000000000600052603260045260246000fd5b90600052602060002090600202016001018054610b3e90611880565b80601f0160208091040260200160405190810160405280929190818152602001828054610b6a90611880565b8015610bb75780601f10610b8c57610100808354040283529160200191610bb7565b820191906000526020600020905b815481529060010190602001808311610b9a57829003601f168201915b5050505050828281518110610bf5577f4e487b7100000000000000000000000000000000000000000000000000000000600052603260045260246000fd5b60200260200101819052508080610c0b906118ce565b915050610ade565b50905090565b60005473ffffffffffffffffffffffffffffffffffffffff163314610c6a576040517f08c379a00000000000000000000000000000000000000000000000000000000081526004016101f6906116dc565b610c7660026000611186565b565b606060018054610c8790611880565b80601f0160208091040260200160405190810160405280929190818152602001828054610cb390611880565b8015610d005780601f10610cd557610100808354040283529160200191610d00565b820191906000526020600020905b815481529060010190602001808311610ce357829003601f168201915b5050505050905090565b8051610a59906001906020840190611112565b6000815111610d58576040517f08c379a00000000000000000000000000000000000000000000000000000000081526004016101f690611713565b60005b8151811015610a5957610df6828281518110610da0577f4e487b7100000000000000000000000000000000000000000000000000000000600052603260045260246000fd5b602002602001015160000151838381518110610de5577f4e487b7100000000000000000000000000000000000000000000000000000000600052603260045260246000fd5b602002602001015160200151610e08565b80610e00816118ce565b915050610d5b565b81518290610e42576040517f08c379a00000000000000000000000000000000000000000000000000000000081526004016101f6906117b8565b6000805b600254811015610fc55784604051602001610e61919061153c565b6040516020818303038152906040528051906020012060028281548110610eb1577f4e487b7100000000000000000000000000000000000000000000000000000000600052603260045260246000fd5b9060005260206000209060020201600001604051602001610ed29190611558565b604051602081830303815290604052805190602001201415610fb3578460028281548110610f29577f4e487b7100000000000000000000000000000000000000000000000000000000600052603260045260246000fd5b90600052602060002090600202016000019080519060200190610f4d929190611112565b508360028281548110610f89577f4e487b7100000000000000000000000000000000000000000000000000000000600052603260045260246000fd5b90600052602060002090600202016001019080519060200190610fad929190611112565b50600191505b80610fbd816118ce565b915050610e46565b50806110455760408051808201909152848152602080820185905260028054600181018255600082905283518051919092027f405787fa12a823e0f2b7631cc41b3ba8828b3321ca811111fa75cd3aa3bb5ace0192611028928492910190611112565b5060208281015180516110419260018501920190611112565b5050505b50505050565b82805461105790611880565b90600052602060002090601f01602090048101928261107957600085556110c6565b82601f1061108a57805485556110c6565b828001600101855582156110c657600052602060002091601f016020900482015b828111156110c65782548255916001019190600101906110ab565b506110d29291506111a7565b5090565b5080546110e290611880565b6000825580601f106110f457506109a1565b601f0160209004906000526020600020908101906109a191906111a7565b82805461111e90611880565b90600052602060002090601f01602090048101928261114057600085556110c6565b82601f1061115957805160ff19168380011785556110c6565b828001600101855582156110c6579182015b828111156110c657825182559160200191906001019061116b565b50805460008255600202906000526020600020908101906109a191906111bc565b5b808211156110d257600081556001016111a8565b808211156110d25760006111d082826110d6565b6111de6001830160006110d6565b506002016111bc565b600082601f8301126111f7578081fd5b813567ffffffffffffffff81111561121157611211611936565b61124260207fffffffffffffffffffffffffffffffffffffffffffffffffffffffffffffffe0601f840116016117ef565b818152846020838601011115611256578283fd5b816020850160208301379081016020019190915292915050565b600060208284031215611281578081fd5b813573ffffffffffffffffffffffffffffffffffffffff811681146112a4578182fd5b9392505050565b600060208083850312156112bd578182fd5b823567ffffffffffffffff808211156112d4578384fd5b818501915085601f8301126112e7578384fd5b8135818111156112f9576112f9611936565b61130684858302016117ef565b81815284810190848601875b848110156113c357813587016040807fffffffffffffffffffffffffffffffffffffffffffffffffffffffffffffffe0838f03011215611350578a8bfd5b80518181018181108a8211171561136957611369611936565b8252828b01358981111561137b578c8dfd5b6113898f8d838701016111e7565b82525090820135908882111561139d578b8cfd5b6113ab8e8c848601016111e7565b818c0152865250509287019290870190600101611312565b50909998505050505050505050565b6000602082840312156113e3578081fd5b813567ffffffffffffffff8111156113f9578182fd5b611405848285016111e7565b949350505050565b6000806040838503121561141f578081fd5b823567ffffffffffffffff80821115611436578283fd5b611442868387016111e7565b93506020850135915080821115611457578283fd5b50611464858286016111e7565b9150509250929050565b600080600060608486031215611482578081fd5b833567ffffffffffffffff80821115611499578283fd5b6114a5878388016111e7565b945060208601359150808211156114ba578283fd5b6114c6878388016111e7565b935060408601359150808211156114db578283fd5b506114e8868287016111e7565b9150509250925092565b6000815180845261150a816020860160208601611854565b601f017fffffffffffffffffffffffffffffffffffffffffffffffffffffffffffffffe0169290920160200192915050565b6000825161154e818460208701611854565b9190910192915050565b815460009081906002810460018083168061157457607f831692505b60208084108214156115ad577f4e487b710000000000000000000000000000000000000000000000000000000087526022600452602487fd5b8180156115c157600181146115f05761161c565b7fffffffffffffffffffffffffffffffffffffffffffffffffffffffffffffff0086168952848901965061161c565b6115f98a611819565b885b868110156116145781548b8201529085019083016115fb565b505084890196505b509498975050505050505050565b73ffffffffffffffffffffffffffffffffffffffff91909116815260200190565b6000602080830181845280855180835260408601915060408482028701019250838701855b828110156116bc577fffffffffffffffffffffffffffffffffffffffffffffffffffffffffffffffc08886030184526116aa8583516114f2565b94509285019290850190600101611670565b5092979650505050505050565b6000602082526112a460208301846114f2565b60208082526010908201527f4f776e65723a20464f5242494444454e00000000000000000000000000000000604082015260600190565b60208082526007908201527f4e4f5f4441544100000000000000000000000000000000000000000000000000604082015260600190565b6020808252600c908201527f5a45524f5f414444524553530000000000000000000000000000000000000000604082015260600190565b60208082526012908201527f4e414d45535f4152455f52455155495245440000000000000000000000000000604082015260600190565b60208082526007908201527f4e4f5f4e414d4500000000000000000000000000000000000000000000000000604082015260600190565b60405181810167ffffffffffffffff8111828210171561181157611811611936565b604052919050565b60009081526020902090565b6000821982111561183857611838611907565b500190565b60008282101561184f5761184f611907565b500390565b60005b8381101561186f578181015183820152602001611857565b838111156110455750506000910152565b60028104600182168061189457607f821691505b6020821081141561042e577f4e487b7100000000000000000000000000000000000000000000000000000000600052602260045260246000fd5b60007fffffffffffffffffffffffffffffffffffffffffffffffffffffffffffffffff82141561190057611900611907565b5060010190565b7f4e487b7100000000000000000000000000000000000000000000000000000000600052601160045260246000fd5b7f4e487b7100000000000000000000000000000000000000000000000000000000600052604160045260246000fdfea26469706673582212209f69ef579eac9657ccaec8616dfe62237873497f852f5586c2b1a579f56f827264736f6c63430008000033","immutableReferences":{},"source":"// SPDX-License-Identifier: MIT\npragma solidity ^0.8.0;\n\ncontract Storage {\n    struct TokenList {\n        string name;\n        string data;\n    }\n\n    address private _owner;\n    string private _settings;\n    TokenList[] private _tokenLists;\n\n    modifier onlyOwner() {\n        require(msg.sender == _owner, 'Owner: FORBIDDEN');\n        _;\n    }\n\n    constructor(address owner_) {\n        _owner = owner_;\n    }\n\n    function setOwner(address owner_) external onlyOwner {\n        require(owner_ != address(0), 'ZERO_ADDRESS');\n        _owner = owner_;\n    }\n\n    function setSettings(string memory settings_) external onlyOwner {\n        _setSettings(settings_);\n    }\n\n    function addTokenList(string memory _name, string memory _data) external onlyOwner {\n        _addTokenList(_name, _data);\n    }\n\n    function addTokenLists(TokenList[] memory _lists) external onlyOwner {\n        _addTokenLists(_lists);\n    }\n\n    function updateTokenList(\n        string memory _oldName,\n        string memory _name,\n        string memory _data\n    ) external onlyOwner {\n        bytes memory byteOldName = bytes(_oldName);\n        bytes memory byteName = bytes(_name);\n        require(byteOldName.length != 0 || byteName.length != 0, 'NAMES_ARE_REQUIRED');\n        for(uint x; x < _tokenLists.length; x++) {\n            if (keccak256(abi.encodePacked(_tokenLists[x].name)) == keccak256(abi.encodePacked(_oldName))) {\n                _tokenLists[x].name = _name;\n                _tokenLists[x].data = _data;\n                break;\n            }\n        }\n    }\n\n    function removeTokenList(string memory _name) external onlyOwner {\n        bytes memory byteName = bytes(_name);\n        require(byteName.length != 0, 'NO_NAME');\n        bool arrayOffset;\n        for(uint x; x < _tokenLists.length - 1; x++) {\n            if (keccak256(abi.encodePacked(_tokenLists[x].name)) == keccak256(abi.encodePacked(_name))) {\n                arrayOffset = true;\n            }\n            if (arrayOffset) _tokenLists[x] = _tokenLists[x + 1];\n        }\n        if (arrayOffset) _tokenLists.pop();\n    }\n\n    function clearTokenLists() external onlyOwner {\n        delete _tokenLists;\n    }\n\n    function owner() external view returns(address) {\n        return _owner;\n    }\n\n    function settings() external view returns(string memory) {\n        return _settings;\n    }\n\n    function tokenList(string memory _name) external view returns(string memory _listData) {\n        for(uint x; x < _tokenLists.length; x++) {\n            if (keccak256(abi.encodePacked(_tokenLists[x].name)) == keccak256(abi.encodePacked(_name))) {\n                return _tokenLists[x].data;\n            }\n        }\n    }\n\n    function tokenLists() external view returns(string[] memory) {\n        string[] memory lists = new string[](_tokenLists.length);\n        for(uint x; x < _tokenLists.length; x++) {\n            lists[x] = _tokenLists[x].data;\n        }\n        return lists;\n    }\n\n    function _setSettings(string memory settings_) private {\n        _settings = settings_;\n    }\n\n    function _addTokenList(string memory _name, string memory _data) private {\n        bytes memory byteName = bytes(_name);\n        require(byteName.length != 0, 'NO_NAME');\n        bool exist;\n        for(uint x; x < _tokenLists.length; x++) {\n            if (keccak256(abi.encodePacked(_tokenLists[x].name)) == keccak256(abi.encodePacked(_name))) {\n                _tokenLists[x].name = _name;\n                _tokenLists[x].data = _data;\n                exist = true;\n            }\n        }\n        if (!exist) _tokenLists.push(TokenList({name: _name, data: _data}));\n    }\n\n    function _addTokenLists(TokenList[] memory _lists) private {\n        require(_lists.length > 0, 'NO_DATA');\n        for(uint x; x < _lists.length; x++) {\n            _addTokenList(_lists[x].name, _lists[x].data);\n        }\n    }\n}","sourcePath":"/home/user/Github/solidity/storage/contracts/Storage.sol","compiler":{"name":"solc","version":"0.8.0+commit.c7dfd78e.Emscripten.clang"},"schemaVersion":"3.4.4","updatedAt":"2021-12-17T15:17:57.667Z","devdoc":{"kind":"dev","methods":{},"version":1},"userdoc":{"kind":"user","methods":{},"version":1}}